{
  "_format": "hh-sol-artifact-1",
  "contractName": "TxPriorityMock",
  "sourceName": "posdao-contracts/contracts/mock/TxPriorityMock.sol",
  "abi": [
    {
      "constant": false,
      "inputs": [
        {
          "name": "_target",
          "type": "address"
        },
        {
          "name": "_fnSignature",
          "type": "bytes4"
        },
        {
          "name": "_minGasPrice",
          "type": "uint256"
        }
      ],
      "name": "setMinGasPrice",
      "outputs": [],
      "payable": false,
      "stateMutability": "nonpayable",
      "type": "function"
    },
    {
      "constant": true,
      "inputs": [
        {
          "name": "_beforeWeight",
          "type": "uint256"
        }
      ],
      "name": "prevWeightInTree",
      "outputs": [
        {
          "name": "",
          "type": "uint256"
        }
      ],
      "payable": false,
      "stateMutability": "view",
      "type": "function"
    },
    {
      "constant": true,
      "inputs": [],
      "name": "firstWeightInTree",
      "outputs": [
        {
          "name": "",
          "type": "uint256"
        }
      ],
      "payable": false,
      "stateMutability": "view",
      "type": "function"
    },
    {
      "constant": true,
      "inputs": [],
      "name": "getSendersWhitelist",
      "outputs": [
        {
          "name": "whitelist",
          "type": "address[]"
        }
      ],
      "payable": false,
      "stateMutability": "view",
      "type": "function"
    },
    {
      "constant": true,
      "inputs": [],
      "name": "weightsCount",
      "outputs": [
        {
          "name": "",
          "type": "uint256"
        }
      ],
      "payable": false,
      "stateMutability": "view",
      "type": "function"
    },
    {
      "constant": false,
      "inputs": [
        {
          "name": "_target",
          "type": "address"
        },
        {
          "name": "_fnSignature",
          "type": "bytes4"
        }
      ],
      "name": "removePriority",
      "outputs": [],
      "payable": false,
      "stateMutability": "nonpayable",
      "type": "function"
    },
    {
      "constant": true,
      "inputs": [
        {
          "name": "_afterWeight",
          "type": "uint256"
        }
      ],
      "name": "nextWeightInTree",
      "outputs": [
        {
          "name": "",
          "type": "uint256"
        }
      ],
      "payable": false,
      "stateMutability": "view",
      "type": "function"
    },
    {
      "constant": true,
      "inputs": [],
      "name": "getMinGasPrices",
      "outputs": [
        {
          "components": [
            {
              "name": "target",
              "type": "address"
            },
            {
              "name": "fnSignature",
              "type": "bytes4"
            },
            {
              "name": "value",
              "type": "uint256"
            }
          ],
          "name": "prices",
          "type": "tuple[]"
        }
      ],
      "payable": false,
      "stateMutability": "view",
      "type": "function"
    },
    {
      "constant": false,
      "inputs": [
        {
          "name": "_target",
          "type": "address"
        },
        {
          "name": "_fnSignature",
          "type": "bytes4"
        }
      ],
      "name": "removeMinGasPrice",
      "outputs": [],
      "payable": false,
      "stateMutability": "nonpayable",
      "type": "function"
    },
    {
      "constant": true,
      "inputs": [],
      "name": "owner",
      "outputs": [
        {
          "name": "",
          "type": "address"
        }
      ],
      "payable": false,
      "stateMutability": "view",
      "type": "function"
    },
    {
      "constant": true,
      "inputs": [],
      "name": "lastWeightInTree",
      "outputs": [
        {
          "name": "",
          "type": "uint256"
        }
      ],
      "payable": false,
      "stateMutability": "view",
      "type": "function"
    },
    {
      "constant": true,
      "inputs": [],
      "name": "getPriorities",
      "outputs": [
        {
          "components": [
            {
              "name": "target",
              "type": "address"
            },
            {
              "name": "fnSignature",
              "type": "bytes4"
            },
            {
              "name": "value",
              "type": "uint256"
            }
          ],
          "name": "weights",
          "type": "tuple[]"
        }
      ],
      "payable": false,
      "stateMutability": "view",
      "type": "function"
    },
    {
      "constant": false,
      "inputs": [
        {
          "name": "_whitelist",
          "type": "address[]"
        }
      ],
      "name": "setSendersWhitelist",
      "outputs": [],
      "payable": false,
      "stateMutability": "nonpayable",
      "type": "function"
    },
    {
      "constant": false,
      "inputs": [
        {
          "name": "_target",
          "type": "address"
        },
        {
          "name": "_fnSignature",
          "type": "bytes4"
        },
        {
          "name": "_weight",
          "type": "uint256"
        }
      ],
      "name": "setPriority",
      "outputs": [],
      "payable": false,
      "stateMutability": "nonpayable",
      "type": "function"
    },
    {
      "constant": true,
      "inputs": [
        {
          "name": "_weight",
          "type": "uint256"
        }
      ],
      "name": "weightExistsInTree",
      "outputs": [
        {
          "name": "",
          "type": "bool"
        }
      ],
      "payable": false,
      "stateMutability": "view",
      "type": "function"
    },
    {
      "constant": true,
      "inputs": [
        {
          "name": "",
          "type": "uint256"
        }
      ],
      "name": "destinationByWeight",
      "outputs": [
        {
          "name": "target",
          "type": "address"
        },
        {
          "name": "fnSignature",
          "type": "bytes4"
        },
        {
          "name": "value",
          "type": "uint256"
        }
      ],
      "payable": false,
      "stateMutability": "view",
      "type": "function"
    },
    {
      "constant": false,
      "inputs": [
        {
          "name": "_newOwner",
          "type": "address"
        }
      ],
      "name": "transferOwnership",
      "outputs": [],
      "payable": false,
      "stateMutability": "nonpayable",
      "type": "function"
    },
    {
      "constant": true,
      "inputs": [
        {
          "name": "",
          "type": "address"
        },
        {
          "name": "",
          "type": "bytes4"
        }
      ],
      "name": "weightByDestination",
      "outputs": [
        {
          "name": "",
          "type": "uint256"
        }
      ],
      "payable": false,
      "stateMutability": "view",
      "type": "function"
    },
    {
      "inputs": [
        {
          "name": "_owner",
          "type": "address"
        },
        {
          "name": "_applyInitTestRules",
          "type": "bool"
        }
      ],
      "payable": false,
      "stateMutability": "nonpayable",
      "type": "constructor"
    },
    {
      "anonymous": false,
      "inputs": [
        {
          "indexed": true,
          "name": "target",
          "type": "address"
        },
        {
          "indexed": true,
          "name": "fnSignature",
          "type": "bytes4"
        },
        {
          "indexed": false,
          "name": "weight",
          "type": "uint256"
        }
      ],
      "name": "PrioritySet",
      "type": "event"
    },
    {
      "anonymous": false,
      "inputs": [
        {
          "indexed": false,
          "name": "whitelist",
          "type": "address[]"
        }
      ],
      "name": "SendersWhitelistSet",
      "type": "event"
    },
    {
      "anonymous": false,
      "inputs": [
        {
          "indexed": true,
          "name": "target",
          "type": "address"
        },
        {
          "indexed": true,
          "name": "fnSignature",
          "type": "bytes4"
        },
        {
          "indexed": false,
          "name": "minGasPrice",
          "type": "uint256"
        }
      ],
      "name": "MinGasPriceSet",
      "type": "event"
    },
    {
      "anonymous": false,
      "inputs": [
        {
          "indexed": true,
          "name": "previousOwner",
          "type": "address"
        },
        {
          "indexed": true,
          "name": "newOwner",
          "type": "address"
        }
      ],
      "name": "OwnershipTransferred",
      "type": "event"
    }
  ],
  "bytecode": "0x60806040523480156200001157600080fd5b50604051620031d7380380620031d7833981016040819052620000349162000d23565b816001600160a01b038116620000475750335b6001600160a01b0381166200005b57600080fd5b600880546001600160a01b0319166001600160a01b0383169081179091556040516000907f8be0079c531659141344cd1fd0a4f28419497f9722a3daafe3b4186f6b6457e0908290a35080156200073957620000c8600460006200074160201b620012981790919060201c565b6040805160608101825273110000000000000000000000000000000000000181526000602080830182815260049484018581528584526006835293517fc5069e24aaadb2addc3e52e868fcf3f4f8acf5a87e24300992fd4540c2a87eed8054925160e01c740100000000000000000000000000000000000000000263ffffffff60a01b196001600160a01b03939093166001600160a01b0319909416939093179190911691909117905591517fc5069e24aaadb2addc3e52e868fcf3f4f8acf5a87e24300992fd4540c2a87eee558080527f09e870aba9edc9cccb05ec560294732c0fd8d9e68347fac7872cd9fed045b2ed82527f78a818bbf136edb33f0494cca6bc58a83306cbe5fac8761217271ffd41953390929092556005805460010190556200020291906003906200129862000741821b17901c565b6040805160608101825273200000000000000000000000000000000000000181526000602080830182815260039484018581528584526006835293517f75f96ab15d697e93042dc45b5c896c4b27e89bb6eaf39475c5c371cb2513f7d28054925160e01c740100000000000000000000000000000000000000000263ffffffff60a01b196001600160a01b03939093166001600160a01b0319909416939093179190911691909117905591517f75f96ab15d697e93042dc45b5c896c4b27e89bb6eaf39475c5c371cb2513f7d3558080527f8dd365edb2390dfb690c8024d85b46ec85f8739c3cae1d3681d312ef663518f082527f6645a8b5e11c398de973cea68a601075b3cdfce8667c6531644c58c943b1aabe929092556005805460010190556200033c91906002906200129862000741821b17901c565b60405180606001604052807310000000000000000000000000000000000000016001600160a01b03168152602001600060e01b6001600160e01b03191681526020016002815250600660006002815260200190815260200160002060008201518160000160006101000a8154816001600160a01b0302191690836001600160a01b0316021790555060208201518160000160146101000a81548163ffffffff021916908360e01c0217905550604082015181600101559050506002600760007310000000000000000000000000000000000000016001600160a01b03166001600160a01b0316815260200190815260200160002060008060e01b6001600160e01b03191681526020019081526020016000208190555060056000815480929190600101919050555060027332e4e4c7c5d1cea5db5f9202a9e4d99e56c91a2490806001815401808255809150509060018203906000526020600020016000909192909190916101000a8154816001600160a01b0302191690836001600160a01b0316021790555050600380549050600460007311000000000000000000000000000000000000016001600160a01b03166001600160a01b0316815260200190815260200160002060006348aaa4a260e01b6001600160e01b031916815260200190815260200160002081905550600360405180606001604052807311000000000000000000000000000000000000016001600160a01b031681526020016348aaa4a260e01b6001600160e01b031916815260200164174876e8008152509080600181540180825580915050906001820390600052602060002090600202016000909192909190915060008201518160000160006101000a8154816001600160a01b0302191690836001600160a01b0316021790555060208201518160000160146101000a81548163ffffffff021916908360e01c021790555060408201518160010155505050600380549050600460007315b5c5a3d4bf2f2dfc356a442f72df372743d7cb6001600160a01b03166001600160a01b0316815260200190815260200160002060008060e01b6001600160e01b031916815260200190815260200160002081905550600360405180606001604052807315b5c5a3d4bf2f2dfc356a442f72df372743d7cb6001600160a01b03168152602001600060e01b6001600160e01b0319168152602001633b9aca008152509080600181540180825580915050906001820390600052602060002090600202016000909192909190915060008201518160000160006101000a8154816001600160a01b0302191690836001600160a01b0316021790555060208201518160000160146101000a81548163ffffffff021916908360e01c0217905550604082015181600101555050505b505062000da5565b806200074c57600080fd5b6200076182826001600160e01b036200087b16565b156200076c57600080fd5b81546000905b8015620007ba57809150808310156200079f576000908152600180850160205260409091200154620007b4565b60009081526001840160205260409020600201545b62000772565b60408051608081018252838152600060208083018281528385018381526001606086018181528a86528b82019094529590932093518455519383019390935551600282015590516003909101805460ff191691151591909117905581620008245782845562000860565b8183101562000849576000828152600180860160205260409091200183905562000860565b600082815260018501602052604090206002018390555b6200087584846001600160e01b03620008b016565b50505050565b60008115801590620008a757508254821480620008a75750600082815260018401602052604090205415155b90505b92915050565b60005b82548214801590620008de5750600082815260018401602052604080822054825290206003015460ff165b1562000b3057600082815260018085016020526040808320548084528184205484529220015481141562000a1d5760008181526001850160205260408082205482528082206002015480835291206003015490925060ff16156200098b576000818152600180860160205260408083206003808201805460ff1990811690915587865283862082018054821690558254865292852001805490921690921790559082905254925062000a17565b6000818152600185016020526040902060020154831415620009bf57915081620009bf84826001600160e01b0362000b5216565b50600082815260018085016020526040808320548084528184206003808201805460ff1990811690915582548752938620018054909316909317909155918290525462000a179085906001600160e01b0362000c2f16565b62000b29565b6000818152600180860160205260408083205483528083209091015480835291206003015490925060ff161562000a9d576000818152600180860160205260408083206003808201805460ff1990811690915587865283862082018054821690558254865292852001805490921690921790559082905254925062000b29565b600081815260018086016020526040909120015483141562000ad15791508162000ad184826001600160e01b0362000c2f16565b50600082815260018085016020526040808320548084528184206003808201805460ff1990811690915582548752938620018054909316909317909155918290525462000b299085906001600160e01b0362000b5216565b50620008b3565b505080546000908152600190910160205260409020600301805460ff19169055565b60008181526001808401602052604080832060028101805491548286529285209093015493859052918390559091801562000b9b57600081815260018601602052604090208490555b600083815260018601602052604090208290558162000bbd5782855562000c0c565b600082815260018087016020526040909120015484141562000bf5576000828152600180870160205260409091200183905562000c0c565b600082815260018601602052604090206002018390555b505060008181526001938401602052604080822090940183905591825291902055565b6000818152600180840160205260408083209182018054925483855291842060020154938590528390559091801562000c7657600081815260018601602052604090208490555b600083815260018601602052604090208290558162000c985782855562000ce7565b600082815260018601602052604090206002015484141562000cd0576000828152600186016020526040902060020183905562000ce7565b600082815260018087016020526040909120018390555b5050600081815260019093016020526040808420600201839055918352912055565b8051620008aa8162000d80565b8051620008aa8162000d9a565b6000806040838503121562000d3757600080fd5b600062000d45858562000d09565b925050602062000d588582860162000d16565b9150509250929050565b6000620008aa8262000d74565b151590565b6001600160a01b031690565b62000d8b8162000d62565b811462000d9757600080fd5b50565b62000d8b8162000d6f565b6124228062000db56000396000f3fe608060405234801561001057600080fd5b50600436106101165760003560e01c80638da5cb5b116100a2578063a5b62cb311610071578063a5b62cb314610204578063b8a68dfa14610217578063d13a265314610237578063f2fde38b14610259578063f53c7e2f1461026c57610116565b80638da5cb5b146101cc5780639b6745d6146101e1578063a0daeed2146101e9578063a2bf0af5146101f157610116565b8063399b6f3e116100e9578063399b6f3e14610176578063662520bd1461017e5780636f1f7158146101915780637d616fd3146101a4578063879cda73146101b957610116565b80630af283921461011b57806327ea089d14610130578063327b789814610159578063338cd6bd14610161575b600080fd5b61012e610129366004611ec8565b61027f565b005b61014361013e366004611f57565b610502565b6040516101509190612352565b60405180910390f35b61014361051c565b61016961052e565b60405161015091906122a4565b610143610590565b61012e61018c366004611e8e565b610596565b61014361019f366004611f57565b6106d1565b6101ac6106e3565b60405161015091906122b5565b61012e6101c7366004611e8e565b610774565b6101d46109f0565b604051610150919061225c565b6101436109ff565b6101ac610a0b565b61012e6101ff366004611f15565b610afc565b61012e610212366004611ec8565b610b70565b61022a610225366004611f57565b610d83565b60405161015091906122c6565b61024a610245366004611f57565b610d95565b6040516101509392919061226a565b61012e610267366004611e68565b610dc4565b61014361027a366004611e8e565b610e70565b6008546001600160a01b031633146102b25760405162461bcd60e51b81526004016102a990612312565b60405180910390fd5b6001600160a01b0383166102d85760405162461bcd60e51b81526004016102a990612332565b806102f55760405162461bcd60e51b81526004016102a990612342565b6001600160a01b03831660009081526004602090815260408083206001600160e01b031986168452909152902054600354811080156103625750836001600160a01b03166003828154811061034657fe5b60009182526020909120600290910201546001600160a01b0316145b80156103a85750826001600160e01b0319166003828154811061038157fe5b6000918252602090912060029091020154600160a01b900460e01b6001600160e01b031916145b156103d55781600382815481106103bb57fe5b9060005260206000209060020201600101819055506104b0565b600380546001600160a01b0386811660008181526004602090815260408083206001600160e01b03198b16808552908352818420879055815160608101835294855291840191825283018881526001860187559590915290517fc2575a0e9e593c00f959f8c92f12db2869c3395a3b0502d05e2516446f71f85b6002909402938401805492516001600160a01b0319909316919093161763ffffffff60a01b1916600160a01b60e09290921c9190910217905590517fc2575a0e9e593c00f959f8c92f12db2869c3395a3b0502d05e2516446f71f85c909101555b826001600160e01b031916846001600160a01b03167f7c3ecffa528bfccc8dd5c2454093da1c08757c960b1e5425afb9cb3b18439028846040516104f49190612352565b60405180910390a350505050565b6000610514818363ffffffff610e8d16565b90505b919050565b60006105286000610f30565b90505b90565b6060600280548060200260200160405190810160405280929190818152602001828054801561058657602002820191906000526020600020905b81546001600160a01b03168152600190910190602001808311610568575b5050505050905090565b60055481565b6008546001600160a01b031633146105c05760405162461bcd60e51b81526004016102a990612312565b6001600160a01b03821660009081526007602090815260408083206001600160e01b0319851684529091529020548061060b5760405162461bcd60e51b81526004016102a9906122e2565b61061c60008263ffffffff610f6b16565b6001600160a01b03831660009081526007602090815260408083206001600160e01b03198616845282528083208390558383526006909152812080546001600160c01b031916815560019081019190915560055461067991611199565b6005556040516001600160e01b03198316906001600160a01b038516907f896fc6a8eb054c92d480f4d32ec773e5ebe77109ad3b179f3e97ac78cf3e7cb7906106c4906000906122d4565b60405180910390a3505050565b6000610514818363ffffffff6111ae16565b60606003805480602002602001604051908101604052809291908181526020016000905b8282101561076b576000848152602090819020604080516060810182526002860290920180546001600160a01b0381168452600160a01b900460e01b6001600160e01b03191683850152600190810154918301919091529083529092019101610707565b50505050905090565b6008546001600160a01b0316331461079e5760405162461bcd60e51b81526004016102a990612312565b6001600160a01b03821660009081526004602090815260408083206001600160e01b0319851684529091529020546003548110801561080b5750826001600160a01b0316600382815481106107ef57fe5b60009182526020909120600290910201546001600160a01b0316145b80156108515750816001600160e01b0319166003828154811061082a57fe5b6000918252602090912060029091020154600160a01b900460e01b6001600160e01b031916145b156109d35761085e611d00565b60038054600019810190811061087057fe5b600091825260209182902060408051606081018252600290930290910180546001600160a01b03811684526001600160e01b0319600160a01b90910460e01b169383019390935260019092015491810191909152600380549192508291849081106108d757fe5b60009182526020808320845160029093020180548583015160e01c600160a01b0263ffffffff60a01b196001600160a01b039586166001600160a01b031990931692909217919091161781556040948501516001909101558451821683526004808252848420868301516001600160e01b031990811686529083528585208890559289168452815283832091871683525290812055600380549061097f906000198301611d20565b50826001600160e01b031916846001600160a01b03167f7c3ecffa528bfccc8dd5c2454093da1c08757c960b1e5425afb9cb3b1843902860006040516109c591906122d4565b60405180910390a3506109eb565b60405162461bcd60e51b81526004016102a990612322565b505050565b6008546001600160a01b031681565b60006105286000611244565b6060600554604051908082528060200260200182016040528015610a4957816020015b610a36611d00565b815260200190600190039081610a2e5790505b5090506000610a586000611244565b905060005b8115610af7576005548110610a7157600080fd5b600082815260066020908152604091829020825160608101845281546001600160a01b0381168252600160a01b900460e01b6001600160e01b031916928101929092526001908101549282019290925284519183019290918591908110610ad457fe5b6020908102919091010152610af060008363ffffffff610e8d16565b9150610a5d565b505090565b6008546001600160a01b03163314610b265760405162461bcd60e51b81526004016102a990612312565b610b3260028383611d4c565b507ff3a1b17f96de235ad0ae63327b65739025bc92dd4bc161c9d8b661cb449ec62d8282604051610b64929190612292565b60405180910390a15050565b6008546001600160a01b03163314610b9a5760405162461bcd60e51b81526004016102a990612312565b6001600160a01b038316610bc05760405162461bcd60e51b81526004016102a990612332565b80610bdd5760405162461bcd60e51b81526004016102a9906122f2565b6001600160a01b03831660009081526007602090815260408083206001600160e01b0319861684529091529020548015610c935781811415610c5d57826001600160e01b031916846001600160a01b03167f896fc6a8eb054c92d480f4d32ec773e5ebe77109ad3b179f3e97ac78cf3e7cb7846040516109c59190612352565b610c6e60008263ffffffff610f6b16565b600081815260066020526040812080546001600160c01b031916815560010155610cab565b600554610ca790600163ffffffff61127f16565b6005555b610cbc60008363ffffffff61129816565b604080516060810182526001600160a01b038087168083526001600160e01b03198716602080850182815285870189815260008a81526006845288812097518854935160e01c600160a01b0263ffffffff60a01b19919098166001600160a01b031990941693909317929092169590951786559351600190950194909455818352600784528483208184529093529083902085905591519091907f896fc6a8eb054c92d480f4d32ec773e5ebe77109ad3b179f3e97ac78cf3e7cb7906104f4908690612352565b6000610514818363ffffffff6113b216565b600660205260009081526040902080546001909101546001600160a01b03821691600160a01b900460e01b9083565b6008546001600160a01b03163314610dee5760405162461bcd60e51b81526004016102a990612312565b6001600160a01b038116610e145760405162461bcd60e51b81526004016102a990612302565b6008546040516001600160a01b038084169216907f8be0079c531659141344cd1fd0a4f28419497f9722a3daafe3b4186f6b6457e090600090a3600880546001600160a01b0319166001600160a01b0392909216919091179055565b600760209081526000928352604080842090915290825290205481565b600081610e9957600080fd5b600082815260018085016020526040909120015415610ed8576000828152600180850160205260409091200154610ed19084906113e1565b9050610f2a565b5060008181526001830160205260409020545b8015801590610f0c5750600081815260018085016020526040909120015482145b15610f2a576000818152600184016020526040902054909150610eeb565b92915050565b80548015610517575b600081815260018084016020526040909120015415610517576000908152600180830160205260409091200154610f39565b80610f7557600080fd5b610f7f82826113b2565b610f8857600080fd5b6000818152600180840160205260408220015481901580610fba57506000838152600185016020526040902060020154155b15610fc657508161100e565b5060008281526001840160205260409020600201545b60008181526001808601602052604090912001541561100e576000908152600180850160205260409091200154610fdc565b6000818152600180860160205260409091200154156110425760008181526001808601602052604090912001549150611059565b600081815260018501602052604090206002015491505b600081815260018501602052604080822054848352912081905580156110cb5760008181526001808701602052604090912001548214156110af57600081815260018087016020526040909120018390556110c6565b600081815260018601602052604090206002018390555b6110cf565b8285555b600082815260018601602052604090206003015460ff1615848314611159576110f986848761141e565b60008581526001878101602052604080832080830154878552828520938401819055845281842087905560028082015490840181905584529083208690556003908101549286905201805460ff191660ff90921615159190911790559193915b8015611169576111698685611495565b5050600090815260019384016020526040812081815593840181905560028401555050600301805460ff19169055565b6000828211156111a857600080fd5b50900390565b6000816111ba57600080fd5b6000828152600184016020526040902060020154156111f2576000828152600184016020526040902060020154610ed19084906118b0565b5060008181526001830160205260409020545b80158015906112265750600081815260018401602052604090206002015482145b15610f2a576000818152600184016020526040902054909150611205565b80548015610517575b60008181526001830160205260409020600201541561051757600090815260018201602052604090206002015461124d565b60008282018381101561129157600080fd5b9392505050565b806112a257600080fd5b6112ac82826113b2565b156112b657600080fd5b81546000905b801561130057809150808310156112e65760009081526001808501602052604090912001546112fb565b60009081526001840160205260409020600201545b6112bc565b60408051608081018252838152600060208083018281528385018381526001606086018181528a86528b82019094529590932093518455519383019390935551600282015590516003909101805460ff191691151591909117905581611368578284556113a2565b8183101561138b57600082815260018086016020526040909120018390556113a2565b600082815260018501602052604090206002018390555b6113ac84846118e8565b50505050565b600081158015906112915750825482148061129157505060009081526001919091016020526040902054151590565b60005b60008281526001840160205260409020600201541561141857600091825260018301602052604090912060020154906113e4565b50919050565b600081815260018401602052604080822054848352912081905580611445578284556113ac565b600081815260018086016020526040909120015482141561147b57600081815260018086016020526040909120018390556113ac565b600090815260019390930160205250604090912060020155565b60005b825482148015906114bd5750600082815260018401602052604090206003015460ff16155b156118915760008281526001808501602052604080832054808452922001548314156116ba5760008181526001850160205260408082206002015480835291206003015490925060ff1615611561576000828152600180860160205260408083206003908101805460ff1990811690915585855291909320909201805490921617905561154a8482611b53565b600081815260018501602052604090206002015491505b60008281526001808601602052604080832090910154825290206003015460ff161580156115ac5750600082815260018501602052604080822060020154825290206003015460ff16155b156115d957600082815260018581016020526040909120600301805460ff191690911790559150816116b5565b600082815260018501602052604080822060020154825290206003015460ff16611656576000828152600180860160205260408083208083015484529083206003908101805460ff199081169091559386905201805490921617905561163f8483611c2b565b600081815260018501602052604090206002015491505b600081815260018501602052604080822060039081018054868552838520808401805460ff909316151560ff1993841617905582548216909255600290910154845291909220909101805490911690556116b08482611b53565b835492505b61188b565b6000818152600180860160205260408083209091015480835291206003015490925060ff1615611739576000828152600180860160205260408083206003908101805460ff199081169091558585529190932090920180549092161790556117228482611c2b565b600081815260018086016020526040909120015491505b600082815260018501602052604080822060020154825290206003015460ff16158015611784575060008281526001808601602052604080832090910154825290206003015460ff16155b156117b157600082815260018581016020526040909120600301805460ff1916909117905591508161188b565b60008281526001808601602052604080832090910154825290206003015460ff1661183057600082815260018086016020526040808320600281015484529083206003908101805460ff19908116909155938690520180549092161790556118198483611b53565b600081815260018086016020526040909120015491505b60008181526001808601602052604080832060039081018054878652838620808401805460ff909316151560ff199384161790558254821690925593015484529220909101805490911690556118868482611c2b565b835492505b50611498565b506000908152600190910160205260409020600301805460ff19169055565b60005b6000828152600180850160205260409091200154156114185760009182526001808401602052604090922090910154906118b3565b60005b825482148015906119155750600082815260018401602052604080822054825290206003015460ff165b15611b31576000828152600180850160205260408083205480845281842054845292200154811415611a385760008181526001850160205260408082205482528082206002015480835291206003015490925060ff16156119be576000818152600180860160205260408083206003808201805460ff19908116909155878652838620820180548216905582548652928520018054909216909217905590829052549250611a33565b60008181526001850160205260409020600201548314156119e6578092506119e68484611b53565b50600082815260018085016020526040808320548084528184206003808201805460ff19908116909155825487529386200180549093169093179091559182905254611a33908590611c2b565b611b2b565b6000818152600180860160205260408083205483528083209091015480835291206003015490925060ff1615611ab6576000818152600180860160205260408083206003808201805460ff19908116909155878652838620820180548216905582548652928520018054909216909217905590829052549250611b2b565b6000818152600180860160205260409091200154831415611ade57809250611ade8484611c2b565b50600082815260018085016020526040808320548084528184206003808201805460ff19908116909155825487529386200180549093169093179091559182905254611b2b908590611b53565b506118eb565b505080546000908152600190910160205260409020600301805460ff19169055565b600081815260018084016020526040808320600281018054915482865292852090930154938590529183905590918015611b9b57600081815260018601602052604090208490555b6000838152600186016020526040902082905581611bbb57828555611c08565b6000828152600180870160205260409091200154841415611bf15760008281526001808701602052604090912001839055611c08565b600082815260018601602052604090206002018390555b505060008181526001938401602052604080822090940183905591825291902055565b60008181526001808401602052604080832091820180549254838552918420600201549385905283905590918015611c7157600081815260018601602052604090208490555b6000838152600186016020526040902082905581611c9157828555611cde565b6000828152600186016020526040902060020154841415611cc75760008281526001860160205260409020600201839055611cde565b600082815260018087016020526040909120018390555b5050600081815260019093016020526040808420600201839055918352912055565b604080516060810182526000808252602082018190529181019190915290565b8154818355818111156109eb576002028160020283600052602060002091820191016109eb9190611daf565b828054828255906000526020600020908101928215611d9f579160200282015b82811115611d9f5781546001600160a01b0319166001600160a01b03843516178255602090920191600190910190611d6c565b50611dab929150611dda565b5090565b61052b91905b80821115611dab5780546001600160c01b031916815560006001820155600201611db5565b61052b91905b80821115611dab5780546001600160a01b0319168155600101611de0565b8035610f2a816123b6565b60008083601f840112611e1b57600080fd5b50813567ffffffffffffffff811115611e3357600080fd5b602083019150836020820283011115611e4b57600080fd5b9250929050565b8035610f2a816123cd565b8035610f2a816123d6565b600060208284031215611e7a57600080fd5b6000611e868484611dfe565b949350505050565b60008060408385031215611ea157600080fd5b6000611ead8585611dfe565b9250506020611ebe85828601611e52565b9150509250929050565b600080600060608486031215611edd57600080fd5b6000611ee98686611dfe565b9350506020611efa86828701611e52565b9250506040611f0b86828701611e5d565b9150509250925092565b60008060208385031215611f2857600080fd5b823567ffffffffffffffff811115611f3f57600080fd5b611f4b85828601611e09565b92509250509250929050565b600060208284031215611f6957600080fd5b6000611e868484611e5d565b6000611f818383611f9d565b505060200190565b6000611f958383612220565b505060600190565b611fa681612382565b82525050565b6000611fb8838561236a565b9350611fc38261052b565b8060005b85811015611ff957611fd98284612373565b611fe38882611f75565b9750611fee83612360565b925050600101611fc7565b509495945050505050565b600061200f82612366565b612019818561236a565b935061202483612360565b8060005b83811015611ff957815161203c8882611f75565b975061204783612360565b925050600101612028565b600061205d82612366565b612067818561236a565b935061207283612360565b8060005b83811015611ff957815161208a8882611f89565b975061209583612360565b925050600101612076565b611fa68161238d565b611fa681612392565b611fa6816123ab565b60006120c8601a8361236a565b7f64657374696e6174696f6e20646f6573206e6f74206578697374000000000000815260200192915050565b600061210160128361236a565b7107765696768742063616e6e6f7420626520360741b815260200192915050565b600061212f601d8361236a565b7f6e6577206f776e657220697320746865207a65726f2061646472657373000000815260200192915050565b600061216860178361236a565b7f63616c6c6572206973206e6f7420746865206f776e6572000000000000000000815260200192915050565b60006121a160098361236a565b681b9bdd08199bdd5b9960ba1b815260200192915050565b60006121c660128361236a565b7107461726765742063616e6e6f7420626520360741b815260200192915050565b60006121f460178361236a565b7f6d696e47617350726963652063616e6e6f742062652030000000000000000000815260200192915050565b805160608301906122318482611f9d565b50602082015161224460208501826120a9565b5060408201516113ac60408501825b611fa68161052b565b60208101610f2a8284611f9d565b606081016122788286611f9d565b61228560208301856120a9565b611e866040830184612253565b60208082528101611e86818486611fac565b602080825281016112918184612004565b602080825281016112918184612052565b60208101610f2a82846120a0565b60208101610f2a82846120b2565b60208082528101610514816120bb565b60208082528101610514816120f4565b6020808252810161051481612122565b602080825281016105148161215b565b6020808252810161051481612194565b60208082528101610514816121b9565b60208082528101610514816121e7565b60208101610f2a8284612253565b60200190565b5190565b90815260200190565b60006112916020840184611dfe565b60006105148261239f565b151590565b6001600160e01b03191690565b6001600160a01b031690565b60006105148261052b565b6123bf81612382565b81146123ca57600080fd5b50565b6123bf81612392565b6123bf8161052b56fea365627a7a72305820ec2e077488305ba9d49bc774285ddebc4f6ecd039954e0ac19bd7e57155081cc6c6578706572696d656e74616cf564736f6c634300050a0040",
  "linkReferences": {},
  "deployedLinkReferences": {}
}