{
  "posdao-contracts/contracts/mock/ERC677BridgeTokenRewardableMock.sol": {
    "ERC677BridgeTokenRewardableMock": {
      "abi": [
        {
          "constant": false,
          "inputs": [
            {
              "name": "_bridge",
              "type": "address"
            }
          ],
          "name": "removeBridge",
          "outputs": [],
          "payable": false,
          "stateMutability": "nonpayable",
          "type": "function"
        },
        {
          "constant": true,
          "inputs": [],
          "name": "name",
          "outputs": [
            {
              "name": "",
              "type": "string"
            }
          ],
          "payable": false,
          "stateMutability": "view",
          "type": "function"
        },
        {
          "constant": false,
          "inputs": [
            {
              "name": "_spender",
              "type": "address"
            },
            {
              "name": "_value",
              "type": "uint256"
            }
          ],
          "name": "approve",
          "outputs": [
            {
              "name": "",
              "type": "bool"
            }
          ],
          "payable": false,
          "stateMutability": "nonpayable",
          "type": "function"
        },
        {
          "constant": true,
          "inputs": [],
          "name": "totalSupply",
          "outputs": [
            {
              "name": "",
              "type": "uint256"
            }
          ],
          "payable": false,
          "stateMutability": "view",
          "type": "function"
        },
        {
          "constant": false,
          "inputs": [
            {
              "name": "_from",
              "type": "address"
            },
            {
              "name": "_to",
              "type": "address"
            },
            {
              "name": "_value",
              "type": "uint256"
            }
          ],
          "name": "transferFrom",
          "outputs": [
            {
              "name": "",
              "type": "bool"
            }
          ],
          "payable": false,
          "stateMutability": "nonpayable",
          "type": "function"
        },
        {
          "constant": false,
          "inputs": [
            {
              "name": "_blockRewardContract",
              "type": "address"
            }
          ],
          "name": "setBlockRewardContract",
          "outputs": [],
          "payable": false,
          "stateMutability": "nonpayable",
          "type": "function"
        },
        {
          "constant": true,
          "inputs": [],
          "name": "PERMIT_TYPEHASH",
          "outputs": [
            {
              "name": "",
              "type": "bytes32"
            }
          ],
          "payable": false,
          "stateMutability": "view",
          "type": "function"
        },
        {
          "constant": true,
          "inputs": [],
          "name": "decimals",
          "outputs": [
            {
              "name": "",
              "type": "uint8"
            }
          ],
          "payable": false,
          "stateMutability": "view",
          "type": "function"
        },
        {
          "constant": true,
          "inputs": [],
          "name": "DOMAIN_SEPARATOR",
          "outputs": [
            {
              "name": "",
              "type": "bytes32"
            }
          ],
          "payable": false,
          "stateMutability": "view",
          "type": "function"
        },
        {
          "constant": false,
          "inputs": [
            {
              "name": "spender",
              "type": "address"
            },
            {
              "name": "addedValue",
              "type": "uint256"
            }
          ],
          "name": "increaseAllowance",
          "outputs": [
            {
              "name": "",
              "type": "bool"
            }
          ],
          "payable": false,
          "stateMutability": "nonpayable",
          "type": "function"
        },
        {
          "constant": false,
          "inputs": [
            {
              "name": "_to",
              "type": "address"
            },
            {
              "name": "_value",
              "type": "uint256"
            },
            {
              "name": "_data",
              "type": "bytes"
            }
          ],
          "name": "transferAndCall",
          "outputs": [
            {
              "name": "",
              "type": "bool"
            }
          ],
          "payable": false,
          "stateMutability": "nonpayable",
          "type": "function"
        },
        {
          "constant": false,
          "inputs": [
            {
              "name": "_to",
              "type": "address"
            },
            {
              "name": "_amount",
              "type": "uint256"
            }
          ],
          "name": "mint",
          "outputs": [
            {
              "name": "",
              "type": "bool"
            }
          ],
          "payable": false,
          "stateMutability": "nonpayable",
          "type": "function"
        },
        {
          "constant": false,
          "inputs": [
            {
              "name": "_value",
              "type": "uint256"
            }
          ],
          "name": "burn",
          "outputs": [],
          "payable": false,
          "stateMutability": "nonpayable",
          "type": "function"
        },
        {
          "constant": true,
          "inputs": [
            {
              "name": "",
              "type": "address"
            }
          ],
          "name": "bridgePointers",
          "outputs": [
            {
              "name": "",
              "type": "address"
            }
          ],
          "payable": false,
          "stateMutability": "view",
          "type": "function"
        },
        {
          "constant": true,
          "inputs": [],
          "name": "version",
          "outputs": [
            {
              "name": "",
              "type": "string"
            }
          ],
          "payable": false,
          "stateMutability": "view",
          "type": "function"
        },
        {
          "constant": true,
          "inputs": [],
          "name": "blockRewardContract",
          "outputs": [
            {
              "name": "",
              "type": "address"
            }
          ],
          "payable": false,
          "stateMutability": "view",
          "type": "function"
        },
        {
          "constant": false,
          "inputs": [
            {
              "name": "_spender",
              "type": "address"
            },
            {
              "name": "_subtractedValue",
              "type": "uint256"
            }
          ],
          "name": "decreaseApproval",
          "outputs": [
            {
              "name": "",
              "type": "bool"
            }
          ],
          "payable": false,
          "stateMutability": "nonpayable",
          "type": "function"
        },
        {
          "constant": false,
          "inputs": [
            {
              "name": "_token",
              "type": "address"
            },
            {
              "name": "_to",
              "type": "address"
            }
          ],
          "name": "claimTokens",
          "outputs": [],
          "payable": false,
          "stateMutability": "nonpayable",
          "type": "function"
        },
        {
          "constant": true,
          "inputs": [
            {
              "name": "_owner",
              "type": "address"
            }
          ],
          "name": "balanceOf",
          "outputs": [
            {
              "name": "",
              "type": "uint256"
            }
          ],
          "payable": false,
          "stateMutability": "view",
          "type": "function"
        },
        {
          "constant": true,
          "inputs": [
            {
              "name": "_address",
              "type": "address"
            }
          ],
          "name": "isBridge",
          "outputs": [
            {
              "name": "",
              "type": "bool"
            }
          ],
          "payable": false,
          "stateMutability": "view",
          "type": "function"
        },
        {
          "constant": true,
          "inputs": [
            {
              "name": "",
              "type": "address"
            }
          ],
          "name": "nonces",
          "outputs": [
            {
              "name": "",
              "type": "uint256"
            }
          ],
          "payable": false,
          "stateMutability": "view",
          "type": "function"
        },
        {
          "constant": true,
          "inputs": [],
          "name": "getTokenInterfacesVersion",
          "outputs": [
            {
              "name": "major",
              "type": "uint64"
            },
            {
              "name": "minor",
              "type": "uint64"
            },
            {
              "name": "patch",
              "type": "uint64"
            }
          ],
          "payable": false,
          "stateMutability": "pure",
          "type": "function"
        },
        {
          "constant": true,
          "inputs": [],
          "name": "owner",
          "outputs": [
            {
              "name": "",
              "type": "address"
            }
          ],
          "payable": false,
          "stateMutability": "view",
          "type": "function"
        },
        {
          "constant": false,
          "inputs": [
            {
              "name": "_holder",
              "type": "address"
            },
            {
              "name": "_spender",
              "type": "address"
            },
            {
              "name": "_nonce",
              "type": "uint256"
            },
            {
              "name": "_expiry",
              "type": "uint256"
            },
            {
              "name": "_allowed",
              "type": "bool"
            },
            {
              "name": "_v",
              "type": "uint8"
            },
            {
              "name": "_r",
              "type": "bytes32"
            },
            {
              "name": "_s",
              "type": "bytes32"
            }
          ],
          "name": "permit",
          "outputs": [],
          "payable": false,
          "stateMutability": "nonpayable",
          "type": "function"
        },
        {
          "constant": false,
          "inputs": [
            {
              "name": "_amount",
              "type": "uint256"
            }
          ],
          "name": "mintReward",
          "outputs": [],
          "payable": false,
          "stateMutability": "nonpayable",
          "type": "function"
        },
        {
          "constant": true,
          "inputs": [],
          "name": "symbol",
          "outputs": [
            {
              "name": "",
              "type": "string"
            }
          ],
          "payable": false,
          "stateMutability": "view",
          "type": "function"
        },
        {
          "constant": false,
          "inputs": [
            {
              "name": "_bridge",
              "type": "address"
            }
          ],
          "name": "addBridge",
          "outputs": [],
          "payable": false,
          "stateMutability": "nonpayable",
          "type": "function"
        },
        {
          "constant": true,
          "inputs": [],
          "name": "bridgeList",
          "outputs": [
            {
              "name": "",
              "type": "address[]"
            }
          ],
          "payable": false,
          "stateMutability": "view",
          "type": "function"
        },
        {
          "constant": false,
          "inputs": [
            {
              "name": "_stakingContract",
              "type": "address"
            }
          ],
          "name": "setStakingContract",
          "outputs": [],
          "payable": false,
          "stateMutability": "nonpayable",
          "type": "function"
        },
        {
          "constant": false,
          "inputs": [
            {
              "name": "spender",
              "type": "address"
            },
            {
              "name": "subtractedValue",
              "type": "uint256"
            }
          ],
          "name": "decreaseAllowance",
          "outputs": [
            {
              "name": "",
              "type": "bool"
            }
          ],
          "payable": false,
          "stateMutability": "nonpayable",
          "type": "function"
        },
        {
          "constant": false,
          "inputs": [
            {
              "name": "_to",
              "type": "address"
            },
            {
              "name": "_value",
              "type": "uint256"
            }
          ],
          "name": "transfer",
          "outputs": [
            {
              "name": "",
              "type": "bool"
            }
          ],
          "payable": false,
          "stateMutability": "nonpayable",
          "type": "function"
        },
        {
          "constant": false,
          "inputs": [
            {
              "name": "_staker",
              "type": "address"
            },
            {
              "name": "_amount",
              "type": "uint256"
            }
          ],
          "name": "stake",
          "outputs": [],
          "payable": false,
          "stateMutability": "nonpayable",
          "type": "function"
        },
        {
          "constant": false,
          "inputs": [
            {
              "name": "_to",
              "type": "address"
            },
            {
              "name": "_amount",
              "type": "uint256"
            }
          ],
          "name": "push",
          "outputs": [],
          "payable": false,
          "stateMutability": "nonpayable",
          "type": "function"
        },
        {
          "constant": false,
          "inputs": [
            {
              "name": "_from",
              "type": "address"
            },
            {
              "name": "_to",
              "type": "address"
            },
            {
              "name": "_amount",
              "type": "uint256"
            }
          ],
          "name": "move",
          "outputs": [],
          "payable": false,
          "stateMutability": "nonpayable",
          "type": "function"
        },
        {
          "constant": true,
          "inputs": [],
          "name": "F_ADDR",
          "outputs": [
            {
              "name": "",
              "type": "address"
            }
          ],
          "payable": false,
          "stateMutability": "view",
          "type": "function"
        },
        {
          "constant": false,
          "inputs": [
            {
              "name": "_spender",
              "type": "address"
            },
            {
              "name": "_addedValue",
              "type": "uint256"
            }
          ],
          "name": "increaseApproval",
          "outputs": [
            {
              "name": "",
              "type": "bool"
            }
          ],
          "payable": false,
          "stateMutability": "nonpayable",
          "type": "function"
        },
        {
          "constant": true,
          "inputs": [
            {
              "name": "_owner",
              "type": "address"
            },
            {
              "name": "_spender",
              "type": "address"
            }
          ],
          "name": "allowance",
          "outputs": [
            {
              "name": "",
              "type": "uint256"
            }
          ],
          "payable": false,
          "stateMutability": "view",
          "type": "function"
        },
        {
          "constant": false,
          "inputs": [
            {
              "name": "_timestamp",
              "type": "uint256"
            }
          ],
          "name": "setNow",
          "outputs": [],
          "payable": false,
          "stateMutability": "nonpayable",
          "type": "function"
        },
        {
          "constant": true,
          "inputs": [],
          "name": "stakingContract",
          "outputs": [
            {
              "name": "",
              "type": "address"
            }
          ],
          "payable": false,
          "stateMutability": "view",
          "type": "function"
        },
        {
          "constant": false,
          "inputs": [
            {
              "name": "_from",
              "type": "address"
            },
            {
              "name": "_amount",
              "type": "uint256"
            }
          ],
          "name": "pull",
          "outputs": [],
          "payable": false,
          "stateMutability": "nonpayable",
          "type": "function"
        },
        {
          "constant": false,
          "inputs": [
            {
              "name": "_newOwner",
              "type": "address"
            }
          ],
          "name": "transferOwnership",
          "outputs": [],
          "payable": false,
          "stateMutability": "nonpayable",
          "type": "function"
        },
        {
          "constant": true,
          "inputs": [],
          "name": "bridgeCount",
          "outputs": [
            {
              "name": "",
              "type": "uint256"
            }
          ],
          "payable": false,
          "stateMutability": "view",
          "type": "function"
        },
        {
          "constant": true,
          "inputs": [
            {
              "name": "",
              "type": "address"
            },
            {
              "name": "",
              "type": "address"
            }
          ],
          "name": "expirations",
          "outputs": [
            {
              "name": "",
              "type": "uint256"
            }
          ],
          "payable": false,
          "stateMutability": "view",
          "type": "function"
        },
        {
          "inputs": [
            {
              "name": "_name",
              "type": "string"
            },
            {
              "name": "_symbol",
              "type": "string"
            },
            {
              "name": "_decimals",
              "type": "uint8"
            },
            {
              "name": "_chainId",
              "type": "uint256"
            }
          ],
          "payable": false,
          "stateMutability": "nonpayable",
          "type": "constructor"
        },
        {
          "payable": true,
          "stateMutability": "payable",
          "type": "fallback"
        },
        {
          "anonymous": false,
          "inputs": [
            {
              "indexed": true,
              "name": "bridge",
              "type": "address"
            }
          ],
          "name": "BridgeAdded",
          "type": "event"
        },
        {
          "anonymous": false,
          "inputs": [
            {
              "indexed": true,
              "name": "bridge",
              "type": "address"
            }
          ],
          "name": "BridgeRemoved",
          "type": "event"
        },
        {
          "anonymous": false,
          "inputs": [
            {
              "indexed": false,
              "name": "from",
              "type": "address"
            },
            {
              "indexed": false,
              "name": "to",
              "type": "address"
            },
            {
              "indexed": false,
              "name": "value",
              "type": "uint256"
            }
          ],
          "name": "ContractFallbackCallFailed",
          "type": "event"
        },
        {
          "anonymous": false,
          "inputs": [
            {
              "indexed": true,
              "name": "to",
              "type": "address"
            },
            {
              "indexed": false,
              "name": "amount",
              "type": "uint256"
            }
          ],
          "name": "Mint",
          "type": "event"
        },
        {
          "anonymous": false,
          "inputs": [
            {
              "indexed": true,
              "name": "previousOwner",
              "type": "address"
            },
            {
              "indexed": true,
              "name": "newOwner",
              "type": "address"
            }
          ],
          "name": "OwnershipTransferred",
          "type": "event"
        },
        {
          "anonymous": false,
          "inputs": [
            {
              "indexed": true,
              "name": "burner",
              "type": "address"
            },
            {
              "indexed": false,
              "name": "value",
              "type": "uint256"
            }
          ],
          "name": "Burn",
          "type": "event"
        },
        {
          "anonymous": false,
          "inputs": [
            {
              "indexed": true,
              "name": "from",
              "type": "address"
            },
            {
              "indexed": true,
              "name": "to",
              "type": "address"
            },
            {
              "indexed": false,
              "name": "value",
              "type": "uint256"
            },
            {
              "indexed": false,
              "name": "data",
              "type": "bytes"
            }
          ],
          "name": "Transfer",
          "type": "event"
        },
        {
          "anonymous": false,
          "inputs": [
            {
              "indexed": true,
              "name": "owner",
              "type": "address"
            },
            {
              "indexed": true,
              "name": "spender",
              "type": "address"
            },
            {
              "indexed": false,
              "name": "value",
              "type": "uint256"
            }
          ],
          "name": "Approval",
          "type": "event"
        },
        {
          "anonymous": false,
          "inputs": [
            {
              "indexed": true,
              "name": "from",
              "type": "address"
            },
            {
              "indexed": true,
              "name": "to",
              "type": "address"
            },
            {
              "indexed": false,
              "name": "value",
              "type": "uint256"
            }
          ],
          "name": "Transfer",
          "type": "event"
        }
      ],
      "evm": {
        "bytecode": {
          "linkReferences": {},
          "object": "60806040523480156200001157600080fd5b506040516200271338038062002713833981810160405260808110156200003757600080fd5b8101908080516401000000008111156200005057600080fd5b820160208101848111156200006457600080fd5b81516401000000008111828201871017156200007f57600080fd5b505092919060200180516401000000008111156200009c57600080fd5b82016020810184811115620000b057600080fd5b8151640100000000811182820187101715620000cb57600080fd5b5050929190602001805190602001909291908051906020019092919050505083838383838383838383838383838382828282600090805190602001906200011492919062000271565b5081516200012a90600190602085019062000271565b506002805460ff90921660ff199092169190911790555050600680546001600160a01b03191633179055505050806200016257600080fd5b604051806052620026c182396040805191829003605201822087516020988901208383018352600184527f310000000000000000000000000000000000000000000000000000000000000093890193909352815180890191909152808201929092527fc89efdaa54c0f20c7adf612882df0950f5a951637e0307cdcb4c672f298b8bc6606083015260808201939093523060a0808301919091528351808303909101815260c09091019092525080519084012060075550506001600160a01b036000819052600a9091527f665a824d6c9637c955c27384f6bfd3713755a7ec6096f2295495c04388a9a83e80546001600160a01b031916909117905550620003169a5050505050505050505050565b828054600181600116156101000203166002900490600052602060002090601f016020900481019282601f10620002b457805160ff1916838001178555620002e4565b82800160010185558215620002e4579182015b82811115620002e4578251825591602001919060010190620002c7565b50620002f2929150620002f6565b5090565b6200031391905b80821115620002f25760008155600101620002fd565b90565b61239b80620003266000396000f3fe60806040526004361061025c5760003560e01c8063859ba28c11610144578063b753a98c116100b6578063e380ae961161007a578063e380ae9614610a85578063ee99205c14610aaf578063f2d5d56b14610ac4578063f2fde38b14610afd578063fbb2a53f14610b30578063ff9e884d14610b455761025c565b8063b753a98c14610980578063bb35783b146109b9578063c794c769146109fc578063d73dd62314610a11578063dd62ed3e14610a4a5761025c565b80639712fdf8116101085780639712fdf81461080a5780639da38e2f1461083d5780639dd373b9146108a2578063a457c2d7146108d5578063a9059cbb1461090e578063adc9772e146109475761025c565b8063859ba28c1461070e5780638da5cb5b1461074f5780638fcbaf0c1461076457806391c0aabf146107cb57806395d89b41146107f55761025c565b80634000aea0116101dd57806356b54bae116101a157806356b54bae146105ec578063661884631461060157806369ffa08a1461063a57806370a0823114610675578063726600ce146106a85780637ecebe00146106db5761025c565b80634000aea01461049357806340c10f191461052557806342966c681461055e5780634bcb88bc1461058857806354fd4d50146105d75761025c565b806327a3e16b1161022457806327a3e16b146103d257806330adf81f14610405578063313ce5671461041a5780633644e51514610445578063395093511461045a5761025c565b806304df017d1461025e57806306fdde0314610291578063095ea7b31461031b57806318160ddd1461036857806323b872dd1461038f575b005b34801561026a57600080fd5b5061025c6004803603602081101561028157600080fd5b50356001600160a01b0316610b80565b34801561029d57600080fd5b506102a6610cd5565b6040805160208082528351818301528351919283929083019185019080838360005b838110156102e05781810151838201526020016102c8565b50505050905090810190601f16801561030d5780820380516001836020036101000a031916815260200191505b509250505060405180910390f35b34801561032757600080fd5b506103546004803603604081101561033e57600080fd5b506001600160a01b038135169060200135610d63565b604080519115158252519081900360200190f35b34801561037457600080fd5b5061037d610db7565b60408051918252519081900360200190f35b34801561039b57600080fd5b50610354600480360360608110156103b257600080fd5b506001600160a01b03813581169160208101359091169060400135610dbd565b3480156103de57600080fd5b5061025c600480360360208110156103f557600080fd5b50356001600160a01b0316610e09565b34801561041157600080fd5b5061037d610e54565b34801561042657600080fd5b5061042f610e78565b6040805160ff9092168252519081900360200190f35b34801561045157600080fd5b5061037d610e81565b34801561046657600080fd5b506103546004803603604081101561047d57600080fd5b506001600160a01b038135169060200135610e87565b34801561049f57600080fd5b50610354600480360360608110156104b657600080fd5b6001600160a01b03823516916020810135918101906060810160408201356401000000008111156104e657600080fd5b8201836020820111156104f857600080fd5b8035906020019184600183028401116401000000008311171561051a57600080fd5b509092509050610e9a565b34801561053157600080fd5b506103546004803603604081101561054857600080fd5b506001600160a01b038135169060200135610fbb565b34801561056a57600080fd5b5061025c6004803603602081101561058157600080fd5b503561109e565b34801561059457600080fd5b506105bb600480360360208110156105ab57600080fd5b50356001600160a01b03166110ab565b604080516001600160a01b039092168252519081900360200190f35b3480156105e357600080fd5b506102a66110c6565b3480156105f857600080fd5b506105bb6110e3565b34801561060d57600080fd5b506103546004803603604081101561062457600080fd5b506001600160a01b0381351690602001356110f2565b34801561064657600080fd5b5061025c6004803603604081101561065d57600080fd5b506001600160a01b03813581169160200135166111cf565b34801561068157600080fd5b5061037d6004803603602081101561069857600080fd5b50356001600160a01b0316611209565b3480156106b457600080fd5b50610354600480360360208110156106cb57600080fd5b50356001600160a01b0316611224565b3480156106e757600080fd5b5061037d600480360360208110156106fe57600080fd5b50356001600160a01b031661125e565b34801561071a57600080fd5b50610723611270565b6040805167ffffffffffffffff9485168152928416602084015292168183015290519081900360600190f35b34801561075b57600080fd5b506105bb61127a565b34801561077057600080fd5b5061025c600480360361010081101561078857600080fd5b506001600160a01b038135811691602081013590911690604081013590606081013590608081013515159060ff60a0820135169060c08101359060e00135611289565b3480156107d757600080fd5b5061025c600480360360208110156107ee57600080fd5b50356114d0565b34801561080157600080fd5b506102a66115c4565b34801561081657600080fd5b5061025c6004803603602081101561082d57600080fd5b50356001600160a01b031661161e565b34801561084957600080fd5b50610852611729565b60408051602080825283518183015283519192839290830191858101910280838360005b8381101561088e578181015183820152602001610876565b505050509050019250505060405180910390f35b3480156108ae57600080fd5b5061025c600480360360208110156108c557600080fd5b50356001600160a01b03166117f3565b3480156108e157600080fd5b50610354600480360360408110156108f857600080fd5b506001600160a01b038135169060200135611851565b34801561091a57600080fd5b506103546004803603604081101561093157600080fd5b506001600160a01b03813516906020013561185d565b34801561095357600080fd5b5061025c6004803603604081101561096a57600080fd5b506001600160a01b0381351690602001356118a0565b34801561098c57600080fd5b5061025c600480360360408110156109a357600080fd5b506001600160a01b038135169060200135611969565b3480156109c557600080fd5b5061025c600480360360608110156109dc57600080fd5b506001600160a01b03813581169160208101359091169060400135611974565b348015610a0857600080fd5b506105bb611985565b348015610a1d57600080fd5b5061035460048036036040811015610a3457600080fd5b506001600160a01b038135169060200135611990565b348015610a5657600080fd5b5061037d60048036036040811015610a6d57600080fd5b506001600160a01b0381358116916020013516611a17565b348015610a9157600080fd5b5061025c60048036036020811015610aa857600080fd5b5035611a42565b348015610abb57600080fd5b506105bb611a47565b348015610ad057600080fd5b5061025c60048036036040811015610ae757600080fd5b506001600160a01b038135169060200135611a56565b348015610b0957600080fd5b5061025c60048036036020811015610b2057600080fd5b50356001600160a01b0316611a61565b348015610b3c57600080fd5b5061037d611a81565b348015610b5157600080fd5b5061037d60048036036040811015610b6857600080fd5b506001600160a01b0381358116916020013516611a87565b6006546001600160a01b03163314610b9757600080fd5b610ba081611224565b610ba957600080fd5b6001600160a01b038082166000908152600a602052604081205490829052600080516020612307833981519152549082169190811680610be857600080fd5b836001600160a01b0316816001600160a01b031614610c47576001600160a01b038082166000908152600a6020526040902054919250908116908114801590610c3957506001600160a01b03811615155b610c4257600080fd5b610be8565b6001600160a01b038083166000908152600a602052604080822080548488166001600160a01b0319918216179091559287168252902080549091169055600b54610c9890600163ffffffff611aa416565b600b556040516001600160a01b038516907f5d9d5034656cb3ebfb0655057cd7f9b4077a9b42ff42ce223cbac5bc586d212690600090a250505050565b6000805460408051602060026001851615610100026000190190941693909304601f81018490048402820184019092528181529291830182828015610d5b5780601f10610d3057610100808354040283529160200191610d5b565b820191906000526020600020905b815481529060010190602001808311610d3e57829003601f168201915b505050505081565b3360008181526005602090815260408083206001600160a01b03871680855290835281842086905581518681529151939490939092600080516020612347833981519152928290030190a350600192915050565b60045490565b600c546000906001600160a01b0384811691161415610ddb57600080fd5b600d546001600160a01b0384811691161415610df657600080fd5b610e01848484611ab6565b949350505050565b6006546001600160a01b03163314610e2057600080fd5b610e2981611c81565b610e3257600080fd5b600c80546001600160a01b0319166001600160a01b0392909216919091179055565b7fea2aa0a1be11a07ed86d755c93467f4f82362b452371d1ba94d1715123511acb81565b60025460ff1681565b60075481565b6000610e938383611990565b9392505050565b6000846001600160a01b03811615801590610ebe57506001600160a01b0381163014155b610ec757600080fd5b610ed18686611c87565b610eda57600080fd5b856001600160a01b0316336001600160a01b03167fe19260aff97b920c7df27010903aeb9c8d2be5d310a2c67824cf3f15396e4c1687878760405180848152602001806020018281038252848482818152602001925080828437600083820152604051601f909101601f1916909201829003965090945050505050a3610f5f86611c81565b15610faf57610fa633878787878080601f016020809104026020016040519081016040528093929190818152602001838380828437600092019190915250611c9392505050565b610faf57600080fd5b50600195945050505050565b6006546000906001600160a01b03163314610fd557600080fd5b600454610fe8908363ffffffff611e1016565b6004556001600160a01b038316600090815260036020526040902054611014908363ffffffff611e1016565b6001600160a01b038416600081815260036020908152604091829020939093558051858152905191927f0f6798a560793a54c3bcfe86a93cde1e73087d944c0ea20544137d412139688592918290030190a26040805183815290516001600160a01b038516916000916000805160206123278339815191529181900360200190a350600192915050565b6110a83382611e1d565b50565b600a602052600090815260409020546001600160a01b031681565b604051806040016040528060018152602001603160f81b81525081565b600c546001600160a01b031681565b3360009081526005602090815260408083206001600160a01b0386168452909152812054808310611146573360009081526005602090815260408083206001600160a01b038816845290915281205561117b565b611156818463ffffffff611aa416565b3360009081526005602090815260408083206001600160a01b03891684529091529020555b3360008181526005602090815260408083206001600160a01b038916808552908352928190205481519081529051929392600080516020612347833981519152929181900390910190a35060019392505050565b6006546001600160a01b031633146111e657600080fd5b806001600160a01b0381166111fa57600080fd5b6112048383611f0c565b505050565b6001600160a01b031660009081526003602052604090205490565b60006001600160a01b038281161480159061125857506001600160a01b038281166000908152600a60205260409020541615155b92915050565b60086020526000908152604090205481565b6002806000909192565b6006546001600160a01b031681565b6001600160a01b03881661129c57600080fd5b6001600160a01b0387166112af57600080fd5b8415806112c35750846112c0611f36565b11155b6112cc57600080fd5b600754604080517fea2aa0a1be11a07ed86d755c93467f4f82362b452371d1ba94d1715123511acb6020808301919091526001600160a01b03808d16838501528b166060830152608082018a905260a0820189905287151560c0808401919091528351808403909101815260e08301845280519082012061190160f01b610100840152610102830194909452610122808301949094528251808303909401845261014282018084528451948201949094206000909452610162820180845284905260ff87166101828301526101a282018690526101c2820185905291516001926101e2808401939192601f1981019281900390910190855afa1580156113d6573d6000803e3d6000fd5b505050602060405103516001600160a01b0316896001600160a01b0316146113fd57600080fd5b6001600160a01b0389166000908152600860205260409020805460018101909155871461142957600080fd5b60008561143757600061143b565b6000195b6001600160a01b03808c166000908152600560209081526040808320938e16835292905220819055905085611471576000611473565b865b6001600160a01b03808c166000818152600960209081526040808320948f1680845294825291829020949094558051858152905192939192600080516020612347833981519152929181900390910190a350505050505050505050565b600c546001600160a01b031633146114e757600080fd5b806114f1576110a8565b600c546004546001600160a01b0390911690611513908363ffffffff611e1016565b6004556001600160a01b03811660009081526003602052604090205461153f908363ffffffff611e1016565b6001600160a01b038216600081815260036020908152604091829020939093558051858152905191927f0f6798a560793a54c3bcfe86a93cde1e73087d944c0ea20544137d412139688592918290030190a26040805183815290516001600160a01b038316916000916000805160206123278339815191529181900360200190a35050565b60018054604080516020600284861615610100026000190190941693909304601f81018490048402820184019092528181529291830182828015610d5b5780601f10610d3057610100808354040283529160200191610d5b565b6006546001600160a01b0316331461163557600080fd5b6032600b541061164457600080fd5b61164d81611c81565b61165657600080fd5b61165f81611224565b1561166957600080fd5b6001600160a01b036000819052600a60205260008051602061230783398151915254168061169657600080fd5b600a60205260008051602061230783398151915280546001600160a01b03199081166001600160a01b038581169182179093556000908152604090208054909116918316919091179055600b546116ee906001611e10565b600b556040516001600160a01b038316907f3cda433c5679ae4c6a5dea50840e222a42cba3695e4663de4366be899348422190600090a25050565b606080600b54604051908082528060200260200182016040528015611758578160200160208202803883390190505b506001600160a01b036000818152600a6020526000805160206123078339815191525492935091168061178a57600080fd5b6001600160a01b03818116146117eb57808383815181106117a757fe5b6001600160a01b039283166020918202929092018101919091529181166000908152600a9092526040909120546001929092019116806117e657600080fd5b61178a565b509091505090565b6006546001600160a01b0316331461180a57600080fd5b61181381611c81565b61181c57600080fd5b61182581611209565b1561182f57600080fd5b600d80546001600160a01b0319166001600160a01b0392909216919091179055565b6000610e9383836110f2565b600c546000906001600160a01b038481169116141561187b57600080fd5b600d546001600160a01b038481169116141561189657600080fd5b610e938383611f52565b600d546001600160a01b031633146118b757600080fd5b6001600160a01b0382166000908152600360205260409020546118e0908263ffffffff611aa416565b6001600160a01b0380841660009081526003602052604080822093909355600d5490911681522054611918908263ffffffff611e1016565b600d80546001600160a01b0390811660009081526003602090815260409182902094909455915482518581529251908216939186169260008051602061232783398151915292908290030190a35050565b611204338383610dbd565b61197f838383610dbd565b50505050565b6001600160a01b0381565b3360009081526005602090815260408083206001600160a01b03861684529091528120546119c4908363ffffffff611e1016565b3360008181526005602090815260408083206001600160a01b038916808552908352928190208590558051948552519193600080516020612347833981519152929081900390910190a350600192915050565b6001600160a01b03918216600090815260056020908152604080832093909416825291909152205490565b600e55565b600d546001600160a01b031681565b611204823383610dbd565b6006546001600160a01b03163314611a7857600080fd5b6110a881611f7b565b600b5481565b600960209081526000928352604080842090915290825290205481565b600082821115611ab057fe5b50900390565b60006001600160a01b038416611acb57600080fd5b6001600160a01b038316611ade57600080fd5b6001600160a01b038416600090815260036020526040902054611b07908363ffffffff611aa416565b6001600160a01b038086166000908152600360205260408082209390935590851681522054611b3c908363ffffffff611e1016565b6001600160a01b03808516600081815260036020908152604091829020949094558051868152905191939288169260008051602061232783398151915292918290030190a36001600160a01b0384163314611c6c576000611b9d8533611a17565b90506000198114611c0757611bb8818463ffffffff611aa416565b6001600160a01b038616600081815260056020908152604080832033808552908352928190208590558051948552519193600080516020612347833981519152929081900390910190a3611c6a565b6001600160a01b03851660009081526009602090815260408083203384529091529020541580611c615750611c3a611f36565b6001600160a01b038616600090815260096020908152604080832033845290915290205410155b611c6a57600080fd5b505b611c77848484611fea565b5060019392505050565b3b151590565b6000610e938383612081565b600080846001600160a01b031663a4c0ed3660e01b87868660405160240180846001600160a01b03166001600160a01b0316815260200183815260200180602001828103825283818151815260200191508051906020019080838360005b83811015611d09578181015183820152602001611cf1565b50505050905090810190601f168015611d365780820380516001836020036101000a031916815260200191505b5060408051601f198184030181529181526020820180516001600160e01b03166001600160e01b031990991698909817885251815191979096508695509350915081905083835b60208310611d9c5780518252601f199092019160209182019101611d7d565b6001836020036101000a0380198251168184511680821785525050505050509050019150506000604051808303816000865af19150503d8060008114611dfe576040519150601f19603f3d011682016040523d82523d6000602084013e611e03565b606091505b5090979650505050505050565b8181018281101561125857fe5b6001600160a01b038216600090815260036020526040902054811115611e4257600080fd5b6001600160a01b038216600090815260036020526040902054611e6b908263ffffffff611aa416565b6001600160a01b038316600090815260036020526040902055600454611e97908263ffffffff611aa416565b6004556040805182815290516001600160a01b038416917fcc16f5dbb4873280815c1ee09dbd06736cffcc184412cf7a71a0fdb75d397ca5919081900360200190a26040805182815290516000916001600160a01b038516916000805160206123278339815191529181900360200190a35050565b6001600160a01b038216611f2857611f238161214e565b611f32565b611f3282826121bb565b5050565b6000600e5460001415611f495742611f4d565b600e545b905090565b6000611f5e8383611c87565b611f6757600080fd5b611f72338484611fea565b50600192915050565b6001600160a01b038116611f8e57600080fd5b6006546040516001600160a01b038084169216907f8be0079c531659141344cd1fd0a4f28419497f9722a3daafe3b4186f6b6457e090600090a3600680546001600160a01b0319166001600160a01b0392909216919091179055565b611ff382611c81565b801561201a575060408051600081526020810190915261201890849084908490611c93565b155b156112045761202882611224565b1561203257600080fd5b604080516001600160a01b0380861682528416602082015280820183905290517f11249f0fc79fc134a15a10d1da8291b79515bf987e036ced05b9ec119614070b9181900360600190a1505050565b3360009081526003602052604081205482111561209d57600080fd5b6001600160a01b0383166120b057600080fd5b336000908152600360205260409020546120d0908363ffffffff611aa416565b33600090815260036020526040808220929092556001600160a01b03851681522054612102908363ffffffff611e1016565b6001600160a01b0384166000818152600360209081526040918290209390935580518581529051919233926000805160206123278339815191529281900390910190a350600192915050565b6040513031906001600160a01b0383169082156108fc029083906000818181858888f19350505050611f32578082604051612188906122c8565b6001600160a01b039091168152604051908190036020019082f0801580156121b4573d6000803e3d6000fd5b5050505050565b604080516370a0823160e01b8152306004820152905183916000916001600160a01b038416916370a08231916024808301926020929190829003018186803b15801561220657600080fd5b505afa15801561221a573d6000803e3d6000fd5b505050506040513d602081101561223057600080fd5b5051905061197f848483604080516001600160a01b03841660248201526044808201849052825180830390910181526064909101909152602081810180516001600160e01b031663a9059cbb60e01b1781528251606093600093909290918491828a5af160005193508392508080156122a8576122ad565b600080fd5b50508251156122c057816122c057600080fd5b505050505050565b6032806122d58339019056fe60806040526040516032380380603283398181016040526020811015602357600080fd5b50516001600160a01b038116fffe665a824d6c9637c955c27384f6bfd3713755a7ec6096f2295495c04388a9a83eddf252ad1be2c89b69c2b068fc378daa952ba7f163c4a11628f55a4df523b3ef8c5be1e5ebec7d5bd14f71427d1e84f3dd0314c0f7b2291e5b200ac8c7c3b925a265627a7a723058203a52a9557daccd415b4b091e5360f8a9c2e0d1a155f3e1843ec9be70d603f85564736f6c634300050a0032454950373132446f6d61696e28737472696e67206e616d652c737472696e672076657273696f6e2c75696e7432353620636861696e49642c6164647265737320766572696679696e67436f6e747261637429",
          "opcodes": "PUSH1 0x80 PUSH1 0x40 MSTORE CALLVALUE DUP1 ISZERO PUSH3 0x11 JUMPI PUSH1 0x0 DUP1 REVERT JUMPDEST POP PUSH1 0x40 MLOAD PUSH3 0x2713 CODESIZE SUB DUP1 PUSH3 0x2713 DUP4 CODECOPY DUP2 DUP2 ADD PUSH1 0x40 MSTORE PUSH1 0x80 DUP2 LT ISZERO PUSH3 0x37 JUMPI PUSH1 0x0 DUP1 REVERT JUMPDEST DUP2 ADD SWAP1 DUP1 DUP1 MLOAD PUSH5 0x100000000 DUP2 GT ISZERO PUSH3 0x50 JUMPI PUSH1 0x0 DUP1 REVERT JUMPDEST DUP3 ADD PUSH1 0x20 DUP2 ADD DUP5 DUP2 GT ISZERO PUSH3 0x64 JUMPI PUSH1 0x0 DUP1 REVERT JUMPDEST DUP2 MLOAD PUSH5 0x100000000 DUP2 GT DUP3 DUP3 ADD DUP8 LT OR ISZERO PUSH3 0x7F JUMPI PUSH1 0x0 DUP1 REVERT JUMPDEST POP POP SWAP3 SWAP2 SWAP1 PUSH1 0x20 ADD DUP1 MLOAD PUSH5 0x100000000 DUP2 GT ISZERO PUSH3 0x9C JUMPI PUSH1 0x0 DUP1 REVERT JUMPDEST DUP3 ADD PUSH1 0x20 DUP2 ADD DUP5 DUP2 GT ISZERO PUSH3 0xB0 JUMPI PUSH1 0x0 DUP1 REVERT JUMPDEST DUP2 MLOAD PUSH5 0x100000000 DUP2 GT DUP3 DUP3 ADD DUP8 LT OR ISZERO PUSH3 0xCB JUMPI PUSH1 0x0 DUP1 REVERT JUMPDEST POP POP SWAP3 SWAP2 SWAP1 PUSH1 0x20 ADD DUP1 MLOAD SWAP1 PUSH1 0x20 ADD SWAP1 SWAP3 SWAP2 SWAP1 DUP1 MLOAD SWAP1 PUSH1 0x20 ADD SWAP1 SWAP3 SWAP2 SWAP1 POP POP POP DUP4 DUP4 DUP4 DUP4 DUP4 DUP4 DUP4 DUP4 DUP4 DUP4 DUP4 DUP4 DUP4 DUP4 DUP4 DUP3 DUP3 DUP3 DUP3 PUSH1 0x0 SWAP1 DUP1 MLOAD SWAP1 PUSH1 0x20 ADD SWAP1 PUSH3 0x114 SWAP3 SWAP2 SWAP1 PUSH3 0x271 JUMP JUMPDEST POP DUP2 MLOAD PUSH3 0x12A SWAP1 PUSH1 0x1 SWAP1 PUSH1 0x20 DUP6 ADD SWAP1 PUSH3 0x271 JUMP JUMPDEST POP PUSH1 0x2 DUP1 SLOAD PUSH1 0xFF SWAP1 SWAP3 AND PUSH1 0xFF NOT SWAP1 SWAP3 AND SWAP2 SWAP1 SWAP2 OR SWAP1 SSTORE POP POP PUSH1 0x6 DUP1 SLOAD PUSH1 0x1 PUSH1 0x1 PUSH1 0xA0 SHL SUB NOT AND CALLER OR SWAP1 SSTORE POP POP POP DUP1 PUSH3 0x162 JUMPI PUSH1 0x0 DUP1 REVERT JUMPDEST PUSH1 0x40 MLOAD DUP1 PUSH1 0x52 PUSH3 0x26C1 DUP3 CODECOPY PUSH1 0x40 DUP1 MLOAD SWAP2 DUP3 SWAP1 SUB PUSH1 0x52 ADD DUP3 KECCAK256 DUP8 MLOAD PUSH1 0x20 SWAP9 DUP10 ADD KECCAK256 DUP4 DUP4 ADD DUP4 MSTORE PUSH1 0x1 DUP5 MSTORE PUSH32 0x3100000000000000000000000000000000000000000000000000000000000000 SWAP4 DUP10 ADD SWAP4 SWAP1 SWAP4 MSTORE DUP2 MLOAD DUP1 DUP10 ADD SWAP2 SWAP1 SWAP2 MSTORE DUP1 DUP3 ADD SWAP3 SWAP1 SWAP3 MSTORE PUSH32 0xC89EFDAA54C0F20C7ADF612882DF0950F5A951637E0307CDCB4C672F298B8BC6 PUSH1 0x60 DUP4 ADD MSTORE PUSH1 0x80 DUP3 ADD SWAP4 SWAP1 SWAP4 MSTORE ADDRESS PUSH1 0xA0 DUP1 DUP4 ADD SWAP2 SWAP1 SWAP2 MSTORE DUP4 MLOAD DUP1 DUP4 SUB SWAP1 SWAP2 ADD DUP2 MSTORE PUSH1 0xC0 SWAP1 SWAP2 ADD SWAP1 SWAP3 MSTORE POP DUP1 MLOAD SWAP1 DUP5 ADD KECCAK256 PUSH1 0x7 SSTORE POP POP PUSH1 0x1 PUSH1 0x1 PUSH1 0xA0 SHL SUB PUSH1 0x0 DUP2 SWAP1 MSTORE PUSH1 0xA SWAP1 SWAP2 MSTORE PUSH32 0x665A824D6C9637C955C27384F6BFD3713755A7EC6096F2295495C04388A9A83E DUP1 SLOAD PUSH1 0x1 PUSH1 0x1 PUSH1 0xA0 SHL SUB NOT AND SWAP1 SWAP2 OR SWAP1 SSTORE POP PUSH3 0x316 SWAP11 POP POP POP POP POP POP POP POP POP POP POP JUMP JUMPDEST DUP3 DUP1 SLOAD PUSH1 0x1 DUP2 PUSH1 0x1 AND ISZERO PUSH2 0x100 MUL SUB AND PUSH1 0x2 SWAP1 DIV SWAP1 PUSH1 0x0 MSTORE PUSH1 0x20 PUSH1 0x0 KECCAK256 SWAP1 PUSH1 0x1F ADD PUSH1 0x20 SWAP1 DIV DUP2 ADD SWAP3 DUP3 PUSH1 0x1F LT PUSH3 0x2B4 JUMPI DUP1 MLOAD PUSH1 0xFF NOT AND DUP4 DUP1 ADD OR DUP6 SSTORE PUSH3 0x2E4 JUMP JUMPDEST DUP3 DUP1 ADD PUSH1 0x1 ADD DUP6 SSTORE DUP3 ISZERO PUSH3 0x2E4 JUMPI SWAP2 DUP3 ADD JUMPDEST DUP3 DUP2 GT ISZERO PUSH3 0x2E4 JUMPI DUP3 MLOAD DUP3 SSTORE SWAP2 PUSH1 0x20 ADD SWAP2 SWAP1 PUSH1 0x1 ADD SWAP1 PUSH3 0x2C7 JUMP JUMPDEST POP PUSH3 0x2F2 SWAP3 SWAP2 POP PUSH3 0x2F6 JUMP JUMPDEST POP SWAP1 JUMP JUMPDEST PUSH3 0x313 SWAP2 SWAP1 JUMPDEST DUP1 DUP3 GT ISZERO PUSH3 0x2F2 JUMPI PUSH1 0x0 DUP2 SSTORE PUSH1 0x1 ADD PUSH3 0x2FD JUMP JUMPDEST SWAP1 JUMP JUMPDEST PUSH2 0x239B DUP1 PUSH3 0x326 PUSH1 0x0 CODECOPY PUSH1 0x0 RETURN INVALID PUSH1 0x80 PUSH1 0x40 MSTORE PUSH1 0x4 CALLDATASIZE LT PUSH2 0x25C JUMPI PUSH1 0x0 CALLDATALOAD PUSH1 0xE0 SHR DUP1 PUSH4 0x859BA28C GT PUSH2 0x144 JUMPI DUP1 PUSH4 0xB753A98C GT PUSH2 0xB6 JUMPI DUP1 PUSH4 0xE380AE96 GT PUSH2 0x7A JUMPI DUP1 PUSH4 0xE380AE96 EQ PUSH2 0xA85 JUMPI DUP1 PUSH4 0xEE99205C EQ PUSH2 0xAAF JUMPI DUP1 PUSH4 0xF2D5D56B EQ PUSH2 0xAC4 JUMPI DUP1 PUSH4 0xF2FDE38B EQ PUSH2 0xAFD JUMPI DUP1 PUSH4 0xFBB2A53F EQ PUSH2 0xB30 JUMPI DUP1 PUSH4 0xFF9E884D EQ PUSH2 0xB45 JUMPI PUSH2 0x25C JUMP JUMPDEST DUP1 PUSH4 0xB753A98C EQ PUSH2 0x980 JUMPI DUP1 PUSH4 0xBB35783B EQ PUSH2 0x9B9 JUMPI DUP1 PUSH4 0xC794C769 EQ PUSH2 0x9FC JUMPI DUP1 PUSH4 0xD73DD623 EQ PUSH2 0xA11 JUMPI DUP1 PUSH4 0xDD62ED3E EQ PUSH2 0xA4A JUMPI PUSH2 0x25C JUMP JUMPDEST DUP1 PUSH4 0x9712FDF8 GT PUSH2 0x108 JUMPI DUP1 PUSH4 0x9712FDF8 EQ PUSH2 0x80A JUMPI DUP1 PUSH4 0x9DA38E2F EQ PUSH2 0x83D JUMPI DUP1 PUSH4 0x9DD373B9 EQ PUSH2 0x8A2 JUMPI DUP1 PUSH4 0xA457C2D7 EQ PUSH2 0x8D5 JUMPI DUP1 PUSH4 0xA9059CBB EQ PUSH2 0x90E JUMPI DUP1 PUSH4 0xADC9772E EQ PUSH2 0x947 JUMPI PUSH2 0x25C JUMP JUMPDEST DUP1 PUSH4 0x859BA28C EQ PUSH2 0x70E JUMPI DUP1 PUSH4 0x8DA5CB5B EQ PUSH2 0x74F JUMPI DUP1 PUSH4 0x8FCBAF0C EQ PUSH2 0x764 JUMPI DUP1 PUSH4 0x91C0AABF EQ PUSH2 0x7CB JUMPI DUP1 PUSH4 0x95D89B41 EQ PUSH2 0x7F5 JUMPI PUSH2 0x25C JUMP JUMPDEST DUP1 PUSH4 0x4000AEA0 GT PUSH2 0x1DD JUMPI DUP1 PUSH4 0x56B54BAE GT PUSH2 0x1A1 JUMPI DUP1 PUSH4 0x56B54BAE EQ PUSH2 0x5EC JUMPI DUP1 PUSH4 0x66188463 EQ PUSH2 0x601 JUMPI DUP1 PUSH4 0x69FFA08A EQ PUSH2 0x63A JUMPI DUP1 PUSH4 0x70A08231 EQ PUSH2 0x675 JUMPI DUP1 PUSH4 0x726600CE EQ PUSH2 0x6A8 JUMPI DUP1 PUSH4 0x7ECEBE00 EQ PUSH2 0x6DB JUMPI PUSH2 0x25C JUMP JUMPDEST DUP1 PUSH4 0x4000AEA0 EQ PUSH2 0x493 JUMPI DUP1 PUSH4 0x40C10F19 EQ PUSH2 0x525 JUMPI DUP1 PUSH4 0x42966C68 EQ PUSH2 0x55E JUMPI DUP1 PUSH4 0x4BCB88BC EQ PUSH2 0x588 JUMPI DUP1 PUSH4 0x54FD4D50 EQ PUSH2 0x5D7 JUMPI PUSH2 0x25C JUMP JUMPDEST DUP1 PUSH4 0x27A3E16B GT PUSH2 0x224 JUMPI DUP1 PUSH4 0x27A3E16B EQ PUSH2 0x3D2 JUMPI DUP1 PUSH4 0x30ADF81F EQ PUSH2 0x405 JUMPI DUP1 PUSH4 0x313CE567 EQ PUSH2 0x41A JUMPI DUP1 PUSH4 0x3644E515 EQ PUSH2 0x445 JUMPI DUP1 PUSH4 0x39509351 EQ PUSH2 0x45A JUMPI PUSH2 0x25C JUMP JUMPDEST DUP1 PUSH4 0x4DF017D EQ PUSH2 0x25E JUMPI DUP1 PUSH4 0x6FDDE03 EQ PUSH2 0x291 JUMPI DUP1 PUSH4 0x95EA7B3 EQ PUSH2 0x31B JUMPI DUP1 PUSH4 0x18160DDD EQ PUSH2 0x368 JUMPI DUP1 PUSH4 0x23B872DD EQ PUSH2 0x38F JUMPI JUMPDEST STOP JUMPDEST CALLVALUE DUP1 ISZERO PUSH2 0x26A JUMPI PUSH1 0x0 DUP1 REVERT JUMPDEST POP PUSH2 0x25C PUSH1 0x4 DUP1 CALLDATASIZE SUB PUSH1 0x20 DUP2 LT ISZERO PUSH2 0x281 JUMPI PUSH1 0x0 DUP1 REVERT JUMPDEST POP CALLDATALOAD PUSH1 0x1 PUSH1 0x1 PUSH1 0xA0 SHL SUB AND PUSH2 0xB80 JUMP JUMPDEST CALLVALUE DUP1 ISZERO PUSH2 0x29D JUMPI PUSH1 0x0 DUP1 REVERT JUMPDEST POP PUSH2 0x2A6 PUSH2 0xCD5 JUMP JUMPDEST PUSH1 0x40 DUP1 MLOAD PUSH1 0x20 DUP1 DUP3 MSTORE DUP4 MLOAD DUP2 DUP4 ADD MSTORE DUP4 MLOAD SWAP2 SWAP3 DUP4 SWAP3 SWAP1 DUP4 ADD SWAP2 DUP6 ADD SWAP1 DUP1 DUP4 DUP4 PUSH1 0x0 JUMPDEST DUP4 DUP2 LT ISZERO PUSH2 0x2E0 JUMPI DUP2 DUP2 ADD MLOAD DUP4 DUP3 ADD MSTORE PUSH1 0x20 ADD PUSH2 0x2C8 JUMP JUMPDEST POP POP POP POP SWAP1 POP SWAP1 DUP2 ADD SWAP1 PUSH1 0x1F AND DUP1 ISZERO PUSH2 0x30D JUMPI DUP1 DUP3 SUB DUP1 MLOAD PUSH1 0x1 DUP4 PUSH1 0x20 SUB PUSH2 0x100 EXP SUB NOT AND DUP2 MSTORE PUSH1 0x20 ADD SWAP2 POP JUMPDEST POP SWAP3 POP POP POP PUSH1 0x40 MLOAD DUP1 SWAP2 SUB SWAP1 RETURN JUMPDEST CALLVALUE DUP1 ISZERO PUSH2 0x327 JUMPI PUSH1 0x0 DUP1 REVERT JUMPDEST POP PUSH2 0x354 PUSH1 0x4 DUP1 CALLDATASIZE SUB PUSH1 0x40 DUP2 LT ISZERO PUSH2 0x33E JUMPI PUSH1 0x0 DUP1 REVERT JUMPDEST POP PUSH1 0x1 PUSH1 0x1 PUSH1 0xA0 SHL SUB DUP2 CALLDATALOAD AND SWAP1 PUSH1 0x20 ADD CALLDATALOAD PUSH2 0xD63 JUMP JUMPDEST PUSH1 0x40 DUP1 MLOAD SWAP2 ISZERO ISZERO DUP3 MSTORE MLOAD SWAP1 DUP2 SWAP1 SUB PUSH1 0x20 ADD SWAP1 RETURN JUMPDEST CALLVALUE DUP1 ISZERO PUSH2 0x374 JUMPI PUSH1 0x0 DUP1 REVERT JUMPDEST POP PUSH2 0x37D PUSH2 0xDB7 JUMP JUMPDEST PUSH1 0x40 DUP1 MLOAD SWAP2 DUP3 MSTORE MLOAD SWAP1 DUP2 SWAP1 SUB PUSH1 0x20 ADD SWAP1 RETURN JUMPDEST CALLVALUE DUP1 ISZERO PUSH2 0x39B JUMPI PUSH1 0x0 DUP1 REVERT JUMPDEST POP PUSH2 0x354 PUSH1 0x4 DUP1 CALLDATASIZE SUB PUSH1 0x60 DUP2 LT ISZERO PUSH2 0x3B2 JUMPI PUSH1 0x0 DUP1 REVERT JUMPDEST POP PUSH1 0x1 PUSH1 0x1 PUSH1 0xA0 SHL SUB DUP2 CALLDATALOAD DUP2 AND SWAP2 PUSH1 0x20 DUP2 ADD CALLDATALOAD SWAP1 SWAP2 AND SWAP1 PUSH1 0x40 ADD CALLDATALOAD PUSH2 0xDBD JUMP JUMPDEST CALLVALUE DUP1 ISZERO PUSH2 0x3DE JUMPI PUSH1 0x0 DUP1 REVERT JUMPDEST POP PUSH2 0x25C PUSH1 0x4 DUP1 CALLDATASIZE SUB PUSH1 0x20 DUP2 LT ISZERO PUSH2 0x3F5 JUMPI PUSH1 0x0 DUP1 REVERT JUMPDEST POP CALLDATALOAD PUSH1 0x1 PUSH1 0x1 PUSH1 0xA0 SHL SUB AND PUSH2 0xE09 JUMP JUMPDEST CALLVALUE DUP1 ISZERO PUSH2 0x411 JUMPI PUSH1 0x0 DUP1 REVERT JUMPDEST POP PUSH2 0x37D PUSH2 0xE54 JUMP JUMPDEST CALLVALUE DUP1 ISZERO PUSH2 0x426 JUMPI PUSH1 0x0 DUP1 REVERT JUMPDEST POP PUSH2 0x42F PUSH2 0xE78 JUMP JUMPDEST PUSH1 0x40 DUP1 MLOAD PUSH1 0xFF SWAP1 SWAP3 AND DUP3 MSTORE MLOAD SWAP1 DUP2 SWAP1 SUB PUSH1 0x20 ADD SWAP1 RETURN JUMPDEST CALLVALUE DUP1 ISZERO PUSH2 0x451 JUMPI PUSH1 0x0 DUP1 REVERT JUMPDEST POP PUSH2 0x37D PUSH2 0xE81 JUMP JUMPDEST CALLVALUE DUP1 ISZERO PUSH2 0x466 JUMPI PUSH1 0x0 DUP1 REVERT JUMPDEST POP PUSH2 0x354 PUSH1 0x4 DUP1 CALLDATASIZE SUB PUSH1 0x40 DUP2 LT ISZERO PUSH2 0x47D JUMPI PUSH1 0x0 DUP1 REVERT JUMPDEST POP PUSH1 0x1 PUSH1 0x1 PUSH1 0xA0 SHL SUB DUP2 CALLDATALOAD AND SWAP1 PUSH1 0x20 ADD CALLDATALOAD PUSH2 0xE87 JUMP JUMPDEST CALLVALUE DUP1 ISZERO PUSH2 0x49F JUMPI PUSH1 0x0 DUP1 REVERT JUMPDEST POP PUSH2 0x354 PUSH1 0x4 DUP1 CALLDATASIZE SUB PUSH1 0x60 DUP2 LT ISZERO PUSH2 0x4B6 JUMPI PUSH1 0x0 DUP1 REVERT JUMPDEST PUSH1 0x1 PUSH1 0x1 PUSH1 0xA0 SHL SUB DUP3 CALLDATALOAD AND SWAP2 PUSH1 0x20 DUP2 ADD CALLDATALOAD SWAP2 DUP2 ADD SWAP1 PUSH1 0x60 DUP2 ADD PUSH1 0x40 DUP3 ADD CALLDATALOAD PUSH5 0x100000000 DUP2 GT ISZERO PUSH2 0x4E6 JUMPI PUSH1 0x0 DUP1 REVERT JUMPDEST DUP3 ADD DUP4 PUSH1 0x20 DUP3 ADD GT ISZERO PUSH2 0x4F8 JUMPI PUSH1 0x0 DUP1 REVERT JUMPDEST DUP1 CALLDATALOAD SWAP1 PUSH1 0x20 ADD SWAP2 DUP5 PUSH1 0x1 DUP4 MUL DUP5 ADD GT PUSH5 0x100000000 DUP4 GT OR ISZERO PUSH2 0x51A JUMPI PUSH1 0x0 DUP1 REVERT JUMPDEST POP SWAP1 SWAP3 POP SWAP1 POP PUSH2 0xE9A JUMP JUMPDEST CALLVALUE DUP1 ISZERO PUSH2 0x531 JUMPI PUSH1 0x0 DUP1 REVERT JUMPDEST POP PUSH2 0x354 PUSH1 0x4 DUP1 CALLDATASIZE SUB PUSH1 0x40 DUP2 LT ISZERO PUSH2 0x548 JUMPI PUSH1 0x0 DUP1 REVERT JUMPDEST POP PUSH1 0x1 PUSH1 0x1 PUSH1 0xA0 SHL SUB DUP2 CALLDATALOAD AND SWAP1 PUSH1 0x20 ADD CALLDATALOAD PUSH2 0xFBB JUMP JUMPDEST CALLVALUE DUP1 ISZERO PUSH2 0x56A JUMPI PUSH1 0x0 DUP1 REVERT JUMPDEST POP PUSH2 0x25C PUSH1 0x4 DUP1 CALLDATASIZE SUB PUSH1 0x20 DUP2 LT ISZERO PUSH2 0x581 JUMPI PUSH1 0x0 DUP1 REVERT JUMPDEST POP CALLDATALOAD PUSH2 0x109E JUMP JUMPDEST CALLVALUE DUP1 ISZERO PUSH2 0x594 JUMPI PUSH1 0x0 DUP1 REVERT JUMPDEST POP PUSH2 0x5BB PUSH1 0x4 DUP1 CALLDATASIZE SUB PUSH1 0x20 DUP2 LT ISZERO PUSH2 0x5AB JUMPI PUSH1 0x0 DUP1 REVERT JUMPDEST POP CALLDATALOAD PUSH1 0x1 PUSH1 0x1 PUSH1 0xA0 SHL SUB AND PUSH2 0x10AB JUMP JUMPDEST PUSH1 0x40 DUP1 MLOAD PUSH1 0x1 PUSH1 0x1 PUSH1 0xA0 SHL SUB SWAP1 SWAP3 AND DUP3 MSTORE MLOAD SWAP1 DUP2 SWAP1 SUB PUSH1 0x20 ADD SWAP1 RETURN JUMPDEST CALLVALUE DUP1 ISZERO PUSH2 0x5E3 JUMPI PUSH1 0x0 DUP1 REVERT JUMPDEST POP PUSH2 0x2A6 PUSH2 0x10C6 JUMP JUMPDEST CALLVALUE DUP1 ISZERO PUSH2 0x5F8 JUMPI PUSH1 0x0 DUP1 REVERT JUMPDEST POP PUSH2 0x5BB PUSH2 0x10E3 JUMP JUMPDEST CALLVALUE DUP1 ISZERO PUSH2 0x60D JUMPI PUSH1 0x0 DUP1 REVERT JUMPDEST POP PUSH2 0x354 PUSH1 0x4 DUP1 CALLDATASIZE SUB PUSH1 0x40 DUP2 LT ISZERO PUSH2 0x624 JUMPI PUSH1 0x0 DUP1 REVERT JUMPDEST POP PUSH1 0x1 PUSH1 0x1 PUSH1 0xA0 SHL SUB DUP2 CALLDATALOAD AND SWAP1 PUSH1 0x20 ADD CALLDATALOAD PUSH2 0x10F2 JUMP JUMPDEST CALLVALUE DUP1 ISZERO PUSH2 0x646 JUMPI PUSH1 0x0 DUP1 REVERT JUMPDEST POP PUSH2 0x25C PUSH1 0x4 DUP1 CALLDATASIZE SUB PUSH1 0x40 DUP2 LT ISZERO PUSH2 0x65D JUMPI PUSH1 0x0 DUP1 REVERT JUMPDEST POP PUSH1 0x1 PUSH1 0x1 PUSH1 0xA0 SHL SUB DUP2 CALLDATALOAD DUP2 AND SWAP2 PUSH1 0x20 ADD CALLDATALOAD AND PUSH2 0x11CF JUMP JUMPDEST CALLVALUE DUP1 ISZERO PUSH2 0x681 JUMPI PUSH1 0x0 DUP1 REVERT JUMPDEST POP PUSH2 0x37D PUSH1 0x4 DUP1 CALLDATASIZE SUB PUSH1 0x20 DUP2 LT ISZERO PUSH2 0x698 JUMPI PUSH1 0x0 DUP1 REVERT JUMPDEST POP CALLDATALOAD PUSH1 0x1 PUSH1 0x1 PUSH1 0xA0 SHL SUB AND PUSH2 0x1209 JUMP JUMPDEST CALLVALUE DUP1 ISZERO PUSH2 0x6B4 JUMPI PUSH1 0x0 DUP1 REVERT JUMPDEST POP PUSH2 0x354 PUSH1 0x4 DUP1 CALLDATASIZE SUB PUSH1 0x20 DUP2 LT ISZERO PUSH2 0x6CB JUMPI PUSH1 0x0 DUP1 REVERT JUMPDEST POP CALLDATALOAD PUSH1 0x1 PUSH1 0x1 PUSH1 0xA0 SHL SUB AND PUSH2 0x1224 JUMP JUMPDEST CALLVALUE DUP1 ISZERO PUSH2 0x6E7 JUMPI PUSH1 0x0 DUP1 REVERT JUMPDEST POP PUSH2 0x37D PUSH1 0x4 DUP1 CALLDATASIZE SUB PUSH1 0x20 DUP2 LT ISZERO PUSH2 0x6FE JUMPI PUSH1 0x0 DUP1 REVERT JUMPDEST POP CALLDATALOAD PUSH1 0x1 PUSH1 0x1 PUSH1 0xA0 SHL SUB AND PUSH2 0x125E JUMP JUMPDEST CALLVALUE DUP1 ISZERO PUSH2 0x71A JUMPI PUSH1 0x0 DUP1 REVERT JUMPDEST POP PUSH2 0x723 PUSH2 0x1270 JUMP JUMPDEST PUSH1 0x40 DUP1 MLOAD PUSH8 0xFFFFFFFFFFFFFFFF SWAP5 DUP6 AND DUP2 MSTORE SWAP3 DUP5 AND PUSH1 0x20 DUP5 ADD MSTORE SWAP3 AND DUP2 DUP4 ADD MSTORE SWAP1 MLOAD SWAP1 DUP2 SWAP1 SUB PUSH1 0x60 ADD SWAP1 RETURN JUMPDEST CALLVALUE DUP1 ISZERO PUSH2 0x75B JUMPI PUSH1 0x0 DUP1 REVERT JUMPDEST POP PUSH2 0x5BB PUSH2 0x127A JUMP JUMPDEST CALLVALUE DUP1 ISZERO PUSH2 0x770 JUMPI PUSH1 0x0 DUP1 REVERT JUMPDEST POP PUSH2 0x25C PUSH1 0x4 DUP1 CALLDATASIZE SUB PUSH2 0x100 DUP2 LT ISZERO PUSH2 0x788 JUMPI PUSH1 0x0 DUP1 REVERT JUMPDEST POP PUSH1 0x1 PUSH1 0x1 PUSH1 0xA0 SHL SUB DUP2 CALLDATALOAD DUP2 AND SWAP2 PUSH1 0x20 DUP2 ADD CALLDATALOAD SWAP1 SWAP2 AND SWAP1 PUSH1 0x40 DUP2 ADD CALLDATALOAD SWAP1 PUSH1 0x60 DUP2 ADD CALLDATALOAD SWAP1 PUSH1 0x80 DUP2 ADD CALLDATALOAD ISZERO ISZERO SWAP1 PUSH1 0xFF PUSH1 0xA0 DUP3 ADD CALLDATALOAD AND SWAP1 PUSH1 0xC0 DUP2 ADD CALLDATALOAD SWAP1 PUSH1 0xE0 ADD CALLDATALOAD PUSH2 0x1289 JUMP JUMPDEST CALLVALUE DUP1 ISZERO PUSH2 0x7D7 JUMPI PUSH1 0x0 DUP1 REVERT JUMPDEST POP PUSH2 0x25C PUSH1 0x4 DUP1 CALLDATASIZE SUB PUSH1 0x20 DUP2 LT ISZERO PUSH2 0x7EE JUMPI PUSH1 0x0 DUP1 REVERT JUMPDEST POP CALLDATALOAD PUSH2 0x14D0 JUMP JUMPDEST CALLVALUE DUP1 ISZERO PUSH2 0x801 JUMPI PUSH1 0x0 DUP1 REVERT JUMPDEST POP PUSH2 0x2A6 PUSH2 0x15C4 JUMP JUMPDEST CALLVALUE DUP1 ISZERO PUSH2 0x816 JUMPI PUSH1 0x0 DUP1 REVERT JUMPDEST POP PUSH2 0x25C PUSH1 0x4 DUP1 CALLDATASIZE SUB PUSH1 0x20 DUP2 LT ISZERO PUSH2 0x82D JUMPI PUSH1 0x0 DUP1 REVERT JUMPDEST POP CALLDATALOAD PUSH1 0x1 PUSH1 0x1 PUSH1 0xA0 SHL SUB AND PUSH2 0x161E JUMP JUMPDEST CALLVALUE DUP1 ISZERO PUSH2 0x849 JUMPI PUSH1 0x0 DUP1 REVERT JUMPDEST POP PUSH2 0x852 PUSH2 0x1729 JUMP JUMPDEST PUSH1 0x40 DUP1 MLOAD PUSH1 0x20 DUP1 DUP3 MSTORE DUP4 MLOAD DUP2 DUP4 ADD MSTORE DUP4 MLOAD SWAP2 SWAP3 DUP4 SWAP3 SWAP1 DUP4 ADD SWAP2 DUP6 DUP2 ADD SWAP2 MUL DUP1 DUP4 DUP4 PUSH1 0x0 JUMPDEST DUP4 DUP2 LT ISZERO PUSH2 0x88E JUMPI DUP2 DUP2 ADD MLOAD DUP4 DUP3 ADD MSTORE PUSH1 0x20 ADD PUSH2 0x876 JUMP JUMPDEST POP POP POP POP SWAP1 POP ADD SWAP3 POP POP POP PUSH1 0x40 MLOAD DUP1 SWAP2 SUB SWAP1 RETURN JUMPDEST CALLVALUE DUP1 ISZERO PUSH2 0x8AE JUMPI PUSH1 0x0 DUP1 REVERT JUMPDEST POP PUSH2 0x25C PUSH1 0x4 DUP1 CALLDATASIZE SUB PUSH1 0x20 DUP2 LT ISZERO PUSH2 0x8C5 JUMPI PUSH1 0x0 DUP1 REVERT JUMPDEST POP CALLDATALOAD PUSH1 0x1 PUSH1 0x1 PUSH1 0xA0 SHL SUB AND PUSH2 0x17F3 JUMP JUMPDEST CALLVALUE DUP1 ISZERO PUSH2 0x8E1 JUMPI PUSH1 0x0 DUP1 REVERT JUMPDEST POP PUSH2 0x354 PUSH1 0x4 DUP1 CALLDATASIZE SUB PUSH1 0x40 DUP2 LT ISZERO PUSH2 0x8F8 JUMPI PUSH1 0x0 DUP1 REVERT JUMPDEST POP PUSH1 0x1 PUSH1 0x1 PUSH1 0xA0 SHL SUB DUP2 CALLDATALOAD AND SWAP1 PUSH1 0x20 ADD CALLDATALOAD PUSH2 0x1851 JUMP JUMPDEST CALLVALUE DUP1 ISZERO PUSH2 0x91A JUMPI PUSH1 0x0 DUP1 REVERT JUMPDEST POP PUSH2 0x354 PUSH1 0x4 DUP1 CALLDATASIZE SUB PUSH1 0x40 DUP2 LT ISZERO PUSH2 0x931 JUMPI PUSH1 0x0 DUP1 REVERT JUMPDEST POP PUSH1 0x1 PUSH1 0x1 PUSH1 0xA0 SHL SUB DUP2 CALLDATALOAD AND SWAP1 PUSH1 0x20 ADD CALLDATALOAD PUSH2 0x185D JUMP JUMPDEST CALLVALUE DUP1 ISZERO PUSH2 0x953 JUMPI PUSH1 0x0 DUP1 REVERT JUMPDEST POP PUSH2 0x25C PUSH1 0x4 DUP1 CALLDATASIZE SUB PUSH1 0x40 DUP2 LT ISZERO PUSH2 0x96A JUMPI PUSH1 0x0 DUP1 REVERT JUMPDEST POP PUSH1 0x1 PUSH1 0x1 PUSH1 0xA0 SHL SUB DUP2 CALLDATALOAD AND SWAP1 PUSH1 0x20 ADD CALLDATALOAD PUSH2 0x18A0 JUMP JUMPDEST CALLVALUE DUP1 ISZERO PUSH2 0x98C JUMPI PUSH1 0x0 DUP1 REVERT JUMPDEST POP PUSH2 0x25C PUSH1 0x4 DUP1 CALLDATASIZE SUB PUSH1 0x40 DUP2 LT ISZERO PUSH2 0x9A3 JUMPI PUSH1 0x0 DUP1 REVERT JUMPDEST POP PUSH1 0x1 PUSH1 0x1 PUSH1 0xA0 SHL SUB DUP2 CALLDATALOAD AND SWAP1 PUSH1 0x20 ADD CALLDATALOAD PUSH2 0x1969 JUMP JUMPDEST CALLVALUE DUP1 ISZERO PUSH2 0x9C5 JUMPI PUSH1 0x0 DUP1 REVERT JUMPDEST POP PUSH2 0x25C PUSH1 0x4 DUP1 CALLDATASIZE SUB PUSH1 0x60 DUP2 LT ISZERO PUSH2 0x9DC JUMPI PUSH1 0x0 DUP1 REVERT JUMPDEST POP PUSH1 0x1 PUSH1 0x1 PUSH1 0xA0 SHL SUB DUP2 CALLDATALOAD DUP2 AND SWAP2 PUSH1 0x20 DUP2 ADD CALLDATALOAD SWAP1 SWAP2 AND SWAP1 PUSH1 0x40 ADD CALLDATALOAD PUSH2 0x1974 JUMP JUMPDEST CALLVALUE DUP1 ISZERO PUSH2 0xA08 JUMPI PUSH1 0x0 DUP1 REVERT JUMPDEST POP PUSH2 0x5BB PUSH2 0x1985 JUMP JUMPDEST CALLVALUE DUP1 ISZERO PUSH2 0xA1D JUMPI PUSH1 0x0 DUP1 REVERT JUMPDEST POP PUSH2 0x354 PUSH1 0x4 DUP1 CALLDATASIZE SUB PUSH1 0x40 DUP2 LT ISZERO PUSH2 0xA34 JUMPI PUSH1 0x0 DUP1 REVERT JUMPDEST POP PUSH1 0x1 PUSH1 0x1 PUSH1 0xA0 SHL SUB DUP2 CALLDATALOAD AND SWAP1 PUSH1 0x20 ADD CALLDATALOAD PUSH2 0x1990 JUMP JUMPDEST CALLVALUE DUP1 ISZERO PUSH2 0xA56 JUMPI PUSH1 0x0 DUP1 REVERT JUMPDEST POP PUSH2 0x37D PUSH1 0x4 DUP1 CALLDATASIZE SUB PUSH1 0x40 DUP2 LT ISZERO PUSH2 0xA6D JUMPI PUSH1 0x0 DUP1 REVERT JUMPDEST POP PUSH1 0x1 PUSH1 0x1 PUSH1 0xA0 SHL SUB DUP2 CALLDATALOAD DUP2 AND SWAP2 PUSH1 0x20 ADD CALLDATALOAD AND PUSH2 0x1A17 JUMP JUMPDEST CALLVALUE DUP1 ISZERO PUSH2 0xA91 JUMPI PUSH1 0x0 DUP1 REVERT JUMPDEST POP PUSH2 0x25C PUSH1 0x4 DUP1 CALLDATASIZE SUB PUSH1 0x20 DUP2 LT ISZERO PUSH2 0xAA8 JUMPI PUSH1 0x0 DUP1 REVERT JUMPDEST POP CALLDATALOAD PUSH2 0x1A42 JUMP JUMPDEST CALLVALUE DUP1 ISZERO PUSH2 0xABB JUMPI PUSH1 0x0 DUP1 REVERT JUMPDEST POP PUSH2 0x5BB PUSH2 0x1A47 JUMP JUMPDEST CALLVALUE DUP1 ISZERO PUSH2 0xAD0 JUMPI PUSH1 0x0 DUP1 REVERT JUMPDEST POP PUSH2 0x25C PUSH1 0x4 DUP1 CALLDATASIZE SUB PUSH1 0x40 DUP2 LT ISZERO PUSH2 0xAE7 JUMPI PUSH1 0x0 DUP1 REVERT JUMPDEST POP PUSH1 0x1 PUSH1 0x1 PUSH1 0xA0 SHL SUB DUP2 CALLDATALOAD AND SWAP1 PUSH1 0x20 ADD CALLDATALOAD PUSH2 0x1A56 JUMP JUMPDEST CALLVALUE DUP1 ISZERO PUSH2 0xB09 JUMPI PUSH1 0x0 DUP1 REVERT JUMPDEST POP PUSH2 0x25C PUSH1 0x4 DUP1 CALLDATASIZE SUB PUSH1 0x20 DUP2 LT ISZERO PUSH2 0xB20 JUMPI PUSH1 0x0 DUP1 REVERT JUMPDEST POP CALLDATALOAD PUSH1 0x1 PUSH1 0x1 PUSH1 0xA0 SHL SUB AND PUSH2 0x1A61 JUMP JUMPDEST CALLVALUE DUP1 ISZERO PUSH2 0xB3C JUMPI PUSH1 0x0 DUP1 REVERT JUMPDEST POP PUSH2 0x37D PUSH2 0x1A81 JUMP JUMPDEST CALLVALUE DUP1 ISZERO PUSH2 0xB51 JUMPI PUSH1 0x0 DUP1 REVERT JUMPDEST POP PUSH2 0x37D PUSH1 0x4 DUP1 CALLDATASIZE SUB PUSH1 0x40 DUP2 LT ISZERO PUSH2 0xB68 JUMPI PUSH1 0x0 DUP1 REVERT JUMPDEST POP PUSH1 0x1 PUSH1 0x1 PUSH1 0xA0 SHL SUB DUP2 CALLDATALOAD DUP2 AND SWAP2 PUSH1 0x20 ADD CALLDATALOAD AND PUSH2 0x1A87 JUMP JUMPDEST PUSH1 0x6 SLOAD PUSH1 0x1 PUSH1 0x1 PUSH1 0xA0 SHL SUB AND CALLER EQ PUSH2 0xB97 JUMPI PUSH1 0x0 DUP1 REVERT JUMPDEST PUSH2 0xBA0 DUP2 PUSH2 0x1224 JUMP JUMPDEST PUSH2 0xBA9 JUMPI PUSH1 0x0 DUP1 REVERT JUMPDEST PUSH1 0x1 PUSH1 0x1 PUSH1 0xA0 SHL SUB DUP1 DUP3 AND PUSH1 0x0 SWAP1 DUP2 MSTORE PUSH1 0xA PUSH1 0x20 MSTORE PUSH1 0x40 DUP2 KECCAK256 SLOAD SWAP1 DUP3 SWAP1 MSTORE PUSH1 0x0 DUP1 MLOAD PUSH1 0x20 PUSH2 0x2307 DUP4 CODECOPY DUP2 MLOAD SWAP2 MSTORE SLOAD SWAP1 DUP3 AND SWAP2 SWAP1 DUP2 AND DUP1 PUSH2 0xBE8 JUMPI PUSH1 0x0 DUP1 REVERT JUMPDEST DUP4 PUSH1 0x1 PUSH1 0x1 PUSH1 0xA0 SHL SUB AND DUP2 PUSH1 0x1 PUSH1 0x1 PUSH1 0xA0 SHL SUB AND EQ PUSH2 0xC47 JUMPI PUSH1 0x1 PUSH1 0x1 PUSH1 0xA0 SHL SUB DUP1 DUP3 AND PUSH1 0x0 SWAP1 DUP2 MSTORE PUSH1 0xA PUSH1 0x20 MSTORE PUSH1 0x40 SWAP1 KECCAK256 SLOAD SWAP2 SWAP3 POP SWAP1 DUP2 AND SWAP1 DUP2 EQ DUP1 ISZERO SWAP1 PUSH2 0xC39 JUMPI POP PUSH1 0x1 PUSH1 0x1 PUSH1 0xA0 SHL SUB DUP2 AND ISZERO ISZERO JUMPDEST PUSH2 0xC42 JUMPI PUSH1 0x0 DUP1 REVERT JUMPDEST PUSH2 0xBE8 JUMP JUMPDEST PUSH1 0x1 PUSH1 0x1 PUSH1 0xA0 SHL SUB DUP1 DUP4 AND PUSH1 0x0 SWAP1 DUP2 MSTORE PUSH1 0xA PUSH1 0x20 MSTORE PUSH1 0x40 DUP1 DUP3 KECCAK256 DUP1 SLOAD DUP5 DUP9 AND PUSH1 0x1 PUSH1 0x1 PUSH1 0xA0 SHL SUB NOT SWAP2 DUP3 AND OR SWAP1 SWAP2 SSTORE SWAP3 DUP8 AND DUP3 MSTORE SWAP1 KECCAK256 DUP1 SLOAD SWAP1 SWAP2 AND SWAP1 SSTORE PUSH1 0xB SLOAD PUSH2 0xC98 SWAP1 PUSH1 0x1 PUSH4 0xFFFFFFFF PUSH2 0x1AA4 AND JUMP JUMPDEST PUSH1 0xB SSTORE PUSH1 0x40 MLOAD PUSH1 0x1 PUSH1 0x1 PUSH1 0xA0 SHL SUB DUP6 AND SWAP1 PUSH32 0x5D9D5034656CB3EBFB0655057CD7F9B4077A9B42FF42CE223CBAC5BC586D2126 SWAP1 PUSH1 0x0 SWAP1 LOG2 POP POP POP POP JUMP JUMPDEST PUSH1 0x0 DUP1 SLOAD PUSH1 0x40 DUP1 MLOAD PUSH1 0x20 PUSH1 0x2 PUSH1 0x1 DUP6 AND ISZERO PUSH2 0x100 MUL PUSH1 0x0 NOT ADD SWAP1 SWAP5 AND SWAP4 SWAP1 SWAP4 DIV PUSH1 0x1F DUP2 ADD DUP5 SWAP1 DIV DUP5 MUL DUP3 ADD DUP5 ADD SWAP1 SWAP3 MSTORE DUP2 DUP2 MSTORE SWAP3 SWAP2 DUP4 ADD DUP3 DUP3 DUP1 ISZERO PUSH2 0xD5B JUMPI DUP1 PUSH1 0x1F LT PUSH2 0xD30 JUMPI PUSH2 0x100 DUP1 DUP4 SLOAD DIV MUL DUP4 MSTORE SWAP2 PUSH1 0x20 ADD SWAP2 PUSH2 0xD5B JUMP JUMPDEST DUP3 ADD SWAP2 SWAP1 PUSH1 0x0 MSTORE PUSH1 0x20 PUSH1 0x0 KECCAK256 SWAP1 JUMPDEST DUP2 SLOAD DUP2 MSTORE SWAP1 PUSH1 0x1 ADD SWAP1 PUSH1 0x20 ADD DUP1 DUP4 GT PUSH2 0xD3E JUMPI DUP3 SWAP1 SUB PUSH1 0x1F AND DUP3 ADD SWAP2 JUMPDEST POP POP POP POP POP DUP2 JUMP JUMPDEST CALLER PUSH1 0x0 DUP2 DUP2 MSTORE PUSH1 0x5 PUSH1 0x20 SWAP1 DUP2 MSTORE PUSH1 0x40 DUP1 DUP4 KECCAK256 PUSH1 0x1 PUSH1 0x1 PUSH1 0xA0 SHL SUB DUP8 AND DUP1 DUP6 MSTORE SWAP1 DUP4 MSTORE DUP2 DUP5 KECCAK256 DUP7 SWAP1 SSTORE DUP2 MLOAD DUP7 DUP2 MSTORE SWAP2 MLOAD SWAP4 SWAP5 SWAP1 SWAP4 SWAP1 SWAP3 PUSH1 0x0 DUP1 MLOAD PUSH1 0x20 PUSH2 0x2347 DUP4 CODECOPY DUP2 MLOAD SWAP2 MSTORE SWAP3 DUP3 SWAP1 SUB ADD SWAP1 LOG3 POP PUSH1 0x1 SWAP3 SWAP2 POP POP JUMP JUMPDEST PUSH1 0x4 SLOAD SWAP1 JUMP JUMPDEST PUSH1 0xC SLOAD PUSH1 0x0 SWAP1 PUSH1 0x1 PUSH1 0x1 PUSH1 0xA0 SHL SUB DUP5 DUP2 AND SWAP2 AND EQ ISZERO PUSH2 0xDDB JUMPI PUSH1 0x0 DUP1 REVERT JUMPDEST PUSH1 0xD SLOAD PUSH1 0x1 PUSH1 0x1 PUSH1 0xA0 SHL SUB DUP5 DUP2 AND SWAP2 AND EQ ISZERO PUSH2 0xDF6 JUMPI PUSH1 0x0 DUP1 REVERT JUMPDEST PUSH2 0xE01 DUP5 DUP5 DUP5 PUSH2 0x1AB6 JUMP JUMPDEST SWAP5 SWAP4 POP POP POP POP JUMP JUMPDEST PUSH1 0x6 SLOAD PUSH1 0x1 PUSH1 0x1 PUSH1 0xA0 SHL SUB AND CALLER EQ PUSH2 0xE20 JUMPI PUSH1 0x0 DUP1 REVERT JUMPDEST PUSH2 0xE29 DUP2 PUSH2 0x1C81 JUMP JUMPDEST PUSH2 0xE32 JUMPI PUSH1 0x0 DUP1 REVERT JUMPDEST PUSH1 0xC DUP1 SLOAD PUSH1 0x1 PUSH1 0x1 PUSH1 0xA0 SHL SUB NOT AND PUSH1 0x1 PUSH1 0x1 PUSH1 0xA0 SHL SUB SWAP3 SWAP1 SWAP3 AND SWAP2 SWAP1 SWAP2 OR SWAP1 SSTORE JUMP JUMPDEST PUSH32 0xEA2AA0A1BE11A07ED86D755C93467F4F82362B452371D1BA94D1715123511ACB DUP2 JUMP JUMPDEST PUSH1 0x2 SLOAD PUSH1 0xFF AND DUP2 JUMP JUMPDEST PUSH1 0x7 SLOAD DUP2 JUMP JUMPDEST PUSH1 0x0 PUSH2 0xE93 DUP4 DUP4 PUSH2 0x1990 JUMP JUMPDEST SWAP4 SWAP3 POP POP POP JUMP JUMPDEST PUSH1 0x0 DUP5 PUSH1 0x1 PUSH1 0x1 PUSH1 0xA0 SHL SUB DUP2 AND ISZERO DUP1 ISZERO SWAP1 PUSH2 0xEBE JUMPI POP PUSH1 0x1 PUSH1 0x1 PUSH1 0xA0 SHL SUB DUP2 AND ADDRESS EQ ISZERO JUMPDEST PUSH2 0xEC7 JUMPI PUSH1 0x0 DUP1 REVERT JUMPDEST PUSH2 0xED1 DUP7 DUP7 PUSH2 0x1C87 JUMP JUMPDEST PUSH2 0xEDA JUMPI PUSH1 0x0 DUP1 REVERT JUMPDEST DUP6 PUSH1 0x1 PUSH1 0x1 PUSH1 0xA0 SHL SUB AND CALLER PUSH1 0x1 PUSH1 0x1 PUSH1 0xA0 SHL SUB AND PUSH32 0xE19260AFF97B920C7DF27010903AEB9C8D2BE5D310A2C67824CF3F15396E4C16 DUP8 DUP8 DUP8 PUSH1 0x40 MLOAD DUP1 DUP5 DUP2 MSTORE PUSH1 0x20 ADD DUP1 PUSH1 0x20 ADD DUP3 DUP2 SUB DUP3 MSTORE DUP5 DUP5 DUP3 DUP2 DUP2 MSTORE PUSH1 0x20 ADD SWAP3 POP DUP1 DUP3 DUP5 CALLDATACOPY PUSH1 0x0 DUP4 DUP3 ADD MSTORE PUSH1 0x40 MLOAD PUSH1 0x1F SWAP1 SWAP2 ADD PUSH1 0x1F NOT AND SWAP1 SWAP3 ADD DUP3 SWAP1 SUB SWAP7 POP SWAP1 SWAP5 POP POP POP POP POP LOG3 PUSH2 0xF5F DUP7 PUSH2 0x1C81 JUMP JUMPDEST ISZERO PUSH2 0xFAF JUMPI PUSH2 0xFA6 CALLER DUP8 DUP8 DUP8 DUP8 DUP1 DUP1 PUSH1 0x1F ADD PUSH1 0x20 DUP1 SWAP2 DIV MUL PUSH1 0x20 ADD PUSH1 0x40 MLOAD SWAP1 DUP2 ADD PUSH1 0x40 MSTORE DUP1 SWAP4 SWAP3 SWAP2 SWAP1 DUP2 DUP2 MSTORE PUSH1 0x20 ADD DUP4 DUP4 DUP1 DUP3 DUP5 CALLDATACOPY PUSH1 0x0 SWAP3 ADD SWAP2 SWAP1 SWAP2 MSTORE POP PUSH2 0x1C93 SWAP3 POP POP POP JUMP JUMPDEST PUSH2 0xFAF JUMPI PUSH1 0x0 DUP1 REVERT JUMPDEST POP PUSH1 0x1 SWAP6 SWAP5 POP POP POP POP POP JUMP JUMPDEST PUSH1 0x6 SLOAD PUSH1 0x0 SWAP1 PUSH1 0x1 PUSH1 0x1 PUSH1 0xA0 SHL SUB AND CALLER EQ PUSH2 0xFD5 JUMPI PUSH1 0x0 DUP1 REVERT JUMPDEST PUSH1 0x4 SLOAD PUSH2 0xFE8 SWAP1 DUP4 PUSH4 0xFFFFFFFF PUSH2 0x1E10 AND JUMP JUMPDEST PUSH1 0x4 SSTORE PUSH1 0x1 PUSH1 0x1 PUSH1 0xA0 SHL SUB DUP4 AND PUSH1 0x0 SWAP1 DUP2 MSTORE PUSH1 0x3 PUSH1 0x20 MSTORE PUSH1 0x40 SWAP1 KECCAK256 SLOAD PUSH2 0x1014 SWAP1 DUP4 PUSH4 0xFFFFFFFF PUSH2 0x1E10 AND JUMP JUMPDEST PUSH1 0x1 PUSH1 0x1 PUSH1 0xA0 SHL SUB DUP5 AND PUSH1 0x0 DUP2 DUP2 MSTORE PUSH1 0x3 PUSH1 0x20 SWAP1 DUP2 MSTORE PUSH1 0x40 SWAP2 DUP3 SWAP1 KECCAK256 SWAP4 SWAP1 SWAP4 SSTORE DUP1 MLOAD DUP6 DUP2 MSTORE SWAP1 MLOAD SWAP2 SWAP3 PUSH32 0xF6798A560793A54C3BCFE86A93CDE1E73087D944C0EA20544137D4121396885 SWAP3 SWAP2 DUP3 SWAP1 SUB ADD SWAP1 LOG2 PUSH1 0x40 DUP1 MLOAD DUP4 DUP2 MSTORE SWAP1 MLOAD PUSH1 0x1 PUSH1 0x1 PUSH1 0xA0 SHL SUB DUP6 AND SWAP2 PUSH1 0x0 SWAP2 PUSH1 0x0 DUP1 MLOAD PUSH1 0x20 PUSH2 0x2327 DUP4 CODECOPY DUP2 MLOAD SWAP2 MSTORE SWAP2 DUP2 SWAP1 SUB PUSH1 0x20 ADD SWAP1 LOG3 POP PUSH1 0x1 SWAP3 SWAP2 POP POP JUMP JUMPDEST PUSH2 0x10A8 CALLER DUP3 PUSH2 0x1E1D JUMP JUMPDEST POP JUMP JUMPDEST PUSH1 0xA PUSH1 0x20 MSTORE PUSH1 0x0 SWAP1 DUP2 MSTORE PUSH1 0x40 SWAP1 KECCAK256 SLOAD PUSH1 0x1 PUSH1 0x1 PUSH1 0xA0 SHL SUB AND DUP2 JUMP JUMPDEST PUSH1 0x40 MLOAD DUP1 PUSH1 0x40 ADD PUSH1 0x40 MSTORE DUP1 PUSH1 0x1 DUP2 MSTORE PUSH1 0x20 ADD PUSH1 0x31 PUSH1 0xF8 SHL DUP2 MSTORE POP DUP2 JUMP JUMPDEST PUSH1 0xC SLOAD PUSH1 0x1 PUSH1 0x1 PUSH1 0xA0 SHL SUB AND DUP2 JUMP JUMPDEST CALLER PUSH1 0x0 SWAP1 DUP2 MSTORE PUSH1 0x5 PUSH1 0x20 SWAP1 DUP2 MSTORE PUSH1 0x40 DUP1 DUP4 KECCAK256 PUSH1 0x1 PUSH1 0x1 PUSH1 0xA0 SHL SUB DUP7 AND DUP5 MSTORE SWAP1 SWAP2 MSTORE DUP2 KECCAK256 SLOAD DUP1 DUP4 LT PUSH2 0x1146 JUMPI CALLER PUSH1 0x0 SWAP1 DUP2 MSTORE PUSH1 0x5 PUSH1 0x20 SWAP1 DUP2 MSTORE PUSH1 0x40 DUP1 DUP4 KECCAK256 PUSH1 0x1 PUSH1 0x1 PUSH1 0xA0 SHL SUB DUP9 AND DUP5 MSTORE SWAP1 SWAP2 MSTORE DUP2 KECCAK256 SSTORE PUSH2 0x117B JUMP JUMPDEST PUSH2 0x1156 DUP2 DUP5 PUSH4 0xFFFFFFFF PUSH2 0x1AA4 AND JUMP JUMPDEST CALLER PUSH1 0x0 SWAP1 DUP2 MSTORE PUSH1 0x5 PUSH1 0x20 SWAP1 DUP2 MSTORE PUSH1 0x40 DUP1 DUP4 KECCAK256 PUSH1 0x1 PUSH1 0x1 PUSH1 0xA0 SHL SUB DUP10 AND DUP5 MSTORE SWAP1 SWAP2 MSTORE SWAP1 KECCAK256 SSTORE JUMPDEST CALLER PUSH1 0x0 DUP2 DUP2 MSTORE PUSH1 0x5 PUSH1 0x20 SWAP1 DUP2 MSTORE PUSH1 0x40 DUP1 DUP4 KECCAK256 PUSH1 0x1 PUSH1 0x1 PUSH1 0xA0 SHL SUB DUP10 AND DUP1 DUP6 MSTORE SWAP1 DUP4 MSTORE SWAP3 DUP2 SWAP1 KECCAK256 SLOAD DUP2 MLOAD SWAP1 DUP2 MSTORE SWAP1 MLOAD SWAP3 SWAP4 SWAP3 PUSH1 0x0 DUP1 MLOAD PUSH1 0x20 PUSH2 0x2347 DUP4 CODECOPY DUP2 MLOAD SWAP2 MSTORE SWAP3 SWAP2 DUP2 SWAP1 SUB SWAP1 SWAP2 ADD SWAP1 LOG3 POP PUSH1 0x1 SWAP4 SWAP3 POP POP POP JUMP JUMPDEST PUSH1 0x6 SLOAD PUSH1 0x1 PUSH1 0x1 PUSH1 0xA0 SHL SUB AND CALLER EQ PUSH2 0x11E6 JUMPI PUSH1 0x0 DUP1 REVERT JUMPDEST DUP1 PUSH1 0x1 PUSH1 0x1 PUSH1 0xA0 SHL SUB DUP2 AND PUSH2 0x11FA JUMPI PUSH1 0x0 DUP1 REVERT JUMPDEST PUSH2 0x1204 DUP4 DUP4 PUSH2 0x1F0C JUMP JUMPDEST POP POP POP JUMP JUMPDEST PUSH1 0x1 PUSH1 0x1 PUSH1 0xA0 SHL SUB AND PUSH1 0x0 SWAP1 DUP2 MSTORE PUSH1 0x3 PUSH1 0x20 MSTORE PUSH1 0x40 SWAP1 KECCAK256 SLOAD SWAP1 JUMP JUMPDEST PUSH1 0x0 PUSH1 0x1 PUSH1 0x1 PUSH1 0xA0 SHL SUB DUP3 DUP2 AND EQ DUP1 ISZERO SWAP1 PUSH2 0x1258 JUMPI POP PUSH1 0x1 PUSH1 0x1 PUSH1 0xA0 SHL SUB DUP3 DUP2 AND PUSH1 0x0 SWAP1 DUP2 MSTORE PUSH1 0xA PUSH1 0x20 MSTORE PUSH1 0x40 SWAP1 KECCAK256 SLOAD AND ISZERO ISZERO JUMPDEST SWAP3 SWAP2 POP POP JUMP JUMPDEST PUSH1 0x8 PUSH1 0x20 MSTORE PUSH1 0x0 SWAP1 DUP2 MSTORE PUSH1 0x40 SWAP1 KECCAK256 SLOAD DUP2 JUMP JUMPDEST PUSH1 0x2 DUP1 PUSH1 0x0 SWAP1 SWAP2 SWAP3 JUMP JUMPDEST PUSH1 0x6 SLOAD PUSH1 0x1 PUSH1 0x1 PUSH1 0xA0 SHL SUB AND DUP2 JUMP JUMPDEST PUSH1 0x1 PUSH1 0x1 PUSH1 0xA0 SHL SUB DUP9 AND PUSH2 0x129C JUMPI PUSH1 0x0 DUP1 REVERT JUMPDEST PUSH1 0x1 PUSH1 0x1 PUSH1 0xA0 SHL SUB DUP8 AND PUSH2 0x12AF JUMPI PUSH1 0x0 DUP1 REVERT JUMPDEST DUP5 ISZERO DUP1 PUSH2 0x12C3 JUMPI POP DUP5 PUSH2 0x12C0 PUSH2 0x1F36 JUMP JUMPDEST GT ISZERO JUMPDEST PUSH2 0x12CC JUMPI PUSH1 0x0 DUP1 REVERT JUMPDEST PUSH1 0x7 SLOAD PUSH1 0x40 DUP1 MLOAD PUSH32 0xEA2AA0A1BE11A07ED86D755C93467F4F82362B452371D1BA94D1715123511ACB PUSH1 0x20 DUP1 DUP4 ADD SWAP2 SWAP1 SWAP2 MSTORE PUSH1 0x1 PUSH1 0x1 PUSH1 0xA0 SHL SUB DUP1 DUP14 AND DUP4 DUP6 ADD MSTORE DUP12 AND PUSH1 0x60 DUP4 ADD MSTORE PUSH1 0x80 DUP3 ADD DUP11 SWAP1 MSTORE PUSH1 0xA0 DUP3 ADD DUP10 SWAP1 MSTORE DUP8 ISZERO ISZERO PUSH1 0xC0 DUP1 DUP5 ADD SWAP2 SWAP1 SWAP2 MSTORE DUP4 MLOAD DUP1 DUP5 SUB SWAP1 SWAP2 ADD DUP2 MSTORE PUSH1 0xE0 DUP4 ADD DUP5 MSTORE DUP1 MLOAD SWAP1 DUP3 ADD KECCAK256 PUSH2 0x1901 PUSH1 0xF0 SHL PUSH2 0x100 DUP5 ADD MSTORE PUSH2 0x102 DUP4 ADD SWAP5 SWAP1 SWAP5 MSTORE PUSH2 0x122 DUP1 DUP4 ADD SWAP5 SWAP1 SWAP5 MSTORE DUP3 MLOAD DUP1 DUP4 SUB SWAP1 SWAP5 ADD DUP5 MSTORE PUSH2 0x142 DUP3 ADD DUP1 DUP5 MSTORE DUP5 MLOAD SWAP5 DUP3 ADD SWAP5 SWAP1 SWAP5 KECCAK256 PUSH1 0x0 SWAP1 SWAP5 MSTORE PUSH2 0x162 DUP3 ADD DUP1 DUP5 MSTORE DUP5 SWAP1 MSTORE PUSH1 0xFF DUP8 AND PUSH2 0x182 DUP4 ADD MSTORE PUSH2 0x1A2 DUP3 ADD DUP7 SWAP1 MSTORE PUSH2 0x1C2 DUP3 ADD DUP6 SWAP1 MSTORE SWAP2 MLOAD PUSH1 0x1 SWAP3 PUSH2 0x1E2 DUP1 DUP5 ADD SWAP4 SWAP2 SWAP3 PUSH1 0x1F NOT DUP2 ADD SWAP3 DUP2 SWAP1 SUB SWAP1 SWAP2 ADD SWAP1 DUP6 GAS STATICCALL ISZERO DUP1 ISZERO PUSH2 0x13D6 JUMPI RETURNDATASIZE PUSH1 0x0 DUP1 RETURNDATACOPY RETURNDATASIZE PUSH1 0x0 REVERT JUMPDEST POP POP POP PUSH1 0x20 PUSH1 0x40 MLOAD SUB MLOAD PUSH1 0x1 PUSH1 0x1 PUSH1 0xA0 SHL SUB AND DUP10 PUSH1 0x1 PUSH1 0x1 PUSH1 0xA0 SHL SUB AND EQ PUSH2 0x13FD JUMPI PUSH1 0x0 DUP1 REVERT JUMPDEST PUSH1 0x1 PUSH1 0x1 PUSH1 0xA0 SHL SUB DUP10 AND PUSH1 0x0 SWAP1 DUP2 MSTORE PUSH1 0x8 PUSH1 0x20 MSTORE PUSH1 0x40 SWAP1 KECCAK256 DUP1 SLOAD PUSH1 0x1 DUP2 ADD SWAP1 SWAP2 SSTORE DUP8 EQ PUSH2 0x1429 JUMPI PUSH1 0x0 DUP1 REVERT JUMPDEST PUSH1 0x0 DUP6 PUSH2 0x1437 JUMPI PUSH1 0x0 PUSH2 0x143B JUMP JUMPDEST PUSH1 0x0 NOT JUMPDEST PUSH1 0x1 PUSH1 0x1 PUSH1 0xA0 SHL SUB DUP1 DUP13 AND PUSH1 0x0 SWAP1 DUP2 MSTORE PUSH1 0x5 PUSH1 0x20 SWAP1 DUP2 MSTORE PUSH1 0x40 DUP1 DUP4 KECCAK256 SWAP4 DUP15 AND DUP4 MSTORE SWAP3 SWAP1 MSTORE KECCAK256 DUP2 SWAP1 SSTORE SWAP1 POP DUP6 PUSH2 0x1471 JUMPI PUSH1 0x0 PUSH2 0x1473 JUMP JUMPDEST DUP7 JUMPDEST PUSH1 0x1 PUSH1 0x1 PUSH1 0xA0 SHL SUB DUP1 DUP13 AND PUSH1 0x0 DUP2 DUP2 MSTORE PUSH1 0x9 PUSH1 0x20 SWAP1 DUP2 MSTORE PUSH1 0x40 DUP1 DUP4 KECCAK256 SWAP5 DUP16 AND DUP1 DUP5 MSTORE SWAP5 DUP3 MSTORE SWAP2 DUP3 SWAP1 KECCAK256 SWAP5 SWAP1 SWAP5 SSTORE DUP1 MLOAD DUP6 DUP2 MSTORE SWAP1 MLOAD SWAP3 SWAP4 SWAP2 SWAP3 PUSH1 0x0 DUP1 MLOAD PUSH1 0x20 PUSH2 0x2347 DUP4 CODECOPY DUP2 MLOAD SWAP2 MSTORE SWAP3 SWAP2 DUP2 SWAP1 SUB SWAP1 SWAP2 ADD SWAP1 LOG3 POP POP POP POP POP POP POP POP POP POP JUMP JUMPDEST PUSH1 0xC SLOAD PUSH1 0x1 PUSH1 0x1 PUSH1 0xA0 SHL SUB AND CALLER EQ PUSH2 0x14E7 JUMPI PUSH1 0x0 DUP1 REVERT JUMPDEST DUP1 PUSH2 0x14F1 JUMPI PUSH2 0x10A8 JUMP JUMPDEST PUSH1 0xC SLOAD PUSH1 0x4 SLOAD PUSH1 0x1 PUSH1 0x1 PUSH1 0xA0 SHL SUB SWAP1 SWAP2 AND SWAP1 PUSH2 0x1513 SWAP1 DUP4 PUSH4 0xFFFFFFFF PUSH2 0x1E10 AND JUMP JUMPDEST PUSH1 0x4 SSTORE PUSH1 0x1 PUSH1 0x1 PUSH1 0xA0 SHL SUB DUP2 AND PUSH1 0x0 SWAP1 DUP2 MSTORE PUSH1 0x3 PUSH1 0x20 MSTORE PUSH1 0x40 SWAP1 KECCAK256 SLOAD PUSH2 0x153F SWAP1 DUP4 PUSH4 0xFFFFFFFF PUSH2 0x1E10 AND JUMP JUMPDEST PUSH1 0x1 PUSH1 0x1 PUSH1 0xA0 SHL SUB DUP3 AND PUSH1 0x0 DUP2 DUP2 MSTORE PUSH1 0x3 PUSH1 0x20 SWAP1 DUP2 MSTORE PUSH1 0x40 SWAP2 DUP3 SWAP1 KECCAK256 SWAP4 SWAP1 SWAP4 SSTORE DUP1 MLOAD DUP6 DUP2 MSTORE SWAP1 MLOAD SWAP2 SWAP3 PUSH32 0xF6798A560793A54C3BCFE86A93CDE1E73087D944C0EA20544137D4121396885 SWAP3 SWAP2 DUP3 SWAP1 SUB ADD SWAP1 LOG2 PUSH1 0x40 DUP1 MLOAD DUP4 DUP2 MSTORE SWAP1 MLOAD PUSH1 0x1 PUSH1 0x1 PUSH1 0xA0 SHL SUB DUP4 AND SWAP2 PUSH1 0x0 SWAP2 PUSH1 0x0 DUP1 MLOAD PUSH1 0x20 PUSH2 0x2327 DUP4 CODECOPY DUP2 MLOAD SWAP2 MSTORE SWAP2 DUP2 SWAP1 SUB PUSH1 0x20 ADD SWAP1 LOG3 POP POP JUMP JUMPDEST PUSH1 0x1 DUP1 SLOAD PUSH1 0x40 DUP1 MLOAD PUSH1 0x20 PUSH1 0x2 DUP5 DUP7 AND ISZERO PUSH2 0x100 MUL PUSH1 0x0 NOT ADD SWAP1 SWAP5 AND SWAP4 SWAP1 SWAP4 DIV PUSH1 0x1F DUP2 ADD DUP5 SWAP1 DIV DUP5 MUL DUP3 ADD DUP5 ADD SWAP1 SWAP3 MSTORE DUP2 DUP2 MSTORE SWAP3 SWAP2 DUP4 ADD DUP3 DUP3 DUP1 ISZERO PUSH2 0xD5B JUMPI DUP1 PUSH1 0x1F LT PUSH2 0xD30 JUMPI PUSH2 0x100 DUP1 DUP4 SLOAD DIV MUL DUP4 MSTORE SWAP2 PUSH1 0x20 ADD SWAP2 PUSH2 0xD5B JUMP JUMPDEST PUSH1 0x6 SLOAD PUSH1 0x1 PUSH1 0x1 PUSH1 0xA0 SHL SUB AND CALLER EQ PUSH2 0x1635 JUMPI PUSH1 0x0 DUP1 REVERT JUMPDEST PUSH1 0x32 PUSH1 0xB SLOAD LT PUSH2 0x1644 JUMPI PUSH1 0x0 DUP1 REVERT JUMPDEST PUSH2 0x164D DUP2 PUSH2 0x1C81 JUMP JUMPDEST PUSH2 0x1656 JUMPI PUSH1 0x0 DUP1 REVERT JUMPDEST PUSH2 0x165F DUP2 PUSH2 0x1224 JUMP JUMPDEST ISZERO PUSH2 0x1669 JUMPI PUSH1 0x0 DUP1 REVERT JUMPDEST PUSH1 0x1 PUSH1 0x1 PUSH1 0xA0 SHL SUB PUSH1 0x0 DUP2 SWAP1 MSTORE PUSH1 0xA PUSH1 0x20 MSTORE PUSH1 0x0 DUP1 MLOAD PUSH1 0x20 PUSH2 0x2307 DUP4 CODECOPY DUP2 MLOAD SWAP2 MSTORE SLOAD AND DUP1 PUSH2 0x1696 JUMPI PUSH1 0x0 DUP1 REVERT JUMPDEST PUSH1 0xA PUSH1 0x20 MSTORE PUSH1 0x0 DUP1 MLOAD PUSH1 0x20 PUSH2 0x2307 DUP4 CODECOPY DUP2 MLOAD SWAP2 MSTORE DUP1 SLOAD PUSH1 0x1 PUSH1 0x1 PUSH1 0xA0 SHL SUB NOT SWAP1 DUP2 AND PUSH1 0x1 PUSH1 0x1 PUSH1 0xA0 SHL SUB DUP6 DUP2 AND SWAP2 DUP3 OR SWAP1 SWAP4 SSTORE PUSH1 0x0 SWAP1 DUP2 MSTORE PUSH1 0x40 SWAP1 KECCAK256 DUP1 SLOAD SWAP1 SWAP2 AND SWAP2 DUP4 AND SWAP2 SWAP1 SWAP2 OR SWAP1 SSTORE PUSH1 0xB SLOAD PUSH2 0x16EE SWAP1 PUSH1 0x1 PUSH2 0x1E10 JUMP JUMPDEST PUSH1 0xB SSTORE PUSH1 0x40 MLOAD PUSH1 0x1 PUSH1 0x1 PUSH1 0xA0 SHL SUB DUP4 AND SWAP1 PUSH32 0x3CDA433C5679AE4C6A5DEA50840E222A42CBA3695E4663DE4366BE8993484221 SWAP1 PUSH1 0x0 SWAP1 LOG2 POP POP JUMP JUMPDEST PUSH1 0x60 DUP1 PUSH1 0xB SLOAD PUSH1 0x40 MLOAD SWAP1 DUP1 DUP3 MSTORE DUP1 PUSH1 0x20 MUL PUSH1 0x20 ADD DUP3 ADD PUSH1 0x40 MSTORE DUP1 ISZERO PUSH2 0x1758 JUMPI DUP2 PUSH1 0x20 ADD PUSH1 0x20 DUP3 MUL DUP1 CODESIZE DUP4 CODECOPY ADD SWAP1 POP JUMPDEST POP PUSH1 0x1 PUSH1 0x1 PUSH1 0xA0 SHL SUB PUSH1 0x0 DUP2 DUP2 MSTORE PUSH1 0xA PUSH1 0x20 MSTORE PUSH1 0x0 DUP1 MLOAD PUSH1 0x20 PUSH2 0x2307 DUP4 CODECOPY DUP2 MLOAD SWAP2 MSTORE SLOAD SWAP3 SWAP4 POP SWAP2 AND DUP1 PUSH2 0x178A JUMPI PUSH1 0x0 DUP1 REVERT JUMPDEST PUSH1 0x1 PUSH1 0x1 PUSH1 0xA0 SHL SUB DUP2 DUP2 AND EQ PUSH2 0x17EB JUMPI DUP1 DUP4 DUP4 DUP2 MLOAD DUP2 LT PUSH2 0x17A7 JUMPI INVALID JUMPDEST PUSH1 0x1 PUSH1 0x1 PUSH1 0xA0 SHL SUB SWAP3 DUP4 AND PUSH1 0x20 SWAP2 DUP3 MUL SWAP3 SWAP1 SWAP3 ADD DUP2 ADD SWAP2 SWAP1 SWAP2 MSTORE SWAP2 DUP2 AND PUSH1 0x0 SWAP1 DUP2 MSTORE PUSH1 0xA SWAP1 SWAP3 MSTORE PUSH1 0x40 SWAP1 SWAP2 KECCAK256 SLOAD PUSH1 0x1 SWAP3 SWAP1 SWAP3 ADD SWAP2 AND DUP1 PUSH2 0x17E6 JUMPI PUSH1 0x0 DUP1 REVERT JUMPDEST PUSH2 0x178A JUMP JUMPDEST POP SWAP1 SWAP2 POP POP SWAP1 JUMP JUMPDEST PUSH1 0x6 SLOAD PUSH1 0x1 PUSH1 0x1 PUSH1 0xA0 SHL SUB AND CALLER EQ PUSH2 0x180A JUMPI PUSH1 0x0 DUP1 REVERT JUMPDEST PUSH2 0x1813 DUP2 PUSH2 0x1C81 JUMP JUMPDEST PUSH2 0x181C JUMPI PUSH1 0x0 DUP1 REVERT JUMPDEST PUSH2 0x1825 DUP2 PUSH2 0x1209 JUMP JUMPDEST ISZERO PUSH2 0x182F JUMPI PUSH1 0x0 DUP1 REVERT JUMPDEST PUSH1 0xD DUP1 SLOAD PUSH1 0x1 PUSH1 0x1 PUSH1 0xA0 SHL SUB NOT AND PUSH1 0x1 PUSH1 0x1 PUSH1 0xA0 SHL SUB SWAP3 SWAP1 SWAP3 AND SWAP2 SWAP1 SWAP2 OR SWAP1 SSTORE JUMP JUMPDEST PUSH1 0x0 PUSH2 0xE93 DUP4 DUP4 PUSH2 0x10F2 JUMP JUMPDEST PUSH1 0xC SLOAD PUSH1 0x0 SWAP1 PUSH1 0x1 PUSH1 0x1 PUSH1 0xA0 SHL SUB DUP5 DUP2 AND SWAP2 AND EQ ISZERO PUSH2 0x187B JUMPI PUSH1 0x0 DUP1 REVERT JUMPDEST PUSH1 0xD SLOAD PUSH1 0x1 PUSH1 0x1 PUSH1 0xA0 SHL SUB DUP5 DUP2 AND SWAP2 AND EQ ISZERO PUSH2 0x1896 JUMPI PUSH1 0x0 DUP1 REVERT JUMPDEST PUSH2 0xE93 DUP4 DUP4 PUSH2 0x1F52 JUMP JUMPDEST PUSH1 0xD SLOAD PUSH1 0x1 PUSH1 0x1 PUSH1 0xA0 SHL SUB AND CALLER EQ PUSH2 0x18B7 JUMPI PUSH1 0x0 DUP1 REVERT JUMPDEST PUSH1 0x1 PUSH1 0x1 PUSH1 0xA0 SHL SUB DUP3 AND PUSH1 0x0 SWAP1 DUP2 MSTORE PUSH1 0x3 PUSH1 0x20 MSTORE PUSH1 0x40 SWAP1 KECCAK256 SLOAD PUSH2 0x18E0 SWAP1 DUP3 PUSH4 0xFFFFFFFF PUSH2 0x1AA4 AND JUMP JUMPDEST PUSH1 0x1 PUSH1 0x1 PUSH1 0xA0 SHL SUB DUP1 DUP5 AND PUSH1 0x0 SWAP1 DUP2 MSTORE PUSH1 0x3 PUSH1 0x20 MSTORE PUSH1 0x40 DUP1 DUP3 KECCAK256 SWAP4 SWAP1 SWAP4 SSTORE PUSH1 0xD SLOAD SWAP1 SWAP2 AND DUP2 MSTORE KECCAK256 SLOAD PUSH2 0x1918 SWAP1 DUP3 PUSH4 0xFFFFFFFF PUSH2 0x1E10 AND JUMP JUMPDEST PUSH1 0xD DUP1 SLOAD PUSH1 0x1 PUSH1 0x1 PUSH1 0xA0 SHL SUB SWAP1 DUP2 AND PUSH1 0x0 SWAP1 DUP2 MSTORE PUSH1 0x3 PUSH1 0x20 SWAP1 DUP2 MSTORE PUSH1 0x40 SWAP2 DUP3 SWAP1 KECCAK256 SWAP5 SWAP1 SWAP5 SSTORE SWAP2 SLOAD DUP3 MLOAD DUP6 DUP2 MSTORE SWAP3 MLOAD SWAP1 DUP3 AND SWAP4 SWAP2 DUP7 AND SWAP3 PUSH1 0x0 DUP1 MLOAD PUSH1 0x20 PUSH2 0x2327 DUP4 CODECOPY DUP2 MLOAD SWAP2 MSTORE SWAP3 SWAP1 DUP3 SWAP1 SUB ADD SWAP1 LOG3 POP POP JUMP JUMPDEST PUSH2 0x1204 CALLER DUP4 DUP4 PUSH2 0xDBD JUMP JUMPDEST PUSH2 0x197F DUP4 DUP4 DUP4 PUSH2 0xDBD JUMP JUMPDEST POP POP POP POP JUMP JUMPDEST PUSH1 0x1 PUSH1 0x1 PUSH1 0xA0 SHL SUB DUP2 JUMP JUMPDEST CALLER PUSH1 0x0 SWAP1 DUP2 MSTORE PUSH1 0x5 PUSH1 0x20 SWAP1 DUP2 MSTORE PUSH1 0x40 DUP1 DUP4 KECCAK256 PUSH1 0x1 PUSH1 0x1 PUSH1 0xA0 SHL SUB DUP7 AND DUP5 MSTORE SWAP1 SWAP2 MSTORE DUP2 KECCAK256 SLOAD PUSH2 0x19C4 SWAP1 DUP4 PUSH4 0xFFFFFFFF PUSH2 0x1E10 AND JUMP JUMPDEST CALLER PUSH1 0x0 DUP2 DUP2 MSTORE PUSH1 0x5 PUSH1 0x20 SWAP1 DUP2 MSTORE PUSH1 0x40 DUP1 DUP4 KECCAK256 PUSH1 0x1 PUSH1 0x1 PUSH1 0xA0 SHL SUB DUP10 AND DUP1 DUP6 MSTORE SWAP1 DUP4 MSTORE SWAP3 DUP2 SWAP1 KECCAK256 DUP6 SWAP1 SSTORE DUP1 MLOAD SWAP5 DUP6 MSTORE MLOAD SWAP2 SWAP4 PUSH1 0x0 DUP1 MLOAD PUSH1 0x20 PUSH2 0x2347 DUP4 CODECOPY DUP2 MLOAD SWAP2 MSTORE SWAP3 SWAP1 DUP2 SWAP1 SUB SWAP1 SWAP2 ADD SWAP1 LOG3 POP PUSH1 0x1 SWAP3 SWAP2 POP POP JUMP JUMPDEST PUSH1 0x1 PUSH1 0x1 PUSH1 0xA0 SHL SUB SWAP2 DUP3 AND PUSH1 0x0 SWAP1 DUP2 MSTORE PUSH1 0x5 PUSH1 0x20 SWAP1 DUP2 MSTORE PUSH1 0x40 DUP1 DUP4 KECCAK256 SWAP4 SWAP1 SWAP5 AND DUP3 MSTORE SWAP2 SWAP1 SWAP2 MSTORE KECCAK256 SLOAD SWAP1 JUMP JUMPDEST PUSH1 0xE SSTORE JUMP JUMPDEST PUSH1 0xD SLOAD PUSH1 0x1 PUSH1 0x1 PUSH1 0xA0 SHL SUB AND DUP2 JUMP JUMPDEST PUSH2 0x1204 DUP3 CALLER DUP4 PUSH2 0xDBD JUMP JUMPDEST PUSH1 0x6 SLOAD PUSH1 0x1 PUSH1 0x1 PUSH1 0xA0 SHL SUB AND CALLER EQ PUSH2 0x1A78 JUMPI PUSH1 0x0 DUP1 REVERT JUMPDEST PUSH2 0x10A8 DUP2 PUSH2 0x1F7B JUMP JUMPDEST PUSH1 0xB SLOAD DUP2 JUMP JUMPDEST PUSH1 0x9 PUSH1 0x20 SWAP1 DUP2 MSTORE PUSH1 0x0 SWAP3 DUP4 MSTORE PUSH1 0x40 DUP1 DUP5 KECCAK256 SWAP1 SWAP2 MSTORE SWAP1 DUP3 MSTORE SWAP1 KECCAK256 SLOAD DUP2 JUMP JUMPDEST PUSH1 0x0 DUP3 DUP3 GT ISZERO PUSH2 0x1AB0 JUMPI INVALID JUMPDEST POP SWAP1 SUB SWAP1 JUMP JUMPDEST PUSH1 0x0 PUSH1 0x1 PUSH1 0x1 PUSH1 0xA0 SHL SUB DUP5 AND PUSH2 0x1ACB JUMPI PUSH1 0x0 DUP1 REVERT JUMPDEST PUSH1 0x1 PUSH1 0x1 PUSH1 0xA0 SHL SUB DUP4 AND PUSH2 0x1ADE JUMPI PUSH1 0x0 DUP1 REVERT JUMPDEST PUSH1 0x1 PUSH1 0x1 PUSH1 0xA0 SHL SUB DUP5 AND PUSH1 0x0 SWAP1 DUP2 MSTORE PUSH1 0x3 PUSH1 0x20 MSTORE PUSH1 0x40 SWAP1 KECCAK256 SLOAD PUSH2 0x1B07 SWAP1 DUP4 PUSH4 0xFFFFFFFF PUSH2 0x1AA4 AND JUMP JUMPDEST PUSH1 0x1 PUSH1 0x1 PUSH1 0xA0 SHL SUB DUP1 DUP7 AND PUSH1 0x0 SWAP1 DUP2 MSTORE PUSH1 0x3 PUSH1 0x20 MSTORE PUSH1 0x40 DUP1 DUP3 KECCAK256 SWAP4 SWAP1 SWAP4 SSTORE SWAP1 DUP6 AND DUP2 MSTORE KECCAK256 SLOAD PUSH2 0x1B3C SWAP1 DUP4 PUSH4 0xFFFFFFFF PUSH2 0x1E10 AND JUMP JUMPDEST PUSH1 0x1 PUSH1 0x1 PUSH1 0xA0 SHL SUB DUP1 DUP6 AND PUSH1 0x0 DUP2 DUP2 MSTORE PUSH1 0x3 PUSH1 0x20 SWAP1 DUP2 MSTORE PUSH1 0x40 SWAP2 DUP3 SWAP1 KECCAK256 SWAP5 SWAP1 SWAP5 SSTORE DUP1 MLOAD DUP7 DUP2 MSTORE SWAP1 MLOAD SWAP2 SWAP4 SWAP3 DUP9 AND SWAP3 PUSH1 0x0 DUP1 MLOAD PUSH1 0x20 PUSH2 0x2327 DUP4 CODECOPY DUP2 MLOAD SWAP2 MSTORE SWAP3 SWAP2 DUP3 SWAP1 SUB ADD SWAP1 LOG3 PUSH1 0x1 PUSH1 0x1 PUSH1 0xA0 SHL SUB DUP5 AND CALLER EQ PUSH2 0x1C6C JUMPI PUSH1 0x0 PUSH2 0x1B9D DUP6 CALLER PUSH2 0x1A17 JUMP JUMPDEST SWAP1 POP PUSH1 0x0 NOT DUP2 EQ PUSH2 0x1C07 JUMPI PUSH2 0x1BB8 DUP2 DUP5 PUSH4 0xFFFFFFFF PUSH2 0x1AA4 AND JUMP JUMPDEST PUSH1 0x1 PUSH1 0x1 PUSH1 0xA0 SHL SUB DUP7 AND PUSH1 0x0 DUP2 DUP2 MSTORE PUSH1 0x5 PUSH1 0x20 SWAP1 DUP2 MSTORE PUSH1 0x40 DUP1 DUP4 KECCAK256 CALLER DUP1 DUP6 MSTORE SWAP1 DUP4 MSTORE SWAP3 DUP2 SWAP1 KECCAK256 DUP6 SWAP1 SSTORE DUP1 MLOAD SWAP5 DUP6 MSTORE MLOAD SWAP2 SWAP4 PUSH1 0x0 DUP1 MLOAD PUSH1 0x20 PUSH2 0x2347 DUP4 CODECOPY DUP2 MLOAD SWAP2 MSTORE SWAP3 SWAP1 DUP2 SWAP1 SUB SWAP1 SWAP2 ADD SWAP1 LOG3 PUSH2 0x1C6A JUMP JUMPDEST PUSH1 0x1 PUSH1 0x1 PUSH1 0xA0 SHL SUB DUP6 AND PUSH1 0x0 SWAP1 DUP2 MSTORE PUSH1 0x9 PUSH1 0x20 SWAP1 DUP2 MSTORE PUSH1 0x40 DUP1 DUP4 KECCAK256 CALLER DUP5 MSTORE SWAP1 SWAP2 MSTORE SWAP1 KECCAK256 SLOAD ISZERO DUP1 PUSH2 0x1C61 JUMPI POP PUSH2 0x1C3A PUSH2 0x1F36 JUMP JUMPDEST PUSH1 0x1 PUSH1 0x1 PUSH1 0xA0 SHL SUB DUP7 AND PUSH1 0x0 SWAP1 DUP2 MSTORE PUSH1 0x9 PUSH1 0x20 SWAP1 DUP2 MSTORE PUSH1 0x40 DUP1 DUP4 KECCAK256 CALLER DUP5 MSTORE SWAP1 SWAP2 MSTORE SWAP1 KECCAK256 SLOAD LT ISZERO JUMPDEST PUSH2 0x1C6A JUMPI PUSH1 0x0 DUP1 REVERT JUMPDEST POP JUMPDEST PUSH2 0x1C77 DUP5 DUP5 DUP5 PUSH2 0x1FEA JUMP JUMPDEST POP PUSH1 0x1 SWAP4 SWAP3 POP POP POP JUMP JUMPDEST EXTCODESIZE ISZERO ISZERO SWAP1 JUMP JUMPDEST PUSH1 0x0 PUSH2 0xE93 DUP4 DUP4 PUSH2 0x2081 JUMP JUMPDEST PUSH1 0x0 DUP1 DUP5 PUSH1 0x1 PUSH1 0x1 PUSH1 0xA0 SHL SUB AND PUSH4 0xA4C0ED36 PUSH1 0xE0 SHL DUP8 DUP7 DUP7 PUSH1 0x40 MLOAD PUSH1 0x24 ADD DUP1 DUP5 PUSH1 0x1 PUSH1 0x1 PUSH1 0xA0 SHL SUB AND PUSH1 0x1 PUSH1 0x1 PUSH1 0xA0 SHL SUB AND DUP2 MSTORE PUSH1 0x20 ADD DUP4 DUP2 MSTORE PUSH1 0x20 ADD DUP1 PUSH1 0x20 ADD DUP3 DUP2 SUB DUP3 MSTORE DUP4 DUP2 DUP2 MLOAD DUP2 MSTORE PUSH1 0x20 ADD SWAP2 POP DUP1 MLOAD SWAP1 PUSH1 0x20 ADD SWAP1 DUP1 DUP4 DUP4 PUSH1 0x0 JUMPDEST DUP4 DUP2 LT ISZERO PUSH2 0x1D09 JUMPI DUP2 DUP2 ADD MLOAD DUP4 DUP3 ADD MSTORE PUSH1 0x20 ADD PUSH2 0x1CF1 JUMP JUMPDEST POP POP POP POP SWAP1 POP SWAP1 DUP2 ADD SWAP1 PUSH1 0x1F AND DUP1 ISZERO PUSH2 0x1D36 JUMPI DUP1 DUP3 SUB DUP1 MLOAD PUSH1 0x1 DUP4 PUSH1 0x20 SUB PUSH2 0x100 EXP SUB NOT AND DUP2 MSTORE PUSH1 0x20 ADD SWAP2 POP JUMPDEST POP PUSH1 0x40 DUP1 MLOAD PUSH1 0x1F NOT DUP2 DUP5 SUB ADD DUP2 MSTORE SWAP2 DUP2 MSTORE PUSH1 0x20 DUP3 ADD DUP1 MLOAD PUSH1 0x1 PUSH1 0x1 PUSH1 0xE0 SHL SUB AND PUSH1 0x1 PUSH1 0x1 PUSH1 0xE0 SHL SUB NOT SWAP1 SWAP10 AND SWAP9 SWAP1 SWAP9 OR DUP9 MSTORE MLOAD DUP2 MLOAD SWAP2 SWAP8 SWAP1 SWAP7 POP DUP7 SWAP6 POP SWAP4 POP SWAP2 POP DUP2 SWAP1 POP DUP4 DUP4 JUMPDEST PUSH1 0x20 DUP4 LT PUSH2 0x1D9C JUMPI DUP1 MLOAD DUP3 MSTORE PUSH1 0x1F NOT SWAP1 SWAP3 ADD SWAP2 PUSH1 0x20 SWAP2 DUP3 ADD SWAP2 ADD PUSH2 0x1D7D JUMP JUMPDEST PUSH1 0x1 DUP4 PUSH1 0x20 SUB PUSH2 0x100 EXP SUB DUP1 NOT DUP3 MLOAD AND DUP2 DUP5 MLOAD AND DUP1 DUP3 OR DUP6 MSTORE POP POP POP POP POP POP SWAP1 POP ADD SWAP2 POP POP PUSH1 0x0 PUSH1 0x40 MLOAD DUP1 DUP4 SUB DUP2 PUSH1 0x0 DUP7 GAS CALL SWAP2 POP POP RETURNDATASIZE DUP1 PUSH1 0x0 DUP2 EQ PUSH2 0x1DFE JUMPI PUSH1 0x40 MLOAD SWAP2 POP PUSH1 0x1F NOT PUSH1 0x3F RETURNDATASIZE ADD AND DUP3 ADD PUSH1 0x40 MSTORE RETURNDATASIZE DUP3 MSTORE RETURNDATASIZE PUSH1 0x0 PUSH1 0x20 DUP5 ADD RETURNDATACOPY PUSH2 0x1E03 JUMP JUMPDEST PUSH1 0x60 SWAP2 POP JUMPDEST POP SWAP1 SWAP8 SWAP7 POP POP POP POP POP POP POP JUMP JUMPDEST DUP2 DUP2 ADD DUP3 DUP2 LT ISZERO PUSH2 0x1258 JUMPI INVALID JUMPDEST PUSH1 0x1 PUSH1 0x1 PUSH1 0xA0 SHL SUB DUP3 AND PUSH1 0x0 SWAP1 DUP2 MSTORE PUSH1 0x3 PUSH1 0x20 MSTORE PUSH1 0x40 SWAP1 KECCAK256 SLOAD DUP2 GT ISZERO PUSH2 0x1E42 JUMPI PUSH1 0x0 DUP1 REVERT JUMPDEST PUSH1 0x1 PUSH1 0x1 PUSH1 0xA0 SHL SUB DUP3 AND PUSH1 0x0 SWAP1 DUP2 MSTORE PUSH1 0x3 PUSH1 0x20 MSTORE PUSH1 0x40 SWAP1 KECCAK256 SLOAD PUSH2 0x1E6B SWAP1 DUP3 PUSH4 0xFFFFFFFF PUSH2 0x1AA4 AND JUMP JUMPDEST PUSH1 0x1 PUSH1 0x1 PUSH1 0xA0 SHL SUB DUP4 AND PUSH1 0x0 SWAP1 DUP2 MSTORE PUSH1 0x3 PUSH1 0x20 MSTORE PUSH1 0x40 SWAP1 KECCAK256 SSTORE PUSH1 0x4 SLOAD PUSH2 0x1E97 SWAP1 DUP3 PUSH4 0xFFFFFFFF PUSH2 0x1AA4 AND JUMP JUMPDEST PUSH1 0x4 SSTORE PUSH1 0x40 DUP1 MLOAD DUP3 DUP2 MSTORE SWAP1 MLOAD PUSH1 0x1 PUSH1 0x1 PUSH1 0xA0 SHL SUB DUP5 AND SWAP2 PUSH32 0xCC16F5DBB4873280815C1EE09DBD06736CFFCC184412CF7A71A0FDB75D397CA5 SWAP2 SWAP1 DUP2 SWAP1 SUB PUSH1 0x20 ADD SWAP1 LOG2 PUSH1 0x40 DUP1 MLOAD DUP3 DUP2 MSTORE SWAP1 MLOAD PUSH1 0x0 SWAP2 PUSH1 0x1 PUSH1 0x1 PUSH1 0xA0 SHL SUB DUP6 AND SWAP2 PUSH1 0x0 DUP1 MLOAD PUSH1 0x20 PUSH2 0x2327 DUP4 CODECOPY DUP2 MLOAD SWAP2 MSTORE SWAP2 DUP2 SWAP1 SUB PUSH1 0x20 ADD SWAP1 LOG3 POP POP JUMP JUMPDEST PUSH1 0x1 PUSH1 0x1 PUSH1 0xA0 SHL SUB DUP3 AND PUSH2 0x1F28 JUMPI PUSH2 0x1F23 DUP2 PUSH2 0x214E JUMP JUMPDEST PUSH2 0x1F32 JUMP JUMPDEST PUSH2 0x1F32 DUP3 DUP3 PUSH2 0x21BB JUMP JUMPDEST POP POP JUMP JUMPDEST PUSH1 0x0 PUSH1 0xE SLOAD PUSH1 0x0 EQ ISZERO PUSH2 0x1F49 JUMPI TIMESTAMP PUSH2 0x1F4D JUMP JUMPDEST PUSH1 0xE SLOAD JUMPDEST SWAP1 POP SWAP1 JUMP JUMPDEST PUSH1 0x0 PUSH2 0x1F5E DUP4 DUP4 PUSH2 0x1C87 JUMP JUMPDEST PUSH2 0x1F67 JUMPI PUSH1 0x0 DUP1 REVERT JUMPDEST PUSH2 0x1F72 CALLER DUP5 DUP5 PUSH2 0x1FEA JUMP JUMPDEST POP PUSH1 0x1 SWAP3 SWAP2 POP POP JUMP JUMPDEST PUSH1 0x1 PUSH1 0x1 PUSH1 0xA0 SHL SUB DUP2 AND PUSH2 0x1F8E JUMPI PUSH1 0x0 DUP1 REVERT JUMPDEST PUSH1 0x6 SLOAD PUSH1 0x40 MLOAD PUSH1 0x1 PUSH1 0x1 PUSH1 0xA0 SHL SUB DUP1 DUP5 AND SWAP3 AND SWAP1 PUSH32 0x8BE0079C531659141344CD1FD0A4F28419497F9722A3DAAFE3B4186F6B6457E0 SWAP1 PUSH1 0x0 SWAP1 LOG3 PUSH1 0x6 DUP1 SLOAD PUSH1 0x1 PUSH1 0x1 PUSH1 0xA0 SHL SUB NOT AND PUSH1 0x1 PUSH1 0x1 PUSH1 0xA0 SHL SUB SWAP3 SWAP1 SWAP3 AND SWAP2 SWAP1 SWAP2 OR SWAP1 SSTORE JUMP JUMPDEST PUSH2 0x1FF3 DUP3 PUSH2 0x1C81 JUMP JUMPDEST DUP1 ISZERO PUSH2 0x201A JUMPI POP PUSH1 0x40 DUP1 MLOAD PUSH1 0x0 DUP2 MSTORE PUSH1 0x20 DUP2 ADD SWAP1 SWAP2 MSTORE PUSH2 0x2018 SWAP1 DUP5 SWAP1 DUP5 SWAP1 DUP5 SWAP1 PUSH2 0x1C93 JUMP JUMPDEST ISZERO JUMPDEST ISZERO PUSH2 0x1204 JUMPI PUSH2 0x2028 DUP3 PUSH2 0x1224 JUMP JUMPDEST ISZERO PUSH2 0x2032 JUMPI PUSH1 0x0 DUP1 REVERT JUMPDEST PUSH1 0x40 DUP1 MLOAD PUSH1 0x1 PUSH1 0x1 PUSH1 0xA0 SHL SUB DUP1 DUP7 AND DUP3 MSTORE DUP5 AND PUSH1 0x20 DUP3 ADD MSTORE DUP1 DUP3 ADD DUP4 SWAP1 MSTORE SWAP1 MLOAD PUSH32 0x11249F0FC79FC134A15A10D1DA8291B79515BF987E036CED05B9EC119614070B SWAP2 DUP2 SWAP1 SUB PUSH1 0x60 ADD SWAP1 LOG1 POP POP POP JUMP JUMPDEST CALLER PUSH1 0x0 SWAP1 DUP2 MSTORE PUSH1 0x3 PUSH1 0x20 MSTORE PUSH1 0x40 DUP2 KECCAK256 SLOAD DUP3 GT ISZERO PUSH2 0x209D JUMPI PUSH1 0x0 DUP1 REVERT JUMPDEST PUSH1 0x1 PUSH1 0x1 PUSH1 0xA0 SHL SUB DUP4 AND PUSH2 0x20B0 JUMPI PUSH1 0x0 DUP1 REVERT JUMPDEST CALLER PUSH1 0x0 SWAP1 DUP2 MSTORE PUSH1 0x3 PUSH1 0x20 MSTORE PUSH1 0x40 SWAP1 KECCAK256 SLOAD PUSH2 0x20D0 SWAP1 DUP4 PUSH4 0xFFFFFFFF PUSH2 0x1AA4 AND JUMP JUMPDEST CALLER PUSH1 0x0 SWAP1 DUP2 MSTORE PUSH1 0x3 PUSH1 0x20 MSTORE PUSH1 0x40 DUP1 DUP3 KECCAK256 SWAP3 SWAP1 SWAP3 SSTORE PUSH1 0x1 PUSH1 0x1 PUSH1 0xA0 SHL SUB DUP6 AND DUP2 MSTORE KECCAK256 SLOAD PUSH2 0x2102 SWAP1 DUP4 PUSH4 0xFFFFFFFF PUSH2 0x1E10 AND JUMP JUMPDEST PUSH1 0x1 PUSH1 0x1 PUSH1 0xA0 SHL SUB DUP5 AND PUSH1 0x0 DUP2 DUP2 MSTORE PUSH1 0x3 PUSH1 0x20 SWAP1 DUP2 MSTORE PUSH1 0x40 SWAP2 DUP3 SWAP1 KECCAK256 SWAP4 SWAP1 SWAP4 SSTORE DUP1 MLOAD DUP6 DUP2 MSTORE SWAP1 MLOAD SWAP2 SWAP3 CALLER SWAP3 PUSH1 0x0 DUP1 MLOAD PUSH1 0x20 PUSH2 0x2327 DUP4 CODECOPY DUP2 MLOAD SWAP2 MSTORE SWAP3 DUP2 SWAP1 SUB SWAP1 SWAP2 ADD SWAP1 LOG3 POP PUSH1 0x1 SWAP3 SWAP2 POP POP JUMP JUMPDEST PUSH1 0x40 MLOAD ADDRESS BALANCE SWAP1 PUSH1 0x1 PUSH1 0x1 PUSH1 0xA0 SHL SUB DUP4 AND SWAP1 DUP3 ISZERO PUSH2 0x8FC MUL SWAP1 DUP4 SWAP1 PUSH1 0x0 DUP2 DUP2 DUP2 DUP6 DUP9 DUP9 CALL SWAP4 POP POP POP POP PUSH2 0x1F32 JUMPI DUP1 DUP3 PUSH1 0x40 MLOAD PUSH2 0x2188 SWAP1 PUSH2 0x22C8 JUMP JUMPDEST PUSH1 0x1 PUSH1 0x1 PUSH1 0xA0 SHL SUB SWAP1 SWAP2 AND DUP2 MSTORE PUSH1 0x40 MLOAD SWAP1 DUP2 SWAP1 SUB PUSH1 0x20 ADD SWAP1 DUP3 CREATE DUP1 ISZERO DUP1 ISZERO PUSH2 0x21B4 JUMPI RETURNDATASIZE PUSH1 0x0 DUP1 RETURNDATACOPY RETURNDATASIZE PUSH1 0x0 REVERT JUMPDEST POP POP POP POP POP JUMP JUMPDEST PUSH1 0x40 DUP1 MLOAD PUSH4 0x70A08231 PUSH1 0xE0 SHL DUP2 MSTORE ADDRESS PUSH1 0x4 DUP3 ADD MSTORE SWAP1 MLOAD DUP4 SWAP2 PUSH1 0x0 SWAP2 PUSH1 0x1 PUSH1 0x1 PUSH1 0xA0 SHL SUB DUP5 AND SWAP2 PUSH4 0x70A08231 SWAP2 PUSH1 0x24 DUP1 DUP4 ADD SWAP3 PUSH1 0x20 SWAP3 SWAP2 SWAP1 DUP3 SWAP1 SUB ADD DUP2 DUP7 DUP1 EXTCODESIZE ISZERO DUP1 ISZERO PUSH2 0x2206 JUMPI PUSH1 0x0 DUP1 REVERT JUMPDEST POP GAS STATICCALL ISZERO DUP1 ISZERO PUSH2 0x221A JUMPI RETURNDATASIZE PUSH1 0x0 DUP1 RETURNDATACOPY RETURNDATASIZE PUSH1 0x0 REVERT JUMPDEST POP POP POP POP PUSH1 0x40 MLOAD RETURNDATASIZE PUSH1 0x20 DUP2 LT ISZERO PUSH2 0x2230 JUMPI PUSH1 0x0 DUP1 REVERT JUMPDEST POP MLOAD SWAP1 POP PUSH2 0x197F DUP5 DUP5 DUP4 PUSH1 0x40 DUP1 MLOAD PUSH1 0x1 PUSH1 0x1 PUSH1 0xA0 SHL SUB DUP5 AND PUSH1 0x24 DUP3 ADD MSTORE PUSH1 0x44 DUP1 DUP3 ADD DUP5 SWAP1 MSTORE DUP3 MLOAD DUP1 DUP4 SUB SWAP1 SWAP2 ADD DUP2 MSTORE PUSH1 0x64 SWAP1 SWAP2 ADD SWAP1 SWAP2 MSTORE PUSH1 0x20 DUP2 DUP2 ADD DUP1 MLOAD PUSH1 0x1 PUSH1 0x1 PUSH1 0xE0 SHL SUB AND PUSH4 0xA9059CBB PUSH1 0xE0 SHL OR DUP2 MSTORE DUP3 MLOAD PUSH1 0x60 SWAP4 PUSH1 0x0 SWAP4 SWAP1 SWAP3 SWAP1 SWAP2 DUP5 SWAP2 DUP3 DUP11 GAS CALL PUSH1 0x0 MLOAD SWAP4 POP DUP4 SWAP3 POP DUP1 DUP1 ISZERO PUSH2 0x22A8 JUMPI PUSH2 0x22AD JUMP JUMPDEST PUSH1 0x0 DUP1 REVERT JUMPDEST POP POP DUP3 MLOAD ISZERO PUSH2 0x22C0 JUMPI DUP2 PUSH2 0x22C0 JUMPI PUSH1 0x0 DUP1 REVERT JUMPDEST POP POP POP POP POP POP JUMP JUMPDEST PUSH1 0x32 DUP1 PUSH2 0x22D5 DUP4 CODECOPY ADD SWAP1 JUMP INVALID PUSH1 0x80 PUSH1 0x40 MSTORE PUSH1 0x40 MLOAD PUSH1 0x32 CODESIZE SUB DUP1 PUSH1 0x32 DUP4 CODECOPY DUP2 DUP2 ADD PUSH1 0x40 MSTORE PUSH1 0x20 DUP2 LT ISZERO PUSH1 0x23 JUMPI PUSH1 0x0 DUP1 REVERT JUMPDEST POP MLOAD PUSH1 0x1 PUSH1 0x1 PUSH1 0xA0 SHL SUB DUP2 AND SELFDESTRUCT INVALID PUSH7 0x5A824D6C9637C9 SSTORE 0xc2 PUSH20 0x84F6BFD3713755A7EC6096F2295495C04388A9A8 RETURNDATACOPY 0xdd CALLCODE MSTORE 0xad SHL 0xe2 0xc8 SWAP12 PUSH10 0xC2B068FC378DAA952BA7 CALL PUSH4 0xC4A11628 CREATE2 GAS 0x4d CREATE2 0x23 0xb3 0xef DUP13 JUMPDEST 0xe1 0xe5 0xeb 0xec PUSH30 0x5BD14F71427D1E84F3DD0314C0F7B2291E5B200AC8C7C3B925A265627A7A PUSH19 0x3058203A52A9557DACCD415B4B091E5360F8A9 0xc2 0xe0 0xd1 LOG1 SSTORE RETURN 0xe1 DUP5 RETURNDATACOPY 0xc9 0xbe PUSH17 0xD603F85564736F6C634300050A00324549 POP CALLDATACOPY BALANCE ORIGIN DIFFICULTY PUSH16 0x6D61696E28737472696E67206E616D65 0x2c PUSH20 0x7472696E672076657273696F6E2C75696E743235 CALLDATASIZE KECCAK256 PUSH4 0x6861696E 0x49 PUSH5 0x2C61646472 PUSH6 0x737320766572 PUSH10 0x6679696E67436F6E7472 PUSH2 0x6374 0x29 "
        },
        "methodIdentifiers": {
          "DOMAIN_SEPARATOR()": "3644e515",
          "F_ADDR()": "c794c769",
          "PERMIT_TYPEHASH()": "30adf81f",
          "addBridge(address)": "9712fdf8",
          "allowance(address,address)": "dd62ed3e",
          "approve(address,uint256)": "095ea7b3",
          "balanceOf(address)": "70a08231",
          "blockRewardContract()": "56b54bae",
          "bridgeCount()": "fbb2a53f",
          "bridgeList()": "9da38e2f",
          "bridgePointers(address)": "4bcb88bc",
          "burn(uint256)": "42966c68",
          "claimTokens(address,address)": "69ffa08a",
          "decimals()": "313ce567",
          "decreaseAllowance(address,uint256)": "a457c2d7",
          "decreaseApproval(address,uint256)": "66188463",
          "expirations(address,address)": "ff9e884d",
          "getTokenInterfacesVersion()": "859ba28c",
          "increaseAllowance(address,uint256)": "39509351",
          "increaseApproval(address,uint256)": "d73dd623",
          "isBridge(address)": "726600ce",
          "mint(address,uint256)": "40c10f19",
          "mintReward(uint256)": "91c0aabf",
          "move(address,address,uint256)": "bb35783b",
          "name()": "06fdde03",
          "nonces(address)": "7ecebe00",
          "owner()": "8da5cb5b",
          "permit(address,address,uint256,uint256,bool,uint8,bytes32,bytes32)": "8fcbaf0c",
          "pull(address,uint256)": "f2d5d56b",
          "push(address,uint256)": "b753a98c",
          "removeBridge(address)": "04df017d",
          "setBlockRewardContract(address)": "27a3e16b",
          "setNow(uint256)": "e380ae96",
          "setStakingContract(address)": "9dd373b9",
          "stake(address,uint256)": "adc9772e",
          "stakingContract()": "ee99205c",
          "symbol()": "95d89b41",
          "totalSupply()": "18160ddd",
          "transfer(address,uint256)": "a9059cbb",
          "transferAndCall(address,uint256,bytes)": "4000aea0",
          "transferFrom(address,address,uint256)": "23b872dd",
          "transferOwnership(address)": "f2fde38b",
          "version()": "54fd4d50"
        }
      }
    }
  }
}