{
  "_format": "hh-sol-artifact-1",
  "contractName": "RandomAuRa",
  "sourceName": "posdao-contracts/contracts/RandomAuRa.sol",
  "abi": [
    {
      "constant": true,
      "inputs": [
        {
          "name": "_collectRound",
          "type": "uint256"
        },
        {
          "name": "_miningAddress",
          "type": "address"
        }
      ],
      "name": "getCipher",
      "outputs": [
        {
          "name": "",
          "type": "bytes"
        }
      ],
      "payable": false,
      "stateMutability": "view",
      "type": "function"
    },
    {
      "constant": false,
      "inputs": [
        {
          "name": "_poolId",
          "type": "uint256"
        }
      ],
      "name": "clearCommit",
      "outputs": [],
      "payable": false,
      "stateMutability": "nonpayable",
      "type": "function"
    },
    {
      "constant": false,
      "inputs": [
        {
          "name": "_numberHash",
          "type": "bytes32"
        },
        {
          "name": "_cipher",
          "type": "bytes"
        }
      ],
      "name": "commitHash",
      "outputs": [],
      "payable": false,
      "stateMutability": "nonpayable",
      "type": "function"
    },
    {
      "constant": false,
      "inputs": [],
      "name": "onFinishCollectRound",
      "outputs": [],
      "payable": false,
      "stateMutability": "nonpayable",
      "type": "function"
    },
    {
      "constant": true,
      "inputs": [],
      "name": "collectRoundLength",
      "outputs": [
        {
          "name": "",
          "type": "uint256"
        }
      ],
      "payable": false,
      "stateMutability": "view",
      "type": "function"
    },
    {
      "constant": false,
      "inputs": [
        {
          "name": "_collectRoundLength",
          "type": "uint256"
        },
        {
          "name": "_validatorSet",
          "type": "address"
        },
        {
          "name": "_punishForUnreveal",
          "type": "bool"
        }
      ],
      "name": "initialize",
      "outputs": [],
      "payable": false,
      "stateMutability": "nonpayable",
      "type": "function"
    },
    {
      "constant": true,
      "inputs": [],
      "name": "isInitialized",
      "outputs": [
        {
          "name": "",
          "type": "bool"
        }
      ],
      "payable": false,
      "stateMutability": "view",
      "type": "function"
    },
    {
      "constant": true,
      "inputs": [],
      "name": "punishForUnreveal",
      "outputs": [
        {
          "name": "",
          "type": "bool"
        }
      ],
      "payable": false,
      "stateMutability": "view",
      "type": "function"
    },
    {
      "constant": true,
      "inputs": [],
      "name": "commitPhaseLength",
      "outputs": [
        {
          "name": "",
          "type": "uint256"
        }
      ],
      "payable": false,
      "stateMutability": "view",
      "type": "function"
    },
    {
      "constant": true,
      "inputs": [
        {
          "name": "_stakingEpoch",
          "type": "uint256"
        },
        {
          "name": "_miningAddress",
          "type": "address"
        }
      ],
      "name": "revealSkips",
      "outputs": [
        {
          "name": "",
          "type": "uint256"
        }
      ],
      "payable": false,
      "stateMutability": "view",
      "type": "function"
    },
    {
      "constant": true,
      "inputs": [
        {
          "name": "_collectRound",
          "type": "uint256"
        },
        {
          "name": "_miningAddress",
          "type": "address"
        }
      ],
      "name": "sentReveal",
      "outputs": [
        {
          "name": "",
          "type": "bool"
        }
      ],
      "payable": false,
      "stateMutability": "view",
      "type": "function"
    },
    {
      "constant": true,
      "inputs": [
        {
          "name": "_collectRound",
          "type": "uint256"
        },
        {
          "name": "_miningAddress",
          "type": "address"
        }
      ],
      "name": "getCommitAndCipher",
      "outputs": [
        {
          "name": "",
          "type": "bytes32"
        },
        {
          "name": "",
          "type": "bytes"
        }
      ],
      "payable": false,
      "stateMutability": "view",
      "type": "function"
    },
    {
      "constant": true,
      "inputs": [],
      "name": "isCommitPhase",
      "outputs": [
        {
          "name": "",
          "type": "bool"
        }
      ],
      "payable": false,
      "stateMutability": "view",
      "type": "function"
    },
    {
      "constant": true,
      "inputs": [],
      "name": "nextCommitPhaseStartBlock",
      "outputs": [
        {
          "name": "",
          "type": "uint256"
        }
      ],
      "payable": false,
      "stateMutability": "view",
      "type": "function"
    },
    {
      "constant": true,
      "inputs": [],
      "name": "currentCollectRound",
      "outputs": [
        {
          "name": "",
          "type": "uint256"
        }
      ],
      "payable": false,
      "stateMutability": "view",
      "type": "function"
    },
    {
      "constant": true,
      "inputs": [],
      "name": "nextCollectRoundStartBlock",
      "outputs": [
        {
          "name": "",
          "type": "uint256"
        }
      ],
      "payable": false,
      "stateMutability": "view",
      "type": "function"
    },
    {
      "constant": true,
      "inputs": [],
      "name": "currentSeed",
      "outputs": [
        {
          "name": "",
          "type": "uint256"
        }
      ],
      "payable": false,
      "stateMutability": "view",
      "type": "function"
    },
    {
      "constant": false,
      "inputs": [
        {
          "name": "_number",
          "type": "uint256"
        }
      ],
      "name": "revealSecret",
      "outputs": [],
      "payable": false,
      "stateMutability": "nonpayable",
      "type": "function"
    },
    {
      "constant": true,
      "inputs": [
        {
          "name": "_miningAddress",
          "type": "address"
        },
        {
          "name": "_number",
          "type": "uint256"
        }
      ],
      "name": "revealSecretCallable",
      "outputs": [
        {
          "name": "",
          "type": "bool"
        }
      ],
      "payable": false,
      "stateMutability": "view",
      "type": "function"
    },
    {
      "constant": true,
      "inputs": [
        {
          "name": "_collectRound",
          "type": "uint256"
        },
        {
          "name": "_miningAddress",
          "type": "address"
        }
      ],
      "name": "isCommitted",
      "outputs": [
        {
          "name": "",
          "type": "bool"
        }
      ],
      "payable": false,
      "stateMutability": "view",
      "type": "function"
    },
    {
      "constant": true,
      "inputs": [],
      "name": "isRevealPhase",
      "outputs": [
        {
          "name": "",
          "type": "bool"
        }
      ],
      "payable": false,
      "stateMutability": "view",
      "type": "function"
    },
    {
      "constant": true,
      "inputs": [],
      "name": "nextRevealPhaseStartBlock",
      "outputs": [
        {
          "name": "",
          "type": "uint256"
        }
      ],
      "payable": false,
      "stateMutability": "view",
      "type": "function"
    },
    {
      "constant": false,
      "inputs": [
        {
          "name": "_punishForUnreveal",
          "type": "bool"
        }
      ],
      "name": "setPunishForUnreveal",
      "outputs": [],
      "payable": false,
      "stateMutability": "nonpayable",
      "type": "function"
    },
    {
      "constant": true,
      "inputs": [
        {
          "name": "_miningAddress",
          "type": "address"
        },
        {
          "name": "_numberHash",
          "type": "bytes32"
        }
      ],
      "name": "commitHashCallable",
      "outputs": [
        {
          "name": "",
          "type": "bool"
        }
      ],
      "payable": false,
      "stateMutability": "view",
      "type": "function"
    },
    {
      "constant": true,
      "inputs": [],
      "name": "validatorSetContract",
      "outputs": [
        {
          "name": "",
          "type": "address"
        }
      ],
      "payable": false,
      "stateMutability": "view",
      "type": "function"
    },
    {
      "constant": true,
      "inputs": [
        {
          "name": "_collectRound",
          "type": "uint256"
        },
        {
          "name": "_miningAddress",
          "type": "address"
        }
      ],
      "name": "getCommit",
      "outputs": [
        {
          "name": "",
          "type": "bytes32"
        }
      ],
      "payable": false,
      "stateMutability": "view",
      "type": "function"
    },
    {
      "constant": true,
      "inputs": [],
      "name": "currentCollectRoundStartBlock",
      "outputs": [
        {
          "name": "",
          "type": "uint256"
        }
      ],
      "payable": false,
      "stateMutability": "view",
      "type": "function"
    },
    {
      "constant": true,
      "inputs": [
        {
          "name": "_miningAddress",
          "type": "address"
        },
        {
          "name": "_number",
          "type": "uint256"
        }
      ],
      "name": "revealNumberCallable",
      "outputs": [
        {
          "name": "",
          "type": "bool"
        }
      ],
      "payable": false,
      "stateMutability": "view",
      "type": "function"
    },
    {
      "constant": false,
      "inputs": [
        {
          "name": "_number",
          "type": "uint256"
        }
      ],
      "name": "revealNumber",
      "outputs": [],
      "payable": false,
      "stateMutability": "nonpayable",
      "type": "function"
    }
  ],
  "bytecode": "0x608060405234801561001057600080fd5b50611ddd806100206000396000f3fe608060405234801561001057600080fd5b50600436106101cf5760003560e01c80637a3e286b11610104578063c64c2064116100a2578063f2f56ffe11610071578063f2f56ffe146105ac578063f58ccc6a146105d8578063fd6c1d15146104d5578063fe7d567d146104b8576101cf565b8063c64c206414610535578063cc93dab41461053d578063de109e201461055c578063dfc8bf4e14610588576101cf565b806398df67c6116100de57806398df67c6146104b8578063b6b295ae146104d5578063baf11cab14610501578063c358ced01461052d576101cf565b80637a3e286b146104a057806383209c3f146104a857806383220626146104b0576101cf565b80633afa443c1161017157806363f160e61161014b57806363f160e6146103b9578063695e89f6146103e557806374ce90671461049057806378ab865d14610498576101cf565b80633afa443c1461037d57806343e7aa1d146103855780635aca47f61461038d576101cf565b8063109c1107116101ad578063109c11071461030b5780631c77c58c1461031357806328804dbd1461032d578063392e53cd14610361576101cf565b8063096a113d146101d45780630b402823146102755780630b61ba8514610294575b600080fd5b610200600480360360408110156101ea57600080fd5b50803590602001356001600160a01b03166105e0565b6040805160208082528351818301528351919283929083019185019080838360005b8381101561023a578181015183820152602001610222565b50505050905090810190601f1680156102675780820380516001836020036101000a031916815260200191505b509250505060405180910390f35b6102926004803603602081101561028b57600080fd5b5035610706565b005b610292600480360360408110156102aa57600080fd5b813591908101906040810160208201356401000000008111156102cc57600080fd5b8201836020820111156102de57600080fd5b8035906020019184600183028401116401000000008311171561030057600080fd5b509092509050610785565b6102926108bb565b61031b6110aa565b60408051918252519081900360200190f35b6102926004803603606081101561034357600080fd5b508035906001600160a01b03602082013516906040013515156110b0565b6103696112cb565b604080519115158252519081900360200190f35b6103696112dd565b61031b6112e6565b61031b600480360360408110156103a357600080fd5b50803590602001356001600160a01b03166112fa565b610369600480360360408110156103cf57600080fd5b50803590602001356001600160a01b0316611397565b610411600480360360408110156103fb57600080fd5b50803590602001356001600160a01b0316611437565b6040518083815260200180602001828103825283818151815260200191508051906020019080838360005b8381101561045457818101518382015260200161043c565b50505050905090810190601f1680156104815780820380516001836020036101000a031916815260200191505b50935050505060405180910390f35b61036961157b565b61031b6115a1565b61031b6115b0565b61031b6115c7565b61031b6115f5565b610292600480360360208110156104ce57600080fd5b50356115fb565b610369600480360360408110156104eb57600080fd5b506001600160a01b038135169060200135611618565b6103696004803603604081101561051757600080fd5b50803590602001356001600160a01b031661162b565b61036961178b565b61031b61179b565b6102926004803603602081101561055357600080fd5b503515156117d2565b6103696004803603604081101561057257600080fd5b506001600160a01b03813516906020013561180a565b6105906118d9565b604080516001600160a01b039092168252519081900360200190f35b61031b600480360360408110156105c257600080fd5b50803590602001356001600160a01b03166118e8565b61031b611985565b600854604080516315ddbdb960e11b81526001600160a01b03848116600483015291516060936000931691632bbb7b72916024808301926020929190829003018186803b15801561063057600080fd5b505afa158015610644573d6000803e3d6000fd5b505050506040513d602081101561065a57600080fd5b50516000858152602081815260408083208484528252918290208054835160026001831615610100026000190190921691909104601f810184900484028201840190945283815293945091908301828280156106f75780601f106106cc576101008083540402835291602001916106f7565b820191906000526020600020905b8154815290600101906020018083116106da57829003601f168201915b50505050509150505b92915050565b6008546001600160a01b0316331461071d57600080fd5b60006107276115b0565b600081815260076020908152604080832086845290915290205490915060ff166107815760008181526001602090815260408083208584528252808320839055838352828252808320858452909152812061078191611ca3565b5050565b61078d6112cb565b61079657600080fd5b336107a1818561180a565b6107aa57600080fd5b806001600160a01b03166107bc61199b565b6001600160a01b0316146107cf57600080fd5b60006107d96115b0565b600854604080516315ddbdb960e11b81526001600160a01b03868116600483015291519394506000939190921691632bbb7b72916024808301926020929190829003018186803b15801561082c57600080fd5b505afa158015610840573d6000803e3d6000fd5b505050506040513d602081101561085657600080fd5b5051600083815260016020908152604080832084845282528083208a90558583528282528083208484529091529020909150610893908686611ce7565b5060009182526002602090815260408320805460018101825590845292209091015550505050565b600860009054906101000a90046001600160a01b03166001600160a01b03166356b54bae6040518163ffffffff1660e01b815260040160206040518083038186803b15801561090957600080fd5b505afa15801561091d573d6000803e3d6000fd5b505050506040513d602081101561093357600080fd5b50516001600160a01b0316331461094957600080fd5b60035461095461199f565b8161095b57fe5b0615610966576110a8565b60606000806000600860009054906101000a90046001600160a01b03166001600160a01b031663ee99205c6040518163ffffffff1660e01b815260040160206040518083038186803b1580156109bb57600080fd5b505afa1580156109cf573d6000803e3d6000fd5b505050506040513d60208110156109e557600080fd5b505160408051630f29818d60e31b815290519192506000916001600160a01b0384169163794c0c68916004808301926020929190829003018186803b158015610a2d57600080fd5b505afa158015610a41573d6000803e3d6000fd5b505050506040513d6020811015610a5757600080fd5b505160408051633834f3a360e11b815290519192506000916001600160a01b03851691637069e746916004808301926020929190829003018186803b158015610a9f57600080fd5b505afa158015610ab3573d6000803e3d6000fd5b505050506040513d6020811015610ac957600080fd5b50516040805163461121d760e11b815290519192506000916001600160a01b03861691638c2243ae916004808301926020929190829003018186803b158015610b1157600080fd5b505afa158015610b25573d6000803e3d6000fd5b505050506040513d6020811015610b3b57600080fd5b505190506000610b496115b0565b90506003546003028301610b5b61199f565b1115610d1757600860009054906101000a90046001600160a01b03166001600160a01b031663b7ab4db56040518163ffffffff1660e01b815260040160006040518083038186803b158015610baf57600080fd5b505afa158015610bc3573d6000803e3d6000fd5b505050506040513d6000823e601f3d908101601f191682016040526020811015610bec57600080fd5b810190808051640100000000811115610c0457600080fd5b82016020810184811115610c1757600080fd5b8151856020820283011164010000000082111715610c3457600080fd5b50909b5060009950505050505b8751861015610d1757878681518110610c5657fe5b60200260200101519650610c6a8188611397565b610d0c57600854604080516315ddbdb960e11b81526001600160a01b038a8116600483015291516000939290921691632bbb7b7291602480820192602092909190829003018186803b158015610cbf57600080fd5b505afa158015610cd3573d6000803e3d6000fd5b505050506040513d6020811015610ce957600080fd5b505160008681526006602090815260408083209383529290522080546001019055505b600190950194610c41565b60055460ff168015610d43575081610d2d61199f565b1480610d43575081600354610d4061199f565b01115b15611096576000600354866001600160a01b03166397997ebb6040518163ffffffff1660e01b815260040160206040518083038186803b158015610d8657600080fd5b505afa158015610d9a573d6000803e3d6000fd5b505050506040513d6020811015610db057600080fd5b505181610db957fe5b0490506001811115610dce5760011901610dd9565b8015610dd957600019015b600860009054906101000a90046001600160a01b03166001600160a01b031663b7ab4db56040518163ffffffff1660e01b815260040160006040518083038186803b158015610e2757600080fd5b505afa158015610e3b573d6000803e3d6000fd5b505050506040513d6000823e601f3d908101601f191682016040526020811015610e6457600080fd5b810190808051640100000000811115610e7c57600080fd5b82016020810184811115610e8f57600080fd5b8151856020820283011164010000000082111715610eac57600080fd5b5050929190505050985060608951604051908082528060200260200182016040528015610ee3578160200160208202803883390190505b50600098509050875b8a51891015610f6d578a8981518110610f0157fe5b60200260200101519950610f15848b611397565b1580610f29575082610f27888c6112fa565b115b15610f625789828280600101935081518110610f4157fe5b60200260200101906001600160a01b031690816001600160a01b0316815250505b600190980197610eec565b801561109257606081604051908082528060200260200182016040528015610f9f578160200160208202803883390190505b509050600099505b818a1015610ff257828a81518110610fbb57fe5b6020026020010151818b81518110610fcf57fe5b6001600160a01b0390921660209283029190910190910152600190990198610fa7565b60085460405163018daf6b60e21b81526020600482018181528451602484015284516001600160a01b0390941693630636bdac9386938392604490920191818601910280838360005b8381101561105357818101518382015260200161103b565b5050505090500192505050600060405180830381600087803b15801561107857600080fd5b505af115801561108c573d6000803e3d6000fd5b50505050505b5050505b61109f816119a3565b50505050505050505b565b60035481565b6110b861199f565b15806110dc57506110c7611a5a565b6001600160a01b0316336001600160a01b0316145b6110e557600080fd5b6110ed6112cb565b156110f757600080fd5b81600284061561110657600080fd5b806001600160a01b031663714897df6040518163ffffffff1660e01b815260040160206040518083038186803b15801561113f57600080fd5b505afa158015611153573d6000803e3d6000fd5b505050506040513d602081101561116957600080fd5b5051848161117357fe5b061561117e57600080fd5b83816001600160a01b031663ee99205c6040518163ffffffff1660e01b815260040160206040518083038186803b1580156111b857600080fd5b505afa1580156111cc573d6000803e3d6000fd5b505050506040513d60208110156111e257600080fd5b50516040805163d609ea9360e01b815290516001600160a01b039092169163d609ea9391600480820192602092909190829003018186803b15801561122657600080fd5b505afa15801561123a573d6000803e3d6000fd5b505050506040513d602081101561125057600080fd5b50518161125957fe5b061561126457600080fd5b6000841161127157600080fd5b6003541561127e57600080fd5b6001600160a01b03831661129157600080fd5b50600392909255600880546001600160a01b0319166001600160a01b03929092169190911790556005805460ff1916911515919091179055565b6008546001600160a01b031615155b90565b60055460ff1681565b60006002600354816112f457fe5b04905090565b600854604080516315ddbdb960e11b81526001600160a01b038481166004830152915160009384931691632bbb7b72916024808301926020929190829003018186803b15801561134957600080fd5b505afa15801561135d573d6000803e3d6000fd5b505050506040513d602081101561137357600080fd5b50516000858152600660209081526040808320938352929052205491505092915050565b600854604080516315ddbdb960e11b81526001600160a01b038481166004830152915160009384931691632bbb7b72916024808301926020929190829003018186803b1580156113e657600080fd5b505afa1580156113fa573d6000803e3d6000fd5b505050506040513d602081101561141057600080fd5b50516000858152600760209081526040808320938352929052205460ff1691505092915050565b600854604080516315ddbdb960e11b81526001600160a01b03848116600483015291516000936060938593911691632bbb7b7291602480820192602092909190829003018186803b15801561148b57600080fd5b505afa15801561149f573d6000803e3d6000fd5b505050506040513d60208110156114b557600080fd5b505160008681526001602081815260408084208585528252808420548a855284835281852086865283529381902080548251600295821615610100026000190190911694909404601f810184900484028501840190925281845294955092939283918301828280156115685780601f1061153d57610100808354040283529160200191611568565b820191906000526020600020905b81548152906001019060200180831161154b57829003601f168201915b5050505050905092509250509250929050565b60006115856112e6565b600354600161159261199f565b038161159a57fe5b0610905090565b60006115ab6115c7565b905090565b600060035460016115bf61199f565b03816112f457fe5b6000806115d261199f565b9050600060035460018303816115e457fe5b066003540390508082019250505090565b60045481565b6116036112cb565b61160c57600080fd5b61161581611a7f565b50565b60006116248383611b8b565b9392505050565b600854604080516315ddbdb960e11b81526001600160a01b038481166004830152915160009384931691632bbb7b72916024808301926020929190829003018186803b15801561167a57600080fd5b505afa15801561168e573d6000803e3d6000fd5b505050506040513d60208110156116a457600080fd5b5051905080158015906116ba57506116ba61157b565b1561174357600854604080516324b49dad60e21b815281516000936001600160a01b0316926392d276b49260048082019391829003018186803b15801561170057600080fd5b505afa158015611714573d6000803e3d6000fd5b505050506040513d604081101561172a57600080fd5b505190508181141561174157600192505050610700565b505b60008481526001602090815260408083208484529091529020541515806117835750600084815260076020908152604080832084845290915290205460ff165b949350505050565b600061179561157b565b15905090565b60006117a561157b565b156117c2576117b26112e6565b6117ba611985565b0190506112da565b6117ca6112e6565b6117ba6115c7565b6117da611a5a565b6001600160a01b0316336001600160a01b0316146117f757600080fd5b6005805460ff1916911515919091179055565b600061181461157b565b61182057506000610700565b8161182d57506000610700565b6008546040805163facd743b60e01b81526001600160a01b0386811660048301529151919092169163facd743b916024808301926020929190829003018186803b15801561187a57600080fd5b505afa15801561188e573d6000803e3d6000fd5b505050506040513d60208110156118a457600080fd5b50516118b257506000610700565b6118c36118bd6115b0565b8461162b565b156118d057506000610700565b50600192915050565b6008546001600160a01b031681565b600854604080516315ddbdb960e11b81526001600160a01b038481166004830152915160009384931691632bbb7b72916024808301926020929190829003018186803b15801561193757600080fd5b505afa15801561194b573d6000803e3d6000fd5b505050506040513d602081101561196157600080fd5b50516000858152600160209081526040808320938352929052205491505092915050565b60006003546119926115b0565b02600101905090565b4190565b4390565b806119ad57611615565b60001981016000818152600260205260408120805490915b81811015611a465760008382815481106119db57fe5b60009182526020808320909101548783528282526040808420828552909252908220909250611a0991611ca3565b6000858152600160208181526040808420858552825280842084905588845260078252808420948452939052919020805460ff19169055016119c5565b506000611a538382611d65565b5050505050565b7fb53127684a568b3173ae13b9f8a6016e243e63b6e8ee1178d6a717850b5d61035490565b33611a8a8183611618565b611a9357600080fd5b806001600160a01b0316611aa561199b565b6001600160a01b031614611ab857600080fd5b600854604080516315ddbdb960e11b81526001600160a01b03848116600483015291516000939290921691632bbb7b7291602480820192602092909190829003018186803b158015611b0957600080fd5b505afa158015611b1d573d6000803e3d6000fd5b505050506040513d6020811015611b3357600080fd5b5051600480548518905590506000611b496115b0565b60008181526007602090815260408083208684528252808320805460ff1916600190811790915593835292815282822094825293909352822091909155505050565b6000611b9561178b565b611ba157506000610700565b604080516020808201859052825180830382018152918301909252805191012080611bd0576000915050610700565b6008546040805163facd743b60e01b81526001600160a01b0387811660048301529151919092169163facd743b916024808301926020929190829003018186803b158015611c1d57600080fd5b505afa158015611c31573d6000803e3d6000fd5b505050506040513d6020811015611c4757600080fd5b5051611c57576000915050610700565b6000611c616115b0565b9050611c6d8186611397565b15611c7d57600092505050610700565b611c8781866118e8565b8214611c9857600092505050610700565b506001949350505050565b50805460018160011615610100020316600290046000825580601f10611cc95750611615565b601f0160209004906000526020600020908101906116159190611d8e565b828054600181600116156101000203166002900490600052602060002090601f016020900481019282601f10611d285782800160ff19823516178555611d55565b82800160010185558215611d55579182015b82811115611d55578235825591602001919060010190611d3a565b50611d61929150611d8e565b5090565b815481835581811115611d8957600083815260209020611d89918101908301611d8e565b505050565b6112da91905b80821115611d615760008155600101611d9456fea265627a7a723058201f7707efbaa04a598e66e3f3094e3528c9fef2fc1222bb9b25280ea34dce9cbb64736f6c634300050a0032",
  "linkReferences": {},
  "deployedLinkReferences": {}
}