{
  "_format": "hh-sol-artifact-1",
  "contractName": "TxPermissionV3",
  "sourceName": "posdao-contracts/contracts/base/TxPermissionV3.sol",
  "abi": [
    {
      "constant": false,
      "inputs": [
        {
          "name": "_sender",
          "type": "address"
        },
        {
          "name": "_minGasPrice",
          "type": "uint256"
        }
      ],
      "name": "setSenderMinGasPrice",
      "outputs": [],
      "payable": false,
      "stateMutability": "nonpayable",
      "type": "function"
    },
    {
      "constant": true,
      "inputs": [],
      "name": "certifierContract",
      "outputs": [
        {
          "name": "",
          "type": "address"
        }
      ],
      "payable": false,
      "stateMutability": "view",
      "type": "function"
    },
    {
      "constant": true,
      "inputs": [],
      "name": "BLOCK_GAS_LIMIT_REDUCED",
      "outputs": [
        {
          "name": "",
          "type": "uint256"
        }
      ],
      "payable": false,
      "stateMutability": "view",
      "type": "function"
    },
    {
      "constant": true,
      "inputs": [],
      "name": "allowedSenders",
      "outputs": [
        {
          "name": "",
          "type": "address[]"
        }
      ],
      "payable": false,
      "stateMutability": "view",
      "type": "function"
    },
    {
      "constant": true,
      "inputs": [],
      "name": "isInitialized",
      "outputs": [
        {
          "name": "",
          "type": "bool"
        }
      ],
      "payable": false,
      "stateMutability": "view",
      "type": "function"
    },
    {
      "constant": true,
      "inputs": [],
      "name": "contractNameHash",
      "outputs": [
        {
          "name": "",
          "type": "bytes32"
        }
      ],
      "payable": false,
      "stateMutability": "pure",
      "type": "function"
    },
    {
      "constant": false,
      "inputs": [
        {
          "name": "_sender",
          "type": "address"
        }
      ],
      "name": "removeAllowedSender",
      "outputs": [],
      "payable": false,
      "stateMutability": "nonpayable",
      "type": "function"
    },
    {
      "constant": true,
      "inputs": [],
      "name": "contractName",
      "outputs": [
        {
          "name": "",
          "type": "string"
        }
      ],
      "payable": false,
      "stateMutability": "pure",
      "type": "function"
    },
    {
      "constant": true,
      "inputs": [],
      "name": "blockGasLimit",
      "outputs": [
        {
          "name": "",
          "type": "uint256"
        }
      ],
      "payable": false,
      "stateMutability": "view",
      "type": "function"
    },
    {
      "constant": false,
      "inputs": [
        {
          "name": "_allowed",
          "type": "address[]"
        },
        {
          "name": "_certifier",
          "type": "address"
        },
        {
          "name": "_validatorSet",
          "type": "address"
        }
      ],
      "name": "initialize",
      "outputs": [],
      "payable": false,
      "stateMutability": "nonpayable",
      "type": "function"
    },
    {
      "constant": true,
      "inputs": [
        {
          "name": "",
          "type": "address"
        }
      ],
      "name": "senderMinGasPrice",
      "outputs": [
        {
          "name": "",
          "type": "uint256"
        }
      ],
      "payable": false,
      "stateMutability": "view",
      "type": "function"
    },
    {
      "constant": true,
      "inputs": [
        {
          "name": "_deployer",
          "type": "address"
        }
      ],
      "name": "deployerInputLengthLimit",
      "outputs": [
        {
          "name": "",
          "type": "uint256"
        }
      ],
      "payable": false,
      "stateMutability": "view",
      "type": "function"
    },
    {
      "constant": true,
      "inputs": [],
      "name": "contractVersion",
      "outputs": [
        {
          "name": "",
          "type": "uint256"
        }
      ],
      "payable": false,
      "stateMutability": "pure",
      "type": "function"
    },
    {
      "constant": true,
      "inputs": [
        {
          "name": "_sender",
          "type": "address"
        },
        {
          "name": "_to",
          "type": "address"
        },
        {
          "name": "_value",
          "type": "uint256"
        },
        {
          "name": "_gasPrice",
          "type": "uint256"
        },
        {
          "name": "_data",
          "type": "bytes"
        }
      ],
      "name": "allowedTxTypes",
      "outputs": [
        {
          "name": "typesMask",
          "type": "uint32"
        },
        {
          "name": "cache",
          "type": "bool"
        }
      ],
      "payable": false,
      "stateMutability": "view",
      "type": "function"
    },
    {
      "constant": false,
      "inputs": [
        {
          "name": "_deployer",
          "type": "address"
        },
        {
          "name": "_limit",
          "type": "uint256"
        }
      ],
      "name": "setDeployerInputLengthLimit",
      "outputs": [],
      "payable": false,
      "stateMutability": "nonpayable",
      "type": "function"
    },
    {
      "constant": false,
      "inputs": [
        {
          "name": "_sender",
          "type": "address"
        }
      ],
      "name": "addAllowedSender",
      "outputs": [],
      "payable": false,
      "stateMutability": "nonpayable",
      "type": "function"
    },
    {
      "constant": true,
      "inputs": [],
      "name": "BLOCK_GAS_LIMIT",
      "outputs": [
        {
          "name": "",
          "type": "uint256"
        }
      ],
      "payable": false,
      "stateMutability": "view",
      "type": "function"
    },
    {
      "constant": true,
      "inputs": [],
      "name": "validatorSetContract",
      "outputs": [
        {
          "name": "",
          "type": "address"
        }
      ],
      "payable": false,
      "stateMutability": "view",
      "type": "function"
    },
    {
      "constant": true,
      "inputs": [
        {
          "name": "",
          "type": "address"
        }
      ],
      "name": "isSenderAllowed",
      "outputs": [
        {
          "name": "",
          "type": "bool"
        }
      ],
      "payable": false,
      "stateMutability": "view",
      "type": "function"
    },
    {
      "anonymous": false,
      "inputs": [
        {
          "indexed": true,
          "name": "deployer",
          "type": "address"
        },
        {
          "indexed": false,
          "name": "limit",
          "type": "uint256"
        }
      ],
      "name": "DeployerInputLengthLimitSet",
      "type": "event"
    },
    {
      "anonymous": false,
      "inputs": [
        {
          "indexed": true,
          "name": "sender",
          "type": "address"
        },
        {
          "indexed": false,
          "name": "minGasPrice",
          "type": "uint256"
        }
      ],
      "name": "SenderMinGasPriceSet",
      "type": "event"
    }
  ],
  "bytecode": "0x608060405234801561001057600080fd5b5061139e806100206000396000f3fe608060405234801561001057600080fd5b50600436106101215760003560e01c806390482d72116100ad578063baddbfa011610071578063baddbfa014610479578063c746c8f4146104a5578063d9eb2d5e146104cb578063dfc8bf4e146104d3578063efc78401146104db57610121565b806390482d72146102b957806394a1fd781461033a5780639d7912aa14610360578063a0a8e46014610386578063b9056afa1461038e57610121565b8063392e53cd116100f4578063392e53cd146101ea578063469ab1e314610206578063471eab5c1461020e57806375d0c0dc146102345780637877a797146102b157610121565b80630651cd86146101265780631a9ebeaa146101545780631b9f67a1146101785780633272b28c14610192575b600080fd5b6101526004803603604081101561013c57600080fd5b506001600160a01b038135169060200135610501565b005b61015c61058b565b604080516001600160a01b039092168252519081900360200190f35b61018061059a565b60408051918252519081900360200190f35b61019a6105a1565b60408051602080825283518183015283519192839290830191858101910280838360005b838110156101d65781810151838201526020016101be565b505050509050019250505060405180910390f35b6101f2610604565b604080519115158252519081900360200190f35b610180610615565b6101526004803603602081101561022457600080fd5b50356001600160a01b0316610691565b61023c6107c5565b6040805160208082528351818301528351919283929083019185019080838360005b8381101561027657818101518382015260200161025e565b50505050905090810190601f1680156102a35780820380516001836020036101000a031916815260200191505b509250505060405180910390f35b6101806107f5565b610152600480360360608110156102cf57600080fd5b8101906020810181356401000000008111156102ea57600080fd5b8201836020820111156102fc57600080fd5b8035906020019184602083028401116401000000008311171561031e57600080fd5b91935091506001600160a01b0381358116916020013516610914565b6101806004803603602081101561035057600080fd5b50356001600160a01b03166109e2565b6101806004803603602081101561037657600080fd5b50356001600160a01b03166109f4565b610180610a26565b610459600480360360a08110156103a457600080fd5b6001600160a01b03823581169260208101359091169160408201359160608101359181019060a0810160808201356401000000008111156103e457600080fd5b8201836020820111156103f657600080fd5b8035906020019184600183028401116401000000008311171561041857600080fd5b91908080601f016020809104026020016040519081016040528093929190818152602001838380828437600092019190915250929550610a2b945050505050565b6040805163ffffffff909316835290151560208301528051918290030190f35b6101526004803603604081101561048f57600080fd5b506001600160a01b038135169060200135610a4c565b610152600480360360208110156104bb57600080fd5b50356001600160a01b0316610ad6565b610180610b18565b61015c610b1f565b6101f2600480360360208110156104f157600080fd5b50356001600160a01b0316610b2e565b610509610b43565b6001600160a01b0316336001600160a01b03161461052657600080fd5b61052e610604565b61053757600080fd5b6001600160a01b038216600081815260056020908152604091829020849055815184815291517fc8eecc08ae9cffd51fce8871ab6f4c6c8c112f8753fad097a055d51433661a7d9281900390910190a25050565b6001546001600160a01b031681565b623d090081565b606060008054806020026020016040519081016040528092919081815260200182805480156105f957602002820191906000526020600020905b81546001600160a01b031681526001909101906020018083116105db575b505050505090505b90565b6003546001600160a01b0316151590565b600061061f6107c5565b6040516020018082805190602001908083835b602083106106515780518252601f199092019160209182019101610632565b6001836020036101000a03801982511681845116808217855250505050505090500191505060405160208183030381529060405280519060200120905090565b610699610b43565b6001600160a01b0316336001600160a01b0316146106b657600080fd5b6106be610604565b6106c757600080fd5b6001600160a01b03811660009081526002602052604090205460ff166106ec57600080fd5b60008054905b818110156107a2576000818154811061070757fe5b6000918252602090912001546001600160a01b038481169116141561079a576000600183038154811061073657fe5b600091825260208220015481546001600160a01b0390911691908390811061075a57fe5b6000918252602082200180546001600160a01b0319166001600160a01b039390931692909217909155805490610794906000198301611322565b506107a2565b6001016106f2565b50506001600160a01b03166000908152600260205260409020805460ff19169055565b604080518082019091526016815275151617d41154935254d4d253d397d0d3d395149050d560521b602082015290565b600080600360009054906101000a90046001600160a01b03166001600160a01b031663ee99205c6040518163ffffffff1660e01b815260040160206040518083038186803b15801561084657600080fd5b505afa15801561085a573d6000803e3d6000fd5b505050506040513d602081101561087057600080fd5b50516040805163461121d760e11b815290519192506000916001600160a01b03841691638c2243ae916004808301926020929190829003018186803b1580156108b857600080fd5b505afa1580156108cc573d6000803e3d6000fd5b505050506040513d60208110156108e257600080fd5b5051905043600019820114806108f757508043145b1561090957623d090092505050610601565b62bebc209250505090565b4315806109395750610924610b43565b6001600160a01b0316336001600160a01b0316145b61094257600080fd5b61094a610604565b1561095457600080fd5b6001600160a01b03821661096757600080fd5b6001600160a01b03811661097a57600080fd5b60005b838110156109b1576109a985858381811061099457fe5b905060200201356001600160a01b0316610b68565b60010161097d565b50600180546001600160a01b039384166001600160a01b031991821617909155600380549290931691161790555050565b60056020526000908152604090205481565b6001600160a01b0381166000908152600460205260408120548015610a1a579050610a21565b6178009150505b919050565b600390565b600080610a3e8787878788600089610c06565b915091509550959350505050565b610a54610b43565b6001600160a01b0316336001600160a01b031614610a7157600080fd5b610a79610604565b610a8257600080fd5b6001600160a01b038216600081815260046020908152604091829020849055815184815291517f89afe3f32b77b643649ede79272f126acd78aa80feeabe1b8c103d0b2f2848969281900390910190a25050565b610ade610b43565b6001600160a01b0316336001600160a01b031614610afb57600080fd5b610b03610604565b610b0c57600080fd5b610b1581610b68565b50565b62bebc2081565b6003546001600160a01b031681565b60026020526000908152604090205460ff1681565b7fb53127684a568b3173ae13b9f8a6016e243e63b6e8ee1178d6a717850b5d61035490565b6001600160a01b03811660009081526002602052604090205460ff1615610b8e57600080fd5b6001600160a01b038116610ba157600080fd5b60008054600181810183557f290decd9548b62a8d60345a988386fc84ba6bc95484008f6362f93160ef3e56390910180546001600160a01b039094166001600160a01b031990941684179055918152600260205260409020805460ff19169091179055565b6001600160a01b038716600090815260026020526040812054819060ff1615610c38575063ffffffff90506000611316565b6001600160a01b038816158015610c575750610c53896109f4565b8351115b15610c6757506000905080611316565b6004838101516003546040805163ccf69e9b60e01b8152905160e09390931b936001600160a01b039092169263ccf69e9b92828101926020929190829003018186803b158015610cb657600080fd5b505afa158015610cca573d6000803e3d6000fd5b505050506040513d6020811015610ce057600080fd5b50516001600160a01b038a811691161415610e5e576001600160e01b03198116630b61ba8560e01b148015610d16575060248451115b15610db957602484810151604080516306f084f160e51b81526001600160a01b038e81166004830152938101839052905191928c169163de109e2091604480820192602092909190829003018186803b158015610d7257600080fd5b505afa158015610d86573d6000803e3d6000fd5b505050506040513d6020811015610d9c57600080fd5b5051610da9576000610dac565b60025b6000935093505050611316565b6001600160e01b0319811663fe7d567d60e01b1480610de857506001600160e01b03198116634c6fb3e360e11b145b8015610df5575083516024145b15610e51576024848101516040805163fd6c1d1560e01b81526001600160a01b038e81166004830152938101839052905191928c169163fd6c1d1591604480820192602092909190829003018186803b158015610d7257600080fd5b6000809250925050611316565b6003546001600160a01b038a8116911614156110bd576001600160e01b031981166349da712f60e11b1415610f2157600360009054906101000a90046001600160a01b03166001600160a01b0316633d3b54586040518163ffffffff1660e01b815260040160206040518083038186803b158015610edb57600080fd5b505afa158015610eef573d6000803e3d6000fd5b505050506040513d6020811015610f0557600080fd5b5051610f12576000610f15565b60025b60009250925050611316565b6001600160e01b03198116630311db7560e61b148015610f4357506044845110155b156110335760008060248601519150604486015190506000600360009054906101000a90046001600160a01b03166001600160a01b031663a670eb568e85856040518463ffffffff1660e01b815260040180846001600160a01b03166001600160a01b03168152602001836001600160a01b03166001600160a01b031681526020018281526020019350505050604080518083038186803b158015610fe757600080fd5b505afa158015610ffb573d6000803e3d6000fd5b505050506040513d604081101561101157600080fd5b5051905080611021576000611024565b60025b60009550955050505050611316565b86156110bd576003546040805163facd743b60e01b81526001600160a01b038d811660048301529151919092169163facd743b916024808301926020929190829003018186803b15801561108657600080fd5b505afa15801561109a573d6000803e3d6000fd5b505050506040513d60208110156110b057600080fd5b5051610e51576002610f15565b6003546040805163facd743b60e01b81526001600160a01b038d811660048301529151919092169163facd743b916024808301926020929190829003018186803b15801561110a57600080fd5b505afa15801561111e573d6000803e3d6000fd5b505050506040513d602081101561113457600080fd5b505180156111425750600087115b15611195576001600160e01b0319811663a9059cbb60e01b141561116e57600260009250925050611316565b60008a6001600160a01b03163111611187576000610f15565b600160009250925050611316565b6003546040805163facd743b60e01b81526001600160a01b038c811660048301529151919092169163facd743b916024808301926020929190829003018186803b1580156111e257600080fd5b505afa1580156111f6573d6000803e3d6000fd5b505050506040513d602081101561120c57600080fd5b505115611220576000809250925050611316565b866112ba57600154604080516303a388eb60e61b81526001600160a01b038d811660048301529151919092169163e8e23ac0916024808301926020929190829003018186803b15801561127257600080fd5b505afa158015611286573d6000803e3d6000fd5b505050506040513d602081101561129c57600080fd5b50516112a9576000610f15565b63ffffffff60009250925050611316565b6001600160a01b038a166000908152600560205260409020548710806112f757506001600160a01b038a1660009081526005602052604090205486105b15611309576000809250925050611316565b63ffffffff600092509250505b97509795505050505050565b8154818355818111156113465760008381526020902061134691810190830161134b565b505050565b61060191905b808211156113655760008155600101611351565b509056fea265627a7a723058204458706b990931d75e4ac4685d31d08279ea4bf4559623886a8306d3d5368fe164736f6c634300050a0032",
  "linkReferences": {},
  "deployedLinkReferences": {}
}