{
  "_format": "hh-sol-artifact-1",
  "contractName": "AdminUpgradeabilityProxy",
  "sourceName": "posdao-contracts/contracts/upgradeability/AdminUpgradeabilityProxy.sol",
  "abi": [
    {
      "constant": false,
      "inputs": [
        {
          "name": "newImplementation",
          "type": "address"
        }
      ],
      "name": "upgradeTo",
      "outputs": [],
      "payable": false,
      "stateMutability": "nonpayable",
      "type": "function"
    },
    {
      "constant": false,
      "inputs": [
        {
          "name": "newImplementation",
          "type": "address"
        },
        {
          "name": "data",
          "type": "bytes"
        }
      ],
      "name": "upgradeToAndCall",
      "outputs": [],
      "payable": true,
      "stateMutability": "payable",
      "type": "function"
    },
    {
      "constant": true,
      "inputs": [],
      "name": "implementation",
      "outputs": [
        {
          "name": "",
          "type": "address"
        }
      ],
      "payable": false,
      "stateMutability": "view",
      "type": "function"
    },
    {
      "constant": false,
      "inputs": [
        {
          "name": "newAdmin",
          "type": "address"
        }
      ],
      "name": "changeAdmin",
      "outputs": [],
      "payable": false,
      "stateMutability": "nonpayable",
      "type": "function"
    },
    {
      "constant": true,
      "inputs": [],
      "name": "admin",
      "outputs": [
        {
          "name": "",
          "type": "address"
        }
      ],
      "payable": false,
      "stateMutability": "view",
      "type": "function"
    },
    {
      "inputs": [
        {
          "name": "_logic",
          "type": "address"
        },
        {
          "name": "_admin",
          "type": "address"
        }
      ],
      "payable": true,
      "stateMutability": "payable",
      "type": "constructor"
    },
    {
      "payable": true,
      "stateMutability": "payable",
      "type": "fallback"
    },
    {
      "anonymous": false,
      "inputs": [
        {
          "indexed": false,
          "name": "previousAdmin",
          "type": "address"
        },
        {
          "indexed": false,
          "name": "newAdmin",
          "type": "address"
        }
      ],
      "name": "AdminChanged",
      "type": "event"
    },
    {
      "anonymous": false,
      "inputs": [
        {
          "indexed": true,
          "name": "implementation",
          "type": "address"
        }
      ],
      "name": "Upgraded",
      "type": "event"
    }
  ],
  "bytecode": "0x60806040526040516108053803806108058339818101604052604081101561002657600080fd5b50805160209182015160408051600081529384018082527f656970313936372e70726f78792e696d706c656d656e746174696f6e00000000905251603c81850301902091929091839190600019016000805160206107aa8339815191521461008a57fe5b61009c826001600160e01b036101bd16565b805115610154576000826001600160a01b0316826040518082805190602001908083835b602083106100df5780518252601f1990920191602091820191016100c0565b6001836020036101000a038019825116818451168082178552505050505050905001915050600060405180830381855af49150503d806000811461013f576040519150601f19603f3d011682016040523d82523d6000602084013e610144565b606091505b505090508061015257600080fd5b505b5050604080517f656970313936372e70726f78792e61646d696e000000000000000000000000008152905190819003601301902060008051602061078a833981519152600019909101146101a457fe5b6101b6816001600160e01b0361023716565b505061024f565b6101d08161024960201b6104801760201c565b610225576040517f08c379a000000000000000000000000000000000000000000000000000000000815260040180806020018281038252603b8152602001806107ca603b913960400191505060405180910390fd5b6000805160206107aa83398151915255565b60008051602061078a83398151915255565b3b151590565b61052c8061025e6000396000f3fe60806040526004361061004a5760003560e01c80633659cfe6146100545780634f1ef286146100875780635c60da1b146101075780638f28397014610138578063f851a4401461016b575b610052610180565b005b34801561006057600080fd5b506100526004803603602081101561007757600080fd5b50356001600160a01b031661019a565b6100526004803603604081101561009d57600080fd5b6001600160a01b0382351691908101906040810160208201356401000000008111156100c857600080fd5b8201836020820111156100da57600080fd5b803590602001918460018302840111640100000000831117156100fc57600080fd5b5090925090506101cb565b34801561011357600080fd5b5061011c61026f565b604080516001600160a01b039092168252519081900360200190f35b34801561014457600080fd5b506100526004803603602081101561015b57600080fd5b50356001600160a01b031661027e565b34801561017757600080fd5b5061011c61033c565b610188610198565b610198610193610346565b61036b565b565b6101a261038f565b6001600160a01b0316336001600160a01b0316146101bf57600080fd5b6101c8816103b4565b50565b6101d361038f565b6001600160a01b0316336001600160a01b0316146101f057600080fd5b6101f9836103b4565b6000836001600160a01b031683836040518083838082843760405192019450600093509091505080830381855af49150503d8060008114610256576040519150601f19603f3d011682016040523d82523d6000602084013e61025b565b606091505b505090508061026957600080fd5b50505050565b6000610279610346565b905090565b61028661038f565b6001600160a01b0316336001600160a01b0316146102a357600080fd5b6001600160a01b0381166102e85760405162461bcd60e51b81526004018080602001828103825260368152602001806104876036913960400191505060405180910390fd5b7f7e644d79422f17c01e4894b5f4f588d331ebfa28653d42ae832dc59e38c9798f61031161038f565b604080516001600160a01b03928316815291841660208301528051918290030190a16101c8816103f4565b600061027961038f565b7f360894a13ba1a3210667c828492db98dca3e2076cc3735a920a3ca505d382bbc5490565b3660008037600080366000845af43d6000803e80801561038a573d6000f35b3d6000fd5b7fb53127684a568b3173ae13b9f8a6016e243e63b6e8ee1178d6a717850b5d61035490565b6103bd81610418565b6040516001600160a01b038216907fbc7cd75a20ee27fd9adebab32041f755214dbc6bffa90cc0225b39da2e5c2d3b90600090a250565b7fb53127684a568b3173ae13b9f8a6016e243e63b6e8ee1178d6a717850b5d610355565b61042181610480565b61045c5760405162461bcd60e51b815260040180806020018281038252603b8152602001806104bd603b913960400191505060405180910390fd5b7f360894a13ba1a3210667c828492db98dca3e2076cc3735a920a3ca505d382bbc55565b3b15159056fe43616e6e6f74206368616e6765207468652061646d696e206f6620612070726f787920746f20746865207a65726f206164647265737343616e6e6f742073657420612070726f787920696d706c656d656e746174696f6e20746f2061206e6f6e2d636f6e74726163742061646472657373a265627a7a72305820c60387f44c6ac80905678c1514902035cbd7740a62cdc78f3e5e0223ff9ebff364736f6c634300050a0032b53127684a568b3173ae13b9f8a6016e243e63b6e8ee1178d6a717850b5d6103360894a13ba1a3210667c828492db98dca3e2076cc3735a920a3ca505d382bbc43616e6e6f742073657420612070726f787920696d706c656d656e746174696f6e20746f2061206e6f6e2d636f6e74726163742061646472657373",
  "linkReferences": {},
  "deployedLinkReferences": {}
}