{
  "_format": "hh-sol-artifact-1",
  "contractName": "BurnableToken",
  "sourceName": "posdao-contracts/contracts/ERC677BridgeTokenRewardable.sol",
  "abi": [
    {
      "constant": true,
      "inputs": [],
      "name": "totalSupply",
      "outputs": [
        {
          "name": "",
          "type": "uint256"
        }
      ],
      "payable": false,
      "stateMutability": "view",
      "type": "function"
    },
    {
      "constant": false,
      "inputs": [
        {
          "name": "_value",
          "type": "uint256"
        }
      ],
      "name": "burn",
      "outputs": [],
      "payable": false,
      "stateMutability": "nonpayable",
      "type": "function"
    },
    {
      "constant": true,
      "inputs": [
        {
          "name": "_owner",
          "type": "address"
        }
      ],
      "name": "balanceOf",
      "outputs": [
        {
          "name": "",
          "type": "uint256"
        }
      ],
      "payable": false,
      "stateMutability": "view",
      "type": "function"
    },
    {
      "constant": false,
      "inputs": [
        {
          "name": "_to",
          "type": "address"
        },
        {
          "name": "_value",
          "type": "uint256"
        }
      ],
      "name": "transfer",
      "outputs": [
        {
          "name": "",
          "type": "bool"
        }
      ],
      "payable": false,
      "stateMutability": "nonpayable",
      "type": "function"
    },
    {
      "anonymous": false,
      "inputs": [
        {
          "indexed": true,
          "name": "burner",
          "type": "address"
        },
        {
          "indexed": false,
          "name": "value",
          "type": "uint256"
        }
      ],
      "name": "Burn",
      "type": "event"
    },
    {
      "anonymous": false,
      "inputs": [
        {
          "indexed": true,
          "name": "from",
          "type": "address"
        },
        {
          "indexed": true,
          "name": "to",
          "type": "address"
        },
        {
          "indexed": false,
          "name": "value",
          "type": "uint256"
        }
      ],
      "name": "Transfer",
      "type": "event"
    }
  ],
  "bytecode": "0x608060405234801561001057600080fd5b50610356806100206000396000f3fe608060405234801561001057600080fd5b506004361061004c5760003560e01c806318160ddd1461005157806342966c681461006b57806370a082311461008a578063a9059cbb146100b0575b600080fd5b6100596100f0565b60408051918252519081900360200190f35b6100886004803603602081101561008157600080fd5b50356100f6565b005b610059600480360360208110156100a057600080fd5b50356001600160a01b0316610103565b6100dc600480360360408110156100c657600080fd5b506001600160a01b03813516906020013561011e565b604080519115158252519081900360200190f35b60015490565b61010033826101fb565b50565b6001600160a01b031660009081526020819052604090205490565b3360009081526020819052604081205482111561013a57600080fd5b6001600160a01b03831661014d57600080fd5b3360009081526020819052604090205461016d908363ffffffff6102fc16565b33600090815260208190526040808220929092556001600160a01b0385168152205461019f908363ffffffff61030e16565b6001600160a01b038416600081815260208181526040918290209390935580518581529051919233927fddf252ad1be2c89b69c2b068fc378daa952ba7f163c4a11628f55a4df523b3ef9281900390910190a350600192915050565b6001600160a01b03821660009081526020819052604090205481111561022057600080fd5b6001600160a01b038216600090815260208190526040902054610249908263ffffffff6102fc16565b6001600160a01b038316600090815260208190526040902055600154610275908263ffffffff6102fc16565b6001556040805182815290516001600160a01b038416917fcc16f5dbb4873280815c1ee09dbd06736cffcc184412cf7a71a0fdb75d397ca5919081900360200190a26040805182815290516000916001600160a01b038516917fddf252ad1be2c89b69c2b068fc378daa952ba7f163c4a11628f55a4df523b3ef9181900360200190a35050565b60008282111561030857fe5b50900390565b8181018281101561031b57fe5b9291505056fea265627a7a72305820945878cd84838dbf62c0b779d4141e72a6f44924fbad4213cabd4acb821c3efc64736f6c634300050a0032",
  "linkReferences": {},
  "deployedLinkReferences": {}
}