{
  "_format": "hh-sol-artifact-1",
  "contractName": "ERC677MultiBridgeToken",
  "sourceName": "posdao-contracts/contracts/ERC677BridgeTokenRewardable.sol",
  "abi": [
    {
      "constant": false,
      "inputs": [
        {
          "name": "_bridge",
          "type": "address"
        }
      ],
      "name": "removeBridge",
      "outputs": [],
      "payable": false,
      "stateMutability": "nonpayable",
      "type": "function"
    },
    {
      "constant": true,
      "inputs": [],
      "name": "name",
      "outputs": [
        {
          "name": "",
          "type": "string"
        }
      ],
      "payable": false,
      "stateMutability": "view",
      "type": "function"
    },
    {
      "constant": false,
      "inputs": [
        {
          "name": "_spender",
          "type": "address"
        },
        {
          "name": "_value",
          "type": "uint256"
        }
      ],
      "name": "approve",
      "outputs": [
        {
          "name": "",
          "type": "bool"
        }
      ],
      "payable": false,
      "stateMutability": "nonpayable",
      "type": "function"
    },
    {
      "constant": true,
      "inputs": [],
      "name": "totalSupply",
      "outputs": [
        {
          "name": "",
          "type": "uint256"
        }
      ],
      "payable": false,
      "stateMutability": "view",
      "type": "function"
    },
    {
      "constant": false,
      "inputs": [
        {
          "name": "_sender",
          "type": "address"
        },
        {
          "name": "_recipient",
          "type": "address"
        },
        {
          "name": "_amount",
          "type": "uint256"
        }
      ],
      "name": "transferFrom",
      "outputs": [
        {
          "name": "",
          "type": "bool"
        }
      ],
      "payable": false,
      "stateMutability": "nonpayable",
      "type": "function"
    },
    {
      "constant": true,
      "inputs": [],
      "name": "PERMIT_TYPEHASH",
      "outputs": [
        {
          "name": "",
          "type": "bytes32"
        }
      ],
      "payable": false,
      "stateMutability": "view",
      "type": "function"
    },
    {
      "constant": true,
      "inputs": [],
      "name": "decimals",
      "outputs": [
        {
          "name": "",
          "type": "uint8"
        }
      ],
      "payable": false,
      "stateMutability": "view",
      "type": "function"
    },
    {
      "constant": true,
      "inputs": [],
      "name": "DOMAIN_SEPARATOR",
      "outputs": [
        {
          "name": "",
          "type": "bytes32"
        }
      ],
      "payable": false,
      "stateMutability": "view",
      "type": "function"
    },
    {
      "constant": false,
      "inputs": [
        {
          "name": "spender",
          "type": "address"
        },
        {
          "name": "addedValue",
          "type": "uint256"
        }
      ],
      "name": "increaseAllowance",
      "outputs": [
        {
          "name": "",
          "type": "bool"
        }
      ],
      "payable": false,
      "stateMutability": "nonpayable",
      "type": "function"
    },
    {
      "constant": false,
      "inputs": [
        {
          "name": "_to",
          "type": "address"
        },
        {
          "name": "_value",
          "type": "uint256"
        },
        {
          "name": "_data",
          "type": "bytes"
        }
      ],
      "name": "transferAndCall",
      "outputs": [
        {
          "name": "",
          "type": "bool"
        }
      ],
      "payable": false,
      "stateMutability": "nonpayable",
      "type": "function"
    },
    {
      "constant": false,
      "inputs": [
        {
          "name": "_to",
          "type": "address"
        },
        {
          "name": "_amount",
          "type": "uint256"
        }
      ],
      "name": "mint",
      "outputs": [
        {
          "name": "",
          "type": "bool"
        }
      ],
      "payable": false,
      "stateMutability": "nonpayable",
      "type": "function"
    },
    {
      "constant": false,
      "inputs": [
        {
          "name": "_value",
          "type": "uint256"
        }
      ],
      "name": "burn",
      "outputs": [],
      "payable": false,
      "stateMutability": "nonpayable",
      "type": "function"
    },
    {
      "constant": true,
      "inputs": [
        {
          "name": "",
          "type": "address"
        }
      ],
      "name": "bridgePointers",
      "outputs": [
        {
          "name": "",
          "type": "address"
        }
      ],
      "payable": false,
      "stateMutability": "view",
      "type": "function"
    },
    {
      "constant": true,
      "inputs": [],
      "name": "version",
      "outputs": [
        {
          "name": "",
          "type": "string"
        }
      ],
      "payable": false,
      "stateMutability": "view",
      "type": "function"
    },
    {
      "constant": false,
      "inputs": [
        {
          "name": "_spender",
          "type": "address"
        },
        {
          "name": "_subtractedValue",
          "type": "uint256"
        }
      ],
      "name": "decreaseApproval",
      "outputs": [
        {
          "name": "",
          "type": "bool"
        }
      ],
      "payable": false,
      "stateMutability": "nonpayable",
      "type": "function"
    },
    {
      "constant": false,
      "inputs": [
        {
          "name": "_token",
          "type": "address"
        },
        {
          "name": "_to",
          "type": "address"
        }
      ],
      "name": "claimTokens",
      "outputs": [],
      "payable": false,
      "stateMutability": "nonpayable",
      "type": "function"
    },
    {
      "constant": true,
      "inputs": [
        {
          "name": "_owner",
          "type": "address"
        }
      ],
      "name": "balanceOf",
      "outputs": [
        {
          "name": "",
          "type": "uint256"
        }
      ],
      "payable": false,
      "stateMutability": "view",
      "type": "function"
    },
    {
      "constant": true,
      "inputs": [
        {
          "name": "_address",
          "type": "address"
        }
      ],
      "name": "isBridge",
      "outputs": [
        {
          "name": "",
          "type": "bool"
        }
      ],
      "payable": false,
      "stateMutability": "view",
      "type": "function"
    },
    {
      "constant": true,
      "inputs": [
        {
          "name": "",
          "type": "address"
        }
      ],
      "name": "nonces",
      "outputs": [
        {
          "name": "",
          "type": "uint256"
        }
      ],
      "payable": false,
      "stateMutability": "view",
      "type": "function"
    },
    {
      "constant": true,
      "inputs": [],
      "name": "getTokenInterfacesVersion",
      "outputs": [
        {
          "name": "major",
          "type": "uint64"
        },
        {
          "name": "minor",
          "type": "uint64"
        },
        {
          "name": "patch",
          "type": "uint64"
        }
      ],
      "payable": false,
      "stateMutability": "pure",
      "type": "function"
    },
    {
      "constant": true,
      "inputs": [],
      "name": "owner",
      "outputs": [
        {
          "name": "",
          "type": "address"
        }
      ],
      "payable": false,
      "stateMutability": "view",
      "type": "function"
    },
    {
      "constant": false,
      "inputs": [
        {
          "name": "_holder",
          "type": "address"
        },
        {
          "name": "_spender",
          "type": "address"
        },
        {
          "name": "_nonce",
          "type": "uint256"
        },
        {
          "name": "_expiry",
          "type": "uint256"
        },
        {
          "name": "_allowed",
          "type": "bool"
        },
        {
          "name": "_v",
          "type": "uint8"
        },
        {
          "name": "_r",
          "type": "bytes32"
        },
        {
          "name": "_s",
          "type": "bytes32"
        }
      ],
      "name": "permit",
      "outputs": [],
      "payable": false,
      "stateMutability": "nonpayable",
      "type": "function"
    },
    {
      "constant": true,
      "inputs": [],
      "name": "symbol",
      "outputs": [
        {
          "name": "",
          "type": "string"
        }
      ],
      "payable": false,
      "stateMutability": "view",
      "type": "function"
    },
    {
      "constant": false,
      "inputs": [
        {
          "name": "_bridge",
          "type": "address"
        }
      ],
      "name": "addBridge",
      "outputs": [],
      "payable": false,
      "stateMutability": "nonpayable",
      "type": "function"
    },
    {
      "constant": true,
      "inputs": [],
      "name": "bridgeList",
      "outputs": [
        {
          "name": "",
          "type": "address[]"
        }
      ],
      "payable": false,
      "stateMutability": "view",
      "type": "function"
    },
    {
      "constant": false,
      "inputs": [
        {
          "name": "spender",
          "type": "address"
        },
        {
          "name": "subtractedValue",
          "type": "uint256"
        }
      ],
      "name": "decreaseAllowance",
      "outputs": [
        {
          "name": "",
          "type": "bool"
        }
      ],
      "payable": false,
      "stateMutability": "nonpayable",
      "type": "function"
    },
    {
      "constant": false,
      "inputs": [
        {
          "name": "_to",
          "type": "address"
        },
        {
          "name": "_value",
          "type": "uint256"
        }
      ],
      "name": "transfer",
      "outputs": [
        {
          "name": "",
          "type": "bool"
        }
      ],
      "payable": false,
      "stateMutability": "nonpayable",
      "type": "function"
    },
    {
      "constant": false,
      "inputs": [
        {
          "name": "_to",
          "type": "address"
        },
        {
          "name": "_amount",
          "type": "uint256"
        }
      ],
      "name": "push",
      "outputs": [],
      "payable": false,
      "stateMutability": "nonpayable",
      "type": "function"
    },
    {
      "constant": false,
      "inputs": [
        {
          "name": "_from",
          "type": "address"
        },
        {
          "name": "_to",
          "type": "address"
        },
        {
          "name": "_amount",
          "type": "uint256"
        }
      ],
      "name": "move",
      "outputs": [],
      "payable": false,
      "stateMutability": "nonpayable",
      "type": "function"
    },
    {
      "constant": true,
      "inputs": [],
      "name": "F_ADDR",
      "outputs": [
        {
          "name": "",
          "type": "address"
        }
      ],
      "payable": false,
      "stateMutability": "view",
      "type": "function"
    },
    {
      "constant": false,
      "inputs": [
        {
          "name": "_spender",
          "type": "address"
        },
        {
          "name": "_addedValue",
          "type": "uint256"
        }
      ],
      "name": "increaseApproval",
      "outputs": [
        {
          "name": "",
          "type": "bool"
        }
      ],
      "payable": false,
      "stateMutability": "nonpayable",
      "type": "function"
    },
    {
      "constant": true,
      "inputs": [
        {
          "name": "_owner",
          "type": "address"
        },
        {
          "name": "_spender",
          "type": "address"
        }
      ],
      "name": "allowance",
      "outputs": [
        {
          "name": "",
          "type": "uint256"
        }
      ],
      "payable": false,
      "stateMutability": "view",
      "type": "function"
    },
    {
      "constant": false,
      "inputs": [
        {
          "name": "_from",
          "type": "address"
        },
        {
          "name": "_amount",
          "type": "uint256"
        }
      ],
      "name": "pull",
      "outputs": [],
      "payable": false,
      "stateMutability": "nonpayable",
      "type": "function"
    },
    {
      "constant": false,
      "inputs": [
        {
          "name": "_newOwner",
          "type": "address"
        }
      ],
      "name": "transferOwnership",
      "outputs": [],
      "payable": false,
      "stateMutability": "nonpayable",
      "type": "function"
    },
    {
      "constant": true,
      "inputs": [],
      "name": "bridgeCount",
      "outputs": [
        {
          "name": "",
          "type": "uint256"
        }
      ],
      "payable": false,
      "stateMutability": "view",
      "type": "function"
    },
    {
      "constant": true,
      "inputs": [
        {
          "name": "",
          "type": "address"
        },
        {
          "name": "",
          "type": "address"
        }
      ],
      "name": "expirations",
      "outputs": [
        {
          "name": "",
          "type": "uint256"
        }
      ],
      "payable": false,
      "stateMutability": "view",
      "type": "function"
    },
    {
      "inputs": [
        {
          "name": "_name",
          "type": "string"
        },
        {
          "name": "_symbol",
          "type": "string"
        },
        {
          "name": "_decimals",
          "type": "uint8"
        },
        {
          "name": "_chainId",
          "type": "uint256"
        }
      ],
      "payable": false,
      "stateMutability": "nonpayable",
      "type": "constructor"
    },
    {
      "anonymous": false,
      "inputs": [
        {
          "indexed": true,
          "name": "bridge",
          "type": "address"
        }
      ],
      "name": "BridgeAdded",
      "type": "event"
    },
    {
      "anonymous": false,
      "inputs": [
        {
          "indexed": true,
          "name": "bridge",
          "type": "address"
        }
      ],
      "name": "BridgeRemoved",
      "type": "event"
    },
    {
      "anonymous": false,
      "inputs": [
        {
          "indexed": false,
          "name": "from",
          "type": "address"
        },
        {
          "indexed": false,
          "name": "to",
          "type": "address"
        },
        {
          "indexed": false,
          "name": "value",
          "type": "uint256"
        }
      ],
      "name": "ContractFallbackCallFailed",
      "type": "event"
    },
    {
      "anonymous": false,
      "inputs": [
        {
          "indexed": true,
          "name": "to",
          "type": "address"
        },
        {
          "indexed": false,
          "name": "amount",
          "type": "uint256"
        }
      ],
      "name": "Mint",
      "type": "event"
    },
    {
      "anonymous": false,
      "inputs": [
        {
          "indexed": true,
          "name": "previousOwner",
          "type": "address"
        },
        {
          "indexed": true,
          "name": "newOwner",
          "type": "address"
        }
      ],
      "name": "OwnershipTransferred",
      "type": "event"
    },
    {
      "anonymous": false,
      "inputs": [
        {
          "indexed": true,
          "name": "burner",
          "type": "address"
        },
        {
          "indexed": false,
          "name": "value",
          "type": "uint256"
        }
      ],
      "name": "Burn",
      "type": "event"
    },
    {
      "anonymous": false,
      "inputs": [
        {
          "indexed": true,
          "name": "from",
          "type": "address"
        },
        {
          "indexed": true,
          "name": "to",
          "type": "address"
        },
        {
          "indexed": false,
          "name": "value",
          "type": "uint256"
        },
        {
          "indexed": false,
          "name": "data",
          "type": "bytes"
        }
      ],
      "name": "Transfer",
      "type": "event"
    },
    {
      "anonymous": false,
      "inputs": [
        {
          "indexed": true,
          "name": "owner",
          "type": "address"
        },
        {
          "indexed": true,
          "name": "spender",
          "type": "address"
        },
        {
          "indexed": false,
          "name": "value",
          "type": "uint256"
        }
      ],
      "name": "Approval",
      "type": "event"
    },
    {
      "anonymous": false,
      "inputs": [
        {
          "indexed": true,
          "name": "from",
          "type": "address"
        },
        {
          "indexed": true,
          "name": "to",
          "type": "address"
        },
        {
          "indexed": false,
          "name": "value",
          "type": "uint256"
        }
      ],
      "name": "Transfer",
      "type": "event"
    }
  ],
  "bytecode": "0x60806040523480156200001157600080fd5b506040516200209738038062002097833981810160405260808110156200003757600080fd5b8101908080516401000000008111156200005057600080fd5b820160208101848111156200006457600080fd5b81516401000000008111828201871017156200007f57600080fd5b505092919060200180516401000000008111156200009c57600080fd5b82016020810184811115620000b057600080fd5b8151640100000000811182820187101715620000cb57600080fd5b50506020808301516040909301518651929550929350859185918591859185918591859184918491849162000106916000918601906200025b565b5081516200011c9060019060208501906200025b565b506002805460ff90921660ff199092169190911790555050600680546001600160a01b03191633179055505050806200015457600080fd5b6040518060526200204582396040805191829003605201822087516020988901208383018352600184527f310000000000000000000000000000000000000000000000000000000000000093890193909352815180890191909152808201929092527fc89efdaa54c0f20c7adf612882df0950f5a951637e0307cdcb4c672f298b8bc6606083015260808201939093523060a0808301919091528351808303909101815260c09091019092525080519084012060075550506001600160a01b036000819052600a9091527f665a824d6c9637c955c27384f6bfd3713755a7ec6096f2295495c04388a9a83e80546001600160a01b0319169091179055506200030092505050565b828054600181600116156101000203166002900490600052602060002090601f016020900481019282601f106200029e57805160ff1916838001178555620002ce565b82800160010185558215620002ce579182015b82811115620002ce578251825591602001919060010190620002b1565b50620002dc929150620002e0565b5090565b620002fd91905b80821115620002dc5760008155600101620002e7565b90565b611d3580620003106000396000f3fe608060405234801561001057600080fd5b506004361061021c5760003560e01c80637ecebe0011610125578063b753a98c116100ad578063dd62ed3e1161007c578063dd62ed3e1461079e578063f2d5d56b146107cc578063f2fde38b146107f8578063fbb2a53f1461081e578063ff9e884d146108265761021c565b8063b753a98c14610708578063bb35783b14610734578063c794c7691461076a578063d73dd623146107725761021c565b806395d89b41116100f457806395d89b411461062a5780639712fdf8146106325780639da38e2f14610658578063a457c2d7146106b0578063a9059cbb146106dc5761021c565b80637ecebe001461056e578063859ba28c146105945780638da5cb5b146105c85780638fcbaf0c146105d05761021c565b80634000aea0116101a857806354fd4d501161017757806354fd4d50146104c057806366188463146104c857806369ffa08a146104f457806370a0823114610522578063726600ce146105485761021c565b80634000aea0146103b057806340c10f191461043557806342966c68146104615780634bcb88bc1461047e5761021c565b806323b872dd116101ef57806323b872dd1461032057806330adf81f14610356578063313ce5671461035e5780633644e5151461037c57806339509351146103845761021c565b806304df017d1461022157806306fdde0314610249578063095ea7b3146102c657806318160ddd14610306575b600080fd5b6102476004803603602081101561023757600080fd5b50356001600160a01b0316610854565b005b6102516109a9565b6040805160208082528351818301528351919283929083019185019080838360005b8381101561028b578181015183820152602001610273565b50505050905090810190601f1680156102b85780820380516001836020036101000a031916815260200191505b509250505060405180910390f35b6102f2600480360360408110156102dc57600080fd5b506001600160a01b038135169060200135610a37565b604080519115158252519081900360200190f35b61030e610a8b565b60408051918252519081900360200190f35b6102f26004803603606081101561033657600080fd5b506001600160a01b03813581169160208101359091169060400135610a91565b61030e610c5c565b610366610c80565b6040805160ff9092168252519081900360200190f35b61030e610c89565b6102f26004803603604081101561039a57600080fd5b506001600160a01b038135169060200135610c8f565b6102f2600480360360608110156103c657600080fd5b6001600160a01b03823516916020810135918101906060810160408201356401000000008111156103f657600080fd5b82018360208201111561040857600080fd5b8035906020019184600183028401116401000000008311171561042a57600080fd5b509092509050610ca2565b6102f26004803603604081101561044b57600080fd5b506001600160a01b038135169060200135610dc3565b6102476004803603602081101561047757600080fd5b5035610ea6565b6104a46004803603602081101561049457600080fd5b50356001600160a01b0316610eb3565b604080516001600160a01b039092168252519081900360200190f35b610251610ece565b6102f2600480360360408110156104de57600080fd5b506001600160a01b038135169060200135610eeb565b6102476004803603604081101561050a57600080fd5b506001600160a01b0381358116916020013516610fc8565b61030e6004803603602081101561053857600080fd5b50356001600160a01b0316611002565b6102f26004803603602081101561055e57600080fd5b50356001600160a01b031661101d565b61030e6004803603602081101561058457600080fd5b50356001600160a01b0316611057565b61059c611069565b6040805167ffffffffffffffff9485168152928416602084015292168183015290519081900360600190f35b6104a4611073565b61024760048036036101008110156105e757600080fd5b506001600160a01b038135811691602081013590911690604081013590606081013590608081013515159060ff60a0820135169060c08101359060e00135611082565b6102516112c9565b6102476004803603602081101561064857600080fd5b50356001600160a01b0316611323565b61066061142e565b60408051602080825283518183015283519192839290830191858101910280838360005b8381101561069c578181015183820152602001610684565b505050509050019250505060405180910390f35b6102f2600480360360408110156106c657600080fd5b506001600160a01b0381351690602001356114f8565b6102f2600480360360408110156106f257600080fd5b506001600160a01b038135169060200135611504565b6102476004803603604081101561071e57600080fd5b506001600160a01b03813516906020013561152d565b6102476004803603606081101561074a57600080fd5b506001600160a01b03813581169160208101359091169060400135611538565b6104a4611549565b6102f26004803603604081101561078857600080fd5b506001600160a01b038135169060200135611554565b61030e600480360360408110156107b457600080fd5b506001600160a01b03813581169160200135166115db565b610247600480360360408110156107e257600080fd5b506001600160a01b038135169060200135611606565b6102476004803603602081101561080e57600080fd5b50356001600160a01b0316611611565b61030e611631565b61030e6004803603604081101561083c57600080fd5b506001600160a01b0381358116916020013516611637565b6006546001600160a01b0316331461086b57600080fd5b6108748161101d565b61087d57600080fd5b6001600160a01b038082166000908152600a602052604081205490829052600080516020611ca18339815191525490821691908116806108bc57600080fd5b836001600160a01b0316816001600160a01b03161461091b576001600160a01b038082166000908152600a602052604090205491925090811690811480159061090d57506001600160a01b03811615155b61091657600080fd5b6108bc565b6001600160a01b038083166000908152600a602052604080822080548488166001600160a01b0319918216179091559287168252902080549091169055600b5461096c90600163ffffffff61165416565b600b556040516001600160a01b038516907f5d9d5034656cb3ebfb0655057cd7f9b4077a9b42ff42ce223cbac5bc586d212690600090a250505050565b6000805460408051602060026001851615610100026000190190941693909304601f81018490048402820184019092528181529291830182828015610a2f5780601f10610a0457610100808354040283529160200191610a2f565b820191906000526020600020905b815481529060010190602001808311610a1257829003601f168201915b505050505081565b3360008181526005602090815260408083206001600160a01b03871680855290835281842086905581518681529151939490939092600080516020611ce1833981519152928290030190a350600192915050565b60045490565b60006001600160a01b038416610aa657600080fd5b6001600160a01b038316610ab957600080fd5b6001600160a01b038416600090815260036020526040902054610ae2908363ffffffff61165416565b6001600160a01b038086166000908152600360205260408082209390935590851681522054610b17908363ffffffff61166616565b6001600160a01b038085166000818152600360209081526040918290209490945580518681529051919392881692600080516020611cc183398151915292918290030190a36001600160a01b0384163314610c47576000610b7885336115db565b90506000198114610be257610b93818463ffffffff61165416565b6001600160a01b038616600081815260056020908152604080832033808552908352928190208590558051948552519193600080516020611ce1833981519152929081900390910190a3610c45565b6001600160a01b03851660009081526009602090815260408083203384529091529020541580610c3c5750610c15611673565b6001600160a01b038616600090815260096020908152604080832033845290915290205410155b610c4557600080fd5b505b610c52848484611677565b5060019392505050565b7fea2aa0a1be11a07ed86d755c93467f4f82362b452371d1ba94d1715123511acb81565b60025460ff1681565b60075481565b6000610c9b8383611554565b9392505050565b6000846001600160a01b03811615801590610cc657506001600160a01b0381163014155b610ccf57600080fd5b610cd9868661170e565b610ce257600080fd5b856001600160a01b0316336001600160a01b03167fe19260aff97b920c7df27010903aeb9c8d2be5d310a2c67824cf3f15396e4c1687878760405180848152602001806020018281038252848482818152602001925080828437600083820152604051601f909101601f1916909201829003965090945050505050a3610d678661171a565b15610db757610dae33878787878080601f01602080910402602001604051908101604052809392919081815260200183838082843760009201919091525061172092505050565b610db757600080fd5b50600195945050505050565b6006546000906001600160a01b03163314610ddd57600080fd5b600454610df0908363ffffffff61166616565b6004556001600160a01b038316600090815260036020526040902054610e1c908363ffffffff61166616565b6001600160a01b038416600081815260036020908152604091829020939093558051858152905191927f0f6798a560793a54c3bcfe86a93cde1e73087d944c0ea20544137d412139688592918290030190a26040805183815290516001600160a01b03851691600091600080516020611cc18339815191529181900360200190a350600192915050565b610eb0338261189d565b50565b600a602052600090815260409020546001600160a01b031681565b604051806040016040528060018152602001603160f81b81525081565b3360009081526005602090815260408083206001600160a01b0386168452909152812054808310610f3f573360009081526005602090815260408083206001600160a01b0388168452909152812055610f74565b610f4f818463ffffffff61165416565b3360009081526005602090815260408083206001600160a01b03891684529091529020555b3360008181526005602090815260408083206001600160a01b038916808552908352928190205481519081529051929392600080516020611ce1833981519152929181900390910190a35060019392505050565b6006546001600160a01b03163314610fdf57600080fd5b806001600160a01b038116610ff357600080fd5b610ffd838361198c565b505050565b6001600160a01b031660009081526003602052604090205490565b60006001600160a01b038281161480159061105157506001600160a01b038281166000908152600a60205260409020541615155b92915050565b60086020526000908152604090205481565b6002806000909192565b6006546001600160a01b031681565b6001600160a01b03881661109557600080fd5b6001600160a01b0387166110a857600080fd5b8415806110bc5750846110b9611673565b11155b6110c557600080fd5b600754604080517fea2aa0a1be11a07ed86d755c93467f4f82362b452371d1ba94d1715123511acb6020808301919091526001600160a01b03808d16838501528b166060830152608082018a905260a0820189905287151560c0808401919091528351808403909101815260e08301845280519082012061190160f01b610100840152610102830194909452610122808301949094528251808303909401845261014282018084528451948201949094206000909452610162820180845284905260ff87166101828301526101a282018690526101c2820185905291516001926101e2808401939192601f1981019281900390910190855afa1580156111cf573d6000803e3d6000fd5b505050602060405103516001600160a01b0316896001600160a01b0316146111f657600080fd5b6001600160a01b0389166000908152600860205260409020805460018101909155871461122257600080fd5b600085611230576000611234565b6000195b6001600160a01b03808c166000908152600560209081526040808320938e1683529290522081905590508561126a57600061126c565b865b6001600160a01b03808c166000818152600960209081526040808320948f1680845294825291829020949094558051858152905192939192600080516020611ce1833981519152929181900390910190a350505050505050505050565b60018054604080516020600284861615610100026000190190941693909304601f81018490048402820184019092528181529291830182828015610a2f5780601f10610a0457610100808354040283529160200191610a2f565b6006546001600160a01b0316331461133a57600080fd5b6032600b541061134957600080fd5b6113528161171a565b61135b57600080fd5b6113648161101d565b1561136e57600080fd5b6001600160a01b036000819052600a602052600080516020611ca183398151915254168061139b57600080fd5b600a602052600080516020611ca183398151915280546001600160a01b03199081166001600160a01b038581169182179093556000908152604090208054909116918316919091179055600b546113f3906001611666565b600b556040516001600160a01b038316907f3cda433c5679ae4c6a5dea50840e222a42cba3695e4663de4366be899348422190600090a25050565b606080600b5460405190808252806020026020018201604052801561145d578160200160208202803883390190505b506001600160a01b036000818152600a602052600080516020611ca18339815191525492935091168061148f57600080fd5b6001600160a01b03818116146114f057808383815181106114ac57fe5b6001600160a01b039283166020918202929092018101919091529181166000908152600a9092526040909120546001929092019116806114eb57600080fd5b61148f565b509091505090565b6000610c9b8383610eeb565b6000611510838361170e565b61151957600080fd5b611524338484611677565b50600192915050565b610ffd338383610a91565b611543838383610a91565b50505050565b6001600160a01b0381565b3360009081526005602090815260408083206001600160a01b0386168452909152812054611588908363ffffffff61166616565b3360008181526005602090815260408083206001600160a01b038916808552908352928190208590558051948552519193600080516020611ce1833981519152929081900390910190a350600192915050565b6001600160a01b03918216600090815260056020908152604080832093909416825291909152205490565b610ffd823383610a91565b6006546001600160a01b0316331461162857600080fd5b610eb0816119b6565b600b5481565b600960209081526000928352604080842090915290825290205481565b60008282111561166057fe5b50900390565b8181018281101561105157fe5b4290565b6116808261171a565b80156116a757506040805160008152602081019091526116a590849084908490611720565b155b15610ffd576116b58261101d565b156116bf57600080fd5b604080516001600160a01b0380861682528416602082015280820183905290517f11249f0fc79fc134a15a10d1da8291b79515bf987e036ced05b9ec119614070b9181900360600190a1505050565b6000610c9b8383611a25565b3b151590565b600080846001600160a01b031663a4c0ed3660e01b87868660405160240180846001600160a01b03166001600160a01b0316815260200183815260200180602001828103825283818151815260200191508051906020019080838360005b8381101561179657818101518382015260200161177e565b50505050905090810190601f1680156117c35780820380516001836020036101000a031916815260200191505b5060408051601f198184030181529181526020820180516001600160e01b03166001600160e01b031990991698909817885251815191979096508695509350915081905083835b602083106118295780518252601f19909201916020918201910161180a565b6001836020036101000a0380198251168184511680821785525050505050509050019150506000604051808303816000865af19150503d806000811461188b576040519150601f19603f3d011682016040523d82523d6000602084013e611890565b606091505b5090979650505050505050565b6001600160a01b0382166000908152600360205260409020548111156118c257600080fd5b6001600160a01b0382166000908152600360205260409020546118eb908263ffffffff61165416565b6001600160a01b038316600090815260036020526040902055600454611917908263ffffffff61165416565b6004556040805182815290516001600160a01b038416917fcc16f5dbb4873280815c1ee09dbd06736cffcc184412cf7a71a0fdb75d397ca5919081900360200190a26040805182815290516000916001600160a01b03851691600080516020611cc18339815191529181900360200190a35050565b6001600160a01b0382166119a8576119a381611af2565b6119b2565b6119b28282611b5f565b5050565b6001600160a01b0381166119c957600080fd5b6006546040516001600160a01b038084169216907f8be0079c531659141344cd1fd0a4f28419497f9722a3daafe3b4186f6b6457e090600090a3600680546001600160a01b0319166001600160a01b0392909216919091179055565b33600090815260036020526040812054821115611a4157600080fd5b6001600160a01b038316611a5457600080fd5b33600090815260036020526040902054611a74908363ffffffff61165416565b33600090815260036020526040808220929092556001600160a01b03851681522054611aa6908363ffffffff61166616565b6001600160a01b038416600081815260036020908152604091829020939093558051858152905191923392600080516020611cc18339815191529281900390910190a350600192915050565b6040513031906001600160a01b0383169082156108fc029083906000818181858888f193505050506119b2578082604051611b2c90611c62565b6001600160a01b039091168152604051908190036020019082f080158015611b58573d6000803e3d6000fd5b5050505050565b604080516370a0823160e01b8152306004820152905183916000916001600160a01b038416916370a08231916024808301926020929190829003018186803b158015611baa57600080fd5b505afa158015611bbe573d6000803e3d6000fd5b505050506040513d6020811015611bd457600080fd5b50519050611543848483604080516001600160a01b03841660248201526044808201849052825180830390910181526064909101909152602081810180516001600160e01b031663a9059cbb60e01b1781528251606093600093909290918491828a5af1600051935083925080801561021c575050825115611c5a5781611c5a57600080fd5b505050505050565b603280611c6f8339019056fe60806040526040516032380380603283398181016040526020811015602357600080fd5b50516001600160a01b038116fffe665a824d6c9637c955c27384f6bfd3713755a7ec6096f2295495c04388a9a83eddf252ad1be2c89b69c2b068fc378daa952ba7f163c4a11628f55a4df523b3ef8c5be1e5ebec7d5bd14f71427d1e84f3dd0314c0f7b2291e5b200ac8c7c3b925a265627a7a7230582083587cb5b865c7c9bed27a3949dac1bf7ab298f214b610bcf5a79499cc2cd32864736f6c634300050a0032454950373132446f6d61696e28737472696e67206e616d652c737472696e672076657273696f6e2c75696e7432353620636861696e49642c6164647265737320766572696679696e67436f6e747261637429",
  "linkReferences": {},
  "deployedLinkReferences": {}
}