{
  "_format": "hh-sol-artifact-1",
  "contractName": "ERC677BridgeTokenRewardable",
  "sourceName": "posdao-contracts/contracts/ERC677BridgeTokenRewardable.sol",
  "abi": [
    {
      "constant": false,
      "inputs": [
        {
          "name": "_bridge",
          "type": "address"
        }
      ],
      "name": "removeBridge",
      "outputs": [],
      "payable": false,
      "stateMutability": "nonpayable",
      "type": "function"
    },
    {
      "constant": true,
      "inputs": [],
      "name": "name",
      "outputs": [
        {
          "name": "",
          "type": "string"
        }
      ],
      "payable": false,
      "stateMutability": "view",
      "type": "function"
    },
    {
      "constant": false,
      "inputs": [
        {
          "name": "_spender",
          "type": "address"
        },
        {
          "name": "_value",
          "type": "uint256"
        }
      ],
      "name": "approve",
      "outputs": [
        {
          "name": "",
          "type": "bool"
        }
      ],
      "payable": false,
      "stateMutability": "nonpayable",
      "type": "function"
    },
    {
      "constant": true,
      "inputs": [],
      "name": "totalSupply",
      "outputs": [
        {
          "name": "",
          "type": "uint256"
        }
      ],
      "payable": false,
      "stateMutability": "view",
      "type": "function"
    },
    {
      "constant": false,
      "inputs": [
        {
          "name": "_from",
          "type": "address"
        },
        {
          "name": "_to",
          "type": "address"
        },
        {
          "name": "_value",
          "type": "uint256"
        }
      ],
      "name": "transferFrom",
      "outputs": [
        {
          "name": "",
          "type": "bool"
        }
      ],
      "payable": false,
      "stateMutability": "nonpayable",
      "type": "function"
    },
    {
      "constant": false,
      "inputs": [
        {
          "name": "_blockRewardContract",
          "type": "address"
        }
      ],
      "name": "setBlockRewardContract",
      "outputs": [],
      "payable": false,
      "stateMutability": "nonpayable",
      "type": "function"
    },
    {
      "constant": true,
      "inputs": [],
      "name": "PERMIT_TYPEHASH",
      "outputs": [
        {
          "name": "",
          "type": "bytes32"
        }
      ],
      "payable": false,
      "stateMutability": "view",
      "type": "function"
    },
    {
      "constant": true,
      "inputs": [],
      "name": "decimals",
      "outputs": [
        {
          "name": "",
          "type": "uint8"
        }
      ],
      "payable": false,
      "stateMutability": "view",
      "type": "function"
    },
    {
      "constant": true,
      "inputs": [],
      "name": "DOMAIN_SEPARATOR",
      "outputs": [
        {
          "name": "",
          "type": "bytes32"
        }
      ],
      "payable": false,
      "stateMutability": "view",
      "type": "function"
    },
    {
      "constant": false,
      "inputs": [
        {
          "name": "spender",
          "type": "address"
        },
        {
          "name": "addedValue",
          "type": "uint256"
        }
      ],
      "name": "increaseAllowance",
      "outputs": [
        {
          "name": "",
          "type": "bool"
        }
      ],
      "payable": false,
      "stateMutability": "nonpayable",
      "type": "function"
    },
    {
      "constant": false,
      "inputs": [
        {
          "name": "_to",
          "type": "address"
        },
        {
          "name": "_value",
          "type": "uint256"
        },
        {
          "name": "_data",
          "type": "bytes"
        }
      ],
      "name": "transferAndCall",
      "outputs": [
        {
          "name": "",
          "type": "bool"
        }
      ],
      "payable": false,
      "stateMutability": "nonpayable",
      "type": "function"
    },
    {
      "constant": false,
      "inputs": [
        {
          "name": "_to",
          "type": "address"
        },
        {
          "name": "_amount",
          "type": "uint256"
        }
      ],
      "name": "mint",
      "outputs": [
        {
          "name": "",
          "type": "bool"
        }
      ],
      "payable": false,
      "stateMutability": "nonpayable",
      "type": "function"
    },
    {
      "constant": false,
      "inputs": [
        {
          "name": "_value",
          "type": "uint256"
        }
      ],
      "name": "burn",
      "outputs": [],
      "payable": false,
      "stateMutability": "nonpayable",
      "type": "function"
    },
    {
      "constant": true,
      "inputs": [
        {
          "name": "",
          "type": "address"
        }
      ],
      "name": "bridgePointers",
      "outputs": [
        {
          "name": "",
          "type": "address"
        }
      ],
      "payable": false,
      "stateMutability": "view",
      "type": "function"
    },
    {
      "constant": true,
      "inputs": [],
      "name": "version",
      "outputs": [
        {
          "name": "",
          "type": "string"
        }
      ],
      "payable": false,
      "stateMutability": "view",
      "type": "function"
    },
    {
      "constant": true,
      "inputs": [],
      "name": "blockRewardContract",
      "outputs": [
        {
          "name": "",
          "type": "address"
        }
      ],
      "payable": false,
      "stateMutability": "view",
      "type": "function"
    },
    {
      "constant": false,
      "inputs": [
        {
          "name": "_spender",
          "type": "address"
        },
        {
          "name": "_subtractedValue",
          "type": "uint256"
        }
      ],
      "name": "decreaseApproval",
      "outputs": [
        {
          "name": "",
          "type": "bool"
        }
      ],
      "payable": false,
      "stateMutability": "nonpayable",
      "type": "function"
    },
    {
      "constant": false,
      "inputs": [
        {
          "name": "_token",
          "type": "address"
        },
        {
          "name": "_to",
          "type": "address"
        }
      ],
      "name": "claimTokens",
      "outputs": [],
      "payable": false,
      "stateMutability": "nonpayable",
      "type": "function"
    },
    {
      "constant": true,
      "inputs": [
        {
          "name": "_owner",
          "type": "address"
        }
      ],
      "name": "balanceOf",
      "outputs": [
        {
          "name": "",
          "type": "uint256"
        }
      ],
      "payable": false,
      "stateMutability": "view",
      "type": "function"
    },
    {
      "constant": true,
      "inputs": [
        {
          "name": "_address",
          "type": "address"
        }
      ],
      "name": "isBridge",
      "outputs": [
        {
          "name": "",
          "type": "bool"
        }
      ],
      "payable": false,
      "stateMutability": "view",
      "type": "function"
    },
    {
      "constant": true,
      "inputs": [
        {
          "name": "",
          "type": "address"
        }
      ],
      "name": "nonces",
      "outputs": [
        {
          "name": "",
          "type": "uint256"
        }
      ],
      "payable": false,
      "stateMutability": "view",
      "type": "function"
    },
    {
      "constant": true,
      "inputs": [],
      "name": "getTokenInterfacesVersion",
      "outputs": [
        {
          "name": "major",
          "type": "uint64"
        },
        {
          "name": "minor",
          "type": "uint64"
        },
        {
          "name": "patch",
          "type": "uint64"
        }
      ],
      "payable": false,
      "stateMutability": "pure",
      "type": "function"
    },
    {
      "constant": true,
      "inputs": [],
      "name": "owner",
      "outputs": [
        {
          "name": "",
          "type": "address"
        }
      ],
      "payable": false,
      "stateMutability": "view",
      "type": "function"
    },
    {
      "constant": false,
      "inputs": [
        {
          "name": "_holder",
          "type": "address"
        },
        {
          "name": "_spender",
          "type": "address"
        },
        {
          "name": "_nonce",
          "type": "uint256"
        },
        {
          "name": "_expiry",
          "type": "uint256"
        },
        {
          "name": "_allowed",
          "type": "bool"
        },
        {
          "name": "_v",
          "type": "uint8"
        },
        {
          "name": "_r",
          "type": "bytes32"
        },
        {
          "name": "_s",
          "type": "bytes32"
        }
      ],
      "name": "permit",
      "outputs": [],
      "payable": false,
      "stateMutability": "nonpayable",
      "type": "function"
    },
    {
      "constant": false,
      "inputs": [
        {
          "name": "_amount",
          "type": "uint256"
        }
      ],
      "name": "mintReward",
      "outputs": [],
      "payable": false,
      "stateMutability": "nonpayable",
      "type": "function"
    },
    {
      "constant": true,
      "inputs": [],
      "name": "symbol",
      "outputs": [
        {
          "name": "",
          "type": "string"
        }
      ],
      "payable": false,
      "stateMutability": "view",
      "type": "function"
    },
    {
      "constant": false,
      "inputs": [
        {
          "name": "_bridge",
          "type": "address"
        }
      ],
      "name": "addBridge",
      "outputs": [],
      "payable": false,
      "stateMutability": "nonpayable",
      "type": "function"
    },
    {
      "constant": true,
      "inputs": [],
      "name": "bridgeList",
      "outputs": [
        {
          "name": "",
          "type": "address[]"
        }
      ],
      "payable": false,
      "stateMutability": "view",
      "type": "function"
    },
    {
      "constant": false,
      "inputs": [
        {
          "name": "_stakingContract",
          "type": "address"
        }
      ],
      "name": "setStakingContract",
      "outputs": [],
      "payable": false,
      "stateMutability": "nonpayable",
      "type": "function"
    },
    {
      "constant": false,
      "inputs": [
        {
          "name": "spender",
          "type": "address"
        },
        {
          "name": "subtractedValue",
          "type": "uint256"
        }
      ],
      "name": "decreaseAllowance",
      "outputs": [
        {
          "name": "",
          "type": "bool"
        }
      ],
      "payable": false,
      "stateMutability": "nonpayable",
      "type": "function"
    },
    {
      "constant": false,
      "inputs": [
        {
          "name": "_to",
          "type": "address"
        },
        {
          "name": "_value",
          "type": "uint256"
        }
      ],
      "name": "transfer",
      "outputs": [
        {
          "name": "",
          "type": "bool"
        }
      ],
      "payable": false,
      "stateMutability": "nonpayable",
      "type": "function"
    },
    {
      "constant": false,
      "inputs": [
        {
          "name": "_staker",
          "type": "address"
        },
        {
          "name": "_amount",
          "type": "uint256"
        }
      ],
      "name": "stake",
      "outputs": [],
      "payable": false,
      "stateMutability": "nonpayable",
      "type": "function"
    },
    {
      "constant": false,
      "inputs": [
        {
          "name": "_to",
          "type": "address"
        },
        {
          "name": "_amount",
          "type": "uint256"
        }
      ],
      "name": "push",
      "outputs": [],
      "payable": false,
      "stateMutability": "nonpayable",
      "type": "function"
    },
    {
      "constant": false,
      "inputs": [
        {
          "name": "_from",
          "type": "address"
        },
        {
          "name": "_to",
          "type": "address"
        },
        {
          "name": "_amount",
          "type": "uint256"
        }
      ],
      "name": "move",
      "outputs": [],
      "payable": false,
      "stateMutability": "nonpayable",
      "type": "function"
    },
    {
      "constant": true,
      "inputs": [],
      "name": "F_ADDR",
      "outputs": [
        {
          "name": "",
          "type": "address"
        }
      ],
      "payable": false,
      "stateMutability": "view",
      "type": "function"
    },
    {
      "constant": false,
      "inputs": [
        {
          "name": "_spender",
          "type": "address"
        },
        {
          "name": "_addedValue",
          "type": "uint256"
        }
      ],
      "name": "increaseApproval",
      "outputs": [
        {
          "name": "",
          "type": "bool"
        }
      ],
      "payable": false,
      "stateMutability": "nonpayable",
      "type": "function"
    },
    {
      "constant": true,
      "inputs": [
        {
          "name": "_owner",
          "type": "address"
        },
        {
          "name": "_spender",
          "type": "address"
        }
      ],
      "name": "allowance",
      "outputs": [
        {
          "name": "",
          "type": "uint256"
        }
      ],
      "payable": false,
      "stateMutability": "view",
      "type": "function"
    },
    {
      "constant": true,
      "inputs": [],
      "name": "stakingContract",
      "outputs": [
        {
          "name": "",
          "type": "address"
        }
      ],
      "payable": false,
      "stateMutability": "view",
      "type": "function"
    },
    {
      "constant": false,
      "inputs": [
        {
          "name": "_from",
          "type": "address"
        },
        {
          "name": "_amount",
          "type": "uint256"
        }
      ],
      "name": "pull",
      "outputs": [],
      "payable": false,
      "stateMutability": "nonpayable",
      "type": "function"
    },
    {
      "constant": false,
      "inputs": [
        {
          "name": "_newOwner",
          "type": "address"
        }
      ],
      "name": "transferOwnership",
      "outputs": [],
      "payable": false,
      "stateMutability": "nonpayable",
      "type": "function"
    },
    {
      "constant": true,
      "inputs": [],
      "name": "bridgeCount",
      "outputs": [
        {
          "name": "",
          "type": "uint256"
        }
      ],
      "payable": false,
      "stateMutability": "view",
      "type": "function"
    },
    {
      "constant": true,
      "inputs": [
        {
          "name": "",
          "type": "address"
        },
        {
          "name": "",
          "type": "address"
        }
      ],
      "name": "expirations",
      "outputs": [
        {
          "name": "",
          "type": "uint256"
        }
      ],
      "payable": false,
      "stateMutability": "view",
      "type": "function"
    },
    {
      "inputs": [
        {
          "name": "_name",
          "type": "string"
        },
        {
          "name": "_symbol",
          "type": "string"
        },
        {
          "name": "_decimals",
          "type": "uint8"
        },
        {
          "name": "_chainId",
          "type": "uint256"
        }
      ],
      "payable": false,
      "stateMutability": "nonpayable",
      "type": "constructor"
    },
    {
      "anonymous": false,
      "inputs": [
        {
          "indexed": true,
          "name": "bridge",
          "type": "address"
        }
      ],
      "name": "BridgeAdded",
      "type": "event"
    },
    {
      "anonymous": false,
      "inputs": [
        {
          "indexed": true,
          "name": "bridge",
          "type": "address"
        }
      ],
      "name": "BridgeRemoved",
      "type": "event"
    },
    {
      "anonymous": false,
      "inputs": [
        {
          "indexed": false,
          "name": "from",
          "type": "address"
        },
        {
          "indexed": false,
          "name": "to",
          "type": "address"
        },
        {
          "indexed": false,
          "name": "value",
          "type": "uint256"
        }
      ],
      "name": "ContractFallbackCallFailed",
      "type": "event"
    },
    {
      "anonymous": false,
      "inputs": [
        {
          "indexed": true,
          "name": "to",
          "type": "address"
        },
        {
          "indexed": false,
          "name": "amount",
          "type": "uint256"
        }
      ],
      "name": "Mint",
      "type": "event"
    },
    {
      "anonymous": false,
      "inputs": [
        {
          "indexed": true,
          "name": "previousOwner",
          "type": "address"
        },
        {
          "indexed": true,
          "name": "newOwner",
          "type": "address"
        }
      ],
      "name": "OwnershipTransferred",
      "type": "event"
    },
    {
      "anonymous": false,
      "inputs": [
        {
          "indexed": true,
          "name": "burner",
          "type": "address"
        },
        {
          "indexed": false,
          "name": "value",
          "type": "uint256"
        }
      ],
      "name": "Burn",
      "type": "event"
    },
    {
      "anonymous": false,
      "inputs": [
        {
          "indexed": true,
          "name": "from",
          "type": "address"
        },
        {
          "indexed": true,
          "name": "to",
          "type": "address"
        },
        {
          "indexed": false,
          "name": "value",
          "type": "uint256"
        },
        {
          "indexed": false,
          "name": "data",
          "type": "bytes"
        }
      ],
      "name": "Transfer",
      "type": "event"
    },
    {
      "anonymous": false,
      "inputs": [
        {
          "indexed": true,
          "name": "owner",
          "type": "address"
        },
        {
          "indexed": true,
          "name": "spender",
          "type": "address"
        },
        {
          "indexed": false,
          "name": "value",
          "type": "uint256"
        }
      ],
      "name": "Approval",
      "type": "event"
    },
    {
      "anonymous": false,
      "inputs": [
        {
          "indexed": true,
          "name": "from",
          "type": "address"
        },
        {
          "indexed": true,
          "name": "to",
          "type": "address"
        },
        {
          "indexed": false,
          "name": "value",
          "type": "uint256"
        }
      ],
      "name": "Transfer",
      "type": "event"
    }
  ],
  "bytecode": "0x60806040523480156200001157600080fd5b506040516200249f3803806200249f833981810160405260808110156200003757600080fd5b8101908080516401000000008111156200005057600080fd5b820160208101848111156200006457600080fd5b81516401000000008111828201871017156200007f57600080fd5b505092919060200180516401000000008111156200009c57600080fd5b82016020810184811115620000b057600080fd5b8151640100000000811182820187101715620000cb57600080fd5b50509291906020018051906020019092919080519060200190929190505050838383838383838383838382828282600090805190602001906200011092919062000269565b5081516200012690600190602085019062000269565b506002805460ff90921660ff199092169190911790555050600680546001600160a01b03191633179055505050806200015e57600080fd5b6040518060526200244d82396040805191829003605201822087516020988901208383018352600184527f310000000000000000000000000000000000000000000000000000000000000093890193909352815180890191909152808201929092527fc89efdaa54c0f20c7adf612882df0950f5a951637e0307cdcb4c672f298b8bc6606083015260808201939093523060a0808301919091528351808303909101815260c09091019092525080519084012060075550506001600160a01b036000819052600a9091527f665a824d6c9637c955c27384f6bfd3713755a7ec6096f2295495c04388a9a83e80546001600160a01b0319169091179055506200030e9650505050505050565b828054600181600116156101000203166002900490600052602060002090601f016020900481019282601f10620002ac57805160ff1916838001178555620002dc565b82800160010185558215620002dc579182015b82811115620002dc578251825591602001919060010190620002bf565b50620002ea929150620002ee565b5090565b6200030b91905b80821115620002ea5760008155600101620002f5565b90565b61212f806200031e6000396000f3fe608060405234801561001057600080fd5b506004361061025e5760003560e01c8063859ba28c11610146578063adc9772e116100c3578063dd62ed3e11610087578063dd62ed3e1461087d578063ee99205c146108ab578063f2d5d56b146108b3578063f2fde38b146108df578063fbb2a53f14610905578063ff9e884d1461090d5761025e565b8063adc9772e146107bb578063b753a98c146107e7578063bb35783b14610813578063c794c76914610849578063d73dd623146108515761025e565b80639712fdf81161010a5780639712fdf8146106bf5780639da38e2f146106e55780639dd373b91461073d578063a457c2d714610763578063a9059cbb1461078f5761025e565b8063859ba28c146106045780638da5cb5b146106385780638fcbaf0c1461064057806391c0aabf1461069a57806395d89b41146106b75761025e565b80634000aea0116101df57806356b54bae116101a357806356b54bae14610530578063661884631461053857806369ffa08a1461056457806370a0823114610592578063726600ce146105b85780637ecebe00146105de5761025e565b80634000aea01461041857806340c10f191461049d57806342966c68146104c95780634bcb88bc146104e657806354fd4d50146105285761025e565b806327a3e16b1161022657806327a3e16b1461039857806330adf81f146103be578063313ce567146103c65780633644e515146103e457806339509351146103ec5761025e565b806304df017d1461026357806306fdde031461028b578063095ea7b31461030857806318160ddd1461034857806323b872dd14610362575b600080fd5b6102896004803603602081101561027957600080fd5b50356001600160a01b031661093b565b005b610293610a90565b6040805160208082528351818301528351919283929083019185019080838360005b838110156102cd5781810151838201526020016102b5565b50505050905090810190601f1680156102fa5780820380516001836020036101000a031916815260200191505b509250505060405180910390f35b6103346004803603604081101561031e57600080fd5b506001600160a01b038135169060200135610b1e565b604080519115158252519081900360200190f35b610350610b72565b60408051918252519081900360200190f35b6103346004803603606081101561037857600080fd5b506001600160a01b03813581169160208101359091169060400135610b78565b610289600480360360208110156103ae57600080fd5b50356001600160a01b0316610bc4565b610350610c0f565b6103ce610c33565b6040805160ff9092168252519081900360200190f35b610350610c3c565b6103346004803603604081101561040257600080fd5b506001600160a01b038135169060200135610c42565b6103346004803603606081101561042e57600080fd5b6001600160a01b038235169160208101359181019060608101604082013564010000000081111561045e57600080fd5b82018360208201111561047057600080fd5b8035906020019184600183028401116401000000008311171561049257600080fd5b509092509050610c55565b610334600480360360408110156104b357600080fd5b506001600160a01b038135169060200135610d76565b610289600480360360208110156104df57600080fd5b5035610e59565b61050c600480360360208110156104fc57600080fd5b50356001600160a01b0316610e66565b604080516001600160a01b039092168252519081900360200190f35b610293610e81565b61050c610e9e565b6103346004803603604081101561054e57600080fd5b506001600160a01b038135169060200135610ead565b6102896004803603604081101561057a57600080fd5b506001600160a01b0381358116916020013516610f8a565b610350600480360360208110156105a857600080fd5b50356001600160a01b0316610fc4565b610334600480360360208110156105ce57600080fd5b50356001600160a01b0316610fdf565b610350600480360360208110156105f457600080fd5b50356001600160a01b0316611019565b61060c61102b565b6040805167ffffffffffffffff9485168152928416602084015292168183015290519081900360600190f35b61050c611035565b610289600480360361010081101561065757600080fd5b506001600160a01b038135811691602081013590911690604081013590606081013590608081013515159060ff60a0820135169060c08101359060e00135611044565b610289600480360360208110156106b057600080fd5b503561128b565b61029361137f565b610289600480360360208110156106d557600080fd5b50356001600160a01b03166113d9565b6106ed6114e4565b60408051602080825283518183015283519192839290830191858101910280838360005b83811015610729578181015183820152602001610711565b505050509050019250505060405180910390f35b6102896004803603602081101561075357600080fd5b50356001600160a01b03166115ae565b6103346004803603604081101561077957600080fd5b506001600160a01b03813516906020013561160c565b610334600480360360408110156107a557600080fd5b506001600160a01b038135169060200135611618565b610289600480360360408110156107d157600080fd5b506001600160a01b03813516906020013561165b565b610289600480360360408110156107fd57600080fd5b506001600160a01b038135169060200135611724565b6102896004803603606081101561082957600080fd5b506001600160a01b0381358116916020810135909116906040013561172f565b61050c611740565b6103346004803603604081101561086757600080fd5b506001600160a01b03813516906020013561174b565b6103506004803603604081101561089357600080fd5b506001600160a01b03813581169160200135166117d2565b61050c6117fd565b610289600480360360408110156108c957600080fd5b506001600160a01b03813516906020013561180c565b610289600480360360208110156108f557600080fd5b50356001600160a01b0316611817565b610350611837565b6103506004803603604081101561092357600080fd5b506001600160a01b038135811691602001351661183d565b6006546001600160a01b0316331461095257600080fd5b61095b81610fdf565b61096457600080fd5b6001600160a01b038082166000908152600a60205260408120549082905260008051602061209b8339815191525490821691908116806109a357600080fd5b836001600160a01b0316816001600160a01b031614610a02576001600160a01b038082166000908152600a60205260409020549192509081169081148015906109f457506001600160a01b03811615155b6109fd57600080fd5b6109a3565b6001600160a01b038083166000908152600a602052604080822080548488166001600160a01b0319918216179091559287168252902080549091169055600b54610a5390600163ffffffff61185a16565b600b556040516001600160a01b038516907f5d9d5034656cb3ebfb0655057cd7f9b4077a9b42ff42ce223cbac5bc586d212690600090a250505050565b6000805460408051602060026001851615610100026000190190941693909304601f81018490048402820184019092528181529291830182828015610b165780601f10610aeb57610100808354040283529160200191610b16565b820191906000526020600020905b815481529060010190602001808311610af957829003601f168201915b505050505081565b3360008181526005602090815260408083206001600160a01b038716808552908352818420869055815186815291519394909390926000805160206120db833981519152928290030190a350600192915050565b60045490565b600c546000906001600160a01b0384811691161415610b9657600080fd5b600d546001600160a01b0384811691161415610bb157600080fd5b610bbc84848461186c565b949350505050565b6006546001600160a01b03163314610bdb57600080fd5b610be481611a37565b610bed57600080fd5b600c80546001600160a01b0319166001600160a01b0392909216919091179055565b7fea2aa0a1be11a07ed86d755c93467f4f82362b452371d1ba94d1715123511acb81565b60025460ff1681565b60075481565b6000610c4e838361174b565b9392505050565b6000846001600160a01b03811615801590610c7957506001600160a01b0381163014155b610c8257600080fd5b610c8c8686611a3d565b610c9557600080fd5b856001600160a01b0316336001600160a01b03167fe19260aff97b920c7df27010903aeb9c8d2be5d310a2c67824cf3f15396e4c1687878760405180848152602001806020018281038252848482818152602001925080828437600083820152604051601f909101601f1916909201829003965090945050505050a3610d1a86611a37565b15610d6a57610d6133878787878080601f016020809104026020016040519081016040528093929190818152602001838380828437600092019190915250611a4992505050565b610d6a57600080fd5b50600195945050505050565b6006546000906001600160a01b03163314610d9057600080fd5b600454610da3908363ffffffff611bc616565b6004556001600160a01b038316600090815260036020526040902054610dcf908363ffffffff611bc616565b6001600160a01b038416600081815260036020908152604091829020939093558051858152905191927f0f6798a560793a54c3bcfe86a93cde1e73087d944c0ea20544137d412139688592918290030190a26040805183815290516001600160a01b038516916000916000805160206120bb8339815191529181900360200190a350600192915050565b610e633382611bd3565b50565b600a602052600090815260409020546001600160a01b031681565b604051806040016040528060018152602001603160f81b81525081565b600c546001600160a01b031681565b3360009081526005602090815260408083206001600160a01b0386168452909152812054808310610f01573360009081526005602090815260408083206001600160a01b0388168452909152812055610f36565b610f11818463ffffffff61185a16565b3360009081526005602090815260408083206001600160a01b03891684529091529020555b3360008181526005602090815260408083206001600160a01b0389168085529083529281902054815190815290519293926000805160206120db833981519152929181900390910190a35060019392505050565b6006546001600160a01b03163314610fa157600080fd5b806001600160a01b038116610fb557600080fd5b610fbf8383611cc2565b505050565b6001600160a01b031660009081526003602052604090205490565b60006001600160a01b038281161480159061101357506001600160a01b038281166000908152600a60205260409020541615155b92915050565b60086020526000908152604090205481565b6002806000909192565b6006546001600160a01b031681565b6001600160a01b03881661105757600080fd5b6001600160a01b03871661106a57600080fd5b84158061107e57508461107b611cec565b11155b61108757600080fd5b600754604080517fea2aa0a1be11a07ed86d755c93467f4f82362b452371d1ba94d1715123511acb6020808301919091526001600160a01b03808d16838501528b166060830152608082018a905260a0820189905287151560c0808401919091528351808403909101815260e08301845280519082012061190160f01b610100840152610102830194909452610122808301949094528251808303909401845261014282018084528451948201949094206000909452610162820180845284905260ff87166101828301526101a282018690526101c2820185905291516001926101e2808401939192601f1981019281900390910190855afa158015611191573d6000803e3d6000fd5b505050602060405103516001600160a01b0316896001600160a01b0316146111b857600080fd5b6001600160a01b038916600090815260086020526040902080546001810190915587146111e457600080fd5b6000856111f25760006111f6565b6000195b6001600160a01b03808c166000908152600560209081526040808320938e1683529290522081905590508561122c57600061122e565b865b6001600160a01b03808c166000818152600960209081526040808320948f16808452948252918290209490945580518581529051929391926000805160206120db833981519152929181900390910190a350505050505050505050565b600c546001600160a01b031633146112a257600080fd5b806112ac57610e63565b600c546004546001600160a01b03909116906112ce908363ffffffff611bc616565b6004556001600160a01b0381166000908152600360205260409020546112fa908363ffffffff611bc616565b6001600160a01b038216600081815260036020908152604091829020939093558051858152905191927f0f6798a560793a54c3bcfe86a93cde1e73087d944c0ea20544137d412139688592918290030190a26040805183815290516001600160a01b038316916000916000805160206120bb8339815191529181900360200190a35050565b60018054604080516020600284861615610100026000190190941693909304601f81018490048402820184019092528181529291830182828015610b165780601f10610aeb57610100808354040283529160200191610b16565b6006546001600160a01b031633146113f057600080fd5b6032600b54106113ff57600080fd5b61140881611a37565b61141157600080fd5b61141a81610fdf565b1561142457600080fd5b6001600160a01b036000819052600a60205260008051602061209b83398151915254168061145157600080fd5b600a60205260008051602061209b83398151915280546001600160a01b03199081166001600160a01b038581169182179093556000908152604090208054909116918316919091179055600b546114a9906001611bc6565b600b556040516001600160a01b038316907f3cda433c5679ae4c6a5dea50840e222a42cba3695e4663de4366be899348422190600090a25050565b606080600b54604051908082528060200260200182016040528015611513578160200160208202803883390190505b506001600160a01b036000818152600a60205260008051602061209b8339815191525492935091168061154557600080fd5b6001600160a01b03818116146115a6578083838151811061156257fe5b6001600160a01b039283166020918202929092018101919091529181166000908152600a9092526040909120546001929092019116806115a157600080fd5b611545565b509091505090565b6006546001600160a01b031633146115c557600080fd5b6115ce81611a37565b6115d757600080fd5b6115e081610fc4565b156115ea57600080fd5b600d80546001600160a01b0319166001600160a01b0392909216919091179055565b6000610c4e8383610ead565b600c546000906001600160a01b038481169116141561163657600080fd5b600d546001600160a01b038481169116141561165157600080fd5b610c4e8383611cf0565b600d546001600160a01b0316331461167257600080fd5b6001600160a01b03821660009081526003602052604090205461169b908263ffffffff61185a16565b6001600160a01b0380841660009081526003602052604080822093909355600d54909116815220546116d3908263ffffffff611bc616565b600d80546001600160a01b039081166000908152600360209081526040918290209490945591548251858152925190821693918616926000805160206120bb83398151915292908290030190a35050565b610fbf338383610b78565b61173a838383610b78565b50505050565b6001600160a01b0381565b3360009081526005602090815260408083206001600160a01b038616845290915281205461177f908363ffffffff611bc616565b3360008181526005602090815260408083206001600160a01b0389168085529083529281902085905580519485525191936000805160206120db833981519152929081900390910190a350600192915050565b6001600160a01b03918216600090815260056020908152604080832093909416825291909152205490565b600d546001600160a01b031681565b610fbf823383610b78565b6006546001600160a01b0316331461182e57600080fd5b610e6381611d19565b600b5481565b600960209081526000928352604080842090915290825290205481565b60008282111561186657fe5b50900390565b60006001600160a01b03841661188157600080fd5b6001600160a01b03831661189457600080fd5b6001600160a01b0384166000908152600360205260409020546118bd908363ffffffff61185a16565b6001600160a01b0380861660009081526003602052604080822093909355908516815220546118f2908363ffffffff611bc616565b6001600160a01b0380851660008181526003602090815260409182902094909455805186815290519193928816926000805160206120bb83398151915292918290030190a36001600160a01b0384163314611a2257600061195385336117d2565b905060001981146119bd5761196e818463ffffffff61185a16565b6001600160a01b0386166000818152600560209081526040808320338085529083529281902085905580519485525191936000805160206120db833981519152929081900390910190a3611a20565b6001600160a01b03851660009081526009602090815260408083203384529091529020541580611a1757506119f0611cec565b6001600160a01b038616600090815260096020908152604080832033845290915290205410155b611a2057600080fd5b505b611a2d848484611d88565b5060019392505050565b3b151590565b6000610c4e8383611e1f565b600080846001600160a01b031663a4c0ed3660e01b87868660405160240180846001600160a01b03166001600160a01b0316815260200183815260200180602001828103825283818151815260200191508051906020019080838360005b83811015611abf578181015183820152602001611aa7565b50505050905090810190601f168015611aec5780820380516001836020036101000a031916815260200191505b5060408051601f198184030181529181526020820180516001600160e01b03166001600160e01b031990991698909817885251815191979096508695509350915081905083835b60208310611b525780518252601f199092019160209182019101611b33565b6001836020036101000a0380198251168184511680821785525050505050509050019150506000604051808303816000865af19150503d8060008114611bb4576040519150601f19603f3d011682016040523d82523d6000602084013e611bb9565b606091505b5090979650505050505050565b8181018281101561101357fe5b6001600160a01b038216600090815260036020526040902054811115611bf857600080fd5b6001600160a01b038216600090815260036020526040902054611c21908263ffffffff61185a16565b6001600160a01b038316600090815260036020526040902055600454611c4d908263ffffffff61185a16565b6004556040805182815290516001600160a01b038416917fcc16f5dbb4873280815c1ee09dbd06736cffcc184412cf7a71a0fdb75d397ca5919081900360200190a26040805182815290516000916001600160a01b038516916000805160206120bb8339815191529181900360200190a35050565b6001600160a01b038216611cde57611cd981611eec565b611ce8565b611ce88282611f59565b5050565b4290565b6000611cfc8383611a3d565b611d0557600080fd5b611d10338484611d88565b50600192915050565b6001600160a01b038116611d2c57600080fd5b6006546040516001600160a01b038084169216907f8be0079c531659141344cd1fd0a4f28419497f9722a3daafe3b4186f6b6457e090600090a3600680546001600160a01b0319166001600160a01b0392909216919091179055565b611d9182611a37565b8015611db85750604080516000815260208101909152611db690849084908490611a49565b155b15610fbf57611dc682610fdf565b15611dd057600080fd5b604080516001600160a01b0380861682528416602082015280820183905290517f11249f0fc79fc134a15a10d1da8291b79515bf987e036ced05b9ec119614070b9181900360600190a1505050565b33600090815260036020526040812054821115611e3b57600080fd5b6001600160a01b038316611e4e57600080fd5b33600090815260036020526040902054611e6e908363ffffffff61185a16565b33600090815260036020526040808220929092556001600160a01b03851681522054611ea0908363ffffffff611bc616565b6001600160a01b0384166000818152600360209081526040918290209390935580518581529051919233926000805160206120bb8339815191529281900390910190a350600192915050565b6040513031906001600160a01b0383169082156108fc029083906000818181858888f19350505050611ce8578082604051611f269061205c565b6001600160a01b039091168152604051908190036020019082f080158015611f52573d6000803e3d6000fd5b5050505050565b604080516370a0823160e01b8152306004820152905183916000916001600160a01b038416916370a08231916024808301926020929190829003018186803b158015611fa457600080fd5b505afa158015611fb8573d6000803e3d6000fd5b505050506040513d6020811015611fce57600080fd5b5051905061173a848483604080516001600160a01b03841660248201526044808201849052825180830390910181526064909101909152602081810180516001600160e01b031663a9059cbb60e01b1781528251606093600093909290918491828a5af1600051935083925080801561025e575050825115612054578161205457600080fd5b505050505050565b6032806120698339019056fe60806040526040516032380380603283398181016040526020811015602357600080fd5b50516001600160a01b038116fffe665a824d6c9637c955c27384f6bfd3713755a7ec6096f2295495c04388a9a83eddf252ad1be2c89b69c2b068fc378daa952ba7f163c4a11628f55a4df523b3ef8c5be1e5ebec7d5bd14f71427d1e84f3dd0314c0f7b2291e5b200ac8c7c3b925a265627a7a72305820a5df035b000857ba13ff0331491701d7679d7a025b5a81c15f6173791990693f64736f6c634300050a0032454950373132446f6d61696e28737472696e67206e616d652c737472696e672076657273696f6e2c75696e7432353620636861696e49642c6164647265737320766572696679696e67436f6e747261637429",
  "linkReferences": {},
  "deployedLinkReferences": {}
}