{
  "_format": "hh-sol-artifact-1",
  "contractName": "MintableToken",
  "sourceName": "posdao-contracts/contracts/ERC677BridgeTokenRewardable.sol",
  "abi": [
    {
      "constant": false,
      "inputs": [
        {
          "name": "_spender",
          "type": "address"
        },
        {
          "name": "_value",
          "type": "uint256"
        }
      ],
      "name": "approve",
      "outputs": [
        {
          "name": "",
          "type": "bool"
        }
      ],
      "payable": false,
      "stateMutability": "nonpayable",
      "type": "function"
    },
    {
      "constant": true,
      "inputs": [],
      "name": "totalSupply",
      "outputs": [
        {
          "name": "",
          "type": "uint256"
        }
      ],
      "payable": false,
      "stateMutability": "view",
      "type": "function"
    },
    {
      "constant": false,
      "inputs": [
        {
          "name": "_from",
          "type": "address"
        },
        {
          "name": "_to",
          "type": "address"
        },
        {
          "name": "_value",
          "type": "uint256"
        }
      ],
      "name": "transferFrom",
      "outputs": [
        {
          "name": "",
          "type": "bool"
        }
      ],
      "payable": false,
      "stateMutability": "nonpayable",
      "type": "function"
    },
    {
      "constant": false,
      "inputs": [
        {
          "name": "_to",
          "type": "address"
        },
        {
          "name": "_amount",
          "type": "uint256"
        }
      ],
      "name": "mint",
      "outputs": [
        {
          "name": "",
          "type": "bool"
        }
      ],
      "payable": false,
      "stateMutability": "nonpayable",
      "type": "function"
    },
    {
      "constant": false,
      "inputs": [
        {
          "name": "_spender",
          "type": "address"
        },
        {
          "name": "_subtractedValue",
          "type": "uint256"
        }
      ],
      "name": "decreaseApproval",
      "outputs": [
        {
          "name": "",
          "type": "bool"
        }
      ],
      "payable": false,
      "stateMutability": "nonpayable",
      "type": "function"
    },
    {
      "constant": true,
      "inputs": [
        {
          "name": "_owner",
          "type": "address"
        }
      ],
      "name": "balanceOf",
      "outputs": [
        {
          "name": "",
          "type": "uint256"
        }
      ],
      "payable": false,
      "stateMutability": "view",
      "type": "function"
    },
    {
      "constant": true,
      "inputs": [],
      "name": "owner",
      "outputs": [
        {
          "name": "",
          "type": "address"
        }
      ],
      "payable": false,
      "stateMutability": "view",
      "type": "function"
    },
    {
      "constant": false,
      "inputs": [
        {
          "name": "_to",
          "type": "address"
        },
        {
          "name": "_value",
          "type": "uint256"
        }
      ],
      "name": "transfer",
      "outputs": [
        {
          "name": "",
          "type": "bool"
        }
      ],
      "payable": false,
      "stateMutability": "nonpayable",
      "type": "function"
    },
    {
      "constant": false,
      "inputs": [
        {
          "name": "_spender",
          "type": "address"
        },
        {
          "name": "_addedValue",
          "type": "uint256"
        }
      ],
      "name": "increaseApproval",
      "outputs": [
        {
          "name": "",
          "type": "bool"
        }
      ],
      "payable": false,
      "stateMutability": "nonpayable",
      "type": "function"
    },
    {
      "constant": true,
      "inputs": [
        {
          "name": "_owner",
          "type": "address"
        },
        {
          "name": "_spender",
          "type": "address"
        }
      ],
      "name": "allowance",
      "outputs": [
        {
          "name": "",
          "type": "uint256"
        }
      ],
      "payable": false,
      "stateMutability": "view",
      "type": "function"
    },
    {
      "constant": false,
      "inputs": [
        {
          "name": "_newOwner",
          "type": "address"
        }
      ],
      "name": "transferOwnership",
      "outputs": [],
      "payable": false,
      "stateMutability": "nonpayable",
      "type": "function"
    },
    {
      "anonymous": false,
      "inputs": [
        {
          "indexed": true,
          "name": "to",
          "type": "address"
        },
        {
          "indexed": false,
          "name": "amount",
          "type": "uint256"
        }
      ],
      "name": "Mint",
      "type": "event"
    },
    {
      "anonymous": false,
      "inputs": [
        {
          "indexed": true,
          "name": "previousOwner",
          "type": "address"
        },
        {
          "indexed": true,
          "name": "newOwner",
          "type": "address"
        }
      ],
      "name": "OwnershipTransferred",
      "type": "event"
    },
    {
      "anonymous": false,
      "inputs": [
        {
          "indexed": true,
          "name": "owner",
          "type": "address"
        },
        {
          "indexed": true,
          "name": "spender",
          "type": "address"
        },
        {
          "indexed": false,
          "name": "value",
          "type": "uint256"
        }
      ],
      "name": "Approval",
      "type": "event"
    },
    {
      "anonymous": false,
      "inputs": [
        {
          "indexed": true,
          "name": "from",
          "type": "address"
        },
        {
          "indexed": true,
          "name": "to",
          "type": "address"
        },
        {
          "indexed": false,
          "name": "value",
          "type": "uint256"
        }
      ],
      "name": "Transfer",
      "type": "event"
    }
  ],
  "bytecode": "0x6080604052600380546001600160a01b03191633179055610906806100256000396000f3fe608060405234801561001057600080fd5b50600436106100a95760003560e01c806370a082311161007157806370a08231146101965780638da5cb5b146101bc578063a9059cbb146101e0578063d73dd6231461020c578063dd62ed3e14610238578063f2fde38b14610266576100a9565b8063095ea7b3146100ae57806318160ddd146100ee57806323b872dd1461010857806340c10f191461013e578063661884631461016a575b600080fd5b6100da600480360360408110156100c457600080fd5b506001600160a01b03813516906020013561028e565b604080519115158252519081900360200190f35b6100f66102f4565b60408051918252519081900360200190f35b6100da6004803603606081101561011e57600080fd5b506001600160a01b038135811691602081013590911690604001356102fa565b6100da6004803603604081101561015457600080fd5b506001600160a01b03813516906020013561046d565b6100da6004803603604081101561018057600080fd5b506001600160a01b038135169060200135610560565b6100f6600480360360208110156101ac57600080fd5b50356001600160a01b031661064f565b6101c461066a565b604080516001600160a01b039092168252519081900360200190f35b6100da600480360360408110156101f657600080fd5b506001600160a01b038135169060200135610679565b6100da6004803603604081101561022257600080fd5b506001600160a01b038135169060200135610756565b6100f66004803603604081101561024e57600080fd5b506001600160a01b03813581169160200135166107ef565b61028c6004803603602081101561027c57600080fd5b50356001600160a01b031661081a565b005b3360008181526002602090815260408083206001600160a01b038716808552908352818420869055815186815291519394909390927f8c5be1e5ebec7d5bd14f71427d1e84f3dd0314c0f7b2291e5b200ac8c7c3b925928290030190a350600192915050565b60015490565b6001600160a01b03831660009081526020819052604081205482111561031f57600080fd5b6001600160a01b038416600090815260026020908152604080832033845290915290205482111561034f57600080fd5b6001600160a01b03831661036257600080fd5b6001600160a01b03841660009081526020819052604090205461038b908363ffffffff61083d16565b6001600160a01b0380861660009081526020819052604080822093909355908516815220546103c0908363ffffffff61084f16565b6001600160a01b03808516600090815260208181526040808320949094559187168152600282528281203382529091522054610402908363ffffffff61083d16565b6001600160a01b03808616600081815260026020908152604080832033845282529182902094909455805186815290519287169391927fddf252ad1be2c89b69c2b068fc378daa952ba7f163c4a11628f55a4df523b3ef929181900390910190a35060019392505050565b6003546000906001600160a01b0316331461048757600080fd5b60015461049a908363ffffffff61084f16565b6001556001600160a01b0383166000908152602081905260409020546104c6908363ffffffff61084f16565b6001600160a01b03841660008181526020818152604091829020939093558051858152905191927f0f6798a560793a54c3bcfe86a93cde1e73087d944c0ea20544137d412139688592918290030190a26040805183815290516001600160a01b038516916000917fddf252ad1be2c89b69c2b068fc378daa952ba7f163c4a11628f55a4df523b3ef9181900360200190a350600192915050565b3360009081526002602090815260408083206001600160a01b03861684529091528120548083106105b4573360009081526002602090815260408083206001600160a01b03881684529091528120556105e9565b6105c4818463ffffffff61083d16565b3360009081526002602090815260408083206001600160a01b03891684529091529020555b3360008181526002602090815260408083206001600160a01b0389168085529083529281902054815190815290519293927f8c5be1e5ebec7d5bd14f71427d1e84f3dd0314c0f7b2291e5b200ac8c7c3b925929181900390910190a35060019392505050565b6001600160a01b031660009081526020819052604090205490565b6003546001600160a01b031681565b3360009081526020819052604081205482111561069557600080fd5b6001600160a01b0383166106a857600080fd5b336000908152602081905260409020546106c8908363ffffffff61083d16565b33600090815260208190526040808220929092556001600160a01b038516815220546106fa908363ffffffff61084f16565b6001600160a01b038416600081815260208181526040918290209390935580518581529051919233927fddf252ad1be2c89b69c2b068fc378daa952ba7f163c4a11628f55a4df523b3ef9281900390910190a350600192915050565b3360009081526002602090815260408083206001600160a01b038616845290915281205461078a908363ffffffff61084f16565b3360008181526002602090815260408083206001600160a01b0389168085529083529281902085905580519485525191937f8c5be1e5ebec7d5bd14f71427d1e84f3dd0314c0f7b2291e5b200ac8c7c3b925929081900390910190a350600192915050565b6001600160a01b03918216600090815260026020908152604080832093909416825291909152205490565b6003546001600160a01b0316331461083157600080fd5b61083a81610862565b50565b60008282111561084957fe5b50900390565b8181018281101561085c57fe5b92915050565b6001600160a01b03811661087557600080fd5b6003546040516001600160a01b038084169216907f8be0079c531659141344cd1fd0a4f28419497f9722a3daafe3b4186f6b6457e090600090a3600380546001600160a01b0319166001600160a01b039290921691909117905556fea265627a7a72305820a1f9531b037b53118c0b027238973557c3be736f3f05736809c3f765603bcd6564736f6c634300050a0032",
  "linkReferences": {},
  "deployedLinkReferences": {}
}