{
  "_format": "hh-sol-artifact-1",
  "contractName": "ValidatorSetAuRa",
  "sourceName": "posdao-contracts/contracts/ValidatorSetAuRa.sol",
  "abi": [
    {
      "constant": true,
      "inputs": [],
      "name": "validatorsToBeFinalized",
      "outputs": [
        {
          "name": "miningAddresses",
          "type": "address[]"
        },
        {
          "name": "forNewEpoch",
          "type": "bool"
        }
      ],
      "payable": false,
      "stateMutability": "view",
      "type": "function"
    },
    {
      "constant": true,
      "inputs": [
        {
          "name": "",
          "type": "address"
        }
      ],
      "name": "miningByStakingAddress",
      "outputs": [
        {
          "name": "",
          "type": "address"
        }
      ],
      "payable": false,
      "stateMutability": "view",
      "type": "function"
    },
    {
      "constant": false,
      "inputs": [
        {
          "name": "_poolId",
          "type": "uint256"
        },
        {
          "name": "_banUntilBlock",
          "type": "uint256"
        },
        {
          "name": "_reason",
          "type": "bytes32"
        }
      ],
      "name": "removeValidator",
      "outputs": [],
      "payable": false,
      "stateMutability": "nonpayable",
      "type": "function"
    },
    {
      "constant": false,
      "inputs": [
        {
          "name": "_miningAddresses",
          "type": "address[]"
        }
      ],
      "name": "removeMaliciousValidators",
      "outputs": [],
      "payable": false,
      "stateMutability": "nonpayable",
      "type": "function"
    },
    {
      "constant": true,
      "inputs": [],
      "name": "unremovableValidators",
      "outputs": [
        {
          "name": "",
          "type": "uint256[]"
        }
      ],
      "payable": false,
      "stateMutability": "view",
      "type": "function"
    },
    {
      "constant": true,
      "inputs": [],
      "name": "validatorsToBeFinalizedIds",
      "outputs": [
        {
          "name": "",
          "type": "uint256[]"
        }
      ],
      "payable": false,
      "stateMutability": "view",
      "type": "function"
    },
    {
      "constant": true,
      "inputs": [
        {
          "name": "",
          "type": "uint256"
        }
      ],
      "name": "stakingAddressById",
      "outputs": [
        {
          "name": "",
          "type": "address"
        }
      ],
      "payable": false,
      "stateMutability": "view",
      "type": "function"
    },
    {
      "constant": true,
      "inputs": [],
      "name": "initiateChangeAllowed",
      "outputs": [
        {
          "name": "",
          "type": "bool"
        }
      ],
      "payable": false,
      "stateMutability": "view",
      "type": "function"
    },
    {
      "constant": true,
      "inputs": [
        {
          "name": "_miningAddress",
          "type": "address"
        }
      ],
      "name": "bannedDelegatorsUntil",
      "outputs": [
        {
          "name": "",
          "type": "uint256"
        }
      ],
      "payable": false,
      "stateMutability": "view",
      "type": "function"
    },
    {
      "constant": true,
      "inputs": [
        {
          "name": "_miningAddress",
          "type": "address"
        }
      ],
      "name": "banCounter",
      "outputs": [
        {
          "name": "",
          "type": "uint256"
        }
      ],
      "payable": false,
      "stateMutability": "view",
      "type": "function"
    },
    {
      "constant": true,
      "inputs": [
        {
          "name": "",
          "type": "address"
        }
      ],
      "name": "stakingByMiningAddress",
      "outputs": [
        {
          "name": "",
          "type": "address"
        }
      ],
      "payable": false,
      "stateMutability": "view",
      "type": "function"
    },
    {
      "constant": true,
      "inputs": [
        {
          "name": "",
          "type": "address"
        }
      ],
      "name": "idByMiningAddress",
      "outputs": [
        {
          "name": "",
          "type": "uint256"
        }
      ],
      "payable": false,
      "stateMutability": "view",
      "type": "function"
    },
    {
      "constant": false,
      "inputs": [
        {
          "name": "_unremovablePoolId",
          "type": "uint256"
        }
      ],
      "name": "clearUnremovableValidator",
      "outputs": [],
      "payable": false,
      "stateMutability": "nonpayable",
      "type": "function"
    },
    {
      "constant": false,
      "inputs": [
        {
          "name": "_miningAddress",
          "type": "address"
        },
        {
          "name": "_stakingAddress",
          "type": "address"
        },
        {
          "name": "_name",
          "type": "string"
        },
        {
          "name": "_description",
          "type": "string"
        }
      ],
      "name": "addPool",
      "outputs": [
        {
          "name": "",
          "type": "uint256"
        }
      ],
      "payable": false,
      "stateMutability": "nonpayable",
      "type": "function"
    },
    {
      "constant": true,
      "inputs": [
        {
          "name": "",
          "type": "uint256"
        }
      ],
      "name": "poolDescription",
      "outputs": [
        {
          "name": "",
          "type": "string"
        }
      ],
      "payable": false,
      "stateMutability": "view",
      "type": "function"
    },
    {
      "constant": true,
      "inputs": [],
      "name": "isInitialized",
      "outputs": [
        {
          "name": "",
          "type": "bool"
        }
      ],
      "payable": false,
      "stateMutability": "view",
      "type": "function"
    },
    {
      "constant": false,
      "inputs": [
        {
          "name": "_newMiningAddress",
          "type": "address"
        }
      ],
      "name": "changeMiningAddress",
      "outputs": [],
      "payable": false,
      "stateMutability": "nonpayable",
      "type": "function"
    },
    {
      "constant": true,
      "inputs": [],
      "name": "emitInitiateChangeCallable",
      "outputs": [
        {
          "name": "",
          "type": "bool"
        }
      ],
      "payable": false,
      "stateMutability": "view",
      "type": "function"
    },
    {
      "constant": true,
      "inputs": [
        {
          "name": "_poolId",
          "type": "uint256"
        }
      ],
      "name": "isValidatorIdBanned",
      "outputs": [
        {
          "name": "",
          "type": "bool"
        }
      ],
      "payable": false,
      "stateMutability": "view",
      "type": "function"
    },
    {
      "constant": true,
      "inputs": [],
      "name": "blockRewardContract",
      "outputs": [
        {
          "name": "",
          "type": "address"
        }
      ],
      "payable": false,
      "stateMutability": "view",
      "type": "function"
    },
    {
      "constant": true,
      "inputs": [
        {
          "name": "_miningAddress",
          "type": "address"
        }
      ],
      "name": "bannedUntil",
      "outputs": [
        {
          "name": "",
          "type": "uint256"
        }
      ],
      "payable": false,
      "stateMutability": "view",
      "type": "function"
    },
    {
      "constant": false,
      "inputs": [
        {
          "name": "_name",
          "type": "string"
        },
        {
          "name": "_description",
          "type": "string"
        }
      ],
      "name": "changeMetadata",
      "outputs": [],
      "payable": false,
      "stateMutability": "nonpayable",
      "type": "function"
    },
    {
      "constant": false,
      "inputs": [],
      "name": "newValidatorSet",
      "outputs": [],
      "payable": false,
      "stateMutability": "nonpayable",
      "type": "function"
    },
    {
      "constant": true,
      "inputs": [],
      "name": "getPendingValidatorsIds",
      "outputs": [
        {
          "name": "",
          "type": "uint256[]"
        }
      ],
      "payable": false,
      "stateMutability": "view",
      "type": "function"
    },
    {
      "constant": true,
      "inputs": [
        {
          "name": "",
          "type": "address"
        }
      ],
      "name": "hasEverBeenStakingAddress",
      "outputs": [
        {
          "name": "",
          "type": "bool"
        }
      ],
      "payable": false,
      "stateMutability": "view",
      "type": "function"
    },
    {
      "constant": false,
      "inputs": [
        {
          "name": "_blockRewardContract",
          "type": "address"
        },
        {
          "name": "_governanceContract",
          "type": "address"
        },
        {
          "name": "_randomContract",
          "type": "address"
        },
        {
          "name": "_stakingContract",
          "type": "address"
        },
        {
          "name": "_initialMiningAddresses",
          "type": "address[]"
        },
        {
          "name": "_initialStakingAddresses",
          "type": "address[]"
        },
        {
          "name": "_firstValidatorIsUnremovable",
          "type": "bool"
        }
      ],
      "name": "initialize",
      "outputs": [],
      "payable": false,
      "stateMutability": "nonpayable",
      "type": "function"
    },
    {
      "constant": true,
      "inputs": [],
      "name": "unremovableValidator",
      "outputs": [
        {
          "name": "",
          "type": "uint256"
        }
      ],
      "payable": false,
      "stateMutability": "view",
      "type": "function"
    },
    {
      "constant": true,
      "inputs": [],
      "name": "MAX_VALIDATORS",
      "outputs": [
        {
          "name": "",
          "type": "uint256"
        }
      ],
      "payable": false,
      "stateMutability": "view",
      "type": "function"
    },
    {
      "constant": true,
      "inputs": [],
      "name": "lastChangeBlock",
      "outputs": [
        {
          "name": "",
          "type": "uint256"
        }
      ],
      "payable": false,
      "stateMutability": "view",
      "type": "function"
    },
    {
      "constant": false,
      "inputs": [],
      "name": "finalizeChange",
      "outputs": [],
      "payable": false,
      "stateMutability": "nonpayable",
      "type": "function"
    },
    {
      "constant": false,
      "inputs": [
        {
          "name": "_newStakingAddress",
          "type": "address"
        }
      ],
      "name": "changeStakingAddress",
      "outputs": [],
      "payable": false,
      "stateMutability": "nonpayable",
      "type": "function"
    },
    {
      "constant": true,
      "inputs": [
        {
          "name": "",
          "type": "address"
        }
      ],
      "name": "hasEverBeenMiningAddress",
      "outputs": [
        {
          "name": "",
          "type": "uint256"
        }
      ],
      "payable": false,
      "stateMutability": "view",
      "type": "function"
    },
    {
      "constant": true,
      "inputs": [
        {
          "name": "_miningAddress",
          "type": "address"
        },
        {
          "name": "_reportingValidator",
          "type": "bool"
        }
      ],
      "name": "isReportValidatorValid",
      "outputs": [
        {
          "name": "",
          "type": "bool"
        }
      ],
      "payable": false,
      "stateMutability": "view",
      "type": "function"
    },
    {
      "constant": true,
      "inputs": [],
      "name": "miningAddressChangeRequest",
      "outputs": [
        {
          "name": "poolId",
          "type": "uint256"
        },
        {
          "name": "newMiningAddress",
          "type": "address"
        }
      ],
      "payable": false,
      "stateMutability": "view",
      "type": "function"
    },
    {
      "constant": false,
      "inputs": [],
      "name": "emitInitiateChange",
      "outputs": [],
      "payable": false,
      "stateMutability": "nonpayable",
      "type": "function"
    },
    {
      "constant": false,
      "inputs": [
        {
          "name": "_poolId",
          "type": "uint256"
        }
      ],
      "name": "addUnremovableValidator",
      "outputs": [],
      "payable": false,
      "stateMutability": "nonpayable",
      "type": "function"
    },
    {
      "constant": true,
      "inputs": [
        {
          "name": "",
          "type": "uint256"
        }
      ],
      "name": "isValidatorById",
      "outputs": [
        {
          "name": "",
          "type": "bool"
        }
      ],
      "payable": false,
      "stateMutability": "view",
      "type": "function"
    },
    {
      "constant": true,
      "inputs": [
        {
          "name": "",
          "type": "address"
        }
      ],
      "name": "idByStakingAddress",
      "outputs": [
        {
          "name": "",
          "type": "uint256"
        }
      ],
      "payable": false,
      "stateMutability": "view",
      "type": "function"
    },
    {
      "constant": true,
      "inputs": [
        {
          "name": "_poolId",
          "type": "uint256"
        }
      ],
      "name": "isValidatorOrPending",
      "outputs": [
        {
          "name": "",
          "type": "bool"
        }
      ],
      "payable": false,
      "stateMutability": "view",
      "type": "function"
    },
    {
      "constant": true,
      "inputs": [
        {
          "name": "_poolId",
          "type": "uint256"
        }
      ],
      "name": "areIdDelegatorsBanned",
      "outputs": [
        {
          "name": "",
          "type": "bool"
        }
      ],
      "payable": false,
      "stateMutability": "view",
      "type": "function"
    },
    {
      "constant": true,
      "inputs": [],
      "name": "lastPoolId",
      "outputs": [
        {
          "name": "",
          "type": "uint256"
        }
      ],
      "payable": false,
      "stateMutability": "view",
      "type": "function"
    },
    {
      "constant": true,
      "inputs": [
        {
          "name": "_reportingMiningAddress",
          "type": "address"
        },
        {
          "name": "_maliciousMiningAddress",
          "type": "address"
        },
        {
          "name": "_blockNumber",
          "type": "uint256"
        }
      ],
      "name": "reportMaliciousCallable",
      "outputs": [
        {
          "name": "callable",
          "type": "bool"
        },
        {
          "name": "removeReportingValidator",
          "type": "bool"
        }
      ],
      "payable": false,
      "stateMutability": "view",
      "type": "function"
    },
    {
      "constant": true,
      "inputs": [
        {
          "name": "_miningAddress",
          "type": "address"
        }
      ],
      "name": "areDelegatorsBanned",
      "outputs": [
        {
          "name": "",
          "type": "bool"
        }
      ],
      "payable": false,
      "stateMutability": "view",
      "type": "function"
    },
    {
      "constant": true,
      "inputs": [
        {
          "name": "_miningAddress",
          "type": "address"
        }
      ],
      "name": "isValidatorBanned",
      "outputs": [
        {
          "name": "",
          "type": "bool"
        }
      ],
      "payable": false,
      "stateMutability": "view",
      "type": "function"
    },
    {
      "constant": true,
      "inputs": [],
      "name": "governanceContract",
      "outputs": [
        {
          "name": "",
          "type": "address"
        }
      ],
      "payable": false,
      "stateMutability": "view",
      "type": "function"
    },
    {
      "constant": false,
      "inputs": [],
      "name": "initUnremovableValidators",
      "outputs": [],
      "payable": false,
      "stateMutability": "nonpayable",
      "type": "function"
    },
    {
      "constant": true,
      "inputs": [
        {
          "name": "_miningAddress",
          "type": "address"
        }
      ],
      "name": "validatorCounter",
      "outputs": [
        {
          "name": "",
          "type": "uint256"
        }
      ],
      "payable": false,
      "stateMutability": "view",
      "type": "function"
    },
    {
      "constant": true,
      "inputs": [],
      "name": "getValidators",
      "outputs": [
        {
          "name": "",
          "type": "address[]"
        }
      ],
      "payable": false,
      "stateMutability": "view",
      "type": "function"
    },
    {
      "constant": true,
      "inputs": [],
      "name": "validatorSetApplyBlock",
      "outputs": [
        {
          "name": "",
          "type": "uint256"
        }
      ],
      "payable": false,
      "stateMutability": "view",
      "type": "function"
    },
    {
      "constant": false,
      "inputs": [
        {
          "name": "_maliciousMiningAddress",
          "type": "address"
        },
        {
          "name": "_blockNumber",
          "type": "uint256"
        },
        {
          "name": "",
          "type": "bytes"
        }
      ],
      "name": "reportMalicious",
      "outputs": [],
      "payable": false,
      "stateMutability": "nonpayable",
      "type": "function"
    },
    {
      "constant": true,
      "inputs": [
        {
          "name": "_miningAddress",
          "type": "address"
        }
      ],
      "name": "banReason",
      "outputs": [
        {
          "name": "",
          "type": "bytes32"
        }
      ],
      "payable": false,
      "stateMutability": "view",
      "type": "function"
    },
    {
      "constant": true,
      "inputs": [
        {
          "name": "_reportingMiningAddress",
          "type": "address"
        },
        {
          "name": "_maliciousMiningAddress",
          "type": "address"
        },
        {
          "name": "_blockNumber",
          "type": "uint256"
        }
      ],
      "name": "shouldValidatorReport",
      "outputs": [
        {
          "name": "",
          "type": "bool"
        }
      ],
      "payable": false,
      "stateMutability": "view",
      "type": "function"
    },
    {
      "constant": true,
      "inputs": [
        {
          "name": "",
          "type": "uint256"
        }
      ],
      "name": "poolName",
      "outputs": [
        {
          "name": "",
          "type": "string"
        }
      ],
      "payable": false,
      "stateMutability": "view",
      "type": "function"
    },
    {
      "constant": true,
      "inputs": [],
      "name": "randomContract",
      "outputs": [
        {
          "name": "",
          "type": "address"
        }
      ],
      "payable": false,
      "stateMutability": "view",
      "type": "function"
    },
    {
      "constant": false,
      "inputs": [
        {
          "name": "_poolIds",
          "type": "uint256[]"
        }
      ],
      "name": "addUnremovableValidators",
      "outputs": [],
      "payable": false,
      "stateMutability": "nonpayable",
      "type": "function"
    },
    {
      "constant": true,
      "inputs": [],
      "name": "changeRequestCount",
      "outputs": [
        {
          "name": "",
          "type": "uint256"
        }
      ],
      "payable": false,
      "stateMutability": "view",
      "type": "function"
    },
    {
      "constant": true,
      "inputs": [
        {
          "name": "",
          "type": "uint256"
        }
      ],
      "name": "miningAddressById",
      "outputs": [
        {
          "name": "",
          "type": "address"
        }
      ],
      "payable": false,
      "stateMutability": "view",
      "type": "function"
    },
    {
      "constant": true,
      "inputs": [
        {
          "name": "",
          "type": "uint256"
        }
      ],
      "name": "isUnremovableValidator",
      "outputs": [
        {
          "name": "",
          "type": "bool"
        }
      ],
      "payable": false,
      "stateMutability": "view",
      "type": "function"
    },
    {
      "constant": true,
      "inputs": [],
      "name": "stakingContract",
      "outputs": [
        {
          "name": "",
          "type": "address"
        }
      ],
      "payable": false,
      "stateMutability": "view",
      "type": "function"
    },
    {
      "constant": true,
      "inputs": [],
      "name": "getPendingValidators",
      "outputs": [
        {
          "name": "",
          "type": "address[]"
        }
      ],
      "payable": false,
      "stateMutability": "view",
      "type": "function"
    },
    {
      "constant": true,
      "inputs": [
        {
          "name": "_miningAddress",
          "type": "address"
        }
      ],
      "name": "isValidator",
      "outputs": [
        {
          "name": "",
          "type": "bool"
        }
      ],
      "payable": false,
      "stateMutability": "view",
      "type": "function"
    },
    {
      "constant": true,
      "inputs": [],
      "name": "getValidatorsIds",
      "outputs": [
        {
          "name": "",
          "type": "uint256[]"
        }
      ],
      "payable": false,
      "stateMutability": "view",
      "type": "function"
    },
    {
      "anonymous": false,
      "inputs": [
        {
          "indexed": true,
          "name": "poolId",
          "type": "uint256"
        },
        {
          "indexed": true,
          "name": "oldMiningAddress",
          "type": "address"
        },
        {
          "indexed": true,
          "name": "newMiningAddress",
          "type": "address"
        }
      ],
      "name": "ChangedMiningAddress",
      "type": "event"
    },
    {
      "anonymous": false,
      "inputs": [
        {
          "indexed": true,
          "name": "poolId",
          "type": "uint256"
        },
        {
          "indexed": true,
          "name": "oldStakingAddress",
          "type": "address"
        },
        {
          "indexed": true,
          "name": "newStakingAddress",
          "type": "address"
        }
      ],
      "name": "ChangedStakingAddress",
      "type": "event"
    },
    {
      "anonymous": false,
      "inputs": [
        {
          "indexed": true,
          "name": "parentHash",
          "type": "bytes32"
        },
        {
          "indexed": false,
          "name": "newSet",
          "type": "address[]"
        }
      ],
      "name": "InitiateChange",
      "type": "event"
    },
    {
      "anonymous": false,
      "inputs": [
        {
          "indexed": false,
          "name": "reportingValidator",
          "type": "address"
        },
        {
          "indexed": false,
          "name": "maliciousValidator",
          "type": "address"
        },
        {
          "indexed": true,
          "name": "blockNumber",
          "type": "uint256"
        },
        {
          "indexed": true,
          "name": "reportingPoolId",
          "type": "uint256"
        },
        {
          "indexed": true,
          "name": "maliciousPoolId",
          "type": "uint256"
        }
      ],
      "name": "ReportedMalicious",
      "type": "event"
    },
    {
      "anonymous": false,
      "inputs": [
        {
          "indexed": true,
          "name": "poolId",
          "type": "uint256"
        },
        {
          "indexed": false,
          "name": "name",
          "type": "string"
        },
        {
          "indexed": false,
          "name": "description",
          "type": "string"
        }
      ],
      "name": "SetPoolMetadata",
      "type": "event"
    }
  ],
  "bytecode": "0x608060405234801561001057600080fd5b506141f5806100206000396000f3fe608060405234801561001057600080fd5b50600436106103b85760003560e01c806383465b82116101f4578063b41832e41161011a578063cd24327e116100ad578063ee99205c1161007c578063ee99205c14610e29578063eebc7a3914610e31578063facd743b14610e39578063fe54477e14610e5f576103b8565b8063cd24327e14610d79578063d207778214610de7578063e284789514610def578063e717de3a14610e0c576103b8565b8063c9e9694d116100e9578063c9e9694d14610cf8578063cbd2d52814610d1e578063cccf3a0214610d54578063ccf69e9b14610d71576103b8565b8063b41832e414610c3f578063b7ab4db514610c65578063b927ef4314610c6d578063c476dd4014610c75576103b8565b8063a48b042a11610192578063a881c5fd11610161578063a881c5fd14610be3578063a92252ae14610c09578063b172b22214610c2f578063b2c65a1014610c37576103b8565b8063a48b042a14610b50578063a4e01eaa14610b6d578063a657e57914610b8a578063a670eb5614610b92576103b8565b806393b4e25e116101ce57806393b4e25e14610ae857806394f3a24114610af05780639b4a14bf14610b0d578063a26301f914610b2a576103b8565b806383465b8214610a6b5780639184d0ad14610a9157806392d276b414610abf576103b8565b8063392e53cd116102e45780636729c2dc11610277578063714897df11610246578063714897df14610a2d57806374bdb37214610a355780637528621114610a3d57806381db0a4914610a45576103b8565b80636729c2dc1461090f5780636b5ecfd3146109175780636e85d53d1461093d578063704189ca14610a25576103b8565b806356b54bae116102b357806356b54bae1461081b5780635836d08a14610823578063595bddf9146108495780635ccee1de14610907576103b8565b8063392e53cd146107c85780633d34d9ef146107d05780633d3b5458146107f65780634d04481e146107fe576103b8565b80631776dee31161035c5780632bbb7b721161032b5780632bbb7b721461061c5780632f248e3014610642578063374dc77d1461065f578063378bf28b14610736576103b8565b80631776dee31461057c5780631a7fa237146105985780631d0cd4c6146105d05780631ee4d0bc146105f6576103b8565b80630636bdac116103985780630636bdac1461049157806309bee538146104ff5780630bf480c01461055757806316cf66ab1461055f576103b8565b80624a8803146103bd5780625351751461042457806305461c8514610466575b600080fd5b6103c5610e67565b604051808060200183151515158152602001828103825284818151815260200191508051906020019060200280838360005b8381101561040f5781810151838201526020016103f7565b50505050905001935050505060405180910390f35b61044a6004803603602081101561043a57600080fd5b50356001600160a01b0316610f21565b604080516001600160a01b039092168252519081900360200190f35b61048f6004803603606081101561047c57600080fd5b5080359060208101359060400135610f3c565b005b61048f600480360360208110156104a757600080fd5b810190602081018135600160201b8111156104c157600080fd5b8201836020820111156104d357600080fd5b803590602001918460208302840111600160201b831117156104f457600080fd5b50909250905061100d565b610507611073565b60408051602080825283518183015283519192839290830191858101910280838360005b8381101561054357818101518382015260200161052b565b505050509050019250505060405180910390f35b6105076110cc565b61044a6004803603602081101561057557600080fd5b5035611125565b610584611140565b604080519115158252519081900360200190f35b6105be600480360360208110156105ae57600080fd5b50356001600160a01b0316611147565b60408051918252519081900360200190f35b6105be600480360360208110156105e657600080fd5b50356001600160a01b0316611173565b61044a6004803603602081101561060c57600080fd5b50356001600160a01b031661119b565b6105be6004803603602081101561063257600080fd5b50356001600160a01b03166111b6565b61048f6004803603602081101561065857600080fd5b50356111c8565b6105be6004803603608081101561067557600080fd5b6001600160a01b038235811692602081013590911691810190606081016040820135600160201b8111156106a857600080fd5b8201836020820111156106ba57600080fd5b803590602001918460018302840111600160201b831117156106db57600080fd5b919390929091602081019035600160201b8111156106f857600080fd5b82018360208201111561070a57600080fd5b803590602001918460018302840111600160201b8311171561072b57600080fd5b50909250905061134a565b6107536004803603602081101561074c57600080fd5b50356113f1565b6040805160208082528351818301528351919283929083019185019080838360005b8381101561078d578181015183820152602001610775565b50505050905090810190601f1680156107ba5780820380516001836020036101000a031916815260200191505b509250505060405180910390f35b61058461148c565b61048f600480360360208110156107e657600080fd5b50356001600160a01b031661149d565b61058461194d565b6105846004803603602081101561081457600080fd5b503561196a565b61044a61199a565b6105be6004803603602081101561083957600080fd5b50356001600160a01b03166119a9565b61048f6004803603604081101561085f57600080fd5b810190602081018135600160201b81111561087957600080fd5b82018360208201111561088b57600080fd5b803590602001918460018302840111600160201b831117156108ac57600080fd5b919390929091602081019035600160201b8111156108c957600080fd5b8201836020820111156108db57600080fd5b803590602001918460018302840111600160201b831117156108fc57600080fd5b5090925090506119d1565b61048f611a82565b610507611f99565b6105846004803603602081101561092d57600080fd5b50356001600160a01b0316611fef565b61048f600480360360e081101561095357600080fd5b6001600160a01b03823581169260208101358216926040820135831692606083013516919081019060a081016080820135600160201b81111561099557600080fd5b8201836020820111156109a757600080fd5b803590602001918460208302840111600160201b831117156109c857600080fd5b919390929091602081019035600160201b8111156109e557600080fd5b8201836020820111156109f757600080fd5b803590602001918460208302840111600160201b83111715610a1857600080fd5b9193509150351515612004565b6105be61224e565b6105be61227e565b6105be612283565b61048f612289565b61048f60048036036020811015610a5b57600080fd5b50356001600160a01b0316612382565b6105be60048036036020811015610a8157600080fd5b50356001600160a01b03166125a5565b61058460048036036040811015610aa757600080fd5b506001600160a01b03813516906020013515156125b7565b610ac761270a565b604080519283526001600160a01b0390911660208301528051918290030190f35b61048f61271c565b61048f60048036036020811015610b0657600080fd5b5035612805565b61058460048036036020811015610b2357600080fd5b5035612833565b6105be60048036036020811015610b4057600080fd5b50356001600160a01b0316612848565b61058460048036036020811015610b6657600080fd5b503561285a565b61058460048036036020811015610b8357600080fd5b503561290e565b6105be61292d565b610bc860048036036060811015610ba857600080fd5b506001600160a01b03813581169160208101359091169060400135612933565b60408051921515835290151560208301528051918290030190f35b61058460048036036020811015610bf957600080fd5b50356001600160a01b0316612b1f565b61058460048036036020811015610c1f57600080fd5b50356001600160a01b0316612b32565b61044a612b4f565b61048f612b5e565b6105be60048036036020811015610c5557600080fd5b50356001600160a01b0316612d39565b610507612d61565b6105be612e11565b61048f60048036036060811015610c8b57600080fd5b6001600160a01b0382351691602081013591810190606081016040820135600160201b811115610cba57600080fd5b820183602082011115610ccc57600080fd5b803590602001918460018302840111600160201b83111715610ced57600080fd5b509092509050612e17565b6105be60048036036020811015610d0e57600080fd5b50356001600160a01b0316613022565b61058460048036036060811015610d3457600080fd5b506001600160a01b0381358116916020810135909116906040013561304a565b61075360048036036020811015610d6a57600080fd5b5035613104565b61044a61316c565b61048f60048036036020811015610d8f57600080fd5b810190602081018135600160201b811115610da957600080fd5b820183602082011115610dbb57600080fd5b803590602001918460208302840111600160201b83111715610ddc57600080fd5b50909250905061317b565b6105be6131ce565b61044a60048036036020811015610e0557600080fd5b50356131d4565b61058460048036036020811015610e2257600080fd5b50356131ef565b61044a613204565b610507613213565b61058460048036036020811015610e4f57600080fd5b50356001600160a01b03166132be565b6105076132e9565b600454604080518281526020808402820101909152606091600091908015610e99578160200160208202803883390190505b50915060005b8251811015610f1557601e600060036001018381548110610ebc57fe5b9060005260206000200154815260200190815260200160002060009054906101000a90046001600160a01b0316838281518110610ef557fe5b6001600160a01b0390921660209283029190910190910152600101610e9f565b505060035460ff169091565b6010602052600090815260409020546001600160a01b031681565b6025546001600160a01b03163314610f5357600080fd5b60008381526027602052604090205460ff1615610f6f57611008565b6000838152601e60205260409020546001600160a01b0316610f9057600080fd5b81610f9a57600080fd5b600083815260096020526040902054821115610fc25760008381526009602052604090208290555b600083815260086020908152604080832080546001019055600b9091529020819055610fed8361333f565b15610ffc57610ffc600061343e565b61100461347a565b6019555b505050565b6011546001600160a01b0316331461102457600080fd5b61106f828280806020026020016040519081016040528093929190818152602001838360200280828437600092019190915250691d5b9c995d99585b195960b21b925061347e915050565b5050565b606060268054806020026020016040519081016040528092919081815260200182805480156110c157602002820191906000526020600020905b8154815260200190600101908083116110ad575b505050505090505b90565b606060036001018054806020026020016040519081016040528092919081815260200182805480156110c157602002820191906000526020600020908154815260200190600101908083116110ad575050505050905090565b601f602052600090815260409020546001600160a01b031681565b6004541590565b6001600160a01b0381166000908152601c60209081526040808320548352600a9091529020545b919050565b6001600160a01b03166000908152601c60209081526040808320548352600890915290205490565b6014602052600090815260409020546001600160a01b031681565b601c6020526000908152604090205481565b6111d061148c565b6111d957600080fd5b60008181526027602052604090205460ff166111f457600080fd5b6000818152601f60205260409020546001600160a01b031633811480611232575061121d613486565b6001600160a01b0316336001600160a01b0316145b61123b57600080fd5b601554604080516302f248e360e41b81526004810185905290516001600160a01b0390921691632f248e309160248082019260009290919082900301818387803b15801561128857600080fd5b505af115801561129c573d6000803e3d6000fd5b506000925050505b6026548110156113245782602682815481106112bc57fe5b9060005260206000200154141561131c576026805460001981019081106112df57fe5b9060005260206000200154602682815481106112f757fe5b60009182526020909120015560268054906113169060001983016140a6565b50611324565b6001016112a4565b506000828152602760205260409020805460ff1916905561134361347a565b6019555050565b6015546000906001600160a01b0316331461136457600080fd5b600061137088886134ab565b90506113e68187878080601f01602080910402602001604051908101604052809392919081815260200183838082843760009201919091525050604080516020601f8b0181900481028201810190925289815292508991508890819084018382808284376000920191909152506137de92505050565b979650505050505050565b60246020908152600091825260409182902080548351601f6002600019610100600186161502019093169290920491820184900484028101840190945280845290918301828280156114845780601f1061145957610100808354040283529160200191611484565b820191906000526020600020905b81548152906001019060200180831161146757829003601f168201915b505050505081565b600c546001600160a01b0316151590565b6114a561148c565b6114ae57600080fd5b33600081815260106020908152604080832054601d909252909120546001600160a01b039182169184166114e157600080fd5b6001600160a01b0382166114f457600080fd5b836001600160a01b0316826001600160a01b0316141561151357600080fd5b8061151d57600080fd5b6021541561152a57600080fd5b601554604080516322e8c68760e21b81526001600160a01b03878116600483015291519190921691638ba31a1c916024808301926020929190829003018186803b15801561157757600080fd5b505afa15801561158b573d6000803e3d6000fd5b505050506040513d60208110156115a157600080fd5b5051156115ad57600080fd5b6001600160a01b0384166000908152601a6020526040902054156115d057600080fd5b6001600160a01b0384166000908152601b602052604090205460ff16156115f657600080fd5b6000818152600e602052604090205460ff16156118ee57611615611140565b61161e57600080fd5b60055460ff161561162e57600080fd5b6117426116bc6002601160009054906101000a90046001600160a01b03166001600160a01b0316631c77c58c6040518163ffffffff1660e01b815260040160206040518083038186803b15801561168457600080fd5b505afa158015611698573d6000803e3d6000fd5b505050506040513d60208110156116ae57600080fd5b50519063ffffffff61394416565b601560009054906101000a90046001600160a01b03166001600160a01b0316638c2243ae6040518163ffffffff1660e01b815260040160206040518083038186803b15801561170a57600080fd5b505afa15801561171e573d6000803e3d6000fd5b505050506040513d602081101561173457600080fd5b50519063ffffffff61396b16565b61174a61347a565b1061175457600080fd5b606061175e613213565b905060005b81518110156117d357836001600160a01b031682828151811061178257fe5b60200260200101516001600160a01b031614156117cb57858282815181106117a657fe5b60200260200101906001600160a01b031690816001600160a01b0316815250506117d3565b600101611763565b50600180546117e4916004916140ca565b506021829055602280546001600160a01b0319166001600160a01b038781169190911790915560115460408051630b40282360e01b81526004810186905290519190921691630b40282391602480830192600092919082900301818387803b15801561184f57600080fd5b505af1158015611863573d6000803e3d6000fd5b50505050600161187161347a565b03407f55252fa6eee4741b4e24a74a70e9c11fd2c2281df8d6ea13126ff845f7825c89826040518080602001828103825283818151815260200191508051906020019060200280838360005b838110156118d55781810151838201526020016118bd565b505050509050019250505060405180910390a250611906565b6118fa82858386613980565b61190261347a565b6019555b836001600160a01b0316826001600160a01b0316827fad4c947995a3daa512a7371d31325a21227249f8dc1c52c1a4c6fe8475a3ebb160405160405180910390a450505050565b6000611957611140565b8015611965575060055460ff165b905090565b6000818152600960205260408120548061198857600091505061116e565b8061199161347a565b11159392505050565b600c546001600160a01b031681565b6001600160a01b03166000908152601c60209081526040808320548352600990915290205490565b6119d961148c565b6119e257600080fd5b336000908152601d6020526040902054806119fc57600080fd5b611a708186868080601f01602080910402602001604051908101604052809392919081815260200183838082843760009201919091525050604080516020601f8a0181900481028201810190925288815292508891508790819084018382808284376000920191909152506137de92505050565b611a7861347a565b6019555050505050565b600c546001600160a01b03163314611a9957600080fd5b6015546040805163a5d54f6560e01b815290516060926001600160a01b03169163a5d54f65916004808301926000929190829003018186803b158015611ade57600080fd5b505afa158015611af2573d6000803e3d6000fd5b505050506040513d6000823e601f3d908101601f191682016040526020811015611b1b57600080fd5b810190808051600160201b811115611b3257600080fd5b82016020810184811115611b4557600080fd5b81518560208202830111600160201b82111715611b6157600080fd5b505060265490945060009350601310159150611b809050576000611b87565b6026546013035b9050808251118015611b9857508015155b15611e345760115460408051634191031360e11b815290516000926001600160a01b0316916383220626916004808301926020929190829003018186803b158015611be257600080fd5b505afa158015611bf6573d6000803e3d6000fd5b505050506040513d6020811015611c0c57600080fd5b50516015546040805163957950a760e01b815290519293506060926000926001600160a01b03169163957950a79160048083019286929190829003018186803b158015611c5857600080fd5b505afa158015611c6c573d6000803e3d6000fd5b505050506040513d6000823e601f3d908101601f191682016040908152811015611c9557600080fd5b810190808051600160201b811115611cac57600080fd5b82016020810184811115611cbf57600080fd5b81518560208202830111600160201b82111715611cdb57600080fd5b50506020909101518151919550935015801592509050611cfb5750600081115b15611e2c57606084604051908082528060200260200182016040528015611d2c578160200160208202803883390190505b50865190915060005b8251811015611e1f57604080516020808201989098528151808203890181529082019091528051960195909520946000611d70868689613a09565b9050888181518110611d7e57fe5b6020026020010151848381518110611d9257fe5b602002602001018181525050858181518110611daa57fe5b602002602001015185039450828060019003935050888381518110611dcb57fe5b6020026020010151898281518110611ddf57fe5b602002602001018181525050858381518110611df757fe5b6020026020010151868281518110611e0b57fe5b602090810291909101015250600101611d35565b50611e2982613a56565b50505b505050611e3d565b611e3d82613a56565b611e47600161343e565b815115611eb757601560009054906101000a90046001600160a01b03166001600160a01b0316631555371c6040518163ffffffff1660e01b8152600401600060405180830381600087803b158015611e9e57600080fd5b505af1158015611eb2573d6000803e3d6000fd5b505050505b601560009054906101000a90046001600160a01b03166001600160a01b031663ee435f556040518163ffffffff1660e01b8152600401600060405180830381600087803b158015611f0757600080fd5b505af1158015611f1b573d6000803e3d6000fd5b50506015546001600160a01b031691506320d96e469050611f3a61347a565b6001016040518263ffffffff1660e01b815260040180828152602001915050600060405180830381600087803b158015611f7357600080fd5b505af1158015611f87573d6000803e3d6000fd5b5050600060185550611343905061347a565b606060018054806020026020016040519081016040528092919081815260200182805480156110c157602002820191906000526020600020908154815260200190600101908083116110ad575050505050905090565b601b6020526000908152604090205460ff1681565b61200c61347a565b1580612030575061201b613486565b6001600160a01b0316336001600160a01b0316145b61203957600080fd5b61204161148c565b1561204b57600080fd5b6001600160a01b03891661205e57600080fd5b6001600160a01b03871661207157600080fd5b6001600160a01b03861661208457600080fd5b8361208e57600080fd5b83821461209a57600080fd5b60138411156120a857600080fd5b600c80546001600160a01b03808c166001600160a01b031992831617909255602580548b8416908316179055601180548a841690831617905560158054928916929091169190911790556120fa61347a565b60195560005b8481101561224257600086868381811061211657fe5b905060200201356001600160a01b03169050600085858481811061213657fe5b905060200201356001600160a01b03169050600061215483836134ab565b60008054600181810183557f290decd9548b62a8d60345a988386fc84ba6bc95484008f6362f93160ef3e563909101839055805480820182557fb10e2d527612073b26eecdfd717e6a320cf44b4afac2b0732d9fcbe2b7fa0cf601839055828252600e60209081526040808420805460ff1916841790556017909152909120805490910190559050831580156121e75750845b15612237576026805460018181019092557f744a2cf8fd7008e3d53b67916e73460df9fa5214e3ef23dd4259ca09493a3594018290556000828152602760205260409020805460ff191690911790555b505050600101612100565b50505050505050505050565b602654600090612260575060006110c9565b602660008154811061226e57fe5b9060005260206000200154905090565b601381565b60195481565b6002600160a01b03331461229c57600080fd5b60035460ff1615612331576122af613c82565b6122b96001613d3b565b600c60009054906101000a90046001600160a01b03166001600160a01b031663c5dd76286040518163ffffffff1660e01b8152600401600060405180830381600087803b15801561230957600080fd5b505af115801561231d573d6000803e3d6000fd5b5050505061232961347a565b601855612354565b60045415612348576123436000613d3b565b612354565b61235061347a565b6018555b61235c613eaf565b6003805460ff19168155600061237360048261411a565b505061237d61347a565b601955565b61238a61148c565b61239357600080fd5b336000818152601d60205260409020546001600160a01b0383166123b657600080fd5b826001600160a01b0316826001600160a01b031614156123d557600080fd5b806123df57600080fd5b602154156123ec57600080fd5b601554604080516322e8c68760e21b81526001600160a01b03868116600483015291519190921691638ba31a1c916024808301926020929190829003018186803b15801561243957600080fd5b505afa15801561244d573d6000803e3d6000fd5b505050506040513d602081101561246357600080fd5b50511561246f57600080fd5b6001600160a01b0383166000908152601a60205260409020541561249257600080fd5b6001600160a01b0383166000908152601b602052604090205460ff16156124b857600080fd5b6000818152601e60209081526040808320546001600160a01b03868116808652601d85528386208690558882168087528487208890559086526010855283862080546001600160a01b03199081169091558187528487208054821693909416928317909355868652601f855283862080548416821790558186526014855283862080549093168117909255908452601b909252909120805460ff1916600117905561256161347a565b6019556040516001600160a01b03808616919085169084907f5c44164828293bba0353472e907f7ee26a8659f916e6311fe826a7c70510e35290600090a450505050565b601a6020526000908152604090205481565b60008082156125df57506001600160a01b0383166000908152601c60205260409020546125fa565b506001600160a01b0383166000908152601a60205260409020545b6000818152600e602052604081205460ff16801561261e575061261c8261196a565b155b9050601560009054906101000a90046001600160a01b03166001600160a01b031663794c0c686040518163ffffffff1660e01b815260040160206040518083038186803b15801561266e57600080fd5b505afa158015612682573d6000803e3d6000fd5b505050506040513d602081101561269857600080fd5b505115806126a65750601854155b156126b45791506127049050565b60136018546126c161347a565b0311612700576000828152600f602052604081205460ff1680156126eb57506126e98361196a565b155b905081806126f65750805b9350505050612704565b9150505b92915050565b6021546022546001600160a01b031682565b61272461148c565b61272d57600080fd5b61273561194d565b61273e57600080fd5b6000612748613f0e565b6001549091501561280257600161275d61347a565b03407f55252fa6eee4741b4e24a74a70e9c11fd2c2281df8d6ea13126ff845f7825c89612788613213565b60408051602080825283518183015283519192839290830191858101910280838360005b838110156127c45781810151838201526020016127ac565b505050509050019250505060405180910390a2600180546127e7916004916140ca565b506003805460ff19168215151790556127fe61347a565b6019555b50565b61280d613486565b6001600160a01b0316336001600160a01b03161461282a57600080fd5b61280281613f26565b600e6020526000908152604090205460ff1681565b601d6020526000908152604090205481565b6000818152600e602052604081205460ff16156128795750600161116e565b6004546000905b808210156128be57600480548390811061289657fe5b90600052602060002001548414156128b35760019250505061116e565b600190910190612880565b50506001546000905b8082101561290457600182815481106128dc57fe5b90600052602060002001548414156128f95760019250505061116e565b6001909101906128c7565b5060009392505050565b6000818152600a602052604081205461292561347a565b111592915050565b60205481565b6000806129418560016125b7565b61295057506000905080612b17565b61295b8460006125b7565b61296a57506000905080612b17565b6001600160a01b038086166000908152601c60209081526040808320549388168352601a90915281205490546001811115612a825760155460408051630f29818d60e31b815290516000926001600160a01b03169163794c0c68916004808301926020929190829003018186803b1580156129e457600080fd5b505afa1580156129f8573d6000803e3d6000fd5b505050506040513d6020811015612a0e57600080fd5b5051600085815260126020908152604080832084845282528083205460139092528220549293509190828210612a535760018503838303600a0281612a4f57fe5b0490505b8460320283118015612a6457508083115b15612a7d57600060019850985050505050505050612b17565b505050505b6000612a8c61347a565b905080871115612aa6576000809550955050505050612b17565b60648082118015612ab8575080820388105b15612ace57600080965096505050505050612b17565b60008481526007602090815260408083208b8452825280832088845290915290205460ff1615612b0957600080965096505050505050612b17565b600160009650965050505050505b935093915050565b6000612b2a82611147565b61292561347a565b600080612b3e836119a9565b90508061198857600091505061116e565b6025546001600160a01b031681565b612b66613486565b6001600160a01b0316336001600160a01b031614612b8357600080fd5b60265415612b9057600080fd5b601654736a3154a1f55a8faf96dfde75d25eff0c06eb678414612bb257600080fd5b6016805460268054600181810183557f744a2cf8fd7008e3d53b67916e73460df9fa5214e3ef23dd4259ca09493a35949182019390935581548084019092557359be7069745a9820a75aa66357a50a5d7f66ced591018190558254600090815260276020526040808220805460ff1990811686179091559282527f4bf96c2adb0c7a309689f5f3e58c1a880f1b61efb59c1459be862d2666e5acdb8054909316909317909155601554925482516394f3a24160e01b8152600481019190915291516001600160a01b03909316926394f3a24192602480820193929182900301818387803b158015612ca257600080fd5b505af1158015612cb6573d6000803e3d6000fd5b5050601554604080516394f3a24160e01b81527359be7069745a9820a75aa66357a50a5d7f66ced5600482015290516001600160a01b0390921693506394f3a241925060248082019260009290919082900301818387803b158015612d1a57600080fd5b505af1158015612d2e573d6000803e3d6000fd5b505060006016555050565b6001600160a01b03166000908152601c60209081526040808320548352601790915290205490565b606080600080549050604051908082528060200260200182016040528015612d93578160200160208202803883390190505b50905060005b8151811015612e0b57601e6000808381548110612db257fe5b9060005260206000200154815260200190815260200160002060009054906101000a90046001600160a01b0316828281518110612deb57fe5b6001600160a01b0390921660209283029190910190910152600101612d99565b50905090565b60185481565b612e1f61148c565b612e2857600080fd5b336000818152601c60209081526040808320546001600160a01b0389168452601a90925290912054612e5b8360016125b7565b15612e6957612e6982613fff565b600080612e77858a8a612933565b9150915081612ef3578015612ee957604080516001808252818301909252606091602080830190803883390190505090508581600081518110612eb657fe5b60200260200101906001600160a01b031690816001600160a01b031681525050612ee781637370616d60e01b61347e565b505b505050505061301c565b60008381526006602090815260408083208b84528252808320805460018181018355828652848620909101899055878552600784528285208d86528452828520898652845293829020805460ff191690941790935580516001600160a01b03808a1682528d16928101929092528051869288928d927fc98c577e9aca0ce08e747dd843b95214821e69106d6916218997e8a8f357f3189281900390910190a46000548154612fa890600263ffffffff61394416565b111561224257604080516001808252818301909252606091602080830190803883390190505090508a81600081518110612fde57fe5b60200260200101906001600160a01b031690816001600160a01b03168152505061301481686d616c6963696f757360b81b61347e565b505050505050505b50505050565b6001600160a01b03166000908152601c60209081526040808320548352600b90915290205490565b60008061305561347a565b90508060010183111561306c5760009150506130fd565b60648111801561307e57508260648203115b1561308d5760009150506130fd565b6001600160a01b0384166000908152601a60205260409020546130af8161196a565b156130bf576000925050506130fd565b6001600160a01b0386166000908152601c6020908152604080832054938352600782528083208784528252808320938352929052205460ff16159150505b9392505050565b60236020908152600091825260409182902080548351601f6002600019610100600186161502019093169290920491820184900484028101840190945280845290918301828280156114845780601f1061145957610100808354040283529160200191611484565b6011546001600160a01b031681565b613183613486565b6001600160a01b0316336001600160a01b0316146131a057600080fd5b60005b81811015611008576131c68383838181106131ba57fe5b90506020020135613f26565b6001016131a3565b600d5481565b601e602052600090815260409020546001600160a01b031681565b60276020526000908152604090205460ff1681565b6015546001600160a01b031681565b606080600180549050604051908082528060200260200182016040528015613245578160200160208202803883390190505b50905060005b8151811015612e0b57601e60006001838154811061326557fe5b9060005260206000200154815260200190815260200160002060009054906101000a90046001600160a01b031682828151811061329e57fe5b6001600160a01b039092166020928302919091019091015260010161324b565b6001600160a01b03166000908152601c60209081526040808320548352600e90915290205460ff1690565b606060008054806020026020016040519081016040528092919081815260200182805480156110c157602002820191906000526020600020908154815260200190600101908083116110ad575050505050905090565b60155460408051630a38dcbd60e41b81526004810184905290516000926001600160a01b03169163a38dcbd0916024808301928692919082900301818387803b15801561338b57600080fd5b505af115801561339f573d6000803e3d6000fd5b505060018054925082141590506133ba57600091505061116e565b60005b818110156129045783600182815481106133d357fe5b90600052602060002001541415613436576001808303815481106133f357fe5b90600052602060002001546001828154811061340b57fe5b600091825260209091200155600180549061342a9060001983016140a6565b5060019250505061116e565b6001016133bd565b6005805460ff19166001179055808015613459575060015415155b1561346e576005805461ff0019166101001790555b50600d80546001019055565b4390565b61134361347a565b7fb53127684a568b3173ae13b9f8a6016e243e63b6e8ee1178d6a717850b5d61035490565b602154600090156134bb57600080fd5b6001600160a01b0383166134ce57600080fd5b6001600160a01b0382166134e157600080fd5b816001600160a01b0316836001600160a01b0316141561350057600080fd5b6001600160a01b03828116600090815260106020526040902054161561352557600080fd5b6001600160a01b03838116600090815260106020526040902054161561354a57600080fd5b6001600160a01b03828116600090815260146020526040902054161561356f57600080fd5b6001600160a01b03838116600090815260146020526040902054161561359457600080fd5b601554604080516322e8c68760e21b81526001600160a01b03868116600483015291519190921691638ba31a1c916024808301926020929190829003018186803b1580156135e157600080fd5b505afa1580156135f5573d6000803e3d6000fd5b505050506040513d602081101561360b57600080fd5b50511561361757600080fd5b601554604080516322e8c68760e21b81526001600160a01b03858116600483015291519190921691638ba31a1c916024808301926020929190829003018186803b15801561366457600080fd5b505afa158015613678573d6000803e3d6000fd5b505050506040513d602081101561368e57600080fd5b50511561369a57600080fd5b6001600160a01b0383166000908152601a6020526040902054156136bd57600080fd5b6001600160a01b0382166000908152601a6020526040902054156136e057600080fd5b6001600160a01b0383166000908152601b602052604090205460ff161561370657600080fd5b6001600160a01b0382166000908152601b602052604090205460ff161561372c57600080fd5b506020805460019081018083556001600160a01b039485166000818152601c8552604080822084905595909616808752601d8552858720839055828752601e855285872080546001600160a01b03199081168417909155818852601086528688208054821684179055838852601f865286882080548216831790559187526014855285872080549092168117909155601a84528486208290558552601b90925291909220805460ff1916909117905590565b610100825111156137ee57600080fd5b610400815111156137fe57600080fd5b6000838152602360209081526040909120835161381d92850190614138565b506000838152602460209081526040909120825161383d92840190614138565b50827f79a6be597f1291d06b4ccea662f373201edec72cbcc5df2ccfcd74ce9ff4b2e98383604051808060200180602001838103835285818151815260200191508051906020019080838360005b838110156138a357818101518382015260200161388b565b50505050905090810190601f1680156138d05780820380516001836020036101000a031916815260200191505b50838103825284518152845160209182019186019080838360005b838110156139035781810151838201526020016138eb565b50505050905090810190601f1680156139305780820380516001836020036101000a031916815260200191505b5094505050505060405180910390a2505050565b60008261395357506000612704565b8282028284828161396057fe5b04146130fd57600080fd5b60008282111561397a57600080fd5b50900390565b6001600160a01b039384166000818152601c60209081526040808320839055958716808352868320869055858352601e825286832080546001600160a01b0319908116831790915594909716808352601082528683208054861689179055928252601481528582208054851690559581528481208054909316909117909155601a909352912055565b600080838381613a1557fe5b0690506000805b828211613a4857868181518110613a2f57fe5b6020026020010151820191508080600101915050613a1c565b600019019695505050505050565b8051613c1e5760005b600154811015613c1857600060018281548110613a7857fe5b6000918252602080832090910154808352602790915260409091205490915060ff1615613aa55750613c10565b601554604080516317775f1960e31b81526004810184905290516001600160a01b039092169163bbbaf8c891602480820192602092909190829003018186803b158015613af157600080fd5b505afa158015613b05573d6000803e3d6000fd5b505050506040513d6020811015613b1b57600080fd5b50518015613ba55750601554604080516371f87fb360e11b8152600481018490526000602482015290516001600160a01b039092169163e3f0ff6691604480820192602092909190829003018186803b158015613b7757600080fd5b505afa158015613b8b573d6000803e3d6000fd5b505050506040513d6020811015613ba157600080fd5b5051155b15613bb05750613c10565b600180541415613bc05750613c18565b600180546000198101908110613bd257fe5b906000526020600020015460018381548110613bea57fe5b6000918252602090912001556001805490613c099060001983016140a6565b5050600019015b600101613a5f565b50612802565b60268054613c2e916001916140ca565b5060005b815181108015613c4457506001546013115b1561106f576001828281518110613c5757fe5b6020908102919091018101518254600181810185556000948552929093209092019190915501613c32565b60025460005b81811015613cd6576000600f600060028481548110613ca357fe5b60009182526020808320919091015483528201929092526040019020805460ff1916911515919091179055600101613c88565b505060008054905b81811015613d2b576001600f6000808481548110613cf857fe5b60009182526020808320919091015483528201929092526040019020805460ff1916911515919091179055600101613cde565b60008054611008916002916140ca565b6060600080805480602002602001604051908101604052809291908181526020018280548015613d8a57602002820191906000526020600020905b815481526020019060010190808311613d76575b50505050509150600090505b8151811015613de2576000600e6000848481518110613db157fe5b6020908102919091018101518252810191909152604001600020805460ff1916911515919091179055600101613d96565b60048054613df2916000916140ca565b506000805480602002602001604051908101604052809291908181526020018280548015613e3f57602002820191906000526020600020905b815481526020019060010190808311613e2b575b50505050509150600090505b8151811015611008576000828281518110613e6257fe5b6020908102919091018101516000818152600e9092526040909120805460ff1916600117905590508315613ea6576000818152601760205260409020805460010190555b50600101613e4b565b6021548015613ef6576000818152601e6020908152604080832054602254601f9093529220546001600160a01b03928316929182169116613ef283838684613980565b5050505b506000602155602280546001600160a01b0319169055565b6005805461ffff198116909155610100900460ff1690565b60008181526027602052604090205460ff1615613f4257600080fd5b602654601311613f5157600080fd5b6026805460018181019092557f744a2cf8fd7008e3d53b67916e73460df9fa5214e3ef23dd4259ca09493a359401829055600082815260276020526040808220805460ff191690931790925560155482516394f3a24160e01b81526004810185905292516001600160a01b03909116926394f3a24192602480830193919282900301818387803b158015613fe457600080fd5b505af1158015613ff8573d6000803e3d6000fd5b5050505050565b60155460408051630f29818d60e31b815290516000926001600160a01b03169163794c0c68916004808301926020929190829003018186803b15801561404457600080fd5b505afa158015614058573d6000803e3d6000fd5b505050506040513d602081101561406e57600080fd5b505160009283526012602090815260408085209285529181528184208054600190810190915560139091529220805490920190915550565b815481835581811115611008576000838152602090206110089181019083016141a6565b82805482825590600052602060002090810192821561410a5760005260206000209182015b8281111561410a5782548255916001019190600101906140ef565b506141169291506141a6565b5090565b508054600082559060005260206000209081019061280291906141a6565b828054600181600116156101000203166002900490600052602060002090601f016020900481019282601f1061417957805160ff191683800117855561410a565b8280016001018555821561410a579182015b8281111561410a57825182559160200191906001019061418b565b6110c991905b8082111561411657600081556001016141ac56fea265627a7a7230582022efa1e7935b1e23fe1101044a57284200fe619d28c80cb572e9aa5409a18cde64736f6c634300050a0032",
  "linkReferences": {},
  "deployedLinkReferences": {}
}