{
  "_format": "hh-sol-artifact-1",
  "contractName": "ERC677BridgeTokenRewardableMock",
  "sourceName": "posdao-contracts/contracts/mock/ERC677BridgeTokenRewardableMock.sol",
  "abi": [
    {
      "constant": false,
      "inputs": [
        {
          "name": "_bridge",
          "type": "address"
        }
      ],
      "name": "removeBridge",
      "outputs": [],
      "payable": false,
      "stateMutability": "nonpayable",
      "type": "function"
    },
    {
      "constant": true,
      "inputs": [],
      "name": "name",
      "outputs": [
        {
          "name": "",
          "type": "string"
        }
      ],
      "payable": false,
      "stateMutability": "view",
      "type": "function"
    },
    {
      "constant": false,
      "inputs": [
        {
          "name": "_spender",
          "type": "address"
        },
        {
          "name": "_value",
          "type": "uint256"
        }
      ],
      "name": "approve",
      "outputs": [
        {
          "name": "",
          "type": "bool"
        }
      ],
      "payable": false,
      "stateMutability": "nonpayable",
      "type": "function"
    },
    {
      "constant": true,
      "inputs": [],
      "name": "totalSupply",
      "outputs": [
        {
          "name": "",
          "type": "uint256"
        }
      ],
      "payable": false,
      "stateMutability": "view",
      "type": "function"
    },
    {
      "constant": false,
      "inputs": [
        {
          "name": "_from",
          "type": "address"
        },
        {
          "name": "_to",
          "type": "address"
        },
        {
          "name": "_value",
          "type": "uint256"
        }
      ],
      "name": "transferFrom",
      "outputs": [
        {
          "name": "",
          "type": "bool"
        }
      ],
      "payable": false,
      "stateMutability": "nonpayable",
      "type": "function"
    },
    {
      "constant": false,
      "inputs": [
        {
          "name": "_blockRewardContract",
          "type": "address"
        }
      ],
      "name": "setBlockRewardContract",
      "outputs": [],
      "payable": false,
      "stateMutability": "nonpayable",
      "type": "function"
    },
    {
      "constant": true,
      "inputs": [],
      "name": "PERMIT_TYPEHASH",
      "outputs": [
        {
          "name": "",
          "type": "bytes32"
        }
      ],
      "payable": false,
      "stateMutability": "view",
      "type": "function"
    },
    {
      "constant": true,
      "inputs": [],
      "name": "decimals",
      "outputs": [
        {
          "name": "",
          "type": "uint8"
        }
      ],
      "payable": false,
      "stateMutability": "view",
      "type": "function"
    },
    {
      "constant": true,
      "inputs": [],
      "name": "DOMAIN_SEPARATOR",
      "outputs": [
        {
          "name": "",
          "type": "bytes32"
        }
      ],
      "payable": false,
      "stateMutability": "view",
      "type": "function"
    },
    {
      "constant": false,
      "inputs": [
        {
          "name": "spender",
          "type": "address"
        },
        {
          "name": "addedValue",
          "type": "uint256"
        }
      ],
      "name": "increaseAllowance",
      "outputs": [
        {
          "name": "",
          "type": "bool"
        }
      ],
      "payable": false,
      "stateMutability": "nonpayable",
      "type": "function"
    },
    {
      "constant": false,
      "inputs": [
        {
          "name": "_to",
          "type": "address"
        },
        {
          "name": "_value",
          "type": "uint256"
        },
        {
          "name": "_data",
          "type": "bytes"
        }
      ],
      "name": "transferAndCall",
      "outputs": [
        {
          "name": "",
          "type": "bool"
        }
      ],
      "payable": false,
      "stateMutability": "nonpayable",
      "type": "function"
    },
    {
      "constant": false,
      "inputs": [
        {
          "name": "_to",
          "type": "address"
        },
        {
          "name": "_amount",
          "type": "uint256"
        }
      ],
      "name": "mint",
      "outputs": [
        {
          "name": "",
          "type": "bool"
        }
      ],
      "payable": false,
      "stateMutability": "nonpayable",
      "type": "function"
    },
    {
      "constant": false,
      "inputs": [
        {
          "name": "_value",
          "type": "uint256"
        }
      ],
      "name": "burn",
      "outputs": [],
      "payable": false,
      "stateMutability": "nonpayable",
      "type": "function"
    },
    {
      "constant": true,
      "inputs": [
        {
          "name": "",
          "type": "address"
        }
      ],
      "name": "bridgePointers",
      "outputs": [
        {
          "name": "",
          "type": "address"
        }
      ],
      "payable": false,
      "stateMutability": "view",
      "type": "function"
    },
    {
      "constant": true,
      "inputs": [],
      "name": "version",
      "outputs": [
        {
          "name": "",
          "type": "string"
        }
      ],
      "payable": false,
      "stateMutability": "view",
      "type": "function"
    },
    {
      "constant": true,
      "inputs": [],
      "name": "blockRewardContract",
      "outputs": [
        {
          "name": "",
          "type": "address"
        }
      ],
      "payable": false,
      "stateMutability": "view",
      "type": "function"
    },
    {
      "constant": false,
      "inputs": [
        {
          "name": "_spender",
          "type": "address"
        },
        {
          "name": "_subtractedValue",
          "type": "uint256"
        }
      ],
      "name": "decreaseApproval",
      "outputs": [
        {
          "name": "",
          "type": "bool"
        }
      ],
      "payable": false,
      "stateMutability": "nonpayable",
      "type": "function"
    },
    {
      "constant": false,
      "inputs": [
        {
          "name": "_token",
          "type": "address"
        },
        {
          "name": "_to",
          "type": "address"
        }
      ],
      "name": "claimTokens",
      "outputs": [],
      "payable": false,
      "stateMutability": "nonpayable",
      "type": "function"
    },
    {
      "constant": true,
      "inputs": [
        {
          "name": "_owner",
          "type": "address"
        }
      ],
      "name": "balanceOf",
      "outputs": [
        {
          "name": "",
          "type": "uint256"
        }
      ],
      "payable": false,
      "stateMutability": "view",
      "type": "function"
    },
    {
      "constant": true,
      "inputs": [
        {
          "name": "_address",
          "type": "address"
        }
      ],
      "name": "isBridge",
      "outputs": [
        {
          "name": "",
          "type": "bool"
        }
      ],
      "payable": false,
      "stateMutability": "view",
      "type": "function"
    },
    {
      "constant": true,
      "inputs": [
        {
          "name": "",
          "type": "address"
        }
      ],
      "name": "nonces",
      "outputs": [
        {
          "name": "",
          "type": "uint256"
        }
      ],
      "payable": false,
      "stateMutability": "view",
      "type": "function"
    },
    {
      "constant": true,
      "inputs": [],
      "name": "getTokenInterfacesVersion",
      "outputs": [
        {
          "name": "major",
          "type": "uint64"
        },
        {
          "name": "minor",
          "type": "uint64"
        },
        {
          "name": "patch",
          "type": "uint64"
        }
      ],
      "payable": false,
      "stateMutability": "pure",
      "type": "function"
    },
    {
      "constant": true,
      "inputs": [],
      "name": "owner",
      "outputs": [
        {
          "name": "",
          "type": "address"
        }
      ],
      "payable": false,
      "stateMutability": "view",
      "type": "function"
    },
    {
      "constant": false,
      "inputs": [
        {
          "name": "_holder",
          "type": "address"
        },
        {
          "name": "_spender",
          "type": "address"
        },
        {
          "name": "_nonce",
          "type": "uint256"
        },
        {
          "name": "_expiry",
          "type": "uint256"
        },
        {
          "name": "_allowed",
          "type": "bool"
        },
        {
          "name": "_v",
          "type": "uint8"
        },
        {
          "name": "_r",
          "type": "bytes32"
        },
        {
          "name": "_s",
          "type": "bytes32"
        }
      ],
      "name": "permit",
      "outputs": [],
      "payable": false,
      "stateMutability": "nonpayable",
      "type": "function"
    },
    {
      "constant": false,
      "inputs": [
        {
          "name": "_amount",
          "type": "uint256"
        }
      ],
      "name": "mintReward",
      "outputs": [],
      "payable": false,
      "stateMutability": "nonpayable",
      "type": "function"
    },
    {
      "constant": true,
      "inputs": [],
      "name": "symbol",
      "outputs": [
        {
          "name": "",
          "type": "string"
        }
      ],
      "payable": false,
      "stateMutability": "view",
      "type": "function"
    },
    {
      "constant": false,
      "inputs": [
        {
          "name": "_bridge",
          "type": "address"
        }
      ],
      "name": "addBridge",
      "outputs": [],
      "payable": false,
      "stateMutability": "nonpayable",
      "type": "function"
    },
    {
      "constant": true,
      "inputs": [],
      "name": "bridgeList",
      "outputs": [
        {
          "name": "",
          "type": "address[]"
        }
      ],
      "payable": false,
      "stateMutability": "view",
      "type": "function"
    },
    {
      "constant": false,
      "inputs": [
        {
          "name": "_stakingContract",
          "type": "address"
        }
      ],
      "name": "setStakingContract",
      "outputs": [],
      "payable": false,
      "stateMutability": "nonpayable",
      "type": "function"
    },
    {
      "constant": false,
      "inputs": [
        {
          "name": "spender",
          "type": "address"
        },
        {
          "name": "subtractedValue",
          "type": "uint256"
        }
      ],
      "name": "decreaseAllowance",
      "outputs": [
        {
          "name": "",
          "type": "bool"
        }
      ],
      "payable": false,
      "stateMutability": "nonpayable",
      "type": "function"
    },
    {
      "constant": false,
      "inputs": [
        {
          "name": "_to",
          "type": "address"
        },
        {
          "name": "_value",
          "type": "uint256"
        }
      ],
      "name": "transfer",
      "outputs": [
        {
          "name": "",
          "type": "bool"
        }
      ],
      "payable": false,
      "stateMutability": "nonpayable",
      "type": "function"
    },
    {
      "constant": false,
      "inputs": [
        {
          "name": "_staker",
          "type": "address"
        },
        {
          "name": "_amount",
          "type": "uint256"
        }
      ],
      "name": "stake",
      "outputs": [],
      "payable": false,
      "stateMutability": "nonpayable",
      "type": "function"
    },
    {
      "constant": false,
      "inputs": [
        {
          "name": "_to",
          "type": "address"
        },
        {
          "name": "_amount",
          "type": "uint256"
        }
      ],
      "name": "push",
      "outputs": [],
      "payable": false,
      "stateMutability": "nonpayable",
      "type": "function"
    },
    {
      "constant": false,
      "inputs": [
        {
          "name": "_from",
          "type": "address"
        },
        {
          "name": "_to",
          "type": "address"
        },
        {
          "name": "_amount",
          "type": "uint256"
        }
      ],
      "name": "move",
      "outputs": [],
      "payable": false,
      "stateMutability": "nonpayable",
      "type": "function"
    },
    {
      "constant": true,
      "inputs": [],
      "name": "F_ADDR",
      "outputs": [
        {
          "name": "",
          "type": "address"
        }
      ],
      "payable": false,
      "stateMutability": "view",
      "type": "function"
    },
    {
      "constant": false,
      "inputs": [
        {
          "name": "_spender",
          "type": "address"
        },
        {
          "name": "_addedValue",
          "type": "uint256"
        }
      ],
      "name": "increaseApproval",
      "outputs": [
        {
          "name": "",
          "type": "bool"
        }
      ],
      "payable": false,
      "stateMutability": "nonpayable",
      "type": "function"
    },
    {
      "constant": true,
      "inputs": [
        {
          "name": "_owner",
          "type": "address"
        },
        {
          "name": "_spender",
          "type": "address"
        }
      ],
      "name": "allowance",
      "outputs": [
        {
          "name": "",
          "type": "uint256"
        }
      ],
      "payable": false,
      "stateMutability": "view",
      "type": "function"
    },
    {
      "constant": false,
      "inputs": [
        {
          "name": "_timestamp",
          "type": "uint256"
        }
      ],
      "name": "setNow",
      "outputs": [],
      "payable": false,
      "stateMutability": "nonpayable",
      "type": "function"
    },
    {
      "constant": true,
      "inputs": [],
      "name": "stakingContract",
      "outputs": [
        {
          "name": "",
          "type": "address"
        }
      ],
      "payable": false,
      "stateMutability": "view",
      "type": "function"
    },
    {
      "constant": false,
      "inputs": [
        {
          "name": "_from",
          "type": "address"
        },
        {
          "name": "_amount",
          "type": "uint256"
        }
      ],
      "name": "pull",
      "outputs": [],
      "payable": false,
      "stateMutability": "nonpayable",
      "type": "function"
    },
    {
      "constant": false,
      "inputs": [
        {
          "name": "_newOwner",
          "type": "address"
        }
      ],
      "name": "transferOwnership",
      "outputs": [],
      "payable": false,
      "stateMutability": "nonpayable",
      "type": "function"
    },
    {
      "constant": true,
      "inputs": [],
      "name": "bridgeCount",
      "outputs": [
        {
          "name": "",
          "type": "uint256"
        }
      ],
      "payable": false,
      "stateMutability": "view",
      "type": "function"
    },
    {
      "constant": true,
      "inputs": [
        {
          "name": "",
          "type": "address"
        },
        {
          "name": "",
          "type": "address"
        }
      ],
      "name": "expirations",
      "outputs": [
        {
          "name": "",
          "type": "uint256"
        }
      ],
      "payable": false,
      "stateMutability": "view",
      "type": "function"
    },
    {
      "inputs": [
        {
          "name": "_name",
          "type": "string"
        },
        {
          "name": "_symbol",
          "type": "string"
        },
        {
          "name": "_decimals",
          "type": "uint8"
        },
        {
          "name": "_chainId",
          "type": "uint256"
        }
      ],
      "payable": false,
      "stateMutability": "nonpayable",
      "type": "constructor"
    },
    {
      "payable": true,
      "stateMutability": "payable",
      "type": "fallback"
    },
    {
      "anonymous": false,
      "inputs": [
        {
          "indexed": true,
          "name": "bridge",
          "type": "address"
        }
      ],
      "name": "BridgeAdded",
      "type": "event"
    },
    {
      "anonymous": false,
      "inputs": [
        {
          "indexed": true,
          "name": "bridge",
          "type": "address"
        }
      ],
      "name": "BridgeRemoved",
      "type": "event"
    },
    {
      "anonymous": false,
      "inputs": [
        {
          "indexed": false,
          "name": "from",
          "type": "address"
        },
        {
          "indexed": false,
          "name": "to",
          "type": "address"
        },
        {
          "indexed": false,
          "name": "value",
          "type": "uint256"
        }
      ],
      "name": "ContractFallbackCallFailed",
      "type": "event"
    },
    {
      "anonymous": false,
      "inputs": [
        {
          "indexed": true,
          "name": "to",
          "type": "address"
        },
        {
          "indexed": false,
          "name": "amount",
          "type": "uint256"
        }
      ],
      "name": "Mint",
      "type": "event"
    },
    {
      "anonymous": false,
      "inputs": [
        {
          "indexed": true,
          "name": "previousOwner",
          "type": "address"
        },
        {
          "indexed": true,
          "name": "newOwner",
          "type": "address"
        }
      ],
      "name": "OwnershipTransferred",
      "type": "event"
    },
    {
      "anonymous": false,
      "inputs": [
        {
          "indexed": true,
          "name": "burner",
          "type": "address"
        },
        {
          "indexed": false,
          "name": "value",
          "type": "uint256"
        }
      ],
      "name": "Burn",
      "type": "event"
    },
    {
      "anonymous": false,
      "inputs": [
        {
          "indexed": true,
          "name": "from",
          "type": "address"
        },
        {
          "indexed": true,
          "name": "to",
          "type": "address"
        },
        {
          "indexed": false,
          "name": "value",
          "type": "uint256"
        },
        {
          "indexed": false,
          "name": "data",
          "type": "bytes"
        }
      ],
      "name": "Transfer",
      "type": "event"
    },
    {
      "anonymous": false,
      "inputs": [
        {
          "indexed": true,
          "name": "owner",
          "type": "address"
        },
        {
          "indexed": true,
          "name": "spender",
          "type": "address"
        },
        {
          "indexed": false,
          "name": "value",
          "type": "uint256"
        }
      ],
      "name": "Approval",
      "type": "event"
    },
    {
      "anonymous": false,
      "inputs": [
        {
          "indexed": true,
          "name": "from",
          "type": "address"
        },
        {
          "indexed": true,
          "name": "to",
          "type": "address"
        },
        {
          "indexed": false,
          "name": "value",
          "type": "uint256"
        }
      ],
      "name": "Transfer",
      "type": "event"
    }
  ],
  "bytecode": "0x60806040523480156200001157600080fd5b506040516200271338038062002713833981810160405260808110156200003757600080fd5b8101908080516401000000008111156200005057600080fd5b820160208101848111156200006457600080fd5b81516401000000008111828201871017156200007f57600080fd5b505092919060200180516401000000008111156200009c57600080fd5b82016020810184811115620000b057600080fd5b8151640100000000811182820187101715620000cb57600080fd5b5050929190602001805190602001909291908051906020019092919050505083838383838383838383838383838382828282600090805190602001906200011492919062000271565b5081516200012a90600190602085019062000271565b506002805460ff90921660ff199092169190911790555050600680546001600160a01b03191633179055505050806200016257600080fd5b604051806052620026c182396040805191829003605201822087516020988901208383018352600184527f310000000000000000000000000000000000000000000000000000000000000093890193909352815180890191909152808201929092527fc89efdaa54c0f20c7adf612882df0950f5a951637e0307cdcb4c672f298b8bc6606083015260808201939093523060a0808301919091528351808303909101815260c09091019092525080519084012060075550506001600160a01b036000819052600a9091527f665a824d6c9637c955c27384f6bfd3713755a7ec6096f2295495c04388a9a83e80546001600160a01b031916909117905550620003169a5050505050505050505050565b828054600181600116156101000203166002900490600052602060002090601f016020900481019282601f10620002b457805160ff1916838001178555620002e4565b82800160010185558215620002e4579182015b82811115620002e4578251825591602001919060010190620002c7565b50620002f2929150620002f6565b5090565b6200031391905b80821115620002f25760008155600101620002fd565b90565b61239b80620003266000396000f3fe60806040526004361061025c5760003560e01c8063859ba28c11610144578063b753a98c116100b6578063e380ae961161007a578063e380ae9614610a85578063ee99205c14610aaf578063f2d5d56b14610ac4578063f2fde38b14610afd578063fbb2a53f14610b30578063ff9e884d14610b455761025c565b8063b753a98c14610980578063bb35783b146109b9578063c794c769146109fc578063d73dd62314610a11578063dd62ed3e14610a4a5761025c565b80639712fdf8116101085780639712fdf81461080a5780639da38e2f1461083d5780639dd373b9146108a2578063a457c2d7146108d5578063a9059cbb1461090e578063adc9772e146109475761025c565b8063859ba28c1461070e5780638da5cb5b1461074f5780638fcbaf0c1461076457806391c0aabf146107cb57806395d89b41146107f55761025c565b80634000aea0116101dd57806356b54bae116101a157806356b54bae146105ec578063661884631461060157806369ffa08a1461063a57806370a0823114610675578063726600ce146106a85780637ecebe00146106db5761025c565b80634000aea01461049357806340c10f191461052557806342966c681461055e5780634bcb88bc1461058857806354fd4d50146105d75761025c565b806327a3e16b1161022457806327a3e16b146103d257806330adf81f14610405578063313ce5671461041a5780633644e51514610445578063395093511461045a5761025c565b806304df017d1461025e57806306fdde0314610291578063095ea7b31461031b57806318160ddd1461036857806323b872dd1461038f575b005b34801561026a57600080fd5b5061025c6004803603602081101561028157600080fd5b50356001600160a01b0316610b80565b34801561029d57600080fd5b506102a6610cd5565b6040805160208082528351818301528351919283929083019185019080838360005b838110156102e05781810151838201526020016102c8565b50505050905090810190601f16801561030d5780820380516001836020036101000a031916815260200191505b509250505060405180910390f35b34801561032757600080fd5b506103546004803603604081101561033e57600080fd5b506001600160a01b038135169060200135610d63565b604080519115158252519081900360200190f35b34801561037457600080fd5b5061037d610db7565b60408051918252519081900360200190f35b34801561039b57600080fd5b50610354600480360360608110156103b257600080fd5b506001600160a01b03813581169160208101359091169060400135610dbd565b3480156103de57600080fd5b5061025c600480360360208110156103f557600080fd5b50356001600160a01b0316610e09565b34801561041157600080fd5b5061037d610e54565b34801561042657600080fd5b5061042f610e78565b6040805160ff9092168252519081900360200190f35b34801561045157600080fd5b5061037d610e81565b34801561046657600080fd5b506103546004803603604081101561047d57600080fd5b506001600160a01b038135169060200135610e87565b34801561049f57600080fd5b50610354600480360360608110156104b657600080fd5b6001600160a01b03823516916020810135918101906060810160408201356401000000008111156104e657600080fd5b8201836020820111156104f857600080fd5b8035906020019184600183028401116401000000008311171561051a57600080fd5b509092509050610e9a565b34801561053157600080fd5b506103546004803603604081101561054857600080fd5b506001600160a01b038135169060200135610fbb565b34801561056a57600080fd5b5061025c6004803603602081101561058157600080fd5b503561109e565b34801561059457600080fd5b506105bb600480360360208110156105ab57600080fd5b50356001600160a01b03166110ab565b604080516001600160a01b039092168252519081900360200190f35b3480156105e357600080fd5b506102a66110c6565b3480156105f857600080fd5b506105bb6110e3565b34801561060d57600080fd5b506103546004803603604081101561062457600080fd5b506001600160a01b0381351690602001356110f2565b34801561064657600080fd5b5061025c6004803603604081101561065d57600080fd5b506001600160a01b03813581169160200135166111cf565b34801561068157600080fd5b5061037d6004803603602081101561069857600080fd5b50356001600160a01b0316611209565b3480156106b457600080fd5b50610354600480360360208110156106cb57600080fd5b50356001600160a01b0316611224565b3480156106e757600080fd5b5061037d600480360360208110156106fe57600080fd5b50356001600160a01b031661125e565b34801561071a57600080fd5b50610723611270565b6040805167ffffffffffffffff9485168152928416602084015292168183015290519081900360600190f35b34801561075b57600080fd5b506105bb61127a565b34801561077057600080fd5b5061025c600480360361010081101561078857600080fd5b506001600160a01b038135811691602081013590911690604081013590606081013590608081013515159060ff60a0820135169060c08101359060e00135611289565b3480156107d757600080fd5b5061025c600480360360208110156107ee57600080fd5b50356114d0565b34801561080157600080fd5b506102a66115c4565b34801561081657600080fd5b5061025c6004803603602081101561082d57600080fd5b50356001600160a01b031661161e565b34801561084957600080fd5b50610852611729565b60408051602080825283518183015283519192839290830191858101910280838360005b8381101561088e578181015183820152602001610876565b505050509050019250505060405180910390f35b3480156108ae57600080fd5b5061025c600480360360208110156108c557600080fd5b50356001600160a01b03166117f3565b3480156108e157600080fd5b50610354600480360360408110156108f857600080fd5b506001600160a01b038135169060200135611851565b34801561091a57600080fd5b506103546004803603604081101561093157600080fd5b506001600160a01b03813516906020013561185d565b34801561095357600080fd5b5061025c6004803603604081101561096a57600080fd5b506001600160a01b0381351690602001356118a0565b34801561098c57600080fd5b5061025c600480360360408110156109a357600080fd5b506001600160a01b038135169060200135611969565b3480156109c557600080fd5b5061025c600480360360608110156109dc57600080fd5b506001600160a01b03813581169160208101359091169060400135611974565b348015610a0857600080fd5b506105bb611985565b348015610a1d57600080fd5b5061035460048036036040811015610a3457600080fd5b506001600160a01b038135169060200135611990565b348015610a5657600080fd5b5061037d60048036036040811015610a6d57600080fd5b506001600160a01b0381358116916020013516611a17565b348015610a9157600080fd5b5061025c60048036036020811015610aa857600080fd5b5035611a42565b348015610abb57600080fd5b506105bb611a47565b348015610ad057600080fd5b5061025c60048036036040811015610ae757600080fd5b506001600160a01b038135169060200135611a56565b348015610b0957600080fd5b5061025c60048036036020811015610b2057600080fd5b50356001600160a01b0316611a61565b348015610b3c57600080fd5b5061037d611a81565b348015610b5157600080fd5b5061037d60048036036040811015610b6857600080fd5b506001600160a01b0381358116916020013516611a87565b6006546001600160a01b03163314610b9757600080fd5b610ba081611224565b610ba957600080fd5b6001600160a01b038082166000908152600a602052604081205490829052600080516020612307833981519152549082169190811680610be857600080fd5b836001600160a01b0316816001600160a01b031614610c47576001600160a01b038082166000908152600a6020526040902054919250908116908114801590610c3957506001600160a01b03811615155b610c4257600080fd5b610be8565b6001600160a01b038083166000908152600a602052604080822080548488166001600160a01b0319918216179091559287168252902080549091169055600b54610c9890600163ffffffff611aa416565b600b556040516001600160a01b038516907f5d9d5034656cb3ebfb0655057cd7f9b4077a9b42ff42ce223cbac5bc586d212690600090a250505050565b6000805460408051602060026001851615610100026000190190941693909304601f81018490048402820184019092528181529291830182828015610d5b5780601f10610d3057610100808354040283529160200191610d5b565b820191906000526020600020905b815481529060010190602001808311610d3e57829003601f168201915b505050505081565b3360008181526005602090815260408083206001600160a01b03871680855290835281842086905581518681529151939490939092600080516020612347833981519152928290030190a350600192915050565b60045490565b600c546000906001600160a01b0384811691161415610ddb57600080fd5b600d546001600160a01b0384811691161415610df657600080fd5b610e01848484611ab6565b949350505050565b6006546001600160a01b03163314610e2057600080fd5b610e2981611c81565b610e3257600080fd5b600c80546001600160a01b0319166001600160a01b0392909216919091179055565b7fea2aa0a1be11a07ed86d755c93467f4f82362b452371d1ba94d1715123511acb81565b60025460ff1681565b60075481565b6000610e938383611990565b9392505050565b6000846001600160a01b03811615801590610ebe57506001600160a01b0381163014155b610ec757600080fd5b610ed18686611c87565b610eda57600080fd5b856001600160a01b0316336001600160a01b03167fe19260aff97b920c7df27010903aeb9c8d2be5d310a2c67824cf3f15396e4c1687878760405180848152602001806020018281038252848482818152602001925080828437600083820152604051601f909101601f1916909201829003965090945050505050a3610f5f86611c81565b15610faf57610fa633878787878080601f016020809104026020016040519081016040528093929190818152602001838380828437600092019190915250611c9392505050565b610faf57600080fd5b50600195945050505050565b6006546000906001600160a01b03163314610fd557600080fd5b600454610fe8908363ffffffff611e1016565b6004556001600160a01b038316600090815260036020526040902054611014908363ffffffff611e1016565b6001600160a01b038416600081815260036020908152604091829020939093558051858152905191927f0f6798a560793a54c3bcfe86a93cde1e73087d944c0ea20544137d412139688592918290030190a26040805183815290516001600160a01b038516916000916000805160206123278339815191529181900360200190a350600192915050565b6110a83382611e1d565b50565b600a602052600090815260409020546001600160a01b031681565b604051806040016040528060018152602001603160f81b81525081565b600c546001600160a01b031681565b3360009081526005602090815260408083206001600160a01b0386168452909152812054808310611146573360009081526005602090815260408083206001600160a01b038816845290915281205561117b565b611156818463ffffffff611aa416565b3360009081526005602090815260408083206001600160a01b03891684529091529020555b3360008181526005602090815260408083206001600160a01b038916808552908352928190205481519081529051929392600080516020612347833981519152929181900390910190a35060019392505050565b6006546001600160a01b031633146111e657600080fd5b806001600160a01b0381166111fa57600080fd5b6112048383611f0c565b505050565b6001600160a01b031660009081526003602052604090205490565b60006001600160a01b038281161480159061125857506001600160a01b038281166000908152600a60205260409020541615155b92915050565b60086020526000908152604090205481565b6002806000909192565b6006546001600160a01b031681565b6001600160a01b03881661129c57600080fd5b6001600160a01b0387166112af57600080fd5b8415806112c35750846112c0611f36565b11155b6112cc57600080fd5b600754604080517fea2aa0a1be11a07ed86d755c93467f4f82362b452371d1ba94d1715123511acb6020808301919091526001600160a01b03808d16838501528b166060830152608082018a905260a0820189905287151560c0808401919091528351808403909101815260e08301845280519082012061190160f01b610100840152610102830194909452610122808301949094528251808303909401845261014282018084528451948201949094206000909452610162820180845284905260ff87166101828301526101a282018690526101c2820185905291516001926101e2808401939192601f1981019281900390910190855afa1580156113d6573d6000803e3d6000fd5b505050602060405103516001600160a01b0316896001600160a01b0316146113fd57600080fd5b6001600160a01b0389166000908152600860205260409020805460018101909155871461142957600080fd5b60008561143757600061143b565b6000195b6001600160a01b03808c166000908152600560209081526040808320938e16835292905220819055905085611471576000611473565b865b6001600160a01b03808c166000818152600960209081526040808320948f1680845294825291829020949094558051858152905192939192600080516020612347833981519152929181900390910190a350505050505050505050565b600c546001600160a01b031633146114e757600080fd5b806114f1576110a8565b600c546004546001600160a01b0390911690611513908363ffffffff611e1016565b6004556001600160a01b03811660009081526003602052604090205461153f908363ffffffff611e1016565b6001600160a01b038216600081815260036020908152604091829020939093558051858152905191927f0f6798a560793a54c3bcfe86a93cde1e73087d944c0ea20544137d412139688592918290030190a26040805183815290516001600160a01b038316916000916000805160206123278339815191529181900360200190a35050565b60018054604080516020600284861615610100026000190190941693909304601f81018490048402820184019092528181529291830182828015610d5b5780601f10610d3057610100808354040283529160200191610d5b565b6006546001600160a01b0316331461163557600080fd5b6032600b541061164457600080fd5b61164d81611c81565b61165657600080fd5b61165f81611224565b1561166957600080fd5b6001600160a01b036000819052600a60205260008051602061230783398151915254168061169657600080fd5b600a60205260008051602061230783398151915280546001600160a01b03199081166001600160a01b038581169182179093556000908152604090208054909116918316919091179055600b546116ee906001611e10565b600b556040516001600160a01b038316907f3cda433c5679ae4c6a5dea50840e222a42cba3695e4663de4366be899348422190600090a25050565b606080600b54604051908082528060200260200182016040528015611758578160200160208202803883390190505b506001600160a01b036000818152600a6020526000805160206123078339815191525492935091168061178a57600080fd5b6001600160a01b03818116146117eb57808383815181106117a757fe5b6001600160a01b039283166020918202929092018101919091529181166000908152600a9092526040909120546001929092019116806117e657600080fd5b61178a565b509091505090565b6006546001600160a01b0316331461180a57600080fd5b61181381611c81565b61181c57600080fd5b61182581611209565b1561182f57600080fd5b600d80546001600160a01b0319166001600160a01b0392909216919091179055565b6000610e9383836110f2565b600c546000906001600160a01b038481169116141561187b57600080fd5b600d546001600160a01b038481169116141561189657600080fd5b610e938383611f52565b600d546001600160a01b031633146118b757600080fd5b6001600160a01b0382166000908152600360205260409020546118e0908263ffffffff611aa416565b6001600160a01b0380841660009081526003602052604080822093909355600d5490911681522054611918908263ffffffff611e1016565b600d80546001600160a01b0390811660009081526003602090815260409182902094909455915482518581529251908216939186169260008051602061232783398151915292908290030190a35050565b611204338383610dbd565b61197f838383610dbd565b50505050565b6001600160a01b0381565b3360009081526005602090815260408083206001600160a01b03861684529091528120546119c4908363ffffffff611e1016565b3360008181526005602090815260408083206001600160a01b038916808552908352928190208590558051948552519193600080516020612347833981519152929081900390910190a350600192915050565b6001600160a01b03918216600090815260056020908152604080832093909416825291909152205490565b600e55565b600d546001600160a01b031681565b611204823383610dbd565b6006546001600160a01b03163314611a7857600080fd5b6110a881611f7b565b600b5481565b600960209081526000928352604080842090915290825290205481565b600082821115611ab057fe5b50900390565b60006001600160a01b038416611acb57600080fd5b6001600160a01b038316611ade57600080fd5b6001600160a01b038416600090815260036020526040902054611b07908363ffffffff611aa416565b6001600160a01b038086166000908152600360205260408082209390935590851681522054611b3c908363ffffffff611e1016565b6001600160a01b03808516600081815260036020908152604091829020949094558051868152905191939288169260008051602061232783398151915292918290030190a36001600160a01b0384163314611c6c576000611b9d8533611a17565b90506000198114611c0757611bb8818463ffffffff611aa416565b6001600160a01b038616600081815260056020908152604080832033808552908352928190208590558051948552519193600080516020612347833981519152929081900390910190a3611c6a565b6001600160a01b03851660009081526009602090815260408083203384529091529020541580611c615750611c3a611f36565b6001600160a01b038616600090815260096020908152604080832033845290915290205410155b611c6a57600080fd5b505b611c77848484611fea565b5060019392505050565b3b151590565b6000610e938383612081565b600080846001600160a01b031663a4c0ed3660e01b87868660405160240180846001600160a01b03166001600160a01b0316815260200183815260200180602001828103825283818151815260200191508051906020019080838360005b83811015611d09578181015183820152602001611cf1565b50505050905090810190601f168015611d365780820380516001836020036101000a031916815260200191505b5060408051601f198184030181529181526020820180516001600160e01b03166001600160e01b031990991698909817885251815191979096508695509350915081905083835b60208310611d9c5780518252601f199092019160209182019101611d7d565b6001836020036101000a0380198251168184511680821785525050505050509050019150506000604051808303816000865af19150503d8060008114611dfe576040519150601f19603f3d011682016040523d82523d6000602084013e611e03565b606091505b5090979650505050505050565b8181018281101561125857fe5b6001600160a01b038216600090815260036020526040902054811115611e4257600080fd5b6001600160a01b038216600090815260036020526040902054611e6b908263ffffffff611aa416565b6001600160a01b038316600090815260036020526040902055600454611e97908263ffffffff611aa416565b6004556040805182815290516001600160a01b038416917fcc16f5dbb4873280815c1ee09dbd06736cffcc184412cf7a71a0fdb75d397ca5919081900360200190a26040805182815290516000916001600160a01b038516916000805160206123278339815191529181900360200190a35050565b6001600160a01b038216611f2857611f238161214e565b611f32565b611f3282826121bb565b5050565b6000600e5460001415611f495742611f4d565b600e545b905090565b6000611f5e8383611c87565b611f6757600080fd5b611f72338484611fea565b50600192915050565b6001600160a01b038116611f8e57600080fd5b6006546040516001600160a01b038084169216907f8be0079c531659141344cd1fd0a4f28419497f9722a3daafe3b4186f6b6457e090600090a3600680546001600160a01b0319166001600160a01b0392909216919091179055565b611ff382611c81565b801561201a575060408051600081526020810190915261201890849084908490611c93565b155b156112045761202882611224565b1561203257600080fd5b604080516001600160a01b0380861682528416602082015280820183905290517f11249f0fc79fc134a15a10d1da8291b79515bf987e036ced05b9ec119614070b9181900360600190a1505050565b3360009081526003602052604081205482111561209d57600080fd5b6001600160a01b0383166120b057600080fd5b336000908152600360205260409020546120d0908363ffffffff611aa416565b33600090815260036020526040808220929092556001600160a01b03851681522054612102908363ffffffff611e1016565b6001600160a01b0384166000818152600360209081526040918290209390935580518581529051919233926000805160206123278339815191529281900390910190a350600192915050565b6040513031906001600160a01b0383169082156108fc029083906000818181858888f19350505050611f32578082604051612188906122c8565b6001600160a01b039091168152604051908190036020019082f0801580156121b4573d6000803e3d6000fd5b5050505050565b604080516370a0823160e01b8152306004820152905183916000916001600160a01b038416916370a08231916024808301926020929190829003018186803b15801561220657600080fd5b505afa15801561221a573d6000803e3d6000fd5b505050506040513d602081101561223057600080fd5b5051905061197f848483604080516001600160a01b03841660248201526044808201849052825180830390910181526064909101909152602081810180516001600160e01b031663a9059cbb60e01b1781528251606093600093909290918491828a5af160005193508392508080156122a8576122ad565b600080fd5b50508251156122c057816122c057600080fd5b505050505050565b6032806122d58339019056fe60806040526040516032380380603283398181016040526020811015602357600080fd5b50516001600160a01b038116fffe665a824d6c9637c955c27384f6bfd3713755a7ec6096f2295495c04388a9a83eddf252ad1be2c89b69c2b068fc378daa952ba7f163c4a11628f55a4df523b3ef8c5be1e5ebec7d5bd14f71427d1e84f3dd0314c0f7b2291e5b200ac8c7c3b925a265627a7a723058203a52a9557daccd415b4b091e5360f8a9c2e0d1a155f3e1843ec9be70d603f85564736f6c634300050a0032454950373132446f6d61696e28737472696e67206e616d652c737472696e672076657273696f6e2c75696e7432353620636861696e49642c6164647265737320766572696679696e67436f6e747261637429",
  "linkReferences": {},
  "deployedLinkReferences": {}
}