{
  "_format": "hh-sol-artifact-1",
  "contractName": "Registry",
  "sourceName": "posdao-contracts/contracts/Registry.sol",
  "abi": [
    {
      "constant": true,
      "inputs": [
        {
          "name": "_data",
          "type": "address"
        }
      ],
      "name": "canReverse",
      "outputs": [
        {
          "name": "",
          "type": "bool"
        }
      ],
      "payable": false,
      "stateMutability": "view",
      "type": "function"
    },
    {
      "constant": false,
      "inputs": [
        {
          "name": "_new",
          "type": "address"
        }
      ],
      "name": "setOwner",
      "outputs": [],
      "payable": false,
      "stateMutability": "nonpayable",
      "type": "function"
    },
    {
      "constant": false,
      "inputs": [
        {
          "name": "_name",
          "type": "bytes32"
        },
        {
          "name": "_key",
          "type": "string"
        },
        {
          "name": "_value",
          "type": "bytes32"
        }
      ],
      "name": "setData",
      "outputs": [
        {
          "name": "success",
          "type": "bool"
        }
      ],
      "payable": false,
      "stateMutability": "nonpayable",
      "type": "function"
    },
    {
      "constant": false,
      "inputs": [
        {
          "name": "_name",
          "type": "string"
        }
      ],
      "name": "confirmReverse",
      "outputs": [
        {
          "name": "success",
          "type": "bool"
        }
      ],
      "payable": false,
      "stateMutability": "nonpayable",
      "type": "function"
    },
    {
      "constant": false,
      "inputs": [
        {
          "name": "_name",
          "type": "bytes32"
        }
      ],
      "name": "reserve",
      "outputs": [
        {
          "name": "success",
          "type": "bool"
        }
      ],
      "payable": true,
      "stateMutability": "payable",
      "type": "function"
    },
    {
      "constant": false,
      "inputs": [
        {
          "name": "_name",
          "type": "bytes32"
        }
      ],
      "name": "drop",
      "outputs": [
        {
          "name": "success",
          "type": "bool"
        }
      ],
      "payable": false,
      "stateMutability": "nonpayable",
      "type": "function"
    },
    {
      "constant": true,
      "inputs": [
        {
          "name": "_name",
          "type": "bytes32"
        },
        {
          "name": "_key",
          "type": "string"
        }
      ],
      "name": "getAddress",
      "outputs": [
        {
          "name": "",
          "type": "address"
        }
      ],
      "payable": false,
      "stateMutability": "view",
      "type": "function"
    },
    {
      "constant": false,
      "inputs": [
        {
          "name": "_amount",
          "type": "uint256"
        }
      ],
      "name": "setFee",
      "outputs": [
        {
          "name": "",
          "type": "bool"
        }
      ],
      "payable": false,
      "stateMutability": "nonpayable",
      "type": "function"
    },
    {
      "constant": false,
      "inputs": [
        {
          "name": "_name",
          "type": "bytes32"
        },
        {
          "name": "_to",
          "type": "address"
        }
      ],
      "name": "transfer",
      "outputs": [
        {
          "name": "success",
          "type": "bool"
        }
      ],
      "payable": false,
      "stateMutability": "nonpayable",
      "type": "function"
    },
    {
      "constant": true,
      "inputs": [],
      "name": "owner",
      "outputs": [
        {
          "name": "",
          "type": "address"
        }
      ],
      "payable": false,
      "stateMutability": "view",
      "type": "function"
    },
    {
      "constant": true,
      "inputs": [
        {
          "name": "_name",
          "type": "bytes32"
        },
        {
          "name": "_key",
          "type": "string"
        }
      ],
      "name": "getData",
      "outputs": [
        {
          "name": "",
          "type": "bytes32"
        }
      ],
      "payable": false,
      "stateMutability": "view",
      "type": "function"
    },
    {
      "constant": true,
      "inputs": [
        {
          "name": "_name",
          "type": "bytes32"
        }
      ],
      "name": "reserved",
      "outputs": [
        {
          "name": "",
          "type": "bool"
        }
      ],
      "payable": false,
      "stateMutability": "view",
      "type": "function"
    },
    {
      "constant": false,
      "inputs": [],
      "name": "drain",
      "outputs": [
        {
          "name": "",
          "type": "bool"
        }
      ],
      "payable": false,
      "stateMutability": "nonpayable",
      "type": "function"
    },
    {
      "constant": false,
      "inputs": [
        {
          "name": "_name",
          "type": "string"
        },
        {
          "name": "_who",
          "type": "address"
        }
      ],
      "name": "proposeReverse",
      "outputs": [
        {
          "name": "success",
          "type": "bool"
        }
      ],
      "payable": false,
      "stateMutability": "nonpayable",
      "type": "function"
    },
    {
      "constant": true,
      "inputs": [
        {
          "name": "_name",
          "type": "bytes32"
        }
      ],
      "name": "hasReverse",
      "outputs": [
        {
          "name": "",
          "type": "bool"
        }
      ],
      "payable": false,
      "stateMutability": "view",
      "type": "function"
    },
    {
      "constant": true,
      "inputs": [
        {
          "name": "_name",
          "type": "bytes32"
        },
        {
          "name": "_key",
          "type": "string"
        }
      ],
      "name": "getUint",
      "outputs": [
        {
          "name": "",
          "type": "uint256"
        }
      ],
      "payable": false,
      "stateMutability": "view",
      "type": "function"
    },
    {
      "constant": true,
      "inputs": [],
      "name": "fee",
      "outputs": [
        {
          "name": "",
          "type": "uint256"
        }
      ],
      "payable": false,
      "stateMutability": "view",
      "type": "function"
    },
    {
      "constant": true,
      "inputs": [
        {
          "name": "_name",
          "type": "bytes32"
        }
      ],
      "name": "getOwner",
      "outputs": [
        {
          "name": "",
          "type": "address"
        }
      ],
      "payable": false,
      "stateMutability": "view",
      "type": "function"
    },
    {
      "constant": true,
      "inputs": [
        {
          "name": "_name",
          "type": "bytes32"
        }
      ],
      "name": "getReverse",
      "outputs": [
        {
          "name": "",
          "type": "address"
        }
      ],
      "payable": false,
      "stateMutability": "view",
      "type": "function"
    },
    {
      "constant": true,
      "inputs": [
        {
          "name": "_data",
          "type": "address"
        }
      ],
      "name": "reverse",
      "outputs": [
        {
          "name": "",
          "type": "string"
        }
      ],
      "payable": false,
      "stateMutability": "view",
      "type": "function"
    },
    {
      "constant": false,
      "inputs": [
        {
          "name": "_name",
          "type": "bytes32"
        },
        {
          "name": "_key",
          "type": "string"
        },
        {
          "name": "_value",
          "type": "uint256"
        }
      ],
      "name": "setUint",
      "outputs": [
        {
          "name": "success",
          "type": "bool"
        }
      ],
      "payable": false,
      "stateMutability": "nonpayable",
      "type": "function"
    },
    {
      "constant": false,
      "inputs": [
        {
          "name": "_name",
          "type": "string"
        },
        {
          "name": "_who",
          "type": "address"
        }
      ],
      "name": "confirmReverseAs",
      "outputs": [
        {
          "name": "success",
          "type": "bool"
        }
      ],
      "payable": false,
      "stateMutability": "nonpayable",
      "type": "function"
    },
    {
      "constant": false,
      "inputs": [],
      "name": "removeReverse",
      "outputs": [],
      "payable": false,
      "stateMutability": "nonpayable",
      "type": "function"
    },
    {
      "constant": false,
      "inputs": [
        {
          "name": "_name",
          "type": "bytes32"
        },
        {
          "name": "_key",
          "type": "string"
        },
        {
          "name": "_value",
          "type": "address"
        }
      ],
      "name": "setAddress",
      "outputs": [
        {
          "name": "success",
          "type": "bool"
        }
      ],
      "payable": false,
      "stateMutability": "nonpayable",
      "type": "function"
    },
    {
      "inputs": [
        {
          "name": "_certifierContract",
          "type": "address"
        },
        {
          "name": "_owner",
          "type": "address"
        }
      ],
      "payable": false,
      "stateMutability": "nonpayable",
      "type": "constructor"
    },
    {
      "anonymous": false,
      "inputs": [
        {
          "indexed": false,
          "name": "amount",
          "type": "uint256"
        }
      ],
      "name": "Drained",
      "type": "event"
    },
    {
      "anonymous": false,
      "inputs": [
        {
          "indexed": false,
          "name": "amount",
          "type": "uint256"
        }
      ],
      "name": "FeeChanged",
      "type": "event"
    },
    {
      "anonymous": false,
      "inputs": [
        {
          "indexed": false,
          "name": "name",
          "type": "string"
        },
        {
          "indexed": true,
          "name": "reverse",
          "type": "address"
        }
      ],
      "name": "ReverseProposed",
      "type": "event"
    },
    {
      "anonymous": false,
      "inputs": [
        {
          "indexed": false,
          "name": "name",
          "type": "string"
        },
        {
          "indexed": true,
          "name": "reverse",
          "type": "address"
        }
      ],
      "name": "ReverseConfirmed",
      "type": "event"
    },
    {
      "anonymous": false,
      "inputs": [
        {
          "indexed": false,
          "name": "name",
          "type": "string"
        },
        {
          "indexed": true,
          "name": "reverse",
          "type": "address"
        }
      ],
      "name": "ReverseRemoved",
      "type": "event"
    },
    {
      "anonymous": false,
      "inputs": [
        {
          "indexed": true,
          "name": "name",
          "type": "bytes32"
        },
        {
          "indexed": true,
          "name": "owner",
          "type": "address"
        }
      ],
      "name": "Reserved",
      "type": "event"
    },
    {
      "anonymous": false,
      "inputs": [
        {
          "indexed": true,
          "name": "name",
          "type": "bytes32"
        },
        {
          "indexed": true,
          "name": "oldOwner",
          "type": "address"
        },
        {
          "indexed": true,
          "name": "newOwner",
          "type": "address"
        }
      ],
      "name": "Transferred",
      "type": "event"
    },
    {
      "anonymous": false,
      "inputs": [
        {
          "indexed": true,
          "name": "name",
          "type": "bytes32"
        },
        {
          "indexed": true,
          "name": "owner",
          "type": "address"
        }
      ],
      "name": "Dropped",
      "type": "event"
    },
    {
      "anonymous": false,
      "inputs": [
        {
          "indexed": true,
          "name": "name",
          "type": "bytes32"
        },
        {
          "indexed": false,
          "name": "key",
          "type": "string"
        },
        {
          "indexed": false,
          "name": "plainKey",
          "type": "string"
        }
      ],
      "name": "DataChanged",
      "type": "event"
    },
    {
      "anonymous": false,
      "inputs": [
        {
          "indexed": true,
          "name": "old",
          "type": "address"
        },
        {
          "indexed": true,
          "name": "current",
          "type": "address"
        }
      ],
      "name": "NewOwner",
      "type": "event"
    }
  ],
  "bytecode": "0x6080604052600080546001600160a01b03191633179055670de0b6b3a764000060035534801561002e57600080fd5b506040516120943803806120948339818101604052604081101561005157600080fd5b5080516020909101516001600160a01b03821661006d57600080fd5b604080517f736572766963655f7472616e73616374696f6e5f636865636b657200000000008152905190819003601b019020336001600160a01b038316156100cd5750600080546001600160a01b0319166001600160a01b038416179055815b600082815260016020819052604080832080546001600160a01b0386166001600160a01b03199091168117825582517f4100000000000000000000000000000000000000000000000000000000000000815260029092019382019390935290519081900360210181206001600160601b0319606089901b169055909184917f4963513eca575aba66fdcd25f267aae85958fe6fb97e75fa25d783f1a091a2219190a36040805181815260018183018190527f41000000000000000000000000000000000000000000000000000000000000006060830181905260806020840181905283019190915260a0820152905183917fb829c3e412537bbe794c048ccb9e4605bb4aaaa8e4d4c15c1a6e0c2adc1716ea919081900360c00190a250505050611e98806101fc6000396000f3fe60806040526004361061014b5760003560e01c80639890220b116100b6578063df57b7421161006f578063df57b742146105e6578063e30bd74014610610578063eadf9760146106b8578063ef5454d61461073a578063f25eb5c1146107be578063f6d339e4146107d35761014b565b80639890220b146104e4578063ac4e73f9146104f9578063ac72c1201461057d578063c3a3582514610426578063ddca3f43146105a7578063deb931a2146105bc5761014b565b80636795dbcd116101085780636795dbcd1461031057806369fe0e2d146103ae57806379ce9fac146103d85780638da5cb5b1461041157806390b97fc11461042657806392698814146104ba5761014b565b806306b2ff471461015057806313af40351461019757806319362a28146101cc5780633f3935d11461024e578063432ced04146102c95780634f39ca59146102e6575b600080fd5b34801561015c57600080fd5b506101836004803603602081101561017357600080fd5b50356001600160a01b031661085e565b604080519115158252519081900360200190f35b3480156101a357600080fd5b506101ca600480360360208110156101ba57600080fd5b50356001600160a01b031661088d565b005b3480156101d857600080fd5b50610183600480360360608110156101ef57600080fd5b81359190810190604081016020820135600160201b81111561021057600080fd5b82018360208201111561022257600080fd5b803590602001918460018302840111600160201b8311171561024357600080fd5b919350915035610912565b34801561025a57600080fd5b506101836004803603602081101561027157600080fd5b810190602081018135600160201b81111561028b57600080fd5b82018360208201111561029d57600080fd5b803590602001918460018302840111600160201b831117156102be57600080fd5b509092509050610a5b565b610183600480360360208110156102df57600080fd5b5035610be4565b3480156102f257600080fd5b506101836004803603602081101561030957600080fd5b5035610c91565b34801561031c57600080fd5b506103926004803603604081101561033357600080fd5b81359190810190604081016020820135600160201b81111561035457600080fd5b82018360208201111561036657600080fd5b803590602001918460018302840111600160201b8311171561038757600080fd5b509092509050610efa565b604080516001600160a01b039092168252519081900360200190f35b3480156103ba57600080fd5b50610183600480360360208110156103d157600080fd5b5035610f8c565b3480156103e457600080fd5b50610183600480360360408110156103fb57600080fd5b50803590602001356001600160a01b0316610fe4565b34801561041d57600080fd5b506103926110b4565b34801561043257600080fd5b506104a86004803603604081101561044957600080fd5b81359190810190604081016020820135600160201b81111561046a57600080fd5b82018360208201111561047c57600080fd5b803590602001918460018302840111600160201b8311171561049d57600080fd5b5090925090506110c3565b60408051918252519081900360200190f35b3480156104c657600080fd5b50610183600480360360208110156104dd57600080fd5b5035611152565b3480156104f057600080fd5b506101836111bb565b34801561050557600080fd5b506101836004803603604081101561051c57600080fd5b810190602081018135600160201b81111561053657600080fd5b82018360208201111561054857600080fd5b803590602001918460018302840111600160201b8311171561056957600080fd5b9193509150356001600160a01b031661123d565b34801561058957600080fd5b50610183600480360360208110156105a057600080fd5b5035611546565b3480156105b357600080fd5b506104a86115b3565b3480156105c857600080fd5b50610392600480360360208110156105df57600080fd5b50356115b9565b3480156105f257600080fd5b506103926004803603602081101561060957600080fd5b5035611620565b34801561061c57600080fd5b506106436004803603602081101561063357600080fd5b50356001600160a01b031661168b565b6040805160208082528351818301528351919283929083019185019080838360005b8381101561067d578181015183820152602001610665565b50505050905090810190601f1680156106aa5780820380516001836020036101000a031916815260200191505b509250505060405180910390f35b3480156106c457600080fd5b50610183600480360360608110156106db57600080fd5b81359190810190604081016020820135600160201b8111156106fc57600080fd5b82018360208201111561070e57600080fd5b803590602001918460018302840111600160201b8311171561072f57600080fd5b919350915035611734565b34801561074657600080fd5b506101836004803603604081101561075d57600080fd5b810190602081018135600160201b81111561077757600080fd5b82018360208201111561078957600080fd5b803590602001918460018302840111600160201b831117156107aa57600080fd5b9193509150356001600160a01b0316611880565b3480156107ca57600080fd5b506101ca6119c4565b3480156107df57600080fd5b50610183600480360360608110156107f657600080fd5b81359190810190604081016020820135600160201b81111561081757600080fd5b82018360208201111561082957600080fd5b803590602001918460018302840111600160201b8311171561084a57600080fd5b9193509150356001600160a01b0316611c30565b6001600160a01b0316600090815260026020819052604090912054600181161561010002600019011604151590565b6000546001600160a01b031633146108a457600080fd5b6001600160a01b0381166108b757600080fd5b600080546040516001600160a01b03808516939216917f70aea8d848e8a90fb7661b227dc522eb6395c3dac71b63cb59edd5c9899b236491a3600080546001600160a01b0319166001600160a01b0392909216919091179055565b6000848152600160208190526040822001548590600160a01b900460ff1615801561095357506000818152600160205260409020546001600160a01b031615155b61095c57600080fd5b60008681526001602052604090205486906001600160a01b0316331461098157600080fd5b83600160008981526020019081526020016000206002018787604051808383808284378083019250505092505050908152602001604051809103902081905550867fb829c3e412537bbe794c048ccb9e4605bb4aaaa8e4d4c15c1a6e0c2adc1716ea878789896040518080602001806020018381038352878782818152602001925080828437600083820152601f01601f191690910184810383528581526020019050858580828437600083820152604051601f909101601f19169092018290039850909650505050505050a25060019695505050505050565b600082828080601f01602080910402602001604051908101604052809392919081815260200183838082843760009201829052508451602080870191909120825260019081905260409091200154600160a01b900460ff161592505081159050610ae6575080516020808301919091206000908152600190915260409020546001600160a01b031615155b610aef57600080fd5b83838080601f016020809104026020016040519081016040528093929190818152602001838380828437600092018290525084516020808701919091208252600190819052604090912001546001600160a01b031633149250610b5491505057600080fd5b336000908152600260205260409020610b6e908686611d8b565b50336001600160a01b03167f098ae8581bb8bd9af1beaf7f2e9f51f31a8e5a8bfada4e303a645d71d9c91920868660405180806020018281038252848482818152602001925080828437600083820152604051601f909101601f19169092018290039550909350505050a2506001949350505050565b6000818152600160208190526040822001548290600160a01b900460ff16158015610c2457506000818152600160205260409020546001600160a01b0316155b610c2d57600080fd5b600354341015610c3c57600080fd5b60008381526001602052604080822080546001600160a01b031916339081179091559051909185917f4963513eca575aba66fdcd25f267aae85958fe6fb97e75fa25d783f1a091a2219190a350600192915050565b6000818152600160208190526040822001548290600160a01b900460ff16158015610cd257506000818152600160205260409020546001600160a01b031615155b610cdb57600080fd5b60008381526001602052604090205483906001600160a01b03163314610d0057600080fd5b60008481526001602081815260408084208301546001600160a01b03168452600291829052928390209251835488949391928392859260001991811615610100029190910116048015610d8a5780601f10610d68576101008083540402835291820191610d8a565b820191906000526020600020905b815481529060010190602001808311610d76575b505091505060405180910390201415610ea25760008481526001602081815260408084208301546001600160a01b03168085526002808452948290208251848152815460001996811615610100029690960190951695909504928401839052937f12491ad95fd945e444d88a894ffad3c21959880a4dcd8af99d4ae4ffc71d4abd939092909182919082019084908015610e655780601f10610e3a57610100808354040283529160200191610e65565b820191906000526020600020905b815481529060010190602001808311610e4857829003601f168201915b50509250505060405180910390a26000848152600160208181526040808420909201546001600160a01b03168352600290528120610ea291611e09565b6000848152600160208190526040808320909101805460ff60a01b1916600160a01b17905551339186917fef1961b4d2909dc23643b309bfe5c3e5646842d98c3a58517037ef3871185af39190a35060019392505050565b6000838152600160208190526040822001548490600160a01b900460ff16158015610f3b57506000818152600160205260409020546001600160a01b031615155b610f4457600080fd5b60016000868152602001908152602001600020600201848460405180838380828437919091019485525050604051928390036020019092205460601c93505050509392505050565b600080546001600160a01b03163314610fa457600080fd5b60038290556040805183815290517f6bbc57480a46553fa4d156ce702beef5f3ad66303b0ed1a5d4cb44966c6584c39181900360200190a1506001919050565b6000828152600160208190526040822001548390600160a01b900460ff1615801561102557506000818152600160205260409020546001600160a01b031615155b61102e57600080fd5b60008481526001602052604090205484906001600160a01b0316331461105357600080fd5b60008581526001602052604080822080546001600160a01b0319166001600160a01b03881690811790915590519091339188917f7b97c62130aa09acbbcbf7482630e756592496f1759eaf702f469cf64dfb779491a4506001949350505050565b6000546001600160a01b031681565b6000838152600160208190526040822001548490600160a01b900460ff1615801561110457506000818152600160205260409020546001600160a01b031615155b61110d57600080fd5b60016000868152602001908152602001600020600201848460405180838380828437919091019485525050604051928390036020019092205493505050509392505050565b6000818152600160208190526040822001548290600160a01b900460ff1615801561119357506000818152600160205260409020546001600160a01b031615155b61119c57600080fd5b50506000908152600160205260409020546001600160a01b0316151590565b600080546001600160a01b031633146111d357600080fd5b604080513031815290517fdef931299fe61d176f949118058530c1f3f539dcb6950b4e372c9b835c33ca079181900360200190a16040513390303180156108fc02916000818181858888f19350505050158015611234573d6000803e3d6000fd5b50600190505b90565b600083838080601f01602080910402602001604051908101604052809392919081815260200183838082843760009201829052508451602080870191909120825260019081905260409091200154600160a01b900460ff1615925050811590506112c8575080516020808301919091206000908152600190915260409020546001600160a01b031615155b6112d157600080fd5b8484604051808383808284376040805193909101839003909220600081815260016020529290922054919450506001600160a01b031633149150611316905057600080fd5b60008686604051808383808284376040805191909301819003902060008181526001602081905293902090920154919550506001600160a01b0316158015935091506113f89050575060008181526001602081815260408084208301546001600160a01b031684526002918290529283902092518354859493919283928592600019918116156101000291909101160480156113e95780601f106113c75761010080835404028352918201916113e9565b820191906000526020600020905b8154815290600101906020018083116113d5575b50509150506040518091039020145b156114aa576000818152600160208181526040808420909201546001600160a01b0316835260029052812061142c91611e09565b6000818152600160208181526040928390209091015482518281529182018990526001600160a01b0316917f12491ad95fd945e444d88a894ffad3c21959880a4dcd8af99d4ae4ffc71d4abd918a918a919081908101848480828437600083820152604051601f909101601f19169092018290039550909350505050a25b60008181526001602081815260409283902090910180546001600160a01b0319166001600160a01b0389169081179091558251828152918201899052917f728435a0031f6a04538fcdd24922a7e06bc7bc945db03e83d22122d1bc5f28df918a918a919081908101848480828437600083820152604051601f909101601f19169092018290039550909350505050a25060019695505050505050565b6000818152600160208190526040822001548290600160a01b900460ff1615801561158757506000818152600160205260409020546001600160a01b031615155b61159057600080fd5b5050600090815260016020819052604090912001546001600160a01b0316151590565b60035481565b6000818152600160208190526040822001548290600160a01b900460ff161580156115fa57506000818152600160205260409020546001600160a01b031615155b61160357600080fd5b50506000908152600160205260409020546001600160a01b031690565b6000818152600160208190526040822001548290600160a01b900460ff1615801561166157506000818152600160205260409020546001600160a01b031615155b61166a57600080fd5b5050600090815260016020819052604090912001546001600160a01b031690565b6001600160a01b038116600090815260026020818152604092839020805484516001821615610100026000190190911693909304601f810183900483028401830190945283835260609390918301828280156117285780601f106116fd57610100808354040283529160200191611728565b820191906000526020600020905b81548152906001019060200180831161170b57829003601f168201915b50505050509050919050565b6000848152600160208190526040822001548590600160a01b900460ff1615801561177557506000818152600160205260409020546001600160a01b031615155b61177e57600080fd5b60008681526001602052604090205486906001600160a01b031633146117a357600080fd5b8360001b600160008981526020019081526020016000206002018787604051808383808284378083019250505092505050908152602001604051809103902081905550867fb829c3e412537bbe794c048ccb9e4605bb4aaaa8e4d4c15c1a6e0c2adc1716ea878789896040518080602001806020018381038352878782818152602001925080828437600083820152601f01601f191690910184810383528581526020019050858580828437600083820152604051601f909101601f19169092018290039850909650505050505050a25060019695505050505050565b600083838080601f01602080910402602001604051908101604052809392919081815260200183838082843760009201829052508451602080870191909120825260019081905260409091200154600160a01b900460ff16159250508115905061190b575080516020808301919091206000908152600190915260409020546001600160a01b031615155b61191457600080fd5b6000546001600160a01b0316331461192b57600080fd5b6001600160a01b038316600090815260026020526040902061194e908686611d8b565b50826001600160a01b03167f098ae8581bb8bd9af1beaf7f2e9f51f31a8e5a8bfada4e303a645d71d9c91920868660405180806020018281038252848482818152602001925080828437600083820152604051601f909101601f19169092018290039550909350505050a2506001949350505050565b33600090815260026020818152604092839020805484516001821615610100026000190190911693909304601f8101839004830284018301909452838352919290830182828015611a565780601f10611a2b57610100808354040283529160200191611a56565b820191906000526020600020905b815481529060010190602001808311611a3957829003601f168201915b5050505050600160008280519060200120815260200190815260200160002060010160149054906101000a900460ff16158015611ab4575080516020808301919091206000908152600190915260409020546001600160a01b031615155b611abd57600080fd5b33600081815260026020818152604092839020835182815281546000196101006001831615020116939093049183018290527f12491ad95fd945e444d88a894ffad3c21959880a4dcd8af99d4ae4ffc71d4abd93909291829182019084908015611b685780601f10611b3d57610100808354040283529160200191611b68565b820191906000526020600020905b815481529060010190602001808311611b4b57829003601f168201915b50509250505060405180910390a2336000908152600260208190526040808320905181546001949382918491600019610100838a16150201909116048015611be75780601f10611bc5576101008083540402835291820191611be7565b820191906000526020600020905b815481529060010190602001808311611bd3575b505060408051918290039091208452602080850195909552928301600090812060010180546001600160a01b0319169055338152600290945250508120611c2d91611e09565b50565b6000848152600160208190526040822001548590600160a01b900460ff16158015611c7157506000818152600160205260409020546001600160a01b031615155b611c7a57600080fd5b60008681526001602052604090205486906001600160a01b03163314611c9f57600080fd5b8360601b6bffffffffffffffffffffffff1916600160008981526020019081526020016000206002018787604051808383808284378083019250505092505050908152602001604051809103902081905550867fb829c3e412537bbe794c048ccb9e4605bb4aaaa8e4d4c15c1a6e0c2adc1716ea878789896040518080602001806020018381038352878782818152602001925080828437600083820152601f01601f191690910184810383528581526020019050858580828437600083820152604051601f909101601f19169092018290039850909650505050505050a25060019695505050505050565b828054600181600116156101000203166002900490600052602060002090601f016020900481019282601f10611dcc5782800160ff19823516178555611df9565b82800160010185558215611df9579182015b82811115611df9578235825591602001919060010190611dde565b50611e05929150611e49565b5090565b50805460018160011615610100020316600290046000825580601f10611e2f5750611c2d565b601f016020900490600052602060002090810190611c2d91905b61123a91905b80821115611e055760008155600101611e4f56fea265627a7a72305820950b5dc7bf1982c4273403dc567763ba6864296df83a572b7999672b097e0c3a64736f6c634300050a0032",
  "linkReferences": {},
  "deployedLinkReferences": {}
}