{
  "_format": "hh-sol-artifact-1",
  "contractName": "BlockRewardAuRaCoinsMock",
  "sourceName": "posdao-contracts/contracts/mock/BlockRewardAuRaCoinsMock.sol",
  "abi": [
    {
      "constant": false,
      "inputs": [
        {
          "name": "_address",
          "type": "address"
        }
      ],
      "name": "setSystemAddress",
      "outputs": [],
      "payable": false,
      "stateMutability": "nonpayable",
      "type": "function"
    },
    {
      "constant": true,
      "inputs": [
        {
          "name": "",
          "type": "uint256"
        },
        {
          "name": "",
          "type": "uint256"
        }
      ],
      "name": "snapshotPoolTotalStakeAmount",
      "outputs": [
        {
          "name": "",
          "type": "uint256"
        }
      ],
      "payable": false,
      "stateMutability": "view",
      "type": "function"
    },
    {
      "constant": false,
      "inputs": [
        {
          "name": "_stakingEpoch",
          "type": "uint256"
        },
        {
          "name": "_poolMiningAddress",
          "type": "address"
        }
      ],
      "name": "setEpochPoolReward",
      "outputs": [],
      "payable": true,
      "stateMutability": "payable",
      "type": "function"
    },
    {
      "constant": false,
      "inputs": [
        {
          "name": "_stakingEpoch",
          "type": "uint256"
        },
        {
          "name": "_poolMiningAddress",
          "type": "address"
        },
        {
          "name": "_amount",
          "type": "uint256"
        }
      ],
      "name": "setSnapshotPoolValidatorStakeAmount",
      "outputs": [],
      "payable": false,
      "stateMutability": "nonpayable",
      "type": "function"
    },
    {
      "constant": true,
      "inputs": [
        {
          "name": "_stakingEpoch",
          "type": "uint256"
        },
        {
          "name": "_poolId",
          "type": "uint256"
        }
      ],
      "name": "getValidatorReward",
      "outputs": [
        {
          "name": "nativeReward",
          "type": "uint256"
        }
      ],
      "payable": false,
      "stateMutability": "view",
      "type": "function"
    },
    {
      "constant": false,
      "inputs": [
        {
          "name": "_bridgesAllowed",
          "type": "address[]"
        }
      ],
      "name": "setErcToNativeBridgesAllowed",
      "outputs": [],
      "payable": false,
      "stateMutability": "nonpayable",
      "type": "function"
    },
    {
      "constant": true,
      "inputs": [
        {
          "name": "",
          "type": "uint256"
        },
        {
          "name": "",
          "type": "uint256"
        }
      ],
      "name": "epochPoolNativeReward",
      "outputs": [
        {
          "name": "",
          "type": "uint256"
        }
      ],
      "payable": false,
      "stateMutability": "view",
      "type": "function"
    },
    {
      "constant": true,
      "inputs": [
        {
          "name": "_rewardToDistribute",
          "type": "uint256"
        },
        {
          "name": "_blocksCreatedShareNum",
          "type": "uint256[]"
        },
        {
          "name": "_blocksCreatedShareDenom",
          "type": "uint256"
        },
        {
          "name": "_stakingEpoch",
          "type": "uint256"
        }
      ],
      "name": "currentPoolRewards",
      "outputs": [
        {
          "name": "",
          "type": "uint256[]"
        }
      ],
      "payable": false,
      "stateMutability": "view",
      "type": "function"
    },
    {
      "constant": false,
      "inputs": [
        {
          "name": "_amount",
          "type": "uint256"
        }
      ],
      "name": "addBridgeNativeRewardReceivers",
      "outputs": [],
      "payable": false,
      "stateMutability": "nonpayable",
      "type": "function"
    },
    {
      "constant": false,
      "inputs": [
        {
          "name": "_stakingContract",
          "type": "address"
        },
        {
          "name": "_stakingEpoch",
          "type": "uint256"
        },
        {
          "name": "_poolId",
          "type": "uint256"
        }
      ],
      "name": "snapshotPoolStakeAmounts",
      "outputs": [],
      "payable": false,
      "stateMutability": "nonpayable",
      "type": "function"
    },
    {
      "constant": true,
      "inputs": [],
      "name": "blockRewardContractId",
      "outputs": [
        {
          "name": "",
          "type": "bytes4"
        }
      ],
      "payable": false,
      "stateMutability": "pure",
      "type": "function"
    },
    {
      "constant": true,
      "inputs": [
        {
          "name": "_stakingContract",
          "type": "address"
        },
        {
          "name": "_stakingEpoch",
          "type": "uint256"
        },
        {
          "name": "_totalRewardShareNum",
          "type": "uint256"
        },
        {
          "name": "_totalRewardShareDenom",
          "type": "uint256"
        },
        {
          "name": "_validators",
          "type": "uint256[]"
        }
      ],
      "name": "currentNativeRewardToDistribute",
      "outputs": [
        {
          "name": "",
          "type": "uint256"
        },
        {
          "name": "",
          "type": "uint256"
        }
      ],
      "payable": false,
      "stateMutability": "view",
      "type": "function"
    },
    {
      "constant": true,
      "inputs": [
        {
          "name": "",
          "type": "address"
        },
        {
          "name": "",
          "type": "uint256"
        }
      ],
      "name": "mintedForAccountInBlock",
      "outputs": [
        {
          "name": "",
          "type": "uint256"
        }
      ],
      "payable": false,
      "stateMutability": "view",
      "type": "function"
    },
    {
      "constant": true,
      "inputs": [],
      "name": "isInitialized",
      "outputs": [
        {
          "name": "",
          "type": "bool"
        }
      ],
      "payable": false,
      "stateMutability": "view",
      "type": "function"
    },
    {
      "constant": true,
      "inputs": [],
      "name": "NATIVE_COIN_INFLATION_RATE",
      "outputs": [
        {
          "name": "",
          "type": "uint256"
        }
      ],
      "payable": false,
      "stateMutability": "view",
      "type": "function"
    },
    {
      "constant": true,
      "inputs": [
        {
          "name": "_poolId",
          "type": "uint256"
        }
      ],
      "name": "validatorRewardPercent",
      "outputs": [
        {
          "name": "",
          "type": "uint256"
        }
      ],
      "payable": false,
      "stateMutability": "view",
      "type": "function"
    },
    {
      "constant": true,
      "inputs": [
        {
          "name": "",
          "type": "address"
        }
      ],
      "name": "mintedForAccount",
      "outputs": [
        {
          "name": "",
          "type": "uint256"
        }
      ],
      "payable": false,
      "stateMutability": "view",
      "type": "function"
    },
    {
      "constant": true,
      "inputs": [
        {
          "name": "_stakingEpoch",
          "type": "uint256"
        },
        {
          "name": "_validators",
          "type": "uint256[]"
        },
        {
          "name": "_inflationRate",
          "type": "uint256"
        }
      ],
      "name": "inflationAmount",
      "outputs": [
        {
          "name": "",
          "type": "uint256"
        }
      ],
      "payable": false,
      "stateMutability": "view",
      "type": "function"
    },
    {
      "constant": true,
      "inputs": [],
      "name": "ercToNativeBridgesAllowed",
      "outputs": [
        {
          "name": "",
          "type": "address[]"
        }
      ],
      "payable": false,
      "stateMutability": "view",
      "type": "function"
    },
    {
      "constant": true,
      "inputs": [
        {
          "name": "",
          "type": "uint256"
        }
      ],
      "name": "mintedInBlock",
      "outputs": [
        {
          "name": "",
          "type": "uint256"
        }
      ],
      "payable": false,
      "stateMutability": "view",
      "type": "function"
    },
    {
      "constant": false,
      "inputs": [
        {
          "name": "_nativeCoins",
          "type": "uint256"
        },
        {
          "name": "_to",
          "type": "address"
        }
      ],
      "name": "transferReward",
      "outputs": [],
      "payable": false,
      "stateMutability": "nonpayable",
      "type": "function"
    },
    {
      "constant": false,
      "inputs": [
        {
          "name": "_validatorSet",
          "type": "address"
        },
        {
          "name": "_prevBlockReward",
          "type": "address"
        }
      ],
      "name": "initialize",
      "outputs": [],
      "payable": false,
      "stateMutability": "nonpayable",
      "type": "function"
    },
    {
      "constant": true,
      "inputs": [
        {
          "name": "_poolStakingAddress",
          "type": "address"
        },
        {
          "name": "_staker",
          "type": "address"
        }
      ],
      "name": "epochsToClaimRewardFrom",
      "outputs": [
        {
          "name": "epochsToClaimFrom",
          "type": "uint256[]"
        }
      ],
      "payable": false,
      "stateMutability": "view",
      "type": "function"
    },
    {
      "constant": false,
      "inputs": [
        {
          "name": "_blockNumber",
          "type": "uint256"
        }
      ],
      "name": "setCurrentBlockNumber",
      "outputs": [],
      "payable": false,
      "stateMutability": "nonpayable",
      "type": "function"
    },
    {
      "constant": false,
      "inputs": [
        {
          "name": "_amount",
          "type": "uint256"
        }
      ],
      "name": "addBridgeNativeFeeReceivers",
      "outputs": [],
      "payable": false,
      "stateMutability": "nonpayable",
      "type": "function"
    },
    {
      "constant": true,
      "inputs": [],
      "name": "mintedTotally",
      "outputs": [
        {
          "name": "",
          "type": "uint256"
        }
      ],
      "payable": false,
      "stateMutability": "view",
      "type": "function"
    },
    {
      "constant": true,
      "inputs": [
        {
          "name": "_stakingEpoch",
          "type": "uint256"
        },
        {
          "name": "_delegatorStaked",
          "type": "uint256"
        },
        {
          "name": "_validatorStaked",
          "type": "uint256"
        },
        {
          "name": "_totalStaked",
          "type": "uint256"
        },
        {
          "name": "_poolReward",
          "type": "uint256"
        }
      ],
      "name": "delegatorShare",
      "outputs": [
        {
          "name": "",
          "type": "uint256"
        }
      ],
      "payable": false,
      "stateMutability": "view",
      "type": "function"
    },
    {
      "constant": true,
      "inputs": [
        {
          "name": "",
          "type": "uint256"
        },
        {
          "name": "",
          "type": "uint256"
        }
      ],
      "name": "snapshotPoolValidatorStakeAmount",
      "outputs": [
        {
          "name": "",
          "type": "uint256"
        }
      ],
      "payable": false,
      "stateMutability": "view",
      "type": "function"
    },
    {
      "constant": true,
      "inputs": [
        {
          "name": "_stakingEpoch",
          "type": "uint256"
        },
        {
          "name": "_validatorStaked",
          "type": "uint256"
        },
        {
          "name": "_totalStaked",
          "type": "uint256"
        },
        {
          "name": "_poolReward",
          "type": "uint256"
        }
      ],
      "name": "validatorShare",
      "outputs": [
        {
          "name": "",
          "type": "uint256"
        }
      ],
      "payable": false,
      "stateMutability": "view",
      "type": "function"
    },
    {
      "constant": true,
      "inputs": [
        {
          "name": "_delegatorStake",
          "type": "uint256"
        },
        {
          "name": "_stakingEpoch",
          "type": "uint256"
        },
        {
          "name": "_poolId",
          "type": "uint256"
        }
      ],
      "name": "getDelegatorReward",
      "outputs": [
        {
          "name": "nativeReward",
          "type": "uint256"
        }
      ],
      "payable": false,
      "stateMutability": "view",
      "type": "function"
    },
    {
      "constant": true,
      "inputs": [
        {
          "name": "",
          "type": "address"
        },
        {
          "name": "",
          "type": "uint256"
        },
        {
          "name": "",
          "type": "bytes"
        }
      ],
      "name": "onTokenTransfer",
      "outputs": [
        {
          "name": "",
          "type": "bool"
        }
      ],
      "payable": false,
      "stateMutability": "pure",
      "type": "function"
    },
    {
      "constant": true,
      "inputs": [],
      "name": "extraReceiversQueueSize",
      "outputs": [
        {
          "name": "",
          "type": "uint256"
        }
      ],
      "payable": false,
      "stateMutability": "view",
      "type": "function"
    },
    {
      "constant": false,
      "inputs": [
        {
          "name": "_amount",
          "type": "uint256"
        },
        {
          "name": "_receiver",
          "type": "address"
        }
      ],
      "name": "addExtraReceiver",
      "outputs": [],
      "payable": false,
      "stateMutability": "nonpayable",
      "type": "function"
    },
    {
      "constant": true,
      "inputs": [],
      "name": "bridgeNativeReward",
      "outputs": [
        {
          "name": "",
          "type": "uint256"
        }
      ],
      "payable": false,
      "stateMutability": "view",
      "type": "function"
    },
    {
      "constant": true,
      "inputs": [],
      "name": "nativeRewardUndistributed",
      "outputs": [
        {
          "name": "",
          "type": "uint256"
        }
      ],
      "payable": false,
      "stateMutability": "view",
      "type": "function"
    },
    {
      "constant": true,
      "inputs": [
        {
          "name": "",
          "type": "address"
        }
      ],
      "name": "mintedTotallyByBridge",
      "outputs": [
        {
          "name": "",
          "type": "uint256"
        }
      ],
      "payable": false,
      "stateMutability": "view",
      "type": "function"
    },
    {
      "constant": false,
      "inputs": [],
      "name": "clearBlocksCreated",
      "outputs": [],
      "payable": false,
      "stateMutability": "nonpayable",
      "type": "function"
    },
    {
      "constant": true,
      "inputs": [
        {
          "name": "",
          "type": "uint256"
        }
      ],
      "name": "validatorMinRewardPercent",
      "outputs": [
        {
          "name": "",
          "type": "uint256"
        }
      ],
      "payable": false,
      "stateMutability": "view",
      "type": "function"
    },
    {
      "constant": false,
      "inputs": [
        {
          "name": "_stakingEpoch",
          "type": "uint256"
        },
        {
          "name": "_percent",
          "type": "uint256"
        }
      ],
      "name": "setValidatorMinRewardPercent",
      "outputs": [],
      "payable": false,
      "stateMutability": "nonpayable",
      "type": "function"
    },
    {
      "constant": false,
      "inputs": [
        {
          "name": "_stakingEpoch",
          "type": "uint256"
        },
        {
          "name": "_miningAddress",
          "type": "address"
        },
        {
          "name": "_value",
          "type": "uint256"
        }
      ],
      "name": "setBlocksCreated",
      "outputs": [],
      "payable": false,
      "stateMutability": "nonpayable",
      "type": "function"
    },
    {
      "constant": true,
      "inputs": [],
      "name": "validatorSetContract",
      "outputs": [
        {
          "name": "",
          "type": "address"
        }
      ],
      "payable": false,
      "stateMutability": "view",
      "type": "function"
    },
    {
      "constant": true,
      "inputs": [
        {
          "name": "_poolId",
          "type": "uint256"
        }
      ],
      "name": "epochsPoolGotRewardFor",
      "outputs": [
        {
          "name": "",
          "type": "uint256[]"
        }
      ],
      "payable": false,
      "stateMutability": "view",
      "type": "function"
    },
    {
      "constant": false,
      "inputs": [],
      "name": "sendCoins",
      "outputs": [],
      "payable": true,
      "stateMutability": "payable",
      "type": "function"
    },
    {
      "constant": true,
      "inputs": [
        {
          "name": "",
          "type": "uint256"
        },
        {
          "name": "",
          "type": "uint256"
        }
      ],
      "name": "blocksCreated",
      "outputs": [
        {
          "name": "",
          "type": "uint256"
        }
      ],
      "payable": false,
      "stateMutability": "view",
      "type": "function"
    },
    {
      "constant": false,
      "inputs": [
        {
          "name": "benefactors",
          "type": "address[]"
        },
        {
          "name": "kind",
          "type": "uint16[]"
        }
      ],
      "name": "reward",
      "outputs": [
        {
          "name": "receiversNative",
          "type": "address[]"
        },
        {
          "name": "rewardsNative",
          "type": "uint256[]"
        }
      ],
      "payable": false,
      "stateMutability": "nonpayable",
      "type": "function"
    },
    {
      "payable": true,
      "stateMutability": "payable",
      "type": "fallback"
    },
    {
      "anonymous": false,
      "inputs": [
        {
          "indexed": false,
          "name": "amount",
          "type": "uint256"
        },
        {
          "indexed": true,
          "name": "receiver",
          "type": "address"
        },
        {
          "indexed": true,
          "name": "bridge",
          "type": "address"
        }
      ],
      "name": "AddedReceiver",
      "type": "event"
    },
    {
      "anonymous": false,
      "inputs": [
        {
          "indexed": false,
          "name": "amount",
          "type": "uint256"
        },
        {
          "indexed": false,
          "name": "cumulativeAmount",
          "type": "uint256"
        },
        {
          "indexed": true,
          "name": "bridge",
          "type": "address"
        }
      ],
      "name": "BridgeNativeRewardAdded",
      "type": "event"
    },
    {
      "anonymous": false,
      "inputs": [
        {
          "indexed": false,
          "name": "receivers",
          "type": "address[]"
        },
        {
          "indexed": false,
          "name": "rewards",
          "type": "uint256[]"
        }
      ],
      "name": "MintedNative",
      "type": "event"
    }
  ],
  "bytecode": "0x608060405234801561001057600080fd5b50613fb3806100206000396000f3fe6080604052600436106102725760003560e01c80634de6c0361161014f578063ac8a0942116100c1578063d67529c61161007a578063d67529c614610c67578063dfc8bf4e14610ca6578063e7f6cfe214610cd7578063f302163d14610d01578063f8fdc6b914610d09578063f91c289814610d3957610272565b8063ac8a094214610b9b578063adc481a714610bb0578063b4a523e814610bc5578063c5dd762814610bf8578063cdf7a09014610c0d578063d0899cb414610c3757610272565b8063727b071d11610113578063727b071d146109e55780638737929a14610a15578063877ffdea14610a51578063a4c0ed3614610a87578063a9add57d14610b4d578063aa9fa27414610b6257610272565b80634de6c036146108ff57806352a2f0211461093a5780635325138914610964578063553a5c851461098e5780635fba554e146109a357610272565b8063307bff26116101e85780633d84b8c1116101ac5780633d84b8c114610762578063404eac8514610795578063419ce2641461084c5780634476d66a14610861578063469507c61461088b578063485cc955146108c457610272565b8063307bff26146105d957806330f6eb16146106c1578063392e53cd146106fa57806339f53709146107235780633bf47e961461073857610272565b8063171d54dd1161023a578063171d54dd146103895780631f1a01b714610404578063212329f314610434578063222fafb21461053e57806327d5eb21146105685780632ee57f8d146105a757610272565b806306210197146102775780630ac2daa0146102ac5780630c556d66146102ee5780630dcbf1551461031a5780631289b17914610359575b600080fd5b34801561028357600080fd5b506102aa6004803603602081101561029a57600080fd5b50356001600160a01b0316610e9d565b005b3480156102b857600080fd5b506102dc600480360360408110156102cf57600080fd5b5080359060200135610ebf565b60408051918252519081900360200190f35b6102aa6004803603604081101561030457600080fd5b50803590602001356001600160a01b0316610edc565b34801561032657600080fd5b506102aa6004803603606081101561033d57600080fd5b508035906001600160a01b036020820135169060400135610fe9565b34801561036557600080fd5b506102dc6004803603604081101561037c57600080fd5b5080359060200135611085565b34801561039557600080fd5b506102aa600480360360208110156103ac57600080fd5b810190602081018135600160201b8111156103c657600080fd5b8201836020820111156103d857600080fd5b803590602001918460208302840111600160201b831117156103f957600080fd5b5090925090506110e1565b34801561041057600080fd5b506102dc6004803603604081101561042757600080fd5b50803590602001356111dc565b34801561044057600080fd5b506104ee6004803603608081101561045757600080fd5b81359190810190604081016020820135600160201b81111561047857600080fd5b82018360208201111561048a57600080fd5b803590602001918460208302840111600160201b831117156104ab57600080fd5b91908080602002602001604051908101604052809392919081815260200183836020028082843760009201919091525092955050823593505050602001356111f9565b60408051602080825283518183015283519192839290830191858101910280838360005b8381101561052a578181015183820152602001610512565b505050509050019250505060405180910390f35b34801561054a57600080fd5b506102aa6004803603602081101561056157600080fd5b50356112cb565b34801561057457600080fd5b506102aa6004803603606081101561058b57600080fd5b506001600160a01b038135169060208101359060400135611348565b3480156105b357600080fd5b506105bc611353565b604080516001600160e01b03199092168252519081900360200190f35b3480156105e557600080fd5b506106a8600480360360a08110156105fc57600080fd5b6001600160a01b038235169160208101359160408201359160608101359181019060a081016080820135600160201b81111561063757600080fd5b82018360208201111561064957600080fd5b803590602001918460208302840111600160201b8311171561066a57600080fd5b91908080602002602001604051908101604052809392919081815260200183836020028082843760009201919091525092955061135f945050505050565b6040805192835260208301919091528051918290030190f35b3480156106cd57600080fd5b506102dc600480360360408110156106e457600080fd5b506001600160a01b038135169060200135611385565b34801561070657600080fd5b5061070f6113a2565b604080519115158252519081900360200190f35b34801561072f57600080fd5b506102dc6113b3565b34801561074457600080fd5b506102dc6004803603602081101561075b57600080fd5b50356113be565b34801561076e57600080fd5b506102dc6004803603602081101561078557600080fd5b50356001600160a01b03166119a6565b3480156107a157600080fd5b506102dc600480360360608110156107b857600080fd5b81359190810190604081016020820135600160201b8111156107d957600080fd5b8201836020820111156107eb57600080fd5b803590602001918460208302840111600160201b8311171561080c57600080fd5b91908080602002602001604051908101604052809392919081815260200183836020028082843760009201919091525092955050913592506119b8915050565b34801561085857600080fd5b506104ee6119cf565b34801561086d57600080fd5b506102dc6004803603602081101561088457600080fd5b5035611a31565b34801561089757600080fd5b506102aa600480360360408110156108ae57600080fd5b50803590602001356001600160a01b0316611a43565b3480156108d057600080fd5b506102aa600480360360408110156108e757600080fd5b506001600160a01b0381358116916020013516611adf565b34801561090b57600080fd5b506104ee6004803603604081101561092257600080fd5b506001600160a01b0381358116916020013516611b94565b34801561094657600080fd5b506102aa6004803603602081101561095d57600080fd5b5035611ff2565b34801561097057600080fd5b506102aa6004803603602081101561098757600080fd5b5035611ff7565b34801561099a57600080fd5b506102dc612003565b3480156109af57600080fd5b506102dc600480360360a08110156109c657600080fd5b5080359060208101359060408101359060608101359060800135612009565b3480156109f157600080fd5b506102dc60048036036040811015610a0857600080fd5b50803590602001356120aa565b348015610a2157600080fd5b506102dc60048036036080811015610a3857600080fd5b50803590602081013590604081013590606001356120c7565b348015610a5d57600080fd5b506102dc60048036036060811015610a7457600080fd5b5080359060208101359060400135612141565b348015610a9357600080fd5b5061070f60048036036060811015610aaa57600080fd5b6001600160a01b0382351691602081013591810190606081016040820135600160201b811115610ad957600080fd5b820183602082011115610aeb57600080fd5b803590602001918460018302840111600160201b83111715610b0c57600080fd5b91908080601f0160208091040260200160405190810160405280939291908181526020018383808284376000920191909152509295506121a0945050505050565b348015610b5957600080fd5b506102dc6121a7565b348015610b6e57600080fd5b506102aa60048036036040811015610b8557600080fd5b50803590602001356001600160a01b03166121b4565b348015610ba757600080fd5b506102dc61223f565b348015610bbc57600080fd5b506102dc612245565b348015610bd157600080fd5b506102dc60048036036020811015610be857600080fd5b50356001600160a01b031661224b565b348015610c0457600080fd5b506102aa61225d565b348015610c1957600080fd5b506102dc60048036036020811015610c3057600080fd5b5035612480565b348015610c4357600080fd5b506102aa60048036036040811015610c5a57600080fd5b5080359060200135612492565b348015610c7357600080fd5b506102aa60048036036060811015610c8a57600080fd5b508035906001600160a01b0360208201351690604001356124a4565b348015610cb257600080fd5b50610cbb61253e565b604080516001600160a01b039092168252519081900360200190f35b348015610ce357600080fd5b506104ee60048036036020811015610cfa57600080fd5b503561254d565b6102aa6125ad565b348015610d1557600080fd5b506102dc60048036036040811015610d2c57600080fd5b50803590602001356125af565b348015610d4557600080fd5b50610e0460048036036040811015610d5c57600080fd5b810190602081018135600160201b811115610d7657600080fd5b820183602082011115610d8857600080fd5b803590602001918460208302840111600160201b83111715610da957600080fd5b919390929091602081019035600160201b811115610dc657600080fd5b820183602082011115610dd857600080fd5b803590602001918460208302840111600160201b83111715610df957600080fd5b5090925090506125ca565b604051808060200180602001838103835285818151815260200191508051906020019060200280838360005b83811015610e48578181015183820152602001610e30565b50505050905001838103825284818151815260200191508051906020019060200280838360005b83811015610e87578181015183820152602001610e6f565b5050505090500194505050505060405180910390f35b604780546001600160a01b0319166001600160a01b0392909216919091179055565b602960209081526000928352604080842090915290825290205481565b602c54604080516315ddbdb960e11b81526001600160a01b03848116600483015291516000939290921691632bbb7b7291602480820192602092909190829003018186803b158015610f2d57600080fd5b505afa158015610f41573d6000803e3d6000fd5b505050506040513d6020811015610f5757600080fd5b5051905082610f6557600080fd5b6001600160a01b038216610f7857600080fd5b80610f8257600080fd5b34610f8c57600080fd5b600083815260226020908152604080832084845290915290205415610fb057600080fd5b60008381526022602090815260408083209383529281528282203490558181529181208054600181018255908252919020019190915550565b602c54604080516315ddbdb960e11b81526001600160a01b03858116600483015291516000939290921691632bbb7b7291602480820192602092909190829003018186803b15801561103a57600080fd5b505afa15801561104e573d6000803e3d6000fd5b505050506040513d602081101561106457600080fd5b50516000948552602a60209081526040808720928752919052909320555050565b6000828152602a602090815260408083208484528252808320548584526029835281842085855283528184205486855260228452828520868652909352908320549091906110d8908690849084906120c7565b95945050505050565b6110e9612f4d565b6001600160a01b0316336001600160a01b03161461110657600080fd5b61110e6113a2565b61111757600080fd5b60005b600254811015611173576000600160006002848154811061113757fe5b6000918252602080832091909101546001600160a01b031683528201929092526040019020805460ff191691151591909117905560010161111a565b61117f60028484613eb9565b50600090505b818110156111d757600180600085858581811061119e57fe5b602090810292909201356001600160a01b0316835250810191909152604001600020805460ff1916911515919091179055600101611185565b505050565b602260209081526000928352604080842090915290825290205481565b606080836112215760408051600081526020810190915261121b908490612f72565b90955093505b85158061122c575083155b1561124657506040805160008152602081019091526112c0565b8451604051908082528060200260200182016040528015611271578160200160208202803883390190505b50905060005b85518110156112be578486828151811061128d57fe5b602002602001015188028161129e57fe5b048282815181106112ab57fe5b6020908102919091010152600101611277565b505b90505b949350505050565b3360009081526001602052604090205460ff166112e757600080fd5b806112f157600080fd5b602154611304908263ffffffff6131d916565b6021819055604080518381526020810192909252805133927f619cc90cbd264bea3dfc113e68fd307789a937a8c10ef4b0110607ac7490367392908290030190a250565b6111d78383836131eb565b63069ad3e560e11b5b90565b60008061137761136f878561333f565b88878761335a565b915091509550959350505050565b602460209081526000928352604080842090915290825290205481565b602c546001600160a01b0316151590565b6603b363eba41aab81565b600080602c60009054906101000a90046001600160a01b03166001600160a01b031663ee99205c6040518163ffffffff1660e01b815260040160206040518083038186803b15801561140f57600080fd5b505afa158015611423573d6000803e3d6000fd5b505050506040513d602081101561143957600080fd5b505160408051630f29818d60e31b815290519192506000916001600160a01b0384169163794c0c68916004808301926020929190829003018186803b15801561148157600080fd5b505afa158015611495573d6000803e3d6000fd5b505050506040513d60208110156114ab57600080fd5b50519050806114bf576000925050506119a1565b602c5460408051639b4a14bf60e01b81526004810187905290516001600160a01b0390921691639b4a14bf91602480820192602092909190829003018186803b15801561150b57600080fd5b505afa15801561151f573d6000803e3d6000fd5b505050506040513d602081101561153557600080fd5b505115611582576000818152602a602090815260408083208784528252808320548484526029835281842088855290925290912054611579918391620f42406120c7565b925050506119a1565b602c60009054906101000a90046001600160a01b03166001600160a01b031663b927ef436040518163ffffffff1660e01b815260040160206040518083038186803b1580156115d057600080fd5b505afa1580156115e4573d6000803e3d6000fd5b505050506040513d60208110156115fa57600080fd5b50516118a05760606000602c60009054906101000a90046001600160a01b03166001600160a01b0316636729c2dc6040518163ffffffff1660e01b815260040160006040518083038186803b15801561165257600080fd5b505afa158015611666573d6000803e3d6000fd5b505050506040513d6000823e601f3d908101601f19168201604052602081101561168f57600080fd5b810190808051600160201b8111156116a657600080fd5b820160208101848111156116b957600080fd5b81518560208202830111600160201b821117156116d557600080fd5b5090955060009450505050505b8151811015611756578181815181106116f757fe5b602002602001015186141561174e576000838152602a60209081526040808320898452825280832054868452602983528184208a855290925290912054611743918591620f42406120c7565b9450505050506119a1565b6001016116e2565b602c60009054906101000a90046001600160a01b03166001600160a01b0316630bf480c06040518163ffffffff1660e01b815260040160006040518083038186803b1580156117a457600080fd5b505afa1580156117b8573d6000803e3d6000fd5b505050506040513d6000823e601f3d908101601f1916820160405260208110156117e157600080fd5b810190808051600160201b8111156117f857600080fd5b8201602081018481111561180b57600080fd5b81518560208202830111600160201b8211171561182757600080fd5b5090955060009450505050505b815181101561189d5781818151811061184957fe5b6020026020010151861415611895576000838152602a60209081526040808320898452825280832054868452602983528184208a855290925290912054611743918591620f42406120c7565b600101611834565b50505b60408051630fec687960e21b81526004810186905260006024820152905161199c9183916001600160a01b03861691633fb1a1e4916044808301926020929190829003018186803b1580156118f457600080fd5b505afa158015611908573d6000803e3d6000fd5b505050506040513d602081101561191e57600080fd5b505160408051632a8f6ecd60e01b81526004810189905290516001600160a01b03871691632a8f6ecd916024808301926020929190829003018186803b15801561196757600080fd5b505afa15801561197b573d6000803e3d6000fd5b505050506040513d602081101561199157600080fd5b5051620f42406120c7565b925050505b919050565b60236020526000908152604090205481565b60006119c58484846133fb565b90505b9392505050565b60606002805480602002602001604051908101604052809291908181526020018280548015611a2757602002820191906000526020600020905b81546001600160a01b03168152600190910190602001808311611a09575b5050505050905090565b60256020526000908152604090205481565b602c60009054906101000a90046001600160a01b03166001600160a01b031663ee99205c6040518163ffffffff1660e01b815260040160206040518083038186803b158015611a9157600080fd5b505afa158015611aa5573d6000803e3d6000fd5b505050506040513d6020811015611abb57600080fd5b50516001600160a01b03163314611ad157600080fd5b611adb8282613557565b5050565b611ae76135ce565b1580611b0b5750611af6612f4d565b6001600160a01b0316336001600160a01b0316145b611b1457600080fd5b611b1c6113a2565b15611b2657600080fd5b6001600160a01b038216611b3957600080fd5b602c80546001600160a01b039384166001600160a01b03199182161790915560008052602b60205260147fe18c65fb8491ea105d3652ed62258476aaccd771ae89682addbba12f33acc62a5560038054929093169116179055565b602c546040805163a26301f960e01b81526001600160a01b0385811660048301529151606093600093169163a26301f9916024808301926020929190829003018186803b158015611be457600080fd5b505afa158015611bf8573d6000803e3d6000fd5b505050506040513d6020811015611c0e57600080fd5b505190506001600160a01b038416611c2557600080fd5b6001600160a01b038316611c3857600080fd5b80611c4257600080fd5b602c5460408051633ba6481760e21b815290516000926001600160a01b03169163ee99205c916004808301926020929190829003018186803b158015611c8757600080fd5b505afa158015611c9b573d6000803e3d6000fd5b505050506040513d6020811015611cb157600080fd5b5051905060006001600160a01b038581169087161415611cd2576000611cd4565b845b90506000806001600160a01b03831615611e2257836001600160a01b03166327d89b3a86856040518363ffffffff1660e01b815260040180838152602001826001600160a01b03166001600160a01b031681526020019250505060206040518083038186803b158015611d4657600080fd5b505afa158015611d5a573d6000803e3d6000fd5b505050506040513d6020811015611d7057600080fd5b5051915081611d955750506040805160008152602081019091529350611fec92505050565b836001600160a01b031663381883b086856040518363ffffffff1660e01b815260040180838152602001826001600160a01b03166001600160a01b031681526020019250505060206040518083038186803b158015611df357600080fd5b505afa158015611e07573d6000803e3d6000fd5b505050506040513d6020811015611e1d57600080fd5b505190505b600085815260208181526040918290208054835181815281840281019093019093529190606090828015611e60578160200160208202803883390190505b5090506000805b83811015611f74576000858281548110611e7d57fe5b60009182526020909120015490506001600160a01b03891615611ec25787811015611ea85750611f6c565b808711158015611eb757508615155b15611ec25750611f74565b6040805163186dc46f60e01b8152600481018d90526001600160a01b038b81166024830152604482018490529151918c169163186dc46f91606480820192602092909190829003018186803b158015611f1a57600080fd5b505afa158015611f2e573d6000803e3d6000fd5b505050506040513d6020811015611f4457600080fd5b5051611f6a5780848480600101955081518110611f5d57fe5b6020026020010181815250505b505b600101611e67565b81604051908082528060200260200182016040528015611f9e578160200160208202803883390190505b509a50600090505b81811015611fe157828181518110611fba57fe5b60200260200101518b8281518110611fce57fe5b6020908102919091010152600101611fa6565b505050505050505050505b92915050565b604655565b612000816112cb565b50565b60265481565b6000841580612016575083155b8061201f575082155b1561202c575060006110d8565b6000808585101561203e576000612042565b8585035b905080612054576000925050506110d8565b6000888152602b602052604090205481810260648290038802111561208657858886028161207e57fe5b04925061209d565b8160640281606403898702028161209957fe5b0492505b5090979650505050505050565b602a60209081526000928352604080842090915290825290205481565b60008315806120d4575082155b156120e1575060006112c3565b600080858510156120f35760006120f7565b8585035b6000888152602b602052604090205490915080820260648290038802111561212c57858786028161212457fe5b049250612135565b60648582020492505b50909695505050505050565b6000828152602a60209081526040808320848452825280832054858452602983528184208585528352818420548685526022845282852086865290935290832054909190612196908690889085908590612009565b9695505050505050565b6000806000fd5b6004546005540360010190565b3360009081526001602052604090205460ff166121d057600080fd5b816121da57600080fd5b600354600160a01b900460ff166121f057600080fd5b6121fb8282336135d4565b60408051838152905133916001600160a01b038416917f3c798bbcf33115b42c728b8504cff11dd58736e9fa789f1cda2738db7d696b2a9181900360200190a35050565b60215481565b60285481565b60276020526000908152604090205481565b602c546001600160a01b0316331461227457600080fd5b602c5460408051633ba6481760e21b815290516000926001600160a01b03169163ee99205c916004808301926020929190829003018186803b1580156122b957600080fd5b505afa1580156122cd573d6000803e3d6000fd5b505050506040513d60208110156122e357600080fd5b505160408051630f29818d60e31b815290519192506000916001600160a01b0384169163794c0c68916004808301926020929190829003018186803b15801561232b57600080fd5b505afa15801561233f573d6000803e3d6000fd5b505050506040513d602081101561235557600080fd5b5051602c5460408051637f2a23bf60e11b815290519293506060926001600160a01b039092169163fe54477e91600480820192600092909190829003018186803b1580156123a257600080fd5b505afa1580156123b6573d6000803e3d6000fd5b505050506040513d6000823e601f3d908101601f1916820160405260208110156123df57600080fd5b810190808051600160201b8111156123f657600080fd5b8201602081018481111561240957600080fd5b81518560208202830111600160201b8211171561242557600080fd5b50909450600093505050505b815181101561247a57600083815260208052604081208351829085908590811061245757fe5b602090810291909101810151825281019190915260400160002055600101612431565b50505050565b602b6020526000908152604090205481565b6000918252602b602052604090912055565b602c54604080516315ddbdb960e11b81526001600160a01b03858116600483015291516000939290921691632bbb7b7291602480820192602092909190829003018186803b1580156124f557600080fd5b505afa158015612509573d6000803e3d6000fd5b505050506040513d602081101561251f57600080fd5b5051600094855260208080526040808720928752919052909320555050565b602c546001600160a01b031681565b600081815260208181526040918290208054835181840281018401909452808452606093928301828280156125a157602002820191906000526020600020905b81548152602001906001019080831161258d575b50505050509050919050565b565b60208080526000928352604080842090915290825290205481565b6060806125d5613649565b6001600160a01b0316336001600160a01b0316146125f257600080fd5b8483141580612602575060018514155b8061262957508383600081811061261557fe5b9050602002013561ffff1661ffff16600014155b1561265a5760408051600080825260208201909252905b506040805160008152602081019091529092509050612f44565b602c546001600160a01b0316158061270d5750602c546001600160a01b031663facd743b878760008161268957fe5b905060200201356001600160a01b03166040518263ffffffff1660e01b815260040180826001600160a01b03166001600160a01b0316815260200191505060206040518083038186803b1580156126df57600080fd5b505afa1580156126f3573d6000803e3d6000fd5b505050506040513d602081101561270957600080fd5b5051155b15612728576040805160008082526020820190925290612640565b602c60009054906101000a90046001600160a01b03166001600160a01b031663ccf69e9b6040518163ffffffff1660e01b815260040160206040518083038186803b15801561277657600080fd5b505afa15801561278a573d6000803e3d6000fd5b505050506040513d60208110156127a057600080fd5b50516040805163109c110760e01b815290516001600160a01b039092169163109c11079160048082019260009290919082900301818387803b1580156127e557600080fd5b505af11580156127f9573d6000803e3d6000fd5b5050600354600160a01b900460ff169150612835905057600160045560006005556003805460ff60a01b1916600160a01b179055612835613658565b602c5460408051633ba6481760e21b815290516064926000926001600160a01b039091169163ee99205c91600480820192602092909190829003018186803b15801561288057600080fd5b505afa158015612894573d6000803e3d6000fd5b505050506040513d60208110156128aa57600080fd5b505160408051630f29818d60e31b815290519192506000916001600160a01b0384169163794c0c68916004808301926020929190829003018186803b1580156128f257600080fd5b505afa158015612906573d6000803e3d6000fd5b505050506040513d602081101561291c57600080fd5b50516040805163461121d760e11b815290519192506000916001600160a01b03851691638c2243ae916004808301926020929190829003018186803b15801561296457600080fd5b505afa158015612978573d6000803e3d6000fd5b505050506040513d602081101561298e57600080fd5b5051602c546040805163b927ef4360e01b815290519293506000926001600160a01b039092169163b927ef4391600480820192602092909190829003018186803b1580156129db57600080fd5b505afa1580156129ef573d6000803e3d6000fd5b505050506040513d6020811015612a0557600080fd5b505115612b7a578215801590612ab65750602c546001600160a01b031663a92252ae8c8c600081612a3257fe5b905060200201356001600160a01b03166040518263ffffffff1660e01b815260040180826001600160a01b03166001600160a01b0316815260200191505060206040518083038186803b158015612a8857600080fd5b505afa158015612a9c573d6000803e3d6000fd5b505050506040513d6020811015612ab257600080fd5b5051155b15612b7a57602c546000906001600160a01b0316632bbb7b728d8d8481612ad957fe5b905060200201356001600160a01b03166040518263ffffffff1660e01b815260040180826001600160a01b03166001600160a01b0316815260200191505060206040518083038186803b158015612b2f57600080fd5b505afa158015612b43573d6000803e3d6000fd5b505050506040513d6020811015612b5957600080fd5b50516000858152602080805260408083209383529290522080546001019055505b81612b836135ce565b1415612f30578215612b9d57612b9a8484846137b9565b90505b602c60009054906101000a90046001600160a01b03166001600160a01b0316635ccee1de6040518163ffffffff1660e01b8152600401600060405180830381600087803b158015612bed57600080fd5b505af1158015612c01573d6000803e3d6000fd5b5050602c54604080516319ca70b760e21b81529051600094506001880193506060926001600160a01b031691636729c2dc9160048083019288929190829003018186803b158015612c5157600080fd5b505afa158015612c65573d6000803e3d6000fd5b505050506040513d6000823e601f3d908101601f191682016040526020811015612c8e57600080fd5b810190808051600160201b811115612ca557600080fd5b82016020810184811115612cb857600080fd5b81518560208202830111600160201b82111715612cd457600080fd5b5060009750909450505050505b8051831015612d1357612d088783838681518110612cfb57fe5b60200260200101516131eb565b600190920191612ce1565b602c60009054906101000a90046001600160a01b03166001600160a01b031663fe54477e6040518163ffffffff1660e01b815260040160006040518083038186803b158015612d6157600080fd5b505afa158015612d75573d6000803e3d6000fd5b505050506040513d6000823e601f3d908101601f191682016040526020811015612d9e57600080fd5b810190808051600160201b811115612db557600080fd5b82016020810184811115612dc857600080fd5b81518560208202830111600160201b82111715612de457600080fd5b5060009750909450505050505b8051831015612e1657612e0b8783838681518110612cfb57fe5b600190920191612df1565b602c60009054906101000a90046001600160a01b03166001600160a01b0316630bf480c06040518163ffffffff1660e01b815260040160006040518083038186803b158015612e6457600080fd5b505afa158015612e78573d6000803e3d6000fd5b505050506040513d6000823e601f3d908101601f191682016040526020811015612ea157600080fd5b810190808051600160201b811115612eb857600080fd5b82016020810184811115612ecb57600080fd5b81518560208202830111600160201b82111715612ee757600080fd5b5060009750909450505050505b8051831015612f1957612f0e8783838681518110612cfb57fe5b600190920191612ef4565b506000908152602b60205260408120601490559550505b612f3a81866138e7565b9650965050505050505b94509492505050565b7fb53127684a568b3173ae13b9f8a6016e243e63b6e8ee1178d6a717850b5d61035490565b6060600082516000141561305a57602c60009054906101000a90046001600160a01b03166001600160a01b031663fe54477e6040518163ffffffff1660e01b815260040160006040518083038186803b158015612fce57600080fd5b505afa158015612fe2573d6000803e3d6000fd5b505050506040513d6000823e601f3d908101601f19168201604052602081101561300b57600080fd5b810190808051600160201b81111561302257600080fd5b8201602081018481111561303557600080fd5b81518560208202830111600160201b8211171561305157600080fd5b50909650505050505b60608351604051908082528060200260200182016040528015613087578160200160208202803883390190505b5090506000805b85518110156131cd5760008682815181106130a557fe5b60209081029190910181015160008a8152602a835260408082208383529093529190912054909150158015906131505750602c5460408051632682240f60e11b81526004810184905290516001600160a01b0390921691634d04481e91602480820192602092909190829003018186803b15801561312257600080fd5b505afa158015613136573d6000803e3d6000fd5b505050506040513d602081101561314c57600080fd5b5051155b1561318c57600088815260208080526040808320848452909152902054845185908490811061317b57fe5b6020026020010181815250506131a7565b600084838151811061319a57fe5b6020026020010181815250505b8382815181106131b357fe5b60200260200101518301925050808060010191505061308e565b50909590945092505050565b6000828201838110156119c857600080fd5b60008281526029602090815260408083208484529091529020541561320f576111d7565b6000836001600160a01b0316632a8f6ecd836040518263ffffffff1660e01b81526004018082815260200191505060206040518083038186803b15801561325557600080fd5b505afa158015613269573d6000803e3d6000fd5b505050506040513d602081101561327f57600080fd5b505190508061328e57506111d7565b600083815260296020908152604080832085845282528083208490558051630fec687960e21b8152600481018690526024810193909352516001600160a01b03871692633fb1a1e4926044808301939192829003018186803b1580156132f357600080fd5b505afa158015613307573d6000803e3d6000fd5b505050506040513d602081101561331d57600080fd5b50516000848152602a6020908152604080832086845290915290205550505050565b600061334b8383613afe565b60285460215401019392505050565b600080826133d6576133d085866001600160a01b0316638c2243ae6040518163ffffffff1660e01b815260040160206040518083038186803b15801561339f57600080fd5b505afa1580156133b3573d6000803e3d6000fd5b505050506040513d60208110156133c957600080fd5b5051613b12565b90945092505b6000836133e45760006133f1565b83858802816133ef57fe5b045b9795505050505050565b60008161340a575060006119c8565b82516134ea57602c60009054906101000a90046001600160a01b03166001600160a01b031663fe54477e6040518163ffffffff1660e01b815260040160006040518083038186803b15801561345e57600080fd5b505afa158015613472573d6000803e3d6000fd5b505050506040513d6000823e601f3d908101601f19168201604052602081101561349b57600080fd5b810190808051600160201b8111156134b257600080fd5b820160208101848111156134c557600080fd5b81518560208202830111600160201b821117156134e157600080fd5b50909650505050505b6000805b84518110156135405760296000878152602001908152602001600020600086838151811061351857fe5b60200260200101518152602001908152602001600020548201915080806001019150506134ee565b50670de0b6b3a76400008184020495945050505050565b811580159061358857506040516001600160a01b0382169083156108fc029084906000818181858888f19350505050155b15611adb57818160405161359b90613f1c565b6001600160a01b039091168152604051908190036020019082f0801580156135c7573d6000803e3d6000fd5b5050505050565b60465490565b60058054604080516060810182529586526001600160a01b03938416602080880191825295851687830190815260019384016000818152600690985292909620965187555191860180549285166001600160a01b03199384161790559351600290950180549590931694169390931790559055565b6047546001600160a01b031690565b6003546001600160a01b031661366d576125ad565b60005b6002548110156137315760006002828154811061368957fe5b6000918252602091829020015460035460408051631694a47d60e31b81526001600160a01b03938416600482018190529151919550919092169263b4a523e892602480840193829003018186803b1580156136e357600080fd5b505afa1580156136f7573d6000803e3d6000fd5b505050506040513d602081101561370d57600080fd5b50516001600160a01b03909116600090815260276020526040902055600101613670565b50600254156125ad57600360009054906101000a90046001600160a01b03166001600160a01b031663553a5c856040518163ffffffff1660e01b815260040160206040518083038186803b15801561378857600080fd5b505afa15801561379c573d6000803e3d6000fd5b505050506040513d60208110156137b257600080fd5b5051602655565b60006060602c60009054906101000a90046001600160a01b03166001600160a01b031663fe54477e6040518163ffffffff1660e01b815260040160006040518083038186803b15801561380b57600080fd5b505afa15801561381f573d6000803e3d6000fd5b505050506040513d6000823e601f3d908101601f19168201604052602081101561384857600080fd5b810190808051600160201b81111561385f57600080fd5b8201602081018481111561387257600080fd5b81518560208202830111600160201b8211171561388e57600080fd5b505092919050505090506000806138a58786613b12565b91509150606060006138b78886612f72565b915091506138ca89898686898787613caa565b95506138db89898686898787613dc1565b50505050509392505050565b60608060006138f46121a7565b9050838111156139015750825b84151580613910576000613913565b60015b60ff168201604051908082528060200260200182016040528015613941578160200160208202803883390190505b509350835160405190808252806020026020018201604052801561396f578160200160208202803883390190505b50925060005b828110156139ec57600080600061398a613dca565b9250925092508188858151811061399d57fe5b60200260200101906001600160a01b031690816001600160a01b031681525050828785815181106139ca57fe5b6020026020010181815250506139e1838383613e4b565b505050600101613975565b508015613a3a5730848381518110613a0057fe5b60200260200101906001600160a01b031690816001600160a01b03168152505085838381518110613a2d57fe5b6020026020010181815250505b7f2834f3daea15e82b5f27095c4b6d08cd437f303149009a0a3304be801d2dd7ce8484604051808060200180602001838103835285818151815260200191508051906020019060200280838360005b83811015613aa1578181015183820152602001613a89565b50505050905001838103825284818151815260200191508051906020019060200280838360005b83811015613ae0578181015183820152602001613ac8565b5050505090500194505050505060405180910390a150509250929050565b60006119c883836603b363eba41aab6133fb565b602c546040805163b927ef4360e01b815290516000928392839260019284926001600160a01b039091169163b927ef4391600480820192602092909190829003018186803b158015613b6357600080fd5b505afa158015613b77573d6000803e3d6000fd5b505050506040513d6020811015613b8d57600080fd5b5051905080156131cd5760006003602c60009054906101000a90046001600160a01b03166001600160a01b031663714897df6040518163ffffffff1660e01b815260040160206040518083038186803b158015613be957600080fd5b505afa158015613bfd573d6000803e3d6000fd5b505050506040513d6020811015613c1357600080fd5b505160020281613c1f57fe5b04886001600160a01b0316637069e7466040518163ffffffff1660e01b815260040160206040518083038186803b158015613c5957600080fd5b505afa158015613c6d573d6000803e3d6000fd5b505050506040513d6020811015613c8357600080fd5b505101600101905080821015613c97578091505b6001918703820198960301955050505050565b6000806000613cbc8a8a8a8a8a61135f565b915091508060001415613cd457600092505050613db6565b600060218190556060613ce98488888e6111f9565b9050875181511415613daa5760005b8851811015613da8576000898281518110613d0f57fe5b60200260200101519050828281518110613d2557fe5b60209081029190910181015160008f815260228352604080822085835290935291909120558251839083908110613d5857fe5b602002602001015184019350828281518110613d7057fe5b6020026020010151600014613d9f57600081815260208181526040822080546001810182559083529120018d90555b50600101613cf8565b505b50908190036028559150505b979650505050505050565b50505050505050565b600454600554600091829182919081811015613df157600094506000935060009250613e44565b6000828152600660205260408120805460028201805460018085018054969095556001600160a01b03198087169095559381169091556004805490930190925596506001600160a01b0390811695501692505b5050909192565b6000613e556135ce565b6001600160a01b03938416600081815260246020908152604080832085845282528083208990559282526023815282822080548901905592815260258352818120805488019055939094168352602790525020805482019055602680549091019055565b828054828255906000526020600020908101928215613f0c579160200282015b82811115613f0c5781546001600160a01b0319166001600160a01b03843516178255602090920191600190910190613ed9565b50613f18929150613f28565b5090565b603280613f4d83390190565b61135c91905b80821115613f185780546001600160a01b0319168155600101613f2e56fe60806040526040516032380380603283398181016040526020811015602357600080fd5b50516001600160a01b038116fffea265627a7a72305820ef927fbb438effe762648345d37de18acae68f3b020c9d3dda2a81a3bd08414564736f6c634300050a0032",
  "linkReferences": {},
  "deployedLinkReferences": {}
}