{
  "_format": "hh-sol-artifact-1",
  "contractName": "RecipientMock",
  "sourceName": "posdao-contracts/contracts/mock/RecipientMock.sol",
  "abi": [
    {
      "constant": true,
      "inputs": [],
      "name": "value",
      "outputs": [
        {
          "name": "",
          "type": "uint256"
        }
      ],
      "payable": false,
      "stateMutability": "view",
      "type": "function"
    },
    {
      "constant": true,
      "inputs": [],
      "name": "customString",
      "outputs": [
        {
          "name": "",
          "type": "string"
        }
      ],
      "payable": false,
      "stateMutability": "view",
      "type": "function"
    },
    {
      "constant": false,
      "inputs": [
        {
          "name": "_from",
          "type": "address"
        },
        {
          "name": "_value",
          "type": "uint256"
        },
        {
          "name": "_data",
          "type": "bytes"
        }
      ],
      "name": "onTokenTransfer",
      "outputs": [
        {
          "name": "",
          "type": "bool"
        }
      ],
      "payable": false,
      "stateMutability": "nonpayable",
      "type": "function"
    },
    {
      "constant": true,
      "inputs": [],
      "name": "from",
      "outputs": [
        {
          "name": "",
          "type": "address"
        }
      ],
      "payable": false,
      "stateMutability": "view",
      "type": "function"
    }
  ],
  "bytecode": "0x608060405234801561001057600080fd5b506103eb806100206000396000f3fe608060405234801561001057600080fd5b506004361061004c5760003560e01c80633fa4f2451461005157806350be70411461006b578063a4c0ed36146100e8578063d5ce338914610181575b600080fd5b6100596101a5565b60408051918252519081900360200190f35b6100736101ab565b6040805160208082528351818301528351919283929083019185019080838360005b838110156100ad578181015183820152602001610095565b50505050905090810190601f1680156100da5780820380516001836020036101000a031916815260200191505b509250505060405180910390f35b61016d600480360360608110156100fe57600080fd5b6001600160a01b038235169160208101359181019060608101604082013564010000000081111561012e57600080fd5b82018360208201111561014057600080fd5b8035906020019184600183028401116401000000008311171561016257600080fd5b509092509050610236565b604080519115158252519081900360200190f35b61018961030c565b604080516001600160a01b039092168252519081900360200190f35b60015481565b6002805460408051602060018416156101000260001901909316849004601f8101849004840282018401909252818152929183018282801561022e5780601f106102035761010080835404028352916020019161022e565b820191906000526020600020905b81548152906001019060200180831161021157829003601f168201915b505050505081565b600080546001600160a01b0319166001600160a01b03861617815560018490558282602081101561026657600080fd5b81019060208101813564010000000081111561028157600080fd5b82018360208201111561029357600080fd5b803590602001918460018302840111640100000000831117156102b557600080fd5b91908080601f0160208091040260200160405190810160405280939291908181526020018383808284376000920191909152505082516103039650600295506020909301935061031b915050565b50949350505050565b6000546001600160a01b031681565b828054600181600116156101000203166002900490600052602060002090601f016020900481019282601f1061035c57805160ff1916838001178555610389565b82800160010185558215610389579182015b8281111561038957825182559160200191906001019061036e565b50610395929150610399565b5090565b6103b391905b80821115610395576000815560010161039f565b9056fea265627a7a723058206f1e57b69dbf060766247d9fb005a21b2cef77d9283d6e34d72771149bb7994364736f6c634300050a0032",
  "linkReferences": {},
  "deployedLinkReferences": {}
}