{
  "_format": "hh-sol-artifact-1",
  "contractName": "BlockRewardAuRaCoins",
  "sourceName": "posdao-contracts/contracts/base/BlockRewardAuRaCoins.sol",
  "abi": [
    {
      "constant": true,
      "inputs": [
        {
          "name": "",
          "type": "uint256"
        },
        {
          "name": "",
          "type": "uint256"
        }
      ],
      "name": "snapshotPoolTotalStakeAmount",
      "outputs": [
        {
          "name": "",
          "type": "uint256"
        }
      ],
      "payable": false,
      "stateMutability": "view",
      "type": "function"
    },
    {
      "constant": true,
      "inputs": [
        {
          "name": "_stakingEpoch",
          "type": "uint256"
        },
        {
          "name": "_poolId",
          "type": "uint256"
        }
      ],
      "name": "getValidatorReward",
      "outputs": [
        {
          "name": "nativeReward",
          "type": "uint256"
        }
      ],
      "payable": false,
      "stateMutability": "view",
      "type": "function"
    },
    {
      "constant": false,
      "inputs": [
        {
          "name": "_bridgesAllowed",
          "type": "address[]"
        }
      ],
      "name": "setErcToNativeBridgesAllowed",
      "outputs": [],
      "payable": false,
      "stateMutability": "nonpayable",
      "type": "function"
    },
    {
      "constant": true,
      "inputs": [
        {
          "name": "",
          "type": "uint256"
        },
        {
          "name": "",
          "type": "uint256"
        }
      ],
      "name": "epochPoolNativeReward",
      "outputs": [
        {
          "name": "",
          "type": "uint256"
        }
      ],
      "payable": false,
      "stateMutability": "view",
      "type": "function"
    },
    {
      "constant": true,
      "inputs": [
        {
          "name": "_rewardToDistribute",
          "type": "uint256"
        },
        {
          "name": "_blocksCreatedShareNum",
          "type": "uint256[]"
        },
        {
          "name": "_blocksCreatedShareDenom",
          "type": "uint256"
        },
        {
          "name": "_stakingEpoch",
          "type": "uint256"
        }
      ],
      "name": "currentPoolRewards",
      "outputs": [
        {
          "name": "",
          "type": "uint256[]"
        }
      ],
      "payable": false,
      "stateMutability": "view",
      "type": "function"
    },
    {
      "constant": false,
      "inputs": [
        {
          "name": "_amount",
          "type": "uint256"
        }
      ],
      "name": "addBridgeNativeRewardReceivers",
      "outputs": [],
      "payable": false,
      "stateMutability": "nonpayable",
      "type": "function"
    },
    {
      "constant": true,
      "inputs": [],
      "name": "blockRewardContractId",
      "outputs": [
        {
          "name": "",
          "type": "bytes4"
        }
      ],
      "payable": false,
      "stateMutability": "pure",
      "type": "function"
    },
    {
      "constant": true,
      "inputs": [
        {
          "name": "_stakingContract",
          "type": "address"
        },
        {
          "name": "_stakingEpoch",
          "type": "uint256"
        },
        {
          "name": "_totalRewardShareNum",
          "type": "uint256"
        },
        {
          "name": "_totalRewardShareDenom",
          "type": "uint256"
        },
        {
          "name": "_validators",
          "type": "uint256[]"
        }
      ],
      "name": "currentNativeRewardToDistribute",
      "outputs": [
        {
          "name": "",
          "type": "uint256"
        },
        {
          "name": "",
          "type": "uint256"
        }
      ],
      "payable": false,
      "stateMutability": "view",
      "type": "function"
    },
    {
      "constant": true,
      "inputs": [
        {
          "name": "",
          "type": "address"
        },
        {
          "name": "",
          "type": "uint256"
        }
      ],
      "name": "mintedForAccountInBlock",
      "outputs": [
        {
          "name": "",
          "type": "uint256"
        }
      ],
      "payable": false,
      "stateMutability": "view",
      "type": "function"
    },
    {
      "constant": true,
      "inputs": [],
      "name": "isInitialized",
      "outputs": [
        {
          "name": "",
          "type": "bool"
        }
      ],
      "payable": false,
      "stateMutability": "view",
      "type": "function"
    },
    {
      "constant": true,
      "inputs": [],
      "name": "NATIVE_COIN_INFLATION_RATE",
      "outputs": [
        {
          "name": "",
          "type": "uint256"
        }
      ],
      "payable": false,
      "stateMutability": "view",
      "type": "function"
    },
    {
      "constant": true,
      "inputs": [
        {
          "name": "_poolId",
          "type": "uint256"
        }
      ],
      "name": "validatorRewardPercent",
      "outputs": [
        {
          "name": "",
          "type": "uint256"
        }
      ],
      "payable": false,
      "stateMutability": "view",
      "type": "function"
    },
    {
      "constant": true,
      "inputs": [
        {
          "name": "",
          "type": "address"
        }
      ],
      "name": "mintedForAccount",
      "outputs": [
        {
          "name": "",
          "type": "uint256"
        }
      ],
      "payable": false,
      "stateMutability": "view",
      "type": "function"
    },
    {
      "constant": true,
      "inputs": [],
      "name": "ercToNativeBridgesAllowed",
      "outputs": [
        {
          "name": "",
          "type": "address[]"
        }
      ],
      "payable": false,
      "stateMutability": "view",
      "type": "function"
    },
    {
      "constant": true,
      "inputs": [
        {
          "name": "",
          "type": "uint256"
        }
      ],
      "name": "mintedInBlock",
      "outputs": [
        {
          "name": "",
          "type": "uint256"
        }
      ],
      "payable": false,
      "stateMutability": "view",
      "type": "function"
    },
    {
      "constant": false,
      "inputs": [
        {
          "name": "_nativeCoins",
          "type": "uint256"
        },
        {
          "name": "_to",
          "type": "address"
        }
      ],
      "name": "transferReward",
      "outputs": [],
      "payable": false,
      "stateMutability": "nonpayable",
      "type": "function"
    },
    {
      "constant": false,
      "inputs": [
        {
          "name": "_validatorSet",
          "type": "address"
        },
        {
          "name": "_prevBlockReward",
          "type": "address"
        }
      ],
      "name": "initialize",
      "outputs": [],
      "payable": false,
      "stateMutability": "nonpayable",
      "type": "function"
    },
    {
      "constant": true,
      "inputs": [
        {
          "name": "_poolStakingAddress",
          "type": "address"
        },
        {
          "name": "_staker",
          "type": "address"
        }
      ],
      "name": "epochsToClaimRewardFrom",
      "outputs": [
        {
          "name": "epochsToClaimFrom",
          "type": "uint256[]"
        }
      ],
      "payable": false,
      "stateMutability": "view",
      "type": "function"
    },
    {
      "constant": false,
      "inputs": [
        {
          "name": "_amount",
          "type": "uint256"
        }
      ],
      "name": "addBridgeNativeFeeReceivers",
      "outputs": [],
      "payable": false,
      "stateMutability": "nonpayable",
      "type": "function"
    },
    {
      "constant": true,
      "inputs": [],
      "name": "mintedTotally",
      "outputs": [
        {
          "name": "",
          "type": "uint256"
        }
      ],
      "payable": false,
      "stateMutability": "view",
      "type": "function"
    },
    {
      "constant": true,
      "inputs": [
        {
          "name": "_stakingEpoch",
          "type": "uint256"
        },
        {
          "name": "_delegatorStaked",
          "type": "uint256"
        },
        {
          "name": "_validatorStaked",
          "type": "uint256"
        },
        {
          "name": "_totalStaked",
          "type": "uint256"
        },
        {
          "name": "_poolReward",
          "type": "uint256"
        }
      ],
      "name": "delegatorShare",
      "outputs": [
        {
          "name": "",
          "type": "uint256"
        }
      ],
      "payable": false,
      "stateMutability": "view",
      "type": "function"
    },
    {
      "constant": true,
      "inputs": [
        {
          "name": "",
          "type": "uint256"
        },
        {
          "name": "",
          "type": "uint256"
        }
      ],
      "name": "snapshotPoolValidatorStakeAmount",
      "outputs": [
        {
          "name": "",
          "type": "uint256"
        }
      ],
      "payable": false,
      "stateMutability": "view",
      "type": "function"
    },
    {
      "constant": true,
      "inputs": [
        {
          "name": "_stakingEpoch",
          "type": "uint256"
        },
        {
          "name": "_validatorStaked",
          "type": "uint256"
        },
        {
          "name": "_totalStaked",
          "type": "uint256"
        },
        {
          "name": "_poolReward",
          "type": "uint256"
        }
      ],
      "name": "validatorShare",
      "outputs": [
        {
          "name": "",
          "type": "uint256"
        }
      ],
      "payable": false,
      "stateMutability": "view",
      "type": "function"
    },
    {
      "constant": true,
      "inputs": [
        {
          "name": "_delegatorStake",
          "type": "uint256"
        },
        {
          "name": "_stakingEpoch",
          "type": "uint256"
        },
        {
          "name": "_poolId",
          "type": "uint256"
        }
      ],
      "name": "getDelegatorReward",
      "outputs": [
        {
          "name": "nativeReward",
          "type": "uint256"
        }
      ],
      "payable": false,
      "stateMutability": "view",
      "type": "function"
    },
    {
      "constant": true,
      "inputs": [
        {
          "name": "",
          "type": "address"
        },
        {
          "name": "",
          "type": "uint256"
        },
        {
          "name": "",
          "type": "bytes"
        }
      ],
      "name": "onTokenTransfer",
      "outputs": [
        {
          "name": "",
          "type": "bool"
        }
      ],
      "payable": false,
      "stateMutability": "pure",
      "type": "function"
    },
    {
      "constant": true,
      "inputs": [],
      "name": "extraReceiversQueueSize",
      "outputs": [
        {
          "name": "",
          "type": "uint256"
        }
      ],
      "payable": false,
      "stateMutability": "view",
      "type": "function"
    },
    {
      "constant": false,
      "inputs": [
        {
          "name": "_amount",
          "type": "uint256"
        },
        {
          "name": "_receiver",
          "type": "address"
        }
      ],
      "name": "addExtraReceiver",
      "outputs": [],
      "payable": false,
      "stateMutability": "nonpayable",
      "type": "function"
    },
    {
      "constant": true,
      "inputs": [],
      "name": "bridgeNativeReward",
      "outputs": [
        {
          "name": "",
          "type": "uint256"
        }
      ],
      "payable": false,
      "stateMutability": "view",
      "type": "function"
    },
    {
      "constant": true,
      "inputs": [],
      "name": "nativeRewardUndistributed",
      "outputs": [
        {
          "name": "",
          "type": "uint256"
        }
      ],
      "payable": false,
      "stateMutability": "view",
      "type": "function"
    },
    {
      "constant": true,
      "inputs": [
        {
          "name": "",
          "type": "address"
        }
      ],
      "name": "mintedTotallyByBridge",
      "outputs": [
        {
          "name": "",
          "type": "uint256"
        }
      ],
      "payable": false,
      "stateMutability": "view",
      "type": "function"
    },
    {
      "constant": false,
      "inputs": [],
      "name": "clearBlocksCreated",
      "outputs": [],
      "payable": false,
      "stateMutability": "nonpayable",
      "type": "function"
    },
    {
      "constant": true,
      "inputs": [
        {
          "name": "",
          "type": "uint256"
        }
      ],
      "name": "validatorMinRewardPercent",
      "outputs": [
        {
          "name": "",
          "type": "uint256"
        }
      ],
      "payable": false,
      "stateMutability": "view",
      "type": "function"
    },
    {
      "constant": true,
      "inputs": [],
      "name": "validatorSetContract",
      "outputs": [
        {
          "name": "",
          "type": "address"
        }
      ],
      "payable": false,
      "stateMutability": "view",
      "type": "function"
    },
    {
      "constant": true,
      "inputs": [
        {
          "name": "_poolId",
          "type": "uint256"
        }
      ],
      "name": "epochsPoolGotRewardFor",
      "outputs": [
        {
          "name": "",
          "type": "uint256[]"
        }
      ],
      "payable": false,
      "stateMutability": "view",
      "type": "function"
    },
    {
      "constant": true,
      "inputs": [
        {
          "name": "",
          "type": "uint256"
        },
        {
          "name": "",
          "type": "uint256"
        }
      ],
      "name": "blocksCreated",
      "outputs": [
        {
          "name": "",
          "type": "uint256"
        }
      ],
      "payable": false,
      "stateMutability": "view",
      "type": "function"
    },
    {
      "constant": false,
      "inputs": [
        {
          "name": "benefactors",
          "type": "address[]"
        },
        {
          "name": "kind",
          "type": "uint16[]"
        }
      ],
      "name": "reward",
      "outputs": [
        {
          "name": "receiversNative",
          "type": "address[]"
        },
        {
          "name": "rewardsNative",
          "type": "uint256[]"
        }
      ],
      "payable": false,
      "stateMutability": "nonpayable",
      "type": "function"
    },
    {
      "payable": true,
      "stateMutability": "payable",
      "type": "fallback"
    },
    {
      "anonymous": false,
      "inputs": [
        {
          "indexed": false,
          "name": "amount",
          "type": "uint256"
        },
        {
          "indexed": true,
          "name": "receiver",
          "type": "address"
        },
        {
          "indexed": true,
          "name": "bridge",
          "type": "address"
        }
      ],
      "name": "AddedReceiver",
      "type": "event"
    },
    {
      "anonymous": false,
      "inputs": [
        {
          "indexed": false,
          "name": "amount",
          "type": "uint256"
        },
        {
          "indexed": false,
          "name": "cumulativeAmount",
          "type": "uint256"
        },
        {
          "indexed": true,
          "name": "bridge",
          "type": "address"
        }
      ],
      "name": "BridgeNativeRewardAdded",
      "type": "event"
    },
    {
      "anonymous": false,
      "inputs": [
        {
          "indexed": false,
          "name": "receivers",
          "type": "address[]"
        },
        {
          "indexed": false,
          "name": "rewards",
          "type": "uint256[]"
        }
      ],
      "name": "MintedNative",
      "type": "event"
    }
  ],
  "bytecode": "0x608060405234801561001057600080fd5b50613a60806100206000396000f3fe60806040526004361061020f5760003560e01c80635325138911610118578063ac8a0942116100a0578063cdf7a0901161006f578063cdf7a090146109ec578063dfc8bf4e14610a16578063e7f6cfe214610a47578063f8fdc6b914610a71578063f91c289814610aa15761020f565b8063ac8a09421461097a578063adc481a71461098f578063b4a523e8146109a4578063c5dd7628146109d75761020f565b80638737929a116100e75780638737929a146107f4578063877ffdea14610830578063a4c0ed3614610866578063a9add57d1461092c578063aa9fa274146109415761020f565b80635325138914610743578063553a5c851461076d5780635fba554e14610782578063727b071d146107c45761020f565b8063392e53cd1161019b578063419ce2641161016a578063419ce264146106555780634476d66a1461066a578063469507c614610694578063485cc955146106cd5780634de6c036146107085761020f565b8063392e53cd146105ba57806339f53709146105e35780633bf47e96146105f85780633d84b8c1146106225761020f565b8063212329f3116101e2578063212329f314610333578063222fafb21461043d5780632ee57f8d14610467578063307bff261461049957806330f6eb16146105815761020f565b80630ac2daa0146102145780631289b17914610256578063171d54dd146102865780631f1a01b714610303575b600080fd5b34801561022057600080fd5b506102446004803603604081101561023757600080fd5b5080359060200135610c05565b60408051918252519081900360200190f35b34801561026257600080fd5b506102446004803603604081101561027957600080fd5b5080359060200135610c22565b34801561029257600080fd5b50610301600480360360208110156102a957600080fd5b810190602081018135600160201b8111156102c357600080fd5b8201836020820111156102d557600080fd5b803590602001918460208302840111600160201b831117156102f657600080fd5b509092509050610c7e565b005b34801561030f57600080fd5b506102446004803603604081101561032657600080fd5b5080359060200135610d79565b34801561033f57600080fd5b506103ed6004803603608081101561035657600080fd5b81359190810190604081016020820135600160201b81111561037757600080fd5b82018360208201111561038957600080fd5b803590602001918460208302840111600160201b831117156103aa57600080fd5b9190808060200260200160405190810160405280939291908181526020018383602002808284376000920191909152509295505082359350505060200135610d96565b60408051602080825283518183015283519192839290830191858101910280838360005b83811015610429578181015183820152602001610411565b505050509050019250505060405180910390f35b34801561044957600080fd5b506103016004803603602081101561046057600080fd5b5035610e68565b34801561047357600080fd5b5061047c610ee5565b604080516001600160e01b03199092168252519081900360200190f35b3480156104a557600080fd5b50610568600480360360a08110156104bc57600080fd5b6001600160a01b038235169160208101359160408201359160608101359181019060a081016080820135600160201b8111156104f757600080fd5b82018360208201111561050957600080fd5b803590602001918460208302840111600160201b8311171561052a57600080fd5b919080806020026020016040519081016040528093929190818152602001838360200280828437600092019190915250929550610ef1945050505050565b6040805192835260208301919091528051918290030190f35b34801561058d57600080fd5b50610244600480360360408110156105a457600080fd5b506001600160a01b038135169060200135610f17565b3480156105c657600080fd5b506105cf610f34565b604080519115158252519081900360200190f35b3480156105ef57600080fd5b50610244610f45565b34801561060457600080fd5b506102446004803603602081101561061b57600080fd5b5035610f50565b34801561062e57600080fd5b506102446004803603602081101561064557600080fd5b50356001600160a01b0316611538565b34801561066157600080fd5b506103ed61154a565b34801561067657600080fd5b506102446004803603602081101561068d57600080fd5b50356115ac565b3480156106a057600080fd5b50610301600480360360408110156106b757600080fd5b50803590602001356001600160a01b03166115be565b3480156106d957600080fd5b50610301600480360360408110156106f057600080fd5b506001600160a01b038135811691602001351661165a565b34801561071457600080fd5b506103ed6004803603604081101561072b57600080fd5b506001600160a01b038135811691602001351661170f565b34801561074f57600080fd5b506103016004803603602081101561076657600080fd5b5035611b6d565b34801561077957600080fd5b50610244611b79565b34801561078e57600080fd5b50610244600480360360a08110156107a557600080fd5b5080359060208101359060408101359060608101359060800135611b7f565b3480156107d057600080fd5b50610244600480360360408110156107e757600080fd5b5080359060200135611c20565b34801561080057600080fd5b506102446004803603608081101561081757600080fd5b5080359060208101359060408101359060600135611c3d565b34801561083c57600080fd5b506102446004803603606081101561085357600080fd5b5080359060208101359060400135611cb7565b34801561087257600080fd5b506105cf6004803603606081101561088957600080fd5b6001600160a01b0382351691602081013591810190606081016040820135600160201b8111156108b857600080fd5b8201836020820111156108ca57600080fd5b803590602001918460018302840111600160201b831117156108eb57600080fd5b91908080601f016020809104026020016040519081016040528093929190818152602001838380828437600092019190915250929550611d16945050505050565b34801561093857600080fd5b50610244611d1d565b34801561094d57600080fd5b506103016004803603604081101561096457600080fd5b50803590602001356001600160a01b0316611d2a565b34801561098657600080fd5b50610244611db5565b34801561099b57600080fd5b50610244611dbb565b3480156109b057600080fd5b50610244600480360360208110156109c757600080fd5b50356001600160a01b0316611dc1565b3480156109e357600080fd5b50610301611dd3565b3480156109f857600080fd5b5061024460048036036020811015610a0f57600080fd5b5035611ff6565b348015610a2257600080fd5b50610a2b612008565b604080516001600160a01b039092168252519081900360200190f35b348015610a5357600080fd5b506103ed60048036036020811015610a6a57600080fd5b5035612017565b348015610a7d57600080fd5b5061024460048036036040811015610a9457600080fd5b5080359060200135612077565b348015610aad57600080fd5b50610b6c60048036036040811015610ac457600080fd5b810190602081018135600160201b811115610ade57600080fd5b820183602082011115610af057600080fd5b803590602001918460208302840111600160201b83111715610b1157600080fd5b919390929091602081019035600160201b811115610b2e57600080fd5b820183602082011115610b4057600080fd5b803590602001918460208302840111600160201b83111715610b6157600080fd5b509092509050612092565b604051808060200180602001838103835285818151815260200191508051906020019060200280838360005b83811015610bb0578181015183820152602001610b98565b50505050905001838103825284818151815260200191508051906020019060200280838360005b83811015610bef578181015183820152602001610bd7565b5050505090500194505050505060405180910390f35b602960209081526000928352604080842090915290825290205481565b6000828152602a60209081526040808320848452825280832054858452602983528184208585528352818420548685526022845282852086865290935290832054909190610c7590869084908490611c3d565b95945050505050565b610c86612a03565b6001600160a01b0316336001600160a01b031614610ca357600080fd5b610cab610f34565b610cb457600080fd5b60005b600254811015610d105760006001600060028481548110610cd457fe5b6000918252602080832091909101546001600160a01b031683528201929092526040019020805460ff1916911515919091179055600101610cb7565b610d1c60028484613966565b50600090505b81811015610d74576001806000858585818110610d3b57fe5b602090810292909201356001600160a01b0316835250810191909152604001600020805460ff1916911515919091179055600101610d22565b505050565b602260209081526000928352604080842090915290825290205481565b60608083610dbe57604080516000815260208101909152610db8908490612a28565b90955093505b851580610dc9575083155b15610de35750604080516000815260208101909152610e5d565b8451604051908082528060200260200182016040528015610e0e578160200160208202803883390190505b50905060005b8551811015610e5b5784868281518110610e2a57fe5b6020026020010151880281610e3b57fe5b04828281518110610e4857fe5b6020908102919091010152600101610e14565b505b90505b949350505050565b3360009081526001602052604090205460ff16610e8457600080fd5b80610e8e57600080fd5b602154610ea1908263ffffffff612c8f16565b6021819055604080518381526020810192909252805133927f619cc90cbd264bea3dfc113e68fd307789a937a8c10ef4b0110607ac7490367392908290030190a250565b63069ad3e560e11b5b90565b600080610f09610f018785612ca8565b888787612cc3565b915091509550959350505050565b602460209081526000928352604080842090915290825290205481565b602c546001600160a01b0316151590565b6603b363eba41aab81565b600080602c60009054906101000a90046001600160a01b03166001600160a01b031663ee99205c6040518163ffffffff1660e01b815260040160206040518083038186803b158015610fa157600080fd5b505afa158015610fb5573d6000803e3d6000fd5b505050506040513d6020811015610fcb57600080fd5b505160408051630f29818d60e31b815290519192506000916001600160a01b0384169163794c0c68916004808301926020929190829003018186803b15801561101357600080fd5b505afa158015611027573d6000803e3d6000fd5b505050506040513d602081101561103d57600080fd5b505190508061105157600092505050611533565b602c5460408051639b4a14bf60e01b81526004810187905290516001600160a01b0390921691639b4a14bf91602480820192602092909190829003018186803b15801561109d57600080fd5b505afa1580156110b1573d6000803e3d6000fd5b505050506040513d60208110156110c757600080fd5b505115611114576000818152602a60209081526040808320878452825280832054848452602983528184208885529092529091205461110b918391620f4240611c3d565b92505050611533565b602c60009054906101000a90046001600160a01b03166001600160a01b031663b927ef436040518163ffffffff1660e01b815260040160206040518083038186803b15801561116257600080fd5b505afa158015611176573d6000803e3d6000fd5b505050506040513d602081101561118c57600080fd5b50516114325760606000602c60009054906101000a90046001600160a01b03166001600160a01b0316636729c2dc6040518163ffffffff1660e01b815260040160006040518083038186803b1580156111e457600080fd5b505afa1580156111f8573d6000803e3d6000fd5b505050506040513d6000823e601f3d908101601f19168201604052602081101561122157600080fd5b810190808051600160201b81111561123857600080fd5b8201602081018481111561124b57600080fd5b81518560208202830111600160201b8211171561126757600080fd5b5090955060009450505050505b81518110156112e85781818151811061128957fe5b60200260200101518614156112e0576000838152602a60209081526040808320898452825280832054868452602983528184208a8552909252909120546112d5918591620f4240611c3d565b945050505050611533565b600101611274565b602c60009054906101000a90046001600160a01b03166001600160a01b0316630bf480c06040518163ffffffff1660e01b815260040160006040518083038186803b15801561133657600080fd5b505afa15801561134a573d6000803e3d6000fd5b505050506040513d6000823e601f3d908101601f19168201604052602081101561137357600080fd5b810190808051600160201b81111561138a57600080fd5b8201602081018481111561139d57600080fd5b81518560208202830111600160201b821117156113b957600080fd5b5090955060009450505050505b815181101561142f578181815181106113db57fe5b6020026020010151861415611427576000838152602a60209081526040808320898452825280832054868452602983528184208a8552909252909120546112d5918591620f4240611c3d565b6001016113c6565b50505b60408051630fec687960e21b81526004810186905260006024820152905161152e9183916001600160a01b03861691633fb1a1e4916044808301926020929190829003018186803b15801561148657600080fd5b505afa15801561149a573d6000803e3d6000fd5b505050506040513d60208110156114b057600080fd5b505160408051632a8f6ecd60e01b81526004810189905290516001600160a01b03871691632a8f6ecd916024808301926020929190829003018186803b1580156114f957600080fd5b505afa15801561150d573d6000803e3d6000fd5b505050506040513d602081101561152357600080fd5b5051620f4240611c3d565b925050505b919050565b60236020526000908152604090205481565b606060028054806020026020016040519081016040528092919081815260200182805480156115a257602002820191906000526020600020905b81546001600160a01b03168152600190910190602001808311611584575b5050505050905090565b60256020526000908152604090205481565b602c60009054906101000a90046001600160a01b03166001600160a01b031663ee99205c6040518163ffffffff1660e01b815260040160206040518083038186803b15801561160c57600080fd5b505afa158015611620573d6000803e3d6000fd5b505050506040513d602081101561163657600080fd5b50516001600160a01b0316331461164c57600080fd5b6116568282612d64565b5050565b611662612ddb565b15806116865750611671612a03565b6001600160a01b0316336001600160a01b0316145b61168f57600080fd5b611697610f34565b156116a157600080fd5b6001600160a01b0382166116b457600080fd5b602c80546001600160a01b039384166001600160a01b03199182161790915560008052602b60205260147fe18c65fb8491ea105d3652ed62258476aaccd771ae89682addbba12f33acc62a5560038054929093169116179055565b602c546040805163a26301f960e01b81526001600160a01b0385811660048301529151606093600093169163a26301f9916024808301926020929190829003018186803b15801561175f57600080fd5b505afa158015611773573d6000803e3d6000fd5b505050506040513d602081101561178957600080fd5b505190506001600160a01b0384166117a057600080fd5b6001600160a01b0383166117b357600080fd5b806117bd57600080fd5b602c5460408051633ba6481760e21b815290516000926001600160a01b03169163ee99205c916004808301926020929190829003018186803b15801561180257600080fd5b505afa158015611816573d6000803e3d6000fd5b505050506040513d602081101561182c57600080fd5b5051905060006001600160a01b03858116908716141561184d57600061184f565b845b90506000806001600160a01b0383161561199d57836001600160a01b03166327d89b3a86856040518363ffffffff1660e01b815260040180838152602001826001600160a01b03166001600160a01b031681526020019250505060206040518083038186803b1580156118c157600080fd5b505afa1580156118d5573d6000803e3d6000fd5b505050506040513d60208110156118eb57600080fd5b50519150816119105750506040805160008152602081019091529350611b6792505050565b836001600160a01b031663381883b086856040518363ffffffff1660e01b815260040180838152602001826001600160a01b03166001600160a01b031681526020019250505060206040518083038186803b15801561196e57600080fd5b505afa158015611982573d6000803e3d6000fd5b505050506040513d602081101561199857600080fd5b505190505b6000858152602081815260409182902080548351818152818402810190930190935291906060908280156119db578160200160208202803883390190505b5090506000805b83811015611aef5760008582815481106119f857fe5b60009182526020909120015490506001600160a01b03891615611a3d5787811015611a235750611ae7565b808711158015611a3257508615155b15611a3d5750611aef565b6040805163186dc46f60e01b8152600481018d90526001600160a01b038b81166024830152604482018490529151918c169163186dc46f91606480820192602092909190829003018186803b158015611a9557600080fd5b505afa158015611aa9573d6000803e3d6000fd5b505050506040513d6020811015611abf57600080fd5b5051611ae55780848480600101955081518110611ad857fe5b6020026020010181815250505b505b6001016119e2565b81604051908082528060200260200182016040528015611b19578160200160208202803883390190505b509a50600090505b81811015611b5c57828181518110611b3557fe5b60200260200101518b8281518110611b4957fe5b6020908102919091010152600101611b21565b505050505050505050505b92915050565b611b7681610e68565b50565b60265481565b6000841580611b8c575083155b80611b95575082155b15611ba257506000610c75565b60008085851015611bb4576000611bb8565b8585035b905080611bca57600092505050610c75565b6000888152602b6020526040902054818102606482900388021115611bfc578588860281611bf457fe5b049250611c13565b81606402816064038987020281611c0f57fe5b0492505b5090979650505050505050565b602a60209081526000928352604080842090915290825290205481565b6000831580611c4a575082155b15611c5757506000610e60565b60008085851015611c69576000611c6d565b8585035b6000888152602b6020526040902054909150808202606482900388021115611ca2578587860281611c9a57fe5b049250611cab565b60648582020492505b50909695505050505050565b6000828152602a60209081526040808320848452825280832054858452602983528184208585528352818420548685526022845282852086865290935290832054909190611d0c908690889085908590611b7f565b9695505050505050565b6000806000fd5b6004546005540360010190565b3360009081526001602052604090205460ff16611d4657600080fd5b81611d5057600080fd5b600354600160a01b900460ff16611d6657600080fd5b611d71828233612ddf565b60408051838152905133916001600160a01b038416917f3c798bbcf33115b42c728b8504cff11dd58736e9fa789f1cda2738db7d696b2a9181900360200190a35050565b60215481565b60285481565b60276020526000908152604090205481565b602c546001600160a01b03163314611dea57600080fd5b602c5460408051633ba6481760e21b815290516000926001600160a01b03169163ee99205c916004808301926020929190829003018186803b158015611e2f57600080fd5b505afa158015611e43573d6000803e3d6000fd5b505050506040513d6020811015611e5957600080fd5b505160408051630f29818d60e31b815290519192506000916001600160a01b0384169163794c0c68916004808301926020929190829003018186803b158015611ea157600080fd5b505afa158015611eb5573d6000803e3d6000fd5b505050506040513d6020811015611ecb57600080fd5b5051602c5460408051637f2a23bf60e11b815290519293506060926001600160a01b039092169163fe54477e91600480820192600092909190829003018186803b158015611f1857600080fd5b505afa158015611f2c573d6000803e3d6000fd5b505050506040513d6000823e601f3d908101601f191682016040526020811015611f5557600080fd5b810190808051600160201b811115611f6c57600080fd5b82016020810184811115611f7f57600080fd5b81518560208202830111600160201b82111715611f9b57600080fd5b50909450600093505050505b8151811015611ff0576000838152602080526040812083518290859085908110611fcd57fe5b602090810291909101810151825281019190915260400160002055600101611fa7565b50505050565b602b6020526000908152604090205481565b602c546001600160a01b031681565b6000818152602081815260409182902080548351818402810184019094528084526060939283018282801561206b57602002820191906000526020600020905b815481526020019060010190808311612057575b50505050509050919050565b60208080526000928352604080842090915290825290205481565b6060806002600160a01b0333146120a857600080fd5b84831415806120b8575060018514155b806120df5750838360008181106120cb57fe5b9050602002013561ffff1661ffff16600014155b156121105760408051600080825260208201909252905b5060408051600081526020810190915290925090506129fa565b602c546001600160a01b031615806121c35750602c546001600160a01b031663facd743b878760008161213f57fe5b905060200201356001600160a01b03166040518263ffffffff1660e01b815260040180826001600160a01b03166001600160a01b0316815260200191505060206040518083038186803b15801561219557600080fd5b505afa1580156121a9573d6000803e3d6000fd5b505050506040513d60208110156121bf57600080fd5b5051155b156121de5760408051600080825260208201909252906120f6565b602c60009054906101000a90046001600160a01b03166001600160a01b031663ccf69e9b6040518163ffffffff1660e01b815260040160206040518083038186803b15801561222c57600080fd5b505afa158015612240573d6000803e3d6000fd5b505050506040513d602081101561225657600080fd5b50516040805163109c110760e01b815290516001600160a01b039092169163109c11079160048082019260009290919082900301818387803b15801561229b57600080fd5b505af11580156122af573d6000803e3d6000fd5b5050600354600160a01b900460ff1691506122eb905057600160045560006005556003805460ff60a01b1916600160a01b1790556122eb612e54565b602c5460408051633ba6481760e21b815290516064926000926001600160a01b039091169163ee99205c91600480820192602092909190829003018186803b15801561233657600080fd5b505afa15801561234a573d6000803e3d6000fd5b505050506040513d602081101561236057600080fd5b505160408051630f29818d60e31b815290519192506000916001600160a01b0384169163794c0c68916004808301926020929190829003018186803b1580156123a857600080fd5b505afa1580156123bc573d6000803e3d6000fd5b505050506040513d60208110156123d257600080fd5b50516040805163461121d760e11b815290519192506000916001600160a01b03851691638c2243ae916004808301926020929190829003018186803b15801561241a57600080fd5b505afa15801561242e573d6000803e3d6000fd5b505050506040513d602081101561244457600080fd5b5051602c546040805163b927ef4360e01b815290519293506000926001600160a01b039092169163b927ef4391600480820192602092909190829003018186803b15801561249157600080fd5b505afa1580156124a5573d6000803e3d6000fd5b505050506040513d60208110156124bb57600080fd5b50511561263057821580159061256c5750602c546001600160a01b031663a92252ae8c8c6000816124e857fe5b905060200201356001600160a01b03166040518263ffffffff1660e01b815260040180826001600160a01b03166001600160a01b0316815260200191505060206040518083038186803b15801561253e57600080fd5b505afa158015612552573d6000803e3d6000fd5b505050506040513d602081101561256857600080fd5b5051155b1561263057602c546000906001600160a01b0316632bbb7b728d8d848161258f57fe5b905060200201356001600160a01b03166040518263ffffffff1660e01b815260040180826001600160a01b03166001600160a01b0316815260200191505060206040518083038186803b1580156125e557600080fd5b505afa1580156125f9573d6000803e3d6000fd5b505050506040513d602081101561260f57600080fd5b50516000858152602080805260408083209383529290522080546001019055505b81612639612ddb565b14156129e657821561265357612650848484612fb6565b90505b602c60009054906101000a90046001600160a01b03166001600160a01b0316635ccee1de6040518163ffffffff1660e01b8152600401600060405180830381600087803b1580156126a357600080fd5b505af11580156126b7573d6000803e3d6000fd5b5050602c54604080516319ca70b760e21b81529051600094506001880193506060926001600160a01b031691636729c2dc9160048083019288929190829003018186803b15801561270757600080fd5b505afa15801561271b573d6000803e3d6000fd5b505050506040513d6000823e601f3d908101601f19168201604052602081101561274457600080fd5b810190808051600160201b81111561275b57600080fd5b8201602081018481111561276e57600080fd5b81518560208202830111600160201b8211171561278a57600080fd5b5060009750909450505050505b80518310156127c9576127be87838386815181106127b157fe5b60200260200101516130e4565b600190920191612797565b602c60009054906101000a90046001600160a01b03166001600160a01b031663fe54477e6040518163ffffffff1660e01b815260040160006040518083038186803b15801561281757600080fd5b505afa15801561282b573d6000803e3d6000fd5b505050506040513d6000823e601f3d908101601f19168201604052602081101561285457600080fd5b810190808051600160201b81111561286b57600080fd5b8201602081018481111561287e57600080fd5b81518560208202830111600160201b8211171561289a57600080fd5b5060009750909450505050505b80518310156128cc576128c187838386815181106127b157fe5b6001909201916128a7565b602c60009054906101000a90046001600160a01b03166001600160a01b0316630bf480c06040518163ffffffff1660e01b815260040160006040518083038186803b15801561291a57600080fd5b505afa15801561292e573d6000803e3d6000fd5b505050506040513d6000823e601f3d908101601f19168201604052602081101561295757600080fd5b810190808051600160201b81111561296e57600080fd5b8201602081018481111561298157600080fd5b81518560208202830111600160201b8211171561299d57600080fd5b5060009750909450505050505b80518310156129cf576129c487838386815181106127b157fe5b6001909201916129aa565b506000908152602b60205260408120601490559550505b6129f08186613238565b9650965050505050505b94509492505050565b7fb53127684a568b3173ae13b9f8a6016e243e63b6e8ee1178d6a717850b5d61035490565b60606000825160001415612b1057602c60009054906101000a90046001600160a01b03166001600160a01b031663fe54477e6040518163ffffffff1660e01b815260040160006040518083038186803b158015612a8457600080fd5b505afa158015612a98573d6000803e3d6000fd5b505050506040513d6000823e601f3d908101601f191682016040526020811015612ac157600080fd5b810190808051600160201b811115612ad857600080fd5b82016020810184811115612aeb57600080fd5b81518560208202830111600160201b82111715612b0757600080fd5b50909650505050505b60608351604051908082528060200260200182016040528015612b3d578160200160208202803883390190505b5090506000805b8551811015612c83576000868281518110612b5b57fe5b60209081029190910181015160008a8152602a83526040808220838352909352919091205490915015801590612c065750602c5460408051632682240f60e11b81526004810184905290516001600160a01b0390921691634d04481e91602480820192602092909190829003018186803b158015612bd857600080fd5b505afa158015612bec573d6000803e3d6000fd5b505050506040513d6020811015612c0257600080fd5b5051155b15612c42576000888152602080805260408083208484529091529020548451859084908110612c3157fe5b602002602001018181525050612c5d565b6000848381518110612c5057fe5b6020026020010181815250505b838281518110612c6957fe5b602002602001015183019250508080600101915050612b44565b50909590945092505050565b600082820183811015612ca157600080fd5b9392505050565b6000612cb4838361344f565b60285460215401019392505050565b60008082612d3f57612d3985866001600160a01b0316638c2243ae6040518163ffffffff1660e01b815260040160206040518083038186803b158015612d0857600080fd5b505afa158015612d1c573d6000803e3d6000fd5b505050506040513d6020811015612d3257600080fd5b5051613463565b90945092505b600083612d4d576000612d5a565b8385880281612d5857fe5b045b9795505050505050565b8115801590612d9557506040516001600160a01b0382169083156108fc029084906000818181858888f19350505050155b15611656578181604051612da8906139c9565b6001600160a01b039091168152604051908190036020019082f080158015612dd4573d6000803e3d6000fd5b5050505050565b4390565b60058054604080516060810182529586526001600160a01b03938416602080880191825295851687830190815260019384016000818152600690985292909620965187555191860180549285166001600160a01b03199384161790559351600290950180549590931694169390931790559055565b6003546001600160a01b0316612e6957612fb4565b60005b600254811015612f2d57600060028281548110612e8557fe5b6000918252602091829020015460035460408051631694a47d60e31b81526001600160a01b03938416600482018190529151919550919092169263b4a523e892602480840193829003018186803b158015612edf57600080fd5b505afa158015612ef3573d6000803e3d6000fd5b505050506040513d6020811015612f0957600080fd5b50516001600160a01b03909116600090815260276020526040902055600101612e6c565b5060025415612fb457600360009054906101000a90046001600160a01b03166001600160a01b031663553a5c856040518163ffffffff1660e01b815260040160206040518083038186803b158015612f8457600080fd5b505afa158015612f98573d6000803e3d6000fd5b505050506040513d6020811015612fae57600080fd5b50516026555b565b60006060602c60009054906101000a90046001600160a01b03166001600160a01b031663fe54477e6040518163ffffffff1660e01b815260040160006040518083038186803b15801561300857600080fd5b505afa15801561301c573d6000803e3d6000fd5b505050506040513d6000823e601f3d908101601f19168201604052602081101561304557600080fd5b810190808051600160201b81111561305c57600080fd5b8201602081018481111561306f57600080fd5b81518560208202830111600160201b8211171561308b57600080fd5b505092919050505090506000806130a28786613463565b91509150606060006130b48886612a28565b915091506130c7898986868987876135fb565b95506130d889898686898787613712565b50505050509392505050565b60008281526029602090815260408083208484529091529020541561310857610d74565b6000836001600160a01b0316632a8f6ecd836040518263ffffffff1660e01b81526004018082815260200191505060206040518083038186803b15801561314e57600080fd5b505afa158015613162573d6000803e3d6000fd5b505050506040513d602081101561317857600080fd5b50519050806131875750610d74565b600083815260296020908152604080832085845282528083208490558051630fec687960e21b8152600481018690526024810193909352516001600160a01b03871692633fb1a1e4926044808301939192829003018186803b1580156131ec57600080fd5b505afa158015613200573d6000803e3d6000fd5b505050506040513d602081101561321657600080fd5b50516000848152602a6020908152604080832086845290915290205550505050565b6060806000613245611d1d565b9050838111156132525750825b84151580613261576000613264565b60015b60ff168201604051908082528060200260200182016040528015613292578160200160208202803883390190505b50935083516040519080825280602002602001820160405280156132c0578160200160208202803883390190505b50925060005b8281101561333d5760008060006132db61371b565b925092509250818885815181106132ee57fe5b60200260200101906001600160a01b031690816001600160a01b0316815250508287858151811061331b57fe5b60200260200101818152505061333283838361379c565b5050506001016132c6565b50801561338b573084838151811061335157fe5b60200260200101906001600160a01b031690816001600160a01b0316815250508583838151811061337e57fe5b6020026020010181815250505b7f2834f3daea15e82b5f27095c4b6d08cd437f303149009a0a3304be801d2dd7ce8484604051808060200180602001838103835285818151815260200191508051906020019060200280838360005b838110156133f25781810151838201526020016133da565b50505050905001838103825284818151815260200191508051906020019060200280838360005b83811015613431578181015183820152602001613419565b5050505090500194505050505060405180910390a150509250929050565b6000612ca183836603b363eba41aab61380a565b602c546040805163b927ef4360e01b815290516000928392839260019284926001600160a01b039091169163b927ef4391600480820192602092909190829003018186803b1580156134b457600080fd5b505afa1580156134c8573d6000803e3d6000fd5b505050506040513d60208110156134de57600080fd5b505190508015612c835760006003602c60009054906101000a90046001600160a01b03166001600160a01b031663714897df6040518163ffffffff1660e01b815260040160206040518083038186803b15801561353a57600080fd5b505afa15801561354e573d6000803e3d6000fd5b505050506040513d602081101561356457600080fd5b50516002028161357057fe5b04886001600160a01b0316637069e7466040518163ffffffff1660e01b815260040160206040518083038186803b1580156135aa57600080fd5b505afa1580156135be573d6000803e3d6000fd5b505050506040513d60208110156135d457600080fd5b5051016001019050808210156135e8578091505b6001918703820198960301955050505050565b600080600061360d8a8a8a8a8a610ef1565b91509150806000141561362557600092505050613707565b60006021819055606061363a8488888e610d96565b90508751815114156136fb5760005b88518110156136f957600089828151811061366057fe5b6020026020010151905082828151811061367657fe5b60209081029190910181015160008f8152602283526040808220858352909352919091205582518390839081106136a957fe5b6020026020010151840193508282815181106136c157fe5b60200260200101516000146136f057600081815260208181526040822080546001810182559083529120018d90555b50600101613649565b505b50908190036028559150505b979650505050505050565b50505050505050565b60045460055460009182918291908181101561374257600094506000935060009250613795565b6000828152600660205260408120805460028201805460018085018054969095556001600160a01b03198087169095559381169091556004805490930190925596506001600160a01b0390811695501692505b5050909192565b60006137a6612ddb565b6001600160a01b03938416600081815260246020908152604080832085845282528083208990559282526023815282822080548901905592815260258352818120805488019055939094168352602790525020805482019055602680549091019055565b60008161381957506000612ca1565b82516138f957602c60009054906101000a90046001600160a01b03166001600160a01b031663fe54477e6040518163ffffffff1660e01b815260040160006040518083038186803b15801561386d57600080fd5b505afa158015613881573d6000803e3d6000fd5b505050506040513d6000823e601f3d908101601f1916820160405260208110156138aa57600080fd5b810190808051600160201b8111156138c157600080fd5b820160208101848111156138d457600080fd5b81518560208202830111600160201b821117156138f057600080fd5b50909650505050505b6000805b845181101561394f5760296000878152602001908152602001600020600086838151811061392757fe5b60200260200101518152602001908152602001600020548201915080806001019150506138fd565b50670de0b6b3a76400009083020490509392505050565b8280548282559060005260206000209081019282156139b9579160200282015b828111156139b95781546001600160a01b0319166001600160a01b03843516178255602090920191600190910190613986565b506139c59291506139d5565b5090565b6032806139fa83390190565b610eee91905b808211156139c55780546001600160a01b03191681556001016139db56fe60806040526040516032380380603283398181016040526020811015602357600080fd5b50516001600160a01b038116fffea265627a7a72305820d603db3259ce8ed29777315042f62cdb2c922d7867b54b948dfe51bf9393f92d64736f6c634300050a0032",
  "linkReferences": {},
  "deployedLinkReferences": {}
}