{
  "_format": "hh-sol-artifact-1",
  "contractName": "Certifier",
  "sourceName": "posdao-contracts/contracts/Certifier.sol",
  "abi": [
    {
      "constant": false,
      "inputs": [
        {
          "name": "_who",
          "type": "address[]"
        }
      ],
      "name": "revoke",
      "outputs": [],
      "payable": false,
      "stateMutability": "nonpayable",
      "type": "function"
    },
    {
      "constant": true,
      "inputs": [],
      "name": "isInitialized",
      "outputs": [
        {
          "name": "",
          "type": "bool"
        }
      ],
      "payable": false,
      "stateMutability": "view",
      "type": "function"
    },
    {
      "constant": false,
      "inputs": [
        {
          "name": "_certifiedAddresses",
          "type": "address[]"
        },
        {
          "name": "_validatorSet",
          "type": "address"
        }
      ],
      "name": "initialize",
      "outputs": [],
      "payable": false,
      "stateMutability": "nonpayable",
      "type": "function"
    },
    {
      "constant": false,
      "inputs": [
        {
          "name": "_who",
          "type": "address[]"
        }
      ],
      "name": "certify",
      "outputs": [],
      "payable": false,
      "stateMutability": "nonpayable",
      "type": "function"
    },
    {
      "constant": true,
      "inputs": [
        {
          "name": "_who",
          "type": "address"
        }
      ],
      "name": "certified",
      "outputs": [
        {
          "name": "",
          "type": "bool"
        }
      ],
      "payable": false,
      "stateMutability": "view",
      "type": "function"
    },
    {
      "constant": true,
      "inputs": [],
      "name": "validatorSetContract",
      "outputs": [
        {
          "name": "",
          "type": "address"
        }
      ],
      "payable": false,
      "stateMutability": "view",
      "type": "function"
    },
    {
      "constant": true,
      "inputs": [
        {
          "name": "_who",
          "type": "address"
        }
      ],
      "name": "certifiedExplicitly",
      "outputs": [
        {
          "name": "",
          "type": "bool"
        }
      ],
      "payable": false,
      "stateMutability": "view",
      "type": "function"
    },
    {
      "anonymous": false,
      "inputs": [
        {
          "indexed": true,
          "name": "who",
          "type": "address"
        }
      ],
      "name": "Confirmed",
      "type": "event"
    },
    {
      "anonymous": false,
      "inputs": [
        {
          "indexed": true,
          "name": "who",
          "type": "address"
        }
      ],
      "name": "Revoked",
      "type": "event"
    }
  ],
  "bytecode": "0x608060405234801561001057600080fd5b50610616806100206000396000f3fe608060405234801561001057600080fd5b506004361061007d5760003560e01c80635d6067d01161005b5780635d6067d014610189578063cc1d4c02146101f9578063dfc8bf4e1461021f578063e8e23ac0146102435761007d565b806305f203d914610082578063392e53cd146100f4578063462d0b2e14610110575b600080fd5b6100f26004803603602081101561009857600080fd5b8101906020810181356401000000008111156100b357600080fd5b8201836020820111156100c557600080fd5b803590602001918460208302840111640100000000831117156100e757600080fd5b509092509050610269565b005b6100fc61033e565b604080519115158252519081900360200190f35b6100f26004803603604081101561012657600080fd5b81019060208101813564010000000081111561014157600080fd5b82018360208201111561015357600080fd5b8035906020019184602083028401116401000000008311171561017557600080fd5b9193509150356001600160a01b031661034f565b6100f26004803603602081101561019f57600080fd5b8101906020810181356401000000008111156101ba57600080fd5b8201836020820111156101cc57600080fd5b803590602001918460208302840111640100000000831117156101ee57600080fd5b5090925090506103fe565b6100fc6004803603602081101561020f57600080fd5b50356001600160a01b0316610456565b61022761050a565b604080516001600160a01b039092168252519081900360200190f35b6100fc6004803603602081101561025957600080fd5b50356001600160a01b0316610519565b610271610537565b6001600160a01b0316336001600160a01b03161461028e57600080fd5b61029661033e565b61029f57600080fd5b60005b818110156103395760008383838181106102b857fe5b602090810292909201356001600160a01b03166000818152928390526040909220549192505060ff166102ea57600080fd5b6001600160a01b038116600081815260208190526040808220805460ff19169055517fb6fa8b8bd5eab60f292eca876e3ef90722275b785309d84b1de113ce0b8c4e749190a2506001016102a2565b505050565b6001546001600160a01b0316151590565b431580610374575061035f610537565b6001600160a01b0316336001600160a01b0316145b61037d57600080fd5b61038561033e565b1561038f57600080fd5b6001600160a01b0381166103a257600080fd5b60005b828110156103d9576103d18484838181106103bc57fe5b905060200201356001600160a01b031661055c565b6001016103a5565b50600180546001600160a01b0319166001600160a01b03929092169190911790555050565b610406610537565b6001600160a01b0316336001600160a01b03161461042357600080fd5b61042b61033e565b61043457600080fd5b60005b818110156103395761044e8383838181106103bc57fe5b600101610437565b6001600160a01b03811660009081526020819052604081205460ff161561047f57506001610505565b6001805460408051639184d0ad60e01b81526001600160a01b038681166004830152602482019490945290519290911691639184d0ad91604480820192602092909190829003018186803b1580156104d657600080fd5b505afa1580156104ea573d6000803e3d6000fd5b505050506040513d602081101561050057600080fd5b505190505b919050565b6001546001600160a01b031681565b6001600160a01b031660009081526020819052604090205460ff1690565b7fb53127684a568b3173ae13b9f8a6016e243e63b6e8ee1178d6a717850b5d61035490565b6001600160a01b03811661056f57600080fd5b6001600160a01b03811660009081526020819052604090205460ff161561059557600080fd5b6001600160a01b038116600081815260208190526040808220805460ff19166001179055517fd415b905d4dd806bfba99a7a0e6351bd0c9db3a9912add21c0e6bef4479f673f9190a25056fea265627a7a72305820f5fe95e2b252143c4bb4bd338419902770eb7d803c75dea29f56e211c6ff475f64736f6c634300050a0032",
  "linkReferences": {},
  "deployedLinkReferences": {}
}