{
  "_format": "hh-sol-artifact-1",
  "contractName": "StakingAuRaTokensMock",
  "sourceName": "posdao-contracts/contracts/mock/StakingAuRaTokensMock.sol",
  "abi": [
    {
      "constant": true,
      "inputs": [
        {
          "name": "",
          "type": "uint256"
        },
        {
          "name": "",
          "type": "address"
        }
      ],
      "name": "poolDelegatorIndex",
      "outputs": [
        {
          "name": "",
          "type": "uint256"
        }
      ],
      "payable": false,
      "stateMutability": "view",
      "type": "function"
    },
    {
      "constant": false,
      "inputs": [
        {
          "name": "_totalAmount",
          "type": "uint256"
        }
      ],
      "name": "initialValidatorStake",
      "outputs": [],
      "payable": false,
      "stateMutability": "nonpayable",
      "type": "function"
    },
    {
      "constant": true,
      "inputs": [
        {
          "name": "_poolId",
          "type": "uint256"
        },
        {
          "name": "_delegatorOrZero",
          "type": "address"
        }
      ],
      "name": "stakeAmountByCurrentEpoch",
      "outputs": [
        {
          "name": "",
          "type": "uint256"
        }
      ],
      "payable": false,
      "stateMutability": "view",
      "type": "function"
    },
    {
      "constant": true,
      "inputs": [
        {
          "name": "",
          "type": "uint256"
        },
        {
          "name": "",
          "type": "address"
        }
      ],
      "name": "poolDelegatorInactiveIndex",
      "outputs": [
        {
          "name": "",
          "type": "uint256"
        }
      ],
      "payable": false,
      "stateMutability": "view",
      "type": "function"
    },
    {
      "constant": false,
      "inputs": [],
      "name": "removePools",
      "outputs": [],
      "payable": false,
      "stateMutability": "nonpayable",
      "type": "function"
    },
    {
      "constant": true,
      "inputs": [
        {
          "name": "",
          "type": "uint256"
        },
        {
          "name": "",
          "type": "address"
        },
        {
          "name": "",
          "type": "uint256"
        }
      ],
      "name": "rewardWasTaken",
      "outputs": [
        {
          "name": "",
          "type": "bool"
        }
      ],
      "payable": false,
      "stateMutability": "view",
      "type": "function"
    },
    {
      "constant": false,
      "inputs": [
        {
          "name": "_poolId",
          "type": "uint256"
        },
        {
          "name": "_delegator",
          "type": "address"
        },
        {
          "name": "_value",
          "type": "uint256"
        }
      ],
      "name": "setStakeFirstEpoch",
      "outputs": [],
      "payable": false,
      "stateMutability": "nonpayable",
      "type": "function"
    },
    {
      "constant": false,
      "inputs": [
        {
          "name": "_blockNumber",
          "type": "uint256"
        }
      ],
      "name": "setStakingEpochStartBlock",
      "outputs": [],
      "payable": false,
      "stateMutability": "nonpayable",
      "type": "function"
    },
    {
      "constant": false,
      "inputs": [
        {
          "name": "_fromPoolStakingAddress",
          "type": "address"
        },
        {
          "name": "_toPoolStakingAddress",
          "type": "address"
        },
        {
          "name": "_amount",
          "type": "uint256"
        }
      ],
      "name": "moveStake",
      "outputs": [],
      "payable": false,
      "stateMutability": "nonpayable",
      "type": "function"
    },
    {
      "constant": true,
      "inputs": [
        {
          "name": "",
          "type": "uint256"
        },
        {
          "name": "",
          "type": "address"
        }
      ],
      "name": "stakeFirstEpoch",
      "outputs": [
        {
          "name": "",
          "type": "uint256"
        }
      ],
      "payable": false,
      "stateMutability": "view",
      "type": "function"
    },
    {
      "constant": false,
      "inputs": [
        {
          "name": "_poolId",
          "type": "uint256"
        },
        {
          "name": "_delegator",
          "type": "address"
        },
        {
          "name": "_stakingEpoch",
          "type": "uint256"
        }
      ],
      "name": "clearDelegatorStakeSnapshot",
      "outputs": [],
      "payable": false,
      "stateMutability": "nonpayable",
      "type": "function"
    },
    {
      "constant": true,
      "inputs": [
        {
          "name": "",
          "type": "uint256"
        }
      ],
      "name": "stakeAmountTotal",
      "outputs": [
        {
          "name": "",
          "type": "uint256"
        }
      ],
      "payable": false,
      "stateMutability": "view",
      "type": "function"
    },
    {
      "constant": false,
      "inputs": [
        {
          "name": "_minStake",
          "type": "uint256"
        }
      ],
      "name": "setDelegatorMinStake",
      "outputs": [],
      "payable": false,
      "stateMutability": "nonpayable",
      "type": "function"
    },
    {
      "constant": true,
      "inputs": [],
      "name": "erc677TokenContract",
      "outputs": [
        {
          "name": "",
          "type": "address"
        }
      ],
      "payable": false,
      "stateMutability": "view",
      "type": "function"
    },
    {
      "constant": true,
      "inputs": [
        {
          "name": "_delegator",
          "type": "address"
        },
        {
          "name": "_offset",
          "type": "uint256"
        },
        {
          "name": "_length",
          "type": "uint256"
        }
      ],
      "name": "getDelegatorPools",
      "outputs": [
        {
          "name": "result",
          "type": "uint256[]"
        }
      ],
      "payable": false,
      "stateMutability": "view",
      "type": "function"
    },
    {
      "constant": false,
      "inputs": [
        {
          "name": "_unremovablePoolId",
          "type": "uint256"
        }
      ],
      "name": "clearUnremovableValidator",
      "outputs": [],
      "payable": false,
      "stateMutability": "nonpayable",
      "type": "function"
    },
    {
      "constant": true,
      "inputs": [
        {
          "name": "",
          "type": "uint256"
        },
        {
          "name": "",
          "type": "address"
        }
      ],
      "name": "stakeLastEpoch",
      "outputs": [
        {
          "name": "",
          "type": "uint256"
        }
      ],
      "payable": false,
      "stateMutability": "view",
      "type": "function"
    },
    {
      "constant": true,
      "inputs": [],
      "name": "isInitialized",
      "outputs": [
        {
          "name": "",
          "type": "bool"
        }
      ],
      "payable": false,
      "stateMutability": "view",
      "type": "function"
    },
    {
      "constant": false,
      "inputs": [
        {
          "name": "_stakingEpochs",
          "type": "uint256[]"
        },
        {
          "name": "_poolStakingAddress",
          "type": "address"
        }
      ],
      "name": "claimReward",
      "outputs": [],
      "payable": false,
      "stateMutability": "nonpayable",
      "type": "function"
    },
    {
      "constant": true,
      "inputs": [
        {
          "name": "",
          "type": "uint256"
        },
        {
          "name": "",
          "type": "address"
        }
      ],
      "name": "stakeAmount",
      "outputs": [
        {
          "name": "",
          "type": "uint256"
        }
      ],
      "payable": false,
      "stateMutability": "view",
      "type": "function"
    },
    {
      "constant": true,
      "inputs": [
        {
          "name": "",
          "type": "uint256"
        }
      ],
      "name": "orderedWithdrawAmountTotal",
      "outputs": [
        {
          "name": "",
          "type": "uint256"
        }
      ],
      "payable": false,
      "stateMutability": "view",
      "type": "function"
    },
    {
      "constant": false,
      "inputs": [
        {
          "name": "_minStake",
          "type": "uint256"
        }
      ],
      "name": "setCandidateMinStake",
      "outputs": [],
      "payable": false,
      "stateMutability": "nonpayable",
      "type": "function"
    },
    {
      "constant": false,
      "inputs": [
        {
          "name": "_poolId",
          "type": "uint256"
        },
        {
          "name": "_amount",
          "type": "uint256"
        }
      ],
      "name": "setInitialStake",
      "outputs": [],
      "payable": false,
      "stateMutability": "nonpayable",
      "type": "function"
    },
    {
      "constant": false,
      "inputs": [
        {
          "name": "_poolId",
          "type": "uint256"
        }
      ],
      "name": "addPoolInactiveMock",
      "outputs": [],
      "payable": false,
      "stateMutability": "nonpayable",
      "type": "function"
    },
    {
      "constant": false,
      "inputs": [
        {
          "name": "_poolId",
          "type": "uint256"
        },
        {
          "name": "_delegator",
          "type": "address"
        },
        {
          "name": "_value",
          "type": "uint256"
        }
      ],
      "name": "setStakeLastEpoch",
      "outputs": [],
      "payable": false,
      "stateMutability": "nonpayable",
      "type": "function"
    },
    {
      "constant": false,
      "inputs": [
        {
          "name": "_dest",
          "type": "address"
        }
      ],
      "name": "withdrawPortis",
      "outputs": [],
      "payable": false,
      "stateMutability": "nonpayable",
      "type": "function"
    },
    {
      "constant": false,
      "inputs": [
        {
          "name": "_blockNumber",
          "type": "uint256"
        }
      ],
      "name": "setCurrentBlockNumber",
      "outputs": [],
      "payable": false,
      "stateMutability": "nonpayable",
      "type": "function"
    },
    {
      "constant": true,
      "inputs": [
        {
          "name": "_poolId",
          "type": "uint256"
        }
      ],
      "name": "poolDelegators",
      "outputs": [
        {
          "name": "",
          "type": "address[]"
        }
      ],
      "payable": false,
      "stateMutability": "view",
      "type": "function"
    },
    {
      "constant": false,
      "inputs": [
        {
          "name": "_erc677TokenContract",
          "type": "address"
        }
      ],
      "name": "setErc677TokenContract",
      "outputs": [],
      "payable": false,
      "stateMutability": "nonpayable",
      "type": "function"
    },
    {
      "constant": false,
      "inputs": [
        {
          "name": "_stakingEpoch",
          "type": "uint256"
        }
      ],
      "name": "setStakingEpoch",
      "outputs": [],
      "payable": false,
      "stateMutability": "nonpayable",
      "type": "function"
    },
    {
      "constant": false,
      "inputs": [
        {
          "name": "_poolId",
          "type": "uint256"
        },
        {
          "name": "_staker",
          "type": "address"
        },
        {
          "name": "_epoch",
          "type": "uint256"
        }
      ],
      "name": "clearRewardWasTaken",
      "outputs": [],
      "payable": false,
      "stateMutability": "nonpayable",
      "type": "function"
    },
    {
      "constant": true,
      "inputs": [],
      "name": "candidateMinStake",
      "outputs": [
        {
          "name": "",
          "type": "uint256"
        }
      ],
      "payable": false,
      "stateMutability": "view",
      "type": "function"
    },
    {
      "constant": true,
      "inputs": [],
      "name": "getPools",
      "outputs": [
        {
          "name": "",
          "type": "uint256[]"
        }
      ],
      "payable": false,
      "stateMutability": "view",
      "type": "function"
    },
    {
      "constant": true,
      "inputs": [
        {
          "name": "_poolStakingAddress",
          "type": "address"
        },
        {
          "name": "_staker",
          "type": "address"
        }
      ],
      "name": "maxWithdrawAllowed",
      "outputs": [
        {
          "name": "",
          "type": "uint256"
        }
      ],
      "payable": false,
      "stateMutability": "view",
      "type": "function"
    },
    {
      "constant": true,
      "inputs": [
        {
          "name": "",
          "type": "uint256"
        },
        {
          "name": "",
          "type": "address"
        },
        {
          "name": "",
          "type": "uint256"
        }
      ],
      "name": "delegatorStakeSnapshot",
      "outputs": [
        {
          "name": "",
          "type": "uint256"
        }
      ],
      "payable": false,
      "stateMutability": "view",
      "type": "function"
    },
    {
      "constant": true,
      "inputs": [
        {
          "name": "",
          "type": "uint256"
        }
      ],
      "name": "poolInactiveIndex",
      "outputs": [
        {
          "name": "",
          "type": "uint256"
        }
      ],
      "payable": false,
      "stateMutability": "view",
      "type": "function"
    },
    {
      "constant": true,
      "inputs": [],
      "name": "stakingEpochStartBlock",
      "outputs": [
        {
          "name": "",
          "type": "uint256"
        }
      ],
      "payable": false,
      "stateMutability": "view",
      "type": "function"
    },
    {
      "constant": true,
      "inputs": [],
      "name": "lastChangeBlock",
      "outputs": [
        {
          "name": "",
          "type": "uint256"
        }
      ],
      "payable": false,
      "stateMutability": "view",
      "type": "function"
    },
    {
      "constant": true,
      "inputs": [],
      "name": "stakingEpoch",
      "outputs": [
        {
          "name": "",
          "type": "uint256"
        }
      ],
      "payable": false,
      "stateMutability": "view",
      "type": "function"
    },
    {
      "constant": true,
      "inputs": [
        {
          "name": "_delegator",
          "type": "address"
        }
      ],
      "name": "getDelegatorPoolsLength",
      "outputs": [
        {
          "name": "",
          "type": "uint256"
        }
      ],
      "payable": false,
      "stateMutability": "view",
      "type": "function"
    },
    {
      "constant": true,
      "inputs": [],
      "name": "stakingEpochEndBlock",
      "outputs": [
        {
          "name": "",
          "type": "uint256"
        }
      ],
      "payable": false,
      "stateMutability": "view",
      "type": "function"
    },
    {
      "constant": false,
      "inputs": [
        {
          "name": "_poolId",
          "type": "uint256"
        }
      ],
      "name": "addUnremovableValidator",
      "outputs": [],
      "payable": false,
      "stateMutability": "nonpayable",
      "type": "function"
    },
    {
      "constant": true,
      "inputs": [
        {
          "name": "_poolStakingAddress",
          "type": "address"
        },
        {
          "name": "_staker",
          "type": "address"
        }
      ],
      "name": "maxWithdrawOrderAllowed",
      "outputs": [
        {
          "name": "",
          "type": "uint256"
        }
      ],
      "payable": false,
      "stateMutability": "view",
      "type": "function"
    },
    {
      "constant": true,
      "inputs": [],
      "name": "getPoolsLikelihood",
      "outputs": [
        {
          "name": "likelihoods",
          "type": "uint256[]"
        },
        {
          "name": "sum",
          "type": "uint256"
        }
      ],
      "payable": false,
      "stateMutability": "view",
      "type": "function"
    },
    {
      "constant": true,
      "inputs": [],
      "name": "stakeWithdrawDisallowPeriod",
      "outputs": [
        {
          "name": "",
          "type": "uint256"
        }
      ],
      "payable": false,
      "stateMutability": "view",
      "type": "function"
    },
    {
      "constant": true,
      "inputs": [
        {
          "name": "",
          "type": "uint256"
        }
      ],
      "name": "poolToBeElectedIndex",
      "outputs": [
        {
          "name": "",
          "type": "uint256"
        }
      ],
      "payable": false,
      "stateMutability": "view",
      "type": "function"
    },
    {
      "constant": true,
      "inputs": [
        {
          "name": "_poolId",
          "type": "uint256"
        }
      ],
      "name": "poolDelegatorsInactive",
      "outputs": [
        {
          "name": "",
          "type": "address[]"
        }
      ],
      "payable": false,
      "stateMutability": "view",
      "type": "function"
    },
    {
      "constant": false,
      "inputs": [
        {
          "name": "_poolId",
          "type": "uint256"
        }
      ],
      "name": "removePool",
      "outputs": [],
      "payable": false,
      "stateMutability": "nonpayable",
      "type": "function"
    },
    {
      "constant": false,
      "inputs": [
        {
          "name": "_staker",
          "type": "address"
        },
        {
          "name": "_amount",
          "type": "uint256"
        },
        {
          "name": "_data",
          "type": "bytes"
        }
      ],
      "name": "onTokenTransfer",
      "outputs": [
        {
          "name": "",
          "type": "bool"
        }
      ],
      "payable": false,
      "stateMutability": "nonpayable",
      "type": "function"
    },
    {
      "constant": true,
      "inputs": [],
      "name": "getPoolsToBeElected",
      "outputs": [
        {
          "name": "",
          "type": "uint256[]"
        }
      ],
      "payable": false,
      "stateMutability": "view",
      "type": "function"
    },
    {
      "constant": false,
      "inputs": [
        {
          "name": "_toPoolStakingAddress",
          "type": "address"
        },
        {
          "name": "_amount",
          "type": "uint256"
        }
      ],
      "name": "stake",
      "outputs": [],
      "payable": true,
      "stateMutability": "payable",
      "type": "function"
    },
    {
      "constant": true,
      "inputs": [],
      "name": "governanceContract",
      "outputs": [
        {
          "name": "",
          "type": "address"
        }
      ],
      "payable": false,
      "stateMutability": "view",
      "type": "function"
    },
    {
      "constant": false,
      "inputs": [
        {
          "name": "_poolStakingAddress",
          "type": "address"
        },
        {
          "name": "_amount",
          "type": "int256"
        }
      ],
      "name": "orderWithdraw",
      "outputs": [],
      "payable": false,
      "stateMutability": "nonpayable",
      "type": "function"
    },
    {
      "constant": true,
      "inputs": [
        {
          "name": "_poolId",
          "type": "uint256"
        }
      ],
      "name": "isPoolActive",
      "outputs": [
        {
          "name": "",
          "type": "bool"
        }
      ],
      "payable": false,
      "stateMutability": "view",
      "type": "function"
    },
    {
      "constant": true,
      "inputs": [
        {
          "name": "",
          "type": "uint256"
        }
      ],
      "name": "poolToBeRemovedIndex",
      "outputs": [
        {
          "name": "",
          "type": "uint256"
        }
      ],
      "payable": false,
      "stateMutability": "view",
      "type": "function"
    },
    {
      "constant": false,
      "inputs": [
        {
          "name": "_validatorSetContract",
          "type": "address"
        },
        {
          "name": "_governanceContract",
          "type": "address"
        },
        {
          "name": "_initialIds",
          "type": "uint256[]"
        },
        {
          "name": "_delegatorMinStake",
          "type": "uint256"
        },
        {
          "name": "_candidateMinStake",
          "type": "uint256"
        },
        {
          "name": "_stakingEpochDuration",
          "type": "uint256"
        },
        {
          "name": "_stakingEpochStartBlock",
          "type": "uint256"
        },
        {
          "name": "_stakeWithdrawDisallowPeriod",
          "type": "uint256"
        }
      ],
      "name": "initialize",
      "outputs": [],
      "payable": false,
      "stateMutability": "nonpayable",
      "type": "function"
    },
    {
      "constant": true,
      "inputs": [
        {
          "name": "",
          "type": "uint256"
        }
      ],
      "name": "poolIndex",
      "outputs": [
        {
          "name": "",
          "type": "uint256"
        }
      ],
      "payable": false,
      "stateMutability": "view",
      "type": "function"
    },
    {
      "constant": false,
      "inputs": [
        {
          "name": "_poolStakingAddress",
          "type": "address"
        }
      ],
      "name": "claimOrderedWithdraw",
      "outputs": [],
      "payable": false,
      "stateMutability": "nonpayable",
      "type": "function"
    },
    {
      "constant": true,
      "inputs": [],
      "name": "getPoolsToBeRemoved",
      "outputs": [
        {
          "name": "",
          "type": "uint256[]"
        }
      ],
      "payable": false,
      "stateMutability": "view",
      "type": "function"
    },
    {
      "constant": true,
      "inputs": [
        {
          "name": "",
          "type": "uint256"
        },
        {
          "name": "",
          "type": "address"
        }
      ],
      "name": "orderWithdrawEpoch",
      "outputs": [
        {
          "name": "",
          "type": "uint256"
        }
      ],
      "payable": false,
      "stateMutability": "view",
      "type": "function"
    },
    {
      "constant": true,
      "inputs": [],
      "name": "stakingEpochDuration",
      "outputs": [
        {
          "name": "",
          "type": "uint256"
        }
      ],
      "payable": false,
      "stateMutability": "view",
      "type": "function"
    },
    {
      "constant": true,
      "inputs": [],
      "name": "delegatorMinStake",
      "outputs": [
        {
          "name": "",
          "type": "uint256"
        }
      ],
      "payable": false,
      "stateMutability": "view",
      "type": "function"
    },
    {
      "constant": true,
      "inputs": [],
      "name": "getPoolsInactive",
      "outputs": [
        {
          "name": "",
          "type": "uint256[]"
        }
      ],
      "payable": false,
      "stateMutability": "view",
      "type": "function"
    },
    {
      "constant": true,
      "inputs": [],
      "name": "validatorSetContract",
      "outputs": [
        {
          "name": "",
          "type": "address"
        }
      ],
      "payable": false,
      "stateMutability": "view",
      "type": "function"
    },
    {
      "constant": false,
      "inputs": [
        {
          "name": "_erc677TokenContract",
          "type": "address"
        }
      ],
      "name": "setErc677TokenContractMock",
      "outputs": [],
      "payable": false,
      "stateMutability": "nonpayable",
      "type": "function"
    },
    {
      "constant": true,
      "inputs": [
        {
          "name": "",
          "type": "uint256"
        },
        {
          "name": "",
          "type": "address"
        }
      ],
      "name": "orderedWithdrawAmount",
      "outputs": [
        {
          "name": "",
          "type": "uint256"
        }
      ],
      "payable": false,
      "stateMutability": "view",
      "type": "function"
    },
    {
      "constant": false,
      "inputs": [
        {
          "name": "_amount",
          "type": "uint256"
        },
        {
          "name": "_miningAddress",
          "type": "address"
        },
        {
          "name": "_name",
          "type": "string"
        },
        {
          "name": "_description",
          "type": "string"
        }
      ],
      "name": "addPool",
      "outputs": [
        {
          "name": "",
          "type": "uint256"
        }
      ],
      "payable": true,
      "stateMutability": "payable",
      "type": "function"
    },
    {
      "constant": false,
      "inputs": [
        {
          "name": "_validatorSetAddress",
          "type": "address"
        }
      ],
      "name": "setValidatorSetAddress",
      "outputs": [],
      "payable": false,
      "stateMutability": "nonpayable",
      "type": "function"
    },
    {
      "constant": false,
      "inputs": [],
      "name": "removeMyPool",
      "outputs": [],
      "payable": false,
      "stateMutability": "nonpayable",
      "type": "function"
    },
    {
      "constant": false,
      "inputs": [],
      "name": "incrementStakingEpoch",
      "outputs": [],
      "payable": false,
      "stateMutability": "nonpayable",
      "type": "function"
    },
    {
      "constant": true,
      "inputs": [],
      "name": "MAX_CANDIDATES",
      "outputs": [
        {
          "name": "",
          "type": "uint256"
        }
      ],
      "payable": false,
      "stateMutability": "view",
      "type": "function"
    },
    {
      "constant": false,
      "inputs": [
        {
          "name": "_poolId",
          "type": "uint256"
        }
      ],
      "name": "addPoolActiveMock",
      "outputs": [],
      "payable": false,
      "stateMutability": "nonpayable",
      "type": "function"
    },
    {
      "constant": false,
      "inputs": [
        {
          "name": "_fromPoolStakingAddress",
          "type": "address"
        },
        {
          "name": "_amount",
          "type": "uint256"
        }
      ],
      "name": "withdraw",
      "outputs": [],
      "payable": false,
      "stateMutability": "nonpayable",
      "type": "function"
    },
    {
      "constant": true,
      "inputs": [],
      "name": "areStakeAndWithdrawAllowed",
      "outputs": [
        {
          "name": "",
          "type": "bool"
        }
      ],
      "payable": false,
      "stateMutability": "view",
      "type": "function"
    },
    {
      "constant": false,
      "inputs": [
        {
          "name": "_poolId",
          "type": "uint256"
        },
        {
          "name": "_amount",
          "type": "uint256"
        }
      ],
      "name": "setStakeAmountTotal",
      "outputs": [],
      "payable": false,
      "stateMutability": "nonpayable",
      "type": "function"
    },
    {
      "constant": true,
      "inputs": [
        {
          "name": "_stakingEpochs",
          "type": "uint256[]"
        },
        {
          "name": "_poolStakingAddress",
          "type": "address"
        },
        {
          "name": "_staker",
          "type": "address"
        }
      ],
      "name": "getRewardAmount",
      "outputs": [
        {
          "name": "tokenRewardSum",
          "type": "uint256"
        },
        {
          "name": "nativeRewardSum",
          "type": "uint256"
        }
      ],
      "payable": false,
      "stateMutability": "view",
      "type": "function"
    },
    {
      "payable": true,
      "stateMutability": "payable",
      "type": "fallback"
    },
    {
      "anonymous": false,
      "inputs": [
        {
          "indexed": true,
          "name": "fromPoolStakingAddress",
          "type": "address"
        },
        {
          "indexed": true,
          "name": "staker",
          "type": "address"
        },
        {
          "indexed": true,
          "name": "stakingEpoch",
          "type": "uint256"
        },
        {
          "indexed": false,
          "name": "tokensAmount",
          "type": "uint256"
        },
        {
          "indexed": false,
          "name": "nativeCoinsAmount",
          "type": "uint256"
        },
        {
          "indexed": false,
          "name": "fromPoolId",
          "type": "uint256"
        }
      ],
      "name": "ClaimedReward",
      "type": "event"
    },
    {
      "anonymous": false,
      "inputs": [
        {
          "indexed": true,
          "name": "poolStakingAddress",
          "type": "address"
        },
        {
          "indexed": true,
          "name": "poolMiningAddress",
          "type": "address"
        },
        {
          "indexed": false,
          "name": "poolId",
          "type": "uint256"
        }
      ],
      "name": "AddedPool",
      "type": "event"
    },
    {
      "anonymous": false,
      "inputs": [
        {
          "indexed": true,
          "name": "fromPoolStakingAddress",
          "type": "address"
        },
        {
          "indexed": true,
          "name": "staker",
          "type": "address"
        },
        {
          "indexed": true,
          "name": "stakingEpoch",
          "type": "uint256"
        },
        {
          "indexed": false,
          "name": "amount",
          "type": "uint256"
        },
        {
          "indexed": false,
          "name": "fromPoolId",
          "type": "uint256"
        }
      ],
      "name": "ClaimedOrderedWithdrawal",
      "type": "event"
    },
    {
      "anonymous": false,
      "inputs": [
        {
          "indexed": false,
          "name": "fromPoolStakingAddress",
          "type": "address"
        },
        {
          "indexed": true,
          "name": "toPoolStakingAddress",
          "type": "address"
        },
        {
          "indexed": true,
          "name": "staker",
          "type": "address"
        },
        {
          "indexed": true,
          "name": "stakingEpoch",
          "type": "uint256"
        },
        {
          "indexed": false,
          "name": "amount",
          "type": "uint256"
        },
        {
          "indexed": false,
          "name": "fromPoolId",
          "type": "uint256"
        },
        {
          "indexed": false,
          "name": "toPoolId",
          "type": "uint256"
        }
      ],
      "name": "MovedStake",
      "type": "event"
    },
    {
      "anonymous": false,
      "inputs": [
        {
          "indexed": true,
          "name": "fromPoolStakingAddress",
          "type": "address"
        },
        {
          "indexed": true,
          "name": "staker",
          "type": "address"
        },
        {
          "indexed": true,
          "name": "stakingEpoch",
          "type": "uint256"
        },
        {
          "indexed": false,
          "name": "amount",
          "type": "int256"
        },
        {
          "indexed": false,
          "name": "fromPoolId",
          "type": "uint256"
        }
      ],
      "name": "OrderedWithdrawal",
      "type": "event"
    },
    {
      "anonymous": false,
      "inputs": [
        {
          "indexed": true,
          "name": "toPoolStakingAddress",
          "type": "address"
        },
        {
          "indexed": true,
          "name": "staker",
          "type": "address"
        },
        {
          "indexed": true,
          "name": "stakingEpoch",
          "type": "uint256"
        },
        {
          "indexed": false,
          "name": "amount",
          "type": "uint256"
        },
        {
          "indexed": false,
          "name": "toPoolId",
          "type": "uint256"
        }
      ],
      "name": "PlacedStake",
      "type": "event"
    },
    {
      "anonymous": false,
      "inputs": [
        {
          "indexed": true,
          "name": "fromPoolStakingAddress",
          "type": "address"
        },
        {
          "indexed": true,
          "name": "staker",
          "type": "address"
        },
        {
          "indexed": true,
          "name": "stakingEpoch",
          "type": "uint256"
        },
        {
          "indexed": false,
          "name": "amount",
          "type": "uint256"
        },
        {
          "indexed": false,
          "name": "fromPoolId",
          "type": "uint256"
        }
      ],
      "name": "WithdrewStake",
      "type": "event"
    }
  ],
  "bytecode": "0x608060405234801561001057600080fd5b50615bb680620000216000396000f3fe6080604052600436106104475760003560e01c8063794c0c6811610234578063cfef14411161012e578063e4a9e42e116100b6578063f3b5e00f1161007a578063f3b5e00f146112dc578063f3fef3a314611306578063f49425011461133f578063f8c00aef14611354578063fb367a9b1461138457610447565b8063e4a9e42e14611197578063eb3efa161461126a578063edd7db751461129d578063ee435f55146112b2578063f0786096146112c757610447565b8063da7a9b6a116100fd578063da7a9b6a146110ec578063df6f55f514611101578063dfc8bf4e14611116578063e2394c831461112b578063e3f0ff661461115e57610447565b8063cfef144114611056578063d290c21d14611089578063d2f2a1361461109e578063d609ea93146110d757610447565b8063a38dcbd0116101bc578063b61ed63a11610180578063b61ed63a14610ef2578063bbbaf8c814610f2b578063bcdb0d3814610f55578063cc4a666714610f7f578063cd22c7521461102c57610447565b8063a38dcbd014610de2578063a4c0ed3614610e0c578063a5d54f6514610e9c578063adc9772e14610eb1578063b172b22214610edd57610447565b8063950a651311610203578063950a651314610cce578063957950a714610d0957806397997ebb14610d795780639fb0e72e14610d8e578063a1fc275314610db857610447565b8063794c0c6814610c475780638ba31a1c14610c5c5780638c2243ae14610c8f57806394f3a24114610ca457610447565b80633fb1a1e411610345578063570941d2116102cd5780636bda1577116102915780636bda157714610b795780636d01b4fe14610bb45780636e69cd8b14610bf35780637069e74614610c1d57806374bdb37214610c3257610447565b8063570941d214610ab35780635ca2b65014610ae65780635dd469e314610b105780635fef764314610b4f578063673a2a1f14610b6457610447565b806349946d351161031457806349946d35146109c357806351fd161a146109ed5780635292fccf14610a2c57806352a2f02114610a5f578063561c4c8114610a8957610447565b80633fb1a1e4146109065780634070a2d01461093f57806348aaa4a21461096957806348c1257a1461099357610447565b806327d89b3a116103d35780632ebfaf4e116103975780632ebfaf4e146107465780632f248e30146107d5578063381883b0146107ff578063392e53cd146108385780633ea15d621461084d57610447565b806327d89b3a14610649578063291e8081146106825780632a8f6ecd146106c15780632bafde8d146106eb5780632d21d2171461071557610447565b80631555371c1161041a5780631555371c14610535578063186dc46f1461054a5780631ee9c4c81461059d57806320d96e46146105dc578063251441a91461060657610447565b806302a53ba11461044c5780630555c5e214610497578063073b62fe146104c3578063093411da146104fc575b600080fd5b34801561045857600080fd5b506104856004803603604081101561046f57600080fd5b50803590602001356001600160a01b0316611461565b60408051918252519081900360200190f35b3480156104a357600080fd5b506104c1600480360360208110156104ba57600080fd5b503561147e565b005b3480156104cf57600080fd5b50610485600480360360408110156104e657600080fd5b50803590602001356001600160a01b0316611613565b34801561050857600080fd5b506104856004803603604081101561051f57600080fd5b50803590602001356001600160a01b0316611647565b34801561054157600080fd5b506104c1611664565b34801561055657600080fd5b506105896004803603606081101561056d57600080fd5b508035906001600160a01b036020820135169060400135611706565b604080519115158252519081900360200190f35b3480156105a957600080fd5b506104c1600480360360608110156105c057600080fd5b508035906001600160a01b03602082013516906040013561172c565b3480156105e857600080fd5b506104c1600480360360208110156105ff57600080fd5b5035611752565b34801561061257600080fd5b506104c16004803603606081101561062957600080fd5b506001600160a01b0381358116916020810135909116906040013561176e565b34801561065557600080fd5b506104856004803603604081101561066c57600080fd5b50803590602001356001600160a01b0316611906565b34801561068e57600080fd5b506104c1600480360360608110156106a557600080fd5b508035906001600160a01b036020820135169060400135611923565b3480156106cd57600080fd5b50610485600480360360208110156106e457600080fd5b5035611950565b3480156106f757600080fd5b506104c16004803603602081101561070e57600080fd5b5035611962565b34801561072157600080fd5b5061072a61199d565b604080516001600160a01b039092168252519081900360200190f35b34801561075257600080fd5b506107856004803603606081101561076957600080fd5b506001600160a01b0381351690602081013590604001356119ac565b60408051602080825283518183015283519192839290830191858101910280838360005b838110156107c15781810151838201526020016107a9565b505050509050019250505060405180910390f35b3480156107e157600080fd5b506104c1600480360360208110156107f857600080fd5b5035611ac1565b34801561080b57600080fd5b506104856004803603604081101561082257600080fd5b50803590602001356001600160a01b0316611b24565b34801561084457600080fd5b50610589611b41565b34801561085957600080fd5b506104c16004803603604081101561087057600080fd5b810190602081018135600160201b81111561088a57600080fd5b82018360208201111561089c57600080fd5b803590602001918460208302840111600160201b831117156108bd57600080fd5b919080806020026020016040519081016040528093929190818152602001838360200280828437600092019190915250929550505090356001600160a01b03169150611b539050565b34801561091257600080fd5b506104856004803603604081101561092957600080fd5b50803590602001356001600160a01b03166121c8565b34801561094b57600080fd5b506104856004803603602081101561096257600080fd5b50356121e5565b34801561097557600080fd5b506104c16004803603602081101561098c57600080fd5b50356121f7565b34801561099f57600080fd5b506104c1600480360360408110156109b657600080fd5b5080359060200135612232565b3480156109cf57600080fd5b506104c1600480360360208110156109e657600080fd5b5035612244565b3480156109f957600080fd5b506104c160048036036060811015610a1057600080fd5b508035906001600160a01b03602082013516906040013561224d565b348015610a3857600080fd5b506104c160048036036020811015610a4f57600080fd5b50356001600160a01b0316612273565b348015610a6b57600080fd5b506104c160048036036020811015610a8257600080fd5b50356123c7565b348015610a9557600080fd5b5061078560048036036020811015610aac57600080fd5b50356123cc565b348015610abf57600080fd5b506104c160048036036020811015610ad657600080fd5b50356001600160a01b0316612438565b348015610af257600080fd5b506104c160048036036020811015610b0957600080fd5b50356124c4565b348015610b1c57600080fd5b506104c160048036036060811015610b3357600080fd5b508035906001600160a01b0360208201351690604001356124c9565b348015610b5b57600080fd5b506104856124fd565b348015610b7057600080fd5b50610785612503565b348015610b8557600080fd5b5061048560048036036040811015610b9c57600080fd5b506001600160a01b038135811691602001351661255b565b348015610bc057600080fd5b5061048560048036036060811015610bd757600080fd5b508035906001600160a01b03602082013516906040013561271a565b348015610bff57600080fd5b5061048560048036036020811015610c1657600080fd5b503561273d565b348015610c2957600080fd5b5061048561274f565b348015610c3e57600080fd5b50610485612755565b348015610c5357600080fd5b5061048561275b565b348015610c6857600080fd5b5061048560048036036020811015610c7f57600080fd5b50356001600160a01b0316612761565b348015610c9b57600080fd5b5061048561277c565b348015610cb057600080fd5b506104c160048036036020811015610cc757600080fd5b50356127a1565b348015610cda57600080fd5b5061048560048036036040811015610cf157600080fd5b506001600160a01b03813581169160200135166127e0565b348015610d1557600080fd5b50610d1e612991565b6040518080602001838152602001828103825284818151815260200191508051906020019060200280838360005b83811015610d64578181015183820152602001610d4c565b50505050905001935050505060405180910390f35b348015610d8557600080fd5b506104856129f4565b348015610d9a57600080fd5b5061048560048036036020811015610db157600080fd5b50356129fa565b348015610dc457600080fd5b5061078560048036036020811015610ddb57600080fd5b5035612a0c565b348015610dee57600080fd5b506104c160048036036020811015610e0557600080fd5b5035612a76565b348015610e1857600080fd5b5061058960048036036060811015610e2f57600080fd5b6001600160a01b0382351691602081013591810190606081016040820135600160201b811115610e5e57600080fd5b820183602082011115610e7057600080fd5b803590602001918460018302840111600160201b83111715610e9157600080fd5b509092509050612a96565b348015610ea857600080fd5b50610785612bfc565b6104c160048036036040811015610ec757600080fd5b506001600160a01b038135169060200135612c52565b348015610ee957600080fd5b5061072a612c5c565b348015610efe57600080fd5b506104c160048036036040811015610f1557600080fd5b506001600160a01b038135169060200135612c6b565b348015610f3757600080fd5b5061058960048036036020811015610f4e57600080fd5b5035613097565b348015610f6157600080fd5b5061048560048036036020811015610f7857600080fd5b50356130d2565b348015610f8b57600080fd5b506104c16004803603610100811015610fa357600080fd5b6001600160a01b038235811692602081013590911691810190606081016040820135600160201b811115610fd657600080fd5b820183602082011115610fe857600080fd5b803590602001918460208302840111600160201b8311171561100957600080fd5b9193509150803590602081013590604081013590606081013590608001356130e4565b34801561103857600080fd5b506104856004803603602081101561104f57600080fd5b50356132cf565b34801561106257600080fd5b506104c16004803603602081101561107957600080fd5b50356001600160a01b03166132e1565b34801561109557600080fd5b506107856134e8565b3480156110aa57600080fd5b50610485600480360360408110156110c157600080fd5b50803590602001356001600160a01b031661353e565b3480156110e357600080fd5b5061048561355b565b3480156110f857600080fd5b50610485613561565b34801561110d57600080fd5b50610785613567565b34801561112257600080fd5b5061072a6135bd565b34801561113757600080fd5b506104c16004803603602081101561114e57600080fd5b50356001600160a01b03166135cc565b34801561116a57600080fd5b506104856004803603604081101561118157600080fd5b50803590602001356001600160a01b03166135ee565b610485600480360360808110156111ad57600080fd5b8135916001600160a01b0360208201351691810190606081016040820135600160201b8111156111dc57600080fd5b8201836020820111156111ee57600080fd5b803590602001918460018302840111600160201b8311171561120f57600080fd5b919390929091602081019035600160201b81111561122c57600080fd5b82018360208201111561123e57600080fd5b803590602001918460018302840111600160201b8311171561125f57600080fd5b50909250905061360b565b34801561127657600080fd5b506104c16004803603602081101561128d57600080fd5b50356001600160a01b0316613685565b3480156112a957600080fd5b506104c16136a7565b3480156112be57600080fd5b506104c1613856565b3480156112d357600080fd5b50610485613878565b3480156112e857600080fd5b506104c1600480360360208110156112ff57600080fd5b503561387e565b34801561131257600080fd5b506104c16004803603604081101561132957600080fd5b506001600160a01b038135169060200135613889565b34801561134b57600080fd5b50610589613977565b34801561136057600080fd5b506104c16004803603604081101561137757600080fd5b50803590602001356139b9565b34801561139057600080fd5b50611448600480360360608110156113a757600080fd5b810190602081018135600160201b8111156113c157600080fd5b8201836020820111156113d357600080fd5b803590602001918460208302840111600160201b831117156113f457600080fd5b919080806020026020016040519081016040528093929190818152602001838360200280828437600092019190915250929550506001600160a01b0383358116945060209093013590921691506139cb9050565b6040805192835260208301919091528051918290030190f35b602a60209081526000928352604080842090915290825290205481565b611486614054565b6001600160a01b0316336001600160a01b0316146114a357600080fd5b60006114ad614079565b90506035546000146114be57600080fd5b6037548110806114ce5750603754155b6114d757600080fd5b816114e061407f565b146114ea57600080fd5b60005482816114f557fe5b061561150057600080fd5b6000805461151590849063ffffffff6140fb16565b603780549084905590915060005b60005481101561160a57600080828154811061153b57fe5b6000918252602080832090910154603954604080516316cf66ab60e01b81526004810184905290519295506001600160a01b03909116926316cf66ab92602480840193829003018186803b15801561159257600080fd5b505afa1580156115a6573d6000803e3d6000fd5b505050506040513d60208110156115bc57600080fd5b50516000838152603160209081526040808320838052909152902054909150156115e557600080fd5b6115f081828761411d565b506000908152600b60205260409020839055600101611523565b50603755505050565b6000828152600a602090815260408083206001600160a01b0385168452825280832060355484529091529020545b92915050565b602b60209081526000928352604080842090915290825290205481565b6039546001600160a01b0316331461167b57600080fd5b606060038054806020026020016040519081016040528092919081815260200182805480156116c957602002820191906000526020600020905b8154815260200190600101908083116116b5575b50939450600093505050505b8151811015611702576116fa8282815181106116ed57fe5b60200260200101516145ff565b6001016116d5565b5050565b603060209081526000938452604080852082529284528284209052825290205460ff1681565b60009283526032602090815260408085206001600160a01b039094168552929052912055565b6039546001600160a01b0316331461176957600080fd5b603755565b816001600160a01b0316836001600160a01b0316141561178d57600080fd5b6039546040805163a26301f960e01b81526001600160a01b0386811660048301529151600093929092169163a26301f991602480820192602092909190829003018186803b1580156117de57600080fd5b505afa1580156117f2573d6000803e3d6000fd5b505050506040513d602081101561180857600080fd5b50516039546040805163a26301f960e01b81526001600160a01b0387811660048301529151939450600093919092169163a26301f9916024808301926020929190829003018186803b15801561185d57600080fd5b505afa158015611871573d6000803e3d6000fd5b505050506040513d602081101561188757600080fd5b50519050336118978682866146eb565b6118a285828661411d565b603554604080516001600160a01b03898116825260208201889052818301879052606082018690529151828516928916917f982f87186288986ca297b6c86b6d4547934327c6e005ce210da6b0cdc06a370d919081900360800190a4505050505050565b603260209081526000928352604080842090915290825290205481565b60009283526026602090815260408085206001600160a01b03909416855292815282842091845252812055565b60386020526000908152604090205481565b61196a614054565b6001600160a01b0316336001600160a01b03161461198757600080fd5b61198f611b41565b61199857600080fd5b602555565b6053546001600160a01b031681565b6001600160a01b038316600090815260086020526040902060609082611a2057805460408051602080840282018101909252828152918391830182828015611a1357602002820191906000526020600020905b8154815260200190600101908083116119ff575b5050505050915050611aba565b8054600090611a35908663ffffffff61495d16565b9050808411611a445783611a46565b805b604051908082528060200260200182016040528015611a6f578160200160208202803883390190505b50925060005b8351811015611ab6578281870181548110611a8c57fe5b9060005260206000200154848281518110611aa357fe5b6020908102919091010152600101611a75565b5050505b9392505050565b6039546001600160a01b03163314611ad857600080fd5b80611ae257600080fd5b600081815260316020908152604080832083805290915290205415611b1857611b0a81614972565b611b1381614a2e565b611b21565b611b2181614ae7565b50565b603360209081526000928352604080842090915290825290205481565b6039546001600160a01b031615155b90565b3a611b5d57600080fd5b611b65611b41565b611b6e57600080fd5b6039546040805163a26301f960e01b81526001600160a01b03848116600483015291513393600093169163a26301f9916024808301926020929190829003018186803b158015611bbd57600080fd5b505afa158015611bd1573d6000803e3d6000fd5b505050506040513d6020811015611be757600080fd5b505190506001600160a01b038316611bfe57600080fd5b6001600160a01b038216611c1157600080fd5b80611c1b57600080fd5b6000836001600160a01b0316836001600160a01b03161415611c3e576000611c40565b825b9050600080846001600160a01b0316866001600160a01b031614611cb25760008481526032602090815260408083206001600160a01b0389168452909152902054915081611c8d57600080fd5b5060008381526033602090815260408083206001600160a01b03881684529091529020545b60395460408051632b5aa5d760e11b815290516000926001600160a01b0316916356b54bae916004808301926020929190829003018186803b158015611cf757600080fd5b505afa158015611d0b573d6000803e3d6000fd5b505050506040513d6020811015611d2157600080fd5b50519050611d2d615b2a565b50604080518082019091526000808252602082018190528951611e1a57826001600160a01b031663e7f6cfe2886040518263ffffffff1660e01b81526004018082815260200191505060006040518083038186803b158015611d8e57600080fd5b505afa158015611da2573d6000803e3d6000fd5b505050506040513d6000823e601f3d908101601f191682016040526020811015611dcb57600080fd5b810190808051600160201b811115611de257600080fd5b82016020810184811115611df557600080fd5b81518560208202830111600160201b82111715611e1157600080fd5b50909d50505050505b60005b8a518110156121335760008b8281518110611e3457fe5b602002602001015190508160001480611e6257508b6001830381518110611e5757fe5b602002602001015181115b611e6b57600080fd5b6035548110611e7957600080fd5b60008981526030602090815260408083206001600160a01b038c168452825280832084845290915290205460ff1615611eb2575061212b565b611eba615b2a565b8a6001600160a01b03168c6001600160a01b031614611fa65787821015611ee257505061212b565b818711158015611ef157508615155b15611efd575050612133565b611f0a8289868d8f614b70565b9350816001019750856001600160a01b031663877ffdea85848d6040518463ffffffff1660e01b8152600401808481526020018381526020018281526020019350505050604080518083038186803b158015611f6557600080fd5b505afa158015611f79573d6000803e3d6000fd5b505050506040513d6040811015611f8f57600080fd5b50805160209182015191830191909152815261202d565b60408051631289b17960e01b815260048101849052602481018c905281516001600160a01b03891692631289b1799260448082019391829003018186803b158015611ff057600080fd5b505afa158015612004573d6000803e3d6000fd5b505050506040513d604081101561201a57600080fd5b5080516020918201519183019190915281525b805185516120409163ffffffff614be216565b85526020808201519086015161205b9163ffffffff614be216565b8560200181815250506001603060008c815260200190815260200160002060008b6001600160a01b03166001600160a01b03168152602001908152602001600020600084815260200190815260200160002060006101000a81548160ff021916908315150217905550818b6001600160a01b03168d6001600160a01b03167f6d8e1b032c4629c85b1e460dedd0e2d7c5eb72880982d3e495f0f892b7f64406846000015185602001518f60405180848152602001838152602001828152602001935050505060405180910390a450505b600101611e1d565b50826001600160a01b03166370cafd65836000015184602001518b6040518463ffffffff1660e01b815260040180848152602001838152602001826001600160a01b03166001600160a01b031681526020019350505050600060405180830381600087803b1580156121a457600080fd5b505af11580156121b8573d6000803e3d6000fd5b5050505050505050505050505050565b603160209081526000928352604080842090915290825290205481565b60286020526000908152604090205481565b6121ff614054565b6001600160a01b0316336001600160a01b03161461221c57600080fd5b612224611b41565b61222d57600080fd5b602455565b6000918252600b602052604090912055565b611b2181614bf4565b60009283526033602090815260408085206001600160a01b039094168552929052912055565b61227b614054565b6001600160a01b0316336001600160a01b03161461229857600080fd5b6001600160a01b0381166122ab57600080fd5b6039546040805163a26301f960e01b815273eb43574e8f4fddf11fbaf65a8632ca92262a1266600482018190529151919269043c33c193756480000092849283926001600160a01b03169163a26301f991602480820192602092909190829003018186803b15801561231c57600080fd5b505afa158015612330573d6000803e3d6000fd5b505050506040513d602081101561234657600080fd5b50511461235257600080fd5b6000838152600b602052604081205561236c8180846146eb565b6123768483614c77565b603554604080518481526020810186905281516001600160a01b0385169283927f5c5eecdba4673a19126d31c4ea006153eec8120d460905a4643cacd174da8722929081900390910190a450505050565b605455565b60008181526006602090815260409182902080548351818402810184019094528084526060939283018282801561242c57602002820191906000526020600020905b81546001600160a01b0316815260019091019060200180831161240e575b50505050509050919050565b612440614054565b6001600160a01b0316336001600160a01b03161461245d57600080fd5b612465611b41565b61246e57600080fd5b6001600160a01b03811661248157600080fd5b6053546001600160a01b03161561249757600080fd5b605380546001600160a01b0319166001600160a01b0383161790556124ba61407f565b15611b2157600080fd5b603555565b60009283526030602090815260408085206001600160a01b039094168552928152828420918452529020805460ff19169055565b60245481565b6060600080548060200260200160405190810160405280929190818152602001828054801561255157602002820191906000526020600020905b81548152602001906001019080831161253d575b5050505050905090565b6039546040805163a26301f960e01b81526001600160a01b03858116600483015291516000938493169163a26301f9916024808301926020929190829003018186803b1580156125aa57600080fd5b505afa1580156125be573d6000803e3d6000fd5b505050506040513d60208110156125d457600080fd5b5051905060006001600160a01b0384811690861614156125f55760006125f7565b835b90506001600160a01b0385811690851614156126138382614d32565b6126235760009350505050611641565b60008381526031602090815260408083206001600160a01b03861684529091529020548161266e576000848152600b602052604090205461266b90829063ffffffff61495d16565b90505b60395460408051635245821560e11b81526004810187905290516001600160a01b039092169163a48b042a91602480820192602092909190829003018186803b1580156126ba57600080fd5b505afa1580156126ce573d6000803e3d6000fd5b505050506040513d60208110156126e457600080fd5b50516126f557935061164192505050565b60006127018585611613565b90508082111561270f578091505b509695505050505050565b602660209081526000938452604080852082529284528284209052825290205481565b602c6020526000908152604090205481565b60375481565b603a5481565b60355481565b6001600160a01b031660009081526008602052604090205490565b603754600090801561278f576001612792565b60005b60ff1660365482010391505090565b6039546001600160a01b031633146127b857600080fd5b600454600254146127c857600080fd5b6000818152600b6020526040812055611b2181614d68565b6039546040805163a26301f960e01b81526001600160a01b03858116600483015291516000938493169163a26301f9916024808301926020929190829003018186803b15801561282f57600080fd5b505afa158015612843573d6000803e3d6000fd5b505050506040513d602081101561285957600080fd5b505190506001600160a01b03848116908416141560008161287b57600061287d565b845b90506128898383614d32565b6128995760009350505050611641565b60395460408051635245821560e11b81526004810186905290516001600160a01b039092169163a48b042a91602480820192602092909190829003018186803b1580156128e557600080fd5b505afa1580156128f9573d6000803e3d6000fd5b505050506040513d602081101561290f57600080fd5b50516129215760009350505050611641565b60008381526031602090815260408083206001600160a01b03851684529091529020548261296c576000848152600b602052604090205461296990829063ffffffff61495d16565b90505b6129866129798584611613565b829063ffffffff61495d16565b979650505050505050565b606060006004600554818054806020026020016040519081016040528092919081815260200182805480156129e557602002820191906000526020600020905b8154815260200190600101908083116129d1575b50505050509150915091509091565b60345481565b602e6020526000908152604090205481565b60008181526007602090815260409182902080548351818402810184019094528084526060939283018282801561242c576020028201919060005260206000209081546001600160a01b0316815260019091019060200180831161240e5750505050509050919050565b6039546001600160a01b03163314612a8d57600080fd5b611b21816145ff565b6000612aa0611b41565b612aa957600080fd5b6053546001600160a01b03163314612ac057600080fd5b6014821015612ace57600080fd5b600080606085858080601f01602080910402602001604051908101604052809392919081815260200183838082843760009201919091525050506020820151606081901c955060581c60ff161580159450919250612be39050576000806060602084015160ff8160501c16935050826040519080825280601f01601f191660200182016040528015612b67576020820181803883390190505b50905082609a60208301378351609a84013560f01c9250819083850160180114612b9057600080fd5b826040519080825280601f01601f191660200182016040528015612bbb576020820181803883390190505b5091508284609c01602084013781612bd88c8e8a60018686614eb4565b505050505050612bee565b612bee83898961411d565b506001979650505050505050565b60606002805480602002602001604051908101604052809291908181526020018280548015612551576020028201919060005260206000209081548152602001906001019080831161253d575050505050905090565b6117028282615087565b603b546001600160a01b031681565b3a612c7557600080fd5b612c7d611b41565b612c8657600080fd5b6039546040805163a26301f960e01b81526001600160a01b0385811660048301529151600093929092169163a26301f991602480820192602092909190829003018186803b158015612cd757600080fd5b505afa158015612ceb573d6000803e3d6000fd5b505050506040513d6020811015612d0157600080fd5b505190506001600160a01b038316612d1857600080fd5b81612d2257600080fd5b80612d2c57600080fd5b3360006001600160a01b038516821415612d47576000612d49565b815b9050612d60836001600160a01b0383161515614d32565b612d6957600080fd5b60008381526027602090815260408083206001600160a01b0385168085529083528184205487855260288452828520546031855283862092865291845282852054888652603890945291842054919390929190881315612e4f5787612dce8a886127e0565b811115612dda57600080fd5b612dea858263ffffffff614be216565b9450612dfc848263ffffffff614be216565b9350612e0e838263ffffffff61495d16565b9250612e20828263ffffffff61495d16565b60355460008a81526029602090815260408083206001600160a01b038c1684529091529020559150612e9e9050565b6000889003612e64858263ffffffff61495d16565b9450612e76848263ffffffff61495d16565b9350612e88838263ffffffff614be216565b9250612e9a828263ffffffff614be216565b9150505b60008781526027602090815260408083206001600160a01b03808a168086529184528285208990558b855260288452828520889055603184528285209185529083528184208690558a84526038909252909120829055868116908a161415612fe4576000878152600b6020526040902054821015612f1b57600080fd5b811580612f2a57506024548210155b612f3357600080fd5b6039546040805163738bef1d60e11b8152600481018a905290516000926001600160a01b03169163e717de3a916024808301926020929190829003018186803b158015612f7f57600080fd5b505afa158015612f93573d6000803e3d6000fd5b505050506040513d6020811015612fa957600080fd5b50511590506000891315612fd45782612fcf5780612fc657600080fd5b612fcf88614ae7565b612fde565b612fde8882615125565b5061302d565b811580612ff357506025548210155b612ffc57600080fd5b600088131561301957816130145761301487876151a1565b613023565b61302387876152f0565b61302d87876153ad565b61303687614a2e565b603554866001600160a01b03168a6001600160a01b03167f89b66c7c015442886e0ce3c9c8137443ebbe1b1766f6b3a942dde6c3bb82517d8b8b604051808381526020018281526020019250505060405180910390a4505050505050505050565b6000818152602d6020526040812054815481108015611aba575082600082815481106130bf57fe5b9060005260206000200154149392505050565b602f6020526000908152604090205481565b6001600160a01b0389166130f757600080fd5b8561310157600080fd5b8461310b57600080fd5b8361311557600080fd5b8261311f57600080fd5b80831161312b57600080fd5b8061313557600080fd5b61313d614079565b1580613161575061314c614054565b6001600160a01b0316336001600160a01b0316145b61316a57600080fd5b613172611b41565b1561317c57600080fd5b603980546001600160a01b03808c166001600160a01b031992831617909255603b8054928b169290911691909117905560005b8681101561329f578787828181106131c357fe5b90506020020135600014156131d757600080fd5b6131f48888838181106131e657fe5b905060200201356000615125565b6039546001600160a01b031663e717de3a89898481811061321157fe5b905060200201356040518263ffffffff1660e01b81526004018082815260200191505060206040518083038186803b15801561324c57600080fd5b505afa158015613260573d6000803e3d6000fd5b505050506040513d602081101561327657600080fd5b50516132975761329788888381811061328b57fe5b90506020020135614ae7565b6001016131af565b50602585905560248490556036839055603782905560348190556132c1614079565b603a55505050505050505050565b602d6020526000908152604090205481565b6039546040805163a26301f960e01b81526001600160a01b0384811660048301529151600093929092169163a26301f991602480820192602092909190829003018186803b15801561333257600080fd5b505afa158015613346573d6000803e3d6000fd5b505050506040513d602081101561335c57600080fd5b505190508061336a57600080fd5b3360006001600160a01b038416821415613385576000613387565b815b60008481526029602090815260408083206001600160a01b0385168452909152902054603554919250106133ba57600080fd5b6133cf836001600160a01b0383161515615490565b156133d957600080fd5b60008381526027602090815260408083206001600160a01b03851684529091529020548061340657600080fd5b60008481526027602090815260408083206001600160a01b038616845282528083208390558683526028909152902054613446908263ffffffff61495d16565b600085815260286020908152604080832093909355603181528282206001600160a01b0386168352905220546134815761348184868561564b565b61348b8382614c77565b603554836001600160a01b0316866001600160a01b03167f3b1f0416a322c81d02b7eb108c29b8c9cf15503da84e83c389c529625b10389e8488604051808381526020018281526020019250505060405180910390a45050505050565b60606003805480602002602001604051908101604052809291908181526020018280548015612551576020028201919060005260206000209081548152602001906001019080831161253d575050505050905090565b602960209081526000928352604080842090915290825290205481565b60365481565b60255481565b60606001805480602002602001604051908101604052809291908181526020018280548015612551576020028201919060005260206000209081548152602001906001019080831161253d575050505050905090565b6039546001600160a01b031681565b605380546001600160a01b0319166001600160a01b0392909216919091179055565b602760209081526000928352604080842090915290825290205481565b6000612986873388600089898080601f01602080910402602001604051908101604052809392919081815260200183838082843760009201919091525050604080516020601f8d018190048102820181019092528b815292508b91508a9081908401838280828437600092019190915250614eb492505050565b603980546001600160a01b0319166001600160a01b0392909216919091179055565b3a6136b157600080fd5b6136b9611b41565b6136c257600080fd5b6039546040805163a26301f960e01b815233600482015290516000926001600160a01b03169163a26301f9916024808301926020929190829003018186803b15801561370d57600080fd5b505afa158015613721573d6000803e3d6000fd5b505050506040513d602081101561373757600080fd5b505190508061374557600080fd5b600060355411806137cb575060395460408051639b4a14bf60e01b81526004810184905290516001600160a01b0390921691639b4a14bf91602480820192602092909190829003018186803b15801561379d57600080fd5b505afa1580156137b1573d6000803e3d6000fd5b505050506040513d60208110156137c757600080fd5b5051155b6137d457600080fd5b6039546040805163738bef1d60e11b81526004810184905290516001600160a01b039092169163e717de3a91602480820192602092909190829003018186803b15801561382057600080fd5b505afa158015613834573d6000803e3d6000fd5b505050506040513d602081101561384a57600080fd5b505115612a8d57600080fd5b6039546001600160a01b0316331461386d57600080fd5b603580546001019055565b610bb881565b611b21816001615125565b6039546040805163a26301f960e01b81526001600160a01b03858116600483015291513393600093169163a26301f9916024808301926020929190829003018186803b1580156138d857600080fd5b505afa1580156138ec573d6000803e3d6000fd5b505050506040513d602081101561390257600080fd5b505190506139118483856146eb565b61391b8284614c77565b603554826001600160a01b0316856001600160a01b03167f5c5eecdba4673a19126d31c4ea006153eec8120d460905a4643cacd174da87228685604051808381526020018281526020019250505060405180910390a450505050565b600080613982614079565b9050603754811015613998576000915050611b50565b603454603654603754919003906139ad576001015b60375490910310905090565b60009182526038602052604090912055565b6039546040805163a26301f960e01b81526001600160a01b03858116600483015291516000938493849391169163a26301f991602480820192602092909190829003018186803b158015613a1e57600080fd5b505afa158015613a32573d6000803e3d6000fd5b505050506040513d6020811015613a4857600080fd5b505190506001600160a01b038516613a5f57600080fd5b6001600160a01b038416613a7257600080fd5b80613a7c57600080fd5b6000856001600160a01b0316856001600160a01b03161415613a9f576000613aa1565b845b604080516002808252606080830184529394509091602083019080388339019050509050856001600160a01b0316876001600160a01b031614613b7a5760008381526032602090815260408083206001600160a01b038a168452909152812054825190918391613b0d57fe5b60200260200101818152505080600081518110613b2657fe5b602002602001015160001415613b3b57600080fd5b60008381526033602090815260408083206001600160a01b038a168452909152902054815182906001908110613b6d57fe5b6020026020010181815250505b60395460408051632b5aa5d760e11b815290516000926001600160a01b0316916356b54bae916004808301926020929190829003018186803b158015613bbf57600080fd5b505afa158015613bd3573d6000803e3d6000fd5b505050506040513d6020811015613be957600080fd5b50519050613bf5615b2a565b50604080518082019091526000808252602082018190528a51613ce257826001600160a01b031663e7f6cfe2876040518263ffffffff1660e01b81526004018082815260200191505060006040518083038186803b158015613c5657600080fd5b505afa158015613c6a573d6000803e3d6000fd5b505050506040513d6000823e601f3d908101601f191682016040526020811015613c9357600080fd5b810190808051600160201b811115613caa57600080fd5b82016020810184811115613cbd57600080fd5b81518560208202830111600160201b82111715613cd957600080fd5b50909e50505050505b60005b8b5181101561403a57801580613d2357508b6001820381518110613d0557fe5b60200260200101518c8281518110613d1957fe5b6020026020010151115b613d2c57600080fd5b6035548c8281518110613d3b57fe5b602002602001015110613d4d57600080fd5b60008781526030602090815260408083206001600160a01b038a16845290915281208d519091908e9084908110613d8057fe5b60209081029190910181015182528101919091526040016000205460ff1615613da857614032565b613db0615b2a565b8a6001600160a01b03168c6001600160a01b031614613f625785600081518110613dd657fe5b60200260200101518d8381518110613dea57fe5b60200260200101511015613dfe5750614032565b8c8281518110613e0a57fe5b602002602001015186600181518110613e1f57fe5b602002602001015111158015613e4a575085600181518110613e3d57fe5b6020026020010151600014155b15613e55575061403a565b613e898d8381518110613e6457fe5b602002602001015187600081518110613e7957fe5b6020026020010151858b8f614b70565b92508c8281518110613e9757fe5b602002602001015160010186600081518110613eaf57fe5b602002602001018181525050846001600160a01b031663877ffdea848f8581518110613ed757fe5b60200260200101518b6040518463ffffffff1660e01b8152600401808481526020018381526020018281526020019350505050604080518083038186803b158015613f2157600080fd5b505afa158015613f35573d6000803e3d6000fd5b505050506040513d6040811015613f4b57600080fd5b508051602091820151918301919091528152613ffd565b846001600160a01b0316631289b1798e8481518110613f7d57fe5b60200260200101518a6040518363ffffffff1660e01b81526004018083815260200182815260200192505050604080518083038186803b158015613fc057600080fd5b505afa158015613fd4573d6000803e3d6000fd5b505050506040513d6040811015613fea57600080fd5b5080516020918201519183019190915281525b805184516140109163ffffffff614be216565b84526020808201519085015161402b9163ffffffff614be216565b6020850152505b600101613ce5565b50508051602090910151909a909950975050505050505050565b7fb53127684a568b3173ae13b9f8a6016e243e63b6e8ee1178d6a717850b5d61035490565b60545490565b605354604080516370a0823160e01b815230600482015290516000926001600160a01b0316916370a08231916024808301926020929190829003018186803b1580156140ca57600080fd5b505afa1580156140de573d6000803e3d6000fd5b505050506040513d60208110156140f457600080fd5b5051905090565b600080821161410957600080fd5b600082848161411457fe5b04949350505050565b3a61412757600080fd5b61412f611b41565b61413857600080fd5b6039546040805163a26301f960e01b81526001600160a01b0386811660048301529151600093929092169163a26301f991602480820192602092909190829003018186803b15801561418957600080fd5b505afa15801561419d573d6000803e3d6000fd5b505050506040513d60208110156141b357600080fd5b505190506001600160a01b0384166141ca57600080fd5b806141d457600080fd5b816141de57600080fd5b60395460408051632682240f60e11b81526004810184905290516001600160a01b0390921691634d04481e91602480820192602092909190829003018186803b15801561422a57600080fd5b505afa15801561423e573d6000803e3d6000fd5b505050506040513d602081101561425457600080fd5b50511561426057600080fd5b614268613977565b61427157600080fd5b6000846001600160a01b0316846001600160a01b03161415614294576000614296565b835b60008381526031602090815260408083206001600160a01b0385168452909152812054919250906142cd908563ffffffff614be216565b9050856001600160a01b0316856001600160a01b031614156142fd576024548110156142f857600080fd5b61432f565b60255481101561430c57600080fd5b600083815260316020908152604080832083805290915290205461432f57600080fd5b60008381526031602090815260408083206001600160a01b0386168452909152902081905561436e846143628585611613565b9063ffffffff614be216565b6000848152600a602090815260408083206001600160a01b0387168452825280832060355484528252808320939093558582526038905220546143b7908563ffffffff614be216565b6000848152603860205260409020556001600160a01b038581169087161415614463576039546040805163738bef1d60e11b815260048101869052905161445e9286926001600160a01b039091169163e717de3a91602480820192602092909190829003018186803b15801561442c57600080fd5b505afa158015614440573d6000803e3d6000fd5b505050506040513d602081101561445657600080fd5b505115615125565b614598565b61446d83866152f0565b61447783866153ad565b6001600160a01b038516600090815260086020908152604080832080546009845282852088865290935290832054909282821015806144cc5750868483815481106144be57fe5b906000526020600020015414155b9050801561450b576001600160a01b03891660009081526009602090815260408083208a84528252822085905585546001810187558683529120018790555b8261459357603954604080516341a32dc160e11b81526001600160a01b038c81166004830152915191909216916383465b82916024808301926020929190829003018186803b15801561455d57600080fd5b505afa158015614571573d6000803e3d6000fd5b505050506040513d602081101561458757600080fd5b50511561459357600080fd5b505050505b6145a183614a2e565b603554856001600160a01b0316876001600160a01b03167f1111552b4d689ce73a2a7356e066e28215e6d61a2294e89ac9e02a933ebb0d508787604051808381526020018281526020019250505060405180910390a4505050505050565b6000818152602d60205260408120549054811080156146345750816000828154811061462757fe5b9060005260206000200154145b156146a557600080548190600019810190811061464d57fe5b90600052602060002001549050806000838154811061466857fe5b6000918252602080832090910192909255828152602d909152604080822084905584825281208190558054906146a2906000198301615b44565b50505b6146ae8261579b565b156146c1576146bc826157c6565b6146ca565b6146ca82614bf4565b6146d382614d68565b6146dc8261586c565b6146e4614079565b603a555050565b3a6146f557600080fd5b6146fd611b41565b61470657600080fd5b6039546040805163a26301f960e01b81526001600160a01b0386811660048301529151600093929092169163a26301f991602480820192602092909190829003018186803b15801561475757600080fd5b505afa15801561476b573d6000803e3d6000fd5b505050506040513d602081101561478157600080fd5b505190506001600160a01b03841661479857600080fd5b816147a257600080fd5b806147ac57600080fd5b6147b6848461255b565b8211156147c257600080fd5b6000846001600160a01b0316846001600160a01b031614156147e55760006147e7565b835b60008381526031602090815260408083206001600160a01b03851684529091528120549192509061481e908563ffffffff61495d16565b90506000856001600160a01b0316876001600160a01b03161415614860576000848152600b602052604090205482101561485757600080fd5b50602454614865565b506025545b8115806148725750808210155b61487b57600080fd5b60008481526031602090815260408083206001600160a01b038716845290915281208390556148aa8585611613565b9050858110156148bb5760006148bf565b8581035b6000868152600a602090815260408083206001600160a01b038916845282528083206035548452825280832093909355878252603890522054614908908763ffffffff61495d16565b600086815260386020526040902055826149275761492785898961564b565b876001600160a01b0316876001600160a01b03161461494a5761494a85886153ad565b61495385614a2e565b5050505050505050565b60008282111561496c57600080fd5b50900390565b6000818152602e602052604090205460025480821015806149aa5750826002838154811061499c57fe5b906000526020600020015414155b15614a20576000838152602e602052604081208290556002805460018181019092557f405787fa12a823e0f2b7631cc41b3ba8828b3321ca811111fa75cd3aa3bb5ace0185905560048054918201815582527f8a35acfbc15ff81a39ae7d344fd709f28e8600b4aa8c65c6b64bfe7fe36bd19b01555b614a298361586c565b505050565b614a36614079565b603a55600080614a4583615912565b9150915081614a55575050611b21565b600060048281548110614a6457fe5b906000526020600020015490506000603860008681526020019081526020016000205490508060048481548110614a9757fe5b600091825260209091200155818110614ac757600554614abf9083830363ffffffff614be216565b600555614ae0565b600554614adc9082840363ffffffff61495d16565b6005555b5050505050565b6000818152602f60205260409020546003548082101580614b1f57508260038381548110614b1157fe5b906000526020600020015414155b15614b67576000838152602f602052604081208290556003805460018101825591527fc2575a0e9e593c00f959f8c92f12db2869c3395a3b0502d05e2516446f71f85b018390555b614a2983614d68565b60005b5060008281526026602090815260408083206001600160a01b038516845282528083208884529091529020548015614bbe576000198114614bb45780614bb7565b60005b9050614bd9565b84861415614bcd575082614bd9565b60001990950194614b73565b95945050505050565b600082820183811015611aba57600080fd5b6000818152602c60205260409020546001548082101580614c2c57508260018381548110614c1e57fe5b906000526020600020015414155b15614a29576000838152602c6020526040812082905560018054808201825591527fb10e2d527612073b26eecdfd717e6a320cf44b4afac2b0732d9fcbe2b7fa0cf601839055505050565b3a614c8157600080fd5b614c89611b41565b614c9257600080fd5b6053546001600160a01b0316614ca757600080fd5b6053546040805163a9059cbb60e01b81526001600160a01b038581166004830152602482018590529151919092169163a9059cbb9160448083019260209291908290030181600087803b158015614cfd57600080fd5b505af1158015614d11573d6000803e3d6000fd5b505050506040513d6020811015614d2757600080fd5b50516146dc57600080fd5b6000614d3e8383615490565b15614d4b57506000611641565b614d53613977565b614d5f57506000611641565b50600192915050565b60045460025414614d7857611b21565b6000818152602e602052604090205460025481108015614dae57508160028281548110614da157fe5b9060005260206000200154145b156117025760048181548110614dc057fe5b906000526020600020015460055410614dfb5760048181548110614de057fe5b60009182526020909120015460058054919091039055614e01565b60006005555b6002805460001981019160009183908110614e1857fe5b906000526020600020015490508060028481548110614e3357fe5b906000526020600020018190555060048281548110614e4e57fe5b906000526020600020015460048481548110614e6657fe5b6000918252602080832090910192909255828152602e90915260408082208590558582528120556002805490614ea0906000198301615b44565b506004805490614ae0906000198301615b44565b60395460405163374dc77d60e01b81526001600160a01b03868116600483019081528882166024840152608060448401908152865160848501528651600095869594169363374dc77d938b938d938b938b939291606482019160a4019060208701908083838f5b83811015614f33578181015183820152602001614f1b565b50505050905090810190601f168015614f605780820380516001836020036101000a031916815260200191505b50838103825284518152845160209182019186019080838360005b83811015614f93578181015183820152602001614f7b565b50505050905090810190601f168015614fc05780820380516001836020036101000a031916815260200191505b509650505050505050602060405180830381600087803b158015614fe357600080fd5b505af1158015614ff7573d6000803e3d6000fd5b505050506040513d602081101561500d57600080fd5b5051905084156150275761502287888a61411d565b615031565b6150318789615087565b856001600160a01b0316876001600160a01b03167f7342ad45e4a4592daa7f7e40b50c1c2ce42aa21da0242065e849a8509de7ba7e836040518082815260200191505060405180910390a3979650505050505050565b3361509383828461411d565b341561509e57600080fd5b6053546001600160a01b03166150b357600080fd5b605354604080516356e4bb9760e11b81526001600160a01b038481166004830152602482018690529151919092169163adc9772e91604480830192600092919082900301818387803b15801561510857600080fd5b505af115801561511c573d6000803e3d6000fd5b50505050505050565b61512e82613097565b6151895760008054838252602d602052604082208190556001810182559080527f290decd9548b62a8d60345a988386fc84ba6bc95484008f6362f93160ef3e5630182905561517b615962565b600054111561518957600080fd5b615192826157c6565b80156117025761170282614972565b6000828152600660209081526040808320602a83528184206001600160a01b0386168552909252909120548154811080156152045750826001600160a01b03168282815481106151ed57fe5b6000918252602090912001546001600160a01b0316145b156152a95781546000908390600019810190811061521e57fe5b9060005260206000200160009054906101000a90046001600160a01b031690508083838154811061524b57fe5b600091825260208083209190910180546001600160a01b0319166001600160a01b03948516179055878252602a81526040808320858516845290915280822085905591861681529081205582546152a6846000198301615b44565b50505b60008481526027602090815260408083206001600160a01b0387168452909152902054156152e0576152db8484615967565b6152ea565b6152ea8484615a1d565b50505050565b6000828152600660209081526040808320602a83528184206001600160a01b038616855290925290912054815480821015806153555750836001600160a01b031683838154811061533d57fe5b6000918252602090912001546001600160a01b031614155b156153a3576000858152602a602090815260408083206001600160a01b0388168085529083529083208490558554600181018755868452919092200180546001600160a01b03191690911790555b614ae08585615a1d565b60355460008381526031602090815260408083206001600160a01b0386168452909152902054600190910190806153e6576000196153e8565b805b60008581526026602090815260408083206001600160a01b0388168085529083528184208785528352818420949094558783526032825280832093835292905220546154545760008481526032602090815260408083206001600160a01b038716845290915290208290555b8015615461576000615463565b815b60009485526033602090815260408087206001600160a01b03909616875294905292909320919091555050565b6000811561552257603954604080516352700f5560e11b81526004810186905290516001600160a01b039092169163a4e01eaa91602480820192602092909190829003018186803b1580156154e457600080fd5b505afa1580156154f8573d6000803e3d6000fd5b505050506040513d602081101561550e57600080fd5b50511561551d57506001611641565b615642565b60395460408051632682240f60e11b81526004810186905290516001600160a01b0390921691634d04481e91602480820192602092909190829003018186803b15801561556e57600080fd5b505afa158015615582573d6000803e3d6000fd5b505050506040513d602081101561559857600080fd5b5051156155a757506001611641565b603b546001600160a01b0316158015906156355750603b546040805163cd2ecdf360e01b81526004810186905290516001600160a01b039092169163cd2ecdf391602480820192602092909190829003018186803b15801561560857600080fd5b505afa15801561561c573d6000803e3d6000fd5b505050506040513d602081101561563257600080fd5b50515b1561564257506001611641565b50600092915050565b816001600160a01b0316816001600160a01b0316141561577a576039546040805163738bef1d60e11b81526004810186905290516001600160a01b039092169163e717de3a91602480820192602092909190829003018186803b1580156156b157600080fd5b505afa1580156156c5573d6000803e3d6000fd5b505050506040513d60208110156156db57600080fd5b50516157755760395460408051639b4a14bf60e01b81526004810186905290516001600160a01b0390921691639b4a14bf91602480820192602092909190829003018186803b15801561572d57600080fd5b505afa158015615741573d6000803e3d6000fd5b505050506040513d602081101561575757600080fd5b50511561576c5761576783614ae7565b615775565b615775836145ff565b614a29565b61578483826151a1565b61578d8361579b565b15614a2957614a29836157c6565b6000818152603860205260408120541580156116415750506000908152602860205260409020541590565b6000818152602c6020526040902054600154811080156157fc575081600182815481106157ef57fe5b9060005260206000200154145b15611702576001805460009190600019810190811061581757fe5b90600052602060002001549050806001838154811061583257fe5b6000918252602080832090910192909255828152602c909152604080822084905584825281205560018054906152ea906000198301615b44565b6000818152602f6020526040902054600354811080156158a25750816003828154811061589557fe5b9060005260206000200154145b1561170257600380546000919060001981019081106158bd57fe5b9060005260206000200154905080600383815481106158d857fe5b6000918252602080832090910192909255828152602f909152604080822084905584825281205560038054906152ea906000198301615b44565b6000818152602e6020526040812054600254811080156159485750826002828154811061593b57fe5b9060005260206000200154145b15615956576001915061595d565b5060009050805b915091565b606490565b6000828152600760209081526040808320602b83528184206001600160a01b038616855290925290912054815480821015806159cc5750836001600160a01b03168383815481106159b457fe5b6000918252602090912001546001600160a01b031614155b15614ae0576000948552602b602090815260408087206001600160a01b039690961680885295825286209190915582546001810184559285529093200180546001600160a01b031916909117905550565b6000828152600760209081526040808320602b83528184206001600160a01b038616855290925290912054815481108015615a805750826001600160a01b0316828281548110615a6957fe5b6000918252602090912001546001600160a01b0316145b156152ea57815460009083906000198101908110615a9a57fe5b9060005260206000200160009054906101000a90046001600160a01b0316905080838381548110615ac757fe5b600091825260208083209190910180546001600160a01b0319166001600160a01b03948516179055878252602b8152604080832085851684529091528082208590559186168152908120558254615b22846000198301615b44565b505050505050565b604051806040016040528060008152602001600081525090565b815481835581811115614a2957600083815260209020614a29918101908301611b5091905b80821115615b7d5760008155600101615b69565b509056fea265627a7a7230582062a9abe57e4149ac8993953d9ff8fe0975ce8c9754872a88ca0c90c3d9ad048d64736f6c634300050a0032",
  "linkReferences": {},
  "deployedLinkReferences": {}
}