{
  "_format": "hh-sol-artifact-1",
  "contractName": "Governance",
  "sourceName": "posdao-contracts/contracts/Governance.sol",
  "abi": [
    {
      "constant": false,
      "inputs": [
        {
          "name": "_ballotId",
          "type": "uint256"
        }
      ],
      "name": "finalize",
      "outputs": [],
      "payable": false,
      "stateMutability": "nonpayable",
      "type": "function"
    },
    {
      "constant": true,
      "inputs": [
        {
          "name": "",
          "type": "uint256"
        },
        {
          "name": "",
          "type": "uint256"
        }
      ],
      "name": "ballotPoolVoted",
      "outputs": [
        {
          "name": "",
          "type": "uint256"
        }
      ],
      "payable": false,
      "stateMutability": "view",
      "type": "function"
    },
    {
      "constant": false,
      "inputs": [
        {
          "name": "_poolId",
          "type": "uint256"
        },
        {
          "name": "_duration",
          "type": "uint256"
        },
        {
          "name": "_reason",
          "type": "bytes32"
        },
        {
          "name": "_choice",
          "type": "uint256"
        }
      ],
      "name": "create",
      "outputs": [],
      "payable": false,
      "stateMutability": "nonpayable",
      "type": "function"
    },
    {
      "constant": true,
      "inputs": [
        {
          "name": "",
          "type": "uint256"
        }
      ],
      "name": "ballotIdByPoolId",
      "outputs": [
        {
          "name": "",
          "type": "uint256"
        }
      ],
      "payable": false,
      "stateMutability": "view",
      "type": "function"
    },
    {
      "constant": true,
      "inputs": [
        {
          "name": "",
          "type": "uint256"
        }
      ],
      "name": "ballotCreator",
      "outputs": [
        {
          "name": "",
          "type": "uint256"
        }
      ],
      "payable": false,
      "stateMutability": "view",
      "type": "function"
    },
    {
      "constant": true,
      "inputs": [
        {
          "name": "",
          "type": "uint256"
        }
      ],
      "name": "ballotVotesBan",
      "outputs": [
        {
          "name": "",
          "type": "uint256"
        }
      ],
      "payable": false,
      "stateMutability": "view",
      "type": "function"
    },
    {
      "constant": true,
      "inputs": [
        {
          "name": "",
          "type": "uint256"
        }
      ],
      "name": "ballotReason",
      "outputs": [
        {
          "name": "",
          "type": "bytes32"
        }
      ],
      "payable": false,
      "stateMutability": "view",
      "type": "function"
    },
    {
      "constant": true,
      "inputs": [
        {
          "name": "",
          "type": "uint256"
        }
      ],
      "name": "ballotPoolId",
      "outputs": [
        {
          "name": "",
          "type": "uint256"
        }
      ],
      "payable": false,
      "stateMutability": "view",
      "type": "function"
    },
    {
      "constant": false,
      "inputs": [
        {
          "name": "_ballotId",
          "type": "uint256"
        }
      ],
      "name": "cancel",
      "outputs": [],
      "payable": false,
      "stateMutability": "nonpayable",
      "type": "function"
    },
    {
      "constant": true,
      "inputs": [
        {
          "name": "",
          "type": "uint256"
        }
      ],
      "name": "ballotVotesRemove",
      "outputs": [
        {
          "name": "",
          "type": "uint256"
        }
      ],
      "payable": false,
      "stateMutability": "view",
      "type": "function"
    },
    {
      "constant": true,
      "inputs": [
        {
          "name": "",
          "type": "uint256"
        }
      ],
      "name": "ballotResult",
      "outputs": [
        {
          "name": "",
          "type": "uint256"
        }
      ],
      "payable": false,
      "stateMutability": "view",
      "type": "function"
    },
    {
      "constant": true,
      "inputs": [
        {
          "name": "_ballotId",
          "type": "uint256"
        }
      ],
      "name": "canBeFinalized",
      "outputs": [
        {
          "name": "",
          "type": "bool"
        }
      ],
      "payable": false,
      "stateMutability": "view",
      "type": "function"
    },
    {
      "constant": true,
      "inputs": [
        {
          "name": "",
          "type": "uint256"
        }
      ],
      "name": "openCountPerPoolId",
      "outputs": [
        {
          "name": "",
          "type": "uint256"
        }
      ],
      "payable": false,
      "stateMutability": "view",
      "type": "function"
    },
    {
      "constant": true,
      "inputs": [
        {
          "name": "",
          "type": "uint256"
        }
      ],
      "name": "ballotShortBanUntilBlock",
      "outputs": [
        {
          "name": "",
          "type": "uint256"
        }
      ],
      "payable": false,
      "stateMutability": "view",
      "type": "function"
    },
    {
      "constant": true,
      "inputs": [],
      "name": "MAX_DURATION",
      "outputs": [
        {
          "name": "",
          "type": "uint256"
        }
      ],
      "payable": false,
      "stateMutability": "view",
      "type": "function"
    },
    {
      "constant": false,
      "inputs": [
        {
          "name": "_ballotId",
          "type": "uint256"
        },
        {
          "name": "_choice",
          "type": "uint256"
        }
      ],
      "name": "vote",
      "outputs": [],
      "payable": false,
      "stateMutability": "nonpayable",
      "type": "function"
    },
    {
      "constant": true,
      "inputs": [],
      "name": "MIN_DURATION",
      "outputs": [
        {
          "name": "",
          "type": "uint256"
        }
      ],
      "payable": false,
      "stateMutability": "view",
      "type": "function"
    },
    {
      "constant": true,
      "inputs": [
        {
          "name": "",
          "type": "uint256"
        }
      ],
      "name": "ballotStakingEpoch",
      "outputs": [
        {
          "name": "",
          "type": "uint256"
        }
      ],
      "payable": false,
      "stateMutability": "view",
      "type": "function"
    },
    {
      "constant": true,
      "inputs": [
        {
          "name": "",
          "type": "uint256"
        }
      ],
      "name": "ballotExpirationBlock",
      "outputs": [
        {
          "name": "",
          "type": "uint256"
        }
      ],
      "payable": false,
      "stateMutability": "view",
      "type": "function"
    },
    {
      "constant": false,
      "inputs": [
        {
          "name": "_validatorSetContract",
          "type": "address"
        }
      ],
      "name": "initialize",
      "outputs": [],
      "payable": false,
      "stateMutability": "nonpayable",
      "type": "function"
    },
    {
      "constant": true,
      "inputs": [
        {
          "name": "_poolId",
          "type": "uint256"
        }
      ],
      "name": "isValidatorUnderBallot",
      "outputs": [
        {
          "name": "",
          "type": "bool"
        }
      ],
      "payable": false,
      "stateMutability": "view",
      "type": "function"
    },
    {
      "constant": true,
      "inputs": [],
      "name": "validatorSetContract",
      "outputs": [
        {
          "name": "",
          "type": "address"
        }
      ],
      "payable": false,
      "stateMutability": "view",
      "type": "function"
    },
    {
      "constant": true,
      "inputs": [
        {
          "name": "",
          "type": "uint256"
        }
      ],
      "name": "ballotLongBanUntilBlock",
      "outputs": [
        {
          "name": "",
          "type": "uint256"
        }
      ],
      "payable": false,
      "stateMutability": "view",
      "type": "function"
    },
    {
      "constant": true,
      "inputs": [],
      "name": "latestBallotId",
      "outputs": [
        {
          "name": "",
          "type": "uint256"
        }
      ],
      "payable": false,
      "stateMutability": "view",
      "type": "function"
    },
    {
      "constant": true,
      "inputs": [
        {
          "name": "",
          "type": "uint256"
        }
      ],
      "name": "ballotVotesKeep",
      "outputs": [
        {
          "name": "",
          "type": "uint256"
        }
      ],
      "payable": false,
      "stateMutability": "view",
      "type": "function"
    },
    {
      "constant": true,
      "inputs": [
        {
          "name": "_ballotId",
          "type": "uint256"
        }
      ],
      "name": "getBallot",
      "outputs": [
        {
          "name": "_poolId",
          "type": "uint256"
        },
        {
          "name": "_creatorPoolId",
          "type": "uint256"
        },
        {
          "name": "_expirationBlock",
          "type": "uint256"
        },
        {
          "name": "_longBanUntilBlock",
          "type": "uint256"
        },
        {
          "name": "_shortBanUntilBlock",
          "type": "uint256"
        },
        {
          "name": "_reason",
          "type": "bytes32"
        },
        {
          "name": "_status",
          "type": "uint256"
        },
        {
          "name": "_result",
          "type": "uint256"
        },
        {
          "name": "_threshold",
          "type": "uint256"
        },
        {
          "name": "_keepVotesCount",
          "type": "uint256"
        },
        {
          "name": "_removeVotesCount",
          "type": "uint256"
        },
        {
          "name": "_banVotesCount",
          "type": "uint256"
        }
      ],
      "payable": false,
      "stateMutability": "view",
      "type": "function"
    },
    {
      "constant": true,
      "inputs": [
        {
          "name": "",
          "type": "uint256"
        }
      ],
      "name": "ballotThreshold",
      "outputs": [
        {
          "name": "",
          "type": "uint256"
        }
      ],
      "payable": false,
      "stateMutability": "view",
      "type": "function"
    },
    {
      "constant": true,
      "inputs": [
        {
          "name": "",
          "type": "uint256"
        }
      ],
      "name": "ballotStatus",
      "outputs": [
        {
          "name": "",
          "type": "uint256"
        }
      ],
      "payable": false,
      "stateMutability": "view",
      "type": "function"
    },
    {
      "anonymous": false,
      "inputs": [
        {
          "indexed": false,
          "name": "ballotId",
          "type": "uint256"
        }
      ],
      "name": "Created",
      "type": "event"
    },
    {
      "anonymous": false,
      "inputs": [
        {
          "indexed": false,
          "name": "ballotId",
          "type": "uint256"
        }
      ],
      "name": "Canceled",
      "type": "event"
    },
    {
      "anonymous": false,
      "inputs": [
        {
          "indexed": true,
          "name": "ballotId",
          "type": "uint256"
        },
        {
          "indexed": false,
          "name": "choice",
          "type": "uint256"
        },
        {
          "indexed": true,
          "name": "senderPoolId",
          "type": "uint256"
        }
      ],
      "name": "Voted",
      "type": "event"
    },
    {
      "anonymous": false,
      "inputs": [
        {
          "indexed": false,
          "name": "ballotId",
          "type": "uint256"
        }
      ],
      "name": "Finalized",
      "type": "event"
    }
  ],
  "bytecode": "0x608060405234801561001057600080fd5b50611976806100206000396000f3fe608060405234801561001057600080fd5b50600436106101c45760003560e01c8063b1724b46116100f9578063dfc8bf4e11610097578063f1854e1911610071578063f1854e1914610498578063f9d5ee75146104b5578063fc87bc9e14610531578063ff1ad2d91461054e576101c4565b8063dfc8bf4e1461044f578063e523d61c14610473578063e852faad14610490576101c4565b8063bf8b68da116100d3578063bf8b68da146103d2578063c342a7bf146103ef578063c4d66de81461040c578063cd2ecdf314610432576101c4565b8063b1724b461461039f578063b384abef146103a7578063b6a6d177146103ca576101c4565b80633b79f1a511610166578063518d9fca11610140578063518d9fca1461031757806382c4c9631461033457806388cb91b614610365578063a7debe9d14610382576101c4565b80633b79f1a5146102c057806340e58ee5146102dd5780634e7b4366146102fa576101c4565b8063260f08ad116101a2578063260f08ad1461024c578063280ad39a1461026957806332eac267146102865780633381afbd146102a3576101c4565b806305261aea146101c95780630d13a1c1146101e85780630f045f691461021d575b600080fd5b6101e6600480360360208110156101df57600080fd5b503561056b565b005b61020b600480360360408110156101fe57600080fd5b5080359060200135610589565b60408051918252519081900360200190f35b6101e66004803603608081101561023357600080fd5b50803590602081013590604081013590606001356105a6565b61020b6004803603602081101561026257600080fd5b5035610c1f565b61020b6004803603602081101561027f57600080fd5b5035610c31565b61020b6004803603602081101561029c57600080fd5b5035610c43565b61020b600480360360208110156102b957600080fd5b5035610c55565b61020b600480360360208110156102d657600080fd5b5035610c67565b6101e6600480360360208110156102f357600080fd5b5035610c79565b61020b6004803603602081101561031057600080fd5b5035610e61565b61020b6004803603602081101561032d57600080fd5b5035610e73565b6103516004803603602081101561034a57600080fd5b5035610e85565b604080519115158252519081900360200190f35b61020b6004803603602081101561037b57600080fd5b50356110e8565b61020b6004803603602081101561039857600080fd5b50356110fa565b61020b61110c565b6101e6600480360360408110156103bd57600080fd5b5080359060200135611113565b61020b611375565b61020b600480360360208110156103e857600080fd5b503561137b565b61020b6004803603602081101561040557600080fd5b503561138d565b6101e66004803603602081101561042257600080fd5b50356001600160a01b031661139f565b6103516004803603602081101561044857600080fd5b503561141f565b6104576114e2565b604080516001600160a01b039092168252519081900360200190f35b61020b6004803603602081101561048957600080fd5b50356114f1565b61020b611503565b61020b600480360360208110156104ae57600080fd5b5035611509565b6104d2600480360360208110156104cb57600080fd5b503561151b565b604080519c8d5260208d019b909b528b8b019990995260608b019790975260808a019590955260a089019390935260c088019190915260e087015261010086015261012085015261014084015261016083015251908190036101800190f35b61020b6004803603602081101561054757600080fd5b5035611607565b61020b6004803603602081101561056457600080fd5b5035611619565b61057481610e85565b61057d57600080fd5b6105868161162b565b50565b600f60209081526000928352604080842090915290825290205481565b6011546040805163a26301f960e01b815233600482015290516000926001600160a01b03169163a26301f9916024808301926020929190829003018186803b1580156105f157600080fd5b505afa158015610605573d6000803e3d6000fd5b505050506040513d602081101561061b57600080fd5b505160115460408051639b4a14bf60e01b81526004810189905290519293506001600160a01b0390911691639b4a14bf91602480820192602092909190829003018186803b15801561066c57600080fd5b505afa158015610680573d6000803e3d6000fd5b505050506040513d602081101561069657600080fd5b50516106a157600080fd5b60115460408051639b4a14bf60e01b81526004810184905290516001600160a01b0390921691639b4a14bf91602480820192602092909190829003018186803b1580156106ed57600080fd5b505afa158015610701573d6000803e3d6000fd5b505050506040513d602081101561071757600080fd5b505161072257600080fd5b8085141561072f57600080fd5b6000858152602081905260409020541561074857600080fd5b60115460408051637f2a23bf60e11b815290516000926001600160a01b03169163fe54477e9160048083019286929190829003018186803b15801561078c57600080fd5b505afa1580156107a0573d6000803e3d6000fd5b505050506040513d6000823e601f3d908101601f1916820160405260208110156107c957600080fd5b8101908080516401000000008111156107e157600080fd5b820160208101848111156107f457600080fd5b815185602082028301116401000000008211171561081157600080fd5b50505160008681526001602081905260409091208054918201905590945060038504935083119150610844905057600080fd5b61438086101561085357600080fd5b6201518086111561086357600080fd5b716f6674656e20626c6f636b2064656c61797360701b8514806108995750706f6674656e20626c6f636b20736b69707360781b85145b806108b85750716f6674656e2072657665616c20736b69707360701b85145b806108cf5750691d5b9c995d99585b195960b21b85145b6108d857600080fd5b601080546001019081905560006108fd886108f1611810565b9063ffffffff61181416565b60008381526002602090815260408083208d90556003825280832089905560048083528184208590556011548251633ba6481760e21b81529251959650600c956001600160a01b039091169363ee99205c938084019391929190829003018186803b15801561096b57600080fd5b505afa15801561097f573d6000803e3d6000fd5b505050506040513d602081101561099557600080fd5b50516040805163d609ea9360e01b815290519192506000916001600160a01b0384169163d609ea93916004808301926020929190829003018186803b1580156109dd57600080fd5b505afa1580156109f1573d6000803e3d6000fd5b505050506040513d6020811015610a0757600080fd5b50516040805163461121d760e11b815290519192506000916001600160a01b03851691638c2243ae916004808301926020929190829003018186803b158015610a4f57600080fd5b505afa158015610a63573d6000803e3d6000fd5b505050506040513d6020811015610a7957600080fd5b5051905080851115610aaf57610aac60016108f1868186610aa08b8863ffffffff61182f16565b9063ffffffff61184416565b93505b610ac3816108f1868563ffffffff61186616565b600087815260056020526040902055610af7816108f184610aeb88600c63ffffffff61182f16565b9063ffffffff61186616565b6006600088815260200190815260200160002081905550826001600160a01b031663794c0c686040518163ffffffff1660e01b815260040160206040518083038186803b158015610b4757600080fd5b505afa158015610b5b573d6000803e3d6000fd5b505050506040513d6020811015610b7157600080fd5b50516000878152600a6020908152604080832093909355600781528282208e90556009905220600190555060029250869150610baa9050565b6000848152600b60209081526040808320949093046001019093558b81529182905290208290558515610be157610be18287611113565b6040805183815290517f06acbfb32bcf8383f3b0a768b70ac9ec234ea0f2d3b9c77fa6a2de69b919aad19181900360200190a1505050505050505050565b60006020819052908152604090205481565b60036020526000908152604090205481565b600e6020526000908152604090205481565b60076020526000908152604090205481565b60026020526000908152604090205481565b6011546040805163a26301f960e01b815233600482015290516000926001600160a01b03169163a26301f9916024808301926020929190829003018186803b158015610cc457600080fd5b505afa158015610cd8573d6000803e3d6000fd5b505050506040513d6020811015610cee57600080fd5b50516000838152600360205260409020549091508114610d0d57600080fd5b600082815260096020526040902054600114610d2857600080fd5b600082815260046020526040902054610d3f611810565b10610d4957600080fd5b60115460408051639b4a14bf60e01b81526004810184905290516001600160a01b0390921691639b4a14bf91602480820192602092909190829003018186803b158015610d9557600080fd5b505afa158015610da9573d6000803e3d6000fd5b505050506040513d6020811015610dbf57600080fd5b5051610dca57600080fd5b60008281526009602090815260408083206003905583835260019182905290912054610dfb9163ffffffff61182f16565b6000828152600160209081526040808320939093558482526002815282822054808352828252838320929092558251858152925191927f829a8683c544ad289ce92d3ce06e9ebad69b18a6916e60ec766c2c217461d8e9929081900390910190a1505050565b600d6020526000908152604090205481565b60086020526000908152604090205481565b600081815260096020526040812054600114610ea3575060006110e3565b600082815260046020526040902054610eba611810565b10610ec7575060016110e3565b6000828152600a6020908152604091829020546011548351633ba6481760e21b8152935191936001600160a01b039091169263ee99205c92600480840193829003018186803b158015610f1957600080fd5b505afa158015610f2d573d6000803e3d6000fd5b505050506040513d6020811015610f4357600080fd5b505160408051630f29818d60e31b815290516001600160a01b039092169163794c0c6891600480820192602092909190829003018186803b158015610f8757600080fd5b505afa158015610f9b573d6000803e3d6000fd5b505050506040513d6020811015610fb157600080fd5b505114156110df576000828152600c6020908152604080832054600d835281842054600e909352818420546011548351637f2a23bf60e11b815293519295919391926001600160a01b039091169163fe54477e9160048083019286929190829003018186803b15801561102357600080fd5b505afa158015611037573d6000803e3d6000fd5b505050506040513d6000823e601f3d908101601f19168201604052602081101561106057600080fd5b81019080805164010000000081111561107857600080fd5b8201602081018481111561108b57600080fd5b81518560208202830111640100000000821117156110a857600080fd5b50505193508392506110c891508490506108f1878763ffffffff61181416565b106110da5760019450505050506110e3565b505050505b5060005b919050565b60016020526000908152604090205481565b60066020526000908152604090205481565b6201518081565b60008281526003602052604090205461112b57600080fd5b6011546040805163a26301f960e01b815233600482015290516000926001600160a01b03169163a26301f9916024808301926020929190829003018186803b15801561117657600080fd5b505afa15801561118a573d6000803e3d6000fd5b505050506040513d60208110156111a057600080fd5b505160115460408051639b4a14bf60e01b81526004810184905290519293506001600160a01b0390911691639b4a14bf91602480820192602092909190829003018186803b1580156111f157600080fd5b505afa158015611205573d6000803e3d6000fd5b505050506040513d602081101561121b57600080fd5b505161122657600080fd5b60008381526002602052604090205481141561124157600080fd5b60008381526009602052604090205460011461125c57600080fd5b600083815260046020526040902054611273611810565b1061127d57600080fd5b6000838152600f60209081526040808320848452909152902054156112a157600080fd5b6000838152600f60209081526040808320848452909152902082905560018214156112e0576000838152600c6020526040902080546001019055611322565b6002821415611303576000838152600d6020526040902080546001019055611322565b60038214156101c4576000838152600e60205260409020805460010190555b604080518381529051829185917f5fe8f1cc066896edbe87bedf2e870c54f6311a7d6668c860949e2e1224a0955e9181900360200190a361136283610e85565b15611370576113708361162b565b505050565b61438081565b600a6020526000908152604090205481565b60046020526000908152604090205481565b6113a7611810565b15806113cb57506113b661188d565b6001600160a01b0316336001600160a01b0316145b6113d457600080fd5b6011546001600160a01b0316156113ea57600080fd5b6001600160a01b0381166113fd57600080fd5b601180546001600160a01b0319166001600160a01b0392909216919091179055565b60008181526020819052604081205480158061144a5750600081815260096020526040902054600114155b156114595760009150506110e3565b600081815260046020526040902054611470611810565b10156114805760019150506110e3565b600061148b826118b2565b905060028114156114b8576000828152600660205260409020546114ad611810565b1115925050506110e3565b60038114156114d8576000828152600560205260409020546114ad611810565b5060009392505050565b6011546001600160a01b031681565b60056020526000908152604090205481565b60105481565b600c6020526000908152604090205481565b60008181526002602090815260408083205460038352818420546004845282852054600585528386205460068652848720546007875285882054600988528689205460089098529588205494979396929591949093919291908190819081908190156115955760008d81526008602052604090205461159e565b61159e8d6118b2565b9450600b60008e8152602001908152602001600020549350600c60008e8152602001908152602001600020549250600d60008e8152602001908152602001600020549150600e60008e815260200190815260200160002054905091939597999b5091939597999b565b600b6020526000908152604090205481565b60096020526000908152604090205481565b6011546001600160a01b031661164057600080fd5b600061164b826118b2565b600083815260036020908152604080832054600283528184205460088452828520869055818552600193849052919093205493945091926116919163ffffffff61182f16565b60008381526001602052604090205560028314156117355760115460008581526006602090815260408083205460079092528083205481516305461c8560e01b81526004810187905260248101939093526044830152516001600160a01b03909316926305461c859260648084019391929182900301818387803b15801561171857600080fd5b505af115801561172c573d6000803e3d6000fd5b505050506117c6565b60038314156117c65760115460008581526005602090815260408083205460079092528083205481516305461c8560e01b81526004810187905260248101939093526044830152516001600160a01b03909316926305461c859260648084019391929182900301818387803b1580156117ad57600080fd5b505af11580156117c1573d6000803e3d6000fd5b505050505b60008181526020818152604080832092909255815186815291517f839cf22e1ba87ce2f5b9bbf46cf0175a09eed52febdfaac8852478e68203c7639281900390910190a150505050565b4390565b60008282018381101561182657600080fd5b90505b92915050565b60008282111561183e57600080fd5b50900390565b600080821161185257600080fd5b600082848161185d57fe5b04949350505050565b60008261187557506000611829565b8282028284828161188257fe5b041461182657600080fd5b7fb53127684a568b3173ae13b9f8a6016e243e63b6e8ee1178d6a717850b5d61035490565b6000818152600c6020908152604080832054600d835281842054600e845282852054600b909452918420549092906118f4826108f1868663ffffffff61181416565b101561190657600193505050506110e3565b600181831115611921578383111561191c575060025b611938565b828211801561192f57508382115b15611938575060035b9594505050505056fea265627a7a72305820cb3ace85bdd33bd949c98f9b34622a1edca7595072519c0299c1ca2b4882c5fb64736f6c634300050a0032",
  "linkReferences": {},
  "deployedLinkReferences": {}
}