{
  "_format": "hh-sol-artifact-1",
  "contractName": "StakingAuRaTokens",
  "sourceName": "posdao-contracts/contracts/base/StakingAuRaTokens.sol",
  "abi": [
    {
      "constant": true,
      "inputs": [
        {
          "name": "",
          "type": "uint256"
        },
        {
          "name": "",
          "type": "address"
        }
      ],
      "name": "poolDelegatorIndex",
      "outputs": [
        {
          "name": "",
          "type": "uint256"
        }
      ],
      "payable": false,
      "stateMutability": "view",
      "type": "function"
    },
    {
      "constant": false,
      "inputs": [
        {
          "name": "_totalAmount",
          "type": "uint256"
        }
      ],
      "name": "initialValidatorStake",
      "outputs": [],
      "payable": false,
      "stateMutability": "nonpayable",
      "type": "function"
    },
    {
      "constant": true,
      "inputs": [
        {
          "name": "_poolId",
          "type": "uint256"
        },
        {
          "name": "_delegatorOrZero",
          "type": "address"
        }
      ],
      "name": "stakeAmountByCurrentEpoch",
      "outputs": [
        {
          "name": "",
          "type": "uint256"
        }
      ],
      "payable": false,
      "stateMutability": "view",
      "type": "function"
    },
    {
      "constant": true,
      "inputs": [
        {
          "name": "",
          "type": "uint256"
        },
        {
          "name": "",
          "type": "address"
        }
      ],
      "name": "poolDelegatorInactiveIndex",
      "outputs": [
        {
          "name": "",
          "type": "uint256"
        }
      ],
      "payable": false,
      "stateMutability": "view",
      "type": "function"
    },
    {
      "constant": false,
      "inputs": [],
      "name": "removePools",
      "outputs": [],
      "payable": false,
      "stateMutability": "nonpayable",
      "type": "function"
    },
    {
      "constant": true,
      "inputs": [
        {
          "name": "",
          "type": "uint256"
        },
        {
          "name": "",
          "type": "address"
        },
        {
          "name": "",
          "type": "uint256"
        }
      ],
      "name": "rewardWasTaken",
      "outputs": [
        {
          "name": "",
          "type": "bool"
        }
      ],
      "payable": false,
      "stateMutability": "view",
      "type": "function"
    },
    {
      "constant": false,
      "inputs": [
        {
          "name": "_blockNumber",
          "type": "uint256"
        }
      ],
      "name": "setStakingEpochStartBlock",
      "outputs": [],
      "payable": false,
      "stateMutability": "nonpayable",
      "type": "function"
    },
    {
      "constant": false,
      "inputs": [
        {
          "name": "_fromPoolStakingAddress",
          "type": "address"
        },
        {
          "name": "_toPoolStakingAddress",
          "type": "address"
        },
        {
          "name": "_amount",
          "type": "uint256"
        }
      ],
      "name": "moveStake",
      "outputs": [],
      "payable": false,
      "stateMutability": "nonpayable",
      "type": "function"
    },
    {
      "constant": true,
      "inputs": [
        {
          "name": "",
          "type": "uint256"
        },
        {
          "name": "",
          "type": "address"
        }
      ],
      "name": "stakeFirstEpoch",
      "outputs": [
        {
          "name": "",
          "type": "uint256"
        }
      ],
      "payable": false,
      "stateMutability": "view",
      "type": "function"
    },
    {
      "constant": true,
      "inputs": [
        {
          "name": "",
          "type": "uint256"
        }
      ],
      "name": "stakeAmountTotal",
      "outputs": [
        {
          "name": "",
          "type": "uint256"
        }
      ],
      "payable": false,
      "stateMutability": "view",
      "type": "function"
    },
    {
      "constant": false,
      "inputs": [
        {
          "name": "_minStake",
          "type": "uint256"
        }
      ],
      "name": "setDelegatorMinStake",
      "outputs": [],
      "payable": false,
      "stateMutability": "nonpayable",
      "type": "function"
    },
    {
      "constant": true,
      "inputs": [],
      "name": "erc677TokenContract",
      "outputs": [
        {
          "name": "",
          "type": "address"
        }
      ],
      "payable": false,
      "stateMutability": "view",
      "type": "function"
    },
    {
      "constant": true,
      "inputs": [
        {
          "name": "_delegator",
          "type": "address"
        },
        {
          "name": "_offset",
          "type": "uint256"
        },
        {
          "name": "_length",
          "type": "uint256"
        }
      ],
      "name": "getDelegatorPools",
      "outputs": [
        {
          "name": "result",
          "type": "uint256[]"
        }
      ],
      "payable": false,
      "stateMutability": "view",
      "type": "function"
    },
    {
      "constant": false,
      "inputs": [
        {
          "name": "_unremovablePoolId",
          "type": "uint256"
        }
      ],
      "name": "clearUnremovableValidator",
      "outputs": [],
      "payable": false,
      "stateMutability": "nonpayable",
      "type": "function"
    },
    {
      "constant": true,
      "inputs": [
        {
          "name": "",
          "type": "uint256"
        },
        {
          "name": "",
          "type": "address"
        }
      ],
      "name": "stakeLastEpoch",
      "outputs": [
        {
          "name": "",
          "type": "uint256"
        }
      ],
      "payable": false,
      "stateMutability": "view",
      "type": "function"
    },
    {
      "constant": true,
      "inputs": [],
      "name": "isInitialized",
      "outputs": [
        {
          "name": "",
          "type": "bool"
        }
      ],
      "payable": false,
      "stateMutability": "view",
      "type": "function"
    },
    {
      "constant": false,
      "inputs": [
        {
          "name": "_stakingEpochs",
          "type": "uint256[]"
        },
        {
          "name": "_poolStakingAddress",
          "type": "address"
        }
      ],
      "name": "claimReward",
      "outputs": [],
      "payable": false,
      "stateMutability": "nonpayable",
      "type": "function"
    },
    {
      "constant": true,
      "inputs": [
        {
          "name": "",
          "type": "uint256"
        },
        {
          "name": "",
          "type": "address"
        }
      ],
      "name": "stakeAmount",
      "outputs": [
        {
          "name": "",
          "type": "uint256"
        }
      ],
      "payable": false,
      "stateMutability": "view",
      "type": "function"
    },
    {
      "constant": true,
      "inputs": [
        {
          "name": "",
          "type": "uint256"
        }
      ],
      "name": "orderedWithdrawAmountTotal",
      "outputs": [
        {
          "name": "",
          "type": "uint256"
        }
      ],
      "payable": false,
      "stateMutability": "view",
      "type": "function"
    },
    {
      "constant": false,
      "inputs": [
        {
          "name": "_minStake",
          "type": "uint256"
        }
      ],
      "name": "setCandidateMinStake",
      "outputs": [],
      "payable": false,
      "stateMutability": "nonpayable",
      "type": "function"
    },
    {
      "constant": false,
      "inputs": [
        {
          "name": "_dest",
          "type": "address"
        }
      ],
      "name": "withdrawPortis",
      "outputs": [],
      "payable": false,
      "stateMutability": "nonpayable",
      "type": "function"
    },
    {
      "constant": true,
      "inputs": [
        {
          "name": "_poolId",
          "type": "uint256"
        }
      ],
      "name": "poolDelegators",
      "outputs": [
        {
          "name": "",
          "type": "address[]"
        }
      ],
      "payable": false,
      "stateMutability": "view",
      "type": "function"
    },
    {
      "constant": false,
      "inputs": [
        {
          "name": "_erc677TokenContract",
          "type": "address"
        }
      ],
      "name": "setErc677TokenContract",
      "outputs": [],
      "payable": false,
      "stateMutability": "nonpayable",
      "type": "function"
    },
    {
      "constant": true,
      "inputs": [],
      "name": "candidateMinStake",
      "outputs": [
        {
          "name": "",
          "type": "uint256"
        }
      ],
      "payable": false,
      "stateMutability": "view",
      "type": "function"
    },
    {
      "constant": true,
      "inputs": [],
      "name": "getPools",
      "outputs": [
        {
          "name": "",
          "type": "uint256[]"
        }
      ],
      "payable": false,
      "stateMutability": "view",
      "type": "function"
    },
    {
      "constant": true,
      "inputs": [
        {
          "name": "_poolStakingAddress",
          "type": "address"
        },
        {
          "name": "_staker",
          "type": "address"
        }
      ],
      "name": "maxWithdrawAllowed",
      "outputs": [
        {
          "name": "",
          "type": "uint256"
        }
      ],
      "payable": false,
      "stateMutability": "view",
      "type": "function"
    },
    {
      "constant": true,
      "inputs": [
        {
          "name": "",
          "type": "uint256"
        },
        {
          "name": "",
          "type": "address"
        },
        {
          "name": "",
          "type": "uint256"
        }
      ],
      "name": "delegatorStakeSnapshot",
      "outputs": [
        {
          "name": "",
          "type": "uint256"
        }
      ],
      "payable": false,
      "stateMutability": "view",
      "type": "function"
    },
    {
      "constant": true,
      "inputs": [
        {
          "name": "",
          "type": "uint256"
        }
      ],
      "name": "poolInactiveIndex",
      "outputs": [
        {
          "name": "",
          "type": "uint256"
        }
      ],
      "payable": false,
      "stateMutability": "view",
      "type": "function"
    },
    {
      "constant": true,
      "inputs": [],
      "name": "stakingEpochStartBlock",
      "outputs": [
        {
          "name": "",
          "type": "uint256"
        }
      ],
      "payable": false,
      "stateMutability": "view",
      "type": "function"
    },
    {
      "constant": true,
      "inputs": [],
      "name": "lastChangeBlock",
      "outputs": [
        {
          "name": "",
          "type": "uint256"
        }
      ],
      "payable": false,
      "stateMutability": "view",
      "type": "function"
    },
    {
      "constant": true,
      "inputs": [],
      "name": "stakingEpoch",
      "outputs": [
        {
          "name": "",
          "type": "uint256"
        }
      ],
      "payable": false,
      "stateMutability": "view",
      "type": "function"
    },
    {
      "constant": true,
      "inputs": [
        {
          "name": "_delegator",
          "type": "address"
        }
      ],
      "name": "getDelegatorPoolsLength",
      "outputs": [
        {
          "name": "",
          "type": "uint256"
        }
      ],
      "payable": false,
      "stateMutability": "view",
      "type": "function"
    },
    {
      "constant": true,
      "inputs": [],
      "name": "stakingEpochEndBlock",
      "outputs": [
        {
          "name": "",
          "type": "uint256"
        }
      ],
      "payable": false,
      "stateMutability": "view",
      "type": "function"
    },
    {
      "constant": false,
      "inputs": [
        {
          "name": "_poolId",
          "type": "uint256"
        }
      ],
      "name": "addUnremovableValidator",
      "outputs": [],
      "payable": false,
      "stateMutability": "nonpayable",
      "type": "function"
    },
    {
      "constant": true,
      "inputs": [
        {
          "name": "_poolStakingAddress",
          "type": "address"
        },
        {
          "name": "_staker",
          "type": "address"
        }
      ],
      "name": "maxWithdrawOrderAllowed",
      "outputs": [
        {
          "name": "",
          "type": "uint256"
        }
      ],
      "payable": false,
      "stateMutability": "view",
      "type": "function"
    },
    {
      "constant": true,
      "inputs": [],
      "name": "getPoolsLikelihood",
      "outputs": [
        {
          "name": "likelihoods",
          "type": "uint256[]"
        },
        {
          "name": "sum",
          "type": "uint256"
        }
      ],
      "payable": false,
      "stateMutability": "view",
      "type": "function"
    },
    {
      "constant": true,
      "inputs": [],
      "name": "stakeWithdrawDisallowPeriod",
      "outputs": [
        {
          "name": "",
          "type": "uint256"
        }
      ],
      "payable": false,
      "stateMutability": "view",
      "type": "function"
    },
    {
      "constant": true,
      "inputs": [
        {
          "name": "",
          "type": "uint256"
        }
      ],
      "name": "poolToBeElectedIndex",
      "outputs": [
        {
          "name": "",
          "type": "uint256"
        }
      ],
      "payable": false,
      "stateMutability": "view",
      "type": "function"
    },
    {
      "constant": true,
      "inputs": [
        {
          "name": "_poolId",
          "type": "uint256"
        }
      ],
      "name": "poolDelegatorsInactive",
      "outputs": [
        {
          "name": "",
          "type": "address[]"
        }
      ],
      "payable": false,
      "stateMutability": "view",
      "type": "function"
    },
    {
      "constant": false,
      "inputs": [
        {
          "name": "_poolId",
          "type": "uint256"
        }
      ],
      "name": "removePool",
      "outputs": [],
      "payable": false,
      "stateMutability": "nonpayable",
      "type": "function"
    },
    {
      "constant": false,
      "inputs": [
        {
          "name": "_staker",
          "type": "address"
        },
        {
          "name": "_amount",
          "type": "uint256"
        },
        {
          "name": "_data",
          "type": "bytes"
        }
      ],
      "name": "onTokenTransfer",
      "outputs": [
        {
          "name": "",
          "type": "bool"
        }
      ],
      "payable": false,
      "stateMutability": "nonpayable",
      "type": "function"
    },
    {
      "constant": true,
      "inputs": [],
      "name": "getPoolsToBeElected",
      "outputs": [
        {
          "name": "",
          "type": "uint256[]"
        }
      ],
      "payable": false,
      "stateMutability": "view",
      "type": "function"
    },
    {
      "constant": false,
      "inputs": [
        {
          "name": "_toPoolStakingAddress",
          "type": "address"
        },
        {
          "name": "_amount",
          "type": "uint256"
        }
      ],
      "name": "stake",
      "outputs": [],
      "payable": true,
      "stateMutability": "payable",
      "type": "function"
    },
    {
      "constant": true,
      "inputs": [],
      "name": "governanceContract",
      "outputs": [
        {
          "name": "",
          "type": "address"
        }
      ],
      "payable": false,
      "stateMutability": "view",
      "type": "function"
    },
    {
      "constant": false,
      "inputs": [
        {
          "name": "_poolStakingAddress",
          "type": "address"
        },
        {
          "name": "_amount",
          "type": "int256"
        }
      ],
      "name": "orderWithdraw",
      "outputs": [],
      "payable": false,
      "stateMutability": "nonpayable",
      "type": "function"
    },
    {
      "constant": true,
      "inputs": [
        {
          "name": "_poolId",
          "type": "uint256"
        }
      ],
      "name": "isPoolActive",
      "outputs": [
        {
          "name": "",
          "type": "bool"
        }
      ],
      "payable": false,
      "stateMutability": "view",
      "type": "function"
    },
    {
      "constant": true,
      "inputs": [
        {
          "name": "",
          "type": "uint256"
        }
      ],
      "name": "poolToBeRemovedIndex",
      "outputs": [
        {
          "name": "",
          "type": "uint256"
        }
      ],
      "payable": false,
      "stateMutability": "view",
      "type": "function"
    },
    {
      "constant": false,
      "inputs": [
        {
          "name": "_validatorSetContract",
          "type": "address"
        },
        {
          "name": "_governanceContract",
          "type": "address"
        },
        {
          "name": "_initialIds",
          "type": "uint256[]"
        },
        {
          "name": "_delegatorMinStake",
          "type": "uint256"
        },
        {
          "name": "_candidateMinStake",
          "type": "uint256"
        },
        {
          "name": "_stakingEpochDuration",
          "type": "uint256"
        },
        {
          "name": "_stakingEpochStartBlock",
          "type": "uint256"
        },
        {
          "name": "_stakeWithdrawDisallowPeriod",
          "type": "uint256"
        }
      ],
      "name": "initialize",
      "outputs": [],
      "payable": false,
      "stateMutability": "nonpayable",
      "type": "function"
    },
    {
      "constant": true,
      "inputs": [
        {
          "name": "",
          "type": "uint256"
        }
      ],
      "name": "poolIndex",
      "outputs": [
        {
          "name": "",
          "type": "uint256"
        }
      ],
      "payable": false,
      "stateMutability": "view",
      "type": "function"
    },
    {
      "constant": false,
      "inputs": [
        {
          "name": "_poolStakingAddress",
          "type": "address"
        }
      ],
      "name": "claimOrderedWithdraw",
      "outputs": [],
      "payable": false,
      "stateMutability": "nonpayable",
      "type": "function"
    },
    {
      "constant": true,
      "inputs": [],
      "name": "getPoolsToBeRemoved",
      "outputs": [
        {
          "name": "",
          "type": "uint256[]"
        }
      ],
      "payable": false,
      "stateMutability": "view",
      "type": "function"
    },
    {
      "constant": true,
      "inputs": [
        {
          "name": "",
          "type": "uint256"
        },
        {
          "name": "",
          "type": "address"
        }
      ],
      "name": "orderWithdrawEpoch",
      "outputs": [
        {
          "name": "",
          "type": "uint256"
        }
      ],
      "payable": false,
      "stateMutability": "view",
      "type": "function"
    },
    {
      "constant": true,
      "inputs": [],
      "name": "stakingEpochDuration",
      "outputs": [
        {
          "name": "",
          "type": "uint256"
        }
      ],
      "payable": false,
      "stateMutability": "view",
      "type": "function"
    },
    {
      "constant": true,
      "inputs": [],
      "name": "delegatorMinStake",
      "outputs": [
        {
          "name": "",
          "type": "uint256"
        }
      ],
      "payable": false,
      "stateMutability": "view",
      "type": "function"
    },
    {
      "constant": true,
      "inputs": [],
      "name": "getPoolsInactive",
      "outputs": [
        {
          "name": "",
          "type": "uint256[]"
        }
      ],
      "payable": false,
      "stateMutability": "view",
      "type": "function"
    },
    {
      "constant": true,
      "inputs": [],
      "name": "validatorSetContract",
      "outputs": [
        {
          "name": "",
          "type": "address"
        }
      ],
      "payable": false,
      "stateMutability": "view",
      "type": "function"
    },
    {
      "constant": true,
      "inputs": [
        {
          "name": "",
          "type": "uint256"
        },
        {
          "name": "",
          "type": "address"
        }
      ],
      "name": "orderedWithdrawAmount",
      "outputs": [
        {
          "name": "",
          "type": "uint256"
        }
      ],
      "payable": false,
      "stateMutability": "view",
      "type": "function"
    },
    {
      "constant": false,
      "inputs": [
        {
          "name": "_amount",
          "type": "uint256"
        },
        {
          "name": "_miningAddress",
          "type": "address"
        },
        {
          "name": "_name",
          "type": "string"
        },
        {
          "name": "_description",
          "type": "string"
        }
      ],
      "name": "addPool",
      "outputs": [
        {
          "name": "",
          "type": "uint256"
        }
      ],
      "payable": true,
      "stateMutability": "payable",
      "type": "function"
    },
    {
      "constant": false,
      "inputs": [],
      "name": "removeMyPool",
      "outputs": [],
      "payable": false,
      "stateMutability": "nonpayable",
      "type": "function"
    },
    {
      "constant": false,
      "inputs": [],
      "name": "incrementStakingEpoch",
      "outputs": [],
      "payable": false,
      "stateMutability": "nonpayable",
      "type": "function"
    },
    {
      "constant": true,
      "inputs": [],
      "name": "MAX_CANDIDATES",
      "outputs": [
        {
          "name": "",
          "type": "uint256"
        }
      ],
      "payable": false,
      "stateMutability": "view",
      "type": "function"
    },
    {
      "constant": false,
      "inputs": [
        {
          "name": "_fromPoolStakingAddress",
          "type": "address"
        },
        {
          "name": "_amount",
          "type": "uint256"
        }
      ],
      "name": "withdraw",
      "outputs": [],
      "payable": false,
      "stateMutability": "nonpayable",
      "type": "function"
    },
    {
      "constant": true,
      "inputs": [],
      "name": "areStakeAndWithdrawAllowed",
      "outputs": [
        {
          "name": "",
          "type": "bool"
        }
      ],
      "payable": false,
      "stateMutability": "view",
      "type": "function"
    },
    {
      "constant": true,
      "inputs": [
        {
          "name": "_stakingEpochs",
          "type": "uint256[]"
        },
        {
          "name": "_poolStakingAddress",
          "type": "address"
        },
        {
          "name": "_staker",
          "type": "address"
        }
      ],
      "name": "getRewardAmount",
      "outputs": [
        {
          "name": "tokenRewardSum",
          "type": "uint256"
        },
        {
          "name": "nativeRewardSum",
          "type": "uint256"
        }
      ],
      "payable": false,
      "stateMutability": "view",
      "type": "function"
    },
    {
      "payable": true,
      "stateMutability": "payable",
      "type": "fallback"
    },
    {
      "anonymous": false,
      "inputs": [
        {
          "indexed": true,
          "name": "fromPoolStakingAddress",
          "type": "address"
        },
        {
          "indexed": true,
          "name": "staker",
          "type": "address"
        },
        {
          "indexed": true,
          "name": "stakingEpoch",
          "type": "uint256"
        },
        {
          "indexed": false,
          "name": "tokensAmount",
          "type": "uint256"
        },
        {
          "indexed": false,
          "name": "nativeCoinsAmount",
          "type": "uint256"
        },
        {
          "indexed": false,
          "name": "fromPoolId",
          "type": "uint256"
        }
      ],
      "name": "ClaimedReward",
      "type": "event"
    },
    {
      "anonymous": false,
      "inputs": [
        {
          "indexed": true,
          "name": "poolStakingAddress",
          "type": "address"
        },
        {
          "indexed": true,
          "name": "poolMiningAddress",
          "type": "address"
        },
        {
          "indexed": false,
          "name": "poolId",
          "type": "uint256"
        }
      ],
      "name": "AddedPool",
      "type": "event"
    },
    {
      "anonymous": false,
      "inputs": [
        {
          "indexed": true,
          "name": "fromPoolStakingAddress",
          "type": "address"
        },
        {
          "indexed": true,
          "name": "staker",
          "type": "address"
        },
        {
          "indexed": true,
          "name": "stakingEpoch",
          "type": "uint256"
        },
        {
          "indexed": false,
          "name": "amount",
          "type": "uint256"
        },
        {
          "indexed": false,
          "name": "fromPoolId",
          "type": "uint256"
        }
      ],
      "name": "ClaimedOrderedWithdrawal",
      "type": "event"
    },
    {
      "anonymous": false,
      "inputs": [
        {
          "indexed": false,
          "name": "fromPoolStakingAddress",
          "type": "address"
        },
        {
          "indexed": true,
          "name": "toPoolStakingAddress",
          "type": "address"
        },
        {
          "indexed": true,
          "name": "staker",
          "type": "address"
        },
        {
          "indexed": true,
          "name": "stakingEpoch",
          "type": "uint256"
        },
        {
          "indexed": false,
          "name": "amount",
          "type": "uint256"
        },
        {
          "indexed": false,
          "name": "fromPoolId",
          "type": "uint256"
        },
        {
          "indexed": false,
          "name": "toPoolId",
          "type": "uint256"
        }
      ],
      "name": "MovedStake",
      "type": "event"
    },
    {
      "anonymous": false,
      "inputs": [
        {
          "indexed": true,
          "name": "fromPoolStakingAddress",
          "type": "address"
        },
        {
          "indexed": true,
          "name": "staker",
          "type": "address"
        },
        {
          "indexed": true,
          "name": "stakingEpoch",
          "type": "uint256"
        },
        {
          "indexed": false,
          "name": "amount",
          "type": "int256"
        },
        {
          "indexed": false,
          "name": "fromPoolId",
          "type": "uint256"
        }
      ],
      "name": "OrderedWithdrawal",
      "type": "event"
    },
    {
      "anonymous": false,
      "inputs": [
        {
          "indexed": true,
          "name": "toPoolStakingAddress",
          "type": "address"
        },
        {
          "indexed": true,
          "name": "staker",
          "type": "address"
        },
        {
          "indexed": true,
          "name": "stakingEpoch",
          "type": "uint256"
        },
        {
          "indexed": false,
          "name": "amount",
          "type": "uint256"
        },
        {
          "indexed": false,
          "name": "toPoolId",
          "type": "uint256"
        }
      ],
      "name": "PlacedStake",
      "type": "event"
    },
    {
      "anonymous": false,
      "inputs": [
        {
          "indexed": true,
          "name": "fromPoolStakingAddress",
          "type": "address"
        },
        {
          "indexed": true,
          "name": "staker",
          "type": "address"
        },
        {
          "indexed": true,
          "name": "stakingEpoch",
          "type": "uint256"
        },
        {
          "indexed": false,
          "name": "amount",
          "type": "uint256"
        },
        {
          "indexed": false,
          "name": "fromPoolId",
          "type": "uint256"
        }
      ],
      "name": "WithdrewStake",
      "type": "event"
    }
  ],
  "bytecode": "0x608060405234801561001057600080fd5b5061579480620000216000396000f3fe6080604052600436106103c35760003560e01c80638c2243ae116101f2578063cd22c7521161010d578063e3f0ff66116100a0578063f07860961161006f578063f078609614611033578063f3fef3a314611048578063f494250114611081578063fb367a9b14611096576103c3565b8063e3f0ff6614610efd578063e4a9e42e14610f36578063edd7db7514611009578063ee435f551461101e576103c3565b8063d609ea93116100dc578063d609ea9314610ea9578063da7a9b6a14610ebe578063df6f55f514610ed3578063dfc8bf4e14610ee8576103c3565b8063cd22c75214610dfe578063cfef144114610e28578063d290c21d14610e5b578063d2f2a13614610e70576103c3565b8063a4c0ed3611610185578063b61ed63a11610154578063b61ed63a14610cc4578063bbbaf8c814610cfd578063bcdb0d3814610d27578063cc4a666714610d51576103c3565b8063a4c0ed3614610bde578063a5d54f6514610c6e578063adc9772e14610c83578063b172b22214610caf576103c3565b806397997ebb116101c157806397997ebb14610b4b5780639fb0e72e14610b60578063a1fc275314610b8a578063a38dcbd014610bb4576103c3565b80638c2243ae14610a6157806394f3a24114610a76578063950a651314610aa0578063957950a714610adb576103c3565b80633ea15d62116102e2578063673a2a1f116102755780637069e746116102445780637069e746146109ef57806374bdb37214610a04578063794c0c6814610a195780638ba31a1c14610a2e576103c3565b8063673a2a1f146109365780636bda15771461094b5780636d01b4fe146109865780636e69cd8b146109c5576103c3565b80635292fccf116102b15780635292fccf14610891578063561c4c81146108c4578063570941d2146108ee5780635fef764314610921576103c3565b80633ea15d621461074b5780633fb1a1e4146108045780634070a2d01461083d57806348aaa4a214610867576103c3565b806327d89b3a1161035a5780632ebfaf4e116103295780632ebfaf4e146106445780632f248e30146106d3578063381883b0146106fd578063392e53cd14610736576103c3565b806327d89b3a146105865780632a8f6ecd146105bf5780632bafde8d146105e95780632d21d21714610613576103c3565b80631555371c116103965780631555371c146104b1578063186dc46f146104c657806320d96e4614610519578063251441a914610543576103c3565b806302a53ba1146103c85780630555c5e214610413578063073b62fe1461043f578063093411da14610478575b600080fd5b3480156103d457600080fd5b50610401600480360360408110156103eb57600080fd5b50803590602001356001600160a01b0316611173565b60408051918252519081900360200190f35b34801561041f57600080fd5b5061043d6004803603602081101561043657600080fd5b5035611190565b005b34801561044b57600080fd5b506104016004803603604081101561046257600080fd5b50803590602001356001600160a01b0316611325565b34801561048457600080fd5b506104016004803603604081101561049b57600080fd5b50803590602001356001600160a01b0316611359565b3480156104bd57600080fd5b5061043d611376565b3480156104d257600080fd5b50610505600480360360608110156104e957600080fd5b508035906001600160a01b036020820135169060400135611418565b604080519115158252519081900360200190f35b34801561052557600080fd5b5061043d6004803603602081101561053c57600080fd5b503561143e565b34801561054f57600080fd5b5061043d6004803603606081101561056657600080fd5b506001600160a01b0381358116916020810135909116906040013561145a565b34801561059257600080fd5b50610401600480360360408110156105a957600080fd5b50803590602001356001600160a01b03166115f2565b3480156105cb57600080fd5b50610401600480360360208110156105e257600080fd5b503561160f565b3480156105f557600080fd5b5061043d6004803603602081101561060c57600080fd5b5035611621565b34801561061f57600080fd5b5061062861165c565b604080516001600160a01b039092168252519081900360200190f35b34801561065057600080fd5b506106836004803603606081101561066757600080fd5b506001600160a01b03813516906020810135906040013561166b565b60408051602080825283518183015283519192839290830191858101910280838360005b838110156106bf5781810151838201526020016106a7565b505050509050019250505060405180910390f35b3480156106df57600080fd5b5061043d600480360360208110156106f657600080fd5b5035611780565b34801561070957600080fd5b506104016004803603604081101561072057600080fd5b50803590602001356001600160a01b03166117e3565b34801561074257600080fd5b50610505611800565b34801561075757600080fd5b5061043d6004803603604081101561076e57600080fd5b810190602081018135600160201b81111561078857600080fd5b82018360208201111561079a57600080fd5b803590602001918460208302840111600160201b831117156107bb57600080fd5b919080806020026020016040519081016040528093929190818152602001838360200280828437600092019190915250929550505090356001600160a01b031691506118129050565b34801561081057600080fd5b506104016004803603604081101561082757600080fd5b50803590602001356001600160a01b0316611e87565b34801561084957600080fd5b506104016004803603602081101561086057600080fd5b5035611ea4565b34801561087357600080fd5b5061043d6004803603602081101561088a57600080fd5b5035611eb6565b34801561089d57600080fd5b5061043d600480360360208110156108b457600080fd5b50356001600160a01b0316611ef1565b3480156108d057600080fd5b50610683600480360360208110156108e757600080fd5b5035612045565b3480156108fa57600080fd5b5061043d6004803603602081101561091157600080fd5b50356001600160a01b03166120b1565b34801561092d57600080fd5b5061040161213d565b34801561094257600080fd5b50610683612143565b34801561095757600080fd5b506104016004803603604081101561096e57600080fd5b506001600160a01b038135811691602001351661219b565b34801561099257600080fd5b50610401600480360360608110156109a957600080fd5b508035906001600160a01b03602082013516906040013561235a565b3480156109d157600080fd5b50610401600480360360208110156109e857600080fd5b503561237d565b3480156109fb57600080fd5b5061040161238f565b348015610a1057600080fd5b50610401612395565b348015610a2557600080fd5b5061040161239b565b348015610a3a57600080fd5b5061040160048036036020811015610a5157600080fd5b50356001600160a01b03166123a1565b348015610a6d57600080fd5b506104016123bc565b348015610a8257600080fd5b5061043d60048036036020811015610a9957600080fd5b50356123e1565b348015610aac57600080fd5b5061040160048036036040811015610ac357600080fd5b506001600160a01b0381358116916020013516612420565b348015610ae757600080fd5b50610af06125d1565b6040518080602001838152602001828103825284818151815260200191508051906020019060200280838360005b83811015610b36578181015183820152602001610b1e565b50505050905001935050505060405180910390f35b348015610b5757600080fd5b50610401612634565b348015610b6c57600080fd5b5061040160048036036020811015610b8357600080fd5b503561263a565b348015610b9657600080fd5b5061068360048036036020811015610bad57600080fd5b503561264c565b348015610bc057600080fd5b5061043d60048036036020811015610bd757600080fd5b50356126b6565b348015610bea57600080fd5b5061050560048036036060811015610c0157600080fd5b6001600160a01b0382351691602081013591810190606081016040820135600160201b811115610c3057600080fd5b820183602082011115610c4257600080fd5b803590602001918460018302840111600160201b83111715610c6357600080fd5b5090925090506126d6565b348015610c7a57600080fd5b5061068361283c565b61043d60048036036040811015610c9957600080fd5b506001600160a01b038135169060200135612892565b348015610cbb57600080fd5b5061062861289c565b348015610cd057600080fd5b5061043d60048036036040811015610ce757600080fd5b506001600160a01b0381351690602001356128ab565b348015610d0957600080fd5b5061050560048036036020811015610d2057600080fd5b5035612cd7565b348015610d3357600080fd5b5061040160048036036020811015610d4a57600080fd5b5035612d12565b348015610d5d57600080fd5b5061043d6004803603610100811015610d7557600080fd5b6001600160a01b038235811692602081013590911691810190606081016040820135600160201b811115610da857600080fd5b820183602082011115610dba57600080fd5b803590602001918460208302840111600160201b83111715610ddb57600080fd5b919350915080359060208101359060408101359060608101359060800135612d24565b348015610e0a57600080fd5b5061040160048036036020811015610e2157600080fd5b5035612f0f565b348015610e3457600080fd5b5061043d60048036036020811015610e4b57600080fd5b50356001600160a01b0316612f21565b348015610e6757600080fd5b50610683613128565b348015610e7c57600080fd5b5061040160048036036040811015610e9357600080fd5b50803590602001356001600160a01b031661317e565b348015610eb557600080fd5b5061040161319b565b348015610eca57600080fd5b506104016131a1565b348015610edf57600080fd5b506106836131a7565b348015610ef457600080fd5b506106286131fd565b348015610f0957600080fd5b5061040160048036036040811015610f2057600080fd5b50803590602001356001600160a01b031661320c565b61040160048036036080811015610f4c57600080fd5b8135916001600160a01b0360208201351691810190606081016040820135600160201b811115610f7b57600080fd5b820183602082011115610f8d57600080fd5b803590602001918460018302840111600160201b83111715610fae57600080fd5b919390929091602081019035600160201b811115610fcb57600080fd5b820183602082011115610fdd57600080fd5b803590602001918460018302840111600160201b83111715610ffe57600080fd5b509092509050613229565b34801561101557600080fd5b5061043d6132a3565b34801561102a57600080fd5b5061043d613452565b34801561103f57600080fd5b50610401613474565b34801561105457600080fd5b5061043d6004803603604081101561106b57600080fd5b506001600160a01b03813516906020013561347a565b34801561108d57600080fd5b50610505613568565b3480156110a257600080fd5b5061115a600480360360608110156110b957600080fd5b810190602081018135600160201b8111156110d357600080fd5b8201836020820111156110e557600080fd5b803590602001918460208302840111600160201b8311171561110657600080fd5b919080806020026020016040519081016040528093929190818152602001838360200280828437600092019190915250929550506001600160a01b0383358116945060209093013590921691506135aa9050565b6040805192835260208301919091528051918290030190f35b602a60209081526000928352604080842090915290825290205481565b611198613c33565b6001600160a01b0316336001600160a01b0316146111b557600080fd5b60006111bf613c58565b90506035546000146111d057600080fd5b6037548110806111e05750603754155b6111e957600080fd5b816111f2613c5c565b146111fc57600080fd5b600054828161120757fe5b061561121257600080fd5b6000805461122790849063ffffffff613cd816565b603780549084905590915060005b60005481101561131c57600080828154811061124d57fe5b6000918252602080832090910154603954604080516316cf66ab60e01b81526004810184905290519295506001600160a01b03909116926316cf66ab92602480840193829003018186803b1580156112a457600080fd5b505afa1580156112b8573d6000803e3d6000fd5b505050506040513d60208110156112ce57600080fd5b50516000838152603160209081526040808320838052909152902054909150156112f757600080fd5b611302818287613cfa565b506000908152600b60205260409020839055600101611235565b50603755505050565b6000828152600a602090815260408083206001600160a01b0385168452825280832060355484529091529020545b92915050565b602b60209081526000928352604080842090915290825290205481565b6039546001600160a01b0316331461138d57600080fd5b606060038054806020026020016040519081016040528092919081815260200182805480156113db57602002820191906000526020600020905b8154815260200190600101908083116113c7575b50939450600093505050505b81518110156114145761140c8282815181106113ff57fe5b60200260200101516141dc565b6001016113e7565b5050565b603060209081526000938452604080852082529284528284209052825290205460ff1681565b6039546001600160a01b0316331461145557600080fd5b603755565b816001600160a01b0316836001600160a01b0316141561147957600080fd5b6039546040805163a26301f960e01b81526001600160a01b0386811660048301529151600093929092169163a26301f991602480820192602092909190829003018186803b1580156114ca57600080fd5b505afa1580156114de573d6000803e3d6000fd5b505050506040513d60208110156114f457600080fd5b50516039546040805163a26301f960e01b81526001600160a01b0387811660048301529151939450600093919092169163a26301f9916024808301926020929190829003018186803b15801561154957600080fd5b505afa15801561155d573d6000803e3d6000fd5b505050506040513d602081101561157357600080fd5b50519050336115838682866142c8565b61158e858286613cfa565b603554604080516001600160a01b03898116825260208201889052818301879052606082018690529151828516928916917f982f87186288986ca297b6c86b6d4547934327c6e005ce210da6b0cdc06a370d919081900360800190a4505050505050565b603260209081526000928352604080842090915290825290205481565b60386020526000908152604090205481565b611629613c33565b6001600160a01b0316336001600160a01b03161461164657600080fd5b61164e611800565b61165757600080fd5b602555565b6053546001600160a01b031681565b6001600160a01b0383166000908152600860205260409020606090826116df578054604080516020808402820181019092528281529183918301828280156116d257602002820191906000526020600020905b8154815260200190600101908083116116be575b5050505050915050611779565b80546000906116f4908663ffffffff61453a16565b90508084116117035783611705565b805b60405190808252806020026020018201604052801561172e578160200160208202803883390190505b50925060005b835181101561177557828187018154811061174b57fe5b906000526020600020015484828151811061176257fe5b6020908102919091010152600101611734565b5050505b9392505050565b6039546001600160a01b0316331461179757600080fd5b806117a157600080fd5b6000818152603160209081526040808320838052909152902054156117d7576117c98161454f565b6117d28161460b565b6117e0565b6117e0816146c4565b50565b603360209081526000928352604080842090915290825290205481565b6039546001600160a01b031615155b90565b3a61181c57600080fd5b611824611800565b61182d57600080fd5b6039546040805163a26301f960e01b81526001600160a01b03848116600483015291513393600093169163a26301f9916024808301926020929190829003018186803b15801561187c57600080fd5b505afa158015611890573d6000803e3d6000fd5b505050506040513d60208110156118a657600080fd5b505190506001600160a01b0383166118bd57600080fd5b6001600160a01b0382166118d057600080fd5b806118da57600080fd5b6000836001600160a01b0316836001600160a01b031614156118fd5760006118ff565b825b9050600080846001600160a01b0316866001600160a01b0316146119715760008481526032602090815260408083206001600160a01b038916845290915290205491508161194c57600080fd5b5060008381526033602090815260408083206001600160a01b03881684529091529020545b60395460408051632b5aa5d760e11b815290516000926001600160a01b0316916356b54bae916004808301926020929190829003018186803b1580156119b657600080fd5b505afa1580156119ca573d6000803e3d6000fd5b505050506040513d60208110156119e057600080fd5b505190506119ec615708565b50604080518082019091526000808252602082018190528951611ad957826001600160a01b031663e7f6cfe2886040518263ffffffff1660e01b81526004018082815260200191505060006040518083038186803b158015611a4d57600080fd5b505afa158015611a61573d6000803e3d6000fd5b505050506040513d6000823e601f3d908101601f191682016040526020811015611a8a57600080fd5b810190808051600160201b811115611aa157600080fd5b82016020810184811115611ab457600080fd5b81518560208202830111600160201b82111715611ad057600080fd5b50909d50505050505b60005b8a51811015611df25760008b8281518110611af357fe5b602002602001015190508160001480611b2157508b6001830381518110611b1657fe5b602002602001015181115b611b2a57600080fd5b6035548110611b3857600080fd5b60008981526030602090815260408083206001600160a01b038c168452825280832084845290915290205460ff1615611b715750611dea565b611b79615708565b8a6001600160a01b03168c6001600160a01b031614611c655787821015611ba1575050611dea565b818711158015611bb057508615155b15611bbc575050611df2565b611bc98289868d8f61474d565b9350816001019750856001600160a01b031663877ffdea85848d6040518463ffffffff1660e01b8152600401808481526020018381526020018281526020019350505050604080518083038186803b158015611c2457600080fd5b505afa158015611c38573d6000803e3d6000fd5b505050506040513d6040811015611c4e57600080fd5b508051602091820151918301919091528152611cec565b60408051631289b17960e01b815260048101849052602481018c905281516001600160a01b03891692631289b1799260448082019391829003018186803b158015611caf57600080fd5b505afa158015611cc3573d6000803e3d6000fd5b505050506040513d6040811015611cd957600080fd5b5080516020918201519183019190915281525b80518551611cff9163ffffffff6147bf16565b855260208082015190860151611d1a9163ffffffff6147bf16565b8560200181815250506001603060008c815260200190815260200160002060008b6001600160a01b03166001600160a01b03168152602001908152602001600020600084815260200190815260200160002060006101000a81548160ff021916908315150217905550818b6001600160a01b03168d6001600160a01b03167f6d8e1b032c4629c85b1e460dedd0e2d7c5eb72880982d3e495f0f892b7f64406846000015185602001518f60405180848152602001838152602001828152602001935050505060405180910390a450505b600101611adc565b50826001600160a01b03166370cafd65836000015184602001518b6040518463ffffffff1660e01b815260040180848152602001838152602001826001600160a01b03166001600160a01b031681526020019350505050600060405180830381600087803b158015611e6357600080fd5b505af1158015611e77573d6000803e3d6000fd5b5050505050505050505050505050565b603160209081526000928352604080842090915290825290205481565b60286020526000908152604090205481565b611ebe613c33565b6001600160a01b0316336001600160a01b031614611edb57600080fd5b611ee3611800565b611eec57600080fd5b602455565b611ef9613c33565b6001600160a01b0316336001600160a01b031614611f1657600080fd5b6001600160a01b038116611f2957600080fd5b6039546040805163a26301f960e01b815273eb43574e8f4fddf11fbaf65a8632ca92262a1266600482018190529151919269043c33c193756480000092849283926001600160a01b03169163a26301f991602480820192602092909190829003018186803b158015611f9a57600080fd5b505afa158015611fae573d6000803e3d6000fd5b505050506040513d6020811015611fc457600080fd5b505114611fd057600080fd5b6000838152600b6020526040812055611fea8180846142c8565b611ff484836147d1565b603554604080518481526020810186905281516001600160a01b0385169283927f5c5eecdba4673a19126d31c4ea006153eec8120d460905a4643cacd174da8722929081900390910190a450505050565b6000818152600660209081526040918290208054835181840281018401909452808452606093928301828280156120a557602002820191906000526020600020905b81546001600160a01b03168152600190910190602001808311612087575b50505050509050919050565b6120b9613c33565b6001600160a01b0316336001600160a01b0316146120d657600080fd5b6120de611800565b6120e757600080fd5b6001600160a01b0381166120fa57600080fd5b6053546001600160a01b03161561211057600080fd5b605380546001600160a01b0319166001600160a01b038316179055612133613c5c565b156117e057600080fd5b60245481565b6060600080548060200260200160405190810160405280929190818152602001828054801561219157602002820191906000526020600020905b81548152602001906001019080831161217d575b5050505050905090565b6039546040805163a26301f960e01b81526001600160a01b03858116600483015291516000938493169163a26301f9916024808301926020929190829003018186803b1580156121ea57600080fd5b505afa1580156121fe573d6000803e3d6000fd5b505050506040513d602081101561221457600080fd5b5051905060006001600160a01b038481169086161415612235576000612237565b835b90506001600160a01b038581169085161415612253838261488c565b6122635760009350505050611353565b60008381526031602090815260408083206001600160a01b0386168452909152902054816122ae576000848152600b60205260409020546122ab90829063ffffffff61453a16565b90505b60395460408051635245821560e11b81526004810187905290516001600160a01b039092169163a48b042a91602480820192602092909190829003018186803b1580156122fa57600080fd5b505afa15801561230e573d6000803e3d6000fd5b505050506040513d602081101561232457600080fd5b505161233557935061135392505050565b60006123418585611325565b90508082111561234f578091505b509695505050505050565b602660209081526000938452604080852082529284528284209052825290205481565b602c6020526000908152604090205481565b60375481565b603a5481565b60355481565b6001600160a01b031660009081526008602052604090205490565b60375460009080156123cf5760016123d2565b60005b60ff1660365482010391505090565b6039546001600160a01b031633146123f857600080fd5b6004546002541461240857600080fd5b6000818152600b60205260408120556117e0816148c2565b6039546040805163a26301f960e01b81526001600160a01b03858116600483015291516000938493169163a26301f9916024808301926020929190829003018186803b15801561246f57600080fd5b505afa158015612483573d6000803e3d6000fd5b505050506040513d602081101561249957600080fd5b505190506001600160a01b0384811690841614156000816124bb5760006124bd565b845b90506124c9838361488c565b6124d95760009350505050611353565b60395460408051635245821560e11b81526004810186905290516001600160a01b039092169163a48b042a91602480820192602092909190829003018186803b15801561252557600080fd5b505afa158015612539573d6000803e3d6000fd5b505050506040513d602081101561254f57600080fd5b50516125615760009350505050611353565b60008381526031602090815260408083206001600160a01b0385168452909152902054826125ac576000848152600b60205260409020546125a990829063ffffffff61453a16565b90505b6125c66125b98584611325565b829063ffffffff61453a16565b979650505050505050565b6060600060046005548180548060200260200160405190810160405280929190818152602001828054801561262557602002820191906000526020600020905b815481526020019060010190808311612611575b50505050509150915091509091565b60345481565b602e6020526000908152604090205481565b6000818152600760209081526040918290208054835181840281018401909452808452606093928301828280156120a5576020028201919060005260206000209081546001600160a01b031681526001909101906020018083116120875750505050509050919050565b6039546001600160a01b031633146126cd57600080fd5b6117e0816141dc565b60006126e0611800565b6126e957600080fd5b6053546001600160a01b0316331461270057600080fd5b601482101561270e57600080fd5b600080606085858080601f01602080910402602001604051908101604052809392919081815260200183838082843760009201919091525050506020820151606081901c955060581c60ff1615801594509192506128239050576000806060602084015160ff8160501c16935050826040519080825280601f01601f1916602001820160405280156127a7576020820181803883390190505b50905082609a60208301378351609a84013560f01c92508190838501601801146127d057600080fd5b826040519080825280601f01601f1916602001820160405280156127fb576020820181803883390190505b5091508284609c016020840137816128188c8e8a60018686614a0e565b50505050505061282e565b61282e838989613cfa565b506001979650505050505050565b60606002805480602002602001604051908101604052809291908181526020018280548015612191576020028201919060005260206000209081548152602001906001019080831161217d575050505050905090565b6114148282614be1565b603b546001600160a01b031681565b3a6128b557600080fd5b6128bd611800565b6128c657600080fd5b6039546040805163a26301f960e01b81526001600160a01b0385811660048301529151600093929092169163a26301f991602480820192602092909190829003018186803b15801561291757600080fd5b505afa15801561292b573d6000803e3d6000fd5b505050506040513d602081101561294157600080fd5b505190506001600160a01b03831661295857600080fd5b8161296257600080fd5b8061296c57600080fd5b3360006001600160a01b038516821415612987576000612989565b815b90506129a0836001600160a01b038316151561488c565b6129a957600080fd5b60008381526027602090815260408083206001600160a01b0385168085529083528184205487855260288452828520546031855283862092865291845282852054888652603890945291842054919390929190881315612a8f5787612a0e8a88612420565b811115612a1a57600080fd5b612a2a858263ffffffff6147bf16565b9450612a3c848263ffffffff6147bf16565b9350612a4e838263ffffffff61453a16565b9250612a60828263ffffffff61453a16565b60355460008a81526029602090815260408083206001600160a01b038c1684529091529020559150612ade9050565b6000889003612aa4858263ffffffff61453a16565b9450612ab6848263ffffffff61453a16565b9350612ac8838263ffffffff6147bf16565b9250612ada828263ffffffff6147bf16565b9150505b60008781526027602090815260408083206001600160a01b03808a168086529184528285208990558b855260288452828520889055603184528285209185529083528184208690558a84526038909252909120829055868116908a161415612c24576000878152600b6020526040902054821015612b5b57600080fd5b811580612b6a57506024548210155b612b7357600080fd5b6039546040805163738bef1d60e11b8152600481018a905290516000926001600160a01b03169163e717de3a916024808301926020929190829003018186803b158015612bbf57600080fd5b505afa158015612bd3573d6000803e3d6000fd5b505050506040513d6020811015612be957600080fd5b50511590506000891315612c145782612c0f5780612c0657600080fd5b612c0f886146c4565b612c1e565b612c1e8882614c7f565b50612c6d565b811580612c3357506025548210155b612c3c57600080fd5b6000881315612c595781612c5457612c548787614cfb565b612c63565b612c638787614e4a565b612c6d8787614f07565b612c768761460b565b603554866001600160a01b03168a6001600160a01b03167f89b66c7c015442886e0ce3c9c8137443ebbe1b1766f6b3a942dde6c3bb82517d8b8b604051808381526020018281526020019250505060405180910390a4505050505050505050565b6000818152602d602052604081205481548110801561177957508260008281548110612cff57fe5b9060005260206000200154149392505050565b602f6020526000908152604090205481565b6001600160a01b038916612d3757600080fd5b85612d4157600080fd5b84612d4b57600080fd5b83612d5557600080fd5b82612d5f57600080fd5b808311612d6b57600080fd5b80612d7557600080fd5b612d7d613c58565b1580612da15750612d8c613c33565b6001600160a01b0316336001600160a01b0316145b612daa57600080fd5b612db2611800565b15612dbc57600080fd5b603980546001600160a01b03808c166001600160a01b031992831617909255603b8054928b169290911691909117905560005b86811015612edf57878782818110612e0357fe5b9050602002013560001415612e1757600080fd5b612e34888883818110612e2657fe5b905060200201356000614c7f565b6039546001600160a01b031663e717de3a898984818110612e5157fe5b905060200201356040518263ffffffff1660e01b81526004018082815260200191505060206040518083038186803b158015612e8c57600080fd5b505afa158015612ea0573d6000803e3d6000fd5b505050506040513d6020811015612eb657600080fd5b5051612ed757612ed7888883818110612ecb57fe5b905060200201356146c4565b600101612def565b5060258590556024849055603683905560378290556034819055612f01613c58565b603a55505050505050505050565b602d6020526000908152604090205481565b6039546040805163a26301f960e01b81526001600160a01b0384811660048301529151600093929092169163a26301f991602480820192602092909190829003018186803b158015612f7257600080fd5b505afa158015612f86573d6000803e3d6000fd5b505050506040513d6020811015612f9c57600080fd5b5051905080612faa57600080fd5b3360006001600160a01b038416821415612fc5576000612fc7565b815b60008481526029602090815260408083206001600160a01b038516845290915290205460355491925010612ffa57600080fd5b61300f836001600160a01b0383161515614fea565b1561301957600080fd5b60008381526027602090815260408083206001600160a01b03851684529091529020548061304657600080fd5b60008481526027602090815260408083206001600160a01b038616845282528083208390558683526028909152902054613086908263ffffffff61453a16565b600085815260286020908152604080832093909355603181528282206001600160a01b0386168352905220546130c1576130c18486856151a5565b6130cb83826147d1565b603554836001600160a01b0316866001600160a01b03167f3b1f0416a322c81d02b7eb108c29b8c9cf15503da84e83c389c529625b10389e8488604051808381526020018281526020019250505060405180910390a45050505050565b60606003805480602002602001604051908101604052809291908181526020018280548015612191576020028201919060005260206000209081548152602001906001019080831161217d575050505050905090565b602960209081526000928352604080842090915290825290205481565b60365481565b60255481565b60606001805480602002602001604051908101604052809291908181526020018280548015612191576020028201919060005260206000209081548152602001906001019080831161217d575050505050905090565b6039546001600160a01b031681565b602760209081526000928352604080842090915290825290205481565b60006125c6873388600089898080601f01602080910402602001604051908101604052809392919081815260200183838082843760009201919091525050604080516020601f8d018190048102820181019092528b815292508b91508a9081908401838280828437600092019190915250614a0e92505050565b3a6132ad57600080fd5b6132b5611800565b6132be57600080fd5b6039546040805163a26301f960e01b815233600482015290516000926001600160a01b03169163a26301f9916024808301926020929190829003018186803b15801561330957600080fd5b505afa15801561331d573d6000803e3d6000fd5b505050506040513d602081101561333357600080fd5b505190508061334157600080fd5b600060355411806133c7575060395460408051639b4a14bf60e01b81526004810184905290516001600160a01b0390921691639b4a14bf91602480820192602092909190829003018186803b15801561339957600080fd5b505afa1580156133ad573d6000803e3d6000fd5b505050506040513d60208110156133c357600080fd5b5051155b6133d057600080fd5b6039546040805163738bef1d60e11b81526004810184905290516001600160a01b039092169163e717de3a91602480820192602092909190829003018186803b15801561341c57600080fd5b505afa158015613430573d6000803e3d6000fd5b505050506040513d602081101561344657600080fd5b5051156126cd57600080fd5b6039546001600160a01b0316331461346957600080fd5b603580546001019055565b610bb881565b6039546040805163a26301f960e01b81526001600160a01b03858116600483015291513393600093169163a26301f9916024808301926020929190829003018186803b1580156134c957600080fd5b505afa1580156134dd573d6000803e3d6000fd5b505050506040513d60208110156134f357600080fd5b505190506135028483856142c8565b61350c82846147d1565b603554826001600160a01b0316856001600160a01b03167f5c5eecdba4673a19126d31c4ea006153eec8120d460905a4643cacd174da87228685604051808381526020018281526020019250505060405180910390a450505050565b600080613573613c58565b905060375481101561358957600091505061180f565b6034546036546037549190039061359e576001015b60375490910310905090565b6039546040805163a26301f960e01b81526001600160a01b03858116600483015291516000938493849391169163a26301f991602480820192602092909190829003018186803b1580156135fd57600080fd5b505afa158015613611573d6000803e3d6000fd5b505050506040513d602081101561362757600080fd5b505190506001600160a01b03851661363e57600080fd5b6001600160a01b03841661365157600080fd5b8061365b57600080fd5b6000856001600160a01b0316856001600160a01b0316141561367e576000613680565b845b604080516002808252606080830184529394509091602083019080388339019050509050856001600160a01b0316876001600160a01b0316146137595760008381526032602090815260408083206001600160a01b038a1684529091528120548251909183916136ec57fe5b6020026020010181815250508060008151811061370557fe5b60200260200101516000141561371a57600080fd5b60008381526033602090815260408083206001600160a01b038a16845290915290205481518290600190811061374c57fe5b6020026020010181815250505b60395460408051632b5aa5d760e11b815290516000926001600160a01b0316916356b54bae916004808301926020929190829003018186803b15801561379e57600080fd5b505afa1580156137b2573d6000803e3d6000fd5b505050506040513d60208110156137c857600080fd5b505190506137d4615708565b50604080518082019091526000808252602082018190528a516138c157826001600160a01b031663e7f6cfe2876040518263ffffffff1660e01b81526004018082815260200191505060006040518083038186803b15801561383557600080fd5b505afa158015613849573d6000803e3d6000fd5b505050506040513d6000823e601f3d908101601f19168201604052602081101561387257600080fd5b810190808051600160201b81111561388957600080fd5b8201602081018481111561389c57600080fd5b81518560208202830111600160201b821117156138b857600080fd5b50909e50505050505b60005b8b51811015613c195780158061390257508b60018203815181106138e457fe5b60200260200101518c82815181106138f857fe5b6020026020010151115b61390b57600080fd5b6035548c828151811061391a57fe5b60200260200101511061392c57600080fd5b60008781526030602090815260408083206001600160a01b038a16845290915281208d519091908e908490811061395f57fe5b60209081029190910181015182528101919091526040016000205460ff161561398757613c11565b61398f615708565b8a6001600160a01b03168c6001600160a01b031614613b4157856000815181106139b557fe5b60200260200101518d83815181106139c957fe5b602002602001015110156139dd5750613c11565b8c82815181106139e957fe5b6020026020010151866001815181106139fe57fe5b602002602001015111158015613a29575085600181518110613a1c57fe5b6020026020010151600014155b15613a345750613c19565b613a688d8381518110613a4357fe5b602002602001015187600081518110613a5857fe5b6020026020010151858b8f61474d565b92508c8281518110613a7657fe5b602002602001015160010186600081518110613a8e57fe5b602002602001018181525050846001600160a01b031663877ffdea848f8581518110613ab657fe5b60200260200101518b6040518463ffffffff1660e01b8152600401808481526020018381526020018281526020019350505050604080518083038186803b158015613b0057600080fd5b505afa158015613b14573d6000803e3d6000fd5b505050506040513d6040811015613b2a57600080fd5b508051602091820151918301919091528152613bdc565b846001600160a01b0316631289b1798e8481518110613b5c57fe5b60200260200101518a6040518363ffffffff1660e01b81526004018083815260200182815260200192505050604080518083038186803b158015613b9f57600080fd5b505afa158015613bb3573d6000803e3d6000fd5b505050506040513d6040811015613bc957600080fd5b5080516020918201519183019190915281525b80518451613bef9163ffffffff6147bf16565b845260208082015190850151613c0a9163ffffffff6147bf16565b6020850152505b6001016138c4565b50508051602090910151909a909950975050505050505050565b7fb53127684a568b3173ae13b9f8a6016e243e63b6e8ee1178d6a717850b5d61035490565b4390565b605354604080516370a0823160e01b815230600482015290516000926001600160a01b0316916370a08231916024808301926020929190829003018186803b158015613ca757600080fd5b505afa158015613cbb573d6000803e3d6000fd5b505050506040513d6020811015613cd157600080fd5b5051905090565b6000808211613ce657600080fd5b6000828481613cf157fe5b04949350505050565b3a613d0457600080fd5b613d0c611800565b613d1557600080fd5b6039546040805163a26301f960e01b81526001600160a01b0386811660048301529151600093929092169163a26301f991602480820192602092909190829003018186803b158015613d6657600080fd5b505afa158015613d7a573d6000803e3d6000fd5b505050506040513d6020811015613d9057600080fd5b505190506001600160a01b038416613da757600080fd5b80613db157600080fd5b81613dbb57600080fd5b60395460408051632682240f60e11b81526004810184905290516001600160a01b0390921691634d04481e91602480820192602092909190829003018186803b158015613e0757600080fd5b505afa158015613e1b573d6000803e3d6000fd5b505050506040513d6020811015613e3157600080fd5b505115613e3d57600080fd5b613e45613568565b613e4e57600080fd5b6000846001600160a01b0316846001600160a01b03161415613e71576000613e73565b835b60008381526031602090815260408083206001600160a01b038516845290915281205491925090613eaa908563ffffffff6147bf16565b9050856001600160a01b0316856001600160a01b03161415613eda57602454811015613ed557600080fd5b613f0c565b602554811015613ee957600080fd5b6000838152603160209081526040808320838052909152902054613f0c57600080fd5b60008381526031602090815260408083206001600160a01b03861684529091529020819055613f4b84613f3f8585611325565b9063ffffffff6147bf16565b6000848152600a602090815260408083206001600160a01b038716845282528083206035548452825280832093909355858252603890522054613f94908563ffffffff6147bf16565b6000848152603860205260409020556001600160a01b038581169087161415614040576039546040805163738bef1d60e11b815260048101869052905161403b9286926001600160a01b039091169163e717de3a91602480820192602092909190829003018186803b15801561400957600080fd5b505afa15801561401d573d6000803e3d6000fd5b505050506040513d602081101561403357600080fd5b505115614c7f565b614175565b61404a8386614e4a565b6140548386614f07565b6001600160a01b038516600090815260086020908152604080832080546009845282852088865290935290832054909282821015806140a957508684838154811061409b57fe5b906000526020600020015414155b905080156140e8576001600160a01b03891660009081526009602090815260408083208a84528252822085905585546001810187558683529120018790555b8261417057603954604080516341a32dc160e11b81526001600160a01b038c81166004830152915191909216916383465b82916024808301926020929190829003018186803b15801561413a57600080fd5b505afa15801561414e573d6000803e3d6000fd5b505050506040513d602081101561416457600080fd5b50511561417057600080fd5b505050505b61417e8361460b565b603554856001600160a01b0316876001600160a01b03167f1111552b4d689ce73a2a7356e066e28215e6d61a2294e89ac9e02a933ebb0d508787604051808381526020018281526020019250505060405180910390a4505050505050565b6000818152602d60205260408120549054811080156142115750816000828154811061420457fe5b9060005260206000200154145b1561428257600080548190600019810190811061422a57fe5b90600052602060002001549050806000838154811061424557fe5b6000918252602080832090910192909255828152602d9091526040808220849055848252812081905580549061427f906000198301615722565b50505b61428b826152f5565b1561429e5761429982615320565b6142a7565b6142a7826153c6565b6142b0826148c2565b6142b982615449565b6142c1613c58565b603a555050565b3a6142d257600080fd5b6142da611800565b6142e357600080fd5b6039546040805163a26301f960e01b81526001600160a01b0386811660048301529151600093929092169163a26301f991602480820192602092909190829003018186803b15801561433457600080fd5b505afa158015614348573d6000803e3d6000fd5b505050506040513d602081101561435e57600080fd5b505190506001600160a01b03841661437557600080fd5b8161437f57600080fd5b8061438957600080fd5b614393848461219b565b82111561439f57600080fd5b6000846001600160a01b0316846001600160a01b031614156143c25760006143c4565b835b60008381526031602090815260408083206001600160a01b0385168452909152812054919250906143fb908563ffffffff61453a16565b90506000856001600160a01b0316876001600160a01b0316141561443d576000848152600b602052604090205482101561443457600080fd5b50602454614442565b506025545b81158061444f5750808210155b61445857600080fd5b60008481526031602090815260408083206001600160a01b038716845290915281208390556144878585611325565b90508581101561449857600061449c565b8581035b6000868152600a602090815260408083206001600160a01b0389168452825280832060355484528252808320939093558782526038905220546144e5908763ffffffff61453a16565b60008681526038602052604090205582614504576145048589896151a5565b876001600160a01b0316876001600160a01b031614614527576145278588614f07565b6145308561460b565b5050505050505050565b60008282111561454957600080fd5b50900390565b6000818152602e602052604090205460025480821015806145875750826002838154811061457957fe5b906000526020600020015414155b156145fd576000838152602e602052604081208290556002805460018181019092557f405787fa12a823e0f2b7631cc41b3ba8828b3321ca811111fa75cd3aa3bb5ace0185905560048054918201815582527f8a35acfbc15ff81a39ae7d344fd709f28e8600b4aa8c65c6b64bfe7fe36bd19b01555b61460683615449565b505050565b614613613c58565b603a55600080614622836154ef565b91509150816146325750506117e0565b60006004828154811061464157fe5b90600052602060002001549050600060386000868152602001908152602001600020549050806004848154811061467457fe5b6000918252602090912001558181106146a45760055461469c9083830363ffffffff6147bf16565b6005556146bd565b6005546146b99082840363ffffffff61453a16565b6005555b5050505050565b6000818152602f602052604090205460035480821015806146fc575082600383815481106146ee57fe5b906000526020600020015414155b15614744576000838152602f602052604081208290556003805460018101825591527fc2575a0e9e593c00f959f8c92f12db2869c3395a3b0502d05e2516446f71f85b018390555b614606836148c2565b60005b5060008281526026602090815260408083206001600160a01b03851684528252808320888452909152902054801561479b5760001981146147915780614794565b60005b90506147b6565b848614156147aa5750826147b6565b60001990950194614750565b95945050505050565b60008282018381101561177957600080fd5b3a6147db57600080fd5b6147e3611800565b6147ec57600080fd5b6053546001600160a01b031661480157600080fd5b6053546040805163a9059cbb60e01b81526001600160a01b038581166004830152602482018590529151919092169163a9059cbb9160448083019260209291908290030181600087803b15801561485757600080fd5b505af115801561486b573d6000803e3d6000fd5b505050506040513d602081101561488157600080fd5b50516142b957600080fd5b60006148988383614fea565b156148a557506000611353565b6148ad613568565b6148b957506000611353565b50600192915050565b600454600254146148d2576117e0565b6000818152602e602052604090205460025481108015614908575081600282815481106148fb57fe5b9060005260206000200154145b15611414576004818154811061491a57fe5b906000526020600020015460055410614955576004818154811061493a57fe5b6000918252602090912001546005805491909103905561495b565b60006005555b600280546000198101916000918390811061497257fe5b90600052602060002001549050806002848154811061498d57fe5b9060005260206000200181905550600482815481106149a857fe5b9060005260206000200154600484815481106149c057fe5b6000918252602080832090910192909255828152602e909152604080822085905585825281205560028054906149fa906000198301615722565b5060048054906146bd906000198301615722565b60395460405163374dc77d60e01b81526001600160a01b03868116600483019081528882166024840152608060448401908152865160848501528651600095869594169363374dc77d938b938d938b938b939291606482019160a4019060208701908083838f5b83811015614a8d578181015183820152602001614a75565b50505050905090810190601f168015614aba5780820380516001836020036101000a031916815260200191505b50838103825284518152845160209182019186019080838360005b83811015614aed578181015183820152602001614ad5565b50505050905090810190601f168015614b1a5780820380516001836020036101000a031916815260200191505b509650505050505050602060405180830381600087803b158015614b3d57600080fd5b505af1158015614b51573d6000803e3d6000fd5b505050506040513d6020811015614b6757600080fd5b505190508415614b8157614b7c87888a613cfa565b614b8b565b614b8b8789614be1565b856001600160a01b0316876001600160a01b03167f7342ad45e4a4592daa7f7e40b50c1c2ce42aa21da0242065e849a8509de7ba7e836040518082815260200191505060405180910390a3979650505050505050565b33614bed838284613cfa565b3415614bf857600080fd5b6053546001600160a01b0316614c0d57600080fd5b605354604080516356e4bb9760e11b81526001600160a01b038481166004830152602482018690529151919092169163adc9772e91604480830192600092919082900301818387803b158015614c6257600080fd5b505af1158015614c76573d6000803e3d6000fd5b50505050505050565b614c8882612cd7565b614ce35760008054838252602d602052604082208190556001810182559080527f290decd9548b62a8d60345a988386fc84ba6bc95484008f6362f93160ef3e56301829055614cd561553f565b6000541115614ce357600080fd5b614cec82615320565b8015611414576114148261454f565b6000828152600660209081526040808320602a83528184206001600160a01b038616855290925290912054815481108015614d5e5750826001600160a01b0316828281548110614d4757fe5b6000918252602090912001546001600160a01b0316145b15614e0357815460009083906000198101908110614d7857fe5b9060005260206000200160009054906101000a90046001600160a01b0316905080838381548110614da557fe5b600091825260208083209190910180546001600160a01b0319166001600160a01b03948516179055878252602a8152604080832085851684529091528082208590559186168152908120558254614e00846000198301615722565b50505b60008481526027602090815260408083206001600160a01b038716845290915290205415614e3a57614e358484615545565b614e44565b614e4484846155fb565b50505050565b6000828152600660209081526040808320602a83528184206001600160a01b03861685529092529091205481548082101580614eaf5750836001600160a01b0316838381548110614e9757fe5b6000918252602090912001546001600160a01b031614155b15614efd576000858152602a602090815260408083206001600160a01b0388168085529083529083208490558554600181018755868452919092200180546001600160a01b03191690911790555b6146bd85856155fb565b60355460008381526031602090815260408083206001600160a01b038616845290915290205460019091019080614f4057600019614f42565b805b60008581526026602090815260408083206001600160a01b038816808552908352818420878552835281842094909455878352603282528083209383529290522054614fae5760008481526032602090815260408083206001600160a01b038716845290915290208290555b8015614fbb576000614fbd565b815b60009485526033602090815260408087206001600160a01b03909616875294905292909320919091555050565b6000811561507c57603954604080516352700f5560e11b81526004810186905290516001600160a01b039092169163a4e01eaa91602480820192602092909190829003018186803b15801561503e57600080fd5b505afa158015615052573d6000803e3d6000fd5b505050506040513d602081101561506857600080fd5b50511561507757506001611353565b61519c565b60395460408051632682240f60e11b81526004810186905290516001600160a01b0390921691634d04481e91602480820192602092909190829003018186803b1580156150c857600080fd5b505afa1580156150dc573d6000803e3d6000fd5b505050506040513d60208110156150f257600080fd5b50511561510157506001611353565b603b546001600160a01b03161580159061518f5750603b546040805163cd2ecdf360e01b81526004810186905290516001600160a01b039092169163cd2ecdf391602480820192602092909190829003018186803b15801561516257600080fd5b505afa158015615176573d6000803e3d6000fd5b505050506040513d602081101561518c57600080fd5b50515b1561519c57506001611353565b50600092915050565b816001600160a01b0316816001600160a01b031614156152d4576039546040805163738bef1d60e11b81526004810186905290516001600160a01b039092169163e717de3a91602480820192602092909190829003018186803b15801561520b57600080fd5b505afa15801561521f573d6000803e3d6000fd5b505050506040513d602081101561523557600080fd5b50516152cf5760395460408051639b4a14bf60e01b81526004810186905290516001600160a01b0390921691639b4a14bf91602480820192602092909190829003018186803b15801561528757600080fd5b505afa15801561529b573d6000803e3d6000fd5b505050506040513d60208110156152b157600080fd5b5051156152c6576152c1836146c4565b6152cf565b6152cf836141dc565b614606565b6152de8382614cfb565b6152e7836152f5565b156146065761460683615320565b6000818152603860205260408120541580156113535750506000908152602860205260409020541590565b6000818152602c6020526040902054600154811080156153565750816001828154811061534957fe5b9060005260206000200154145b15611414576001805460009190600019810190811061537157fe5b90600052602060002001549050806001838154811061538c57fe5b6000918252602080832090910192909255828152602c90915260408082208490558482528120556001805490614e44906000198301615722565b6000818152602c602052604090205460015480821015806153fe575082600183815481106153f057fe5b906000526020600020015414155b15614606576000838152602c6020526040812082905560018054808201825591527fb10e2d527612073b26eecdfd717e6a320cf44b4afac2b0732d9fcbe2b7fa0cf601839055505050565b6000818152602f60205260409020546003548110801561547f5750816003828154811061547257fe5b9060005260206000200154145b15611414576003805460009190600019810190811061549a57fe5b9060005260206000200154905080600383815481106154b557fe5b6000918252602080832090910192909255828152602f90915260408082208490558482528120556003805490614e44906000198301615722565b6000818152602e6020526040812054600254811080156155255750826002828154811061551857fe5b9060005260206000200154145b15615533576001915061553a565b5060009050805b915091565b610bb890565b6000828152600760209081526040808320602b83528184206001600160a01b038616855290925290912054815480821015806155aa5750836001600160a01b031683838154811061559257fe5b6000918252602090912001546001600160a01b031614155b156146bd576000948552602b602090815260408087206001600160a01b039690961680885295825286209190915582546001810184559285529093200180546001600160a01b031916909117905550565b6000828152600760209081526040808320602b83528184206001600160a01b03861685529092529091205481548110801561565e5750826001600160a01b031682828154811061564757fe5b6000918252602090912001546001600160a01b0316145b15614e445781546000908390600019810190811061567857fe5b9060005260206000200160009054906101000a90046001600160a01b03169050808383815481106156a557fe5b600091825260208083209190910180546001600160a01b0319166001600160a01b03948516179055878252602b8152604080832085851684529091528082208590559186168152908120558254615700846000198301615722565b505050505050565b604051806040016040528060008152602001600081525090565b8154818355818111156146065760008381526020902061460691810190830161180f91905b8082111561575b5760008155600101615747565b509056fea265627a7a72305820943a12697dc59862227bf56010af2f10da25e1936e62eca581afc6567a6c06ac64736f6c634300050a0032",
  "linkReferences": {},
  "deployedLinkReferences": {}
}