{
  "_format": "hh-sol-artifact-1",
  "contractName": "GovernanceMock",
  "sourceName": "posdao-contracts/contracts/mock/GovernanceMock.sol",
  "abi": [
    {
      "constant": false,
      "inputs": [
        {
          "name": "_ballotId",
          "type": "uint256"
        }
      ],
      "name": "finalize",
      "outputs": [],
      "payable": false,
      "stateMutability": "nonpayable",
      "type": "function"
    },
    {
      "constant": true,
      "inputs": [
        {
          "name": "",
          "type": "uint256"
        },
        {
          "name": "",
          "type": "uint256"
        }
      ],
      "name": "ballotPoolVoted",
      "outputs": [
        {
          "name": "",
          "type": "uint256"
        }
      ],
      "payable": false,
      "stateMutability": "view",
      "type": "function"
    },
    {
      "constant": false,
      "inputs": [
        {
          "name": "_poolId",
          "type": "uint256"
        },
        {
          "name": "_duration",
          "type": "uint256"
        },
        {
          "name": "_reason",
          "type": "bytes32"
        },
        {
          "name": "_choice",
          "type": "uint256"
        }
      ],
      "name": "create",
      "outputs": [],
      "payable": false,
      "stateMutability": "nonpayable",
      "type": "function"
    },
    {
      "constant": true,
      "inputs": [
        {
          "name": "",
          "type": "uint256"
        }
      ],
      "name": "ballotIdByPoolId",
      "outputs": [
        {
          "name": "",
          "type": "uint256"
        }
      ],
      "payable": false,
      "stateMutability": "view",
      "type": "function"
    },
    {
      "constant": true,
      "inputs": [
        {
          "name": "",
          "type": "uint256"
        }
      ],
      "name": "ballotCreator",
      "outputs": [
        {
          "name": "",
          "type": "uint256"
        }
      ],
      "payable": false,
      "stateMutability": "view",
      "type": "function"
    },
    {
      "constant": true,
      "inputs": [
        {
          "name": "",
          "type": "uint256"
        }
      ],
      "name": "ballotVotesBan",
      "outputs": [
        {
          "name": "",
          "type": "uint256"
        }
      ],
      "payable": false,
      "stateMutability": "view",
      "type": "function"
    },
    {
      "constant": true,
      "inputs": [
        {
          "name": "",
          "type": "uint256"
        }
      ],
      "name": "ballotReason",
      "outputs": [
        {
          "name": "",
          "type": "bytes32"
        }
      ],
      "payable": false,
      "stateMutability": "view",
      "type": "function"
    },
    {
      "constant": true,
      "inputs": [
        {
          "name": "",
          "type": "uint256"
        }
      ],
      "name": "ballotPoolId",
      "outputs": [
        {
          "name": "",
          "type": "uint256"
        }
      ],
      "payable": false,
      "stateMutability": "view",
      "type": "function"
    },
    {
      "constant": false,
      "inputs": [
        {
          "name": "_ballotId",
          "type": "uint256"
        }
      ],
      "name": "cancel",
      "outputs": [],
      "payable": false,
      "stateMutability": "nonpayable",
      "type": "function"
    },
    {
      "constant": true,
      "inputs": [
        {
          "name": "",
          "type": "uint256"
        }
      ],
      "name": "ballotVotesRemove",
      "outputs": [
        {
          "name": "",
          "type": "uint256"
        }
      ],
      "payable": false,
      "stateMutability": "view",
      "type": "function"
    },
    {
      "constant": true,
      "inputs": [
        {
          "name": "",
          "type": "uint256"
        }
      ],
      "name": "ballotResult",
      "outputs": [
        {
          "name": "",
          "type": "uint256"
        }
      ],
      "payable": false,
      "stateMutability": "view",
      "type": "function"
    },
    {
      "constant": false,
      "inputs": [
        {
          "name": "_blockNumber",
          "type": "uint256"
        }
      ],
      "name": "setCurrentBlockNumber",
      "outputs": [],
      "payable": false,
      "stateMutability": "nonpayable",
      "type": "function"
    },
    {
      "constant": true,
      "inputs": [],
      "name": "getCurrentBlockNumber",
      "outputs": [
        {
          "name": "",
          "type": "uint256"
        }
      ],
      "payable": false,
      "stateMutability": "view",
      "type": "function"
    },
    {
      "constant": true,
      "inputs": [
        {
          "name": "_ballotId",
          "type": "uint256"
        }
      ],
      "name": "canBeFinalized",
      "outputs": [
        {
          "name": "",
          "type": "bool"
        }
      ],
      "payable": false,
      "stateMutability": "view",
      "type": "function"
    },
    {
      "constant": true,
      "inputs": [
        {
          "name": "",
          "type": "uint256"
        }
      ],
      "name": "openCountPerPoolId",
      "outputs": [
        {
          "name": "",
          "type": "uint256"
        }
      ],
      "payable": false,
      "stateMutability": "view",
      "type": "function"
    },
    {
      "constant": true,
      "inputs": [
        {
          "name": "",
          "type": "uint256"
        }
      ],
      "name": "ballotShortBanUntilBlock",
      "outputs": [
        {
          "name": "",
          "type": "uint256"
        }
      ],
      "payable": false,
      "stateMutability": "view",
      "type": "function"
    },
    {
      "constant": true,
      "inputs": [],
      "name": "MAX_DURATION",
      "outputs": [
        {
          "name": "",
          "type": "uint256"
        }
      ],
      "payable": false,
      "stateMutability": "view",
      "type": "function"
    },
    {
      "constant": false,
      "inputs": [
        {
          "name": "_ballotId",
          "type": "uint256"
        },
        {
          "name": "_choice",
          "type": "uint256"
        }
      ],
      "name": "vote",
      "outputs": [],
      "payable": false,
      "stateMutability": "nonpayable",
      "type": "function"
    },
    {
      "constant": true,
      "inputs": [],
      "name": "MIN_DURATION",
      "outputs": [
        {
          "name": "",
          "type": "uint256"
        }
      ],
      "payable": false,
      "stateMutability": "view",
      "type": "function"
    },
    {
      "constant": true,
      "inputs": [
        {
          "name": "",
          "type": "uint256"
        }
      ],
      "name": "ballotStakingEpoch",
      "outputs": [
        {
          "name": "",
          "type": "uint256"
        }
      ],
      "payable": false,
      "stateMutability": "view",
      "type": "function"
    },
    {
      "constant": true,
      "inputs": [
        {
          "name": "",
          "type": "uint256"
        }
      ],
      "name": "ballotExpirationBlock",
      "outputs": [
        {
          "name": "",
          "type": "uint256"
        }
      ],
      "payable": false,
      "stateMutability": "view",
      "type": "function"
    },
    {
      "constant": false,
      "inputs": [
        {
          "name": "_validatorSetContract",
          "type": "address"
        }
      ],
      "name": "initialize",
      "outputs": [],
      "payable": false,
      "stateMutability": "nonpayable",
      "type": "function"
    },
    {
      "constant": true,
      "inputs": [
        {
          "name": "_poolId",
          "type": "uint256"
        }
      ],
      "name": "isValidatorUnderBallot",
      "outputs": [
        {
          "name": "",
          "type": "bool"
        }
      ],
      "payable": false,
      "stateMutability": "view",
      "type": "function"
    },
    {
      "constant": true,
      "inputs": [],
      "name": "validatorSetContract",
      "outputs": [
        {
          "name": "",
          "type": "address"
        }
      ],
      "payable": false,
      "stateMutability": "view",
      "type": "function"
    },
    {
      "constant": true,
      "inputs": [
        {
          "name": "",
          "type": "uint256"
        }
      ],
      "name": "ballotLongBanUntilBlock",
      "outputs": [
        {
          "name": "",
          "type": "uint256"
        }
      ],
      "payable": false,
      "stateMutability": "view",
      "type": "function"
    },
    {
      "constant": true,
      "inputs": [],
      "name": "latestBallotId",
      "outputs": [
        {
          "name": "",
          "type": "uint256"
        }
      ],
      "payable": false,
      "stateMutability": "view",
      "type": "function"
    },
    {
      "constant": true,
      "inputs": [
        {
          "name": "",
          "type": "uint256"
        }
      ],
      "name": "ballotVotesKeep",
      "outputs": [
        {
          "name": "",
          "type": "uint256"
        }
      ],
      "payable": false,
      "stateMutability": "view",
      "type": "function"
    },
    {
      "constant": true,
      "inputs": [
        {
          "name": "_ballotId",
          "type": "uint256"
        }
      ],
      "name": "getBallot",
      "outputs": [
        {
          "name": "_poolId",
          "type": "uint256"
        },
        {
          "name": "_creatorPoolId",
          "type": "uint256"
        },
        {
          "name": "_expirationBlock",
          "type": "uint256"
        },
        {
          "name": "_longBanUntilBlock",
          "type": "uint256"
        },
        {
          "name": "_shortBanUntilBlock",
          "type": "uint256"
        },
        {
          "name": "_reason",
          "type": "bytes32"
        },
        {
          "name": "_status",
          "type": "uint256"
        },
        {
          "name": "_result",
          "type": "uint256"
        },
        {
          "name": "_threshold",
          "type": "uint256"
        },
        {
          "name": "_keepVotesCount",
          "type": "uint256"
        },
        {
          "name": "_removeVotesCount",
          "type": "uint256"
        },
        {
          "name": "_banVotesCount",
          "type": "uint256"
        }
      ],
      "payable": false,
      "stateMutability": "view",
      "type": "function"
    },
    {
      "constant": true,
      "inputs": [
        {
          "name": "",
          "type": "uint256"
        }
      ],
      "name": "ballotThreshold",
      "outputs": [
        {
          "name": "",
          "type": "uint256"
        }
      ],
      "payable": false,
      "stateMutability": "view",
      "type": "function"
    },
    {
      "constant": true,
      "inputs": [
        {
          "name": "",
          "type": "uint256"
        }
      ],
      "name": "ballotStatus",
      "outputs": [
        {
          "name": "",
          "type": "uint256"
        }
      ],
      "payable": false,
      "stateMutability": "view",
      "type": "function"
    },
    {
      "anonymous": false,
      "inputs": [
        {
          "indexed": false,
          "name": "ballotId",
          "type": "uint256"
        }
      ],
      "name": "Created",
      "type": "event"
    },
    {
      "anonymous": false,
      "inputs": [
        {
          "indexed": false,
          "name": "ballotId",
          "type": "uint256"
        }
      ],
      "name": "Canceled",
      "type": "event"
    },
    {
      "anonymous": false,
      "inputs": [
        {
          "indexed": true,
          "name": "ballotId",
          "type": "uint256"
        },
        {
          "indexed": false,
          "name": "choice",
          "type": "uint256"
        },
        {
          "indexed": true,
          "name": "senderPoolId",
          "type": "uint256"
        }
      ],
      "name": "Voted",
      "type": "event"
    },
    {
      "anonymous": false,
      "inputs": [
        {
          "indexed": false,
          "name": "ballotId",
          "type": "uint256"
        }
      ],
      "name": "Finalized",
      "type": "event"
    }
  ],
  "bytecode": "0x608060405234801561001057600080fd5b506119c7806100206000396000f3fe608060405234801561001057600080fd5b50600436106101da5760003560e01c8063a7debe9d11610104578063cd2ecdf3116100a2578063f1854e1911610071578063f1854e19146104d3578063f9d5ee75146104f0578063fc87bc9e1461056c578063ff1ad2d914610589576101da565b8063cd2ecdf31461046d578063dfc8bf4e1461048a578063e523d61c146104ae578063e852faad146104cb576101da565b8063b6a6d177116100de578063b6a6d17714610405578063bf8b68da1461040d578063c342a7bf1461042a578063c4d66de814610447576101da565b8063a7debe9d146103bd578063b1724b46146103da578063b384abef146103e2576101da565b80633b79f1a51161017c57806352a2f0211161014b57806352a2f0211461034a5780636fd902e11461036757806382c4c9631461036f57806388cb91b6146103a0576101da565b80633b79f1a5146102d657806340e58ee5146102f35780634e7b436614610310578063518d9fca1461032d576101da565b8063260f08ad116101b8578063260f08ad14610262578063280ad39a1461027f57806332eac2671461029c5780633381afbd146102b9576101da565b806305261aea146101df5780630d13a1c1146101fe5780630f045f6914610233575b600080fd5b6101fc600480360360208110156101f557600080fd5b50356105a6565b005b6102216004803603604081101561021457600080fd5b50803590602001356105c4565b60408051918252519081900360200190f35b6101fc6004803603608081101561024957600080fd5b50803590602081013590604081013590606001356105e1565b6102216004803603602081101561027857600080fd5b5035610c5a565b6102216004803603602081101561029557600080fd5b5035610c6c565b610221600480360360208110156102b257600080fd5b5035610c7e565b610221600480360360208110156102cf57600080fd5b5035610c90565b610221600480360360208110156102ec57600080fd5b5035610ca2565b6101fc6004803603602081101561030957600080fd5b5035610cb4565b6102216004803603602081101561032657600080fd5b5035610e9c565b6102216004803603602081101561034357600080fd5b5035610eae565b6101fc6004803603602081101561036057600080fd5b5035610ec0565b610221610ec5565b61038c6004803603602081101561038557600080fd5b5035610ed4565b604080519115158252519081900360200190f35b610221600480360360208110156103b657600080fd5b5035611137565b610221600480360360208110156103d357600080fd5b5035611149565b61022161115b565b6101fc600480360360408110156103f857600080fd5b5080359060200135611162565b6102216113c4565b6102216004803603602081101561042357600080fd5b50356113ca565b6102216004803603602081101561044057600080fd5b50356113dc565b6101fc6004803603602081101561045d57600080fd5b50356001600160a01b03166113ee565b61038c6004803603602081101561048357600080fd5b503561146e565b610492611531565b604080516001600160a01b039092168252519081900360200190f35b610221600480360360208110156104c457600080fd5b5035611540565b610221611552565b610221600480360360208110156104e957600080fd5b5035611558565b61050d6004803603602081101561050657600080fd5b503561156a565b604080519c8d5260208d019b909b528b8b019990995260608b019790975260808a019590955260a089019390935260c088019190915260e087015261010086015261012085015261014084015261016083015251908190036101800190f35b6102216004803603602081101561058257600080fd5b5035611656565b6102216004803603602081101561059f57600080fd5b5035611668565b6105af81610ed4565b6105b857600080fd5b6105c18161167a565b50565b600f60209081526000928352604080842090915290825290205481565b6011546040805163a26301f960e01b815233600482015290516000926001600160a01b03169163a26301f9916024808301926020929190829003018186803b15801561062c57600080fd5b505afa158015610640573d6000803e3d6000fd5b505050506040513d602081101561065657600080fd5b505160115460408051639b4a14bf60e01b81526004810189905290519293506001600160a01b0390911691639b4a14bf91602480820192602092909190829003018186803b1580156106a757600080fd5b505afa1580156106bb573d6000803e3d6000fd5b505050506040513d60208110156106d157600080fd5b50516106dc57600080fd5b60115460408051639b4a14bf60e01b81526004810184905290516001600160a01b0390921691639b4a14bf91602480820192602092909190829003018186803b15801561072857600080fd5b505afa15801561073c573d6000803e3d6000fd5b505050506040513d602081101561075257600080fd5b505161075d57600080fd5b8085141561076a57600080fd5b6000858152602081905260409020541561078357600080fd5b60115460408051637f2a23bf60e11b815290516000926001600160a01b03169163fe54477e9160048083019286929190829003018186803b1580156107c757600080fd5b505afa1580156107db573d6000803e3d6000fd5b505050506040513d6000823e601f3d908101601f19168201604052602081101561080457600080fd5b81019080805164010000000081111561081c57600080fd5b8201602081018481111561082f57600080fd5b815185602082028301116401000000008211171561084c57600080fd5b5050516000868152600160208190526040909120805491820190559094506003850493508311915061087f905057600080fd5b61438086101561088e57600080fd5b6201518086111561089e57600080fd5b716f6674656e20626c6f636b2064656c61797360701b8514806108d45750706f6674656e20626c6f636b20736b69707360781b85145b806108f35750716f6674656e2072657665616c20736b69707360701b85145b8061090a5750691d5b9c995d99585b195960b21b85145b61091357600080fd5b601080546001019081905560006109388861092c61185f565b9063ffffffff61186516565b60008381526002602090815260408083208d90556003825280832089905560048083528184208590556011548251633ba6481760e21b81529251959650600c956001600160a01b039091169363ee99205c938084019391929190829003018186803b1580156109a657600080fd5b505afa1580156109ba573d6000803e3d6000fd5b505050506040513d60208110156109d057600080fd5b50516040805163d609ea9360e01b815290519192506000916001600160a01b0384169163d609ea93916004808301926020929190829003018186803b158015610a1857600080fd5b505afa158015610a2c573d6000803e3d6000fd5b505050506040513d6020811015610a4257600080fd5b50516040805163461121d760e11b815290519192506000916001600160a01b03851691638c2243ae916004808301926020929190829003018186803b158015610a8a57600080fd5b505afa158015610a9e573d6000803e3d6000fd5b505050506040513d6020811015610ab457600080fd5b5051905080851115610aea57610ae7600161092c868186610adb8b8863ffffffff61188016565b9063ffffffff61189516565b93505b610afe8161092c868563ffffffff6118b716565b600087815260056020526040902055610b328161092c84610b2688600c63ffffffff61188016565b9063ffffffff6118b716565b6006600088815260200190815260200160002081905550826001600160a01b031663794c0c686040518163ffffffff1660e01b815260040160206040518083038186803b158015610b8257600080fd5b505afa158015610b96573d6000803e3d6000fd5b505050506040513d6020811015610bac57600080fd5b50516000878152600a6020908152604080832093909355600781528282208e90556009905220600190555060029250869150610be59050565b6000848152600b60209081526040808320949093046001019093558b81529182905290208290558515610c1c57610c1c8287611162565b6040805183815290517f06acbfb32bcf8383f3b0a768b70ac9ec234ea0f2d3b9c77fa6a2de69b919aad19181900360200190a1505050505050505050565b60006020819052908152604090205481565b60036020526000908152604090205481565b600e6020526000908152604090205481565b60076020526000908152604090205481565b60026020526000908152604090205481565b6011546040805163a26301f960e01b815233600482015290516000926001600160a01b03169163a26301f9916024808301926020929190829003018186803b158015610cff57600080fd5b505afa158015610d13573d6000803e3d6000fd5b505050506040513d6020811015610d2957600080fd5b50516000838152600360205260409020549091508114610d4857600080fd5b600082815260096020526040902054600114610d6357600080fd5b600082815260046020526040902054610d7a61185f565b10610d8457600080fd5b60115460408051639b4a14bf60e01b81526004810184905290516001600160a01b0390921691639b4a14bf91602480820192602092909190829003018186803b158015610dd057600080fd5b505afa158015610de4573d6000803e3d6000fd5b505050506040513d6020811015610dfa57600080fd5b5051610e0557600080fd5b60008281526009602090815260408083206003905583835260019182905290912054610e369163ffffffff61188016565b6000828152600160209081526040808320939093558482526002815282822054808352828252838320929092558251858152925191927f829a8683c544ad289ce92d3ce06e9ebad69b18a6916e60ec766c2c217461d8e9929081900390910190a1505050565b600d6020526000908152604090205481565b60086020526000908152604090205481565b601255565b6000610ecf61185f565b905090565b600081815260096020526040812054600114610ef257506000611132565b600082815260046020526040902054610f0961185f565b10610f1657506001611132565b6000828152600a6020908152604091829020546011548351633ba6481760e21b8152935191936001600160a01b039091169263ee99205c92600480840193829003018186803b158015610f6857600080fd5b505afa158015610f7c573d6000803e3d6000fd5b505050506040513d6020811015610f9257600080fd5b505160408051630f29818d60e31b815290516001600160a01b039092169163794c0c6891600480820192602092909190829003018186803b158015610fd657600080fd5b505afa158015610fea573d6000803e3d6000fd5b505050506040513d602081101561100057600080fd5b5051141561112e576000828152600c6020908152604080832054600d835281842054600e909352818420546011548351637f2a23bf60e11b815293519295919391926001600160a01b039091169163fe54477e9160048083019286929190829003018186803b15801561107257600080fd5b505afa158015611086573d6000803e3d6000fd5b505050506040513d6000823e601f3d908101601f1916820160405260208110156110af57600080fd5b8101908080516401000000008111156110c757600080fd5b820160208101848111156110da57600080fd5b81518560208202830111640100000000821117156110f757600080fd5b5050519350839250611117915084905061092c878763ffffffff61186516565b10611129576001945050505050611132565b505050505b5060005b919050565b60016020526000908152604090205481565b60066020526000908152604090205481565b6201518081565b60008281526003602052604090205461117a57600080fd5b6011546040805163a26301f960e01b815233600482015290516000926001600160a01b03169163a26301f9916024808301926020929190829003018186803b1580156111c557600080fd5b505afa1580156111d9573d6000803e3d6000fd5b505050506040513d60208110156111ef57600080fd5b505160115460408051639b4a14bf60e01b81526004810184905290519293506001600160a01b0390911691639b4a14bf91602480820192602092909190829003018186803b15801561124057600080fd5b505afa158015611254573d6000803e3d6000fd5b505050506040513d602081101561126a57600080fd5b505161127557600080fd5b60008381526002602052604090205481141561129057600080fd5b6000838152600960205260409020546001146112ab57600080fd5b6000838152600460205260409020546112c261185f565b106112cc57600080fd5b6000838152600f60209081526040808320848452909152902054156112f057600080fd5b6000838152600f602090815260408083208484529091529020829055600182141561132f576000838152600c6020526040902080546001019055611371565b6002821415611352576000838152600d6020526040902080546001019055611371565b60038214156101da576000838152600e60205260409020805460010190555b604080518381529051829185917f5fe8f1cc066896edbe87bedf2e870c54f6311a7d6668c860949e2e1224a0955e9181900360200190a36113b183610ed4565b156113bf576113bf8361167a565b505050565b61438081565b600a6020526000908152604090205481565b60046020526000908152604090205481565b6113f661185f565b158061141a57506114056118de565b6001600160a01b0316336001600160a01b0316145b61142357600080fd5b6011546001600160a01b03161561143957600080fd5b6001600160a01b03811661144c57600080fd5b601180546001600160a01b0319166001600160a01b0392909216919091179055565b6000818152602081905260408120548015806114995750600081815260096020526040902054600114155b156114a8576000915050611132565b6000818152600460205260409020546114bf61185f565b10156114cf576001915050611132565b60006114da82611903565b90506002811415611507576000828152600660205260409020546114fc61185f565b111592505050611132565b6003811415611527576000828152600560205260409020546114fc61185f565b5060009392505050565b6011546001600160a01b031681565b60056020526000908152604090205481565b60105481565b600c6020526000908152604090205481565b60008181526002602090815260408083205460038352818420546004845282852054600585528386205460068652848720546007875285882054600988528689205460089098529588205494979396929591949093919291908190819081908190156115e45760008d8152600860205260409020546115ed565b6115ed8d611903565b9450600b60008e8152602001908152602001600020549350600c60008e8152602001908152602001600020549250600d60008e8152602001908152602001600020549150600e60008e815260200190815260200160002054905091939597999b5091939597999b565b600b6020526000908152604090205481565b60096020526000908152604090205481565b6011546001600160a01b031661168f57600080fd5b600061169a82611903565b600083815260036020908152604080832054600283528184205460088452828520869055818552600193849052919093205493945091926116e09163ffffffff61188016565b60008381526001602052604090205560028314156117845760115460008581526006602090815260408083205460079092528083205481516305461c8560e01b81526004810187905260248101939093526044830152516001600160a01b03909316926305461c859260648084019391929182900301818387803b15801561176757600080fd5b505af115801561177b573d6000803e3d6000fd5b50505050611815565b60038314156118155760115460008581526005602090815260408083205460079092528083205481516305461c8560e01b81526004810187905260248101939093526044830152516001600160a01b03909316926305461c859260648084019391929182900301818387803b1580156117fc57600080fd5b505af1158015611810573d6000803e3d6000fd5b505050505b60008181526020818152604080832092909255815186815291517f839cf22e1ba87ce2f5b9bbf46cf0175a09eed52febdfaac8852478e68203c7639281900390910190a150505050565b60125490565b60008282018381101561187757600080fd5b90505b92915050565b60008282111561188f57600080fd5b50900390565b60008082116118a357600080fd5b60008284816118ae57fe5b04949350505050565b6000826118c65750600061187a565b828202828482816118d357fe5b041461187757600080fd5b7fb53127684a568b3173ae13b9f8a6016e243e63b6e8ee1178d6a717850b5d61035490565b6000818152600c6020908152604080832054600d835281842054600e845282852054600b909452918420549092906119458261092c868663ffffffff61186516565b10156119575760019350505050611132565b600181831115611972578383111561196d575060025b611989565b828211801561198057508382115b15611989575060035b9594505050505056fea265627a7a72305820eb1c38139bc7702066ce7e2b5ca4c0b666bae3e2810c31b2c62768131952b3a064736f6c634300050a0032",
  "linkReferences": {},
  "deployedLinkReferences": {}
}