{
  "_format": "hh-sol-artifact-1",
  "contractName": "ValidatorSetAuRaMock",
  "sourceName": "posdao-contracts/contracts/mock/ValidatorSetAuRaMock.sol",
  "abi": [
    {
      "constant": true,
      "inputs": [],
      "name": "validatorsToBeFinalized",
      "outputs": [
        {
          "name": "miningAddresses",
          "type": "address[]"
        },
        {
          "name": "forNewEpoch",
          "type": "bool"
        }
      ],
      "payable": false,
      "stateMutability": "view",
      "type": "function"
    },
    {
      "constant": true,
      "inputs": [
        {
          "name": "",
          "type": "address"
        }
      ],
      "name": "miningByStakingAddress",
      "outputs": [
        {
          "name": "",
          "type": "address"
        }
      ],
      "payable": false,
      "stateMutability": "view",
      "type": "function"
    },
    {
      "constant": false,
      "inputs": [
        {
          "name": "_stakingAddress",
          "type": "address"
        },
        {
          "name": "_until",
          "type": "uint256"
        }
      ],
      "name": "setBannedUntil",
      "outputs": [],
      "payable": false,
      "stateMutability": "nonpayable",
      "type": "function"
    },
    {
      "constant": false,
      "inputs": [
        {
          "name": "_poolId",
          "type": "uint256"
        },
        {
          "name": "_banUntilBlock",
          "type": "uint256"
        },
        {
          "name": "_reason",
          "type": "bytes32"
        }
      ],
      "name": "removeValidator",
      "outputs": [],
      "payable": false,
      "stateMutability": "nonpayable",
      "type": "function"
    },
    {
      "constant": false,
      "inputs": [
        {
          "name": "_address",
          "type": "address"
        }
      ],
      "name": "setSystemAddress",
      "outputs": [],
      "payable": false,
      "stateMutability": "nonpayable",
      "type": "function"
    },
    {
      "constant": false,
      "inputs": [
        {
          "name": "_miningAddresses",
          "type": "address[]"
        }
      ],
      "name": "removeMaliciousValidators",
      "outputs": [],
      "payable": false,
      "stateMutability": "nonpayable",
      "type": "function"
    },
    {
      "constant": false,
      "inputs": [
        {
          "name": "_address",
          "type": "address"
        }
      ],
      "name": "setRandomContract",
      "outputs": [],
      "payable": false,
      "stateMutability": "nonpayable",
      "type": "function"
    },
    {
      "constant": true,
      "inputs": [],
      "name": "unremovableValidators",
      "outputs": [
        {
          "name": "",
          "type": "uint256[]"
        }
      ],
      "payable": false,
      "stateMutability": "view",
      "type": "function"
    },
    {
      "constant": true,
      "inputs": [],
      "name": "validatorsToBeFinalizedIds",
      "outputs": [
        {
          "name": "",
          "type": "uint256[]"
        }
      ],
      "payable": false,
      "stateMutability": "view",
      "type": "function"
    },
    {
      "constant": true,
      "inputs": [
        {
          "name": "",
          "type": "uint256"
        }
      ],
      "name": "stakingAddressById",
      "outputs": [
        {
          "name": "",
          "type": "address"
        }
      ],
      "payable": false,
      "stateMutability": "view",
      "type": "function"
    },
    {
      "constant": true,
      "inputs": [
        {
          "name": "_likelihood",
          "type": "uint256[]"
        },
        {
          "name": "_likelihoodSum",
          "type": "uint256"
        },
        {
          "name": "_randomNumber",
          "type": "uint256"
        }
      ],
      "name": "getRandomIndex",
      "outputs": [
        {
          "name": "",
          "type": "uint256"
        }
      ],
      "payable": false,
      "stateMutability": "pure",
      "type": "function"
    },
    {
      "constant": true,
      "inputs": [],
      "name": "initiateChangeAllowed",
      "outputs": [
        {
          "name": "",
          "type": "bool"
        }
      ],
      "payable": false,
      "stateMutability": "view",
      "type": "function"
    },
    {
      "constant": true,
      "inputs": [
        {
          "name": "_miningAddress",
          "type": "address"
        }
      ],
      "name": "bannedDelegatorsUntil",
      "outputs": [
        {
          "name": "",
          "type": "uint256"
        }
      ],
      "payable": false,
      "stateMutability": "view",
      "type": "function"
    },
    {
      "constant": true,
      "inputs": [
        {
          "name": "_miningAddress",
          "type": "address"
        }
      ],
      "name": "banCounter",
      "outputs": [
        {
          "name": "",
          "type": "uint256"
        }
      ],
      "payable": false,
      "stateMutability": "view",
      "type": "function"
    },
    {
      "constant": true,
      "inputs": [
        {
          "name": "",
          "type": "address"
        }
      ],
      "name": "stakingByMiningAddress",
      "outputs": [
        {
          "name": "",
          "type": "address"
        }
      ],
      "payable": false,
      "stateMutability": "view",
      "type": "function"
    },
    {
      "constant": false,
      "inputs": [
        {
          "name": "_address",
          "type": "address"
        }
      ],
      "name": "setBlockRewardContract",
      "outputs": [],
      "payable": false,
      "stateMutability": "nonpayable",
      "type": "function"
    },
    {
      "constant": true,
      "inputs": [
        {
          "name": "",
          "type": "address"
        }
      ],
      "name": "idByMiningAddress",
      "outputs": [
        {
          "name": "",
          "type": "uint256"
        }
      ],
      "payable": false,
      "stateMutability": "view",
      "type": "function"
    },
    {
      "constant": false,
      "inputs": [
        {
          "name": "_unremovablePoolId",
          "type": "uint256"
        }
      ],
      "name": "clearUnremovableValidator",
      "outputs": [],
      "payable": false,
      "stateMutability": "nonpayable",
      "type": "function"
    },
    {
      "constant": false,
      "inputs": [
        {
          "name": "_miningAddress",
          "type": "address"
        },
        {
          "name": "_stakingAddress",
          "type": "address"
        },
        {
          "name": "_name",
          "type": "string"
        },
        {
          "name": "_description",
          "type": "string"
        }
      ],
      "name": "addPool",
      "outputs": [
        {
          "name": "",
          "type": "uint256"
        }
      ],
      "payable": false,
      "stateMutability": "nonpayable",
      "type": "function"
    },
    {
      "constant": true,
      "inputs": [
        {
          "name": "",
          "type": "uint256"
        }
      ],
      "name": "poolDescription",
      "outputs": [
        {
          "name": "",
          "type": "string"
        }
      ],
      "payable": false,
      "stateMutability": "view",
      "type": "function"
    },
    {
      "constant": true,
      "inputs": [],
      "name": "isInitialized",
      "outputs": [
        {
          "name": "",
          "type": "bool"
        }
      ],
      "payable": false,
      "stateMutability": "view",
      "type": "function"
    },
    {
      "constant": false,
      "inputs": [
        {
          "name": "_newMiningAddress",
          "type": "address"
        }
      ],
      "name": "changeMiningAddress",
      "outputs": [],
      "payable": false,
      "stateMutability": "nonpayable",
      "type": "function"
    },
    {
      "constant": true,
      "inputs": [],
      "name": "emitInitiateChangeCallable",
      "outputs": [
        {
          "name": "",
          "type": "bool"
        }
      ],
      "payable": false,
      "stateMutability": "view",
      "type": "function"
    },
    {
      "constant": true,
      "inputs": [
        {
          "name": "_poolId",
          "type": "uint256"
        }
      ],
      "name": "isValidatorIdBanned",
      "outputs": [
        {
          "name": "",
          "type": "bool"
        }
      ],
      "payable": false,
      "stateMutability": "view",
      "type": "function"
    },
    {
      "constant": false,
      "inputs": [
        {
          "name": "_blockNumber",
          "type": "uint256"
        }
      ],
      "name": "setCurrentBlockNumber",
      "outputs": [],
      "payable": false,
      "stateMutability": "nonpayable",
      "type": "function"
    },
    {
      "constant": true,
      "inputs": [],
      "name": "blockRewardContract",
      "outputs": [
        {
          "name": "",
          "type": "address"
        }
      ],
      "payable": false,
      "stateMutability": "view",
      "type": "function"
    },
    {
      "constant": true,
      "inputs": [
        {
          "name": "_miningAddress",
          "type": "address"
        }
      ],
      "name": "bannedUntil",
      "outputs": [
        {
          "name": "",
          "type": "uint256"
        }
      ],
      "payable": false,
      "stateMutability": "view",
      "type": "function"
    },
    {
      "constant": false,
      "inputs": [
        {
          "name": "_name",
          "type": "string"
        },
        {
          "name": "_description",
          "type": "string"
        }
      ],
      "name": "changeMetadata",
      "outputs": [],
      "payable": false,
      "stateMutability": "nonpayable",
      "type": "function"
    },
    {
      "constant": false,
      "inputs": [],
      "name": "newValidatorSet",
      "outputs": [],
      "payable": false,
      "stateMutability": "nonpayable",
      "type": "function"
    },
    {
      "constant": true,
      "inputs": [],
      "name": "getPendingValidatorsIds",
      "outputs": [
        {
          "name": "",
          "type": "uint256[]"
        }
      ],
      "payable": false,
      "stateMutability": "view",
      "type": "function"
    },
    {
      "constant": true,
      "inputs": [
        {
          "name": "",
          "type": "address"
        }
      ],
      "name": "hasEverBeenStakingAddress",
      "outputs": [
        {
          "name": "",
          "type": "bool"
        }
      ],
      "payable": false,
      "stateMutability": "view",
      "type": "function"
    },
    {
      "constant": false,
      "inputs": [
        {
          "name": "_blockRewardContract",
          "type": "address"
        },
        {
          "name": "_governanceContract",
          "type": "address"
        },
        {
          "name": "_randomContract",
          "type": "address"
        },
        {
          "name": "_stakingContract",
          "type": "address"
        },
        {
          "name": "_initialMiningAddresses",
          "type": "address[]"
        },
        {
          "name": "_initialStakingAddresses",
          "type": "address[]"
        },
        {
          "name": "_firstValidatorIsUnremovable",
          "type": "bool"
        }
      ],
      "name": "initialize",
      "outputs": [],
      "payable": false,
      "stateMutability": "nonpayable",
      "type": "function"
    },
    {
      "constant": true,
      "inputs": [],
      "name": "unremovableValidator",
      "outputs": [
        {
          "name": "",
          "type": "uint256"
        }
      ],
      "payable": false,
      "stateMutability": "view",
      "type": "function"
    },
    {
      "constant": true,
      "inputs": [],
      "name": "MAX_VALIDATORS",
      "outputs": [
        {
          "name": "",
          "type": "uint256"
        }
      ],
      "payable": false,
      "stateMutability": "view",
      "type": "function"
    },
    {
      "constant": true,
      "inputs": [],
      "name": "lastChangeBlock",
      "outputs": [
        {
          "name": "",
          "type": "uint256"
        }
      ],
      "payable": false,
      "stateMutability": "view",
      "type": "function"
    },
    {
      "constant": false,
      "inputs": [],
      "name": "finalizeChange",
      "outputs": [],
      "payable": false,
      "stateMutability": "nonpayable",
      "type": "function"
    },
    {
      "constant": false,
      "inputs": [
        {
          "name": "_newStakingAddress",
          "type": "address"
        }
      ],
      "name": "changeStakingAddress",
      "outputs": [],
      "payable": false,
      "stateMutability": "nonpayable",
      "type": "function"
    },
    {
      "constant": true,
      "inputs": [
        {
          "name": "",
          "type": "address"
        }
      ],
      "name": "hasEverBeenMiningAddress",
      "outputs": [
        {
          "name": "",
          "type": "uint256"
        }
      ],
      "payable": false,
      "stateMutability": "view",
      "type": "function"
    },
    {
      "constant": true,
      "inputs": [
        {
          "name": "_miningAddress",
          "type": "address"
        },
        {
          "name": "_reportingValidator",
          "type": "bool"
        }
      ],
      "name": "isReportValidatorValid",
      "outputs": [
        {
          "name": "",
          "type": "bool"
        }
      ],
      "payable": false,
      "stateMutability": "view",
      "type": "function"
    },
    {
      "constant": true,
      "inputs": [],
      "name": "miningAddressChangeRequest",
      "outputs": [
        {
          "name": "poolId",
          "type": "uint256"
        },
        {
          "name": "newMiningAddress",
          "type": "address"
        }
      ],
      "payable": false,
      "stateMutability": "view",
      "type": "function"
    },
    {
      "constant": false,
      "inputs": [],
      "name": "emitInitiateChange",
      "outputs": [],
      "payable": false,
      "stateMutability": "nonpayable",
      "type": "function"
    },
    {
      "constant": false,
      "inputs": [
        {
          "name": "_poolId",
          "type": "uint256"
        }
      ],
      "name": "addUnremovableValidator",
      "outputs": [],
      "payable": false,
      "stateMutability": "nonpayable",
      "type": "function"
    },
    {
      "constant": true,
      "inputs": [
        {
          "name": "",
          "type": "uint256"
        }
      ],
      "name": "isValidatorById",
      "outputs": [
        {
          "name": "",
          "type": "bool"
        }
      ],
      "payable": false,
      "stateMutability": "view",
      "type": "function"
    },
    {
      "constant": false,
      "inputs": [
        {
          "name": "_address",
          "type": "address"
        }
      ],
      "name": "setStakingContract",
      "outputs": [],
      "payable": false,
      "stateMutability": "nonpayable",
      "type": "function"
    },
    {
      "constant": true,
      "inputs": [
        {
          "name": "",
          "type": "address"
        }
      ],
      "name": "idByStakingAddress",
      "outputs": [
        {
          "name": "",
          "type": "uint256"
        }
      ],
      "payable": false,
      "stateMutability": "view",
      "type": "function"
    },
    {
      "constant": true,
      "inputs": [
        {
          "name": "_poolId",
          "type": "uint256"
        }
      ],
      "name": "isValidatorOrPending",
      "outputs": [
        {
          "name": "",
          "type": "bool"
        }
      ],
      "payable": false,
      "stateMutability": "view",
      "type": "function"
    },
    {
      "constant": true,
      "inputs": [
        {
          "name": "_poolId",
          "type": "uint256"
        }
      ],
      "name": "areIdDelegatorsBanned",
      "outputs": [
        {
          "name": "",
          "type": "bool"
        }
      ],
      "payable": false,
      "stateMutability": "view",
      "type": "function"
    },
    {
      "constant": true,
      "inputs": [],
      "name": "lastPoolId",
      "outputs": [
        {
          "name": "",
          "type": "uint256"
        }
      ],
      "payable": false,
      "stateMutability": "view",
      "type": "function"
    },
    {
      "constant": true,
      "inputs": [
        {
          "name": "_reportingMiningAddress",
          "type": "address"
        },
        {
          "name": "_maliciousMiningAddress",
          "type": "address"
        },
        {
          "name": "_blockNumber",
          "type": "uint256"
        }
      ],
      "name": "reportMaliciousCallable",
      "outputs": [
        {
          "name": "callable",
          "type": "bool"
        },
        {
          "name": "removeReportingValidator",
          "type": "bool"
        }
      ],
      "payable": false,
      "stateMutability": "view",
      "type": "function"
    },
    {
      "constant": true,
      "inputs": [
        {
          "name": "_miningAddress",
          "type": "address"
        }
      ],
      "name": "areDelegatorsBanned",
      "outputs": [
        {
          "name": "",
          "type": "bool"
        }
      ],
      "payable": false,
      "stateMutability": "view",
      "type": "function"
    },
    {
      "constant": true,
      "inputs": [
        {
          "name": "_miningAddress",
          "type": "address"
        }
      ],
      "name": "isValidatorBanned",
      "outputs": [
        {
          "name": "",
          "type": "bool"
        }
      ],
      "payable": false,
      "stateMutability": "view",
      "type": "function"
    },
    {
      "constant": true,
      "inputs": [],
      "name": "governanceContract",
      "outputs": [
        {
          "name": "",
          "type": "address"
        }
      ],
      "payable": false,
      "stateMutability": "view",
      "type": "function"
    },
    {
      "constant": false,
      "inputs": [],
      "name": "initUnremovableValidators",
      "outputs": [],
      "payable": false,
      "stateMutability": "nonpayable",
      "type": "function"
    },
    {
      "constant": true,
      "inputs": [
        {
          "name": "_miningAddress",
          "type": "address"
        }
      ],
      "name": "validatorCounter",
      "outputs": [
        {
          "name": "",
          "type": "uint256"
        }
      ],
      "payable": false,
      "stateMutability": "view",
      "type": "function"
    },
    {
      "constant": true,
      "inputs": [],
      "name": "getValidators",
      "outputs": [
        {
          "name": "",
          "type": "address[]"
        }
      ],
      "payable": false,
      "stateMutability": "view",
      "type": "function"
    },
    {
      "constant": true,
      "inputs": [],
      "name": "validatorSetApplyBlock",
      "outputs": [
        {
          "name": "",
          "type": "uint256"
        }
      ],
      "payable": false,
      "stateMutability": "view",
      "type": "function"
    },
    {
      "constant": false,
      "inputs": [
        {
          "name": "_maliciousMiningAddress",
          "type": "address"
        },
        {
          "name": "_blockNumber",
          "type": "uint256"
        },
        {
          "name": "",
          "type": "bytes"
        }
      ],
      "name": "reportMalicious",
      "outputs": [],
      "payable": false,
      "stateMutability": "nonpayable",
      "type": "function"
    },
    {
      "constant": false,
      "inputs": [],
      "name": "clearPendingValidators",
      "outputs": [],
      "payable": false,
      "stateMutability": "nonpayable",
      "type": "function"
    },
    {
      "constant": true,
      "inputs": [
        {
          "name": "_miningAddress",
          "type": "address"
        }
      ],
      "name": "banReason",
      "outputs": [
        {
          "name": "",
          "type": "bytes32"
        }
      ],
      "payable": false,
      "stateMutability": "view",
      "type": "function"
    },
    {
      "constant": true,
      "inputs": [
        {
          "name": "_reportingMiningAddress",
          "type": "address"
        },
        {
          "name": "_maliciousMiningAddress",
          "type": "address"
        },
        {
          "name": "_blockNumber",
          "type": "uint256"
        }
      ],
      "name": "shouldValidatorReport",
      "outputs": [
        {
          "name": "",
          "type": "bool"
        }
      ],
      "payable": false,
      "stateMutability": "view",
      "type": "function"
    },
    {
      "constant": true,
      "inputs": [
        {
          "name": "",
          "type": "uint256"
        }
      ],
      "name": "poolName",
      "outputs": [
        {
          "name": "",
          "type": "string"
        }
      ],
      "payable": false,
      "stateMutability": "view",
      "type": "function"
    },
    {
      "constant": true,
      "inputs": [],
      "name": "randomContract",
      "outputs": [
        {
          "name": "",
          "type": "address"
        }
      ],
      "payable": false,
      "stateMutability": "view",
      "type": "function"
    },
    {
      "constant": false,
      "inputs": [
        {
          "name": "_poolIds",
          "type": "uint256[]"
        }
      ],
      "name": "addUnremovableValidators",
      "outputs": [],
      "payable": false,
      "stateMutability": "nonpayable",
      "type": "function"
    },
    {
      "constant": true,
      "inputs": [],
      "name": "changeRequestCount",
      "outputs": [
        {
          "name": "",
          "type": "uint256"
        }
      ],
      "payable": false,
      "stateMutability": "view",
      "type": "function"
    },
    {
      "constant": false,
      "inputs": [
        {
          "name": "_blockNumber",
          "type": "uint256"
        }
      ],
      "name": "setValidatorSetApplyBlock",
      "outputs": [],
      "payable": false,
      "stateMutability": "nonpayable",
      "type": "function"
    },
    {
      "constant": false,
      "inputs": [
        {
          "name": "_stakingAddresses",
          "type": "address[]"
        }
      ],
      "name": "addNonValidatorPools",
      "outputs": [],
      "payable": false,
      "stateMutability": "nonpayable",
      "type": "function"
    },
    {
      "constant": true,
      "inputs": [
        {
          "name": "",
          "type": "uint256"
        }
      ],
      "name": "miningAddressById",
      "outputs": [
        {
          "name": "",
          "type": "address"
        }
      ],
      "payable": false,
      "stateMutability": "view",
      "type": "function"
    },
    {
      "constant": false,
      "inputs": [],
      "name": "incrementLastPoolId",
      "outputs": [],
      "payable": false,
      "stateMutability": "nonpayable",
      "type": "function"
    },
    {
      "constant": true,
      "inputs": [
        {
          "name": "",
          "type": "uint256"
        }
      ],
      "name": "isUnremovableValidator",
      "outputs": [
        {
          "name": "",
          "type": "bool"
        }
      ],
      "payable": false,
      "stateMutability": "view",
      "type": "function"
    },
    {
      "constant": true,
      "inputs": [],
      "name": "stakingContract",
      "outputs": [
        {
          "name": "",
          "type": "address"
        }
      ],
      "payable": false,
      "stateMutability": "view",
      "type": "function"
    },
    {
      "constant": true,
      "inputs": [],
      "name": "getPendingValidators",
      "outputs": [
        {
          "name": "",
          "type": "address[]"
        }
      ],
      "payable": false,
      "stateMutability": "view",
      "type": "function"
    },
    {
      "constant": true,
      "inputs": [
        {
          "name": "_miningAddress",
          "type": "address"
        }
      ],
      "name": "isValidator",
      "outputs": [
        {
          "name": "",
          "type": "bool"
        }
      ],
      "payable": false,
      "stateMutability": "view",
      "type": "function"
    },
    {
      "constant": true,
      "inputs": [],
      "name": "getValidatorsIds",
      "outputs": [
        {
          "name": "",
          "type": "uint256[]"
        }
      ],
      "payable": false,
      "stateMutability": "view",
      "type": "function"
    },
    {
      "anonymous": false,
      "inputs": [
        {
          "indexed": true,
          "name": "poolId",
          "type": "uint256"
        },
        {
          "indexed": true,
          "name": "oldMiningAddress",
          "type": "address"
        },
        {
          "indexed": true,
          "name": "newMiningAddress",
          "type": "address"
        }
      ],
      "name": "ChangedMiningAddress",
      "type": "event"
    },
    {
      "anonymous": false,
      "inputs": [
        {
          "indexed": true,
          "name": "poolId",
          "type": "uint256"
        },
        {
          "indexed": true,
          "name": "oldStakingAddress",
          "type": "address"
        },
        {
          "indexed": true,
          "name": "newStakingAddress",
          "type": "address"
        }
      ],
      "name": "ChangedStakingAddress",
      "type": "event"
    },
    {
      "anonymous": false,
      "inputs": [
        {
          "indexed": true,
          "name": "parentHash",
          "type": "bytes32"
        },
        {
          "indexed": false,
          "name": "newSet",
          "type": "address[]"
        }
      ],
      "name": "InitiateChange",
      "type": "event"
    },
    {
      "anonymous": false,
      "inputs": [
        {
          "indexed": false,
          "name": "reportingValidator",
          "type": "address"
        },
        {
          "indexed": false,
          "name": "maliciousValidator",
          "type": "address"
        },
        {
          "indexed": true,
          "name": "blockNumber",
          "type": "uint256"
        },
        {
          "indexed": true,
          "name": "reportingPoolId",
          "type": "uint256"
        },
        {
          "indexed": true,
          "name": "maliciousPoolId",
          "type": "uint256"
        }
      ],
      "name": "ReportedMalicious",
      "type": "event"
    },
    {
      "anonymous": false,
      "inputs": [
        {
          "indexed": true,
          "name": "poolId",
          "type": "uint256"
        },
        {
          "indexed": false,
          "name": "name",
          "type": "string"
        },
        {
          "indexed": false,
          "name": "description",
          "type": "string"
        }
      ],
      "name": "SetPoolMetadata",
      "type": "event"
    }
  ],
  "bytecode": "0x608060405234801561001057600080fd5b50614961806100206000396000f3fe608060405234801561001057600080fd5b50600436106104315760003560e01c806381db0a4911610236578063b7ab4db51161013b578063d2077782116100c3578063e717de3a11610087578063e717de3a146110da578063ee99205c146110f7578063eebc7a39146110ff578063facd743b14611107578063fe54477e1461112d57610431565b8063d207778214610fef578063d37a7f5314610ff7578063d898fd6e14611014578063e2847895146110b5578063e50d89a9146110d257610431565b8063c9e9694d1161010a578063c9e9694d14610f00578063cbd2d52814610f26578063cccf3a0214610f5c578063ccf69e9b14610f79578063cd24327e14610f8157610431565b8063b7ab4db514610e65578063b927ef4314610e6d578063c476dd4014610e75578063c9e2fb3314610ef857610431565b8063a48b042a116101be578063a881c5fd1161018d578063a881c5fd14610de3578063a92252ae14610e09578063b172b22214610e2f578063b2c65a1014610e37578063b41832e414610e3f57610431565b8063a48b042a14610d50578063a4e01eaa14610d6d578063a657e57914610d8a578063a670eb5614610d9257610431565b806393b4e25e1161020557806393b4e25e14610cc257806394f3a24114610cca5780639b4a14bf14610ce75780639dd373b914610d04578063a26301f914610d2a57610431565b806381db0a4914610c1f57806383465b8214610c455780639184d0ad14610c6b57806392d276b414610c9957610431565b8063374dc77d1161033c578063595bddf9116102c45780636e85d53d116102935780636e85d53d14610b17578063704189ca14610bff578063714897df14610c0757806374bdb37214610c0f5780637528621114610c1757610431565b8063595bddf914610a235780635ccee1de14610ae15780636729c2dc14610ae95780636b5ecfd314610af157610431565b80633d3b54581161030b5780633d3b5458146109b35780634d04481e146109bb57806352a2f021146109d857806356b54bae146109f55780635836d08a146109fd57610431565b8063374dc77d1461081c578063378bf28b146108f3578063392e53cd146109855780633d34d9ef1461098d57610431565b806316cf66ab116103bf5780631d0cd4c61161038e5780631d0cd4c6146107675780631ee4d0bc1461078d57806327a3e16b146107b35780632bbb7b72146107d95780632f248e30146107ff57610431565b806316cf66ab146106505780631761edb11461066d5780631776dee3146107255780631a7fa2371461074157610431565b8063062101971161040657806306210197146105365780630636bdac1461055c5780630933e3a7146105ca57806309bee538146105f05780630bf480c01461064857610431565b80624a8803146104365780625351751461049d578063030360d2146104df57806305461c851461050d575b600080fd5b61043e611135565b604051808060200183151515158152602001828103825284818151815260200191508051906020019060200280838360005b83811015610488578181015183820152602001610470565b50505050905001935050505060405180910390f35b6104c3600480360360208110156104b357600080fd5b50356001600160a01b03166111ef565b604080516001600160a01b039092168252519081900360200190f35b61050b600480360360408110156104f557600080fd5b506001600160a01b03813516906020013561120a565b005b61050b6004803603606081101561052357600080fd5b508035906020810135906040013561123d565b61050b6004803603602081101561054c57600080fd5b50356001600160a01b031661130e565b61050b6004803603602081101561057257600080fd5b810190602081018135600160201b81111561058c57600080fd5b82018360208201111561059e57600080fd5b803590602001918460208302840111600160201b831117156105bf57600080fd5b509092509050611330565b61050b600480360360208110156105e057600080fd5b50356001600160a01b0316611396565b6105f86113b8565b60408051602080825283518183015283519192839290830191858101910280838360005b8381101561063457818101518382015260200161061c565b505050509050019250505060405180910390f35b6105f8611411565b6104c36004803603602081101561066657600080fd5b503561146a565b6107136004803603606081101561068357600080fd5b810190602081018135600160201b81111561069d57600080fd5b8201836020820111156106af57600080fd5b803590602001918460208302840111600160201b831117156106d057600080fd5b9190808060200260200160405190810160405280939291908181526020018383602002808284376000920191909152509295505082359350505060200135611485565b60408051918252519081900360200190f35b61072d6114c5565b604080519115158252519081900360200190f35b6107136004803603602081101561075757600080fd5b50356001600160a01b03166114cc565b6107136004803603602081101561077d57600080fd5b50356001600160a01b03166114f8565b6104c3600480360360208110156107a357600080fd5b50356001600160a01b0316611520565b61050b600480360360208110156107c957600080fd5b50356001600160a01b031661153b565b610713600480360360208110156107ef57600080fd5b50356001600160a01b031661155d565b61050b6004803603602081101561081557600080fd5b503561156f565b6107136004803603608081101561083257600080fd5b6001600160a01b038235811692602081013590911691810190606081016040820135600160201b81111561086557600080fd5b82018360208201111561087757600080fd5b803590602001918460018302840111600160201b8311171561089857600080fd5b919390929091602081019035600160201b8111156108b557600080fd5b8201836020820111156108c757600080fd5b803590602001918460018302840111600160201b831117156108e857600080fd5b5090925090506116f1565b6109106004803603602081101561090957600080fd5b5035611798565b6040805160208082528351818301528351919283929083019185019080838360005b8381101561094a578181015183820152602001610932565b50505050905090810190601f1680156109775780820380516001836020036101000a031916815260200191505b509250505060405180910390f35b61072d611833565b61050b600480360360208110156109a357600080fd5b50356001600160a01b0316611844565b61072d611cf4565b61072d600480360360208110156109d157600080fd5b5035611d11565b61050b600480360360208110156109ee57600080fd5b5035611d41565b6104c3611d46565b61071360048036036020811015610a1357600080fd5b50356001600160a01b0316611d55565b61050b60048036036040811015610a3957600080fd5b810190602081018135600160201b811115610a5357600080fd5b820183602082011115610a6557600080fd5b803590602001918460018302840111600160201b83111715610a8657600080fd5b919390929091602081019035600160201b811115610aa357600080fd5b820183602082011115610ab557600080fd5b803590602001918460018302840111600160201b83111715610ad657600080fd5b509092509050611d7d565b61050b611e2e565b6105f8612345565b61072d60048036036020811015610b0757600080fd5b50356001600160a01b031661239b565b61050b600480360360e0811015610b2d57600080fd5b6001600160a01b03823581169260208101358216926040820135831692606083013516919081019060a081016080820135600160201b811115610b6f57600080fd5b820183602082011115610b8157600080fd5b803590602001918460208302840111600160201b83111715610ba257600080fd5b919390929091602081019035600160201b811115610bbf57600080fd5b820183602082011115610bd157600080fd5b803590602001918460208302840111600160201b83111715610bf257600080fd5b91935091503515156123b0565b6107136125fa565b61071361262a565b61071361262f565b61050b612635565b61050b60048036036020811015610c3557600080fd5b50356001600160a01b0316612740565b61071360048036036020811015610c5b57600080fd5b50356001600160a01b0316612963565b61072d60048036036040811015610c8157600080fd5b506001600160a01b0381351690602001351515612975565b610ca1612ac8565b604080519283526001600160a01b0390911660208301528051918290030190f35b61050b612ada565b61050b60048036036020811015610ce057600080fd5b5035612bc3565b61072d60048036036020811015610cfd57600080fd5b5035612bf1565b61050b60048036036020811015610d1a57600080fd5b50356001600160a01b0316612c06565b61071360048036036020811015610d4057600080fd5b50356001600160a01b0316612c28565b61072d60048036036020811015610d6657600080fd5b5035612c3a565b61072d60048036036020811015610d8357600080fd5b5035612cee565b610713612d0d565b610dc860048036036060811015610da857600080fd5b506001600160a01b03813581169160208101359091169060400135612d13565b60408051921515835290151560208301528051918290030190f35b61072d60048036036020811015610df957600080fd5b50356001600160a01b0316612eff565b61072d60048036036020811015610e1f57600080fd5b50356001600160a01b0316612f12565b6104c3612f2f565b61050b612f3e565b61071360048036036020811015610e5557600080fd5b50356001600160a01b0316613119565b6105f8613141565b6107136131f1565b61050b60048036036060811015610e8b57600080fd5b6001600160a01b0382351691602081013591810190606081016040820135600160201b811115610eba57600080fd5b820183602082011115610ecc57600080fd5b803590602001918460018302840111600160201b83111715610eed57600080fd5b5090925090506131f7565b61050b613402565b61071360048036036020811015610f1657600080fd5b50356001600160a01b031661341a565b61072d60048036036060811015610f3c57600080fd5b506001600160a01b03813581169160208101359091169060400135613442565b61091060048036036020811015610f7257600080fd5b50356134fb565b6104c3613563565b61050b60048036036020811015610f9757600080fd5b810190602081018135600160201b811115610fb157600080fd5b820183602082011115610fc357600080fd5b803590602001918460208302840111600160201b83111715610fe457600080fd5b509092509050613572565b6107136135c5565b61050b6004803603602081101561100d57600080fd5b50356135cb565b61050b6004803603602081101561102a57600080fd5b810190602081018135600160201b81111561104457600080fd5b82018360208201111561105657600080fd5b803590602001918460208302840111600160201b8311171561107757600080fd5b9190808060200260200160405190810160405280939291908181526020018383602002808284376000920191909152509295506135d0945050505050565b6104c3600480360360208110156110cb57600080fd5b5035613618565b61050b613633565b61072d600480360360208110156110f057600080fd5b503561363e565b6104c3613653565b6105f8613662565b61072d6004803603602081101561111d57600080fd5b50356001600160a01b031661370d565b6105f8613738565b600454604080518281526020808402820101909152606091600091908015611167578160200160208202803883390190505b50915060005b82518110156111e357601e60006003600101838154811061118a57fe5b9060005260206000200154815260200190815260200160002060009054906101000a90046001600160a01b03168382815181106111c357fe5b6001600160a01b039092166020928302919091019091015260010161116d565b505060035460ff169091565b6010602052600090815260409020546001600160a01b031681565b6001600160a01b039091166000908152601d6020908152604080832054835260098252808320849055600a909152902055565b6025546001600160a01b0316331461125457600080fd5b60008381526027602052604090205460ff161561127057611309565b6000838152601e60205260409020546001600160a01b031661129157600080fd5b8161129b57600080fd5b6000838152600960205260409020548211156112c35760008381526009602052604090208290555b600083815260086020908152604080832080546001019055600b90915290208190556112ee8361378e565b156112fd576112fd600061388d565b6113056138c9565b6019555b505050565b602980546001600160a01b0319166001600160a01b0392909216919091179055565b6011546001600160a01b0316331461134757600080fd5b611392828280806020026020016040519081016040528093929190818152602001838360200280828437600092019190915250691d5b9c995d99585b195960b21b92506138cf915050565b5050565b601180546001600160a01b0319166001600160a01b0392909216919091179055565b6060602680548060200260200160405190810160405280929190818152602001828054801561140657602002820191906000526020600020905b8154815260200190600101908083116113f2575b505050505090505b90565b6060600360010180548060200260200160405190810160405280929190818152602001828054801561140657602002820191906000526020600020908154815260200190600101908083116113f2575050505050905090565b601f602052600090815260409020546001600160a01b031681565b60006114bb848484604051602001808281526020019150506040516020818303038152906040528051906020012060001c613938565b90505b9392505050565b6004541590565b6001600160a01b0381166000908152601c60209081526040808320548352600a9091529020545b919050565b6001600160a01b03166000908152601c60209081526040808320548352600890915290205490565b6014602052600090815260409020546001600160a01b031681565b600c80546001600160a01b0319166001600160a01b0392909216919091179055565b601c6020526000908152604090205481565b611577611833565b61158057600080fd5b60008181526027602052604090205460ff1661159b57600080fd5b6000818152601f60205260409020546001600160a01b0316338114806115d957506115c4613985565b6001600160a01b0316336001600160a01b0316145b6115e257600080fd5b601554604080516302f248e360e41b81526004810185905290516001600160a01b0390921691632f248e309160248082019260009290919082900301818387803b15801561162f57600080fd5b505af1158015611643573d6000803e3d6000fd5b506000925050505b6026548110156116cb57826026828154811061166357fe5b906000526020600020015414156116c35760268054600019810190811061168657fe5b90600052602060002001546026828154811061169e57fe5b60009182526020909120015560268054906116bd906000198301614812565b506116cb565b60010161164b565b506000828152602760205260409020805460ff191690556116ea6138c9565b6019555050565b6015546000906001600160a01b0316331461170b57600080fd5b600061171788886139aa565b905061178d8187878080601f01602080910402602001604051908101604052809392919081815260200183838082843760009201919091525050604080516020601f8b018190048102820181019092528981529250899150889081908401838280828437600092019190915250613cdd92505050565b979650505050505050565b60246020908152600091825260409182902080548351601f60026000196101006001861615020190931692909204918201849004840281018401909452808452909183018282801561182b5780601f106118005761010080835404028352916020019161182b565b820191906000526020600020905b81548152906001019060200180831161180e57829003601f168201915b505050505081565b600c546001600160a01b0316151590565b61184c611833565b61185557600080fd5b33600081815260106020908152604080832054601d909252909120546001600160a01b0391821691841661188857600080fd5b6001600160a01b03821661189b57600080fd5b836001600160a01b0316826001600160a01b031614156118ba57600080fd5b806118c457600080fd5b602154156118d157600080fd5b601554604080516322e8c68760e21b81526001600160a01b03878116600483015291519190921691638ba31a1c916024808301926020929190829003018186803b15801561191e57600080fd5b505afa158015611932573d6000803e3d6000fd5b505050506040513d602081101561194857600080fd5b50511561195457600080fd5b6001600160a01b0384166000908152601a60205260409020541561197757600080fd5b6001600160a01b0384166000908152601b602052604090205460ff161561199d57600080fd5b6000818152600e602052604090205460ff1615611c95576119bc6114c5565b6119c557600080fd5b60055460ff16156119d557600080fd5b611ae9611a636002601160009054906101000a90046001600160a01b03166001600160a01b0316631c77c58c6040518163ffffffff1660e01b815260040160206040518083038186803b158015611a2b57600080fd5b505afa158015611a3f573d6000803e3d6000fd5b505050506040513d6020811015611a5557600080fd5b50519063ffffffff613e4316565b601560009054906101000a90046001600160a01b03166001600160a01b0316638c2243ae6040518163ffffffff1660e01b815260040160206040518083038186803b158015611ab157600080fd5b505afa158015611ac5573d6000803e3d6000fd5b505050506040513d6020811015611adb57600080fd5b50519063ffffffff613e6a16565b611af16138c9565b10611afb57600080fd5b6060611b05613662565b905060005b8151811015611b7a57836001600160a01b0316828281518110611b2957fe5b60200260200101516001600160a01b03161415611b725785828281518110611b4d57fe5b60200260200101906001600160a01b031690816001600160a01b031681525050611b7a565b600101611b0a565b5060018054611b8b91600491614836565b506021829055602280546001600160a01b0319166001600160a01b038781169190911790915560115460408051630b40282360e01b81526004810186905290519190921691630b40282391602480830192600092919082900301818387803b158015611bf657600080fd5b505af1158015611c0a573d6000803e3d6000fd5b505050506001611c186138c9565b03407f55252fa6eee4741b4e24a74a70e9c11fd2c2281df8d6ea13126ff845f7825c89826040518080602001828103825283818151815260200191508051906020019060200280838360005b83811015611c7c578181015183820152602001611c64565b505050509050019250505060405180910390a250611cad565b611ca182858386613e7f565b611ca96138c9565b6019555b836001600160a01b0316826001600160a01b0316827fad4c947995a3daa512a7371d31325a21227249f8dc1c52c1a4c6fe8475a3ebb160405160405180910390a450505050565b6000611cfe6114c5565b8015611d0c575060055460ff165b905090565b60008181526009602052604081205480611d2f5760009150506114f3565b80611d386138c9565b11159392505050565b602855565b600c546001600160a01b031681565b6001600160a01b03166000908152601c60209081526040808320548352600990915290205490565b611d85611833565b611d8e57600080fd5b336000908152601d602052604090205480611da857600080fd5b611e1c8186868080601f01602080910402602001604051908101604052809392919081815260200183838082843760009201919091525050604080516020601f8a018190048102820181019092528881529250889150879081908401838280828437600092019190915250613cdd92505050565b611e246138c9565b6019555050505050565b600c546001600160a01b03163314611e4557600080fd5b6015546040805163a5d54f6560e01b815290516060926001600160a01b03169163a5d54f65916004808301926000929190829003018186803b158015611e8a57600080fd5b505afa158015611e9e573d6000803e3d6000fd5b505050506040513d6000823e601f3d908101601f191682016040526020811015611ec757600080fd5b810190808051600160201b811115611ede57600080fd5b82016020810184811115611ef157600080fd5b81518560208202830111600160201b82111715611f0d57600080fd5b505060265490945060009350601310159150611f2c9050576000611f33565b6026546013035b9050808251118015611f4457508015155b156121e05760115460408051634191031360e11b815290516000926001600160a01b0316916383220626916004808301926020929190829003018186803b158015611f8e57600080fd5b505afa158015611fa2573d6000803e3d6000fd5b505050506040513d6020811015611fb857600080fd5b50516015546040805163957950a760e01b815290519293506060926000926001600160a01b03169163957950a79160048083019286929190829003018186803b15801561200457600080fd5b505afa158015612018573d6000803e3d6000fd5b505050506040513d6000823e601f3d908101601f19168201604090815281101561204157600080fd5b810190808051600160201b81111561205857600080fd5b8201602081018481111561206b57600080fd5b81518560208202830111600160201b8211171561208757600080fd5b505060209091015181519195509350158015925090506120a75750600081115b156121d8576060846040519080825280602002602001820160405280156120d8578160200160208202803883390190505b50865190915060005b82518110156121cb5760408051602080820198909852815180820389018152908201909152805196019590952094600061211c868689613938565b905088818151811061212a57fe5b602002602001015184838151811061213e57fe5b60200260200101818152505085818151811061215657fe5b60200260200101518503945082806001900393505088838151811061217757fe5b602002602001015189828151811061218b57fe5b6020026020010181815250508583815181106121a357fe5b60200260200101518682815181106121b757fe5b6020908102919091010152506001016120e1565b506121d582613f08565b50505b5050506121e9565b6121e982613f08565b6121f3600161388d565b81511561226357601560009054906101000a90046001600160a01b03166001600160a01b0316631555371c6040518163ffffffff1660e01b8152600401600060405180830381600087803b15801561224a57600080fd5b505af115801561225e573d6000803e3d6000fd5b505050505b601560009054906101000a90046001600160a01b03166001600160a01b031663ee435f556040518163ffffffff1660e01b8152600401600060405180830381600087803b1580156122b357600080fd5b505af11580156122c7573d6000803e3d6000fd5b50506015546001600160a01b031691506320d96e4690506122e66138c9565b6001016040518263ffffffff1660e01b815260040180828152602001915050600060405180830381600087803b15801561231f57600080fd5b505af1158015612333573d6000803e3d6000fd5b50506000601855506116ea90506138c9565b6060600180548060200260200160405190810160405280929190818152602001828054801561140657602002820191906000526020600020908154815260200190600101908083116113f2575050505050905090565b601b6020526000908152604090205460ff1681565b6123b86138c9565b15806123dc57506123c7613985565b6001600160a01b0316336001600160a01b0316145b6123e557600080fd5b6123ed611833565b156123f757600080fd5b6001600160a01b03891661240a57600080fd5b6001600160a01b03871661241d57600080fd5b6001600160a01b03861661243057600080fd5b8361243a57600080fd5b83821461244657600080fd5b601384111561245457600080fd5b600c80546001600160a01b03808c166001600160a01b031992831617909255602580548b8416908316179055601180548a841690831617905560158054928916929091169190911790556124a66138c9565b60195560005b848110156125ee5760008686838181106124c257fe5b905060200201356001600160a01b0316905060008585848181106124e257fe5b905060200201356001600160a01b03169050600061250083836139aa565b60008054600181810183557f290decd9548b62a8d60345a988386fc84ba6bc95484008f6362f93160ef3e563909101839055805480820182557fb10e2d527612073b26eecdfd717e6a320cf44b4afac2b0732d9fcbe2b7fa0cf601839055828252600e60209081526040808420805460ff1916841790556017909152909120805490910190559050831580156125935750845b156125e3576026805460018181019092557f744a2cf8fd7008e3d53b67916e73460df9fa5214e3ef23dd4259ca09493a3594018290556000828152602760205260409020805460ff191690911790555b5050506001016124ac565b50505050505050505050565b60265460009061260c5750600061140e565b602660008154811061261a57fe5b9060005260206000200154905090565b601381565b60195481565b61263d614134565b6001600160a01b0316336001600160a01b03161461265a57600080fd5b60035460ff16156126ef5761266d614143565b61267760016141fc565b600c60009054906101000a90046001600160a01b03166001600160a01b031663c5dd76286040518163ffffffff1660e01b8152600401600060405180830381600087803b1580156126c757600080fd5b505af11580156126db573d6000803e3d6000fd5b505050506126e76138c9565b601855612712565b600454156127065761270160006141fc565b612712565b61270e6138c9565b6018555b61271a614370565b6003805460ff191681556000612731600482614886565b505061273b6138c9565b601955565b612748611833565b61275157600080fd5b336000818152601d60205260409020546001600160a01b03831661277457600080fd5b826001600160a01b0316826001600160a01b0316141561279357600080fd5b8061279d57600080fd5b602154156127aa57600080fd5b601554604080516322e8c68760e21b81526001600160a01b03868116600483015291519190921691638ba31a1c916024808301926020929190829003018186803b1580156127f757600080fd5b505afa15801561280b573d6000803e3d6000fd5b505050506040513d602081101561282157600080fd5b50511561282d57600080fd5b6001600160a01b0383166000908152601a60205260409020541561285057600080fd5b6001600160a01b0383166000908152601b602052604090205460ff161561287657600080fd5b6000818152601e60209081526040808320546001600160a01b03868116808652601d85528386208690558882168087528487208890559086526010855283862080546001600160a01b03199081169091558187528487208054821693909416928317909355868652601f855283862080548416821790558186526014855283862080549093168117909255908452601b909252909120805460ff1916600117905561291f6138c9565b6019556040516001600160a01b03808616919085169084907f5c44164828293bba0353472e907f7ee26a8659f916e6311fe826a7c70510e35290600090a450505050565b601a6020526000908152604090205481565b600080821561299d57506001600160a01b0383166000908152601c60205260409020546129b8565b506001600160a01b0383166000908152601a60205260409020545b6000818152600e602052604081205460ff1680156129dc57506129da82611d11565b155b9050601560009054906101000a90046001600160a01b03166001600160a01b031663794c0c686040518163ffffffff1660e01b815260040160206040518083038186803b158015612a2c57600080fd5b505afa158015612a40573d6000803e3d6000fd5b505050506040513d6020811015612a5657600080fd5b50511580612a645750601854155b15612a72579150612ac29050565b6013601854612a7f6138c9565b0311612abe576000828152600f602052604081205460ff168015612aa95750612aa783611d11565b155b90508180612ab45750805b9350505050612ac2565b9150505b92915050565b6021546022546001600160a01b031682565b612ae2611833565b612aeb57600080fd5b612af3611cf4565b612afc57600080fd5b6000612b066143cf565b60015490915015612bc0576001612b1b6138c9565b03407f55252fa6eee4741b4e24a74a70e9c11fd2c2281df8d6ea13126ff845f7825c89612b46613662565b60408051602080825283518183015283519192839290830191858101910280838360005b83811015612b82578181015183820152602001612b6a565b505050509050019250505060405180910390a260018054612ba591600491614836565b506003805460ff1916821515179055612bbc6138c9565b6019555b50565b612bcb613985565b6001600160a01b0316336001600160a01b031614612be857600080fd5b612bc0816143e7565b600e6020526000908152604090205460ff1681565b601580546001600160a01b0319166001600160a01b0392909216919091179055565b601d6020526000908152604090205481565b6000818152600e602052604081205460ff1615612c59575060016114f3565b6004546000905b80821015612c9e576004805483908110612c7657fe5b9060005260206000200154841415612c93576001925050506114f3565b600190910190612c60565b50506001546000905b80821015612ce45760018281548110612cbc57fe5b9060005260206000200154841415612cd9576001925050506114f3565b600190910190612ca7565b5060009392505050565b6000818152600a6020526040812054612d056138c9565b111592915050565b60205481565b600080612d21856001612975565b612d3057506000905080612ef7565b612d3b846000612975565b612d4a57506000905080612ef7565b6001600160a01b038086166000908152601c60209081526040808320549388168352601a90915281205490546001811115612e625760155460408051630f29818d60e31b815290516000926001600160a01b03169163794c0c68916004808301926020929190829003018186803b158015612dc457600080fd5b505afa158015612dd8573d6000803e3d6000fd5b505050506040513d6020811015612dee57600080fd5b5051600085815260126020908152604080832084845282528083205460139092528220549293509190828210612e335760018503838303600a0281612e2f57fe5b0490505b8460320283118015612e4457508083115b15612e5d57600060019850985050505050505050612ef7565b505050505b6000612e6c6138c9565b905080871115612e86576000809550955050505050612ef7565b60648082118015612e98575080820388105b15612eae57600080965096505050505050612ef7565b60008481526007602090815260408083208b8452825280832088845290915290205460ff1615612ee957600080965096505050505050612ef7565b600160009650965050505050505b935093915050565b6000612f0a826114cc565b612d056138c9565b600080612f1e83611d55565b905080611d2f5760009150506114f3565b6025546001600160a01b031681565b612f46613985565b6001600160a01b0316336001600160a01b031614612f6357600080fd5b60265415612f7057600080fd5b601654736a3154a1f55a8faf96dfde75d25eff0c06eb678414612f9257600080fd5b6016805460268054600181810183557f744a2cf8fd7008e3d53b67916e73460df9fa5214e3ef23dd4259ca09493a35949182019390935581548084019092557359be7069745a9820a75aa66357a50a5d7f66ced591018190558254600090815260276020526040808220805460ff1990811686179091559282527f4bf96c2adb0c7a309689f5f3e58c1a880f1b61efb59c1459be862d2666e5acdb8054909316909317909155601554925482516394f3a24160e01b8152600481019190915291516001600160a01b03909316926394f3a24192602480820193929182900301818387803b15801561308257600080fd5b505af1158015613096573d6000803e3d6000fd5b5050601554604080516394f3a24160e01b81527359be7069745a9820a75aa66357a50a5d7f66ced5600482015290516001600160a01b0390921693506394f3a241925060248082019260009290919082900301818387803b1580156130fa57600080fd5b505af115801561310e573d6000803e3d6000fd5b505060006016555050565b6001600160a01b03166000908152601c60209081526040808320548352601790915290205490565b606080600080549050604051908082528060200260200182016040528015613173578160200160208202803883390190505b50905060005b81518110156131eb57601e600080838154811061319257fe5b9060005260206000200154815260200190815260200160002060009054906101000a90046001600160a01b03168282815181106131cb57fe5b6001600160a01b0390921660209283029190910190910152600101613179565b50905090565b60185481565b6131ff611833565b61320857600080fd5b336000818152601c60209081526040808320546001600160a01b0389168452601a9092529091205461323b836001612975565b1561324957613249826144c0565b600080613257858a8a612d13565b91509150816132d35780156132c95760408051600180825281830190925260609160208083019080388339019050509050858160008151811061329657fe5b60200260200101906001600160a01b031690816001600160a01b0316815250506132c781637370616d60e01b6138cf565b505b50505050506133fc565b60008381526006602090815260408083208b84528252808320805460018181018355828652848620909101899055878552600784528285208d86528452828520898652845293829020805460ff191690941790935580516001600160a01b03808a1682528d16928101929092528051869288928d927fc98c577e9aca0ce08e747dd843b95214821e69106d6916218997e8a8f357f3189281900390910190a4600054815461338890600263ffffffff613e4316565b11156125ee57604080516001808252818301909252606091602080830190803883390190505090508a816000815181106133be57fe5b60200260200101906001600160a01b031690816001600160a01b0316815250506133f481686d616c6963696f757360b81b6138cf565b505050505050505b50505050565b61340e60016000614886565b613418600161388d565b565b6001600160a01b03166000908152601c60209081526040808320548352600b90915290205490565b60008061344d6138c9565b9050806001018311156134645760009150506114be565b60648111801561347657508260648203115b156134855760009150506114be565b6001600160a01b0384166000908152601a60205260409020546134a781611d11565b156134b7576000925050506114be565b6001600160a01b0386166000908152601c6020908152604080832054938352600782528083208784528252808320938352929052205460ff16159150509392505050565b60236020908152600091825260409182902080548351601f60026000196101006001861615020190931692909204918201849004840281018401909452808452909183018282801561182b5780601f106118005761010080835404028352916020019161182b565b6011546001600160a01b031681565b61357a613985565b6001600160a01b0316336001600160a01b03161461359757600080fd5b60005b81811015611309576135bd8383838181106135b157fe5b905060200201356143e7565b60010161359a565b600d5481565b601855565b60005b81518110156113925760008282815181106135ea57fe5b6020908102919091018101516001600160a01b03166000818152601d909252604090912055506001016135d3565b601e602052600090815260409020546001600160a01b031681565b602080546001019055565b60276020526000908152604090205460ff1681565b6015546001600160a01b031681565b606080600180549050604051908082528060200260200182016040528015613694578160200160208202803883390190505b50905060005b81518110156131eb57601e6000600183815481106136b457fe5b9060005260206000200154815260200190815260200160002060009054906101000a90046001600160a01b03168282815181106136ed57fe5b6001600160a01b039092166020928302919091019091015260010161369a565b6001600160a01b03166000908152601c60209081526040808320548352600e90915290205460ff1690565b6060600080548060200260200160405190810160405280929190818152602001828054801561140657602002820191906000526020600020908154815260200190600101908083116113f2575050505050905090565b60155460408051630a38dcbd60e41b81526004810184905290516000926001600160a01b03169163a38dcbd0916024808301928692919082900301818387803b1580156137da57600080fd5b505af11580156137ee573d6000803e3d6000fd5b505060018054925082141590506138095760009150506114f3565b60005b81811015612ce457836001828154811061382257fe5b906000526020600020015414156138855760018083038154811061384257fe5b90600052602060002001546001828154811061385a57fe5b6000918252602090912001556001805490613879906000198301614812565b506001925050506114f3565b60010161380c565b6005805460ff191660011790558080156138a8575060015415155b156138bd576005805461ff0019166101001790555b50600d80546001019055565b60285490565b6000805b8351811015613927576138f98482815181106138eb57fe5b602002602001015184614567565b1561391f5761391a84828151811061390d57fe5b6020026020010151614621565b600191505b6001016138d3565b5080156112fd576112fd600061388d565b60008083838161394457fe5b0690506000805b8282116139775786818151811061395e57fe5b602002602001015182019150808060010191505061394b565b600019019695505050505050565b7fb53127684a568b3173ae13b9f8a6016e243e63b6e8ee1178d6a717850b5d61035490565b602154600090156139ba57600080fd5b6001600160a01b0383166139cd57600080fd5b6001600160a01b0382166139e057600080fd5b816001600160a01b0316836001600160a01b031614156139ff57600080fd5b6001600160a01b038281166000908152601060205260409020541615613a2457600080fd5b6001600160a01b038381166000908152601060205260409020541615613a4957600080fd5b6001600160a01b038281166000908152601460205260409020541615613a6e57600080fd5b6001600160a01b038381166000908152601460205260409020541615613a9357600080fd5b601554604080516322e8c68760e21b81526001600160a01b03868116600483015291519190921691638ba31a1c916024808301926020929190829003018186803b158015613ae057600080fd5b505afa158015613af4573d6000803e3d6000fd5b505050506040513d6020811015613b0a57600080fd5b505115613b1657600080fd5b601554604080516322e8c68760e21b81526001600160a01b03858116600483015291519190921691638ba31a1c916024808301926020929190829003018186803b158015613b6357600080fd5b505afa158015613b77573d6000803e3d6000fd5b505050506040513d6020811015613b8d57600080fd5b505115613b9957600080fd5b6001600160a01b0383166000908152601a602052604090205415613bbc57600080fd5b6001600160a01b0382166000908152601a602052604090205415613bdf57600080fd5b6001600160a01b0383166000908152601b602052604090205460ff1615613c0557600080fd5b6001600160a01b0382166000908152601b602052604090205460ff1615613c2b57600080fd5b506020805460019081018083556001600160a01b039485166000818152601c8552604080822084905595909616808752601d8552858720839055828752601e855285872080546001600160a01b03199081168417909155818852601086528688208054821684179055838852601f865286882080548216831790559187526014855285872080549092168117909155601a84528486208290558552601b90925291909220805460ff1916909117905590565b61010082511115613ced57600080fd5b61040081511115613cfd57600080fd5b60008381526023602090815260409091208351613d1c928501906148a4565b5060008381526024602090815260409091208251613d3c928401906148a4565b50827f79a6be597f1291d06b4ccea662f373201edec72cbcc5df2ccfcd74ce9ff4b2e98383604051808060200180602001838103835285818151815260200191508051906020019080838360005b83811015613da2578181015183820152602001613d8a565b50505050905090810190601f168015613dcf5780820380516001836020036101000a031916815260200191505b50838103825284518152845160209182019186019080838360005b83811015613e02578181015183820152602001613dea565b50505050905090810190601f168015613e2f5780820380516001836020036101000a031916815260200191505b5094505050505060405180910390a2505050565b600082613e5257506000612ac2565b82820282848281613e5f57fe5b04146114be57600080fd5b600082821115613e7957600080fd5b50900390565b6001600160a01b039384166000818152601c60209081526040808320839055958716808352868320869055858352601e825286832080546001600160a01b0319908116831790915594909716808352601082528683208054861689179055928252601481528582208054851690559581528481208054909316909117909155601a909352912055565b80516140d05760005b6001548110156140ca57600060018281548110613f2a57fe5b6000918252602080832090910154808352602790915260409091205490915060ff1615613f5757506140c2565b601554604080516317775f1960e31b81526004810184905290516001600160a01b039092169163bbbaf8c891602480820192602092909190829003018186803b158015613fa357600080fd5b505afa158015613fb7573d6000803e3d6000fd5b505050506040513d6020811015613fcd57600080fd5b505180156140575750601554604080516371f87fb360e11b8152600481018490526000602482015290516001600160a01b039092169163e3f0ff6691604480820192602092909190829003018186803b15801561402957600080fd5b505afa15801561403d573d6000803e3d6000fd5b505050506040513d602081101561405357600080fd5b5051155b1561406257506140c2565b60018054141561407257506140ca565b60018054600019810190811061408457fe5b90600052602060002001546001838154811061409c57fe5b60009182526020909120015560018054906140bb906000198301614812565b5050600019015b600101613f11565b50612bc0565b602680546140e091600191614836565b5060005b8151811080156140f657506001546013115b1561139257600182828151811061410957fe5b60209081029190910181015182546001818101855560009485529290932090920191909155016140e4565b6029546001600160a01b031690565b60025460005b81811015614197576000600f60006002848154811061416457fe5b60009182526020808320919091015483528201929092526040019020805460ff1916911515919091179055600101614149565b505060008054905b818110156141ec576001600f60008084815481106141b957fe5b60009182526020808320919091015483528201929092526040019020805460ff191691151591909117905560010161419f565b6000805461130991600291614836565b606060008080548060200260200160405190810160405280929190818152602001828054801561424b57602002820191906000526020600020905b815481526020019060010190808311614237575b50505050509150600090505b81518110156142a3576000600e600084848151811061427257fe5b6020908102919091018101518252810191909152604001600020805460ff1916911515919091179055600101614257565b600480546142b391600091614836565b50600080548060200260200160405190810160405280929190818152602001828054801561430057602002820191906000526020600020905b8154815260200190600101908083116142ec575b50505050509150600090505b815181101561130957600082828151811061432357fe5b6020908102919091018101516000818152600e9092526040909120805460ff1916600117905590508315614367576000818152601760205260409020805460010190555b5060010161430c565b60215480156143b7576000818152601e6020908152604080832054602254601f9093529220546001600160a01b039283169291821691166143b383838684613e7f565b5050505b506000602155602280546001600160a01b0319169055565b6005805461ffff198116909155610100900460ff1690565b60008181526027602052604090205460ff161561440357600080fd5b60265460131161441257600080fd5b6026805460018181019092557f744a2cf8fd7008e3d53b67916e73460df9fa5214e3ef23dd4259ca09493a359401829055600082815260276020526040808220805460ff191690931790925560155482516394f3a24160e01b81526004810185905292516001600160a01b03909116926394f3a24192602480830193919282900301818387803b1580156144a557600080fd5b505af11580156144b9573d6000803e3d6000fd5b5050505050565b60155460408051630f29818d60e31b815290516000926001600160a01b03169163794c0c68916004808301926020929190829003018186803b15801561450557600080fd5b505afa158015614519573d6000803e3d6000fd5b505050506040513d602081101561452f57600080fd5b505160009283526012602090815260408085209285529181528184208054600190810190915560139091529220805490920190915550565b6001600160a01b0382166000908152601a6020908152604080832054808452602790925282205460ff16156145a0576000915050612ac2565b60006145ab82611d11565b60008381526008602052604090208054600101905590506145ca614702565b600083815260096020908152604080832093909355600b90522084905580156145f857600092505050612ac2565b614600614702565b6000838152600a60205260409020556146188261378e565b95945050505050565b6001600160a01b038082166000908152601a60209081526040808320546015548251630f29818d60e31b815292519195169263794c0c689260048082019391829003018186803b15801561467457600080fd5b505afa158015614688573d6000803e3d6000fd5b505050506040513d602081101561469e57600080fd5b505160008181526013602090815260408083205486845260128352818420858552909252822080549290559192508082106146ed576000838152601360205260409020805482900390556144b9565b50506000908152601360205260408120555050565b60008061470d6138c9565b601560009054906101000a90046001600160a01b03166001600160a01b0316638c2243ae6040518163ffffffff1660e01b815260040160206040518083038186803b15801561475b57600080fd5b505afa15801561476f573d6000803e3d6000fd5b505050506040513d602081101561478557600080fd5b50516015546040805163d609ea9360e01b8152905193909203935083926001600160a01b039091169163d609ea93916004808301926020929190829003018186803b1580156147d357600080fd5b505afa1580156147e7573d6000803e3d6000fd5b505050506040513d60208110156147fd57600080fd5b5051600c0261480a6138c9565b010191505090565b81548183558181111561130957600083815260209020611309918101908301614912565b8280548282559060005260206000209081019282156148765760005260206000209182015b8281111561487657825482559160010191906001019061485b565b50614882929150614912565b5090565b5080546000825590600052602060002090810190612bc09190614912565b828054600181600116156101000203166002900490600052602060002090601f016020900481019282601f106148e557805160ff1916838001178555614876565b82800160010185558215614876579182015b828111156148765782518255916020019190600101906148f7565b61140e91905b80821115614882576000815560010161491856fea265627a7a723058201fecc640edbb407ab234ae6191e90bbe0f77b7620e186b46780dd20cd1c14f3464736f6c634300050a0032",
  "linkReferences": {},
  "deployedLinkReferences": {}
}