{
  "_format": "hh-sol-artifact-1",
  "contractName": "BlockRewardAuRaTokens",
  "sourceName": "posdao-contracts/contracts/base/BlockRewardAuRaTokens.sol",
  "abi": [
    {
      "constant": true,
      "inputs": [
        {
          "name": "",
          "type": "uint256"
        },
        {
          "name": "",
          "type": "uint256"
        }
      ],
      "name": "snapshotPoolTotalStakeAmount",
      "outputs": [
        {
          "name": "",
          "type": "uint256"
        }
      ],
      "payable": false,
      "stateMutability": "view",
      "type": "function"
    },
    {
      "constant": false,
      "inputs": [
        {
          "name": "_tokenMinterContract",
          "type": "address"
        }
      ],
      "name": "setTokenMinterContract",
      "outputs": [],
      "payable": false,
      "stateMutability": "nonpayable",
      "type": "function"
    },
    {
      "constant": true,
      "inputs": [
        {
          "name": "_stakingEpoch",
          "type": "uint256"
        },
        {
          "name": "_poolId",
          "type": "uint256"
        }
      ],
      "name": "getValidatorReward",
      "outputs": [
        {
          "name": "tokenReward",
          "type": "uint256"
        },
        {
          "name": "nativeReward",
          "type": "uint256"
        }
      ],
      "payable": false,
      "stateMutability": "view",
      "type": "function"
    },
    {
      "constant": false,
      "inputs": [
        {
          "name": "_amount",
          "type": "uint256"
        }
      ],
      "name": "addBridgeTokenFeeReceivers",
      "outputs": [],
      "payable": false,
      "stateMutability": "nonpayable",
      "type": "function"
    },
    {
      "constant": false,
      "inputs": [
        {
          "name": "_bridgesAllowed",
          "type": "address[]"
        }
      ],
      "name": "setErcToNativeBridgesAllowed",
      "outputs": [],
      "payable": false,
      "stateMutability": "nonpayable",
      "type": "function"
    },
    {
      "constant": true,
      "inputs": [
        {
          "name": "",
          "type": "uint256"
        },
        {
          "name": "",
          "type": "uint256"
        }
      ],
      "name": "epochPoolNativeReward",
      "outputs": [
        {
          "name": "",
          "type": "uint256"
        }
      ],
      "payable": false,
      "stateMutability": "view",
      "type": "function"
    },
    {
      "constant": true,
      "inputs": [
        {
          "name": "_rewardToDistribute",
          "type": "uint256"
        },
        {
          "name": "_blocksCreatedShareNum",
          "type": "uint256[]"
        },
        {
          "name": "_blocksCreatedShareDenom",
          "type": "uint256"
        },
        {
          "name": "_stakingEpoch",
          "type": "uint256"
        }
      ],
      "name": "currentPoolRewards",
      "outputs": [
        {
          "name": "",
          "type": "uint256[]"
        }
      ],
      "payable": false,
      "stateMutability": "view",
      "type": "function"
    },
    {
      "constant": false,
      "inputs": [
        {
          "name": "_amount",
          "type": "uint256"
        }
      ],
      "name": "addBridgeNativeRewardReceivers",
      "outputs": [],
      "payable": false,
      "stateMutability": "nonpayable",
      "type": "function"
    },
    {
      "constant": true,
      "inputs": [],
      "name": "blockRewardContractId",
      "outputs": [
        {
          "name": "",
          "type": "bytes4"
        }
      ],
      "payable": false,
      "stateMutability": "pure",
      "type": "function"
    },
    {
      "constant": true,
      "inputs": [
        {
          "name": "_stakingContract",
          "type": "address"
        },
        {
          "name": "_stakingEpoch",
          "type": "uint256"
        },
        {
          "name": "_totalRewardShareNum",
          "type": "uint256"
        },
        {
          "name": "_totalRewardShareDenom",
          "type": "uint256"
        },
        {
          "name": "_validators",
          "type": "uint256[]"
        }
      ],
      "name": "currentNativeRewardToDistribute",
      "outputs": [
        {
          "name": "",
          "type": "uint256"
        },
        {
          "name": "",
          "type": "uint256"
        }
      ],
      "payable": false,
      "stateMutability": "view",
      "type": "function"
    },
    {
      "constant": true,
      "inputs": [
        {
          "name": "",
          "type": "address"
        },
        {
          "name": "",
          "type": "uint256"
        }
      ],
      "name": "mintedForAccountInBlock",
      "outputs": [
        {
          "name": "",
          "type": "uint256"
        }
      ],
      "payable": false,
      "stateMutability": "view",
      "type": "function"
    },
    {
      "constant": true,
      "inputs": [],
      "name": "isInitialized",
      "outputs": [
        {
          "name": "",
          "type": "bool"
        }
      ],
      "payable": false,
      "stateMutability": "view",
      "type": "function"
    },
    {
      "constant": true,
      "inputs": [
        {
          "name": "_poolId",
          "type": "uint256"
        }
      ],
      "name": "validatorRewardPercent",
      "outputs": [
        {
          "name": "",
          "type": "uint256"
        }
      ],
      "payable": false,
      "stateMutability": "view",
      "type": "function"
    },
    {
      "constant": true,
      "inputs": [
        {
          "name": "",
          "type": "address"
        }
      ],
      "name": "mintedForAccount",
      "outputs": [
        {
          "name": "",
          "type": "uint256"
        }
      ],
      "payable": false,
      "stateMutability": "view",
      "type": "function"
    },
    {
      "constant": true,
      "inputs": [],
      "name": "ercToNativeBridgesAllowed",
      "outputs": [
        {
          "name": "",
          "type": "address[]"
        }
      ],
      "payable": false,
      "stateMutability": "view",
      "type": "function"
    },
    {
      "constant": true,
      "inputs": [
        {
          "name": "_stakingContract",
          "type": "address"
        },
        {
          "name": "_stakingEpoch",
          "type": "uint256"
        },
        {
          "name": "_totalRewardShareNum",
          "type": "uint256"
        },
        {
          "name": "_totalRewardShareDenom",
          "type": "uint256"
        },
        {
          "name": "_validators",
          "type": "uint256[]"
        }
      ],
      "name": "currentTokenRewardToDistribute",
      "outputs": [
        {
          "name": "",
          "type": "uint256"
        },
        {
          "name": "",
          "type": "uint256"
        }
      ],
      "payable": false,
      "stateMutability": "view",
      "type": "function"
    },
    {
      "constant": true,
      "inputs": [
        {
          "name": "",
          "type": "uint256"
        }
      ],
      "name": "mintedInBlock",
      "outputs": [
        {
          "name": "",
          "type": "uint256"
        }
      ],
      "payable": false,
      "stateMutability": "view",
      "type": "function"
    },
    {
      "constant": false,
      "inputs": [
        {
          "name": "_validatorSet",
          "type": "address"
        },
        {
          "name": "_prevBlockReward",
          "type": "address"
        }
      ],
      "name": "initialize",
      "outputs": [],
      "payable": false,
      "stateMutability": "nonpayable",
      "type": "function"
    },
    {
      "constant": true,
      "inputs": [],
      "name": "STAKE_TOKEN_INFLATION_RATE",
      "outputs": [
        {
          "name": "",
          "type": "uint256"
        }
      ],
      "payable": false,
      "stateMutability": "view",
      "type": "function"
    },
    {
      "constant": true,
      "inputs": [
        {
          "name": "_poolStakingAddress",
          "type": "address"
        },
        {
          "name": "_staker",
          "type": "address"
        }
      ],
      "name": "epochsToClaimRewardFrom",
      "outputs": [
        {
          "name": "epochsToClaimFrom",
          "type": "uint256[]"
        }
      ],
      "payable": false,
      "stateMutability": "view",
      "type": "function"
    },
    {
      "constant": false,
      "inputs": [
        {
          "name": "_amount",
          "type": "uint256"
        }
      ],
      "name": "addBridgeNativeFeeReceivers",
      "outputs": [],
      "payable": false,
      "stateMutability": "nonpayable",
      "type": "function"
    },
    {
      "constant": true,
      "inputs": [],
      "name": "mintedTotally",
      "outputs": [
        {
          "name": "",
          "type": "uint256"
        }
      ],
      "payable": false,
      "stateMutability": "view",
      "type": "function"
    },
    {
      "constant": true,
      "inputs": [
        {
          "name": "_stakingEpoch",
          "type": "uint256"
        },
        {
          "name": "_delegatorStaked",
          "type": "uint256"
        },
        {
          "name": "_validatorStaked",
          "type": "uint256"
        },
        {
          "name": "_totalStaked",
          "type": "uint256"
        },
        {
          "name": "_poolReward",
          "type": "uint256"
        }
      ],
      "name": "delegatorShare",
      "outputs": [
        {
          "name": "",
          "type": "uint256"
        }
      ],
      "payable": false,
      "stateMutability": "view",
      "type": "function"
    },
    {
      "constant": false,
      "inputs": [
        {
          "name": "_amount",
          "type": "uint256"
        }
      ],
      "name": "addBridgeTokenRewardReceivers",
      "outputs": [],
      "payable": false,
      "stateMutability": "nonpayable",
      "type": "function"
    },
    {
      "constant": false,
      "inputs": [
        {
          "name": "_bridgesAllowed",
          "type": "address[]"
        }
      ],
      "name": "setNativeToErcBridgesAllowed",
      "outputs": [],
      "payable": false,
      "stateMutability": "nonpayable",
      "type": "function"
    },
    {
      "constant": true,
      "inputs": [],
      "name": "tokenRewardUndistributed",
      "outputs": [
        {
          "name": "",
          "type": "uint256"
        }
      ],
      "payable": false,
      "stateMutability": "view",
      "type": "function"
    },
    {
      "constant": false,
      "inputs": [
        {
          "name": "_tokens",
          "type": "uint256"
        },
        {
          "name": "_nativeCoins",
          "type": "uint256"
        },
        {
          "name": "_to",
          "type": "address"
        }
      ],
      "name": "transferReward",
      "outputs": [],
      "payable": false,
      "stateMutability": "nonpayable",
      "type": "function"
    },
    {
      "constant": true,
      "inputs": [
        {
          "name": "",
          "type": "uint256"
        },
        {
          "name": "",
          "type": "uint256"
        }
      ],
      "name": "snapshotPoolValidatorStakeAmount",
      "outputs": [
        {
          "name": "",
          "type": "uint256"
        }
      ],
      "payable": false,
      "stateMutability": "view",
      "type": "function"
    },
    {
      "constant": true,
      "inputs": [
        {
          "name": "_stakingEpoch",
          "type": "uint256"
        },
        {
          "name": "_validatorStaked",
          "type": "uint256"
        },
        {
          "name": "_totalStaked",
          "type": "uint256"
        },
        {
          "name": "_poolReward",
          "type": "uint256"
        }
      ],
      "name": "validatorShare",
      "outputs": [
        {
          "name": "",
          "type": "uint256"
        }
      ],
      "payable": false,
      "stateMutability": "view",
      "type": "function"
    },
    {
      "constant": true,
      "inputs": [
        {
          "name": "_delegatorStake",
          "type": "uint256"
        },
        {
          "name": "_stakingEpoch",
          "type": "uint256"
        },
        {
          "name": "_poolId",
          "type": "uint256"
        }
      ],
      "name": "getDelegatorReward",
      "outputs": [
        {
          "name": "tokenReward",
          "type": "uint256"
        },
        {
          "name": "nativeReward",
          "type": "uint256"
        }
      ],
      "payable": false,
      "stateMutability": "view",
      "type": "function"
    },
    {
      "constant": false,
      "inputs": [
        {
          "name": "_bridgesAllowed",
          "type": "address[]"
        }
      ],
      "name": "setErcToErcBridgesAllowed",
      "outputs": [],
      "payable": false,
      "stateMutability": "nonpayable",
      "type": "function"
    },
    {
      "constant": true,
      "inputs": [],
      "name": "ercToErcBridgesAllowed",
      "outputs": [
        {
          "name": "",
          "type": "address[]"
        }
      ],
      "payable": false,
      "stateMutability": "view",
      "type": "function"
    },
    {
      "constant": true,
      "inputs": [
        {
          "name": "",
          "type": "address"
        },
        {
          "name": "",
          "type": "uint256"
        },
        {
          "name": "",
          "type": "bytes"
        }
      ],
      "name": "onTokenTransfer",
      "outputs": [
        {
          "name": "",
          "type": "bool"
        }
      ],
      "payable": false,
      "stateMutability": "pure",
      "type": "function"
    },
    {
      "constant": true,
      "inputs": [],
      "name": "extraReceiversQueueSize",
      "outputs": [
        {
          "name": "",
          "type": "uint256"
        }
      ],
      "payable": false,
      "stateMutability": "view",
      "type": "function"
    },
    {
      "constant": false,
      "inputs": [
        {
          "name": "_amount",
          "type": "uint256"
        },
        {
          "name": "_receiver",
          "type": "address"
        }
      ],
      "name": "addExtraReceiver",
      "outputs": [],
      "payable": false,
      "stateMutability": "nonpayable",
      "type": "function"
    },
    {
      "constant": true,
      "inputs": [],
      "name": "bridgeNativeReward",
      "outputs": [
        {
          "name": "",
          "type": "uint256"
        }
      ],
      "payable": false,
      "stateMutability": "view",
      "type": "function"
    },
    {
      "constant": true,
      "inputs": [],
      "name": "nativeRewardUndistributed",
      "outputs": [
        {
          "name": "",
          "type": "uint256"
        }
      ],
      "payable": false,
      "stateMutability": "view",
      "type": "function"
    },
    {
      "constant": true,
      "inputs": [],
      "name": "nativeToErcBridgesAllowed",
      "outputs": [
        {
          "name": "",
          "type": "address[]"
        }
      ],
      "payable": false,
      "stateMutability": "view",
      "type": "function"
    },
    {
      "constant": true,
      "inputs": [
        {
          "name": "",
          "type": "address"
        }
      ],
      "name": "mintedTotallyByBridge",
      "outputs": [
        {
          "name": "",
          "type": "uint256"
        }
      ],
      "payable": false,
      "stateMutability": "view",
      "type": "function"
    },
    {
      "constant": false,
      "inputs": [],
      "name": "clearBlocksCreated",
      "outputs": [],
      "payable": false,
      "stateMutability": "nonpayable",
      "type": "function"
    },
    {
      "constant": true,
      "inputs": [],
      "name": "tokenMinterContract",
      "outputs": [
        {
          "name": "",
          "type": "address"
        }
      ],
      "payable": false,
      "stateMutability": "view",
      "type": "function"
    },
    {
      "constant": true,
      "inputs": [
        {
          "name": "",
          "type": "uint256"
        }
      ],
      "name": "validatorMinRewardPercent",
      "outputs": [
        {
          "name": "",
          "type": "uint256"
        }
      ],
      "payable": false,
      "stateMutability": "view",
      "type": "function"
    },
    {
      "constant": true,
      "inputs": [],
      "name": "validatorSetContract",
      "outputs": [
        {
          "name": "",
          "type": "address"
        }
      ],
      "payable": false,
      "stateMutability": "view",
      "type": "function"
    },
    {
      "constant": true,
      "inputs": [
        {
          "name": "",
          "type": "uint256"
        },
        {
          "name": "",
          "type": "uint256"
        }
      ],
      "name": "epochPoolTokenReward",
      "outputs": [
        {
          "name": "",
          "type": "uint256"
        }
      ],
      "payable": false,
      "stateMutability": "view",
      "type": "function"
    },
    {
      "constant": true,
      "inputs": [
        {
          "name": "_poolId",
          "type": "uint256"
        }
      ],
      "name": "epochsPoolGotRewardFor",
      "outputs": [
        {
          "name": "",
          "type": "uint256[]"
        }
      ],
      "payable": false,
      "stateMutability": "view",
      "type": "function"
    },
    {
      "constant": true,
      "inputs": [
        {
          "name": "",
          "type": "uint256"
        },
        {
          "name": "",
          "type": "uint256"
        }
      ],
      "name": "blocksCreated",
      "outputs": [
        {
          "name": "",
          "type": "uint256"
        }
      ],
      "payable": false,
      "stateMutability": "view",
      "type": "function"
    },
    {
      "constant": false,
      "inputs": [
        {
          "name": "benefactors",
          "type": "address[]"
        },
        {
          "name": "kind",
          "type": "uint16[]"
        }
      ],
      "name": "reward",
      "outputs": [
        {
          "name": "receiversNative",
          "type": "address[]"
        },
        {
          "name": "rewardsNative",
          "type": "uint256[]"
        }
      ],
      "payable": false,
      "stateMutability": "nonpayable",
      "type": "function"
    },
    {
      "constant": true,
      "inputs": [],
      "name": "bridgeTokenReward",
      "outputs": [
        {
          "name": "",
          "type": "uint256"
        }
      ],
      "payable": false,
      "stateMutability": "view",
      "type": "function"
    },
    {
      "payable": true,
      "stateMutability": "payable",
      "type": "fallback"
    },
    {
      "anonymous": false,
      "inputs": [
        {
          "indexed": false,
          "name": "amount",
          "type": "uint256"
        },
        {
          "indexed": false,
          "name": "cumulativeAmount",
          "type": "uint256"
        },
        {
          "indexed": true,
          "name": "bridge",
          "type": "address"
        }
      ],
      "name": "BridgeTokenRewardAdded",
      "type": "event"
    },
    {
      "anonymous": false,
      "inputs": [
        {
          "indexed": false,
          "name": "amount",
          "type": "uint256"
        },
        {
          "indexed": true,
          "name": "receiver",
          "type": "address"
        },
        {
          "indexed": true,
          "name": "bridge",
          "type": "address"
        }
      ],
      "name": "AddedReceiver",
      "type": "event"
    },
    {
      "anonymous": false,
      "inputs": [
        {
          "indexed": false,
          "name": "amount",
          "type": "uint256"
        },
        {
          "indexed": false,
          "name": "cumulativeAmount",
          "type": "uint256"
        },
        {
          "indexed": true,
          "name": "bridge",
          "type": "address"
        }
      ],
      "name": "BridgeNativeRewardAdded",
      "type": "event"
    },
    {
      "anonymous": false,
      "inputs": [
        {
          "indexed": false,
          "name": "receivers",
          "type": "address[]"
        },
        {
          "indexed": false,
          "name": "rewards",
          "type": "uint256[]"
        }
      ],
      "name": "MintedNative",
      "type": "event"
    }
  ],
  "bytecode": "0x608060405234801561001057600080fd5b506146ca806100206000396000f3fe6080604052600436106102935760003560e01c80636834fc901161015a578063adc481a7116100c1578063dfc8bf4e1161007a578063dfc8bf4e14610d5c578063e706ba2714610d71578063e7f6cfe214610da1578063f8fdc6b914610dcb578063f91c289814610dfb578063faaf3aff14610f5f57610293565b8063adc481a714610c8f578063b25a00fd14610ca4578063b4a523e814610cb9578063c5dd762814610cec578063cc7cab9514610d01578063cdf7a09014610d3257610293565b80638c439867116101135780638c43986714610ad65780639a0a9fdc14610b51578063a4c0ed3614610b66578063a9add57d14610c2c578063aa9fa27414610c41578063ac8a094214610c7a57610293565b80636834fc901461096557806368c49f3d146109e057806370cafd65146109f5578063727b071d14610a345780638737929a14610a64578063877ffdea14610aa057610293565b80633bf47e96116101fe5780634b6368cf116101b75780634b6368cf1461086a5780634de6c0361461087f57806353251389146108ba578063553a5c85146108e45780635fba554e146108f9578063621784781461093b57610293565b80633bf47e96146106c45780633d84b8c1146106ee578063419ce2641461072157806343544960146107365780634476d66a14610805578063485cc9551461082f57610293565b8063212329f311610250578063212329f31461042d578063222fafb2146105375780632ee57f8d14610561578063307bff261461059357806330f6eb1614610662578063392e53cd1461069b57610293565b80630ac2daa014610298578063118d2191146102da5780631289b1791461030f578063128b265f14610358578063171d54dd146103825780631f1a01b7146103fd575b600080fd5b3480156102a457600080fd5b506102c8600480360360408110156102bb57600080fd5b5080359060200135610f74565b60408051918252519081900360200190f35b3480156102e657600080fd5b5061030d600480360360208110156102fd57600080fd5b50356001600160a01b0316610f91565b005b34801561031b57600080fd5b5061033f6004803603604081101561033257600080fd5b5080359060200135610fe9565b6040805192835260208301919091528051918290030190f35b34801561036457600080fd5b5061030d6004803603602081101561037b57600080fd5b5035611073565b34801561038e57600080fd5b5061030d600480360360208110156103a557600080fd5b810190602081018135600160201b8111156103bf57600080fd5b8201836020820111156103d157600080fd5b803590602001918460208302840111600160201b831117156103f257600080fd5b50909250905061107f565b34801561040957600080fd5b506102c86004803603604081101561042057600080fd5b508035906020013561117a565b34801561043957600080fd5b506104e76004803603608081101561045057600080fd5b81359190810190604081016020820135600160201b81111561047157600080fd5b82018360208201111561048357600080fd5b803590602001918460208302840111600160201b831117156104a457600080fd5b9190808060200260200160405190810160405280939291908181526020018383602002808284376000920191909152509295505082359350505060200135611197565b60408051602080825283518183015283519192839290830191858101910280838360005b8381101561052357818101518382015260200161050b565b505050509050019250505060405180910390f35b34801561054357600080fd5b5061030d6004803603602081101561055a57600080fd5b5035611269565b34801561056d57600080fd5b506105766112e6565b604080516001600160e01b03199092168252519081900360200190f35b34801561059f57600080fd5b5061033f600480360360a08110156105b657600080fd5b6001600160a01b038235169160208101359160408201359160608101359181019060a081016080820135600160201b8111156105f157600080fd5b82018360208201111561060357600080fd5b803590602001918460208302840111600160201b8311171561062457600080fd5b9190808060200260200160405190810160405280939291908181526020018383602002808284376000920191909152509295506112f2945050505050565b34801561066e57600080fd5b506102c86004803603604081101561068557600080fd5b506001600160a01b038135169060200135611318565b3480156106a757600080fd5b506106b0611335565b604080519115158252519081900360200190f35b3480156106d057600080fd5b506102c8600480360360208110156106e757600080fd5b5035611346565b3480156106fa57600080fd5b506102c86004803603602081101561071157600080fd5b50356001600160a01b031661192e565b34801561072d57600080fd5b506104e7611940565b34801561074257600080fd5b5061033f600480360360a081101561075957600080fd5b6001600160a01b038235169160208101359160408201359160608101359181019060a081016080820135600160201b81111561079457600080fd5b8201836020820111156107a657600080fd5b803590602001918460208302840111600160201b831117156107c757600080fd5b9190808060200260200160405190810160405280939291908181526020018383602002808284376000920191909152509295506119a2945050505050565b34801561081157600080fd5b506102c86004803603602081101561082857600080fd5b50356119b2565b34801561083b57600080fd5b5061030d6004803603604081101561085257600080fd5b506001600160a01b03813581169160200135166119c4565b34801561087657600080fd5b506102c8611a79565b34801561088b57600080fd5b506104e7600480360360408110156108a257600080fd5b506001600160a01b0381358116916020013516611a84565b3480156108c657600080fd5b5061030d600480360360208110156108dd57600080fd5b5035611ee2565b3480156108f057600080fd5b506102c8611eeb565b34801561090557600080fd5b506102c8600480360360a081101561091c57600080fd5b5080359060208101359060408101359060608101359060800135611ef1565b34801561094757600080fd5b5061030d6004803603602081101561095e57600080fd5b5035611f94565b34801561097157600080fd5b5061030d6004803603602081101561098857600080fd5b810190602081018135600160201b8111156109a257600080fd5b8201836020820111156109b457600080fd5b803590602001918460208302840111600160201b831117156109d557600080fd5b50909250905061202b565b3480156109ec57600080fd5b506102c8612122565b348015610a0157600080fd5b5061030d60048036036060811015610a1857600080fd5b50803590602081013590604001356001600160a01b0316612128565b348015610a4057600080fd5b506102c860048036036040811015610a5757600080fd5b50803590602001356122c0565b348015610a7057600080fd5b506102c860048036036080811015610a8757600080fd5b50803590602081013590604081013590606001356122dd565b348015610aac57600080fd5b5061033f60048036036060811015610ac357600080fd5b5080359060208101359060400135612357565b348015610ae257600080fd5b5061030d60048036036020811015610af957600080fd5b810190602081018135600160201b811115610b1357600080fd5b820183602082011115610b2557600080fd5b803590602001918460208302840111600160201b83111715610b4657600080fd5b5090925090506123eb565b348015610b5d57600080fd5b506104e76124e2565b348015610b7257600080fd5b506106b060048036036060811015610b8957600080fd5b6001600160a01b0382351691602081013591810190606081016040820135600160201b811115610bb857600080fd5b820183602082011115610bca57600080fd5b803590602001918460018302840111600160201b83111715610beb57600080fd5b91908080601f016020809104026020016040519081016040528093929190818152602001838380828437600092019190915250929550612542945050505050565b348015610c3857600080fd5b506102c8612549565b348015610c4d57600080fd5b5061030d60048036036040811015610c6457600080fd5b50803590602001356001600160a01b0316612556565b348015610c8657600080fd5b506102c86125e1565b348015610c9b57600080fd5b506102c86125e7565b348015610cb057600080fd5b506104e76125ed565b348015610cc557600080fd5b506102c860048036036020811015610cdc57600080fd5b50356001600160a01b031661264d565b348015610cf857600080fd5b5061030d61265f565b348015610d0d57600080fd5b50610d16612882565b604080516001600160a01b039092168252519081900360200190f35b348015610d3e57600080fd5b506102c860048036036020811015610d5557600080fd5b5035612891565b348015610d6857600080fd5b50610d166128a3565b348015610d7d57600080fd5b506102c860048036036040811015610d9457600080fd5b50803590602001356128b2565b348015610dad57600080fd5b506104e760048036036020811015610dc457600080fd5b50356128cf565b348015610dd757600080fd5b506102c860048036036040811015610dee57600080fd5b508035906020013561292f565b348015610e0757600080fd5b50610ec660048036036040811015610e1e57600080fd5b810190602081018135600160201b811115610e3857600080fd5b820183602082011115610e4a57600080fd5b803590602001918460208302840111600160201b83111715610e6b57600080fd5b919390929091602081019035600160201b811115610e8857600080fd5b820183602082011115610e9a57600080fd5b803590602001918460208302840111600160201b83111715610ebb57600080fd5b50909250905061294a565b604051808060200180602001838103835285818151815260200191508051906020019060200280838360005b83811015610f0a578181015183820152602001610ef2565b50505050905001838103825284818151815260200191508051906020019060200280838360005b83811015610f49578181015183820152602001610f31565b5050505090500194505050505060405180910390f35b348015610f6b57600080fd5b506102c86132bb565b602960209081526000928352604080842090915290825290205481565b610f996132c1565b6001600160a01b0316336001600160a01b031614610fb657600080fd5b610fbe611335565b610fc757600080fd5b604d80546001600160a01b0319166001600160a01b0392909216919091179055565b6000828152602a6020908152604080832084845282528083205485845260298352818420858552835281842054868552604b84528285208686529093529083205483929061103c908790849084906122dd565b6000878152602260209081526040808320898452909152902054909450611068908790849084906122dd565b925050509250929050565b61107c81611f94565b50565b6110876132c1565b6001600160a01b0316336001600160a01b0316146110a457600080fd5b6110ac611335565b6110b557600080fd5b60005b60025481101561111157600060016000600284815481106110d557fe5b6000918252602080832091909101546001600160a01b031683528201929092526040019020805460ff19169115159190911790556001016110b8565b61111d600284846145d0565b50600090505b8181101561117557600180600085858581811061113c57fe5b602090810292909201356001600160a01b0316835250810191909152604001600020805460ff1916911515919091179055600101611123565b505050565b602260209081526000928352604080842090915290825290205481565b606080836111bf576040805160008152602081019091526111b99084906132e6565b90955093505b8515806111ca575083155b156111e4575060408051600081526020810190915261125e565b845160405190808252806020026020018201604052801561120f578160200160208202803883390190505b50905060005b855181101561125c578486828151811061122b57fe5b602002602001015188028161123c57fe5b0482828151811061124957fe5b6020908102919091010152600101611215565b505b90505b949350505050565b3360009081526001602052604090205460ff1661128557600080fd5b8061128f57600080fd5b6021546112a2908263ffffffff61354d16565b6021819055604080518381526020810192909252805133927f619cc90cbd264bea3dfc113e68fd307789a937a8c10ef4b0110607ac7490367392908290030190a250565b63069ad3e560e11b5b90565b60008061130a6113028785613566565b888787613581565b915091509550959350505050565b602460209081526000928352604080842090915290825290205481565b602c546001600160a01b0316151590565b600080602c60009054906101000a90046001600160a01b03166001600160a01b031663ee99205c6040518163ffffffff1660e01b815260040160206040518083038186803b15801561139757600080fd5b505afa1580156113ab573d6000803e3d6000fd5b505050506040513d60208110156113c157600080fd5b505160408051630f29818d60e31b815290519192506000916001600160a01b0384169163794c0c68916004808301926020929190829003018186803b15801561140957600080fd5b505afa15801561141d573d6000803e3d6000fd5b505050506040513d602081101561143357600080fd5b505190508061144757600092505050611929565b602c5460408051639b4a14bf60e01b81526004810187905290516001600160a01b0390921691639b4a14bf91602480820192602092909190829003018186803b15801561149357600080fd5b505afa1580156114a7573d6000803e3d6000fd5b505050506040513d60208110156114bd57600080fd5b50511561150a576000818152602a602090815260408083208784528252808320548484526029835281842088855290925290912054611501918391620f42406122dd565b92505050611929565b602c60009054906101000a90046001600160a01b03166001600160a01b031663b927ef436040518163ffffffff1660e01b815260040160206040518083038186803b15801561155857600080fd5b505afa15801561156c573d6000803e3d6000fd5b505050506040513d602081101561158257600080fd5b50516118285760606000602c60009054906101000a90046001600160a01b03166001600160a01b0316636729c2dc6040518163ffffffff1660e01b815260040160006040518083038186803b1580156115da57600080fd5b505afa1580156115ee573d6000803e3d6000fd5b505050506040513d6000823e601f3d908101601f19168201604052602081101561161757600080fd5b810190808051600160201b81111561162e57600080fd5b8201602081018481111561164157600080fd5b81518560208202830111600160201b8211171561165d57600080fd5b5090955060009450505050505b81518110156116de5781818151811061167f57fe5b60200260200101518614156116d6576000838152602a60209081526040808320898452825280832054868452602983528184208a8552909252909120546116cb918591620f42406122dd565b945050505050611929565b60010161166a565b602c60009054906101000a90046001600160a01b03166001600160a01b0316630bf480c06040518163ffffffff1660e01b815260040160006040518083038186803b15801561172c57600080fd5b505afa158015611740573d6000803e3d6000fd5b505050506040513d6000823e601f3d908101601f19168201604052602081101561176957600080fd5b810190808051600160201b81111561178057600080fd5b8201602081018481111561179357600080fd5b81518560208202830111600160201b821117156117af57600080fd5b5090955060009450505050505b8151811015611825578181815181106117d157fe5b602002602001015186141561181d576000838152602a60209081526040808320898452825280832054868452602983528184208a8552909252909120546116cb918591620f42406122dd565b6001016117bc565b50505b60408051630fec687960e21b8152600481018690526000602482015290516119249183916001600160a01b03861691633fb1a1e4916044808301926020929190829003018186803b15801561187c57600080fd5b505afa158015611890573d6000803e3d6000fd5b505050506040513d60208110156118a657600080fd5b505160408051632a8f6ecd60e01b81526004810189905290516001600160a01b03871691632a8f6ecd916024808301926020929190829003018186803b1580156118ef57600080fd5b505afa158015611903573d6000803e3d6000fd5b505050506040513d602081101561191957600080fd5b5051620f42406122dd565b925050505b919050565b60236020526000908152604090205481565b6060600280548060200260200160405190810160405280929190818152602001828054801561199857602002820191906000526020600020905b81546001600160a01b0316815260019091019060200180831161197a575b5050505050905090565b60008061130a6113028785613622565b60256020526000908152604090205481565b6119cc613645565b15806119f057506119db6132c1565b6001600160a01b0316336001600160a01b0316145b6119f957600080fd5b611a01611335565b15611a0b57600080fd5b6001600160a01b038216611a1e57600080fd5b602c80546001600160a01b039384166001600160a01b03199182161790915560008052602b60205260147fe18c65fb8491ea105d3652ed62258476aaccd771ae89682addbba12f33acc62a5560038054929093169116179055565b660b1a2bc2ec500081565b602c546040805163a26301f960e01b81526001600160a01b0385811660048301529151606093600093169163a26301f9916024808301926020929190829003018186803b158015611ad457600080fd5b505afa158015611ae8573d6000803e3d6000fd5b505050506040513d6020811015611afe57600080fd5b505190506001600160a01b038416611b1557600080fd5b6001600160a01b038316611b2857600080fd5b80611b3257600080fd5b602c5460408051633ba6481760e21b815290516000926001600160a01b03169163ee99205c916004808301926020929190829003018186803b158015611b7757600080fd5b505afa158015611b8b573d6000803e3d6000fd5b505050506040513d6020811015611ba157600080fd5b5051905060006001600160a01b038581169087161415611bc2576000611bc4565b845b90506000806001600160a01b03831615611d1257836001600160a01b03166327d89b3a86856040518363ffffffff1660e01b815260040180838152602001826001600160a01b03166001600160a01b031681526020019250505060206040518083038186803b158015611c3657600080fd5b505afa158015611c4a573d6000803e3d6000fd5b505050506040513d6020811015611c6057600080fd5b5051915081611c855750506040805160008152602081019091529350611edc92505050565b836001600160a01b031663381883b086856040518363ffffffff1660e01b815260040180838152602001826001600160a01b03166001600160a01b031681526020019250505060206040518083038186803b158015611ce357600080fd5b505afa158015611cf7573d6000803e3d6000fd5b505050506040513d6020811015611d0d57600080fd5b505190505b600085815260208181526040918290208054835181815281840281019093019093529190606090828015611d50578160200160208202803883390190505b5090506000805b83811015611e64576000858281548110611d6d57fe5b60009182526020909120015490506001600160a01b03891615611db25787811015611d985750611e5c565b808711158015611da757508615155b15611db25750611e64565b6040805163186dc46f60e01b8152600481018d90526001600160a01b038b81166024830152604482018490529151918c169163186dc46f91606480820192602092909190829003018186803b158015611e0a57600080fd5b505afa158015611e1e573d6000803e3d6000fd5b505050506040513d6020811015611e3457600080fd5b5051611e5a5780848480600101955081518110611e4d57fe5b6020026020010181815250505b505b600101611d57565b81604051908082528060200260200182016040528015611e8e578160200160208202803883390190505b509a50600090505b81811015611ed157828181518110611eaa57fe5b60200260200101518b8281518110611ebe57fe5b6020908102919091010152600101611e96565b505050505050505050505b92915050565b61107c81611269565b60265481565b6000841580611efe575083155b80611f07575082155b15611f1457506000611f8b565b60008085851015611f26576000611f2a565b8585035b905080611f3c57600092505050611f8b565b6000888152602b6020526040902054818102606482900388021115611f6e578588860281611f6657fe5b049250611f85565b81606402816064038987020281611f8157fe5b0492505b50909150505b95945050505050565b3360009081526046602052604090205460ff1680611fc157503360009081526047602052604090205460ff165b611fca57600080fd5b80611fd457600080fd5b604a54611fe7908263ffffffff61354d16565b604a819055604080518381526020810192909252805133927f412edf02d82089ccd9d6158ca78bb761a19c8f63a840cff791e4ad472bcaa0ac92908290030190a250565b6120336132c1565b6001600160a01b0316336001600160a01b03161461205057600080fd5b612058611335565b61206157600080fd5b60005b6049548110156120bd576000604760006049848154811061208157fe5b6000918252602080832091909101546001600160a01b031683528201929092526040019020805460ff1916911515919091179055600101612064565b6120c9604984846145d0565b50600090505b81811015611175576001604760008585858181106120e957fe5b602090810292909201356001600160a01b0316835250810191909152604001600020805460ff19169115159190911790556001016120cf565b604c5481565b602c60009054906101000a90046001600160a01b03166001600160a01b031663ee99205c6040518163ffffffff1660e01b815260040160206040518083038186803b15801561217657600080fd5b505afa15801561218a573d6000803e3d6000fd5b505050506040513d60208110156121a057600080fd5b50516001600160a01b031633146121b657600080fd5b82156122b65760003390506000816001600160a01b0316632d21d2176040518163ffffffff1660e01b815260040160206040518083038186803b1580156121fc57600080fd5b505afa158015612210573d6000803e3d6000fd5b505050506040513d602081101561222657600080fd5b50516040805163a9059cbb60e01b81526001600160a01b0386811660048301526024820189905291519293509083169163a9059cbb916044808201926020929091908290030181600087803b15801561227e57600080fd5b505af1158015612292573d6000803e3d6000fd5b505050506040513d60208110156122a857600080fd5b50516122b357600080fd5b50505b6111758282613649565b602a60209081526000928352604080842090915290825290205481565b60008315806122ea575082155b156122f757506000611261565b6000808585101561230957600061230d565b8585035b6000888152602b602052604090205490915080820260648290038802111561234257858786028161233a57fe5b04925061234b565b60648582020492505b50909695505050505050565b6000828152602a6020908152604080832084845282528083205485845260298352818420858552835281842054868552604b8452828520868652909352908320548392906123ac908790899085908590611ef1565b93506123df86888484602260008c815260200190815260200160002060008b815260200190815260200160002054611ef1565b92505050935093915050565b6123f36132c1565b6001600160a01b0316336001600160a01b03161461241057600080fd5b612418611335565b61242157600080fd5b60005b60485481101561247d576000604660006048848154811061244157fe5b6000918252602080832091909101546001600160a01b031683528201929092526040019020805460ff1916911515919091179055600101612424565b612489604884846145d0565b50600090505b81811015611175576001604660008585858181106124a957fe5b602090810292909201356001600160a01b0316835250810191909152604001600020805460ff191691151591909117905560010161248f565b60606048805480602002602001604051908101604052809291908181526020018280548015611998576020028201919060005260206000209081546001600160a01b0316815260019091019060200180831161197a575050505050905090565b6000806000fd5b6004546005540360010190565b3360009081526001602052604090205460ff1661257257600080fd5b8161257c57600080fd5b600354600160a01b900460ff1661259257600080fd5b61259d8282336136c1565b60408051838152905133916001600160a01b038416917f3c798bbcf33115b42c728b8504cff11dd58736e9fa789f1cda2738db7d696b2a9181900360200190a35050565b60215481565b60285481565b60606049805480602002602001604051908101604052809291908181526020018280548015611998576020028201919060005260206000209081546001600160a01b0316815260019091019060200180831161197a575050505050905090565b60276020526000908152604090205481565b602c546001600160a01b0316331461267657600080fd5b602c5460408051633ba6481760e21b815290516000926001600160a01b03169163ee99205c916004808301926020929190829003018186803b1580156126bb57600080fd5b505afa1580156126cf573d6000803e3d6000fd5b505050506040513d60208110156126e557600080fd5b505160408051630f29818d60e31b815290519192506000916001600160a01b0384169163794c0c68916004808301926020929190829003018186803b15801561272d57600080fd5b505afa158015612741573d6000803e3d6000fd5b505050506040513d602081101561275757600080fd5b5051602c5460408051637f2a23bf60e11b815290519293506060926001600160a01b039092169163fe54477e91600480820192600092909190829003018186803b1580156127a457600080fd5b505afa1580156127b8573d6000803e3d6000fd5b505050506040513d6000823e601f3d908101601f1916820160405260208110156127e157600080fd5b810190808051600160201b8111156127f857600080fd5b8201602081018481111561280b57600080fd5b81518560208202830111600160201b8211171561282757600080fd5b50909450600093505050505b815181101561287c57600083815260208052604081208351829085908590811061285957fe5b602090810291909101810151825281019190915260400160002055600101612833565b50505050565b604d546001600160a01b031681565b602b6020526000908152604090205481565b602c546001600160a01b031681565b604b60209081526000928352604080842090915290825290205481565b6000818152602081815260409182902080548351818402810184019094528084526060939283018282801561292357602002820191906000526020600020905b81548152602001906001019080831161290f575b50505050509050919050565b60208080526000928352604080842090915290825290205481565b6060806002600160a01b03331461296057600080fd5b8483141580612970575060018514155b8061299757508383600081811061298357fe5b9050602002013561ffff1661ffff16600014155b156129c85760408051600080825260208201909252905b5060408051600081526020810190915290925090506132b2565b602c546001600160a01b03161580612a7b5750602c546001600160a01b031663facd743b87876000816129f757fe5b905060200201356001600160a01b03166040518263ffffffff1660e01b815260040180826001600160a01b03166001600160a01b0316815260200191505060206040518083038186803b158015612a4d57600080fd5b505afa158015612a61573d6000803e3d6000fd5b505050506040513d6020811015612a7757600080fd5b5051155b15612a965760408051600080825260208201909252906129ae565b602c60009054906101000a90046001600160a01b03166001600160a01b031663ccf69e9b6040518163ffffffff1660e01b815260040160206040518083038186803b158015612ae457600080fd5b505afa158015612af8573d6000803e3d6000fd5b505050506040513d6020811015612b0e57600080fd5b50516040805163109c110760e01b815290516001600160a01b039092169163109c11079160048082019260009290919082900301818387803b158015612b5357600080fd5b505af1158015612b67573d6000803e3d6000fd5b5050600354600160a01b900460ff169150612ba3905057600160045560006005556003805460ff60a01b1916600160a01b179055612ba3613736565b602c5460408051633ba6481760e21b815290516064926000926001600160a01b039091169163ee99205c91600480820192602092909190829003018186803b158015612bee57600080fd5b505afa158015612c02573d6000803e3d6000fd5b505050506040513d6020811015612c1857600080fd5b505160408051630f29818d60e31b815290519192506000916001600160a01b0384169163794c0c68916004808301926020929190829003018186803b158015612c6057600080fd5b505afa158015612c74573d6000803e3d6000fd5b505050506040513d6020811015612c8a57600080fd5b50516040805163461121d760e11b815290519192506000916001600160a01b03851691638c2243ae916004808301926020929190829003018186803b158015612cd257600080fd5b505afa158015612ce6573d6000803e3d6000fd5b505050506040513d6020811015612cfc57600080fd5b5051602c546040805163b927ef4360e01b815290519293506000926001600160a01b039092169163b927ef4391600480820192602092909190829003018186803b158015612d4957600080fd5b505afa158015612d5d573d6000803e3d6000fd5b505050506040513d6020811015612d7357600080fd5b505115612ee8578215801590612e245750602c546001600160a01b031663a92252ae8c8c600081612da057fe5b905060200201356001600160a01b03166040518263ffffffff1660e01b815260040180826001600160a01b03166001600160a01b0316815260200191505060206040518083038186803b158015612df657600080fd5b505afa158015612e0a573d6000803e3d6000fd5b505050506040513d6020811015612e2057600080fd5b5051155b15612ee857602c546000906001600160a01b0316632bbb7b728d8d8481612e4757fe5b905060200201356001600160a01b03166040518263ffffffff1660e01b815260040180826001600160a01b03166001600160a01b0316815260200191505060206040518083038186803b158015612e9d57600080fd5b505afa158015612eb1573d6000803e3d6000fd5b505050506040513d6020811015612ec757600080fd5b50516000858152602080805260408083209383529290522080546001019055505b81612ef1613645565b141561329e578215612f0b57612f08848484613898565b90505b602c60009054906101000a90046001600160a01b03166001600160a01b0316635ccee1de6040518163ffffffff1660e01b8152600401600060405180830381600087803b158015612f5b57600080fd5b505af1158015612f6f573d6000803e3d6000fd5b5050602c54604080516319ca70b760e21b81529051600094506001880193506060926001600160a01b031691636729c2dc9160048083019288929190829003018186803b158015612fbf57600080fd5b505afa158015612fd3573d6000803e3d6000fd5b505050506040513d6000823e601f3d908101601f191682016040526020811015612ffc57600080fd5b810190808051600160201b81111561301357600080fd5b8201602081018481111561302657600080fd5b81518560208202830111600160201b8211171561304257600080fd5b5060009750909450505050505b805183101561308157613076878383868151811061306957fe5b60200260200101516139c6565b60019092019161304f565b602c60009054906101000a90046001600160a01b03166001600160a01b031663fe54477e6040518163ffffffff1660e01b815260040160006040518083038186803b1580156130cf57600080fd5b505afa1580156130e3573d6000803e3d6000fd5b505050506040513d6000823e601f3d908101601f19168201604052602081101561310c57600080fd5b810190808051600160201b81111561312357600080fd5b8201602081018481111561313657600080fd5b81518560208202830111600160201b8211171561315257600080fd5b5060009750909450505050505b805183101561318457613179878383868151811061306957fe5b60019092019161315f565b602c60009054906101000a90046001600160a01b03166001600160a01b0316630bf480c06040518163ffffffff1660e01b815260040160006040518083038186803b1580156131d257600080fd5b505afa1580156131e6573d6000803e3d6000fd5b505050506040513d6000823e601f3d908101601f19168201604052602081101561320f57600080fd5b810190808051600160201b81111561322657600080fd5b8201602081018481111561323957600080fd5b81518560208202830111600160201b8211171561325557600080fd5b5060009750909450505050505b80518310156132875761327c878383868151811061306957fe5b600190920191613262565b506000908152602b60205260408120601490559550505b6132a88186613b1a565b9650965050505050505b94509492505050565b604a5481565b7fb53127684a568b3173ae13b9f8a6016e243e63b6e8ee1178d6a717850b5d61035490565b606060008251600014156133ce57602c60009054906101000a90046001600160a01b03166001600160a01b031663fe54477e6040518163ffffffff1660e01b815260040160006040518083038186803b15801561334257600080fd5b505afa158015613356573d6000803e3d6000fd5b505050506040513d6000823e601f3d908101601f19168201604052602081101561337f57600080fd5b810190808051600160201b81111561339657600080fd5b820160208101848111156133a957600080fd5b81518560208202830111600160201b821117156133c557600080fd5b50909650505050505b606083516040519080825280602002602001820160405280156133fb578160200160208202803883390190505b5090506000805b855181101561354157600086828151811061341957fe5b60209081029190910181015160008a8152602a835260408082208383529093529190912054909150158015906134c45750602c5460408051632682240f60e11b81526004810184905290516001600160a01b0390921691634d04481e91602480820192602092909190829003018186803b15801561349657600080fd5b505afa1580156134aa573d6000803e3d6000fd5b505050506040513d60208110156134c057600080fd5b5051155b156135005760008881526020808052604080832084845290915290205484518590849081106134ef57fe5b60200260200101818152505061351b565b600084838151811061350e57fe5b6020026020010181815250505b83828151811061352757fe5b602002602001015183019250508080600101915050613402565b50909590945092505050565b60008282018381101561355f57600080fd5b9392505050565b60006135728383613d31565b60285460215401019392505050565b600080826135fd576135f785866001600160a01b0316638c2243ae6040518163ffffffff1660e01b815260040160206040518083038186803b1580156135c657600080fd5b505afa1580156135da573d6000803e3d6000fd5b505050506040513d60208110156135f057600080fd5b5051613d39565b90945092505b60008361360b576000613618565b838588028161361657fe5b045b9795505050505050565b60006136368383660b1a2bc2ec5000613ed1565b604c54604a5401019392505050565b4390565b811580159061367a57506040516001600160a01b0382169083156108fc029084906000818181858888f19350505050155b156136bd57818160405161368d90614633565b6001600160a01b039091168152604051908190036020019082f0801580156136b9573d6000803e3d6000fd5b5050505b5050565b60058054604080516060810182529586526001600160a01b03938416602080880191825295851687830190815260019384016000818152600690985292909620965187555191860180549285166001600160a01b03199384161790559351600290950180549590931694169390931790559055565b6003546001600160a01b031661374b57613896565b60005b60025481101561380f5760006002828154811061376757fe5b6000918252602091829020015460035460408051631694a47d60e31b81526001600160a01b03938416600482018190529151919550919092169263b4a523e892602480840193829003018186803b1580156137c157600080fd5b505afa1580156137d5573d6000803e3d6000fd5b505050506040513d60208110156137eb57600080fd5b50516001600160a01b0390911660009081526027602052604090205560010161374e565b506002541561389657600360009054906101000a90046001600160a01b03166001600160a01b031663553a5c856040518163ffffffff1660e01b815260040160206040518083038186803b15801561386657600080fd5b505afa15801561387a573d6000803e3d6000fd5b505050506040513d602081101561389057600080fd5b50516026555b565b60006060602c60009054906101000a90046001600160a01b03166001600160a01b031663fe54477e6040518163ffffffff1660e01b815260040160006040518083038186803b1580156138ea57600080fd5b505afa1580156138fe573d6000803e3d6000fd5b505050506040513d6000823e601f3d908101601f19168201604052602081101561392757600080fd5b810190808051600160201b81111561393e57600080fd5b8201602081018481111561395157600080fd5b81518560208202830111600160201b8211171561396d57600080fd5b505092919050505090506000806139848786613d39565b915091506060600061399688866132e6565b915091506139a98989868689878761402d565b95506139ba89898686898787614144565b50505050509392505050565b6000828152602960209081526040808320848452909152902054156139ea57611175565b6000836001600160a01b0316632a8f6ecd836040518263ffffffff1660e01b81526004018082815260200191505060206040518083038186803b158015613a3057600080fd5b505afa158015613a44573d6000803e3d6000fd5b505050506040513d6020811015613a5a57600080fd5b5051905080613a695750611175565b600083815260296020908152604080832085845282528083208490558051630fec687960e21b8152600481018690526024810193909352516001600160a01b03871692633fb1a1e4926044808301939192829003018186803b158015613ace57600080fd5b505afa158015613ae2573d6000803e3d6000fd5b505050506040513d6020811015613af857600080fd5b50516000848152602a6020908152604080832086845290915290205550505050565b6060806000613b27612549565b905083811115613b345750825b84151580613b43576000613b46565b60015b60ff168201604051908082528060200260200182016040528015613b74578160200160208202803883390190505b5093508351604051908082528060200260200182016040528015613ba2578160200160208202803883390190505b50925060005b82811015613c1f576000806000613bbd6144e1565b92509250925081888581518110613bd057fe5b60200260200101906001600160a01b031690816001600160a01b03168152505082878581518110613bfd57fe5b602002602001018181525050613c14838383614562565b505050600101613ba8565b508015613c6d5730848381518110613c3357fe5b60200260200101906001600160a01b031690816001600160a01b03168152505085838381518110613c6057fe5b6020026020010181815250505b7f2834f3daea15e82b5f27095c4b6d08cd437f303149009a0a3304be801d2dd7ce8484604051808060200180602001838103835285818151815260200191508051906020019060200280838360005b83811015613cd4578181015183820152602001613cbc565b50505050905001838103825284818151815260200191508051906020019060200280838360005b83811015613d13578181015183820152602001613cfb565b5050505090500194505050505060405180910390a150509250929050565b600092915050565b602c546040805163b927ef4360e01b815290516000928392839260019284926001600160a01b039091169163b927ef4391600480820192602092909190829003018186803b158015613d8a57600080fd5b505afa158015613d9e573d6000803e3d6000fd5b505050506040513d6020811015613db457600080fd5b5051905080156135415760006003602c60009054906101000a90046001600160a01b03166001600160a01b031663714897df6040518163ffffffff1660e01b815260040160206040518083038186803b158015613e1057600080fd5b505afa158015613e24573d6000803e3d6000fd5b505050506040513d6020811015613e3a57600080fd5b505160020281613e4657fe5b04886001600160a01b0316637069e7466040518163ffffffff1660e01b815260040160206040518083038186803b158015613e8057600080fd5b505afa158015613e94573d6000803e3d6000fd5b505050506040513d6020811015613eaa57600080fd5b505101600101905080821015613ebe578091505b6001918703820198960301955050505050565b600081613ee05750600061355f565b8251613fc057602c60009054906101000a90046001600160a01b03166001600160a01b031663fe54477e6040518163ffffffff1660e01b815260040160006040518083038186803b158015613f3457600080fd5b505afa158015613f48573d6000803e3d6000fd5b505050506040513d6000823e601f3d908101601f191682016040526020811015613f7157600080fd5b810190808051600160201b811115613f8857600080fd5b82016020810184811115613f9b57600080fd5b81518560208202830111600160201b82111715613fb757600080fd5b50909650505050505b6000805b845181101561401657602960008781526020019081526020016000206000868381518110613fee57fe5b6020026020010151815260200190815260200160002054820191508080600101915050613fc4565b50670de0b6b3a76400009083020490509392505050565b600080600061403f8a8a8a8a8a6112f2565b91509150806000141561405757600092505050614139565b60006021819055606061406c8488888e611197565b905087518151141561412d5760005b885181101561412b57600089828151811061409257fe5b602002602001015190508282815181106140a857fe5b60209081029190910181015160008f8152602283526040808220858352909352919091205582518390839081106140db57fe5b6020026020010151840193508282815181106140f357fe5b602002602001015160001461412257600081815260208181526040822080546001810182559083529120018d90555b5060010161407b565b505b50908190036028559150505b979650505050505050565b60008061415489898989896119a2565b9150915080600014156141685750506144d8565b6000604a819055506000896001600160a01b0316632d21d2176040518163ffffffff1660e01b815260040160206040518083038186803b1580156141ab57600080fd5b505afa1580156141bf573d6000803e3d6000fd5b505050506040513d60208110156141d557600080fd5b5051604d549091506000906001600160a01b0316158015906141ff57506001600160a01b03821615155b156142a157604d5460408051638da5cb5b60e01b815290516001600160a01b0392831692851691638da5cb5b916004808301926020929190829003018186803b15801561424b57600080fd5b505afa15801561425f573d6000803e3d6000fd5b505050506040513d602081101561427557600080fd5b50516001600160a01b031614156142985750604d546001600160a01b031661429c565b5060005b6142a4565b50805b60006001600160a01b038216158015906143335750306001600160a01b0316826001600160a01b03166356b54bae6040518163ffffffff1660e01b815260040160206040518083038186803b1580156142fc57600080fd5b505afa158015614310573d6000803e3d6000fd5b505050506040513d602081101561432657600080fd5b50516001600160a01b0316145b156144ce5760606143468689898f611197565b90508851815114156144cc5760005b895181101561446c5781818151811061436a57fe5b6020026020010151604b60008f815260200190815260200160002060008c848151811061439357fe5b60200260200101518152602001908152602001600020819055508181815181106143b957fe5b6020026020010151830192508181815181106143d157fe5b60200260200101516000141580156144205750602260008e815260200190815260200160002060008b838151811061440557fe5b60200260200101518152602001908152602001600020546000145b15614464576000808b838151811061443457fe5b60209081029190910181015182528181019290925260400160009081208054600181018255908252919020018d90555b600101614355565b50826001600160a01b03166391c0aabf836040518263ffffffff1660e01b815260040180828152602001915050600060405180830381600087803b1580156144b357600080fd5b505af11580156144c7573d6000803e3d6000fd5b505050505b505b909203604c555050505b50505050505050565b6004546005546000918291829190818110156145085760009450600093506000925061455b565b6000828152600660205260408120805460028201805460018085018054969095556001600160a01b03198087169095559381169091556004805490930190925596506001600160a01b0390811695501692505b5050909192565b600061456c613645565b6001600160a01b03938416600081815260246020908152604080832085845282528083208990559282526023815282822080548901905592815260258352818120805488019055939094168352602790525020805482019055602680549091019055565b828054828255906000526020600020908101928215614623579160200282015b828111156146235781546001600160a01b0319166001600160a01b038435161782556020909201916001909101906145f0565b5061462f92915061463f565b5090565b60328061466483390190565b6112ef91905b8082111561462f5780546001600160a01b031916815560010161464556fe60806040526040516032380380603283398181016040526020811015602357600080fd5b50516001600160a01b038116fffea265627a7a72305820298e424309bc6726ee0f62fe5131dd902f3cb51c6b29be90cc3017b4322c777464736f6c634300050a0032",
  "linkReferences": {},
  "deployedLinkReferences": {}
}