{
  "_format": "hh-sol-artifact-1",
  "contractName": "TokenMinter",
  "sourceName": "posdao-contracts/contracts/TokenMinter.sol",
  "abi": [
    {
      "constant": false,
      "inputs": [
        {
          "name": "_bridgeContract",
          "type": "address"
        }
      ],
      "name": "setBridgeContract",
      "outputs": [],
      "payable": false,
      "stateMutability": "nonpayable",
      "type": "function"
    },
    {
      "constant": false,
      "inputs": [
        {
          "name": "_newOwner",
          "type": "address"
        }
      ],
      "name": "transferTokenOwnership",
      "outputs": [],
      "payable": false,
      "stateMutability": "nonpayable",
      "type": "function"
    },
    {
      "constant": false,
      "inputs": [
        {
          "name": "_blockRewardContract",
          "type": "address"
        }
      ],
      "name": "setBlockRewardContract",
      "outputs": [],
      "payable": false,
      "stateMutability": "nonpayable",
      "type": "function"
    },
    {
      "constant": false,
      "inputs": [
        {
          "name": "_minter",
          "type": "address"
        }
      ],
      "name": "removeMinter",
      "outputs": [],
      "payable": false,
      "stateMutability": "nonpayable",
      "type": "function"
    },
    {
      "constant": false,
      "inputs": [
        {
          "name": "_to",
          "type": "address"
        },
        {
          "name": "_amount",
          "type": "uint256"
        }
      ],
      "name": "mint",
      "outputs": [
        {
          "name": "",
          "type": "bool"
        }
      ],
      "payable": false,
      "stateMutability": "nonpayable",
      "type": "function"
    },
    {
      "constant": true,
      "inputs": [],
      "name": "minterList",
      "outputs": [
        {
          "name": "list",
          "type": "address[]"
        }
      ],
      "payable": false,
      "stateMutability": "view",
      "type": "function"
    },
    {
      "constant": true,
      "inputs": [],
      "name": "tokenContract",
      "outputs": [
        {
          "name": "",
          "type": "address"
        }
      ],
      "payable": false,
      "stateMutability": "view",
      "type": "function"
    },
    {
      "constant": true,
      "inputs": [],
      "name": "blockRewardContract",
      "outputs": [
        {
          "name": "",
          "type": "address"
        }
      ],
      "payable": false,
      "stateMutability": "view",
      "type": "function"
    },
    {
      "constant": true,
      "inputs": [
        {
          "name": "",
          "type": "address"
        }
      ],
      "name": "minterPointers",
      "outputs": [
        {
          "name": "",
          "type": "address"
        }
      ],
      "payable": false,
      "stateMutability": "view",
      "type": "function"
    },
    {
      "constant": false,
      "inputs": [
        {
          "name": "_token",
          "type": "address"
        },
        {
          "name": "_to",
          "type": "address"
        }
      ],
      "name": "claimTokens",
      "outputs": [],
      "payable": false,
      "stateMutability": "nonpayable",
      "type": "function"
    },
    {
      "constant": true,
      "inputs": [],
      "name": "owner",
      "outputs": [
        {
          "name": "",
          "type": "address"
        }
      ],
      "payable": false,
      "stateMutability": "view",
      "type": "function"
    },
    {
      "constant": false,
      "inputs": [
        {
          "name": "_amount",
          "type": "uint256"
        }
      ],
      "name": "mintReward",
      "outputs": [],
      "payable": false,
      "stateMutability": "nonpayable",
      "type": "function"
    },
    {
      "constant": false,
      "inputs": [
        {
          "name": "_minter",
          "type": "address"
        }
      ],
      "name": "addMinter",
      "outputs": [],
      "payable": false,
      "stateMutability": "nonpayable",
      "type": "function"
    },
    {
      "constant": true,
      "inputs": [],
      "name": "minterCount",
      "outputs": [
        {
          "name": "",
          "type": "uint256"
        }
      ],
      "payable": false,
      "stateMutability": "view",
      "type": "function"
    },
    {
      "constant": true,
      "inputs": [
        {
          "name": "_address",
          "type": "address"
        }
      ],
      "name": "isMinter",
      "outputs": [
        {
          "name": "",
          "type": "bool"
        }
      ],
      "payable": false,
      "stateMutability": "view",
      "type": "function"
    },
    {
      "constant": true,
      "inputs": [],
      "name": "F_ADDR",
      "outputs": [
        {
          "name": "",
          "type": "address"
        }
      ],
      "payable": false,
      "stateMutability": "view",
      "type": "function"
    },
    {
      "constant": false,
      "inputs": [
        {
          "name": "_newOwner",
          "type": "address"
        }
      ],
      "name": "transferOwnership",
      "outputs": [],
      "payable": false,
      "stateMutability": "nonpayable",
      "type": "function"
    },
    {
      "inputs": [
        {
          "name": "_owner",
          "type": "address"
        },
        {
          "name": "_blockRewardContract",
          "type": "address"
        },
        {
          "name": "_bridgeContract",
          "type": "address"
        },
        {
          "name": "_tokenContract",
          "type": "address"
        }
      ],
      "payable": false,
      "stateMutability": "nonpayable",
      "type": "constructor"
    },
    {
      "anonymous": false,
      "inputs": [
        {
          "indexed": false,
          "name": "blockRewardContractAddress",
          "type": "address"
        }
      ],
      "name": "BlockRewardContractSet",
      "type": "event"
    },
    {
      "anonymous": false,
      "inputs": [
        {
          "indexed": true,
          "name": "minter",
          "type": "address"
        }
      ],
      "name": "MinterAdded",
      "type": "event"
    },
    {
      "anonymous": false,
      "inputs": [
        {
          "indexed": true,
          "name": "minter",
          "type": "address"
        }
      ],
      "name": "MinterRemoved",
      "type": "event"
    },
    {
      "anonymous": false,
      "inputs": [
        {
          "indexed": true,
          "name": "previousOwner",
          "type": "address"
        },
        {
          "indexed": true,
          "name": "newOwner",
          "type": "address"
        }
      ],
      "name": "OwnershipTransferred",
      "type": "event"
    }
  ],
  "bytecode": "0x60806040523480156200001157600080fd5b5060405162000e5738038062000e57833981810160405260808110156200003757600080fd5b508051602082015160408301516060909301519192909162000062846001600160e01b036200010516565b62000076836001600160e01b036200017416565b6001600160a01b036000819052600360205260008051602062000e3783398151915280546001600160a01b0319169091179055620000bd826001600160e01b03620001e616565b620000d1816001600160e01b03620002c316565b620000db57600080fd5b600280546001600160a01b0319166001600160a01b03929092169190911790555062000304915050565b6001600160a01b0381166200011957600080fd5b600080546040516001600160a01b03808516939216917f8be0079c531659141344cd1fd0a4f28419497f9722a3daafe3b4186f6b6457e091a3600080546001600160a01b0319166001600160a01b0392909216919091179055565b62000188816001600160e01b03620002c316565b6200019257600080fd5b600180546001600160a01b0383166001600160a01b0319909116811790915560408051918252517f71327c51efab7c90262103acc3454cda3dac1198483b499f5f1a55314739803d9181900360200190a150565b603260045410620001f657600080fd5b6200020a816001600160e01b03620002c916565b156200021557600080fd5b6001600160a01b036000819052600360205260008051602062000e378339815191525416806200024457600080fd5b600360205260008051602062000e3783398151915280546001600160a01b038085166001600160a01b031992831681179093556000838152604080822080549387169390941692909217909255600480546001019055517f6ae172837ea30b801fbfcdd4108aa1d5bf8ff775444fd70256b44e6bf3dfc3f69190a25050565b3b151590565b60006001600160a01b0382811614801590620002fe57506001600160a01b038281166000908152600360205260409020541615155b92915050565b610b2380620003146000396000f3fe608060405234801561001057600080fd5b506004361061010b5760003560e01c806362e713c1116100a2578063983b2d5611610071578063983b2d56146102e75780639e46e3321461030d578063aa271e1a14610327578063c794c7691461034d578063f2fde38b146103555761010b565b806362e713c11461026e57806369ffa08a146102945780638da5cb5b146102c257806391c0aabf146102ca5761010b565b806340c10f19116100de57806340c10f19146101aa57806341f08b52146101ea57806355a373d61461024257806356b54bae146102665761010b565b80630b26cf661461011057806321e6b53d1461013857806327a3e16b1461015e5780633092afd514610184575b600080fd5b6101366004803603602081101561012657600080fd5b50356001600160a01b031661037b565b005b6101366004803603602081101561014e57600080fd5b50356001600160a01b03166103fb565b6101366004803603602081101561017457600080fd5b50356001600160a01b0316610460565b6101366004803603602081101561019a57600080fd5b50356001600160a01b0316610483565b6101d6600480360360408110156101c057600080fd5b506001600160a01b0381351690602001356105bf565b604080519115158252519081900360200190f35b6101f261065c565b60408051602080825283518183015283519192839290830191858101910280838360005b8381101561022e578181015183820152602001610216565b505050509050019250505060405180910390f35b61024a610722565b604080516001600160a01b039092168252519081900360200190f35b61024a610731565b61024a6004803603602081101561028457600080fd5b50356001600160a01b0316610740565b610136600480360360408110156102aa57600080fd5b506001600160a01b038135811691602001351661075b565b61024a6107e4565b610136600480360360208110156102e057600080fd5b50356107f3565b610136600480360360208110156102fd57600080fd5b50356001600160a01b031661089c565b6103156108bc565b60408051918252519081900360200190f35b6101d66004803603602081101561033d57600080fd5b50356001600160a01b03166108c2565b61024a6108fc565b6101366004803603602081101561036b57600080fd5b50356001600160a01b0316610907565b6000546001600160a01b0316331461039257600080fd5b6002546040805163059367b360e11b81526001600160a01b03848116600483015291519190921691630b26cf6691602480830192600092919082900301818387803b1580156103e057600080fd5b505af11580156103f4573d6000803e3d6000fd5b5050505050565b6000546001600160a01b0316331461041257600080fd5b6002546040805163f2fde38b60e01b81526001600160a01b0384811660048301529151919092169163f2fde38b91602480830192600092919082900301818387803b1580156103e057600080fd5b6000546001600160a01b0316331461047757600080fd5b61048081610927565b50565b6000546001600160a01b0316331461049a57600080fd5b6104a3816108c2565b6104ac57600080fd5b6001600160a01b0380821660009081526003602052604081205490829052600080516020610acf8339815191525490821691908116806104eb57600080fd5b836001600160a01b0316816001600160a01b03161461054a576001600160a01b0380821660009081526003602052604090205491925090811690811480159061053c57506001600160a01b03811615155b61054557600080fd5b6104eb565b6001600160a01b0380831660009081526003602052604080822080548488166001600160a01b031991821617909155928716808352818320805490941690935560048054600019019055517fe94479a9f7e1952cc78f2d6baab678adc1b772d936c6583def489e524cb666929190a250505050565b60006105ca336108c2565b6105d357600080fd5b600254604080516340c10f1960e01b81526001600160a01b03868116600483015260248201869052915191909216916340c10f199160448083019260209291908290030181600087803b15801561062957600080fd5b505af115801561063d573d6000803e3d6000fd5b505050506040513d602081101561065357600080fd5b50519392505050565b606060045460405190808252806020026020018201604052801561068a578160200160208202803883390190505b506001600160a01b0360008181526003602052600080516020610acf833981519152549293509116806106bc57600080fd5b6001600160a01b038181161461071d57808383815181106106d957fe5b6001600160a01b039283166020918202929092018101919091529181166000908152600390925260409091205460019290920191168061071857600080fd5b6106bc565b505090565b6002546001600160a01b031681565b6001546001600160a01b031681565b6003602052600090815260409020546001600160a01b031681565b6000546001600160a01b0316331461077257600080fd5b600254604080516334ffd04560e11b81526001600160a01b0385811660048301528481166024830152915191909216916369ffa08a91604480830192600092919082900301818387803b1580156107c857600080fd5b505af11580156107dc573d6000803e3d6000fd5b505050505050565b6000546001600160a01b031681565b6001546001600160a01b0316331461080a57600080fd5b8061081457610480565b600254600154604080516340c10f1960e01b81526001600160a01b03928316600482015260248101859052905191909216916340c10f199160448083019260209291908290030181600087803b15801561086d57600080fd5b505af1158015610881573d6000803e3d6000fd5b505050506040513d602081101561089757600080fd5b505050565b6000546001600160a01b031633146108b357600080fd5b6104808161098d565b60045481565b60006001600160a01b03828116148015906108f657506001600160a01b038281166000908152600360205260409020541615155b92915050565b6001600160a01b0381565b6000546001600160a01b0316331461091e57600080fd5b61048081610a5a565b61093081610ac8565b61093957600080fd5b600180546001600160a01b0383166001600160a01b0319909116811790915560408051918252517f71327c51efab7c90262103acc3454cda3dac1198483b499f5f1a55314739803d9181900360200190a150565b60326004541061099c57600080fd5b6109a5816108c2565b156109af57600080fd5b6001600160a01b0360008190526003602052600080516020610acf8339815191525416806109dc57600080fd5b6003602052600080516020610acf83398151915280546001600160a01b038085166001600160a01b031992831681179093556000838152604080822080549387169390941692909217909255600480546001019055517f6ae172837ea30b801fbfcdd4108aa1d5bf8ff775444fd70256b44e6bf3dfc3f69190a25050565b6001600160a01b038116610a6d57600080fd5b600080546040516001600160a01b03808516939216917f8be0079c531659141344cd1fd0a4f28419497f9722a3daafe3b4186f6b6457e091a3600080546001600160a01b0319166001600160a01b0392909216919091179055565b3b15159056fe6f0aaec73ef0c8a9551a95e4421cd8943e722ea864491b7def8ca75bedfd4f89a265627a7a7230582003f14c8462c7f70b1b67fc30b3e17d496ea38fe6b198e95fbb0d4e96ecf288b764736f6c634300050a00326f0aaec73ef0c8a9551a95e4421cd8943e722ea864491b7def8ca75bedfd4f89",
  "linkReferences": {},
  "deployedLinkReferences": {}
}