{
  "_format": "hh-sol-artifact-1",
  "contractName": "RandomAuRaMock",
  "sourceName": "posdao-contracts/contracts/mock/RandomAuRaMock.sol",
  "abi": [
    {
      "constant": true,
      "inputs": [
        {
          "name": "_collectRound",
          "type": "uint256"
        },
        {
          "name": "_miningAddress",
          "type": "address"
        }
      ],
      "name": "getCipher",
      "outputs": [
        {
          "name": "",
          "type": "bytes"
        }
      ],
      "payable": false,
      "stateMutability": "view",
      "type": "function"
    },
    {
      "constant": false,
      "inputs": [
        {
          "name": "_poolId",
          "type": "uint256"
        }
      ],
      "name": "clearCommit",
      "outputs": [],
      "payable": false,
      "stateMutability": "nonpayable",
      "type": "function"
    },
    {
      "constant": false,
      "inputs": [
        {
          "name": "_numberHash",
          "type": "bytes32"
        },
        {
          "name": "_cipher",
          "type": "bytes"
        }
      ],
      "name": "commitHash",
      "outputs": [],
      "payable": false,
      "stateMutability": "nonpayable",
      "type": "function"
    },
    {
      "constant": false,
      "inputs": [],
      "name": "onFinishCollectRound",
      "outputs": [],
      "payable": false,
      "stateMutability": "nonpayable",
      "type": "function"
    },
    {
      "constant": true,
      "inputs": [],
      "name": "collectRoundLength",
      "outputs": [
        {
          "name": "",
          "type": "uint256"
        }
      ],
      "payable": false,
      "stateMutability": "view",
      "type": "function"
    },
    {
      "constant": false,
      "inputs": [
        {
          "name": "_base",
          "type": "address"
        }
      ],
      "name": "setCoinbase",
      "outputs": [],
      "payable": false,
      "stateMutability": "nonpayable",
      "type": "function"
    },
    {
      "constant": false,
      "inputs": [
        {
          "name": "_collectRoundLength",
          "type": "uint256"
        },
        {
          "name": "_validatorSet",
          "type": "address"
        },
        {
          "name": "_punishForUnreveal",
          "type": "bool"
        }
      ],
      "name": "initialize",
      "outputs": [],
      "payable": false,
      "stateMutability": "nonpayable",
      "type": "function"
    },
    {
      "constant": true,
      "inputs": [],
      "name": "isInitialized",
      "outputs": [
        {
          "name": "",
          "type": "bool"
        }
      ],
      "payable": false,
      "stateMutability": "view",
      "type": "function"
    },
    {
      "constant": true,
      "inputs": [],
      "name": "punishForUnreveal",
      "outputs": [
        {
          "name": "",
          "type": "bool"
        }
      ],
      "payable": false,
      "stateMutability": "view",
      "type": "function"
    },
    {
      "constant": true,
      "inputs": [],
      "name": "commitPhaseLength",
      "outputs": [
        {
          "name": "",
          "type": "uint256"
        }
      ],
      "payable": false,
      "stateMutability": "view",
      "type": "function"
    },
    {
      "constant": false,
      "inputs": [
        {
          "name": "_blockNumber",
          "type": "uint256"
        }
      ],
      "name": "setCurrentBlockNumber",
      "outputs": [],
      "payable": false,
      "stateMutability": "nonpayable",
      "type": "function"
    },
    {
      "constant": true,
      "inputs": [
        {
          "name": "_stakingEpoch",
          "type": "uint256"
        },
        {
          "name": "_miningAddress",
          "type": "address"
        }
      ],
      "name": "revealSkips",
      "outputs": [
        {
          "name": "",
          "type": "uint256"
        }
      ],
      "payable": false,
      "stateMutability": "view",
      "type": "function"
    },
    {
      "constant": true,
      "inputs": [
        {
          "name": "_collectRound",
          "type": "uint256"
        },
        {
          "name": "_miningAddress",
          "type": "address"
        }
      ],
      "name": "sentReveal",
      "outputs": [
        {
          "name": "",
          "type": "bool"
        }
      ],
      "payable": false,
      "stateMutability": "view",
      "type": "function"
    },
    {
      "constant": true,
      "inputs": [
        {
          "name": "_collectRound",
          "type": "uint256"
        },
        {
          "name": "_miningAddress",
          "type": "address"
        }
      ],
      "name": "getCommitAndCipher",
      "outputs": [
        {
          "name": "",
          "type": "bytes32"
        },
        {
          "name": "",
          "type": "bytes"
        }
      ],
      "payable": false,
      "stateMutability": "view",
      "type": "function"
    },
    {
      "constant": false,
      "inputs": [
        {
          "name": "_validator",
          "type": "address"
        }
      ],
      "name": "setSentReveal",
      "outputs": [],
      "payable": false,
      "stateMutability": "nonpayable",
      "type": "function"
    },
    {
      "constant": true,
      "inputs": [],
      "name": "isCommitPhase",
      "outputs": [
        {
          "name": "",
          "type": "bool"
        }
      ],
      "payable": false,
      "stateMutability": "view",
      "type": "function"
    },
    {
      "constant": true,
      "inputs": [],
      "name": "nextCommitPhaseStartBlock",
      "outputs": [
        {
          "name": "",
          "type": "uint256"
        }
      ],
      "payable": false,
      "stateMutability": "view",
      "type": "function"
    },
    {
      "constant": true,
      "inputs": [],
      "name": "currentCollectRound",
      "outputs": [
        {
          "name": "",
          "type": "uint256"
        }
      ],
      "payable": false,
      "stateMutability": "view",
      "type": "function"
    },
    {
      "constant": true,
      "inputs": [],
      "name": "nextCollectRoundStartBlock",
      "outputs": [
        {
          "name": "",
          "type": "uint256"
        }
      ],
      "payable": false,
      "stateMutability": "view",
      "type": "function"
    },
    {
      "constant": true,
      "inputs": [],
      "name": "currentSeed",
      "outputs": [
        {
          "name": "",
          "type": "uint256"
        }
      ],
      "payable": false,
      "stateMutability": "view",
      "type": "function"
    },
    {
      "constant": false,
      "inputs": [
        {
          "name": "_number",
          "type": "uint256"
        }
      ],
      "name": "revealSecret",
      "outputs": [],
      "payable": false,
      "stateMutability": "nonpayable",
      "type": "function"
    },
    {
      "constant": true,
      "inputs": [
        {
          "name": "_miningAddress",
          "type": "address"
        },
        {
          "name": "_number",
          "type": "uint256"
        }
      ],
      "name": "revealSecretCallable",
      "outputs": [
        {
          "name": "",
          "type": "bool"
        }
      ],
      "payable": false,
      "stateMutability": "view",
      "type": "function"
    },
    {
      "constant": true,
      "inputs": [
        {
          "name": "_collectRound",
          "type": "uint256"
        },
        {
          "name": "_miningAddress",
          "type": "address"
        }
      ],
      "name": "isCommitted",
      "outputs": [
        {
          "name": "",
          "type": "bool"
        }
      ],
      "payable": false,
      "stateMutability": "view",
      "type": "function"
    },
    {
      "constant": true,
      "inputs": [],
      "name": "isRevealPhase",
      "outputs": [
        {
          "name": "",
          "type": "bool"
        }
      ],
      "payable": false,
      "stateMutability": "view",
      "type": "function"
    },
    {
      "constant": true,
      "inputs": [],
      "name": "nextRevealPhaseStartBlock",
      "outputs": [
        {
          "name": "",
          "type": "uint256"
        }
      ],
      "payable": false,
      "stateMutability": "view",
      "type": "function"
    },
    {
      "constant": false,
      "inputs": [
        {
          "name": "_punishForUnreveal",
          "type": "bool"
        }
      ],
      "name": "setPunishForUnreveal",
      "outputs": [],
      "payable": false,
      "stateMutability": "nonpayable",
      "type": "function"
    },
    {
      "constant": true,
      "inputs": [
        {
          "name": "_miningAddress",
          "type": "address"
        },
        {
          "name": "_numberHash",
          "type": "bytes32"
        }
      ],
      "name": "commitHashCallable",
      "outputs": [
        {
          "name": "",
          "type": "bool"
        }
      ],
      "payable": false,
      "stateMutability": "view",
      "type": "function"
    },
    {
      "constant": true,
      "inputs": [],
      "name": "validatorSetContract",
      "outputs": [
        {
          "name": "",
          "type": "address"
        }
      ],
      "payable": false,
      "stateMutability": "view",
      "type": "function"
    },
    {
      "constant": true,
      "inputs": [
        {
          "name": "_collectRound",
          "type": "uint256"
        },
        {
          "name": "_miningAddress",
          "type": "address"
        }
      ],
      "name": "getCommit",
      "outputs": [
        {
          "name": "",
          "type": "bytes32"
        }
      ],
      "payable": false,
      "stateMutability": "view",
      "type": "function"
    },
    {
      "constant": true,
      "inputs": [],
      "name": "currentCollectRoundStartBlock",
      "outputs": [
        {
          "name": "",
          "type": "uint256"
        }
      ],
      "payable": false,
      "stateMutability": "view",
      "type": "function"
    },
    {
      "constant": true,
      "inputs": [
        {
          "name": "_miningAddress",
          "type": "address"
        },
        {
          "name": "_number",
          "type": "uint256"
        }
      ],
      "name": "revealNumberCallable",
      "outputs": [
        {
          "name": "",
          "type": "bool"
        }
      ],
      "payable": false,
      "stateMutability": "view",
      "type": "function"
    },
    {
      "constant": false,
      "inputs": [
        {
          "name": "_number",
          "type": "uint256"
        }
      ],
      "name": "revealNumber",
      "outputs": [],
      "payable": false,
      "stateMutability": "nonpayable",
      "type": "function"
    }
  ],
  "bytecode": "0x608060405234801561001057600080fd5b50611f73806100206000396000f3fe608060405234801561001057600080fd5b50600436106101f05760003560e01c806378ab865d1161010f578063c64c2064116100a2578063f2f56ffe11610071578063f2f56ffe14610636578063f58ccc6a14610662578063fd6c1d151461055f578063fe7d567d14610542576101f0565b8063c64c2064146105bf578063cc93dab4146105c7578063de109e20146105e6578063dfc8bf4e14610612576101f0565b806398df67c6116100de57806398df67c614610542578063b6b295ae1461055f578063baf11cab1461058b578063c358ced0146105b7576101f0565b806378ab865d146105225780637a3e286b1461052a57806383209c3f14610532578063832206261461053a576101f0565b80633afa443c1161018757806363f160e61161015657806363f160e61461041d578063695e89f61461044957806373bf3834146104f457806374ce90671461051a576101f0565b80633afa443c146103c457806343e7aa1d146103cc57806352a2f021146103d45780635aca47f6146103f1576101f0565b80631c77c58c116101c35780631c77c58c146103345780631da420cd1461034e57806328804dbd14610374578063392e53cd146103a8576101f0565b8063096a113d146101f55780630b402823146102965780630b61ba85146102b5578063109c11071461032c575b600080fd5b6102216004803603604081101561020b57600080fd5b50803590602001356001600160a01b031661066a565b6040805160208082528351818301528351919283929083019185019080838360005b8381101561025b578181015183820152602001610243565b50505050905090810190601f1680156102885780820380516001836020036101000a031916815260200191505b509250505060405180910390f35b6102b3600480360360208110156102ac57600080fd5b5035610790565b005b6102b3600480360360408110156102cb57600080fd5b813591908101906040810160208201356401000000008111156102ed57600080fd5b8201836020820111156102ff57600080fd5b8035906020019184600183028401116401000000008311171561032157600080fd5b50909250905061080f565b6102b3610945565b61033c611134565b60408051918252519081900360200190f35b6102b36004803603602081101561036457600080fd5b50356001600160a01b031661113a565b6102b36004803603606081101561038a57600080fd5b508035906001600160a01b036020820135169060400135151561115c565b6103b0611377565b604080519115158252519081900360200190f35b6103b0611389565b61033c611392565b6102b3600480360360208110156103ea57600080fd5b50356113a6565b61033c6004803603604081101561040757600080fd5b50803590602001356001600160a01b03166113ab565b6103b06004803603604081101561043357600080fd5b50803590602001356001600160a01b0316611448565b6104756004803603604081101561045f57600080fd5b50803590602001356001600160a01b03166114e8565b6040518083815260200180602001828103825283818151815260200191508051906020019080838360005b838110156104b85781810151838201526020016104a0565b50505050905090810190601f1680156104e55780820380516001836020036101000a031916815260200191505b50935050505060405180910390f35b6102b36004803603602081101561050a57600080fd5b50356001600160a01b031661162c565b6103b06116ea565b61033c611710565b61033c61171f565b61033c611736565b61033c611764565b6102b36004803603602081101561055857600080fd5b503561176a565b6103b06004803603604081101561057557600080fd5b506001600160a01b038135169060200135611787565b6103b0600480360360408110156105a157600080fd5b50803590602001356001600160a01b031661179a565b6103b06118fa565b61033c61190a565b6102b3600480360360208110156105dd57600080fd5b50351515611941565b6103b0600480360360408110156105fc57600080fd5b506001600160a01b038135169060200135611979565b61061a611a48565b604080516001600160a01b039092168252519081900360200190f35b61033c6004803603604081101561064c57600080fd5b50803590602001356001600160a01b0316611a57565b61033c611af4565b600854604080516315ddbdb960e11b81526001600160a01b03848116600483015291516060936000931691632bbb7b72916024808301926020929190829003018186803b1580156106ba57600080fd5b505afa1580156106ce573d6000803e3d6000fd5b505050506040513d60208110156106e457600080fd5b50516000858152602081815260408083208484528252918290208054835160026001831615610100026000190190921691909104601f810184900484028201840190945283815293945091908301828280156107815780601f1061075657610100808354040283529160200191610781565b820191906000526020600020905b81548152906001019060200180831161076457829003601f168201915b50505050509150505b92915050565b6008546001600160a01b031633146107a757600080fd5b60006107b161171f565b600081815260076020908152604080832086845290915290205490915060ff1661080b5760008181526001602090815260408083208584528252808320839055838352828252808320858452909152812061080b91611e39565b5050565b610817611377565b61082057600080fd5b3361082b8185611979565b61083457600080fd5b806001600160a01b0316610846611b0a565b6001600160a01b03161461085957600080fd5b600061086361171f565b600854604080516315ddbdb960e11b81526001600160a01b03868116600483015291519394506000939190921691632bbb7b72916024808301926020929190829003018186803b1580156108b657600080fd5b505afa1580156108ca573d6000803e3d6000fd5b505050506040513d60208110156108e057600080fd5b5051600083815260016020908152604080832084845282528083208a9055858352828252808320848452909152902090915061091d908686611e7d565b5060009182526002602090815260408320805460018101825590845292209091015550505050565b600860009054906101000a90046001600160a01b03166001600160a01b03166356b54bae6040518163ffffffff1660e01b815260040160206040518083038186803b15801561099357600080fd5b505afa1580156109a7573d6000803e3d6000fd5b505050506040513d60208110156109bd57600080fd5b50516001600160a01b031633146109d357600080fd5b6003546109de611b33565b816109e557fe5b06156109f057611132565b60606000806000600860009054906101000a90046001600160a01b03166001600160a01b031663ee99205c6040518163ffffffff1660e01b815260040160206040518083038186803b158015610a4557600080fd5b505afa158015610a59573d6000803e3d6000fd5b505050506040513d6020811015610a6f57600080fd5b505160408051630f29818d60e31b815290519192506000916001600160a01b0384169163794c0c68916004808301926020929190829003018186803b158015610ab757600080fd5b505afa158015610acb573d6000803e3d6000fd5b505050506040513d6020811015610ae157600080fd5b505160408051633834f3a360e11b815290519192506000916001600160a01b03851691637069e746916004808301926020929190829003018186803b158015610b2957600080fd5b505afa158015610b3d573d6000803e3d6000fd5b505050506040513d6020811015610b5357600080fd5b50516040805163461121d760e11b815290519192506000916001600160a01b03861691638c2243ae916004808301926020929190829003018186803b158015610b9b57600080fd5b505afa158015610baf573d6000803e3d6000fd5b505050506040513d6020811015610bc557600080fd5b505190506000610bd361171f565b90506003546003028301610be5611b33565b1115610da157600860009054906101000a90046001600160a01b03166001600160a01b031663b7ab4db56040518163ffffffff1660e01b815260040160006040518083038186803b158015610c3957600080fd5b505afa158015610c4d573d6000803e3d6000fd5b505050506040513d6000823e601f3d908101601f191682016040526020811015610c7657600080fd5b810190808051640100000000811115610c8e57600080fd5b82016020810184811115610ca157600080fd5b8151856020820283011164010000000082111715610cbe57600080fd5b50909b5060009950505050505b8751861015610da157878681518110610ce057fe5b60200260200101519650610cf48188611448565b610d9657600854604080516315ddbdb960e11b81526001600160a01b038a8116600483015291516000939290921691632bbb7b7291602480820192602092909190829003018186803b158015610d4957600080fd5b505afa158015610d5d573d6000803e3d6000fd5b505050506040513d6020811015610d7357600080fd5b505160008681526006602090815260408083209383529290522080546001019055505b600190950194610ccb565b60055460ff168015610dcd575081610db7611b33565b1480610dcd575081600354610dca611b33565b01115b15611120576000600354866001600160a01b03166397997ebb6040518163ffffffff1660e01b815260040160206040518083038186803b158015610e1057600080fd5b505afa158015610e24573d6000803e3d6000fd5b505050506040513d6020811015610e3a57600080fd5b505181610e4357fe5b0490506001811115610e585760011901610e63565b8015610e6357600019015b600860009054906101000a90046001600160a01b03166001600160a01b031663b7ab4db56040518163ffffffff1660e01b815260040160006040518083038186803b158015610eb157600080fd5b505afa158015610ec5573d6000803e3d6000fd5b505050506040513d6000823e601f3d908101601f191682016040526020811015610eee57600080fd5b810190808051640100000000811115610f0657600080fd5b82016020810184811115610f1957600080fd5b8151856020820283011164010000000082111715610f3657600080fd5b5050929190505050985060608951604051908082528060200260200182016040528015610f6d578160200160208202803883390190505b50600098509050875b8a51891015610ff7578a8981518110610f8b57fe5b60200260200101519950610f9f848b611448565b1580610fb3575082610fb1888c6113ab565b115b15610fec5789828280600101935081518110610fcb57fe5b60200260200101906001600160a01b031690816001600160a01b0316815250505b600190980197610f76565b801561111c57606081604051908082528060200260200182016040528015611029578160200160208202803883390190505b509050600099505b818a101561107c57828a8151811061104557fe5b6020026020010151818b8151811061105957fe5b6001600160a01b0390921660209283029190910190910152600190990198611031565b60085460405163018daf6b60e21b81526020600482018181528451602484015284516001600160a01b0390941693630636bdac9386938392604490920191818601910280838360005b838110156110dd5781810151838201526020016110c5565b5050505090500192505050600060405180830381600087803b15801561110257600080fd5b505af1158015611116573d6000803e3d6000fd5b50505050505b5050505b61112981611b39565b50505050505050505b565b60035481565b600980546001600160a01b0319166001600160a01b0392909216919091179055565b611164611b33565b15806111885750611173611bf0565b6001600160a01b0316336001600160a01b0316145b61119157600080fd5b611199611377565b156111a357600080fd5b8160028406156111b257600080fd5b806001600160a01b031663714897df6040518163ffffffff1660e01b815260040160206040518083038186803b1580156111eb57600080fd5b505afa1580156111ff573d6000803e3d6000fd5b505050506040513d602081101561121557600080fd5b5051848161121f57fe5b061561122a57600080fd5b83816001600160a01b031663ee99205c6040518163ffffffff1660e01b815260040160206040518083038186803b15801561126457600080fd5b505afa158015611278573d6000803e3d6000fd5b505050506040513d602081101561128e57600080fd5b50516040805163d609ea9360e01b815290516001600160a01b039092169163d609ea9391600480820192602092909190829003018186803b1580156112d257600080fd5b505afa1580156112e6573d6000803e3d6000fd5b505050506040513d60208110156112fc57600080fd5b50518161130557fe5b061561131057600080fd5b6000841161131d57600080fd5b6003541561132a57600080fd5b6001600160a01b03831661133d57600080fd5b50600392909255600880546001600160a01b0319166001600160a01b03929092169190911790556005805460ff1916911515919091179055565b6008546001600160a01b031615155b90565b60055460ff1681565b60006002600354816113a057fe5b04905090565b600a55565b600854604080516315ddbdb960e11b81526001600160a01b038481166004830152915160009384931691632bbb7b72916024808301926020929190829003018186803b1580156113fa57600080fd5b505afa15801561140e573d6000803e3d6000fd5b505050506040513d602081101561142457600080fd5b50516000858152600660209081526040808320938352929052205491505092915050565b600854604080516315ddbdb960e11b81526001600160a01b038481166004830152915160009384931691632bbb7b72916024808301926020929190829003018186803b15801561149757600080fd5b505afa1580156114ab573d6000803e3d6000fd5b505050506040513d60208110156114c157600080fd5b50516000858152600760209081526040808320938352929052205460ff1691505092915050565b600854604080516315ddbdb960e11b81526001600160a01b03848116600483015291516000936060938593911691632bbb7b7291602480820192602092909190829003018186803b15801561153c57600080fd5b505afa158015611550573d6000803e3d6000fd5b505050506040513d602081101561156657600080fd5b505160008681526001602081815260408084208585528252808420548a855284835281852086865283529381902080548251600295821615610100026000190190911694909404601f810184900484028501840190925281845294955092939283918301828280156116195780601f106115ee57610100808354040283529160200191611619565b820191906000526020600020905b8154815290600101906020018083116115fc57829003601f168201915b5050505050905092509250509250929050565b600854604080516315ddbdb960e11b81526001600160a01b03848116600483015291516000939290921691632bbb7b7291602480820192602092909190829003018186803b15801561167d57600080fd5b505afa158015611691573d6000803e3d6000fd5b505050506040513d60208110156116a757600080fd5b505190506001600760006116b961171f565b81526020808201929092526040908101600090812094815293909152909120805460ff191691151591909117905550565b60006116f4611392565b6003546001611701611b33565b038161170957fe5b0610905090565b600061171a611736565b905090565b6000600354600161172e611b33565b03816113a057fe5b600080611741611b33565b90506000600354600183038161175357fe5b066003540390508082019250505090565b60045481565b611772611377565b61177b57600080fd5b61178481611c15565b50565b60006117938383611d21565b9392505050565b600854604080516315ddbdb960e11b81526001600160a01b038481166004830152915160009384931691632bbb7b72916024808301926020929190829003018186803b1580156117e957600080fd5b505afa1580156117fd573d6000803e3d6000fd5b505050506040513d602081101561181357600080fd5b50519050801580159061182957506118296116ea565b156118b257600854604080516324b49dad60e21b815281516000936001600160a01b0316926392d276b49260048082019391829003018186803b15801561186f57600080fd5b505afa158015611883573d6000803e3d6000fd5b505050506040513d604081101561189957600080fd5b50519050818114156118b05760019250505061078a565b505b60008481526001602090815260408083208484529091529020541515806118f25750600084815260076020908152604080832084845290915290205460ff165b949350505050565b60006119046116ea565b15905090565b60006119146116ea565b1561193157611921611392565b611929611af4565b019050611386565b611939611392565b611929611736565b611949611bf0565b6001600160a01b0316336001600160a01b03161461196657600080fd5b6005805460ff1916911515919091179055565b60006119836116ea565b61198f5750600061078a565b8161199c5750600061078a565b6008546040805163facd743b60e01b81526001600160a01b0386811660048301529151919092169163facd743b916024808301926020929190829003018186803b1580156119e957600080fd5b505afa1580156119fd573d6000803e3d6000fd5b505050506040513d6020811015611a1357600080fd5b5051611a215750600061078a565b611a32611a2c61171f565b8461179a565b15611a3f5750600061078a565b50600192915050565b6008546001600160a01b031681565b600854604080516315ddbdb960e11b81526001600160a01b038481166004830152915160009384931691632bbb7b72916024808301926020929190829003018186803b158015611aa657600080fd5b505afa158015611aba573d6000803e3d6000fd5b505050506040513d6020811015611ad057600080fd5b50516000858152600160209081526040808320938352929052205491505092915050565b6000600354611b0161171f565b02600101905090565b6009546000906001600160a01b0316611b23574161171a565b506009546001600160a01b031690565b600a5490565b80611b4357611784565b60001981016000818152600260205260408120805490915b81811015611bdc576000838281548110611b7157fe5b60009182526020808320909101548783528282526040808420828552909252908220909250611b9f91611e39565b6000858152600160208181526040808420858552825280842084905588845260078252808420948452939052919020805460ff1916905501611b5b565b506000611be98382611efb565b5050505050565b7fb53127684a568b3173ae13b9f8a6016e243e63b6e8ee1178d6a717850b5d61035490565b33611c208183611787565b611c2957600080fd5b806001600160a01b0316611c3b611b0a565b6001600160a01b031614611c4e57600080fd5b600854604080516315ddbdb960e11b81526001600160a01b03848116600483015291516000939290921691632bbb7b7291602480820192602092909190829003018186803b158015611c9f57600080fd5b505afa158015611cb3573d6000803e3d6000fd5b505050506040513d6020811015611cc957600080fd5b5051600480548518905590506000611cdf61171f565b60008181526007602090815260408083208684528252808320805460ff1916600190811790915593835292815282822094825293909352822091909155505050565b6000611d2b6118fa565b611d375750600061078a565b604080516020808201859052825180830382018152918301909252805191012080611d6657600091505061078a565b6008546040805163facd743b60e01b81526001600160a01b0387811660048301529151919092169163facd743b916024808301926020929190829003018186803b158015611db357600080fd5b505afa158015611dc7573d6000803e3d6000fd5b505050506040513d6020811015611ddd57600080fd5b5051611ded57600091505061078a565b6000611df761171f565b9050611e038186611448565b15611e135760009250505061078a565b611e1d8186611a57565b8214611e2e5760009250505061078a565b506001949350505050565b50805460018160011615610100020316600290046000825580601f10611e5f5750611784565b601f0160209004906000526020600020908101906117849190611f24565b828054600181600116156101000203166002900490600052602060002090601f016020900481019282601f10611ebe5782800160ff19823516178555611eeb565b82800160010185558215611eeb579182015b82811115611eeb578235825591602001919060010190611ed0565b50611ef7929150611f24565b5090565b815481835581811115611f1f57600083815260209020611f1f918101908301611f24565b505050565b61138691905b80821115611ef75760008155600101611f2a56fea265627a7a7230582008433763777dd68fa0976b5d9775452412d9138b0e8e93b743b84d42e2d9d00f64736f6c634300050a0032",
  "linkReferences": {},
  "deployedLinkReferences": {}
}