{
  "_format": "hh-sol-artifact-1",
  "contractName": "BlockRewardAuRaTokensMock",
  "sourceName": "posdao-contracts/contracts/mock/BlockRewardAuRaTokensMock.sol",
  "abi": [
    {
      "constant": false,
      "inputs": [
        {
          "name": "_address",
          "type": "address"
        }
      ],
      "name": "setSystemAddress",
      "outputs": [],
      "payable": false,
      "stateMutability": "nonpayable",
      "type": "function"
    },
    {
      "constant": true,
      "inputs": [
        {
          "name": "",
          "type": "uint256"
        },
        {
          "name": "",
          "type": "uint256"
        }
      ],
      "name": "snapshotPoolTotalStakeAmount",
      "outputs": [
        {
          "name": "",
          "type": "uint256"
        }
      ],
      "payable": false,
      "stateMutability": "view",
      "type": "function"
    },
    {
      "constant": false,
      "inputs": [
        {
          "name": "_stakingEpoch",
          "type": "uint256"
        },
        {
          "name": "_poolMiningAddress",
          "type": "address"
        },
        {
          "name": "_amount",
          "type": "uint256"
        }
      ],
      "name": "setSnapshotPoolValidatorStakeAmount",
      "outputs": [],
      "payable": false,
      "stateMutability": "nonpayable",
      "type": "function"
    },
    {
      "constant": false,
      "inputs": [
        {
          "name": "_tokenMinterContract",
          "type": "address"
        }
      ],
      "name": "setTokenMinterContract",
      "outputs": [],
      "payable": false,
      "stateMutability": "nonpayable",
      "type": "function"
    },
    {
      "constant": true,
      "inputs": [
        {
          "name": "_stakingEpoch",
          "type": "uint256"
        },
        {
          "name": "_poolId",
          "type": "uint256"
        }
      ],
      "name": "getValidatorReward",
      "outputs": [
        {
          "name": "tokenReward",
          "type": "uint256"
        },
        {
          "name": "nativeReward",
          "type": "uint256"
        }
      ],
      "payable": false,
      "stateMutability": "view",
      "type": "function"
    },
    {
      "constant": false,
      "inputs": [
        {
          "name": "_amount",
          "type": "uint256"
        }
      ],
      "name": "addBridgeTokenFeeReceivers",
      "outputs": [],
      "payable": false,
      "stateMutability": "nonpayable",
      "type": "function"
    },
    {
      "constant": false,
      "inputs": [
        {
          "name": "_bridgesAllowed",
          "type": "address[]"
        }
      ],
      "name": "setErcToNativeBridgesAllowed",
      "outputs": [],
      "payable": false,
      "stateMutability": "nonpayable",
      "type": "function"
    },
    {
      "constant": true,
      "inputs": [
        {
          "name": "",
          "type": "uint256"
        },
        {
          "name": "",
          "type": "uint256"
        }
      ],
      "name": "epochPoolNativeReward",
      "outputs": [
        {
          "name": "",
          "type": "uint256"
        }
      ],
      "payable": false,
      "stateMutability": "view",
      "type": "function"
    },
    {
      "constant": true,
      "inputs": [
        {
          "name": "_rewardToDistribute",
          "type": "uint256"
        },
        {
          "name": "_blocksCreatedShareNum",
          "type": "uint256[]"
        },
        {
          "name": "_blocksCreatedShareDenom",
          "type": "uint256"
        },
        {
          "name": "_stakingEpoch",
          "type": "uint256"
        }
      ],
      "name": "currentPoolRewards",
      "outputs": [
        {
          "name": "",
          "type": "uint256[]"
        }
      ],
      "payable": false,
      "stateMutability": "view",
      "type": "function"
    },
    {
      "constant": false,
      "inputs": [
        {
          "name": "_amount",
          "type": "uint256"
        }
      ],
      "name": "addBridgeNativeRewardReceivers",
      "outputs": [],
      "payable": false,
      "stateMutability": "nonpayable",
      "type": "function"
    },
    {
      "constant": false,
      "inputs": [
        {
          "name": "_stakingContract",
          "type": "address"
        },
        {
          "name": "_stakingEpoch",
          "type": "uint256"
        },
        {
          "name": "_poolId",
          "type": "uint256"
        }
      ],
      "name": "snapshotPoolStakeAmounts",
      "outputs": [],
      "payable": false,
      "stateMutability": "nonpayable",
      "type": "function"
    },
    {
      "constant": true,
      "inputs": [],
      "name": "blockRewardContractId",
      "outputs": [
        {
          "name": "",
          "type": "bytes4"
        }
      ],
      "payable": false,
      "stateMutability": "pure",
      "type": "function"
    },
    {
      "constant": true,
      "inputs": [
        {
          "name": "_stakingContract",
          "type": "address"
        },
        {
          "name": "_stakingEpoch",
          "type": "uint256"
        },
        {
          "name": "_totalRewardShareNum",
          "type": "uint256"
        },
        {
          "name": "_totalRewardShareDenom",
          "type": "uint256"
        },
        {
          "name": "_validators",
          "type": "uint256[]"
        }
      ],
      "name": "currentNativeRewardToDistribute",
      "outputs": [
        {
          "name": "",
          "type": "uint256"
        },
        {
          "name": "",
          "type": "uint256"
        }
      ],
      "payable": false,
      "stateMutability": "view",
      "type": "function"
    },
    {
      "constant": true,
      "inputs": [
        {
          "name": "",
          "type": "address"
        },
        {
          "name": "",
          "type": "uint256"
        }
      ],
      "name": "mintedForAccountInBlock",
      "outputs": [
        {
          "name": "",
          "type": "uint256"
        }
      ],
      "payable": false,
      "stateMutability": "view",
      "type": "function"
    },
    {
      "constant": true,
      "inputs": [],
      "name": "isInitialized",
      "outputs": [
        {
          "name": "",
          "type": "bool"
        }
      ],
      "payable": false,
      "stateMutability": "view",
      "type": "function"
    },
    {
      "constant": true,
      "inputs": [
        {
          "name": "_poolId",
          "type": "uint256"
        }
      ],
      "name": "validatorRewardPercent",
      "outputs": [
        {
          "name": "",
          "type": "uint256"
        }
      ],
      "payable": false,
      "stateMutability": "view",
      "type": "function"
    },
    {
      "constant": true,
      "inputs": [
        {
          "name": "",
          "type": "address"
        }
      ],
      "name": "mintedForAccount",
      "outputs": [
        {
          "name": "",
          "type": "uint256"
        }
      ],
      "payable": false,
      "stateMutability": "view",
      "type": "function"
    },
    {
      "constant": true,
      "inputs": [
        {
          "name": "_stakingEpoch",
          "type": "uint256"
        },
        {
          "name": "_validators",
          "type": "uint256[]"
        },
        {
          "name": "_inflationRate",
          "type": "uint256"
        }
      ],
      "name": "inflationAmount",
      "outputs": [
        {
          "name": "",
          "type": "uint256"
        }
      ],
      "payable": false,
      "stateMutability": "view",
      "type": "function"
    },
    {
      "constant": true,
      "inputs": [],
      "name": "ercToNativeBridgesAllowed",
      "outputs": [
        {
          "name": "",
          "type": "address[]"
        }
      ],
      "payable": false,
      "stateMutability": "view",
      "type": "function"
    },
    {
      "constant": true,
      "inputs": [
        {
          "name": "_stakingContract",
          "type": "address"
        },
        {
          "name": "_stakingEpoch",
          "type": "uint256"
        },
        {
          "name": "_totalRewardShareNum",
          "type": "uint256"
        },
        {
          "name": "_totalRewardShareDenom",
          "type": "uint256"
        },
        {
          "name": "_validators",
          "type": "uint256[]"
        }
      ],
      "name": "currentTokenRewardToDistribute",
      "outputs": [
        {
          "name": "",
          "type": "uint256"
        },
        {
          "name": "",
          "type": "uint256"
        }
      ],
      "payable": false,
      "stateMutability": "view",
      "type": "function"
    },
    {
      "constant": true,
      "inputs": [
        {
          "name": "",
          "type": "uint256"
        }
      ],
      "name": "mintedInBlock",
      "outputs": [
        {
          "name": "",
          "type": "uint256"
        }
      ],
      "payable": false,
      "stateMutability": "view",
      "type": "function"
    },
    {
      "constant": false,
      "inputs": [
        {
          "name": "_validatorSet",
          "type": "address"
        },
        {
          "name": "_prevBlockReward",
          "type": "address"
        }
      ],
      "name": "initialize",
      "outputs": [],
      "payable": false,
      "stateMutability": "nonpayable",
      "type": "function"
    },
    {
      "constant": true,
      "inputs": [],
      "name": "STAKE_TOKEN_INFLATION_RATE",
      "outputs": [
        {
          "name": "",
          "type": "uint256"
        }
      ],
      "payable": false,
      "stateMutability": "view",
      "type": "function"
    },
    {
      "constant": true,
      "inputs": [
        {
          "name": "_poolStakingAddress",
          "type": "address"
        },
        {
          "name": "_staker",
          "type": "address"
        }
      ],
      "name": "epochsToClaimRewardFrom",
      "outputs": [
        {
          "name": "epochsToClaimFrom",
          "type": "uint256[]"
        }
      ],
      "payable": false,
      "stateMutability": "view",
      "type": "function"
    },
    {
      "constant": false,
      "inputs": [
        {
          "name": "_blockNumber",
          "type": "uint256"
        }
      ],
      "name": "setCurrentBlockNumber",
      "outputs": [],
      "payable": false,
      "stateMutability": "nonpayable",
      "type": "function"
    },
    {
      "constant": false,
      "inputs": [
        {
          "name": "_amount",
          "type": "uint256"
        }
      ],
      "name": "addBridgeNativeFeeReceivers",
      "outputs": [],
      "payable": false,
      "stateMutability": "nonpayable",
      "type": "function"
    },
    {
      "constant": true,
      "inputs": [],
      "name": "mintedTotally",
      "outputs": [
        {
          "name": "",
          "type": "uint256"
        }
      ],
      "payable": false,
      "stateMutability": "view",
      "type": "function"
    },
    {
      "constant": true,
      "inputs": [
        {
          "name": "_stakingEpoch",
          "type": "uint256"
        },
        {
          "name": "_delegatorStaked",
          "type": "uint256"
        },
        {
          "name": "_validatorStaked",
          "type": "uint256"
        },
        {
          "name": "_totalStaked",
          "type": "uint256"
        },
        {
          "name": "_poolReward",
          "type": "uint256"
        }
      ],
      "name": "delegatorShare",
      "outputs": [
        {
          "name": "",
          "type": "uint256"
        }
      ],
      "payable": false,
      "stateMutability": "view",
      "type": "function"
    },
    {
      "constant": false,
      "inputs": [
        {
          "name": "_amount",
          "type": "uint256"
        }
      ],
      "name": "addBridgeTokenRewardReceivers",
      "outputs": [],
      "payable": false,
      "stateMutability": "nonpayable",
      "type": "function"
    },
    {
      "constant": false,
      "inputs": [
        {
          "name": "_bridgesAllowed",
          "type": "address[]"
        }
      ],
      "name": "setNativeToErcBridgesAllowed",
      "outputs": [],
      "payable": false,
      "stateMutability": "nonpayable",
      "type": "function"
    },
    {
      "constant": true,
      "inputs": [],
      "name": "tokenRewardUndistributed",
      "outputs": [
        {
          "name": "",
          "type": "uint256"
        }
      ],
      "payable": false,
      "stateMutability": "view",
      "type": "function"
    },
    {
      "constant": false,
      "inputs": [
        {
          "name": "_tokens",
          "type": "uint256"
        },
        {
          "name": "_nativeCoins",
          "type": "uint256"
        },
        {
          "name": "_to",
          "type": "address"
        }
      ],
      "name": "transferReward",
      "outputs": [],
      "payable": false,
      "stateMutability": "nonpayable",
      "type": "function"
    },
    {
      "constant": true,
      "inputs": [
        {
          "name": "",
          "type": "uint256"
        },
        {
          "name": "",
          "type": "uint256"
        }
      ],
      "name": "snapshotPoolValidatorStakeAmount",
      "outputs": [
        {
          "name": "",
          "type": "uint256"
        }
      ],
      "payable": false,
      "stateMutability": "view",
      "type": "function"
    },
    {
      "constant": true,
      "inputs": [
        {
          "name": "_stakingEpoch",
          "type": "uint256"
        },
        {
          "name": "_validatorStaked",
          "type": "uint256"
        },
        {
          "name": "_totalStaked",
          "type": "uint256"
        },
        {
          "name": "_poolReward",
          "type": "uint256"
        }
      ],
      "name": "validatorShare",
      "outputs": [
        {
          "name": "",
          "type": "uint256"
        }
      ],
      "payable": false,
      "stateMutability": "view",
      "type": "function"
    },
    {
      "constant": true,
      "inputs": [
        {
          "name": "_delegatorStake",
          "type": "uint256"
        },
        {
          "name": "_stakingEpoch",
          "type": "uint256"
        },
        {
          "name": "_poolId",
          "type": "uint256"
        }
      ],
      "name": "getDelegatorReward",
      "outputs": [
        {
          "name": "tokenReward",
          "type": "uint256"
        },
        {
          "name": "nativeReward",
          "type": "uint256"
        }
      ],
      "payable": false,
      "stateMutability": "view",
      "type": "function"
    },
    {
      "constant": false,
      "inputs": [
        {
          "name": "_bridgesAllowed",
          "type": "address[]"
        }
      ],
      "name": "setErcToErcBridgesAllowed",
      "outputs": [],
      "payable": false,
      "stateMutability": "nonpayable",
      "type": "function"
    },
    {
      "constant": true,
      "inputs": [],
      "name": "ercToErcBridgesAllowed",
      "outputs": [
        {
          "name": "",
          "type": "address[]"
        }
      ],
      "payable": false,
      "stateMutability": "view",
      "type": "function"
    },
    {
      "constant": true,
      "inputs": [
        {
          "name": "",
          "type": "address"
        },
        {
          "name": "",
          "type": "uint256"
        },
        {
          "name": "",
          "type": "bytes"
        }
      ],
      "name": "onTokenTransfer",
      "outputs": [
        {
          "name": "",
          "type": "bool"
        }
      ],
      "payable": false,
      "stateMutability": "pure",
      "type": "function"
    },
    {
      "constant": true,
      "inputs": [],
      "name": "extraReceiversQueueSize",
      "outputs": [
        {
          "name": "",
          "type": "uint256"
        }
      ],
      "payable": false,
      "stateMutability": "view",
      "type": "function"
    },
    {
      "constant": false,
      "inputs": [
        {
          "name": "_amount",
          "type": "uint256"
        },
        {
          "name": "_receiver",
          "type": "address"
        }
      ],
      "name": "addExtraReceiver",
      "outputs": [],
      "payable": false,
      "stateMutability": "nonpayable",
      "type": "function"
    },
    {
      "constant": true,
      "inputs": [],
      "name": "bridgeNativeReward",
      "outputs": [
        {
          "name": "",
          "type": "uint256"
        }
      ],
      "payable": false,
      "stateMutability": "view",
      "type": "function"
    },
    {
      "constant": true,
      "inputs": [],
      "name": "nativeRewardUndistributed",
      "outputs": [
        {
          "name": "",
          "type": "uint256"
        }
      ],
      "payable": false,
      "stateMutability": "view",
      "type": "function"
    },
    {
      "constant": true,
      "inputs": [],
      "name": "nativeToErcBridgesAllowed",
      "outputs": [
        {
          "name": "",
          "type": "address[]"
        }
      ],
      "payable": false,
      "stateMutability": "view",
      "type": "function"
    },
    {
      "constant": true,
      "inputs": [
        {
          "name": "",
          "type": "address"
        }
      ],
      "name": "mintedTotallyByBridge",
      "outputs": [
        {
          "name": "",
          "type": "uint256"
        }
      ],
      "payable": false,
      "stateMutability": "view",
      "type": "function"
    },
    {
      "constant": false,
      "inputs": [],
      "name": "clearBlocksCreated",
      "outputs": [],
      "payable": false,
      "stateMutability": "nonpayable",
      "type": "function"
    },
    {
      "constant": false,
      "inputs": [
        {
          "name": "_stakingEpoch",
          "type": "uint256"
        },
        {
          "name": "_poolMiningAddress",
          "type": "address"
        },
        {
          "name": "_tokenReward",
          "type": "uint256"
        }
      ],
      "name": "setEpochPoolReward",
      "outputs": [],
      "payable": true,
      "stateMutability": "payable",
      "type": "function"
    },
    {
      "constant": true,
      "inputs": [],
      "name": "tokenMinterContract",
      "outputs": [
        {
          "name": "",
          "type": "address"
        }
      ],
      "payable": false,
      "stateMutability": "view",
      "type": "function"
    },
    {
      "constant": true,
      "inputs": [
        {
          "name": "",
          "type": "uint256"
        }
      ],
      "name": "validatorMinRewardPercent",
      "outputs": [
        {
          "name": "",
          "type": "uint256"
        }
      ],
      "payable": false,
      "stateMutability": "view",
      "type": "function"
    },
    {
      "constant": false,
      "inputs": [
        {
          "name": "_stakingEpoch",
          "type": "uint256"
        },
        {
          "name": "_percent",
          "type": "uint256"
        }
      ],
      "name": "setValidatorMinRewardPercent",
      "outputs": [],
      "payable": false,
      "stateMutability": "nonpayable",
      "type": "function"
    },
    {
      "constant": false,
      "inputs": [
        {
          "name": "_stakingEpoch",
          "type": "uint256"
        },
        {
          "name": "_miningAddress",
          "type": "address"
        },
        {
          "name": "_value",
          "type": "uint256"
        }
      ],
      "name": "setBlocksCreated",
      "outputs": [],
      "payable": false,
      "stateMutability": "nonpayable",
      "type": "function"
    },
    {
      "constant": true,
      "inputs": [],
      "name": "validatorSetContract",
      "outputs": [
        {
          "name": "",
          "type": "address"
        }
      ],
      "payable": false,
      "stateMutability": "view",
      "type": "function"
    },
    {
      "constant": true,
      "inputs": [
        {
          "name": "",
          "type": "uint256"
        },
        {
          "name": "",
          "type": "uint256"
        }
      ],
      "name": "epochPoolTokenReward",
      "outputs": [
        {
          "name": "",
          "type": "uint256"
        }
      ],
      "payable": false,
      "stateMutability": "view",
      "type": "function"
    },
    {
      "constant": true,
      "inputs": [
        {
          "name": "_poolId",
          "type": "uint256"
        }
      ],
      "name": "epochsPoolGotRewardFor",
      "outputs": [
        {
          "name": "",
          "type": "uint256[]"
        }
      ],
      "payable": false,
      "stateMutability": "view",
      "type": "function"
    },
    {
      "constant": false,
      "inputs": [],
      "name": "sendCoins",
      "outputs": [],
      "payable": true,
      "stateMutability": "payable",
      "type": "function"
    },
    {
      "constant": true,
      "inputs": [
        {
          "name": "",
          "type": "uint256"
        },
        {
          "name": "",
          "type": "uint256"
        }
      ],
      "name": "blocksCreated",
      "outputs": [
        {
          "name": "",
          "type": "uint256"
        }
      ],
      "payable": false,
      "stateMutability": "view",
      "type": "function"
    },
    {
      "constant": false,
      "inputs": [
        {
          "name": "benefactors",
          "type": "address[]"
        },
        {
          "name": "kind",
          "type": "uint16[]"
        }
      ],
      "name": "reward",
      "outputs": [
        {
          "name": "receiversNative",
          "type": "address[]"
        },
        {
          "name": "rewardsNative",
          "type": "uint256[]"
        }
      ],
      "payable": false,
      "stateMutability": "nonpayable",
      "type": "function"
    },
    {
      "constant": true,
      "inputs": [],
      "name": "bridgeTokenReward",
      "outputs": [
        {
          "name": "",
          "type": "uint256"
        }
      ],
      "payable": false,
      "stateMutability": "view",
      "type": "function"
    },
    {
      "payable": true,
      "stateMutability": "payable",
      "type": "fallback"
    },
    {
      "anonymous": false,
      "inputs": [
        {
          "indexed": false,
          "name": "amount",
          "type": "uint256"
        },
        {
          "indexed": false,
          "name": "cumulativeAmount",
          "type": "uint256"
        },
        {
          "indexed": true,
          "name": "bridge",
          "type": "address"
        }
      ],
      "name": "BridgeTokenRewardAdded",
      "type": "event"
    },
    {
      "anonymous": false,
      "inputs": [
        {
          "indexed": false,
          "name": "amount",
          "type": "uint256"
        },
        {
          "indexed": true,
          "name": "receiver",
          "type": "address"
        },
        {
          "indexed": true,
          "name": "bridge",
          "type": "address"
        }
      ],
      "name": "AddedReceiver",
      "type": "event"
    },
    {
      "anonymous": false,
      "inputs": [
        {
          "indexed": false,
          "name": "amount",
          "type": "uint256"
        },
        {
          "indexed": false,
          "name": "cumulativeAmount",
          "type": "uint256"
        },
        {
          "indexed": true,
          "name": "bridge",
          "type": "address"
        }
      ],
      "name": "BridgeNativeRewardAdded",
      "type": "event"
    },
    {
      "anonymous": false,
      "inputs": [
        {
          "indexed": false,
          "name": "receivers",
          "type": "address[]"
        },
        {
          "indexed": false,
          "name": "rewards",
          "type": "uint256[]"
        }
      ],
      "name": "MintedNative",
      "type": "event"
    }
  ],
  "bytecode": "0x608060405234801561001057600080fd5b50614e2e806100206000396000f3fe6080604052600436106103765760003560e01c806362178478116101d1578063b25a00fd11610102578063d67529c6116100a0578063f302163d1161006f578063f302163d146110e1578063f8fdc6b9146110e9578063f91c289814611119578063faaf3aff1461127d57610376565b8063d67529c614611033578063dfc8bf4e14611072578063e706ba2714611087578063e7f6cfe2146110b757610376565b8063cbe0d56f116100dc578063cbe0d56f14610f76578063cc7cab9514610fa8578063cdf7a09014610fd9578063d0899cb41461100357610376565b8063b25a00fd14610f19578063b4a523e814610f2e578063c5dd762814610f6157610376565b80638c4398671161016f578063a9add57d11610149578063a9add57d14610ea1578063aa9fa27414610eb6578063ac8a094214610eef578063adc481a714610f0457610376565b80638c43986714610d4b5780639a0a9fdc14610dc6578063a4c0ed3614610ddb57610376565b806370cafd65116101ab57806370cafd6514610c6a578063727b071d14610ca95780638737929a14610cd9578063877ffdea14610d1557610376565b80636217847814610bb05780636834fc9014610bda57806368c49f3d14610c5557610376565b8063392e53cd116102ab578063485cc9551161024957806352a2f0211161022357806352a2f02114610b055780635325138914610b2f578063553a5c8514610b595780635fba554e14610b6e57610376565b8063485cc95514610a7a5780634b6368cf14610ab55780634de6c03614610aca57610376565b8063404eac8511610285578063404eac85146108b5578063419ce2641461096c57806343544960146109815780634476d66a14610a5057610376565b8063392e53cd1461082f5780633bf47e96146108585780633d84b8c11461088257610376565b80631f1a01b71161031857806327d5eb21116102f257806327d5eb21146106b65780632ee57f8d146106f5578063307bff261461072757806330f6eb16146107f657610376565b80631f1a01b714610552578063212329f314610582578063222fafb21461068c57610376565b8063118d219111610354578063118d2191146104315780631289b17914610464578063128b265f146104ad578063171d54dd146104d757610376565b8063062101971461037b5780630ac2daa0146103b05780630dcbf155146103f2575b600080fd5b34801561038757600080fd5b506103ae6004803603602081101561039e57600080fd5b50356001600160a01b0316611292565b005b3480156103bc57600080fd5b506103e0600480360360408110156103d357600080fd5b50803590602001356112b4565b60408051918252519081900360200190f35b3480156103fe57600080fd5b506103ae6004803603606081101561041557600080fd5b508035906001600160a01b0360208201351690604001356112d1565b34801561043d57600080fd5b506103ae6004803603602081101561045457600080fd5b50356001600160a01b031661136d565b34801561047057600080fd5b506104946004803603604081101561048757600080fd5b50803590602001356113c5565b6040805192835260208301919091528051918290030190f35b3480156104b957600080fd5b506103ae600480360360208110156104d057600080fd5b503561144f565b3480156104e357600080fd5b506103ae600480360360208110156104fa57600080fd5b810190602081018135600160201b81111561051457600080fd5b82018360208201111561052657600080fd5b803590602001918460208302840111600160201b8311171561054757600080fd5b50909250905061145b565b34801561055e57600080fd5b506103e06004803603604081101561057557600080fd5b5080359060200135611556565b34801561058e57600080fd5b5061063c600480360360808110156105a557600080fd5b81359190810190604081016020820135600160201b8111156105c657600080fd5b8201836020820111156105d857600080fd5b803590602001918460208302840111600160201b831117156105f957600080fd5b9190808060200260200160405190810160405280939291908181526020018383602002808284376000920191909152509295505082359350505060200135611573565b60408051602080825283518183015283519192839290830191858101910280838360005b83811015610678578181015183820152602001610660565b505050509050019250505060405180910390f35b34801561069857600080fd5b506103ae600480360360208110156106af57600080fd5b5035611645565b3480156106c257600080fd5b506103ae600480360360608110156106d957600080fd5b506001600160a01b0381351690602081013590604001356116c2565b34801561070157600080fd5b5061070a6116cd565b604080516001600160e01b03199092168252519081900360200190f35b34801561073357600080fd5b50610494600480360360a081101561074a57600080fd5b6001600160a01b038235169160208101359160408201359160608101359181019060a081016080820135600160201b81111561078557600080fd5b82018360208201111561079757600080fd5b803590602001918460208302840111600160201b831117156107b857600080fd5b9190808060200260200160405190810160405280939291908181526020018383602002808284376000920191909152509295506116d9945050505050565b34801561080257600080fd5b506103e06004803603604081101561081957600080fd5b506001600160a01b0381351690602001356116ff565b34801561083b57600080fd5b5061084461171c565b604080519115158252519081900360200190f35b34801561086457600080fd5b506103e06004803603602081101561087b57600080fd5b503561172d565b34801561088e57600080fd5b506103e0600480360360208110156108a557600080fd5b50356001600160a01b0316611d15565b3480156108c157600080fd5b506103e0600480360360608110156108d857600080fd5b81359190810190604081016020820135600160201b8111156108f957600080fd5b82018360208201111561090b57600080fd5b803590602001918460208302840111600160201b8311171561092c57600080fd5b9190808060200260200160405190810160405280939291908181526020018383602002808284376000920191909152509295505091359250611d27915050565b34801561097857600080fd5b5061063c611d3e565b34801561098d57600080fd5b50610494600480360360a08110156109a457600080fd5b6001600160a01b038235169160208101359160408201359160608101359181019060a081016080820135600160201b8111156109df57600080fd5b8201836020820111156109f157600080fd5b803590602001918460208302840111600160201b83111715610a1257600080fd5b919080806020026020016040519081016040528093929190818152602001838360200280828437600092019190915250929550611da0945050505050565b348015610a5c57600080fd5b506103e060048036036020811015610a7357600080fd5b5035611db0565b348015610a8657600080fd5b506103ae60048036036040811015610a9d57600080fd5b506001600160a01b0381358116916020013516611dc2565b348015610ac157600080fd5b506103e0611e77565b348015610ad657600080fd5b5061063c60048036036040811015610aed57600080fd5b506001600160a01b0381358116916020013516611e82565b348015610b1157600080fd5b506103ae60048036036020811015610b2857600080fd5b50356122e0565b348015610b3b57600080fd5b506103ae60048036036020811015610b5257600080fd5b50356122e5565b348015610b6557600080fd5b506103e06122ee565b348015610b7a57600080fd5b506103e0600480360360a0811015610b9157600080fd5b50803590602081013590604081013590606081013590608001356122f4565b348015610bbc57600080fd5b506103ae60048036036020811015610bd357600080fd5b5035612397565b348015610be657600080fd5b506103ae60048036036020811015610bfd57600080fd5b810190602081018135600160201b811115610c1757600080fd5b820183602082011115610c2957600080fd5b803590602001918460208302840111600160201b83111715610c4a57600080fd5b50909250905061242e565b348015610c6157600080fd5b506103e0612525565b348015610c7657600080fd5b506103ae60048036036060811015610c8d57600080fd5b50803590602081013590604001356001600160a01b031661252b565b348015610cb557600080fd5b506103e060048036036040811015610ccc57600080fd5b50803590602001356126c3565b348015610ce557600080fd5b506103e060048036036080811015610cfc57600080fd5b50803590602081013590604081013590606001356126e0565b348015610d2157600080fd5b5061049460048036036060811015610d3857600080fd5b508035906020810135906040013561275a565b348015610d5757600080fd5b506103ae60048036036020811015610d6e57600080fd5b810190602081018135600160201b811115610d8857600080fd5b820183602082011115610d9a57600080fd5b803590602001918460208302840111600160201b83111715610dbb57600080fd5b5090925090506127ee565b348015610dd257600080fd5b5061063c6128e5565b348015610de757600080fd5b5061084460048036036060811015610dfe57600080fd5b6001600160a01b0382351691602081013591810190606081016040820135600160201b811115610e2d57600080fd5b820183602082011115610e3f57600080fd5b803590602001918460018302840111600160201b83111715610e6057600080fd5b91908080601f016020809104026020016040519081016040528093929190818152602001838380828437600092019190915250929550612945945050505050565b348015610ead57600080fd5b506103e061294c565b348015610ec257600080fd5b506103ae60048036036040811015610ed957600080fd5b50803590602001356001600160a01b0316612959565b348015610efb57600080fd5b506103e06129e4565b348015610f1057600080fd5b506103e06129ea565b348015610f2557600080fd5b5061063c6129f0565b348015610f3a57600080fd5b506103e060048036036020811015610f5157600080fd5b50356001600160a01b0316612a50565b348015610f6d57600080fd5b506103ae612a62565b6103ae60048036036060811015610f8c57600080fd5b508035906001600160a01b036020820135169060400135612c85565b348015610fb457600080fd5b50610fbd612f1d565b604080516001600160a01b039092168252519081900360200190f35b348015610fe557600080fd5b506103e060048036036020811015610ffc57600080fd5b5035612f2c565b34801561100f57600080fd5b506103ae6004803603604081101561102657600080fd5b5080359060200135612f3e565b34801561103f57600080fd5b506103ae6004803603606081101561105657600080fd5b508035906001600160a01b036020820135169060400135612f50565b34801561107e57600080fd5b50610fbd612fea565b34801561109357600080fd5b506103e0600480360360408110156110aa57600080fd5b5080359060200135612ff9565b3480156110c357600080fd5b5061063c600480360360208110156110da57600080fd5b5035613016565b6103ae613076565b3480156110f557600080fd5b506103e06004803603604081101561110c57600080fd5b5080359060200135613078565b34801561112557600080fd5b506111e46004803603604081101561113c57600080fd5b810190602081018135600160201b81111561115657600080fd5b82018360208201111561116857600080fd5b803590602001918460208302840111600160201b8311171561118957600080fd5b919390929091602081019035600160201b8111156111a657600080fd5b8201836020820111156111b857600080fd5b803590602001918460208302840111600160201b831117156111d957600080fd5b509092509050613093565b604051808060200180602001838103835285818151815260200191508051906020019060200280838360005b83811015611228578181015183820152602001611210565b50505050905001838103825284818151815260200191508051906020019060200280838360005b8381101561126757818101518382015260200161124f565b5050505090500194505050505060405180910390f35b34801561128957600080fd5b506103e0613a16565b604f80546001600160a01b0319166001600160a01b0392909216919091179055565b602960209081526000928352604080842090915290825290205481565b602c54604080516315ddbdb960e11b81526001600160a01b03858116600483015291516000939290921691632bbb7b7291602480820192602092909190829003018186803b15801561132257600080fd5b505afa158015611336573d6000803e3d6000fd5b505050506040513d602081101561134c57600080fd5b50516000948552602a60209081526040808720928752919052909320555050565b611375613a1c565b6001600160a01b0316336001600160a01b03161461139257600080fd5b61139a61171c565b6113a357600080fd5b604d80546001600160a01b0319166001600160a01b0392909216919091179055565b6000828152602a6020908152604080832084845282528083205485845260298352818420858552835281842054868552604b845282852086865290935290832054839290611418908790849084906126e0565b6000878152602260209081526040808320898452909152902054909450611444908790849084906126e0565b925050509250929050565b61145881612397565b50565b611463613a1c565b6001600160a01b0316336001600160a01b03161461148057600080fd5b61148861171c565b61149157600080fd5b60005b6002548110156114ed57600060016000600284815481106114b157fe5b6000918252602080832091909101546001600160a01b031683528201929092526040019020805460ff1916911515919091179055600101611494565b6114f960028484614d34565b50600090505b8181101561155157600180600085858581811061151857fe5b602090810292909201356001600160a01b0316835250810191909152604001600020805460ff19169115159190911790556001016114ff565b505050565b602260209081526000928352604080842090915290825290205481565b6060808361159b57604080516000815260208101909152611595908490613a41565b90955093505b8515806115a6575083155b156115c0575060408051600081526020810190915261163a565b84516040519080825280602002602001820160405280156115eb578160200160208202803883390190505b50905060005b8551811015611638578486828151811061160757fe5b602002602001015188028161161857fe5b0482828151811061162557fe5b60209081029190910101526001016115f1565b505b90505b949350505050565b3360009081526001602052604090205460ff1661166157600080fd5b8061166b57600080fd5b60215461167e908263ffffffff613ca816565b6021819055604080518381526020810192909252805133927f619cc90cbd264bea3dfc113e68fd307789a937a8c10ef4b0110607ac7490367392908290030190a250565b611551838383613cba565b63069ad3e560e11b5b90565b6000806116f16116e98785613e0e565b888787613e29565b915091509550959350505050565b602460209081526000928352604080842090915290825290205481565b602c546001600160a01b0316151590565b600080602c60009054906101000a90046001600160a01b03166001600160a01b031663ee99205c6040518163ffffffff1660e01b815260040160206040518083038186803b15801561177e57600080fd5b505afa158015611792573d6000803e3d6000fd5b505050506040513d60208110156117a857600080fd5b505160408051630f29818d60e31b815290519192506000916001600160a01b0384169163794c0c68916004808301926020929190829003018186803b1580156117f057600080fd5b505afa158015611804573d6000803e3d6000fd5b505050506040513d602081101561181a57600080fd5b505190508061182e57600092505050611d10565b602c5460408051639b4a14bf60e01b81526004810187905290516001600160a01b0390921691639b4a14bf91602480820192602092909190829003018186803b15801561187a57600080fd5b505afa15801561188e573d6000803e3d6000fd5b505050506040513d60208110156118a457600080fd5b5051156118f1576000818152602a6020908152604080832087845282528083205484845260298352818420888552909252909120546118e8918391620f42406126e0565b92505050611d10565b602c60009054906101000a90046001600160a01b03166001600160a01b031663b927ef436040518163ffffffff1660e01b815260040160206040518083038186803b15801561193f57600080fd5b505afa158015611953573d6000803e3d6000fd5b505050506040513d602081101561196957600080fd5b5051611c0f5760606000602c60009054906101000a90046001600160a01b03166001600160a01b0316636729c2dc6040518163ffffffff1660e01b815260040160006040518083038186803b1580156119c157600080fd5b505afa1580156119d5573d6000803e3d6000fd5b505050506040513d6000823e601f3d908101601f1916820160405260208110156119fe57600080fd5b810190808051600160201b811115611a1557600080fd5b82016020810184811115611a2857600080fd5b81518560208202830111600160201b82111715611a4457600080fd5b5090955060009450505050505b8151811015611ac557818181518110611a6657fe5b6020026020010151861415611abd576000838152602a60209081526040808320898452825280832054868452602983528184208a855290925290912054611ab2918591620f42406126e0565b945050505050611d10565b600101611a51565b602c60009054906101000a90046001600160a01b03166001600160a01b0316630bf480c06040518163ffffffff1660e01b815260040160006040518083038186803b158015611b1357600080fd5b505afa158015611b27573d6000803e3d6000fd5b505050506040513d6000823e601f3d908101601f191682016040526020811015611b5057600080fd5b810190808051600160201b811115611b6757600080fd5b82016020810184811115611b7a57600080fd5b81518560208202830111600160201b82111715611b9657600080fd5b5090955060009450505050505b8151811015611c0c57818181518110611bb857fe5b6020026020010151861415611c04576000838152602a60209081526040808320898452825280832054868452602983528184208a855290925290912054611ab2918591620f42406126e0565b600101611ba3565b50505b60408051630fec687960e21b815260048101869052600060248201529051611d0b9183916001600160a01b03861691633fb1a1e4916044808301926020929190829003018186803b158015611c6357600080fd5b505afa158015611c77573d6000803e3d6000fd5b505050506040513d6020811015611c8d57600080fd5b505160408051632a8f6ecd60e01b81526004810189905290516001600160a01b03871691632a8f6ecd916024808301926020929190829003018186803b158015611cd657600080fd5b505afa158015611cea573d6000803e3d6000fd5b505050506040513d6020811015611d0057600080fd5b5051620f42406126e0565b925050505b919050565b60236020526000908152604090205481565b6000611d34848484613eca565b90505b9392505050565b60606002805480602002602001604051908101604052809291908181526020018280548015611d9657602002820191906000526020600020905b81546001600160a01b03168152600190910190602001808311611d78575b5050505050905090565b6000806116f16116e98785614026565b60256020526000908152604090205481565b611dca614049565b1580611dee5750611dd9613a1c565b6001600160a01b0316336001600160a01b0316145b611df757600080fd5b611dff61171c565b15611e0957600080fd5b6001600160a01b038216611e1c57600080fd5b602c80546001600160a01b039384166001600160a01b03199182161790915560008052602b60205260147fe18c65fb8491ea105d3652ed62258476aaccd771ae89682addbba12f33acc62a5560038054929093169116179055565b660b1a2bc2ec500081565b602c546040805163a26301f960e01b81526001600160a01b0385811660048301529151606093600093169163a26301f9916024808301926020929190829003018186803b158015611ed257600080fd5b505afa158015611ee6573d6000803e3d6000fd5b505050506040513d6020811015611efc57600080fd5b505190506001600160a01b038416611f1357600080fd5b6001600160a01b038316611f2657600080fd5b80611f3057600080fd5b602c5460408051633ba6481760e21b815290516000926001600160a01b03169163ee99205c916004808301926020929190829003018186803b158015611f7557600080fd5b505afa158015611f89573d6000803e3d6000fd5b505050506040513d6020811015611f9f57600080fd5b5051905060006001600160a01b038581169087161415611fc0576000611fc2565b845b90506000806001600160a01b0383161561211057836001600160a01b03166327d89b3a86856040518363ffffffff1660e01b815260040180838152602001826001600160a01b03166001600160a01b031681526020019250505060206040518083038186803b15801561203457600080fd5b505afa158015612048573d6000803e3d6000fd5b505050506040513d602081101561205e57600080fd5b505191508161208357505060408051600081526020810190915293506122da92505050565b836001600160a01b031663381883b086856040518363ffffffff1660e01b815260040180838152602001826001600160a01b03166001600160a01b031681526020019250505060206040518083038186803b1580156120e157600080fd5b505afa1580156120f5573d6000803e3d6000fd5b505050506040513d602081101561210b57600080fd5b505190505b60008581526020818152604091829020805483518181528184028101909301909352919060609082801561214e578160200160208202803883390190505b5090506000805b8381101561226257600085828154811061216b57fe5b60009182526020909120015490506001600160a01b038916156121b05787811015612196575061225a565b8087111580156121a557508615155b156121b05750612262565b6040805163186dc46f60e01b8152600481018d90526001600160a01b038b81166024830152604482018490529151918c169163186dc46f91606480820192602092909190829003018186803b15801561220857600080fd5b505afa15801561221c573d6000803e3d6000fd5b505050506040513d602081101561223257600080fd5b5051612258578084848060010195508151811061224b57fe5b6020026020010181815250505b505b600101612155565b8160405190808252806020026020018201604052801561228c578160200160208202803883390190505b509a50600090505b818110156122cf578281815181106122a857fe5b60200260200101518b82815181106122bc57fe5b6020908102919091010152600101612294565b505050505050505050505b92915050565b604e55565b61145881611645565b60265481565b6000841580612301575083155b8061230a575082155b156123175750600061238e565b6000808585101561232957600061232d565b8585035b90508061233f5760009250505061238e565b6000888152602b602052604090205481810260648290038802111561237157858886028161236957fe5b049250612388565b8160640281606403898702028161238457fe5b0492505b50909150505b95945050505050565b3360009081526046602052604090205460ff16806123c457503360009081526047602052604090205460ff165b6123cd57600080fd5b806123d757600080fd5b604a546123ea908263ffffffff613ca816565b604a819055604080518381526020810192909252805133927f412edf02d82089ccd9d6158ca78bb761a19c8f63a840cff791e4ad472bcaa0ac92908290030190a250565b612436613a1c565b6001600160a01b0316336001600160a01b03161461245357600080fd5b61245b61171c565b61246457600080fd5b60005b6049548110156124c0576000604760006049848154811061248457fe5b6000918252602080832091909101546001600160a01b031683528201929092526040019020805460ff1916911515919091179055600101612467565b6124cc60498484614d34565b50600090505b81811015611551576001604760008585858181106124ec57fe5b602090810292909201356001600160a01b0316835250810191909152604001600020805460ff19169115159190911790556001016124d2565b604c5481565b602c60009054906101000a90046001600160a01b03166001600160a01b031663ee99205c6040518163ffffffff1660e01b815260040160206040518083038186803b15801561257957600080fd5b505afa15801561258d573d6000803e3d6000fd5b505050506040513d60208110156125a357600080fd5b50516001600160a01b031633146125b957600080fd5b82156126b95760003390506000816001600160a01b0316632d21d2176040518163ffffffff1660e01b815260040160206040518083038186803b1580156125ff57600080fd5b505afa158015612613573d6000803e3d6000fd5b505050506040513d602081101561262957600080fd5b50516040805163a9059cbb60e01b81526001600160a01b0386811660048301526024820189905291519293509083169163a9059cbb916044808201926020929091908290030181600087803b15801561268157600080fd5b505af1158015612695573d6000803e3d6000fd5b505050506040513d60208110156126ab57600080fd5b50516126b657600080fd5b50505b611551828261404f565b602a60209081526000928352604080842090915290825290205481565b60008315806126ed575082155b156126fa5750600061163d565b6000808585101561270c576000612710565b8585035b6000888152602b602052604090205490915080820260648290038802111561274557858786028161273d57fe5b04925061274e565b60648582020492505b50909695505050505050565b6000828152602a6020908152604080832084845282528083205485845260298352818420858552835281842054868552604b8452828520868652909352908320548392906127af9087908990859085906122f4565b93506127e286888484602260008c815260200190815260200160002060008b8152602001908152602001600020546122f4565b92505050935093915050565b6127f6613a1c565b6001600160a01b0316336001600160a01b03161461281357600080fd5b61281b61171c565b61282457600080fd5b60005b604854811015612880576000604660006048848154811061284457fe5b6000918252602080832091909101546001600160a01b031683528201929092526040019020805460ff1916911515919091179055600101612827565b61288c60488484614d34565b50600090505b81811015611551576001604660008585858181106128ac57fe5b602090810292909201356001600160a01b0316835250810191909152604001600020805460ff1916911515919091179055600101612892565b60606048805480602002602001604051908101604052809291908181526020018280548015611d96576020028201919060005260206000209081546001600160a01b03168152600190910190602001808311611d78575050505050905090565b6000806000fd5b6004546005540360010190565b3360009081526001602052604090205460ff1661297557600080fd5b8161297f57600080fd5b600354600160a01b900460ff1661299557600080fd5b6129a08282336140c7565b60408051838152905133916001600160a01b038416917f3c798bbcf33115b42c728b8504cff11dd58736e9fa789f1cda2738db7d696b2a9181900360200190a35050565b60215481565b60285481565b60606049805480602002602001604051908101604052809291908181526020018280548015611d96576020028201919060005260206000209081546001600160a01b03168152600190910190602001808311611d78575050505050905090565b60276020526000908152604090205481565b602c546001600160a01b03163314612a7957600080fd5b602c5460408051633ba6481760e21b815290516000926001600160a01b03169163ee99205c916004808301926020929190829003018186803b158015612abe57600080fd5b505afa158015612ad2573d6000803e3d6000fd5b505050506040513d6020811015612ae857600080fd5b505160408051630f29818d60e31b815290519192506000916001600160a01b0384169163794c0c68916004808301926020929190829003018186803b158015612b3057600080fd5b505afa158015612b44573d6000803e3d6000fd5b505050506040513d6020811015612b5a57600080fd5b5051602c5460408051637f2a23bf60e11b815290519293506060926001600160a01b039092169163fe54477e91600480820192600092909190829003018186803b158015612ba757600080fd5b505afa158015612bbb573d6000803e3d6000fd5b505050506040513d6000823e601f3d908101601f191682016040526020811015612be457600080fd5b810190808051600160201b811115612bfb57600080fd5b82016020810184811115612c0e57600080fd5b81518560208202830111600160201b82111715612c2a57600080fd5b50909450600093505050505b8151811015612c7f576000838152602080526040812083518290859085908110612c5c57fe5b602090810291909101810151825281019190915260400160002055600101612c36565b50505050565b602c54604080516315ddbdb960e11b81526001600160a01b03858116600483015291516000939290921691632bbb7b7291602480820192602092909190829003018186803b158015612cd657600080fd5b505afa158015612cea573d6000803e3d6000fd5b505050506040513d6020811015612d0057600080fd5b5051905083612d0e57600080fd5b6001600160a01b038316612d2157600080fd5b80612d2b57600080fd5b81612d3557600080fd5b34612d3f57600080fd5b6000848152604b6020908152604080832084845290915290205415612d6357600080fd5b600084815260226020908152604080832084845290915290205415612d8757600080fd5b602c5460408051633ba6481760e21b815290516000926001600160a01b03169163ee99205c916004808301926020929190829003018186803b158015612dcc57600080fd5b505afa158015612de0573d6000803e3d6000fd5b505050506040513d6020811015612df657600080fd5b505160408051632d21d21760e01b815290516001600160a01b0390921691632d21d21791600480820192602092909190829003018186803b158015612e3a57600080fd5b505afa158015612e4e573d6000803e3d6000fd5b505050506040513d6020811015612e6457600080fd5b5051604080516391c0aabf60e01b81526004810186905290519192506001600160a01b038316916391c0aabf9160248082019260009290919082900301818387803b158015612eb257600080fd5b505af1158015612ec6573d6000803e3d6000fd5b5050506000868152604b602090815260408083208684528252808320969096558782526022815285822094825293845284812034905580845293842080546001810182559085529290932090910193909355505050565b604d546001600160a01b031681565b602b6020526000908152604090205481565b6000918252602b602052604090912055565b602c54604080516315ddbdb960e11b81526001600160a01b03858116600483015291516000939290921691632bbb7b7291602480820192602092909190829003018186803b158015612fa157600080fd5b505afa158015612fb5573d6000803e3d6000fd5b505050506040513d6020811015612fcb57600080fd5b5051600094855260208080526040808720928752919052909320555050565b602c546001600160a01b031681565b604b60209081526000928352604080842090915290825290205481565b6000818152602081815260409182902080548351818402810184019094528084526060939283018282801561306a57602002820191906000526020600020905b815481526020019060010190808311613056575b50505050509050919050565b565b60208080526000928352604080842090915290825290205481565b60608061309e61413c565b6001600160a01b0316336001600160a01b0316146130bb57600080fd5b84831415806130cb575060018514155b806130f25750838360008181106130de57fe5b9050602002013561ffff1661ffff16600014155b156131235760408051600080825260208201909252905b506040805160008152602081019091529092509050613a0d565b602c546001600160a01b031615806131d65750602c546001600160a01b031663facd743b878760008161315257fe5b905060200201356001600160a01b03166040518263ffffffff1660e01b815260040180826001600160a01b03166001600160a01b0316815260200191505060206040518083038186803b1580156131a857600080fd5b505afa1580156131bc573d6000803e3d6000fd5b505050506040513d60208110156131d257600080fd5b5051155b156131f1576040805160008082526020820190925290613109565b602c60009054906101000a90046001600160a01b03166001600160a01b031663ccf69e9b6040518163ffffffff1660e01b815260040160206040518083038186803b15801561323f57600080fd5b505afa158015613253573d6000803e3d6000fd5b505050506040513d602081101561326957600080fd5b50516040805163109c110760e01b815290516001600160a01b039092169163109c11079160048082019260009290919082900301818387803b1580156132ae57600080fd5b505af11580156132c2573d6000803e3d6000fd5b5050600354600160a01b900460ff1691506132fe905057600160045560006005556003805460ff60a01b1916600160a01b1790556132fe61414b565b602c5460408051633ba6481760e21b815290516064926000926001600160a01b039091169163ee99205c91600480820192602092909190829003018186803b15801561334957600080fd5b505afa15801561335d573d6000803e3d6000fd5b505050506040513d602081101561337357600080fd5b505160408051630f29818d60e31b815290519192506000916001600160a01b0384169163794c0c68916004808301926020929190829003018186803b1580156133bb57600080fd5b505afa1580156133cf573d6000803e3d6000fd5b505050506040513d60208110156133e557600080fd5b50516040805163461121d760e11b815290519192506000916001600160a01b03851691638c2243ae916004808301926020929190829003018186803b15801561342d57600080fd5b505afa158015613441573d6000803e3d6000fd5b505050506040513d602081101561345757600080fd5b5051602c546040805163b927ef4360e01b815290519293506000926001600160a01b039092169163b927ef4391600480820192602092909190829003018186803b1580156134a457600080fd5b505afa1580156134b8573d6000803e3d6000fd5b505050506040513d60208110156134ce57600080fd5b50511561364357821580159061357f5750602c546001600160a01b031663a92252ae8c8c6000816134fb57fe5b905060200201356001600160a01b03166040518263ffffffff1660e01b815260040180826001600160a01b03166001600160a01b0316815260200191505060206040518083038186803b15801561355157600080fd5b505afa158015613565573d6000803e3d6000fd5b505050506040513d602081101561357b57600080fd5b5051155b1561364357602c546000906001600160a01b0316632bbb7b728d8d84816135a257fe5b905060200201356001600160a01b03166040518263ffffffff1660e01b815260040180826001600160a01b03166001600160a01b0316815260200191505060206040518083038186803b1580156135f857600080fd5b505afa15801561360c573d6000803e3d6000fd5b505050506040513d602081101561362257600080fd5b50516000858152602080805260408083209383529290522080546001019055505b8161364c614049565b14156139f9578215613666576136638484846142ac565b90505b602c60009054906101000a90046001600160a01b03166001600160a01b0316635ccee1de6040518163ffffffff1660e01b8152600401600060405180830381600087803b1580156136b657600080fd5b505af11580156136ca573d6000803e3d6000fd5b5050602c54604080516319ca70b760e21b81529051600094506001880193506060926001600160a01b031691636729c2dc9160048083019288929190829003018186803b15801561371a57600080fd5b505afa15801561372e573d6000803e3d6000fd5b505050506040513d6000823e601f3d908101601f19168201604052602081101561375757600080fd5b810190808051600160201b81111561376e57600080fd5b8201602081018481111561378157600080fd5b81518560208202830111600160201b8211171561379d57600080fd5b5060009750909450505050505b80518310156137dc576137d187838386815181106137c457fe5b6020026020010151613cba565b6001909201916137aa565b602c60009054906101000a90046001600160a01b03166001600160a01b031663fe54477e6040518163ffffffff1660e01b815260040160006040518083038186803b15801561382a57600080fd5b505afa15801561383e573d6000803e3d6000fd5b505050506040513d6000823e601f3d908101601f19168201604052602081101561386757600080fd5b810190808051600160201b81111561387e57600080fd5b8201602081018481111561389157600080fd5b81518560208202830111600160201b821117156138ad57600080fd5b5060009750909450505050505b80518310156138df576138d487838386815181106137c457fe5b6001909201916138ba565b602c60009054906101000a90046001600160a01b03166001600160a01b0316630bf480c06040518163ffffffff1660e01b815260040160006040518083038186803b15801561392d57600080fd5b505afa158015613941573d6000803e3d6000fd5b505050506040513d6000823e601f3d908101601f19168201604052602081101561396a57600080fd5b810190808051600160201b81111561398157600080fd5b8201602081018481111561399457600080fd5b81518560208202830111600160201b821117156139b057600080fd5b5060009750909450505050505b80518310156139e2576139d787838386815181106137c457fe5b6001909201916139bd565b506000908152602b60205260408120601490559550505b613a0381866143da565b9650965050505050505b94509492505050565b604a5481565b7fb53127684a568b3173ae13b9f8a6016e243e63b6e8ee1178d6a717850b5d61035490565b60606000825160001415613b2957602c60009054906101000a90046001600160a01b03166001600160a01b031663fe54477e6040518163ffffffff1660e01b815260040160006040518083038186803b158015613a9d57600080fd5b505afa158015613ab1573d6000803e3d6000fd5b505050506040513d6000823e601f3d908101601f191682016040526020811015613ada57600080fd5b810190808051600160201b811115613af157600080fd5b82016020810184811115613b0457600080fd5b81518560208202830111600160201b82111715613b2057600080fd5b50909650505050505b60608351604051908082528060200260200182016040528015613b56578160200160208202803883390190505b5090506000805b8551811015613c9c576000868281518110613b7457fe5b60209081029190910181015160008a8152602a83526040808220838352909352919091205490915015801590613c1f5750602c5460408051632682240f60e11b81526004810184905290516001600160a01b0390921691634d04481e91602480820192602092909190829003018186803b158015613bf157600080fd5b505afa158015613c05573d6000803e3d6000fd5b505050506040513d6020811015613c1b57600080fd5b5051155b15613c5b576000888152602080805260408083208484529091529020548451859084908110613c4a57fe5b602002602001018181525050613c76565b6000848381518110613c6957fe5b6020026020010181815250505b838281518110613c8257fe5b602002602001015183019250508080600101915050613b5d565b50909590945092505050565b600082820183811015611d3757600080fd5b600082815260296020908152604080832084845290915290205415613cde57611551565b6000836001600160a01b0316632a8f6ecd836040518263ffffffff1660e01b81526004018082815260200191505060206040518083038186803b158015613d2457600080fd5b505afa158015613d38573d6000803e3d6000fd5b505050506040513d6020811015613d4e57600080fd5b5051905080613d5d5750611551565b600083815260296020908152604080832085845282528083208490558051630fec687960e21b8152600481018690526024810193909352516001600160a01b03871692633fb1a1e4926044808301939192829003018186803b158015613dc257600080fd5b505afa158015613dd6573d6000803e3d6000fd5b505050506040513d6020811015613dec57600080fd5b50516000848152602a6020908152604080832086845290915290205550505050565b6000613e1a83836145f1565b60285460215401019392505050565b60008082613ea557613e9f85866001600160a01b0316638c2243ae6040518163ffffffff1660e01b815260040160206040518083038186803b158015613e6e57600080fd5b505afa158015613e82573d6000803e3d6000fd5b505050506040513d6020811015613e9857600080fd5b50516145f9565b90945092505b600083613eb3576000613ec0565b8385880281613ebe57fe5b045b9795505050505050565b600081613ed957506000611d37565b8251613fb957602c60009054906101000a90046001600160a01b03166001600160a01b031663fe54477e6040518163ffffffff1660e01b815260040160006040518083038186803b158015613f2d57600080fd5b505afa158015613f41573d6000803e3d6000fd5b505050506040513d6000823e601f3d908101601f191682016040526020811015613f6a57600080fd5b810190808051600160201b811115613f8157600080fd5b82016020810184811115613f9457600080fd5b81518560208202830111600160201b82111715613fb057600080fd5b50909650505050505b6000805b845181101561400f57602960008781526020019081526020016000206000868381518110613fe757fe5b6020026020010151815260200190815260200160002054820191508080600101915050613fbd565b50670de0b6b3a76400008184020495945050505050565b600061403a8383660b1a2bc2ec5000613eca565b604c54604a5401019392505050565b604e5490565b811580159061408057506040516001600160a01b0382169083156108fc029084906000818181858888f19350505050155b156140c357818160405161409390614d97565b6001600160a01b039091168152604051908190036020019082f0801580156140bf573d6000803e3d6000fd5b5050505b5050565b60058054604080516060810182529586526001600160a01b03938416602080880191825295851687830190815260019384016000818152600690985292909620965187555191860180549285166001600160a01b03199384161790559351600290950180549590931694169390931790559055565b604f546001600160a01b031690565b6003546001600160a01b031661416057613076565b60005b6002548110156142245760006002828154811061417c57fe5b6000918252602091829020015460035460408051631694a47d60e31b81526001600160a01b03938416600482018190529151919550919092169263b4a523e892602480840193829003018186803b1580156141d657600080fd5b505afa1580156141ea573d6000803e3d6000fd5b505050506040513d602081101561420057600080fd5b50516001600160a01b03909116600090815260276020526040902055600101614163565b506002541561307657600360009054906101000a90046001600160a01b03166001600160a01b031663553a5c856040518163ffffffff1660e01b815260040160206040518083038186803b15801561427b57600080fd5b505afa15801561428f573d6000803e3d6000fd5b505050506040513d60208110156142a557600080fd5b5051602655565b60006060602c60009054906101000a90046001600160a01b03166001600160a01b031663fe54477e6040518163ffffffff1660e01b815260040160006040518083038186803b1580156142fe57600080fd5b505afa158015614312573d6000803e3d6000fd5b505050506040513d6000823e601f3d908101601f19168201604052602081101561433b57600080fd5b810190808051600160201b81111561435257600080fd5b8201602081018481111561436557600080fd5b81518560208202830111600160201b8211171561438157600080fd5b5050929190505050905060008061439887866145f9565b91509150606060006143aa8886613a41565b915091506143bd89898686898787614791565b95506143ce898986868987876148a8565b50505050509392505050565b60608060006143e761294c565b9050838111156143f45750825b84151580614403576000614406565b60015b60ff168201604051908082528060200260200182016040528015614434578160200160208202803883390190505b5093508351604051908082528060200260200182016040528015614462578160200160208202803883390190505b50925060005b828110156144df57600080600061447d614c45565b9250925092508188858151811061449057fe5b60200260200101906001600160a01b031690816001600160a01b031681525050828785815181106144bd57fe5b6020026020010181815250506144d4838383614cc6565b505050600101614468565b50801561452d57308483815181106144f357fe5b60200260200101906001600160a01b031690816001600160a01b0316815250508583838151811061452057fe5b6020026020010181815250505b7f2834f3daea15e82b5f27095c4b6d08cd437f303149009a0a3304be801d2dd7ce8484604051808060200180602001838103835285818151815260200191508051906020019060200280838360005b8381101561459457818101518382015260200161457c565b50505050905001838103825284818151815260200191508051906020019060200280838360005b838110156145d35781810151838201526020016145bb565b5050505090500194505050505060405180910390a150509250929050565b600092915050565b602c546040805163b927ef4360e01b815290516000928392839260019284926001600160a01b039091169163b927ef4391600480820192602092909190829003018186803b15801561464a57600080fd5b505afa15801561465e573d6000803e3d6000fd5b505050506040513d602081101561467457600080fd5b505190508015613c9c5760006003602c60009054906101000a90046001600160a01b03166001600160a01b031663714897df6040518163ffffffff1660e01b815260040160206040518083038186803b1580156146d057600080fd5b505afa1580156146e4573d6000803e3d6000fd5b505050506040513d60208110156146fa57600080fd5b50516002028161470657fe5b04886001600160a01b0316637069e7466040518163ffffffff1660e01b815260040160206040518083038186803b15801561474057600080fd5b505afa158015614754573d6000803e3d6000fd5b505050506040513d602081101561476a57600080fd5b50510160010190508082101561477e578091505b6001918703820198960301955050505050565b60008060006147a38a8a8a8a8a6116d9565b9150915080600014156147bb5760009250505061489d565b6000602181905560606147d08488888e611573565b90508751815114156148915760005b885181101561488f5760008982815181106147f657fe5b6020026020010151905082828151811061480c57fe5b60209081029190910181015160008f81526022835260408082208583529093529190912055825183908390811061483f57fe5b60200260200101518401935082828151811061485757fe5b602002602001015160001461488657600081815260208181526040822080546001810182559083529120018d90555b506001016147df565b505b50908190036028559150505b979650505050505050565b6000806148b88989898989611da0565b9150915080600014156148cc575050614c3c565b6000604a819055506000896001600160a01b0316632d21d2176040518163ffffffff1660e01b815260040160206040518083038186803b15801561490f57600080fd5b505afa158015614923573d6000803e3d6000fd5b505050506040513d602081101561493957600080fd5b5051604d549091506000906001600160a01b03161580159061496357506001600160a01b03821615155b15614a0557604d5460408051638da5cb5b60e01b815290516001600160a01b0392831692851691638da5cb5b916004808301926020929190829003018186803b1580156149af57600080fd5b505afa1580156149c3573d6000803e3d6000fd5b505050506040513d60208110156149d957600080fd5b50516001600160a01b031614156149fc5750604d546001600160a01b0316614a00565b5060005b614a08565b50805b60006001600160a01b03821615801590614a975750306001600160a01b0316826001600160a01b03166356b54bae6040518163ffffffff1660e01b815260040160206040518083038186803b158015614a6057600080fd5b505afa158015614a74573d6000803e3d6000fd5b505050506040513d6020811015614a8a57600080fd5b50516001600160a01b0316145b15614c32576060614aaa8689898f611573565b9050885181511415614c305760005b8951811015614bd057818181518110614ace57fe5b6020026020010151604b60008f815260200190815260200160002060008c8481518110614af757fe5b6020026020010151815260200190815260200160002081905550818181518110614b1d57fe5b602002602001015183019250818181518110614b3557fe5b6020026020010151600014158015614b845750602260008e815260200190815260200160002060008b8381518110614b6957fe5b60200260200101518152602001908152602001600020546000145b15614bc8576000808b8381518110614b9857fe5b60209081029190910181015182528181019290925260400160009081208054600181018255908252919020018d90555b600101614ab9565b50826001600160a01b03166391c0aabf836040518263ffffffff1660e01b815260040180828152602001915050600060405180830381600087803b158015614c1757600080fd5b505af1158015614c2b573d6000803e3d6000fd5b505050505b505b909203604c555050505b50505050505050565b600454600554600091829182919081811015614c6c57600094506000935060009250614cbf565b6000828152600660205260408120805460028201805460018085018054969095556001600160a01b03198087169095559381169091556004805490930190925596506001600160a01b0390811695501692505b5050909192565b6000614cd0614049565b6001600160a01b03938416600081815260246020908152604080832085845282528083208990559282526023815282822080548901905592815260258352818120805488019055939094168352602790525020805482019055602680549091019055565b828054828255906000526020600020908101928215614d87579160200282015b82811115614d875781546001600160a01b0319166001600160a01b03843516178255602090920191600190910190614d54565b50614d93929150614da3565b5090565b603280614dc883390190565b6116d691905b80821115614d935780546001600160a01b0319168155600101614da956fe60806040526040516032380380603283398181016040526020811015602357600080fd5b50516001600160a01b038116fffea265627a7a72305820f88ae2c60322c34e22153e8c13fc0c56213ceaa94a63600db9477db2cb40096c64736f6c634300050a0032",
  "linkReferences": {},
  "deployedLinkReferences": {}
}